{
  "contractName": "AirDrop",
  "abi": [
    {
      "inputs": [
        {
          "internalType": "address",
          "name": "nft",
          "type": "address"
        },
        {
          "internalType": "address[]",
          "name": "whiteList",
          "type": "address[]"
        }
      ],
      "stateMutability": "nonpayable",
      "type": "constructor"
    },
    {
      "anonymous": false,
      "inputs": [
        {
          "indexed": true,
          "internalType": "address",
          "name": "previousOwner",
          "type": "address"
        },
        {
          "indexed": true,
          "internalType": "address",
          "name": "newOwner",
          "type": "address"
        }
      ],
      "name": "OwnershipTransferred",
      "type": "event"
    },
    {
      "inputs": [],
      "name": "HERO",
      "outputs": [
        {
          "internalType": "contract RichHero",
          "name": "",
          "type": "address"
        }
      ],
      "stateMutability": "view",
      "type": "function",
      "constant": true
    },
    {
      "inputs": [],
      "name": "RAND_BASE",
      "outputs": [
        {
          "internalType": "uint256",
          "name": "",
          "type": "uint256"
        }
      ],
      "stateMutability": "view",
      "type": "function",
      "constant": true
    },
    {
      "inputs": [],
      "name": "owner",
      "outputs": [
        {
          "internalType": "address",
          "name": "",
          "type": "address"
        }
      ],
      "stateMutability": "view",
      "type": "function",
      "constant": true
    },
    {
      "inputs": [],
      "name": "renounceOwnership",
      "outputs": [],
      "stateMutability": "nonpayable",
      "type": "function"
    },
    {
      "inputs": [
        {
          "internalType": "address",
          "name": "newOwner",
          "type": "address"
        }
      ],
      "name": "transferOwnership",
      "outputs": [],
      "stateMutability": "nonpayable",
      "type": "function"
    },
    {
      "inputs": [],
      "name": "claimAirDrop",
      "outputs": [],
      "stateMutability": "nonpayable",
      "type": "function"
    },
    {
      "inputs": [
        {
          "internalType": "address",
          "name": "receiver",
          "type": "address"
        }
      ],
      "name": "isInWhiteList",
      "outputs": [
        {
          "internalType": "bool",
          "name": "",
          "type": "bool"
        }
      ],
      "stateMutability": "view",
      "type": "function",
      "constant": true
    },
    {
      "inputs": [
        {
          "internalType": "address[]",
          "name": "whiteList",
          "type": "address[]"
        }
      ],
      "name": "addWhiteList",
      "outputs": [],
      "stateMutability": "nonpayable",
      "type": "function"
    },
    {
      "inputs": [
        {
          "internalType": "uint256",
          "name": "amount",
          "type": "uint256"
        },
        {
          "internalType": "bool",
          "name": "add",
          "type": "bool"
        }
      ],
      "name": "setDropBox",
      "outputs": [],
      "stateMutability": "nonpayable",
      "type": "function"
    },
    {
      "inputs": [],
      "name": "getDropBoxNumber",
      "outputs": [
        {
          "internalType": "uint256",
          "name": "",
          "type": "uint256"
        }
      ],
      "stateMutability": "view",
      "type": "function",
      "constant": true
    }
  ],
  "bytecode": "0x60806040523480156200001157600080fd5b506040516200162c3803806200162c83398101604081905262000034916200036b565b6200003f33620002cd565b62000055826200031d60201b6200061c1760201c565b620000945760405162461bcd60e51b815260206004820152600b60248201526a13999d08125b9d985b1a5960aa1b604482015260640160405180910390fd5b600180546001600160a01b0319166001600160a01b03841617905560005b8151811015620001735762000118600160036000858581518110620000db57620000db62000454565b60200260200101516001600160a01b03166001600160a01b03168152602001908152602001600020546200032360201b620006221790919060201c565b6003600084848151811062000131576200013162000454565b60200260200101516001600160a01b03166001600160a01b031681526020019081526020016000208190555080806200016a9062000480565b915050620000b2565b50506102587fb461597b32c2879004741023a6b144f8ef37b825f767423a00de0c822b437894555061012c7f239da3e98437785a20c26e8e13efcc45da18b1baebe1d401402eea0f51cafcd55560637f91d20de630691564f6cef82d0144fe3c5d71c4689515b50ff1405c7a72fc4a775560017fb3ac0f23b1cc9368d2334e3f9335c047ed5afca22feef8bc0d7ab3f615e5cb4d556103207f3ea0cdcb7883d9591ca47b0072a61cc2105ffa00c3935a8b563bdaf7ee812d0c5560967f47007552cc9ef2aa7f581bc5a92665a58e6672c0ac94476dae5881103c02f48f55601e7f54f435bd60d52ab3b68f943d567fb30f328bf0e27140df903010709fb2eb8a705560147fdc1d150e77a5d75a52de54b0e1cc5e12b45ee9fed19e15baa8c4fc48bbeb5090556000805260026020526113887fac33ff75c19e70fe83507db0d683fd3465c996598dc972688b7ace676c89077b55620004b9565b600080546001600160a01b038381166001600160a01b0319831681178455604051919092169283917f8be0079c531659141344cd1fd0a4f28419497f9722a3daafe3b4186f6b6457e09190a35050565b3b151590565b60006200033182846200049e565b9392505050565b80516001600160a01b03811681146200035057600080fd5b919050565b634e487b7160e01b600052604160045260246000fd5b600080604083850312156200037f57600080fd5b6200038a8362000338565b602084810151919350906001600160401b0380821115620003aa57600080fd5b818601915086601f830112620003bf57600080fd5b815181811115620003d457620003d462000355565b8060051b604051601f19603f83011681018181108582111715620003fc57620003fc62000355565b6040529182528482019250838101850191898311156200041b57600080fd5b938501935b828510156200044457620004348562000338565b8452938501939285019262000420565b8096505050505050509250929050565b634e487b7160e01b600052603260045260246000fd5b634e487b7160e01b600052601160045260246000fd5b60006000198214156200049757620004976200046a565b5060010190565b60008219821115620004b457620004b46200046a565b500190565b61116380620004c96000396000f3fe608060405234801561001057600080fd5b506004361061009e5760003560e01c80638da5cb5b116100665780638da5cb5b1461011a57806396bfc2291461012b578063b29985b11461014e578063e65877a11461016c578063f2fde38b1461017457600080fd5b80633bba6a36146100a35780635800ba11146100d35780635e1045ec146100ea578063715018a6146100ff5780637596ad8f14610107575b600080fd5b6001546100b6906001600160a01b031681565b6040516001600160a01b0390911681526020015b60405180910390f35b6100dc6103e881565b6040519081526020016100ca565b6100fd6100f8366004610d9a565b610187565b005b6100fd610271565b6100fd610115366004610e5e565b6102a7565b6000546001600160a01b03166100b6565b61013e610139366004610e93565b61033a565b60405190151581526020016100ca565b60008052600260205260008051602061110e833981519152546100dc565b6100fd610368565b6100fd610182366004610e93565b610581565b6000546001600160a01b031633146101ba5760405162461bcd60e51b81526004016101b190610eae565b60405180910390fd5b60005b815181101561026d576102186001600360008585815181106101e1576101e1610ee3565b60200260200101516001600160a01b03166001600160a01b031681526020019081526020016000205461062290919063ffffffff16565b6003600084848151811061022e5761022e610ee3565b60200260200101516001600160a01b03166001600160a01b0316815260200190815260200160002081905550808061026590610f0f565b9150506101bd565b5050565b6000546001600160a01b0316331461029b5760405162461bcd60e51b81526004016101b190610eae565b6102a56000610635565b565b6000546001600160a01b031633146102d15760405162461bcd60e51b81526004016101b190610eae565b80156103175760008052600260205260008051602061110e833981519152546102fa9083610622565b60008052600260205260008051602061110e833981519152555050565b60008052600260205260008051602061110e833981519152546102fa9083610685565b6001600160a01b0381166000908152600360205260408120541561036057506001919050565b506000919050565b3332146103b75760405162461bcd60e51b815260206004820152601860248201527f5468652063616c6c6572206973206e6f7420616e20454f41000000000000000060448201526064016101b1565b60008052600260205260008051602061110e8339815191525460018110156104215760405162461bcd60e51b815260206004820152601a60248201527f496e73756666696369656e74207175616e74697479206c65667400000000000060448201526064016101b1565b3360009081526003602052604090205461047d5760405162461bcd60e51b815260206004820152601a60248201527f4e6f20617661696c61626c652061697264726f7020636f756e7400000000000060448201526064016101b1565b33600090815260036020526040902054610498906001610685565b33600090815260036020526040808220929092558151600d8082526101c0820190935290918160200160208202803683370190505090506104d96000610691565b60008052600260205260008051602061110e83398151915254909150610500906001610685565b60008052600260205260008051602061110e83398151915255600154604051632d716a8b60e11b81526001600160a01b0390911690635ae2d5169061054b9033908590600401610f2a565b600060405180830381600087803b15801561056557600080fd5b505af1158015610579573d6000803e3d6000fd5b505050505050565b6000546001600160a01b031633146105ab5760405162461bcd60e51b81526004016101b190610eae565b6001600160a01b0381166106105760405162461bcd60e51b815260206004820152602660248201527f4f776e61626c653a206e6577206f776e657220697320746865207a65726f206160448201526564647265737360d01b60648201526084016101b1565b61061981610635565b50565b3b151590565b600061062e8284610f89565b9392505050565b600080546001600160a01b038381166001600160a01b0319831681178455604051919092169283917f8be0079c531659141344cd1fd0a4f28419497f9722a3daafe3b4186f6b6457e09190a35050565b600061062e8284610fa1565b60408051600d8082526101c0820190925260609160009190602082016101a08036833701905050905060008390506000826000815181106106d4576106d4610ee3565b6001600160401b0390921660209283029190910182015260015460408051633bd5e17760e01b8152905161077b936001600160a01b0390931692633bd5e1779260048082019391829003018186803b15801561072f57600080fd5b505afa158015610743573d6000803e3d6000fd5b505050506040513d601f19601f820116820180604052508101906107679190610fb8565b60ff168261077481610f0f565b9350610d00565b8260018151811061078e5761078e610ee3565b6001600160401b039092166020928302919091019091015260006107bf6103e8836107b881610f0f565b9450610d00565b90506000805b6005816001600160401b03161015610873576001600160401b03811660009081527fac33ff75c19e70fe83507db0d683fd3465c996598dc972688b7ace676c89077c602052604090205461081a908390610622565b915081831061082857610861565b808560028151811061083c5761083c610ee3565b60200260200101906001600160401b031690816001600160401b031681525050610873565b8061086b81610fdb565b9150506107c5565b505060015483516108ef92506001600160a01b039091169063614a4e4490859060029081106108a4576108a4610ee3565b60200260200101516040518263ffffffff1660e01b81526004016108d791906001600160401b0391909116815260200190565b60206040518083038186803b15801561072f57600080fd5b8260038151811061090257610902610ee3565b60200260200101906001600160401b031690816001600160401b03168152505060008260048151811061093757610937610ee3565b60200260200101906001600160401b031690816001600160401b03168152505060008260058151811061096c5761096c610ee3565b6001600160401b039092166020928302919091019091015260006109966103e8836107b881610f0f565b90506000805b6004816001600160401b03161015610a4a576001600160401b03811660009081527fac33ff75c19e70fe83507db0d683fd3465c996598dc972688b7ace676c89077d60205260409020546109f1908390610622565b91508183106109ff57610a38565b8085600681518110610a1357610a13610ee3565b60200260200101906001600160401b031690816001600160401b031681525050610a4a565b80610a4281610fdb565b91505061099c565b5050600154835160009182916001600160a01b039091169063793eece19087906006908110610a7b57610a7b610ee3565b60200260200101516040518263ffffffff1660e01b8152600401610aae91906001600160401b0391909116815260200190565b604080518083038186803b158015610ac557600080fd5b505afa158015610ad9573d6000803e3d6000fd5b505050506040513d601f19601f82011682018060405250810190610afd9190611019565b91509150610b20816001600160401b03168580610b1990610f0f565b9650610d00565b610b2a908361104c565b85600781518110610b3d57610b3d610ee3565b6001600160401b03909216602092830291909101909101526001805486516001600160a01b039091169163a2edc2d6918891908110610b7e57610b7e610ee3565b602002602001015187600281518110610b9957610b99610ee3565b602002602001015188600381518110610bb457610bb4610ee3565b60200260200101516040518463ffffffff1660e01b8152600401610bf8939291906001600160401b0393841681529183166020830152909116604082015260600190565b60c06040518083038186803b158015610c1057600080fd5b505afa158015610c24573d6000803e3d6000fd5b505050506040513d601f19601f82011682018060405250810190610c489190611077565b90919293945089600881518110610c6157610c61610ee3565b602002602001018a600981518110610c7b57610c7b610ee3565b602002602001018b600a81518110610c9557610c95610ee3565b602002602001018c600b81518110610caf57610caf610ee3565b602002602001018d600c81518110610cc957610cc9610ee3565b6001600160401b03968716602091820292909201015294841690945293821690925292831690915291169052509295945050505050565b600080428333604051602001610d3b93929190928352602083019190915260601b6bffffffffffffffffffffffff1916604082015260540190565b60408051601f1981840301815291905280516020820120909150610d609085906110eb565b949350505050565b634e487b7160e01b600052604160045260246000fd5b80356001600160a01b0381168114610d9557600080fd5b919050565b60006020808385031215610dad57600080fd5b82356001600160401b0380821115610dc457600080fd5b818501915085601f830112610dd857600080fd5b813581811115610dea57610dea610d68565b8060051b604051601f19603f83011681018181108582111715610e0f57610e0f610d68565b604052918252848201925083810185019188831115610e2d57600080fd5b938501935b82851015610e5257610e4385610d7e565b84529385019392850192610e32565b98975050505050505050565b60008060408385031215610e7157600080fd5b8235915060208301358015158114610e8857600080fd5b809150509250929050565b600060208284031215610ea557600080fd5b61062e82610d7e565b6020808252818101527f4f776e61626c653a2063616c6c6572206973206e6f7420746865206f776e6572604082015260600190565b634e487b7160e01b600052603260045260246000fd5b634e487b7160e01b600052601160045260246000fd5b6000600019821415610f2357610f23610ef9565b5060010190565b6001600160a01b038316815260406020808301829052835191830182905260009184820191906060850190845b81811015610f7c5784516001600160401b031683529383019391830191600101610f57565b5090979650505050505050565b60008219821115610f9c57610f9c610ef9565b500190565b600082821015610fb357610fb3610ef9565b500390565b600060208284031215610fca57600080fd5b815160ff8116811461062e57600080fd5b60006001600160401b0380831681811415610ff857610ff8610ef9565b6001019392505050565b80516001600160401b0381168114610d9557600080fd5b6000806040838503121561102c57600080fd5b61103583611002565b915061104360208401611002565b90509250929050565b60006001600160401b0380831681851680830382111561106e5761106e610ef9565b01949350505050565b60008060008060008060c0878903121561109057600080fd5b61109987611002565b95506110a760208801611002565b94506110b560408801611002565b93506110c360608801611002565b92506110d160808801611002565b91506110df60a08801611002565b90509295509295509295565b60008261110857634e487b7160e01b600052601260045260246000fd5b50069056feac33ff75c19e70fe83507db0d683fd3465c996598dc972688b7ace676c89077ba2646970667358221220c5c6434ddb90b5e2a1f14711c76b88386a8a1dd4f8c272295b30ce24b81bc89f64736f6c63430008090033",
  "immutableReferences": {},
  "source": "// SPDX-License-Identifier: SimPL-2.0\n\npragma solidity ^0.8.0;\npragma experimental ABIEncoderV2;\n\nimport \"./RichHero.sol\";\n\nimport \"@openzeppelin/contracts/access/Ownable.sol\";\nimport \"@openzeppelin/contracts/token/ERC20/IERC20.sol\";\n\nimport \"@openzeppelin/contracts/utils/Address.sol\";\nimport \"@openzeppelin/contracts/utils/math/SafeMath.sol\";\nimport \"@openzeppelin/contracts/utils/structs/EnumerableSet.sol\";\n\n/**\n* @title AirDrop - Romance of the Three Kingdoms AirDrop\n*\n* Version v1.1.0\n*\n*/\n\ncontract AirDrop is Ownable {\n    using SafeMath for uint256;\n\n    struct DropBoxStruct {\n        uint256 totalHero;\n        mapping (uint256 => uint256) rarities;\n        mapping (uint256 => uint256) qualities;\n    }\n\n    uint256 public constant RAND_BASE = 1000;\n    RichHero public HERO;\n\n    mapping (uint256 => DropBoxStruct) private _dropBoxes;\n    mapping (address => uint256) private _whiteList;\n\n    constructor(address nft, address[] memory whiteList) {\n        require(Address.isContract(nft), \"Nft Invalid\");\n        HERO = RichHero(nft);\n        for (uint256 i = 0; i < whiteList.length; i++) {\n            _whiteList[whiteList[i]] = _whiteList[whiteList[i]].add(1);\n        }\n        _dropBoxes[0].rarities[0] = 600;\n        _dropBoxes[0].rarities[1] = 300;\n        _dropBoxes[0].rarities[2] = 99;\n        _dropBoxes[0].rarities[3] = 1;\n        _dropBoxes[0].qualities[0] = 800;\n        _dropBoxes[0].qualities[1] = 150;\n        _dropBoxes[0].qualities[2] = 30;\n        _dropBoxes[0].qualities[3] = 20;\n        _dropBoxes[0].totalHero = 5000;\n    }\n\n    function _random(uint256 value, uint256 index) private view returns (uint256) {\n        bytes memory seed = abi.encodePacked(block.timestamp, index, msg.sender);\n        return uint256(keccak256(seed)) % value;\n    }\n\n    function _choose(uint256 index) private view\n        returns (uint64[] memory) {\n        uint64[] memory heroDetail = new uint64[](13);\n        uint256 randIndex = index;\n        heroDetail[0] = 0; //native\n        heroDetail[1] = uint64(_random(uint256(HERO.camps()), randIndex++)); //camp\n        {\n            uint256 ranRarity = _random(RAND_BASE, randIndex++);\n            uint256 rarityTotal;\n            for (uint64 i = 0; i < 5; i++) {\n                rarityTotal = rarityTotal.add(_dropBoxes[0].rarities[i]);\n                if (ranRarity >= rarityTotal) {\n                    continue;\n                } else {\n                    heroDetail[2] = i; //rarity\n                    break;\n                }\n            }\n        }\n        heroDetail[3] = uint64(_random(uint256(HERO.heroIds(heroDetail[2])), randIndex++)); //heroId\n        heroDetail[4] = 0; //level\n        heroDetail[5] = 0; //star  \n        uint256 ranQuality = _random(RAND_BASE, randIndex++);\n        {\n            uint256 qualityTotal;\n            for (uint64 i = 0; i < 4; i++) {\n                qualityTotal = qualityTotal.add(_dropBoxes[0].qualities[i]);\n                if (ranQuality >= qualityTotal) {\n                    continue;\n                } else {\n                    heroDetail[6] = i; //quality\n                    break;\n                }\n            }\n        }\n        (uint64 baseAddition, uint64 additionMod) = HERO.additions(heroDetail[6]);\n        heroDetail[7] = baseAddition + uint64(_random(additionMod, randIndex++)); //addition\n        (,\n        heroDetail[8],\n        heroDetail[9],\n        heroDetail[10],\n        heroDetail[11],\n        heroDetail[12]) = HERO._heroInitials(heroDetail[1], heroDetail[2], heroDetail[3]); //preference\n        return heroDetail;\n    }\n\n    function claimAirDrop() public {\n        require(msg.sender == tx.origin, \"The caller is not an EOA\");\n        uint256 number = _dropBoxes[0].totalHero;\n        require(number >= 1, \"Insufficient quantity left\");\n        require(_whiteList[msg.sender] > 0, \"No available airdrop count\");\n        _whiteList[msg.sender] = _whiteList[msg.sender].sub(1);\n        uint64[] memory detail = new uint64[](13);\n        detail = _choose(0);\n        _dropBoxes[0].totalHero = _dropBoxes[0].totalHero.sub(1);\n        HERO.mint(msg.sender, detail);\n    }\n\n    function isInWhiteList(address receiver) public view returns (bool) {\n        if (_whiteList[receiver] > 0) {\n            return true;\n        }\n        return false;\n    }\n\n    function addWhiteList(address[] memory whiteList) public onlyOwner {\n        for (uint256 i = 0; i < whiteList.length; i++) {\n            _whiteList[whiteList[i]] = _whiteList[whiteList[i]].add(1);\n        }\n    }\n\n    function setDropBox(uint256 amount, bool add) public onlyOwner {\n        if (add) {\n            _dropBoxes[0].totalHero = _dropBoxes[0].totalHero.add(amount);\n        } else {\n            _dropBoxes[0].totalHero = _dropBoxes[0].totalHero.sub(amount);\n        }\n    }\n\n    function getDropBoxNumber() public view returns (uint256) {\n        return _dropBoxes[0].totalHero;\n    }\n}",
  "sourcePath": "/Users/hy/new-rich-contract/contracts/AirDrop.sol",
  "compiler": {
    "name": "solc",
    "version": "0.8.9+commit.e5eed63a.Emscripten.clang"
  },
  "schemaVersion": "3.4.3",
  "updatedAt": "2022-02-22T14:19:16.335Z",
  "networkType": "ethereum",
  "devdoc": {
    "kind": "dev",
    "methods": {
      "owner()": {
        "details": "Returns the address of the current owner."
      },
      "renounceOwnership()": {
        "details": "Leaves the contract without owner. It will not be possible to call `onlyOwner` functions anymore. Can only be called by the current owner. NOTE: Renouncing ownership will leave the contract without an owner, thereby removing any functionality that is only available to the owner."
      },
      "transferOwnership(address)": {
        "details": "Transfers ownership of the contract to a new account (`newOwner`). Can only be called by the current owner."
      }
    },
    "title": "AirDrop - Romance of the Three Kingdoms AirDrop Version v1.1.0",
    "version": 1
  },
  "userdoc": {
    "kind": "user",
    "methods": {},
    "notice": "",
    "version": 1
  }
}