{
  "contractName": "AirDrop2",
  "abi": [
    {
      "inputs": [
        {
          "internalType": "address",
          "name": "nft",
          "type": "address"
        }
      ],
      "stateMutability": "nonpayable",
      "type": "constructor"
    },
    {
      "anonymous": false,
      "inputs": [
        {
          "indexed": true,
          "internalType": "address",
          "name": "previousOwner",
          "type": "address"
        },
        {
          "indexed": true,
          "internalType": "address",
          "name": "newOwner",
          "type": "address"
        }
      ],
      "name": "OwnershipTransferred",
      "type": "event"
    },
    {
      "inputs": [],
      "name": "HERO",
      "outputs": [
        {
          "internalType": "contract RichHero",
          "name": "",
          "type": "address"
        }
      ],
      "stateMutability": "view",
      "type": "function"
    },
    {
      "inputs": [],
      "name": "RAND_BASE",
      "outputs": [
        {
          "internalType": "uint256",
          "name": "",
          "type": "uint256"
        }
      ],
      "stateMutability": "view",
      "type": "function"
    },
    {
      "inputs": [
        {
          "internalType": "address",
          "name": "",
          "type": "address"
        }
      ],
      "name": "claimed",
      "outputs": [
        {
          "internalType": "bool",
          "name": "",
          "type": "bool"
        }
      ],
      "stateMutability": "view",
      "type": "function"
    },
    {
      "inputs": [],
      "name": "owner",
      "outputs": [
        {
          "internalType": "address",
          "name": "",
          "type": "address"
        }
      ],
      "stateMutability": "view",
      "type": "function"
    },
    {
      "inputs": [],
      "name": "renounceOwnership",
      "outputs": [],
      "stateMutability": "nonpayable",
      "type": "function"
    },
    {
      "inputs": [
        {
          "internalType": "address",
          "name": "newOwner",
          "type": "address"
        }
      ],
      "name": "transferOwnership",
      "outputs": [],
      "stateMutability": "nonpayable",
      "type": "function"
    },
    {
      "inputs": [
        {
          "internalType": "bytes32",
          "name": "root",
          "type": "bytes32"
        }
      ],
      "name": "setRoot",
      "outputs": [],
      "stateMutability": "nonpayable",
      "type": "function"
    },
    {
      "inputs": [
        {
          "internalType": "bool",
          "name": "state",
          "type": "bool"
        }
      ],
      "name": "setAirDropState",
      "outputs": [],
      "stateMutability": "nonpayable",
      "type": "function"
    },
    {
      "inputs": [
        {
          "internalType": "bytes32[]",
          "name": "merkleProof",
          "type": "bytes32[]"
        }
      ],
      "name": "claimAirDrop",
      "outputs": [],
      "stateMutability": "nonpayable",
      "type": "function"
    },
    {
      "inputs": [],
      "name": "claimNormalAirDrop",
      "outputs": [],
      "stateMutability": "nonpayable",
      "type": "function"
    },
    {
      "inputs": [],
      "name": "claimSpecialAirDrop",
      "outputs": [],
      "stateMutability": "nonpayable",
      "type": "function"
    },
    {
      "inputs": [
        {
          "internalType": "address",
          "name": "receiver",
          "type": "address"
        }
      ],
      "name": "isInWhiteList",
      "outputs": [
        {
          "internalType": "bool",
          "name": "",
          "type": "bool"
        }
      ],
      "stateMutability": "view",
      "type": "function"
    },
    {
      "inputs": [
        {
          "internalType": "address[]",
          "name": "whiteList",
          "type": "address[]"
        }
      ],
      "name": "addWhiteList",
      "outputs": [],
      "stateMutability": "nonpayable",
      "type": "function"
    },
    {
      "inputs": [
        {
          "internalType": "address",
          "name": "receiver",
          "type": "address"
        }
      ],
      "name": "isInWhiteList2",
      "outputs": [
        {
          "internalType": "bool",
          "name": "",
          "type": "bool"
        }
      ],
      "stateMutability": "view",
      "type": "function"
    },
    {
      "inputs": [
        {
          "internalType": "address[]",
          "name": "whiteList",
          "type": "address[]"
        }
      ],
      "name": "addWhiteList2",
      "outputs": [],
      "stateMutability": "nonpayable",
      "type": "function"
    },
    {
      "inputs": [
        {
          "internalType": "uint256",
          "name": "amount",
          "type": "uint256"
        },
        {
          "internalType": "uint256",
          "name": "boxId",
          "type": "uint256"
        },
        {
          "internalType": "bool",
          "name": "add",
          "type": "bool"
        }
      ],
      "name": "setDropBox",
      "outputs": [],
      "stateMutability": "nonpayable",
      "type": "function"
    },
    {
      "inputs": [],
      "name": "getDropBoxNumber",
      "outputs": [
        {
          "internalType": "uint256",
          "name": "",
          "type": "uint256"
        },
        {
          "internalType": "uint256",
          "name": "",
          "type": "uint256"
        }
      ],
      "stateMutability": "view",
      "type": "function"
    },
    {
      "inputs": [
        {
          "internalType": "address",
          "name": "hero",
          "type": "address"
        }
      ],
      "name": "setHero",
      "outputs": [],
      "stateMutability": "nonpayable",
      "type": "function"
    }
  ],
  "bytecode": "0x608060405234801561001057600080fd5b50604051611c06380380611c0683398101604081905261002f91610348565b610038336102f8565b600180546001600160a01b0319166001600160a01b0392909216919091178155603c7fe3376228ee0a69be7089fc43edf29ebd2ea58c5f90a2da614ae8fea7b7b5ae5e556103527fb34bb2b6a661eed56c38db76fc8c1f584202d877ef919308954fc7baf2c316085560507fafd0ad0303e08199ef900b51ace4d6328e60bbd6514a1c9abd836665a23b9b9d55600a7f06d5daa0b04df93d6d261eac3552faf86f11f89d356c2dfe80f4ff00461005e0556103207faf4b7f25c4fee1414fb91482fcd14d7ca512876c072fc7fb9a06055753f628c181905560967f595fbe8361b56b39e2f9a4064314c6338aacfac08accb9ca005fa68d6eb30b4f819055601e7f8371c000d19b9e67ef7151a92502089797c6dda44c20eceb527f0fd0fe0513f481905560147f5e895c8fa15336594314e03ec03c503e6da3640488e87c84e78925ea9aa7daa68190556113887f3617319a054d772f909f7c479a2cebe5066e836a939412e32403c99029b92eff5560007f5e77ede6385ad076ff96362dddedfd797dc027a034bc2591fae3fee7e86e6efb8190557fe892ac04930c61e7e70906a735351f5cb61416eefa4c23e40f14a05e7e1c7a218190557fc008da4e945e66bbc083f602b324558e5fc356fea951800ea37e3999980752298190556103e87fdd9e44850b12d828233a70a16354737195818e22dd4a18960835fc64a3fc2953557ff6fdb47d1172c66238a058c3b549b0947d163d71879fff13a2509dd4da382727949094557ffb5607fdc666111a5d908842880238ab1a0c05dc0ec7579567d105da574e7415929092557f95d0d2559909e5fc1f79274e1b358a38497b3a226be9c180fb38b8943d510bbe557f0d87cd5b3cdcef8d2606c1438fe40ac5e33df490b36cee40b9213aaa9c78ae7e555260036020526101f47fa15bc60c955c405d20d9149c709e2460f1c2d9a497496a7f46004d1772c3054c55610378565b600080546001600160a01b038381166001600160a01b0319831681178455604051919092169283917f8be0079c531659141344cd1fd0a4f28419497f9722a3daafe3b4186f6b6457e09190a35050565b60006020828403121561035a57600080fd5b81516001600160a01b038116811461037157600080fd5b9392505050565b61187f806103876000396000f3fe608060405234801561001057600080fd5b50600436106100f65760003560e01c80638eac88b8116100925780638eac88b8146101b857806396bfc229146101cb578063b29985b1146101de578063c324965b1461021b578063c4efe81e1461022e578063c884ef8314610241578063cc9471e214610264578063dab5f3401461026c578063f2fde38b1461027f57600080fd5b80632d1b0ce9146100fb57806338841b0a146101235780633bba6a361461012d5780634a105ff01461015857806356bda1831461016b5780635800ba111461017e5780635e1045ec14610195578063715018a6146101a85780638da5cb5b146101b0575b600080fd5b61010e610109366004611331565b610292565b60405190151581526020015b60405180910390f35b61012b6102c0565b005b600154610140906001600160a01b031681565b6040516001600160a01b03909116815260200161011a565b61012b610166366004611362565b610452565b61012b610179366004611426565b610538565b6101876103e881565b60405190815260200161011a565b61012b6101a3366004611362565b6106ca565b61012b610775565b6101406107b0565b61012b6101c63660046114aa565b6107bf565b61010e6101d9366004611331565b61083a565b6003602090815260008051602061182a83398151915254600160005260008051602061180a8339815191525460408051928352928201520161011a565b61012b610229366004611331565b610860565b61012b61023c3660046114df565b6108b1565b61010e61024f366004611331565b60066020526000908152604090205460ff1681565b61012b6108fe565b61012b61027a3660046114fa565b610a59565b61012b61028d366004611331565b610a8d565b6001600160a01b038116600090815260056020526040812054156102b857506001919050565b506000919050565b3332146102e85760405162461bcd60e51b81526004016102df90611513565b60405180910390fd5b60008052600360205260008051602061182a8339815191525460018110156103225760405162461bcd60e51b81526004016102df90611545565b3360009081526004602052604090205461034e5760405162461bcd60e51b81526004016102df9061157c565b33600090815260046020526040902054610369906001610b2d565b33600090815260046020526040808220929092558151600d8082526101c0820190935290918160200160208202803683370190505090506103aa6000610b42565b60008052600360205260008051602061182a833981519152549091506103d1906001610b2d565b60008052600360205260008051602061182a83398151915255600154604051632d716a8b60e11b81526001600160a01b0390911690635ae2d5169061041c90339085906004016115b3565b600060405180830381600087803b15801561043657600080fd5b505af115801561044a573d6000803e3d6000fd5b505050505050565b3361045b6107b0565b6001600160a01b0316146104815760405162461bcd60e51b81526004016102df90611612565b60005b8151811015610534576104df6001600560008585815181106104a8576104a8611647565b60200260200101516001600160a01b03166001600160a01b031681526020019081526020016000205461115d90919063ffffffff16565b600560008484815181106104f5576104f5611647565b60200260200101516001600160a01b03166001600160a01b0316815260200190815260200160002081905550808061052c90611673565b915050610484565b5050565b600154600160a01b900460ff1661054e57600080fd5b33321461056d5760405162461bcd60e51b81526004016102df90611513565b60008052600360205260008051602061182a8339815191525460018110156105a75760405162461bcd60e51b81526004016102df90611545565b6105b48383600254611169565b6105bd57600080fd5b3360009081526006602052604090205460ff16156105da57600080fd5b336000908152600660209081526040808320805460ff191660011790558051600d8082526101c082019092529182016101a0803683370190505090506106206000610b42565b6000808052600360205260008051602061182a833981519152549192506106479190610b2d565b60008052600360205260008051602061182a83398151915255600154604051632d716a8b60e11b81526001600160a01b0390911690635ae2d5169061069290339085906004016115b3565b600060405180830381600087803b1580156106ac57600080fd5b505af11580156106c0573d6000803e3d6000fd5b5050505050505050565b336106d36107b0565b6001600160a01b0316146106f95760405162461bcd60e51b81526004016102df90611612565b60005b8151811015610534576107206001600460008585815181106104a8576104a8611647565b6004600084848151811061073657610736611647565b60200260200101516001600160a01b03166001600160a01b0316815260200190815260200160002081905550808061076d90611673565b9150506106fc565b3361077e6107b0565b6001600160a01b0316146107a45760405162461bcd60e51b81526004016102df90611612565b6107ae60006111e0565b565b6000546001600160a01b031690565b336107c86107b0565b6001600160a01b0316146107ee5760405162461bcd60e51b81526004016102df90611612565b80156108215760008281526003602052604090205461080d908461115d565b600083815260036020526040902055505050565b60008281526003602052604090205461080d9084610b2d565b6001600160a01b038116600090815260046020526040812054156102b857506001919050565b336108696107b0565b6001600160a01b03161461088f5760405162461bcd60e51b81526004016102df90611612565b600180546001600160a01b0319166001600160a01b0392909216919091179055565b336108ba6107b0565b6001600160a01b0316146108e05760405162461bcd60e51b81526004016102df90611612565b60018054911515600160a01b0260ff60a01b19909216919091179055565b33321461091d5760405162461bcd60e51b81526004016102df90611513565b60016000819052600360205260008051602061180a83398151915254908110156109595760405162461bcd60e51b81526004016102df90611545565b336000908152600560205260409020546109855760405162461bcd60e51b81526004016102df9061157c565b336000908152600560205260409020546109a0906001610b2d565b33600090815260056020526040808220929092558151600d8082526101c0820190935290918160200160208202803683370190505090506109e16001610b42565b60016000819052600360205260008051602061180a83398151915254919250610a0a9190610b2d565b60016000819052600360205260008051602061180a8339815191529190915554604051632d716a8b60e11b81526001600160a01b0390911690635ae2d5169061041c90339085906004016115b3565b33610a626107b0565b6001600160a01b031614610a885760405162461bcd60e51b81526004016102df90611612565b600255565b33610a966107b0565b6001600160a01b031614610abc5760405162461bcd60e51b81526004016102df90611612565b6001600160a01b038116610b215760405162461bcd60e51b815260206004820152602660248201527f4f776e61626c653a206e6577206f776e657220697320746865207a65726f206160448201526564647265737360d01b60648201526084016102df565b610b2a816111e0565b50565b6000610b39828461168c565b90505b92915050565b60408051600d8082526101c0820190925260609160009190602082016101a0803683370190505090506000839050600082600081518110610b8557610b85611647565b6001600160401b0390921660209283029190910182015260015460408051633bd5e17760e01b81529051610c1d936001600160a01b0390931692633bd5e17792600480820193918290030181865afa158015610be5573d6000803e3d6000fd5b505050506040513d601f19601f82011682018060405250810190610c09919061169f565b60ff1682610c1681611673565b9350611230565b82600181518110610c3057610c30611647565b6001600160401b03909216602092830291909101909101526000610c616103e883610c5a81611673565b9450611230565b90506000805b6005816001600160401b03161015610cff5760008781526003602090815260408083206001600160401b0385168452600101909152902054610caa90839061115d565b915081831015610ced578085600281518110610cc857610cc8611647565b60200260200101906001600160401b031690816001600160401b031681525050610cff565b80610cf7816116c9565b915050610c67565b50506001548351610d8092506001600160a01b039091169063614a4e449085906002908110610d3057610d30611647565b60200260200101516040518263ffffffff1660e01b8152600401610d6391906001600160401b0391909116815260200190565b602060405180830381865afa158015610be5573d6000803e3d6000fd5b82600381518110610d9357610d93611647565b60200260200101906001600160401b031690816001600160401b031681525050600082600481518110610dc857610dc8611647565b60200260200101906001600160401b031690816001600160401b031681525050600082600581518110610dfd57610dfd611647565b6001600160401b03909216602092830291909101909101526000610e276103e883610c5a81611673565b90506000805b6004816001600160401b03161015610ec55760008781526003602090815260408083206001600160401b0385168452600201909152902054610e7090839061115d565b915081831015610eb3578085600681518110610e8e57610e8e611647565b60200260200101906001600160401b031690816001600160401b031681525050610ec5565b80610ebd816116c9565b915050610e2d565b5050600154835160009182916001600160a01b039091169063793eece19087906006908110610ef657610ef6611647565b60200260200101516040518263ffffffff1660e01b8152600401610f2991906001600160401b0391909116815260200190565b6040805180830381865afa158015610f45573d6000803e3d6000fd5b505050506040513d601f19601f82011682018060405250810190610f699190611706565b91509150610f8c816001600160401b03168580610f8590611673565b9650611230565b610f969083611739565b85600781518110610fa957610fa9611647565b6001600160401b03909216602092830291909101909101526001805486516001600160a01b039091169163a2edc2d6918891908110610fea57610fea611647565b60200260200101518760028151811061100557611005611647565b60200260200101518860038151811061102057611020611647565b60200260200101516040518463ffffffff1660e01b8152600401611064939291906001600160401b0393841681529183166020830152909116604082015260600190565b60c060405180830381865afa158015611081573d6000803e3d6000fd5b505050506040513d601f19601f820116820180604052508101906110a59190611760565b909192939450896008815181106110be576110be611647565b602002602001018a6009815181106110d8576110d8611647565b602002602001018b600a815181106110f2576110f2611647565b602002602001018c600b8151811061110c5761110c611647565b602002602001018d600c8151811061112657611126611647565b6001600160401b03968716602091820292909201015294841690945293821690925292831690915291169052509295945050505050565b6000610b3982846117d4565b60006111d8848480806020026020016040519081016040528093929190818152602001838360200280828437600092019190915250506040516001600160601b03193360601b16602082015286925060340190506040516020818303038152906040528051906020012061128b565b949350505050565b600080546001600160a01b038381166001600160a01b0319831681178455604051919092169283917f8be0079c531659141344cd1fd0a4f28419497f9722a3daafe3b4186f6b6457e09190a35050565b60008042833360405160200161126693929190928352602083019190915260601b6001600160601b031916604082015260540190565b60408051601f19818403018152919052805160208201209091506111d89085906117e7565b60008261129885846112a1565b14949350505050565b600081815b845181101561130d5760008582815181106112c3576112c3611647565b602002602001015190508083116112e957600083815260208290526040902092506112fa565b600081815260208490526040902092505b508061130581611673565b9150506112a6565b509392505050565b80356001600160a01b038116811461132c57600080fd5b919050565b60006020828403121561134357600080fd5b610b3982611315565b634e487b7160e01b600052604160045260246000fd5b6000602080838503121561137557600080fd5b82356001600160401b038082111561138c57600080fd5b818501915085601f8301126113a057600080fd5b8135818111156113b2576113b261134c565b8060051b604051601f19603f830116810181811085821117156113d7576113d761134c565b6040529182528482019250838101850191888311156113f557600080fd5b938501935b8285101561141a5761140b85611315565b845293850193928501926113fa565b98975050505050505050565b6000806020838503121561143957600080fd5b82356001600160401b038082111561145057600080fd5b818501915085601f83011261146457600080fd5b81358181111561147357600080fd5b8660208260051b850101111561148857600080fd5b60209290920196919550909350505050565b8035801515811461132c57600080fd5b6000806000606084860312156114bf57600080fd5b83359250602084013591506114d66040850161149a565b90509250925092565b6000602082840312156114f157600080fd5b610b398261149a565b60006020828403121561150c57600080fd5b5035919050565b6020808252601890820152775468652063616c6c6572206973206e6f7420616e20454f4160401b604082015260600190565b6020808252601a908201527f496e73756666696369656e74207175616e74697479206c656674000000000000604082015260600190565b6020808252601a908201527f4e6f20617661696c61626c652061697264726f7020636f756e74000000000000604082015260600190565b6001600160a01b038316815260406020808301829052835191830182905260009184820191906060850190845b818110156116055784516001600160401b0316835293830193918301916001016115e0565b5090979650505050505050565b6020808252818101527f4f776e61626c653a2063616c6c6572206973206e6f7420746865206f776e6572604082015260600190565b634e487b7160e01b600052603260045260246000fd5b634e487b7160e01b600052601160045260246000fd5b6000600182016116855761168561165d565b5060010190565b81810381811115610b3c57610b3c61165d565b6000602082840312156116b157600080fd5b815160ff811681146116c257600080fd5b9392505050565b60006001600160401b038083168181036116e5576116e561165d565b6001019392505050565b80516001600160401b038116811461132c57600080fd5b6000806040838503121561171957600080fd5b611722836116ef565b9150611730602084016116ef565b90509250929050565b6001600160401b038181168382160190808211156117595761175961165d565b5092915050565b60008060008060008060c0878903121561177957600080fd5b611782876116ef565b9550611790602088016116ef565b945061179e604088016116ef565b93506117ac606088016116ef565b92506117ba608088016116ef565b91506117c860a088016116ef565b90509295509295509295565b80820180821115610b3c57610b3c61165d565b60008261180457634e487b7160e01b600052601260045260246000fd5b50069056fea15bc60c955c405d20d9149c709e2460f1c2d9a497496a7f46004d1772c3054c3617319a054d772f909f7c479a2cebe5066e836a939412e32403c99029b92effa26469706673582212204d7ba423dacd638186940c88b56cb37b18ae509d110672d9d11f569e4d8e522464736f6c63430008100033",
  "immutableReferences": {},
  "source": "// SPDX-License-Identifier: SimPL-2.0\n\npragma solidity ^0.8.0;\npragma experimental ABIEncoderV2;\n\nimport \"./RichHero.sol\";\n\nimport \"@openzeppelin/contracts/access/Ownable.sol\";\nimport \"@openzeppelin/contracts/token/ERC20/IERC20.sol\";\n\nimport \"@openzeppelin/contracts/utils/math/SafeMath.sol\";\nimport \"@openzeppelin/contracts/utils/cryptography/MerkleProof.sol\";\n/**\n* @title AirDrop - Romance of the Three Kingdoms AirDrop\n*\n* Version v1.1.0\n*\n*/\n\ncontract AirDrop2 is Ownable {\n    using SafeMath for uint256;\n\n    struct DropBoxStruct {\n        uint256 totalHero;\n        mapping (uint256 => uint256) rarities;\n        mapping (uint256 => uint256) qualities;\n    }\n\n    uint256 public constant RAND_BASE = 1000;\n    RichHero public HERO;\n\n    bool airDropOpen;\n    bytes32 merkleRoot;\n    mapping (uint256 => DropBoxStruct) private _dropBoxes;\n    mapping (address => uint256) private _whiteList;\n    mapping (address => uint256) private _whiteList2;\n    mapping (address => bool) public claimed;\n    \n    constructor(address nft) {\n        HERO = RichHero(nft);\n        _dropBoxes[0].rarities[0] = 60;\n        _dropBoxes[0].rarities[1] = 850;\n        _dropBoxes[0].rarities[2] = 80;\n        _dropBoxes[0].rarities[3] = 10;\n        _dropBoxes[0].qualities[0] = 800;\n        _dropBoxes[0].qualities[1] = 150;\n        _dropBoxes[0].qualities[2] = 30;\n        _dropBoxes[0].qualities[3] = 20;\n        _dropBoxes[0].totalHero = 5000;\n\n        _dropBoxes[1].rarities[0] = 0;\n        _dropBoxes[1].rarities[1] = 0;\n        _dropBoxes[1].rarities[2] = 0;\n        _dropBoxes[1].rarities[3] = 1000;\n        _dropBoxes[1].qualities[0] = 800;\n        _dropBoxes[1].qualities[1] = 150;\n        _dropBoxes[1].qualities[2] = 30;\n        _dropBoxes[1].qualities[3] = 20;\n        _dropBoxes[1].totalHero = 500;\n    }\n\n    function setRoot(bytes32 root) external onlyOwner {\n        merkleRoot = root;\n    }\n\n    function setAirDropState(bool state) external onlyOwner {\n        airDropOpen = state;\n    }\n\n    function _random(uint256 value, uint256 index) private view returns (uint256) {\n        bytes memory seed = abi.encodePacked(block.timestamp, index, msg.sender);\n        return uint256(keccak256(seed)) % value;\n    }\n\n    function _choose(uint256 index) private view returns (uint64[] memory) {\n        uint64[] memory heroDetail = new uint64[](13);\n        uint256 randIndex = index;\n        heroDetail[0] = 0; //native\n        heroDetail[1] = uint64(_random(uint256(HERO.camps()), randIndex++)); //camp\n        {\n            uint256 ranRarity = _random(RAND_BASE, randIndex++);\n            uint256 rarityTotal;\n            for (uint64 i = 0; i < 5; i++) {\n                rarityTotal = rarityTotal.add(_dropBoxes[index].rarities[i]);\n                if (ranRarity >= rarityTotal) {\n                    continue;\n                } else {\n                    heroDetail[2] = i; //rarity\n                    break;\n                }\n            }\n        }\n        heroDetail[3] = uint64(_random(uint256(HERO.heroIds(heroDetail[2])), randIndex++)); //heroId\n        heroDetail[4] = 0; //level\n        heroDetail[5] = 0; //star  \n        uint256 ranQuality = _random(RAND_BASE, randIndex++);\n        {\n            uint256 qualityTotal;\n            for (uint64 i = 0; i < 4; i++) {\n                qualityTotal = qualityTotal.add(_dropBoxes[index].qualities[i]);\n                if (ranQuality >= qualityTotal) {\n                    continue;\n                } else {\n                    heroDetail[6] = i; //quality\n                    break;\n                }\n            }\n        }\n        (uint64 baseAddition, uint64 additionMod) = HERO.additions(heroDetail[6]);\n        heroDetail[7] = baseAddition + uint64(_random(additionMod, randIndex++)); //addition\n        (,\n        heroDetail[8],\n        heroDetail[9],\n        heroDetail[10],\n        heroDetail[11],\n        heroDetail[12]) = HERO._heroInitials(heroDetail[1], heroDetail[2], heroDetail[3]); //preference\n        return heroDetail;\n    }\n\n    function claimAirDrop(bytes32[] calldata merkleProof) public {\n        require(airDropOpen);\n        require(msg.sender == tx.origin, \"The caller is not an EOA\");\n        uint256 number = _dropBoxes[0].totalHero;\n        require(number >= 1, \"Insufficient quantity left\");\n        require(_verify(merkleProof, merkleRoot));\n        require(!claimed[msg.sender]);\n        claimed[msg.sender] = true;\n        uint64[] memory detail = new uint64[](13);\n        detail = _choose(0);\n        _dropBoxes[0].totalHero = _dropBoxes[0].totalHero.sub(0);\n        HERO.mint(msg.sender, detail);\n    }\n\n    function claimNormalAirDrop() public {\n        require(msg.sender == tx.origin, \"The caller is not an EOA\");\n        uint256 number = _dropBoxes[0].totalHero;\n        require(number >= 1, \"Insufficient quantity left\");\n        require(_whiteList[msg.sender] > 0, \"No available airdrop count\");\n        _whiteList[msg.sender] = _whiteList[msg.sender].sub(1);\n        uint64[] memory detail = new uint64[](13);\n        detail = _choose(0);\n        _dropBoxes[0].totalHero = _dropBoxes[0].totalHero.sub(1);\n        HERO.mint(msg.sender, detail);\n    }\n\n    function claimSpecialAirDrop() public {\n        require(msg.sender == tx.origin, \"The caller is not an EOA\");\n        uint256 number = _dropBoxes[1].totalHero;\n        require(number >= 1, \"Insufficient quantity left\");\n        require(_whiteList2[msg.sender] > 0, \"No available airdrop count\");\n        _whiteList2[msg.sender] = _whiteList2[msg.sender].sub(1);\n        uint64[] memory detail = new uint64[](13);\n        detail = _choose(1);\n        _dropBoxes[1].totalHero = _dropBoxes[1].totalHero.sub(1);\n        HERO.mint(msg.sender, detail);\n    }\n\n    function isInWhiteList(address receiver) public view returns (bool) {\n        if (_whiteList[receiver] > 0) {\n            return true;\n        }\n        return false;\n    }\n\n    function addWhiteList(address[] memory whiteList) public onlyOwner {\n        for (uint256 i = 0; i < whiteList.length; i++) {\n            _whiteList[whiteList[i]] = _whiteList[whiteList[i]].add(1);\n        }\n    }\n\n    function isInWhiteList2(address receiver) public view returns (bool) {\n        if (_whiteList2[receiver] > 0) {\n            return true;\n        }\n        return false;\n    }\n\n    function addWhiteList2(address[] memory whiteList) public onlyOwner {\n        for (uint256 i = 0; i < whiteList.length; i++) {\n            _whiteList2[whiteList[i]] = _whiteList2[whiteList[i]].add(1);\n        }\n    }\n\n    function setDropBox(uint256 amount, uint256 boxId, bool add) public onlyOwner {\n        if (add) {\n            _dropBoxes[boxId].totalHero = _dropBoxes[boxId].totalHero.add(amount);\n        } else {\n            _dropBoxes[boxId].totalHero = _dropBoxes[boxId].totalHero.sub(amount);\n        }\n    }\n\n    function getDropBoxNumber() public view returns (uint256, uint256) {\n        return (_dropBoxes[0].totalHero, _dropBoxes[1].totalHero);\n    }\n\n    function setHero(address hero) public onlyOwner {\n        HERO = RichHero(hero);\n    }\n\n    function _verify(bytes32[] calldata merkleProof, bytes32 root) internal view returns(bool){\n        return MerkleProof.verify(\n                merkleProof,\n                root,\n                keccak256(abi.encodePacked(msg.sender))\n            );\n    }\n}",
  "sourcePath": "/Users/hy/new-rich-contract/contracts/AirDrop2.sol",
  "compiler": {
    "name": "solc",
    "version": "0.8.16+commit.07a7930e.Emscripten.clang"
  },
  "schemaVersion": "3.4.3",
  "updatedAt": "2022-09-19T13:13:52.779Z",
  "devdoc": {
    "kind": "dev",
    "methods": {
      "owner()": {
        "details": "Returns the address of the current owner."
      },
      "renounceOwnership()": {
        "details": "Leaves the contract without owner. It will not be possible to call `onlyOwner` functions anymore. Can only be called by the current owner. NOTE: Renouncing ownership will leave the contract without an owner, thereby removing any functionality that is only available to the owner."
      },
      "transferOwnership(address)": {
        "details": "Transfers ownership of the contract to a new account (`newOwner`). Can only be called by the current owner."
      }
    },
    "title": "AirDrop - Romance of the Three Kingdoms AirDrop Version v1.1.0",
    "version": 1
  },
  "userdoc": {
    "kind": "user",
    "methods": {},
    "notice": "",
    "version": 1
  }
}