{
  "contractName": "AirDrop2",
  "abi": [
    {
      "inputs": [
        {
          "internalType": "address",
          "name": "nft",
          "type": "address"
        }
      ],
      "stateMutability": "nonpayable",
      "type": "constructor"
    },
    {
      "anonymous": false,
      "inputs": [
        {
          "indexed": true,
          "internalType": "address",
          "name": "previousOwner",
          "type": "address"
        },
        {
          "indexed": true,
          "internalType": "address",
          "name": "newOwner",
          "type": "address"
        }
      ],
      "name": "OwnershipTransferred",
      "type": "event"
    },
    {
      "inputs": [],
      "name": "HERO",
      "outputs": [
        {
          "internalType": "contract RichHero",
          "name": "",
          "type": "address"
        }
      ],
      "stateMutability": "view",
      "type": "function"
    },
    {
      "inputs": [],
      "name": "RAND_BASE",
      "outputs": [
        {
          "internalType": "uint256",
          "name": "",
          "type": "uint256"
        }
      ],
      "stateMutability": "view",
      "type": "function"
    },
    {
      "inputs": [],
      "name": "owner",
      "outputs": [
        {
          "internalType": "address",
          "name": "",
          "type": "address"
        }
      ],
      "stateMutability": "view",
      "type": "function"
    },
    {
      "inputs": [],
      "name": "renounceOwnership",
      "outputs": [],
      "stateMutability": "nonpayable",
      "type": "function"
    },
    {
      "inputs": [
        {
          "internalType": "address",
          "name": "newOwner",
          "type": "address"
        }
      ],
      "name": "transferOwnership",
      "outputs": [],
      "stateMutability": "nonpayable",
      "type": "function"
    },
    {
      "inputs": [
        {
          "internalType": "bytes32",
          "name": "root",
          "type": "bytes32"
        }
      ],
      "name": "setRoot",
      "outputs": [],
      "stateMutability": "nonpayable",
      "type": "function"
    },
    {
      "inputs": [
        {
          "internalType": "bool",
          "name": "state",
          "type": "bool"
        }
      ],
      "name": "setAirDropState",
      "outputs": [],
      "stateMutability": "nonpayable",
      "type": "function"
    },
    {
      "inputs": [
        {
          "internalType": "bytes32[]",
          "name": "merkleProof",
          "type": "bytes32[]"
        }
      ],
      "name": "claimAirDrop",
      "outputs": [],
      "stateMutability": "nonpayable",
      "type": "function"
    },
    {
      "inputs": [],
      "name": "claimSpecialAirDrop",
      "outputs": [],
      "stateMutability": "nonpayable",
      "type": "function"
    },
    {
      "inputs": [
        {
          "internalType": "address",
          "name": "receiver",
          "type": "address"
        }
      ],
      "name": "isInWhiteList",
      "outputs": [
        {
          "internalType": "bool",
          "name": "",
          "type": "bool"
        }
      ],
      "stateMutability": "view",
      "type": "function"
    },
    {
      "inputs": [
        {
          "internalType": "address[]",
          "name": "whiteList",
          "type": "address[]"
        }
      ],
      "name": "addWhiteList",
      "outputs": [],
      "stateMutability": "nonpayable",
      "type": "function"
    },
    {
      "inputs": [
        {
          "internalType": "uint256",
          "name": "amount",
          "type": "uint256"
        },
        {
          "internalType": "uint256",
          "name": "boxId",
          "type": "uint256"
        },
        {
          "internalType": "bool",
          "name": "add",
          "type": "bool"
        }
      ],
      "name": "setDropBox",
      "outputs": [],
      "stateMutability": "nonpayable",
      "type": "function"
    },
    {
      "inputs": [],
      "name": "getDropBoxNumber",
      "outputs": [
        {
          "internalType": "uint256",
          "name": "",
          "type": "uint256"
        },
        {
          "internalType": "uint256",
          "name": "",
          "type": "uint256"
        }
      ],
      "stateMutability": "view",
      "type": "function"
    },
    {
      "inputs": [
        {
          "internalType": "address",
          "name": "hero",
          "type": "address"
        }
      ],
      "name": "setHero",
      "outputs": [],
      "stateMutability": "nonpayable",
      "type": "function"
    }
  ],
  "bytecode": "0x608060405234801561001057600080fd5b5060405161192a38038061192a83398101604081905261002f91610348565b610038336102f8565b600180546001600160a01b0319166001600160a01b0392909216919091178155603c7fe3376228ee0a69be7089fc43edf29ebd2ea58c5f90a2da614ae8fea7b7b5ae5e556103527fb34bb2b6a661eed56c38db76fc8c1f584202d877ef919308954fc7baf2c316085560507fafd0ad0303e08199ef900b51ace4d6328e60bbd6514a1c9abd836665a23b9b9d55600a7f06d5daa0b04df93d6d261eac3552faf86f11f89d356c2dfe80f4ff00461005e0556103207faf4b7f25c4fee1414fb91482fcd14d7ca512876c072fc7fb9a06055753f628c181905560967f595fbe8361b56b39e2f9a4064314c6338aacfac08accb9ca005fa68d6eb30b4f819055601e7f8371c000d19b9e67ef7151a92502089797c6dda44c20eceb527f0fd0fe0513f481905560147f5e895c8fa15336594314e03ec03c503e6da3640488e87c84e78925ea9aa7daa68190556113887f3617319a054d772f909f7c479a2cebe5066e836a939412e32403c99029b92eff5560007f5e77ede6385ad076ff96362dddedfd797dc027a034bc2591fae3fee7e86e6efb8190557fe892ac04930c61e7e70906a735351f5cb61416eefa4c23e40f14a05e7e1c7a218190557fc008da4e945e66bbc083f602b324558e5fc356fea951800ea37e3999980752298190556103e87fdd9e44850b12d828233a70a16354737195818e22dd4a18960835fc64a3fc2953557ff6fdb47d1172c66238a058c3b549b0947d163d71879fff13a2509dd4da382727949094557ffb5607fdc666111a5d908842880238ab1a0c05dc0ec7579567d105da574e7415929092557f95d0d2559909e5fc1f79274e1b358a38497b3a226be9c180fb38b8943d510bbe557f0d87cd5b3cdcef8d2606c1438fe40ac5e33df490b36cee40b9213aaa9c78ae7e555260036020526101f47fa15bc60c955c405d20d9149c709e2460f1c2d9a497496a7f46004d1772c3054c55610378565b600080546001600160a01b038381166001600160a01b0319831681178455604051919092169283917f8be0079c531659141344cd1fd0a4f28419497f9722a3daafe3b4186f6b6457e09190a35050565b60006020828403121561035a57600080fd5b81516001600160a01b038116811461037157600080fd5b9392505050565b6115a3806103876000396000f3fe608060405234801561001057600080fd5b50600436106100ca5760003560e01c806396bfc2291161007c57806396bfc22914610161578063b29985b114610184578063c324965b146101c1578063c4efe81e146101d4578063cc9471e2146101e7578063dab5f340146101ef578063f2fde38b1461020257600080fd5b80633bba6a36146100cf57806356bda183146100ff5780635800ba11146101145780635e1045ec1461012b578063715018a61461013e5780638da5cb5b146101465780638eac88b81461014e575b600080fd5b6001546100e2906001600160a01b031681565b6040516001600160a01b0390911681526020015b60405180910390f35b61011261010d366004611070565b610215565b005b61011d6103e881565b6040519081526020016100f6565b610112610139366004611116565b61037c565b610112610462565b6100e261049d565b61011261015c3660046111ea565b6104ac565b61017461016f36600461121f565b610527565b60405190151581526020016100f6565b6003602090815260008051602061154e83398151915254600160005260008051602061152e833981519152546040805192835292820152016100f6565b6101126101cf36600461121f565b610555565b6101126101e236600461123a565b6105a6565b6101126105f3565b6101126101fd366004611255565b6107b4565b61011261021036600461121f565b6107e8565b600154600160a01b900460ff1661022b57600080fd5b3332146102535760405162461bcd60e51b815260040161024a9061126e565b60405180910390fd5b60008052600360205260008051602061154e83398151915254600181101561028d5760405162461bcd60e51b815260040161024a906112a0565b61029a8383600254610888565b6102a357600080fd5b60408051600d8082526101c08201909252600091602082016101a0803683370190505090506102d260006108ff565b6000808052600360205260008051602061154e833981519152549192506102f99190610f1a565b60008052600360205260008051602061154e83398151915255600154604051632d716a8b60e11b81526001600160a01b0390911690635ae2d5169061034490339085906004016112d7565b600060405180830381600087803b15801561035e57600080fd5b505af1158015610372573d6000803e3d6000fd5b5050505050505050565b3361038561049d565b6001600160a01b0316146103ab5760405162461bcd60e51b815260040161024a90611336565b60005b815181101561045e576104096001600460008585815181106103d2576103d261136b565b60200260200101516001600160a01b03166001600160a01b0316815260200190815260200160002054610f2f90919063ffffffff16565b6004600084848151811061041f5761041f61136b565b60200260200101516001600160a01b03166001600160a01b0316815260200190815260200160002081905550808061045690611397565b9150506103ae565b5050565b3361046b61049d565b6001600160a01b0316146104915760405162461bcd60e51b815260040161024a90611336565b61049b6000610f3b565b565b6000546001600160a01b031690565b336104b561049d565b6001600160a01b0316146104db5760405162461bcd60e51b815260040161024a90611336565b801561050e576000828152600360205260409020546104fa9084610f2f565b600083815260036020526040902055505050565b6000828152600360205260409020546104fa9084610f1a565b6001600160a01b0381166000908152600460205260408120541561054d57506001919050565b506000919050565b3361055e61049d565b6001600160a01b0316146105845760405162461bcd60e51b815260040161024a90611336565b600180546001600160a01b0319166001600160a01b0392909216919091179055565b336105af61049d565b6001600160a01b0316146105d55760405162461bcd60e51b815260040161024a90611336565b60018054911515600160a01b0260ff60a01b19909216919091179055565b3332146106125760405162461bcd60e51b815260040161024a9061126e565b60016000819052600360205260008051602061152e833981519152549081101561064e5760405162461bcd60e51b815260040161024a906112a0565b336000908152600460205260409020546106aa5760405162461bcd60e51b815260206004820152601a60248201527f4e6f20617661696c61626c652061697264726f7020636f756e74000000000000604482015260640161024a565b336000908152600460205260409020546106c5906001610f1a565b33600090815260046020526040808220929092558151600d8082526101c08201909352909181602001602082028036833701905050905061070660016108ff565b60016000819052600360205260008051602061152e8339815191525491925061072f9190610f1a565b60016000819052600360205260008051602061152e8339815191529190915554604051632d716a8b60e11b81526001600160a01b0390911690635ae2d5169061077e90339085906004016112d7565b600060405180830381600087803b15801561079857600080fd5b505af11580156107ac573d6000803e3d6000fd5b505050505050565b336107bd61049d565b6001600160a01b0316146107e35760405162461bcd60e51b815260040161024a90611336565b600255565b336107f161049d565b6001600160a01b0316146108175760405162461bcd60e51b815260040161024a90611336565b6001600160a01b03811661087c5760405162461bcd60e51b815260206004820152602660248201527f4f776e61626c653a206e6577206f776e657220697320746865207a65726f206160448201526564647265737360d01b606482015260840161024a565b61088581610f3b565b50565b60006108f7848480806020026020016040519081016040528093929190818152602001838360200280828437600092019190915250506040516001600160601b03193360601b166020820152869250603401905060405160208183030381529060405280519060200120610f8b565b949350505050565b60408051600d8082526101c0820190925260609160009190602082016101a08036833701905050905060008390506000826000815181106109425761094261136b565b6001600160401b0390921660209283029190910182015260015460408051633bd5e17760e01b815290516109da936001600160a01b0390931692633bd5e17792600480820193918290030181865afa1580156109a2573d6000803e3d6000fd5b505050506040513d601f19601f820116820180604052508101906109c691906113b0565b60ff16826109d381611397565b9350610fa1565b826001815181106109ed576109ed61136b565b6001600160401b03909216602092830291909101909101526000610a1e6103e883610a1781611397565b9450610fa1565b90506000805b6005816001600160401b03161015610abc5760008781526003602090815260408083206001600160401b0385168452600101909152902054610a67908390610f2f565b915081831015610aaa578085600281518110610a8557610a8561136b565b60200260200101906001600160401b031690816001600160401b031681525050610abc565b80610ab4816113da565b915050610a24565b50506001548351610b3d92506001600160a01b039091169063614a4e449085906002908110610aed57610aed61136b565b60200260200101516040518263ffffffff1660e01b8152600401610b2091906001600160401b0391909116815260200190565b602060405180830381865afa1580156109a2573d6000803e3d6000fd5b82600381518110610b5057610b5061136b565b60200260200101906001600160401b031690816001600160401b031681525050600082600481518110610b8557610b8561136b565b60200260200101906001600160401b031690816001600160401b031681525050600082600581518110610bba57610bba61136b565b6001600160401b03909216602092830291909101909101526000610be46103e883610a1781611397565b90506000805b6004816001600160401b03161015610c825760008781526003602090815260408083206001600160401b0385168452600201909152902054610c2d908390610f2f565b915081831015610c70578085600681518110610c4b57610c4b61136b565b60200260200101906001600160401b031690816001600160401b031681525050610c82565b80610c7a816113da565b915050610bea565b5050600154835160009182916001600160a01b039091169063793eece19087906006908110610cb357610cb361136b565b60200260200101516040518263ffffffff1660e01b8152600401610ce691906001600160401b0391909116815260200190565b6040805180830381865afa158015610d02573d6000803e3d6000fd5b505050506040513d601f19601f82011682018060405250810190610d269190611417565b91509150610d49816001600160401b03168580610d4290611397565b9650610fa1565b610d53908361144a565b85600781518110610d6657610d6661136b565b6001600160401b03909216602092830291909101909101526001805486516001600160a01b039091169163a2edc2d6918891908110610da757610da761136b565b602002602001015187600281518110610dc257610dc261136b565b602002602001015188600381518110610ddd57610ddd61136b565b60200260200101516040518463ffffffff1660e01b8152600401610e21939291906001600160401b0393841681529183166020830152909116604082015260600190565b60c060405180830381865afa158015610e3e573d6000803e3d6000fd5b505050506040513d601f19601f82011682018060405250810190610e629190611471565b90919293945089600881518110610e7b57610e7b61136b565b602002602001018a600981518110610e9557610e9561136b565b602002602001018b600a81518110610eaf57610eaf61136b565b602002602001018c600b81518110610ec957610ec961136b565b602002602001018d600c81518110610ee357610ee361136b565b6001600160401b03968716602091820292909201015294841690945293821690925292831690915291169052509295945050505050565b6000610f2682846114e5565b90505b92915050565b6000610f2682846114f8565b600080546001600160a01b038381166001600160a01b0319831681178455604051919092169283917f8be0079c531659141344cd1fd0a4f28419497f9722a3daafe3b4186f6b6457e09190a35050565b600082610f988584610ffc565b14949350505050565b600080428333604051602001610fd793929190928352602083019190915260601b6001600160601b031916604082015260540190565b60408051601f19818403018152919052805160208201209091506108f790859061150b565b600081815b845181101561106857600085828151811061101e5761101e61136b565b602002602001015190508083116110445760008381526020829052604090209250611055565b600081815260208490526040902092505b508061106081611397565b915050611001565b509392505050565b6000806020838503121561108357600080fd5b82356001600160401b038082111561109a57600080fd5b818501915085601f8301126110ae57600080fd5b8135818111156110bd57600080fd5b8660208260051b85010111156110d257600080fd5b60209290920196919550909350505050565b634e487b7160e01b600052604160045260246000fd5b80356001600160a01b038116811461111157600080fd5b919050565b6000602080838503121561112957600080fd5b82356001600160401b038082111561114057600080fd5b818501915085601f83011261115457600080fd5b813581811115611166576111666110e4565b8060051b604051601f19603f8301168101818110858211171561118b5761118b6110e4565b6040529182528482019250838101850191888311156111a957600080fd5b938501935b828510156111ce576111bf856110fa565b845293850193928501926111ae565b98975050505050505050565b8035801515811461111157600080fd5b6000806000606084860312156111ff57600080fd5b8335925060208401359150611216604085016111da565b90509250925092565b60006020828403121561123157600080fd5b610f26826110fa565b60006020828403121561124c57600080fd5b610f26826111da565b60006020828403121561126757600080fd5b5035919050565b6020808252601890820152775468652063616c6c6572206973206e6f7420616e20454f4160401b604082015260600190565b6020808252601a908201527f496e73756666696369656e74207175616e74697479206c656674000000000000604082015260600190565b6001600160a01b038316815260406020808301829052835191830182905260009184820191906060850190845b818110156113295784516001600160401b031683529383019391830191600101611304565b5090979650505050505050565b6020808252818101527f4f776e61626c653a2063616c6c6572206973206e6f7420746865206f776e6572604082015260600190565b634e487b7160e01b600052603260045260246000fd5b634e487b7160e01b600052601160045260246000fd5b6000600182016113a9576113a9611381565b5060010190565b6000602082840312156113c257600080fd5b815160ff811681146113d357600080fd5b9392505050565b60006001600160401b038083168181036113f6576113f6611381565b6001019392505050565b80516001600160401b038116811461111157600080fd5b6000806040838503121561142a57600080fd5b61143383611400565b915061144160208401611400565b90509250929050565b6001600160401b0381811683821601908082111561146a5761146a611381565b5092915050565b60008060008060008060c0878903121561148a57600080fd5b61149387611400565b95506114a160208801611400565b94506114af60408801611400565b93506114bd60608801611400565b92506114cb60808801611400565b91506114d960a08801611400565b90509295509295509295565b81810381811115610f2957610f29611381565b80820180821115610f2957610f29611381565b60008261152857634e487b7160e01b600052601260045260246000fd5b50069056fea15bc60c955c405d20d9149c709e2460f1c2d9a497496a7f46004d1772c3054c3617319a054d772f909f7c479a2cebe5066e836a939412e32403c99029b92effa2646970667358221220c33948767f1fda04170898fdbc40860d5f33d44e9ff9ac2b1e18651498bd722664736f6c63430008100033",
  "immutableReferences": {},
  "source": "// SPDX-License-Identifier: SimPL-2.0\n\npragma solidity ^0.8.0;\npragma experimental ABIEncoderV2;\n\nimport \"./RichHero.sol\";\n\nimport \"@openzeppelin/contracts/access/Ownable.sol\";\nimport \"@openzeppelin/contracts/token/ERC20/IERC20.sol\";\n\nimport \"@openzeppelin/contracts/utils/math/SafeMath.sol\";\nimport \"@openzeppelin/contracts/utils/cryptography/MerkleProof.sol\";\n/**\n* @title AirDrop - Romance of the Three Kingdoms AirDrop\n*\n* Version v1.1.0\n*\n*/\n\ncontract AirDrop2 is Ownable {\n    using SafeMath for uint256;\n\n    struct DropBoxStruct {\n        uint256 totalHero;\n        mapping (uint256 => uint256) rarities;\n        mapping (uint256 => uint256) qualities;\n    }\n\n    uint256 public constant RAND_BASE = 1000;\n    RichHero public HERO;\n\n    bool airDropOpen;\n    bytes32 merkleRoot;\n    mapping (uint256 => DropBoxStruct) private _dropBoxes;\n    mapping (address => uint256) private _whiteList;\n\n    constructor(address nft) {\n        HERO = RichHero(nft);\n        _dropBoxes[0].rarities[0] = 60;\n        _dropBoxes[0].rarities[1] = 850;\n        _dropBoxes[0].rarities[2] = 80;\n        _dropBoxes[0].rarities[3] = 10;\n        _dropBoxes[0].qualities[0] = 800;\n        _dropBoxes[0].qualities[1] = 150;\n        _dropBoxes[0].qualities[2] = 30;\n        _dropBoxes[0].qualities[3] = 20;\n        _dropBoxes[0].totalHero = 5000;\n\n        _dropBoxes[1].rarities[0] = 0;\n        _dropBoxes[1].rarities[1] = 0;\n        _dropBoxes[1].rarities[2] = 0;\n        _dropBoxes[1].rarities[3] = 1000;\n        _dropBoxes[1].qualities[0] = 800;\n        _dropBoxes[1].qualities[1] = 150;\n        _dropBoxes[1].qualities[2] = 30;\n        _dropBoxes[1].qualities[3] = 20;\n        _dropBoxes[1].totalHero = 500;\n    }\n\n    function setRoot(bytes32 root) external onlyOwner {\n        merkleRoot = root;\n    }\n\n    function setAirDropState(bool state) external onlyOwner {\n        airDropOpen = state;\n    }\n\n    function _random(uint256 value, uint256 index) private view returns (uint256) {\n        bytes memory seed = abi.encodePacked(block.timestamp, index, msg.sender);\n        return uint256(keccak256(seed)) % value;\n    }\n\n    function _choose(uint256 index) private view returns (uint64[] memory) {\n        uint64[] memory heroDetail = new uint64[](13);\n        uint256 randIndex = index;\n        heroDetail[0] = 0; //native\n        heroDetail[1] = uint64(_random(uint256(HERO.camps()), randIndex++)); //camp\n        {\n            uint256 ranRarity = _random(RAND_BASE, randIndex++);\n            uint256 rarityTotal;\n            for (uint64 i = 0; i < 5; i++) {\n                rarityTotal = rarityTotal.add(_dropBoxes[index].rarities[i]);\n                if (ranRarity >= rarityTotal) {\n                    continue;\n                } else {\n                    heroDetail[2] = i; //rarity\n                    break;\n                }\n            }\n        }\n        heroDetail[3] = uint64(_random(uint256(HERO.heroIds(heroDetail[2])), randIndex++)); //heroId\n        heroDetail[4] = 0; //level\n        heroDetail[5] = 0; //star  \n        uint256 ranQuality = _random(RAND_BASE, randIndex++);\n        {\n            uint256 qualityTotal;\n            for (uint64 i = 0; i < 4; i++) {\n                qualityTotal = qualityTotal.add(_dropBoxes[index].qualities[i]);\n                if (ranQuality >= qualityTotal) {\n                    continue;\n                } else {\n                    heroDetail[6] = i; //quality\n                    break;\n                }\n            }\n        }\n        (uint64 baseAddition, uint64 additionMod) = HERO.additions(heroDetail[6]);\n        heroDetail[7] = baseAddition + uint64(_random(additionMod, randIndex++)); //addition\n        (,\n        heroDetail[8],\n        heroDetail[9],\n        heroDetail[10],\n        heroDetail[11],\n        heroDetail[12]) = HERO._heroInitials(heroDetail[1], heroDetail[2], heroDetail[3]); //preference\n        return heroDetail;\n    }\n\n    function claimAirDrop(bytes32[] calldata merkleProof) public {\n        require(airDropOpen);\n        require(msg.sender == tx.origin, \"The caller is not an EOA\");\n        uint256 number = _dropBoxes[0].totalHero;\n        require(number >= 1, \"Insufficient quantity left\");\n        require(_verify(merkleProof, merkleRoot));\n        uint64[] memory detail = new uint64[](13);\n        detail = _choose(0);\n        _dropBoxes[0].totalHero = _dropBoxes[0].totalHero.sub(0);\n        HERO.mint(msg.sender, detail);\n    }\n\n    function claimSpecialAirDrop() public {\n        require(msg.sender == tx.origin, \"The caller is not an EOA\");\n        uint256 number = _dropBoxes[1].totalHero;\n        require(number >= 1, \"Insufficient quantity left\");\n        require(_whiteList[msg.sender] > 0, \"No available airdrop count\");\n        _whiteList[msg.sender] = _whiteList[msg.sender].sub(1);\n        uint64[] memory detail = new uint64[](13);\n        detail = _choose(1);\n        _dropBoxes[1].totalHero = _dropBoxes[1].totalHero.sub(1);\n        HERO.mint(msg.sender, detail);\n    }\n\n    function isInWhiteList(address receiver) public view returns (bool) {\n        if (_whiteList[receiver] > 0) {\n            return true;\n        }\n        return false;\n    }\n\n    function addWhiteList(address[] memory whiteList) public onlyOwner {\n        for (uint256 i = 0; i < whiteList.length; i++) {\n            _whiteList[whiteList[i]] = _whiteList[whiteList[i]].add(1);\n        }\n    }\n\n    function setDropBox(uint256 amount, uint256 boxId, bool add) public onlyOwner {\n        if (add) {\n            _dropBoxes[boxId].totalHero = _dropBoxes[boxId].totalHero.add(amount);\n        } else {\n            _dropBoxes[boxId].totalHero = _dropBoxes[boxId].totalHero.sub(amount);\n        }\n    }\n\n    function getDropBoxNumber() public view returns (uint256, uint256) {\n        return (_dropBoxes[0].totalHero, _dropBoxes[1].totalHero);\n    }\n\n    function setHero(address hero) public onlyOwner {\n        HERO = RichHero(hero);\n    }\n\n    function _verify(bytes32[] calldata merkleProof, bytes32 root) internal view returns(bool){\n        return MerkleProof.verify(\n                merkleProof,\n                root,\n                keccak256(abi.encodePacked(msg.sender))\n            );\n    }\n}",
  "sourcePath": "/Users/hy/new-rich-contract/contracts/AirDrop2.sol",
  "compiler": {
    "name": "solc",
    "version": "0.8.16+commit.07a7930e.Emscripten.clang"
  },
  "schemaVersion": "3.4.3",
  "updatedAt": "2022-09-07T07:22:52.149Z",
  "devdoc": {
    "kind": "dev",
    "methods": {
      "owner()": {
        "details": "Returns the address of the current owner."
      },
      "renounceOwnership()": {
        "details": "Leaves the contract without owner. It will not be possible to call `onlyOwner` functions anymore. Can only be called by the current owner. NOTE: Renouncing ownership will leave the contract without an owner, thereby removing any functionality that is only available to the owner."
      },
      "transferOwnership(address)": {
        "details": "Transfers ownership of the contract to a new account (`newOwner`). Can only be called by the current owner."
      }
    },
    "title": "AirDrop - Romance of the Three Kingdoms AirDrop Version v1.1.0",
    "version": 1
  },
  "userdoc": {
    "kind": "user",
    "methods": {},
    "notice": "",
    "version": 1
  }
}