{
  "contractName": "AirDrop3",
  "abi": [
    {
      "inputs": [
        {
          "internalType": "address",
          "name": "nft",
          "type": "address"
        }
      ],
      "stateMutability": "nonpayable",
      "type": "constructor"
    },
    {
      "anonymous": false,
      "inputs": [
        {
          "indexed": true,
          "internalType": "address",
          "name": "previousOwner",
          "type": "address"
        },
        {
          "indexed": true,
          "internalType": "address",
          "name": "newOwner",
          "type": "address"
        }
      ],
      "name": "OwnershipTransferred",
      "type": "event"
    },
    {
      "inputs": [],
      "name": "HERO",
      "outputs": [
        {
          "internalType": "contract RichHero",
          "name": "",
          "type": "address"
        }
      ],
      "stateMutability": "view",
      "type": "function"
    },
    {
      "inputs": [],
      "name": "RAND_BASE",
      "outputs": [
        {
          "internalType": "uint256",
          "name": "",
          "type": "uint256"
        }
      ],
      "stateMutability": "view",
      "type": "function"
    },
    {
      "inputs": [
        {
          "internalType": "address",
          "name": "",
          "type": "address"
        }
      ],
      "name": "claimed",
      "outputs": [
        {
          "internalType": "bool",
          "name": "",
          "type": "bool"
        }
      ],
      "stateMutability": "view",
      "type": "function"
    },
    {
      "inputs": [],
      "name": "owner",
      "outputs": [
        {
          "internalType": "address",
          "name": "",
          "type": "address"
        }
      ],
      "stateMutability": "view",
      "type": "function"
    },
    {
      "inputs": [],
      "name": "renounceOwnership",
      "outputs": [],
      "stateMutability": "nonpayable",
      "type": "function"
    },
    {
      "inputs": [
        {
          "internalType": "address",
          "name": "newOwner",
          "type": "address"
        }
      ],
      "name": "transferOwnership",
      "outputs": [],
      "stateMutability": "nonpayable",
      "type": "function"
    },
    {
      "inputs": [
        {
          "internalType": "bytes32",
          "name": "root",
          "type": "bytes32"
        }
      ],
      "name": "setRoot",
      "outputs": [],
      "stateMutability": "nonpayable",
      "type": "function"
    },
    {
      "inputs": [
        {
          "internalType": "bool",
          "name": "state",
          "type": "bool"
        }
      ],
      "name": "setAirDropState",
      "outputs": [],
      "stateMutability": "nonpayable",
      "type": "function"
    },
    {
      "inputs": [
        {
          "internalType": "bytes32[]",
          "name": "merkleProof",
          "type": "bytes32[]"
        }
      ],
      "name": "claimAirDrop",
      "outputs": [],
      "stateMutability": "nonpayable",
      "type": "function"
    },
    {
      "inputs": [],
      "name": "claimNormalAirDrop",
      "outputs": [],
      "stateMutability": "nonpayable",
      "type": "function"
    },
    {
      "inputs": [],
      "name": "claimMiddleAirDrop",
      "outputs": [],
      "stateMutability": "nonpayable",
      "type": "function"
    },
    {
      "inputs": [],
      "name": "claimSpecialAirDrop",
      "outputs": [],
      "stateMutability": "nonpayable",
      "type": "function"
    },
    {
      "inputs": [
        {
          "internalType": "address",
          "name": "receiver",
          "type": "address"
        }
      ],
      "name": "isInWhiteList",
      "outputs": [
        {
          "internalType": "bool",
          "name": "",
          "type": "bool"
        }
      ],
      "stateMutability": "view",
      "type": "function"
    },
    {
      "inputs": [
        {
          "internalType": "address[]",
          "name": "whiteList",
          "type": "address[]"
        }
      ],
      "name": "addWhiteList",
      "outputs": [],
      "stateMutability": "nonpayable",
      "type": "function"
    },
    {
      "inputs": [
        {
          "internalType": "address",
          "name": "receiver",
          "type": "address"
        }
      ],
      "name": "isInWhiteList2",
      "outputs": [
        {
          "internalType": "bool",
          "name": "",
          "type": "bool"
        }
      ],
      "stateMutability": "view",
      "type": "function"
    },
    {
      "inputs": [
        {
          "internalType": "address[]",
          "name": "whiteList",
          "type": "address[]"
        }
      ],
      "name": "addWhiteList2",
      "outputs": [],
      "stateMutability": "nonpayable",
      "type": "function"
    },
    {
      "inputs": [
        {
          "internalType": "address",
          "name": "receiver",
          "type": "address"
        }
      ],
      "name": "isInWhiteList3",
      "outputs": [
        {
          "internalType": "bool",
          "name": "",
          "type": "bool"
        }
      ],
      "stateMutability": "view",
      "type": "function"
    },
    {
      "inputs": [
        {
          "internalType": "address[]",
          "name": "whiteList",
          "type": "address[]"
        }
      ],
      "name": "addWhiteList3",
      "outputs": [],
      "stateMutability": "nonpayable",
      "type": "function"
    },
    {
      "inputs": [
        {
          "internalType": "uint256",
          "name": "amount",
          "type": "uint256"
        },
        {
          "internalType": "uint256",
          "name": "boxId",
          "type": "uint256"
        },
        {
          "internalType": "bool",
          "name": "add",
          "type": "bool"
        }
      ],
      "name": "setDropBox",
      "outputs": [],
      "stateMutability": "nonpayable",
      "type": "function"
    },
    {
      "inputs": [],
      "name": "getDropBoxNumber",
      "outputs": [
        {
          "internalType": "uint256",
          "name": "",
          "type": "uint256"
        },
        {
          "internalType": "uint256",
          "name": "",
          "type": "uint256"
        }
      ],
      "stateMutability": "view",
      "type": "function"
    },
    {
      "inputs": [
        {
          "internalType": "address",
          "name": "hero",
          "type": "address"
        }
      ],
      "name": "setHero",
      "outputs": [],
      "stateMutability": "nonpayable",
      "type": "function"
    }
  ],
  "bytecode": "0x608060405234801561001057600080fd5b506040516200202b3803806200202b833981016040819052610031916104b6565b61003a33610466565b600180546001600160a01b0319166001600160a01b0392909216919091179055603c7fe3376228ee0a69be7089fc43edf29ebd2ea58c5f90a2da614ae8fea7b7b5ae5e556103527fb34bb2b6a661eed56c38db76fc8c1f584202d877ef919308954fc7baf2c316085560507fafd0ad0303e08199ef900b51ace4d6328e60bbd6514a1c9abd836665a23b9b9d55600a7f06d5daa0b04df93d6d261eac3552faf86f11f89d356c2dfe80f4ff00461005e05560967faf4b7f25c4fee1414fb91482fcd14d7ca512876c072fc7fb9a06055753f628c18190556103207f595fbe8361b56b39e2f9a4064314c6338aacfac08accb9ca005fa68d6eb30b4f55602d7f8371c000d19b9e67ef7151a92502089797c6dda44c20eceb527f0fd0fe0513f45560057f5e895c8fa15336594314e03ec03c503e6da3640488e87c84e78925ea9aa7daa6556113887f3617319a054d772f909f7c479a2cebe5066e836a939412e32403c99029b92eff5560007f5e77ede6385ad076ff96362dddedfd797dc027a034bc2591fae3fee7e86e6efb8190557fe892ac04930c61e7e70906a735351f5cb61416eefa4c23e40f14a05e7e1c7a218190557fc008da4e945e66bbc083f602b324558e5fc356fea951800ea37e3999980752298190556103e87fdd9e44850b12d828233a70a16354737195818e22dd4a18960835fc64a3fc29538190557ff6fdb47d1172c66238a058c3b549b0947d163d71879fff13a2509dd4da3827279290925561012c7ffb5607fdc666111a5d908842880238ab1a0c05dc0ec7579567d105da574e7415556101f47f95d0d2559909e5fc1f79274e1b358a38497b3a226be9c180fb38b8943d510bbe81905560327f0d87cd5b3cdcef8d2606c1438fe40ac5e33df490b36cee40b9213aaa9c78ae7e557fa15bc60c955c405d20d9149c709e2460f1c2d9a497496a7f46004d1772c3054c8190557fd9130a06a9023220e6d6fe71e35211cbc98656456a54525763ff4a2c1e5bf14a8290557f98b316c2389be85d020973be0e6adddbaa3e42902f52d5e865a2088a259cd5c48290557fe9ba4fbbbb9ceab6d5cc5b207d9fa2117cded9ab6f2d6a11285dee4fbf7d0e7f8290557f995d65cb6ed60c7512e8395350da4d314e502dae601cacfc7112e389bc14586b8390557f73f985a7beba6037930fa45ff6966caace436afafc31d3391d356a94628b76108290557f32d670aa88e32d64884fbedf8a4f6e9ccefa2d237aa7e498e36c69cd5d00a7738290557fe663e81db3846bc826ccd8c3def2ac26707b13a87dabe09de60767bfa0c201548290557f823470f7ffbb72e60f227b9acad46605cb42d15a247798363b65f70117162bee8290557f87380c97a1dfe7769d35f5db495da747dd7baf06bc45229aae3cfd1319ff14df929092556002905260036020527fc3a24b0501bd2c13a7e57f2db4369ec4c223447539fc0724a9d55ac4a06ebd4d556104e6565b600080546001600160a01b038381166001600160a01b0319831681178455604051919092169283917f8be0079c531659141344cd1fd0a4f28419497f9722a3daafe3b4186f6b6457e09190a35050565b6000602082840312156104c857600080fd5b81516001600160a01b03811681146104df57600080fd5b9392505050565b611b3580620004f66000396000f3fe608060405234801561001057600080fd5b50600436106101375760003560e01c80638da5cb5b116100b8578063c324965b1161007c578063c324965b1461028a578063c4efe81e1461029d578063c884ef83146102b0578063cc9471e2146102d3578063dab5f340146102db578063f2fde38b146102ee57600080fd5b80638da5cb5b146102175780638eac88b81461021f57806396bfc22914610232578063b29985b114610245578063b8375a3a1461028257600080fd5b80634a105ff0116100ff5780634a105ff0146101bf57806356bda183146101d25780635800ba11146101e55780635e1045ec146101fc578063715018a61461020f57600080fd5b806302ea75881461013c5780632d1b0ce91461016457806338841b0a146101775780633bba6a3614610181578063410a0471146101ac575b600080fd5b61014f61014a3660046115c7565b610301565b60405190151581526020015b60405180910390f35b61014f6101723660046115c7565b61032f565b61017f610355565b005b600154610194906001600160a01b031681565b6040516001600160a01b03909116815260200161015b565b61017f6101ba3660046115f8565b6104e7565b61017f6101cd3660046115f8565b6105cd565b61017f6101e03660046116bc565b610678565b6101ee6103e881565b60405190815260200161015b565b61017f61020a3660046115f8565b61080a565b61017f6108b5565b6101946108f0565b61017f61022d366004611740565b6108ff565b61014f6102403660046115c7565b61097a565b60036020908152600080516020611ae0833981519152546001600052600080516020611ac08339815191525460408051928352928201520161015b565b61017f6109a0565b61017f6102983660046115c7565b610afb565b61017f6102ab366004611775565b610b4c565b61014f6102be3660046115c7565b60076020526000908152604090205460ff1681565b61017f610b99565b61017f6102e9366004611790565b610cef565b61017f6102fc3660046115c7565b610d23565b6001600160a01b0381166000908152600660205260408120541561032757506001919050565b506000919050565b6001600160a01b0381166000908152600560205260408120541561032757506001919050565b33321461037d5760405162461bcd60e51b8152600401610374906117a9565b60405180910390fd5b600080526003602052600080516020611ae08339815191525460018110156103b75760405162461bcd60e51b8152600401610374906117db565b336000908152600460205260409020546103e35760405162461bcd60e51b815260040161037490611812565b336000908152600460205260409020546103fe906001610dc3565b33600090815260046020526040808220929092558151600d8082526101c08201909352909181602001602082028036833701905050905061043f6000610dd8565b600080526003602052600080516020611ae083398151915254909150610466906001610dc3565b600080526003602052600080516020611ae083398151915255600154604051632d716a8b60e11b81526001600160a01b0390911690635ae2d516906104b19033908590600401611849565b600060405180830381600087803b1580156104cb57600080fd5b505af11580156104df573d6000803e3d6000fd5b505050505050565b336104f06108f0565b6001600160a01b0316146105165760405162461bcd60e51b8152600401610374906118a8565b60005b81518110156105c95761057460016006600085858151811061053d5761053d6118dd565b60200260200101516001600160a01b03166001600160a01b03168152602001908152602001600020546113f390919063ffffffff16565b6006600084848151811061058a5761058a6118dd565b60200260200101516001600160a01b03166001600160a01b031681526020019081526020016000208190555080806105c190611909565b915050610519565b5050565b336105d66108f0565b6001600160a01b0316146105fc5760405162461bcd60e51b8152600401610374906118a8565b60005b81518110156105c95761062360016005600085858151811061053d5761053d6118dd565b60056000848481518110610639576106396118dd565b60200260200101516001600160a01b03166001600160a01b0316815260200190815260200160002081905550808061067090611909565b9150506105ff565b600154600160a01b900460ff1661068e57600080fd5b3332146106ad5760405162461bcd60e51b8152600401610374906117a9565b600080526003602052600080516020611ae08339815191525460018110156106e75760405162461bcd60e51b8152600401610374906117db565b6106f483836002546113ff565b6106fd57600080fd5b3360009081526007602052604090205460ff161561071a57600080fd5b336000908152600760209081526040808320805460ff191660011790558051600d8082526101c082019092529182016101a0803683370190505090506107606000610dd8565b60008080526003602052600080516020611ae0833981519152549192506107879190610dc3565b600080526003602052600080516020611ae083398151915255600154604051632d716a8b60e11b81526001600160a01b0390911690635ae2d516906107d29033908590600401611849565b600060405180830381600087803b1580156107ec57600080fd5b505af1158015610800573d6000803e3d6000fd5b5050505050505050565b336108136108f0565b6001600160a01b0316146108395760405162461bcd60e51b8152600401610374906118a8565b60005b81518110156105c95761086060016004600085858151811061053d5761053d6118dd565b60046000848481518110610876576108766118dd565b60200260200101516001600160a01b03166001600160a01b031681526020019081526020016000208190555080806108ad90611909565b91505061083c565b336108be6108f0565b6001600160a01b0316146108e45760405162461bcd60e51b8152600401610374906118a8565b6108ee6000611476565b565b6000546001600160a01b031690565b336109086108f0565b6001600160a01b03161461092e5760405162461bcd60e51b8152600401610374906118a8565b80156109615760008281526003602052604090205461094d90846113f3565b600083815260036020526040902055505050565b60008281526003602052604090205461094d9084610dc3565b6001600160a01b0381166000908152600460205260408120541561032757506001919050565b3332146109bf5760405162461bcd60e51b8152600401610374906117a9565b600160008190526003602052600080516020611ac083398151915254908110156109fb5760405162461bcd60e51b8152600401610374906117db565b33600090815260056020526040902054610a275760405162461bcd60e51b815260040161037490611812565b33600090815260056020526040902054610a42906001610dc3565b33600090815260056020526040808220929092558151600d8082526101c082019093529091816020016020820280368337019050509050610a836001610dd8565b600160008190526003602052600080516020611ac083398151915254919250610aac9190610dc3565b600160008190526003602052600080516020611ac08339815191529190915554604051632d716a8b60e11b81526001600160a01b0390911690635ae2d516906104b19033908590600401611849565b33610b046108f0565b6001600160a01b031614610b2a5760405162461bcd60e51b8152600401610374906118a8565b600180546001600160a01b0319166001600160a01b0392909216919091179055565b33610b556108f0565b6001600160a01b031614610b7b5760405162461bcd60e51b8152600401610374906118a8565b60018054911515600160a01b0260ff60a01b19909216919091179055565b333214610bb85760405162461bcd60e51b8152600401610374906117a9565b60026000526003602052600080516020611aa0833981519152546001811015610bf35760405162461bcd60e51b8152600401610374906117db565b33600090815260066020526040902054610c1f5760405162461bcd60e51b815260040161037490611812565b33600090815260066020526040902054610c3a906001610dc3565b33600090815260066020526040808220929092558151600d8082526101c082019093529091816020016020820280368337019050509050610c7b6002610dd8565b60026000526003602052600080516020611aa083398151915254909150610ca3906001610dc3565b60026000526003602052600080516020611aa083398151915255600154604051632d716a8b60e11b81526001600160a01b0390911690635ae2d516906104b19033908590600401611849565b33610cf86108f0565b6001600160a01b031614610d1e5760405162461bcd60e51b8152600401610374906118a8565b600255565b33610d2c6108f0565b6001600160a01b031614610d525760405162461bcd60e51b8152600401610374906118a8565b6001600160a01b038116610db75760405162461bcd60e51b815260206004820152602660248201527f4f776e61626c653a206e6577206f776e657220697320746865207a65726f206160448201526564647265737360d01b6064820152608401610374565b610dc081611476565b50565b6000610dcf8284611922565b90505b92915050565b60408051600d8082526101c0820190925260609160009190602082016101a0803683370190505090506000839050600082600081518110610e1b57610e1b6118dd565b6001600160401b0390921660209283029190910182015260015460408051633bd5e17760e01b81529051610eb3936001600160a01b0390931692633bd5e17792600480820193918290030181865afa158015610e7b573d6000803e3d6000fd5b505050506040513d601f19601f82011682018060405250810190610e9f9190611935565b60ff1682610eac81611909565b93506114c6565b82600181518110610ec657610ec66118dd565b6001600160401b03909216602092830291909101909101526000610ef76103e883610ef081611909565b94506114c6565b90506000805b6005816001600160401b03161015610f955760008781526003602090815260408083206001600160401b0385168452600101909152902054610f409083906113f3565b915081831015610f83578085600281518110610f5e57610f5e6118dd565b60200260200101906001600160401b031690816001600160401b031681525050610f95565b80610f8d8161195f565b915050610efd565b5050600154835161101692506001600160a01b039091169063614a4e449085906002908110610fc657610fc66118dd565b60200260200101516040518263ffffffff1660e01b8152600401610ff991906001600160401b0391909116815260200190565b602060405180830381865afa158015610e7b573d6000803e3d6000fd5b82600381518110611029576110296118dd565b60200260200101906001600160401b031690816001600160401b03168152505060008260048151811061105e5761105e6118dd565b60200260200101906001600160401b031690816001600160401b031681525050600082600581518110611093576110936118dd565b6001600160401b039092166020928302919091019091015260006110bd6103e883610ef081611909565b90506000805b6004816001600160401b0316101561115b5760008781526003602090815260408083206001600160401b03851684526002019091529020546111069083906113f3565b915081831015611149578085600681518110611124576111246118dd565b60200260200101906001600160401b031690816001600160401b03168152505061115b565b806111538161195f565b9150506110c3565b5050600154835160009182916001600160a01b039091169063793eece1908790600690811061118c5761118c6118dd565b60200260200101516040518263ffffffff1660e01b81526004016111bf91906001600160401b0391909116815260200190565b6040805180830381865afa1580156111db573d6000803e3d6000fd5b505050506040513d601f19601f820116820180604052508101906111ff919061199c565b91509150611222816001600160401b0316858061121b90611909565b96506114c6565b61122c90836119cf565b8560078151811061123f5761123f6118dd565b6001600160401b03909216602092830291909101909101526001805486516001600160a01b039091169163a2edc2d6918891908110611280576112806118dd565b60200260200101518760028151811061129b5761129b6118dd565b6020026020010151886003815181106112b6576112b66118dd565b60200260200101516040518463ffffffff1660e01b81526004016112fa939291906001600160401b0393841681529183166020830152909116604082015260600190565b60c060405180830381865afa158015611317573d6000803e3d6000fd5b505050506040513d601f19601f8201168201806040525081019061133b91906119f6565b90919293945089600881518110611354576113546118dd565b602002602001018a60098151811061136e5761136e6118dd565b602002602001018b600a81518110611388576113886118dd565b602002602001018c600b815181106113a2576113a26118dd565b602002602001018d600c815181106113bc576113bc6118dd565b6001600160401b03968716602091820292909201015294841690945293821690925292831690915291169052509295945050505050565b6000610dcf8284611a6a565b600061146e848480806020026020016040519081016040528093929190818152602001838360200280828437600092019190915250506040516001600160601b03193360601b166020820152869250603401905060405160208183030381529060405280519060200120611521565b949350505050565b600080546001600160a01b038381166001600160a01b0319831681178455604051919092169283917f8be0079c531659141344cd1fd0a4f28419497f9722a3daafe3b4186f6b6457e09190a35050565b6000804283336040516020016114fc93929190928352602083019190915260601b6001600160601b031916604082015260540190565b60408051601f198184030181529190528051602082012090915061146e908590611a7d565b60008261152e8584611537565b14949350505050565b600081815b84518110156115a3576000858281518110611559576115596118dd565b6020026020010151905080831161157f5760008381526020829052604090209250611590565b600081815260208490526040902092505b508061159b81611909565b91505061153c565b509392505050565b80356001600160a01b03811681146115c257600080fd5b919050565b6000602082840312156115d957600080fd5b610dcf826115ab565b634e487b7160e01b600052604160045260246000fd5b6000602080838503121561160b57600080fd5b82356001600160401b038082111561162257600080fd5b818501915085601f83011261163657600080fd5b813581811115611648576116486115e2565b8060051b604051601f19603f8301168101818110858211171561166d5761166d6115e2565b60405291825284820192508381018501918883111561168b57600080fd5b938501935b828510156116b0576116a1856115ab565b84529385019392850192611690565b98975050505050505050565b600080602083850312156116cf57600080fd5b82356001600160401b03808211156116e657600080fd5b818501915085601f8301126116fa57600080fd5b81358181111561170957600080fd5b8660208260051b850101111561171e57600080fd5b60209290920196919550909350505050565b803580151581146115c257600080fd5b60008060006060848603121561175557600080fd5b833592506020840135915061176c60408501611730565b90509250925092565b60006020828403121561178757600080fd5b610dcf82611730565b6000602082840312156117a257600080fd5b5035919050565b6020808252601890820152775468652063616c6c6572206973206e6f7420616e20454f4160401b604082015260600190565b6020808252601a908201527f496e73756666696369656e74207175616e74697479206c656674000000000000604082015260600190565b6020808252601a908201527f4e6f20617661696c61626c652061697264726f7020636f756e74000000000000604082015260600190565b6001600160a01b038316815260406020808301829052835191830182905260009184820191906060850190845b8181101561189b5784516001600160401b031683529383019391830191600101611876565b5090979650505050505050565b6020808252818101527f4f776e61626c653a2063616c6c6572206973206e6f7420746865206f776e6572604082015260600190565b634e487b7160e01b600052603260045260246000fd5b634e487b7160e01b600052601160045260246000fd5b60006001820161191b5761191b6118f3565b5060010190565b81810381811115610dd257610dd26118f3565b60006020828403121561194757600080fd5b815160ff8116811461195857600080fd5b9392505050565b60006001600160401b0380831681810361197b5761197b6118f3565b6001019392505050565b80516001600160401b03811681146115c257600080fd5b600080604083850312156119af57600080fd5b6119b883611985565b91506119c660208401611985565b90509250929050565b6001600160401b038181168382160190808211156119ef576119ef6118f3565b5092915050565b60008060008060008060c08789031215611a0f57600080fd5b611a1887611985565b9550611a2660208801611985565b9450611a3460408801611985565b9350611a4260608801611985565b9250611a5060808801611985565b9150611a5e60a08801611985565b90509295509295509295565b80820180821115610dd257610dd26118f3565b600082611a9a57634e487b7160e01b600052601260045260246000fd5b50069056fec3a24b0501bd2c13a7e57f2db4369ec4c223447539fc0724a9d55ac4a06ebd4da15bc60c955c405d20d9149c709e2460f1c2d9a497496a7f46004d1772c3054c3617319a054d772f909f7c479a2cebe5066e836a939412e32403c99029b92effa26469706673582212201ec1243eae00cad096879f2e7232399e99849ccc8ab1f978bbd47e7fe03fbd1e64736f6c63430008100033",
  "immutableReferences": {},
  "source": "// SPDX-License-Identifier: SimPL-2.0\n\npragma solidity ^0.8.0;\npragma experimental ABIEncoderV2;\n\nimport \"./RichHero.sol\";\n\nimport \"@openzeppelin/contracts/access/Ownable.sol\";\nimport \"@openzeppelin/contracts/token/ERC20/IERC20.sol\";\n\nimport \"@openzeppelin/contracts/utils/math/SafeMath.sol\";\nimport \"@openzeppelin/contracts/utils/cryptography/MerkleProof.sol\";\n/**\n* @title AirDrop - Romance of the Three Kingdoms AirDrop\n*\n* Version v1.1.0\n*\n*/\n\ncontract AirDrop3 is Ownable {\n    using SafeMath for uint256;\n\n    struct DropBoxStruct {\n        uint256 totalHero;\n        mapping (uint256 => uint256) rarities;\n        mapping (uint256 => uint256) qualities;\n    }\n\n    uint256 public constant RAND_BASE = 1000;\n    RichHero public HERO;\n\n    bool airDropOpen;\n    bytes32 merkleRoot;\n    mapping (uint256 => DropBoxStruct) private _dropBoxes;\n    mapping (address => uint256) private _whiteList;\n    mapping (address => uint256) private _whiteList2;\n    mapping (address => uint256) private _whiteList3;\n    mapping (address => bool) public claimed;\n    \n    constructor(address nft) {\n        HERO = RichHero(nft);\n        _dropBoxes[0].rarities[0] = 60;\n        _dropBoxes[0].rarities[1] = 850;\n        _dropBoxes[0].rarities[2] = 80;\n        _dropBoxes[0].rarities[3] = 10;\n        _dropBoxes[0].qualities[0] = 150;\n        _dropBoxes[0].qualities[1] = 800;\n        _dropBoxes[0].qualities[2] = 45;\n        _dropBoxes[0].qualities[3] = 5;\n        _dropBoxes[0].totalHero = 5000;\n\n        _dropBoxes[1].rarities[0] = 0;\n        _dropBoxes[1].rarities[1] = 0;\n        _dropBoxes[1].rarities[2] = 0;\n        _dropBoxes[1].rarities[3] = 1000;\n        _dropBoxes[1].qualities[0] = 150;\n        _dropBoxes[1].qualities[1] = 300;\n        _dropBoxes[1].qualities[2] = 500;\n        _dropBoxes[1].qualities[3] = 50;\n        _dropBoxes[1].totalHero = 500;\n\n        _dropBoxes[2].rarities[0] = 0;\n        _dropBoxes[2].rarities[1] = 0;\n        _dropBoxes[2].rarities[2] = 0;\n        _dropBoxes[2].rarities[3] = 1000;\n        _dropBoxes[2].qualities[0] = 0;\n        _dropBoxes[2].qualities[1] = 0;\n        _dropBoxes[2].qualities[2] = 0;\n        _dropBoxes[2].qualities[3] = 0;\n        _dropBoxes[2].qualities[4] = 1000;\n        _dropBoxes[2].totalHero = 500;\n    }\n\n    function setRoot(bytes32 root) external onlyOwner {\n        merkleRoot = root;\n    }\n\n    function setAirDropState(bool state) external onlyOwner {\n        airDropOpen = state;\n    }\n\n    function _random(uint256 value, uint256 index) private view returns (uint256) {\n        bytes memory seed = abi.encodePacked(block.timestamp, index, msg.sender);\n        return uint256(keccak256(seed)) % value;\n    }\n\n    function _choose(uint256 index) private view returns (uint64[] memory) {\n        uint64[] memory heroDetail = new uint64[](13);\n        uint256 randIndex = index;\n        heroDetail[0] = 0; //native\n        heroDetail[1] = uint64(_random(uint256(HERO.camps()), randIndex++)); //camp\n        {\n            uint256 ranRarity = _random(RAND_BASE, randIndex++);\n            uint256 rarityTotal;\n            for (uint64 i = 0; i < 5; i++) {\n                rarityTotal = rarityTotal.add(_dropBoxes[index].rarities[i]);\n                if (ranRarity >= rarityTotal) {\n                    continue;\n                } else {\n                    heroDetail[2] = i; //rarity\n                    break;\n                }\n            }\n        }\n        heroDetail[3] = uint64(_random(uint256(HERO.heroIds(heroDetail[2])), randIndex++)); //heroId\n        heroDetail[4] = 0; //level\n        heroDetail[5] = 0; //star  \n        uint256 ranQuality = _random(RAND_BASE, randIndex++);\n        {\n            uint256 qualityTotal;\n            for (uint64 i = 0; i < 4; i++) {\n                qualityTotal = qualityTotal.add(_dropBoxes[index].qualities[i]);\n                if (ranQuality >= qualityTotal) {\n                    continue;\n                } else {\n                    heroDetail[6] = i; //quality\n                    break;\n                }\n            }\n        }\n        (uint64 baseAddition, uint64 additionMod) = HERO.additions(heroDetail[6]);\n        heroDetail[7] = baseAddition + uint64(_random(additionMod, randIndex++)); //addition\n        (,\n        heroDetail[8],\n        heroDetail[9],\n        heroDetail[10],\n        heroDetail[11],\n        heroDetail[12]) = HERO._heroInitials(heroDetail[1], heroDetail[2], heroDetail[3]); //preference\n        return heroDetail;\n    }\n\n    function claimAirDrop(bytes32[] calldata merkleProof) public {\n        require(airDropOpen);\n        require(msg.sender == tx.origin, \"The caller is not an EOA\");\n        uint256 number = _dropBoxes[0].totalHero;\n        require(number >= 1, \"Insufficient quantity left\");\n        require(_verify(merkleProof, merkleRoot));\n        require(!claimed[msg.sender]);\n        claimed[msg.sender] = true;\n        uint64[] memory detail = new uint64[](13);\n        detail = _choose(0);\n        _dropBoxes[0].totalHero = _dropBoxes[0].totalHero.sub(0);\n        HERO.mint(msg.sender, detail);\n    }\n\n    function claimNormalAirDrop() public {\n        require(msg.sender == tx.origin, \"The caller is not an EOA\");\n        uint256 number = _dropBoxes[0].totalHero;\n        require(number >= 1, \"Insufficient quantity left\");\n        require(_whiteList[msg.sender] > 0, \"No available airdrop count\");\n        _whiteList[msg.sender] = _whiteList[msg.sender].sub(1);\n        uint64[] memory detail = new uint64[](13);\n        detail = _choose(0);\n        _dropBoxes[0].totalHero = _dropBoxes[0].totalHero.sub(1);\n        HERO.mint(msg.sender, detail);\n    }\n\n    function claimMiddleAirDrop() public {\n        require(msg.sender == tx.origin, \"The caller is not an EOA\");\n        uint256 number = _dropBoxes[1].totalHero;\n        require(number >= 1, \"Insufficient quantity left\");\n        require(_whiteList2[msg.sender] > 0, \"No available airdrop count\");\n        _whiteList2[msg.sender] = _whiteList2[msg.sender].sub(1);\n        uint64[] memory detail = new uint64[](13);\n        detail = _choose(1);\n        _dropBoxes[1].totalHero = _dropBoxes[1].totalHero.sub(1);\n        HERO.mint(msg.sender, detail);\n    }\n\n    function claimSpecialAirDrop() public {\n        require(msg.sender == tx.origin, \"The caller is not an EOA\");\n        uint256 number = _dropBoxes[2].totalHero;\n        require(number >= 1, \"Insufficient quantity left\");\n        require(_whiteList3[msg.sender] > 0, \"No available airdrop count\");\n        _whiteList3[msg.sender] = _whiteList3[msg.sender].sub(1);\n        uint64[] memory detail = new uint64[](13);\n        detail = _choose(2);\n        _dropBoxes[2].totalHero = _dropBoxes[2].totalHero.sub(1);\n        HERO.mint(msg.sender, detail);\n    }\n\n    function isInWhiteList(address receiver) public view returns (bool) {\n        if (_whiteList[receiver] > 0) {\n            return true;\n        }\n        return false;\n    }\n\n    function addWhiteList(address[] memory whiteList) public onlyOwner {\n        for (uint256 i = 0; i < whiteList.length; i++) {\n            _whiteList[whiteList[i]] = _whiteList[whiteList[i]].add(1);\n        }\n    }\n\n    function isInWhiteList2(address receiver) public view returns (bool) {\n        if (_whiteList2[receiver] > 0) {\n            return true;\n        }\n        return false;\n    }\n\n    function addWhiteList2(address[] memory whiteList) public onlyOwner {\n        for (uint256 i = 0; i < whiteList.length; i++) {\n            _whiteList2[whiteList[i]] = _whiteList2[whiteList[i]].add(1);\n        }\n    }\n\n    function isInWhiteList3(address receiver) public view returns (bool) {\n        if (_whiteList3[receiver] > 0) {\n            return true;\n        }\n        return false;\n    }\n\n    function addWhiteList3(address[] memory whiteList) public onlyOwner {\n        for (uint256 i = 0; i < whiteList.length; i++) {\n            _whiteList3[whiteList[i]] = _whiteList3[whiteList[i]].add(1);\n        }\n    }\n\n    function setDropBox(uint256 amount, uint256 boxId, bool add) public onlyOwner {\n        if (add) {\n            _dropBoxes[boxId].totalHero = _dropBoxes[boxId].totalHero.add(amount);\n        } else {\n            _dropBoxes[boxId].totalHero = _dropBoxes[boxId].totalHero.sub(amount);\n        }\n    }\n\n    function getDropBoxNumber() public view returns (uint256, uint256) {\n        return (_dropBoxes[0].totalHero, _dropBoxes[1].totalHero);\n    }\n\n    function setHero(address hero) public onlyOwner {\n        HERO = RichHero(hero);\n    }\n\n    function _verify(bytes32[] calldata merkleProof, bytes32 root) internal view returns(bool){\n        return MerkleProof.verify(\n                merkleProof,\n                root,\n                keccak256(abi.encodePacked(msg.sender))\n            );\n    }\n}",
  "sourcePath": "/Users/hy/new-rich-contract/contracts/AirDrop3.sol",
  "compiler": {
    "name": "solc",
    "version": "0.8.16+commit.07a7930e.Emscripten.clang"
  },
  "schemaVersion": "3.4.3",
  "updatedAt": "2022-10-14T13:08:41.663Z",
  "devdoc": {
    "kind": "dev",
    "methods": {
      "owner()": {
        "details": "Returns the address of the current owner."
      },
      "renounceOwnership()": {
        "details": "Leaves the contract without owner. It will not be possible to call `onlyOwner` functions anymore. Can only be called by the current owner. NOTE: Renouncing ownership will leave the contract without an owner, thereby removing any functionality that is only available to the owner."
      },
      "transferOwnership(address)": {
        "details": "Transfers ownership of the contract to a new account (`newOwner`). Can only be called by the current owner."
      }
    },
    "title": "AirDrop - Romance of the Three Kingdoms AirDrop Version v1.1.0",
    "version": 1
  },
  "userdoc": {
    "kind": "user",
    "methods": {},
    "notice": "",
    "version": 1
  }
}