{
  "contractName": "Battle",
  "abi": [
    {
      "inputs": [
        {
          "internalType": "address",
          "name": "nft",
          "type": "address"
        },
        {
          "internalType": "address",
          "name": "richShop",
          "type": "address"
        },
        {
          "internalType": "address",
          "name": "battleShop",
          "type": "address"
        },
        {
          "internalType": "address",
          "name": "mmc",
          "type": "address"
        }
      ],
      "stateMutability": "nonpayable",
      "type": "constructor"
    },
    {
      "anonymous": false,
      "inputs": [
        {
          "indexed": true,
          "internalType": "address",
          "name": "previousOwner",
          "type": "address"
        },
        {
          "indexed": true,
          "internalType": "address",
          "name": "newOwner",
          "type": "address"
        }
      ],
      "name": "OwnershipTransferred",
      "type": "event"
    },
    {
      "inputs": [],
      "name": "BATTLESHOP",
      "outputs": [
        {
          "internalType": "contract BattleShop",
          "name": "",
          "type": "address"
        }
      ],
      "stateMutability": "view",
      "type": "function"
    },
    {
      "inputs": [],
      "name": "HERO",
      "outputs": [
        {
          "internalType": "contract RichHero",
          "name": "",
          "type": "address"
        }
      ],
      "stateMutability": "view",
      "type": "function"
    },
    {
      "inputs": [],
      "name": "MMC",
      "outputs": [
        {
          "internalType": "contract IERC20",
          "name": "",
          "type": "address"
        }
      ],
      "stateMutability": "view",
      "type": "function"
    },
    {
      "inputs": [],
      "name": "PCT_BASE",
      "outputs": [
        {
          "internalType": "uint256",
          "name": "",
          "type": "uint256"
        }
      ],
      "stateMutability": "view",
      "type": "function"
    },
    {
      "inputs": [],
      "name": "RAND_BASE",
      "outputs": [
        {
          "internalType": "uint256",
          "name": "",
          "type": "uint256"
        }
      ],
      "stateMutability": "view",
      "type": "function"
    },
    {
      "inputs": [],
      "name": "RICHSHOP",
      "outputs": [
        {
          "internalType": "contract RichShop",
          "name": "",
          "type": "address"
        }
      ],
      "stateMutability": "view",
      "type": "function"
    },
    {
      "inputs": [
        {
          "internalType": "uint256",
          "name": "",
          "type": "uint256"
        },
        {
          "internalType": "uint256",
          "name": "",
          "type": "uint256"
        }
      ],
      "name": "arriveAddress",
      "outputs": [
        {
          "internalType": "address",
          "name": "",
          "type": "address"
        }
      ],
      "stateMutability": "view",
      "type": "function"
    },
    {
      "inputs": [
        {
          "internalType": "uint256",
          "name": "",
          "type": "uint256"
        }
      ],
      "name": "arrivePower",
      "outputs": [
        {
          "internalType": "uint256",
          "name": "",
          "type": "uint256"
        }
      ],
      "stateMutability": "view",
      "type": "function"
    },
    {
      "inputs": [],
      "name": "battleEndTime",
      "outputs": [
        {
          "internalType": "uint64",
          "name": "",
          "type": "uint64"
        }
      ],
      "stateMutability": "view",
      "type": "function"
    },
    {
      "inputs": [],
      "name": "battleStartTime",
      "outputs": [
        {
          "internalType": "uint64",
          "name": "",
          "type": "uint64"
        }
      ],
      "stateMutability": "view",
      "type": "function"
    },
    {
      "inputs": [
        {
          "internalType": "address",
          "name": "",
          "type": "address"
        },
        {
          "internalType": "uint8",
          "name": "",
          "type": "uint8"
        }
      ],
      "name": "betInfos",
      "outputs": [
        {
          "internalType": "uint256",
          "name": "",
          "type": "uint256"
        }
      ],
      "stateMutability": "view",
      "type": "function"
    },
    {
      "inputs": [
        {
          "internalType": "uint8",
          "name": "",
          "type": "uint8"
        },
        {
          "internalType": "uint256",
          "name": "",
          "type": "uint256"
        }
      ],
      "name": "campPlayers",
      "outputs": [
        {
          "internalType": "address",
          "name": "",
          "type": "address"
        }
      ],
      "stateMutability": "view",
      "type": "function"
    },
    {
      "inputs": [
        {
          "internalType": "uint8",
          "name": "",
          "type": "uint8"
        }
      ],
      "name": "campPool",
      "outputs": [
        {
          "internalType": "uint256",
          "name": "",
          "type": "uint256"
        }
      ],
      "stateMutability": "view",
      "type": "function"
    },
    {
      "inputs": [
        {
          "internalType": "uint8",
          "name": "",
          "type": "uint8"
        },
        {
          "internalType": "uint8",
          "name": "",
          "type": "uint8"
        },
        {
          "internalType": "uint256",
          "name": "",
          "type": "uint256"
        }
      ],
      "name": "distance",
      "outputs": [
        {
          "internalType": "uint64",
          "name": "",
          "type": "uint64"
        }
      ],
      "stateMutability": "view",
      "type": "function"
    },
    {
      "inputs": [],
      "name": "feeRecipient",
      "outputs": [
        {
          "internalType": "address",
          "name": "",
          "type": "address"
        }
      ],
      "stateMutability": "view",
      "type": "function"
    },
    {
      "inputs": [
        {
          "internalType": "uint8",
          "name": "",
          "type": "uint8"
        }
      ],
      "name": "nodeInfo",
      "outputs": [
        {
          "internalType": "uint8",
          "name": "nodeId",
          "type": "uint8"
        },
        {
          "internalType": "uint8",
          "name": "nodeType",
          "type": "uint8"
        },
        {
          "internalType": "uint64",
          "name": "nowConflictStartTime",
          "type": "uint64"
        }
      ],
      "stateMutability": "view",
      "type": "function"
    },
    {
      "inputs": [],
      "name": "owner",
      "outputs": [
        {
          "internalType": "address",
          "name": "",
          "type": "address"
        }
      ],
      "stateMutability": "view",
      "type": "function"
    },
    {
      "inputs": [
        {
          "internalType": "address",
          "name": "",
          "type": "address"
        }
      ],
      "name": "players",
      "outputs": [
        {
          "internalType": "uint8",
          "name": "camp",
          "type": "uint8"
        },
        {
          "internalType": "uint8",
          "name": "road",
          "type": "uint8"
        },
        {
          "internalType": "uint8",
          "name": "currentStep",
          "type": "uint8"
        },
        {
          "internalType": "uint8",
          "name": "baseSpeed",
          "type": "uint8"
        },
        {
          "internalType": "uint8",
          "name": "speedBuffType",
          "type": "uint8"
        },
        {
          "internalType": "uint8",
          "name": "additionSpeed",
          "type": "uint8"
        },
        {
          "internalType": "uint8",
          "name": "state",
          "type": "uint8"
        },
        {
          "internalType": "uint8",
          "name": "lastEvent",
          "type": "uint8"
        },
        {
          "internalType": "uint8",
          "name": "lastBuffId",
          "type": "uint8"
        },
        {
          "components": [
            {
              "internalType": "uint256[]",
              "name": "buff",
              "type": "uint256[]"
            },
            {
              "internalType": "uint256[]",
              "name": "debuff",
              "type": "uint256[]"
            }
          ],
          "internalType": "struct Battle.Addition",
          "name": "addition",
          "type": "tuple"
        }
      ],
      "stateMutability": "view",
      "type": "function"
    },
    {
      "inputs": [
        {
          "internalType": "uint8",
          "name": "",
          "type": "uint8"
        },
        {
          "internalType": "uint8",
          "name": "",
          "type": "uint8"
        }
      ],
      "name": "randomEvent",
      "outputs": [
        {
          "internalType": "uint64",
          "name": "",
          "type": "uint64"
        }
      ],
      "stateMutability": "view",
      "type": "function"
    },
    {
      "inputs": [],
      "name": "renounceOwnership",
      "outputs": [],
      "stateMutability": "nonpayable",
      "type": "function"
    },
    {
      "inputs": [
        {
          "internalType": "uint8",
          "name": "",
          "type": "uint8"
        },
        {
          "internalType": "uint8",
          "name": "",
          "type": "uint8"
        },
        {
          "internalType": "uint256",
          "name": "",
          "type": "uint256"
        }
      ],
      "name": "roadMap",
      "outputs": [
        {
          "internalType": "uint8",
          "name": "",
          "type": "uint8"
        }
      ],
      "stateMutability": "view",
      "type": "function"
    },
    {
      "inputs": [],
      "name": "totalBetPool",
      "outputs": [
        {
          "internalType": "uint256",
          "name": "",
          "type": "uint256"
        }
      ],
      "stateMutability": "view",
      "type": "function"
    },
    {
      "inputs": [
        {
          "internalType": "address",
          "name": "newOwner",
          "type": "address"
        }
      ],
      "name": "transferOwnership",
      "outputs": [],
      "stateMutability": "nonpayable",
      "type": "function"
    },
    {
      "inputs": [
        {
          "internalType": "uint64",
          "name": "_startTime",
          "type": "uint64"
        }
      ],
      "name": "startBattle",
      "outputs": [],
      "stateMutability": "nonpayable",
      "type": "function"
    },
    {
      "inputs": [
        {
          "internalType": "uint256[]",
          "name": "commonTokenIds",
          "type": "uint256[]"
        },
        {
          "internalType": "uint256[]",
          "name": "goldenTokenIds",
          "type": "uint256[]"
        }
      ],
      "name": "ticketAmount",
      "outputs": [
        {
          "internalType": "uint256",
          "name": "",
          "type": "uint256"
        }
      ],
      "stateMutability": "view",
      "type": "function"
    },
    {
      "inputs": [
        {
          "internalType": "uint8",
          "name": "camp",
          "type": "uint8"
        },
        {
          "internalType": "uint8",
          "name": "road",
          "type": "uint8"
        },
        {
          "internalType": "uint256[]",
          "name": "commonTokenIds",
          "type": "uint256[]"
        },
        {
          "internalType": "uint256[]",
          "name": "goldenTokenIds",
          "type": "uint256[]"
        }
      ],
      "name": "fight",
      "outputs": [],
      "stateMutability": "nonpayable",
      "type": "function"
    },
    {
      "inputs": [
        {
          "internalType": "uint8",
          "name": "decision",
          "type": "uint8"
        }
      ],
      "name": "march",
      "outputs": [],
      "stateMutability": "nonpayable",
      "type": "function"
    },
    {
      "inputs": [],
      "name": "trigger",
      "outputs": [],
      "stateMutability": "nonpayable",
      "type": "function"
    },
    {
      "inputs": [
        {
          "internalType": "uint8",
          "name": "buffId",
          "type": "uint8"
        }
      ],
      "name": "useBuff",
      "outputs": [],
      "stateMutability": "nonpayable",
      "type": "function"
    },
    {
      "inputs": [],
      "name": "claim",
      "outputs": [],
      "stateMutability": "nonpayable",
      "type": "function"
    },
    {
      "inputs": [
        {
          "internalType": "address",
          "name": "account",
          "type": "address"
        }
      ],
      "name": "getMarchTactics",
      "outputs": [
        {
          "internalType": "bool[5]",
          "name": "tactics",
          "type": "bool[5]"
        }
      ],
      "stateMutability": "view",
      "type": "function"
    },
    {
      "inputs": [
        {
          "internalType": "address",
          "name": "player",
          "type": "address"
        }
      ],
      "name": "previewNextNode",
      "outputs": [
        {
          "internalType": "bool",
          "name": "",
          "type": "bool"
        }
      ],
      "stateMutability": "view",
      "type": "function"
    },
    {
      "inputs": [
        {
          "internalType": "address",
          "name": "player",
          "type": "address"
        }
      ],
      "name": "getCurrentNode",
      "outputs": [
        {
          "internalType": "uint8",
          "name": "",
          "type": "uint8"
        }
      ],
      "stateMutability": "view",
      "type": "function"
    },
    {
      "inputs": [
        {
          "internalType": "address",
          "name": "player",
          "type": "address"
        }
      ],
      "name": "getNextNode",
      "outputs": [
        {
          "internalType": "uint8",
          "name": "",
          "type": "uint8"
        }
      ],
      "stateMutability": "view",
      "type": "function"
    },
    {
      "inputs": [
        {
          "internalType": "uint256[]",
          "name": "commonTokenIds",
          "type": "uint256[]"
        }
      ],
      "name": "isCombine",
      "outputs": [
        {
          "internalType": "bool",
          "name": "isTrigger",
          "type": "bool"
        },
        {
          "internalType": "uint256",
          "name": "combineId",
          "type": "uint256"
        }
      ],
      "stateMutability": "view",
      "type": "function"
    },
    {
      "inputs": [
        {
          "internalType": "address",
          "name": "shop",
          "type": "address"
        }
      ],
      "name": "setRichShop",
      "outputs": [],
      "stateMutability": "nonpayable",
      "type": "function"
    },
    {
      "inputs": [
        {
          "internalType": "address",
          "name": "shop",
          "type": "address"
        }
      ],
      "name": "setBattleShop",
      "outputs": [],
      "stateMutability": "nonpayable",
      "type": "function"
    },
    {
      "inputs": [
        {
          "internalType": "address",
          "name": "hero",
          "type": "address"
        }
      ],
      "name": "setHero",
      "outputs": [],
      "stateMutability": "nonpayable",
      "type": "function"
    },
    {
      "inputs": [],
      "name": "getOdds",
      "outputs": [
        {
          "internalType": "uint256[]",
          "name": "odds",
          "type": "uint256[]"
        }
      ],
      "stateMutability": "view",
      "type": "function"
    },
    {
      "inputs": [
        {
          "internalType": "uint8",
          "name": "camp",
          "type": "uint8"
        },
        {
          "internalType": "uint256",
          "name": "amount",
          "type": "uint256"
        }
      ],
      "name": "bet",
      "outputs": [],
      "stateMutability": "nonpayable",
      "type": "function"
    },
    {
      "inputs": [],
      "name": "claimBet",
      "outputs": [],
      "stateMutability": "nonpayable",
      "type": "function"
    },
    {
      "inputs": [
        {
          "internalType": "address",
          "name": "account",
          "type": "address"
        }
      ],
      "name": "getClaimBet",
      "outputs": [
        {
          "internalType": "uint256",
          "name": "",
          "type": "uint256"
        }
      ],
      "stateMutability": "view",
      "type": "function"
    },
    {
      "inputs": [
        {
          "internalType": "bytes4",
          "name": "interfaceId",
          "type": "bytes4"
        }
      ],
      "name": "supportsInterface",
      "outputs": [
        {
          "internalType": "bool",
          "name": "",
          "type": "bool"
        }
      ],
      "stateMutability": "view",
      "type": "function"
    },
    {
      "inputs": [
        {
          "internalType": "address",
          "name": "operator",
          "type": "address"
        },
        {
          "internalType": "address",
          "name": "from",
          "type": "address"
        },
        {
          "internalType": "uint256",
          "name": "id",
          "type": "uint256"
        },
        {
          "internalType": "uint256",
          "name": "value",
          "type": "uint256"
        },
        {
          "internalType": "bytes",
          "name": "data",
          "type": "bytes"
        }
      ],
      "name": "onERC1155Received",
      "outputs": [
        {
          "internalType": "bytes4",
          "name": "",
          "type": "bytes4"
        }
      ],
      "stateMutability": "pure",
      "type": "function"
    },
    {
      "inputs": [
        {
          "internalType": "address",
          "name": "operator",
          "type": "address"
        },
        {
          "internalType": "address",
          "name": "from",
          "type": "address"
        },
        {
          "internalType": "uint256[]",
          "name": "ids",
          "type": "uint256[]"
        },
        {
          "internalType": "uint256[]",
          "name": "values",
          "type": "uint256[]"
        },
        {
          "internalType": "bytes",
          "name": "data",
          "type": "bytes"
        }
      ],
      "name": "onERC1155BatchReceived",
      "outputs": [
        {
          "internalType": "bytes4",
          "name": "",
          "type": "bytes4"
        }
      ],
      "stateMutability": "pure",
      "type": "function"
    }
  ],
  "bytecode": "0x60806040526004546200002690600160a01b90046001600160401b031662093a8062001b68565b600580546001600160401b03929092166001600160801b031990921691909117694650000000000000000017600160801b600160c01b0319166103e760801b17905569152d02c7e14af680000060085560118054738f3b8f3046deb7c4e227dc0c6379051755ba31426001600160a01b0319909116179055348015620000ab57600080fd5b5060405162004cd438038062004cd4833981016040819052620000ce9162001bbf565b620000d933620019ae565b600180546001600160a01b038087166001600160a01b031992831617909255600280548684169083161790556003805485841690831617905560048054928416929091169190911790556040805160a081018252600781526008602080830191909152600592820183905260066060830152601860808301526000805260008051602062004b54833981519152905262000196917f6960a8cbf64889c4449a6caa4b8ff6c8bb8c44f0ec990ca4ea6cda223403aec89190620019fe565b5060408051608081018252606481526000602080830182905261012c93830193909352610258606083015280527f13649b2456f1b42fef0f0040b3aaeabcd21a76a0f3f5defd4f583839455116e890915262000216907f18ea5137d4b638f7150ef5d67284baa6628dc5dcf2cde6ec4377e9be2774c55f90600462001aab565b506040805160c081018252600781526009602080830191909152600a92820192909252600b6060820152600c6080820152601860a0820152600160005260008051602062004b5483398151915290915262000295907fd2e9f3f008b9cbb8db1c4a131facda63ab64ab075a1a77064a17c38064055769906006620019fe565b506040805160a0810182526064815260c8602080830191909152600092820183905261012c6060830152610190608083015260019092527f13649b2456f1b42fef0f0040b3aaeabcd21a76a0f3f5defd4f583839455116e89091526200031f907fcb38cec8d83a9a42531c8d397680e040e036d175388fcdf7235fb5b422e5aa6f90600562001aab565b506040805160a08101825260138152601460208083019190915260159282019290925260026060820152601860808201526000805260008051602062004c9483398151915290915262000396907f2ec0b8ab4ad3a80bdea7fcdccfa01956a9b76c084703690ab2d4093a444a63fe906005620019fe565b50604080516080810182526064815260c860208083019190915260009282018390526102bc606083015291805260008051602062004af483398151915290915262000405907fcc045a98e72e59344d4f7091f80bbb561222da6a20eec7c35a2c5e8d6ed5fd8390600462001aab565b506040805160a0810182526013815260176020808301919091526011928201929092526012606082015260186080820152600160005260008051602062004c948339815191529091526200047d907f6bd9ce7c7c44b510ee825857e9b7d0dbc77ffc0dcbb487d9763a092e420c9a18906005620019fe565b5060408051608081018252606481526000602080830182905260c8938301939093526102bc60608301526001905260008051602062004af4833981519152909152620004ed907f74b234455bfe93705121b1ea0a7f3df5e2704ec38fc882a75adc713c35d8269790600462001aab565b506040805160a081018252600080825260016020808401919091526002938301939093526006606083015260186080830152805260008051602062004ad483398151915290915262000563907f7068e8d603acb867df3a17ddcac19f8c8aedb8267a02370e22fe15434680ded8906005620019fe565b5060408051608081018252606481526000602080830182905260c8938301939093526102bc6060830152805260008051602062004bd4833981519152909152620005d1907f1ac00230244715babf0cf16d615121ed069eb90066c6d6d987a2a04c541e289290600462001aab565b506040805160c0810182526000808252600360208084019190915260049383019390935260056060830152600660808301819052601860a0840152600190915260008051602062004ad483398151915290925262000652917f5ec873723cdc64ab6619ea2fcbca33beef9a820510f97aa9ecb9e3ff0f6388539190620019fe565b506040805160a0810182526064815260c8602080830191909152600092820183905261012c60608301526101906080830152600190925260008051602062004bd4833981519152909152620006cb907fa77a75bbdbe73e3259c49d9b255cf7c229d50168240b9bea7580f278e0adaf2890600562001aab565b506040805160a081018252600d8152600e602080830191909152600b92820192909252600f606082015260186080820152600080527f64c15cc42be7899b001f818cf4433057002112c418d1d3a67cd5cb453051d33e90915262000753907fbfd3fbee5fb478ec30165d2f392ecdca97a929208d1227be360e1fe26e90fd1e906005620019fe565b5060408051608081018252606481526000602080830182905260c8938301939093526102bc6060830152805260008051602062004c54833981519152909152620007c1907f2d8706be4f0c249e48c256df4f00a243bc451255b1c5400e344498700aa06b4e90600462001aab565b506040805160a081018252600d81526010602080830191909152601192820192909252601260608201526018608082015260016000527f64c15cc42be7899b001f818cf4433057002112c418d1d3a67cd5cb453051d33e9091526200084a907f960add1d2a4af75b2cd16bfb54d92ee5d4c29427a1bf605fa9b667906b27d701906005620019fe565b5060408051608081018252606481526000602080830182905260c8938301939093526102bc60608301526001905260008051602062004c54833981519152909152620008ba907f5326809152075f73a858a44e7a29970321e3cb993344cccc6a92a235864f135490600462001aab565b50600d6020527f81955a0a11e65eac625c29e8882660bae4e165a75d72780094acae8ece9a29ee805461ffff19908116909155600160008181527ffd54ff1ed53f34a900b24c5ba64f85761163b5d82d98a47b9bd80e45466993c58054909316610201179092557ffd54ff1ed53f34a900b24c5ba64f85761163b5d82d98a47b9bd80e45466993c680549192909162000957576200095762001c1c565b90600052602060002090602091828204019190066101000a81548160ff021916908360ff1602179055506002600d6000600160ff168152602001908152602001600020600101600181548110620009b257620009b262001c1c565b60009182526020808320818304018054601f9093166101000a60ff81810219909416959093169290920293909317905560028152600d9091527f10a81eed9d63d16face5e76357905348e6253d3394086026bb2bf2145d7cc249805461ffff191661010217905560008051602062004cb483398151915280546001929062000a3e5762000a3e62001c1c565b6000918252602080832081830401805460ff958616601f9094166101000a9384029590930219909216939093179055600290819052600d90915260008051602062004cb48339815191528054600190811062000a9e5762000a9e62001c1c565b60009182526020808320818304018054601f9093166101000a60ff818102199094169590931692909202939093179055600d9091527f26b4a10d0f0b04925c23bd4480ee147c916e5e87a7d68206a533dad160ac81e28054600361ffff1991821617909155600482527fafafe8948a4ed9d478b1e9a5780b119b5edd00ea7d07bc35bef7c814824eb94b80549091166102041790557fafafe8948a4ed9d478b1e9a5780b119b5edd00ea7d07bc35bef7c814824eb94c80546002929062000b695762000b6962001c1c565b6000918252602080832081830401805460ff958616601f9094166101000a938402959093021990921693909317905560048152600d9091527fafafe8948a4ed9d478b1e9a5780b119b5edd00ea7d07bc35bef7c814824eb94c8054600190811062000bd85762000bd862001c1c565b60009182526020808320818304018054601f9093166101000a60ff81810219909416959093169290920293909317905560058152600d9091527fa5049387d9cb649c59f4bda666105ba636c2a103d8e2b232ba4d125737cd2149805461ffff191661010517905560008051602062004ab483398151915280546002929062000c645762000c6462001c1c565b6000918252602080832081830401805460ff958616601f9094166101000a938402959093021990921693909317905560058152600d90915260008051602062004ab48339815191528054600190811062000cc25762000cc262001c1c565b60009182526020808320818304018054601f9093166101000a60ff81810219909416959093169290920293909317905560068152600d9091527fa48544818c2c710afa9849c61ec9c60e8acdb3eaa2885f33b37e118cc8fd04ac805461ffff191661030617905560008051602062004c748339815191528054829062000d4c5762000d4c62001c1c565b6000918252602080832081830401805460ff958616601f9094166101000a938402959093021990921693909317905560069052600d905260008051602062004c748339815191528054600191908290811062000dac5762000dac62001c1c565b60009182526020808320818304018054601f9093166101000a60ff818102199094169590931692909202939093179055600d9091527fb91432bedff11256dbe14161d3606a2657bc9dacf8742f6b817d871dd53fb9768054600761ffff1991821617909155600882527f0b705463cf5f7356780ee6e96132d37412c1b5816a4d207b8dcd42c349767457805490911661020817905560008051602062004bf483398151915280546002929062000e665762000e6662001c1c565b6000918252602080832081830401805460ff958616601f9094166101000a938402959093021990921693909317905560088152600d90915260008051602062004bf48339815191528054600190811062000ec45762000ec462001c1c565b60009182526020808320818304018054601f9093166101000a60ff818102199094169590931692909202939093179055600d9091527f7b6f1ece0cbe5122a575776770f0494c2d57ed2a50e36c2ba0d811d70ee03b648054600961ffff1991821617909155600a82527fba9d637f252776d5e1b3534bbd7554a1265a4ef0539d9ca50abe118598a6973c805490911661020a17905560008051602062004c148339815191528054829062000f7c5762000f7c62001c1c565b6000918252602080832081830401805460ff958616601f9094166101000a9384029590930219909216939093179055600a9052600d905260008051602062004c14833981519152805460039190600190811062000fdd5762000fdd62001c1c565b60009182526020808320818304018054601f9093166101000a60ff818102199094169590931692909202939093179055600b8152600d9091527f52c2086a203f40e709b1346663401f6c737b2fce5878601fcf875b047fed5fb6805461ffff191661010b17905560008051602062004b148339815191528054829062001067576200106762001c1c565b6000918252602080832081830401805460ff958616601f9094166101000a9384029590930219909216939093179055600b9052600d905260008051602062004b148339815191528054600391906001908110620010c857620010c862001c1c565b60009182526020808320818304018054601f9093166101000a60ff818102199094169590931692909202939093179055600d918290527fe399baa2fabbab2a0309615b124a802277bab50ec0ca3452a00889e216c4b9028054600c61ffff19918216179091557fe0af3347aa7e5af384208c9d29458f902f0ceddbc90963608afa77235658b36080548216909317909255600e81527f154ef5b709dcdc8b49a2af6408b8a1af209c39b5fa796f03680257c97692546e805490921661020e1790915560008051602062004bb483398151915280548290620011ad57620011ad62001c1c565b6000918252602080832081830401805460ff958616601f9094166101000a9384029590930219909216939093179055600e9052600d905260008051602062004bb483398151915280546003919060019081106200120e576200120e62001c1c565b60009182526020808320818304018054601f9093166101000a60ff818102199094169590931692909202939093179055600d9091527f52fb6a28cb3c239105f8f829bc7376f939b6bfb040c470bdc2bda0af2e784b948054600f61ffff1991821617909155601082527f01a49be1e7ea084651fd665847100d28826db0b17160863a99534933cbbd2dce805490911661021017905560008051602062004b34833981519152805460039290620012c857620012c862001c1c565b6000918252602080832081830401805460ff958616601f9094166101000a938402959093021990921693909317905560109052600d905260008051602062004b348339815191528054600191908290811062001328576200132862001c1c565b60009182526020808320818304018054601f9093166101000a60ff81810219909416959093169290920293909317905560118152600d9091527f6fbf3b49b523bc27464b7dbfa6311951351b1d3efd07aa2ee4d1ce319801a0ce805461ffff191661011117905560008051602062004c34833981519152805460039290620013b457620013b462001c1c565b6000918252602080832081830401805460ff958616601f9094166101000a938402959093021990921693909317905560119052600d905260008051602062004c348339815191528054600191908290811062001414576200141462001c1c565b60009182526020808320818304018054601f9093166101000a60ff818102199094169590931692909202939093179055600d9091527f0a206051e911305809ddd48cf2baa7ead2c7fb038e505e1d02f9e6c2ce72930c805461ffff19166103121790556011815260008051602062004c34833981519152805460019290620014a057620014a062001c1c565b6000918252602080832081830401805460ff958616601f9094166101000a938402959093021990921693909317905560119052600d905260008051602062004c34833981519152805460039190600190811062001501576200150162001c1c565b6000918252602080832081830401805460ff958616601f9094166101000a9384029590930219909216939093179055600d9091527f1341e158d1184a2eb4edb96b016176e1c5ad075baae6651557fb93ae3925007a805461ffff199081166013179091557fdd2af3330d298808a303a10bc360333536e7697099bb3fe7200b0c272de66558805482166014179055601582527f35c0ef8c6f7488ebe28ad34a3af68b3aa3aea0693e227054e9ec90bd504f66d28054610215921691909117905560008051602062004b94833981519152805460019290620015e657620015e662001c1c565b6000918252602080832081830401805460ff958616601f9094166101000a938402959093021990921693909317905560159052600d905260008051602062004b94833981519152805460029190600190811062001647576200164762001c1c565b6000918252602080832081830401805460ff958616601f9094166101000a9384029590930219909216939093179055600d9091527ff8851ce6c4310b9be6bca97e0096f86a6320988daa397e63ba810d131bf2e104805461ffff1990811660161790915560178083527f61aa25cf391356ba640a4a503ee096a9320b1458703836411a4cfd64367cc406805490921617905560008051602062004b74833981519152805460039290620016fe57620016fe62001c1c565b6000918252602080832081830401805460ff958616601f9094166101000a938402959093021990921693909317905560179052600d905260008051602062004b74833981519152805460019190829081106200175e576200175e62001c1c565b6000918252602080832081830401805460ff958616601f9094166101000a93840295909302199092169390931790557f7168f6bbe73ace5e8cd185ae572d98139e24d2e7580b476484635c9f54ecf576805461ffff191660181790557f708af3637a57d6531c38e3c4583eeafa8c56b41340b2abffa2ccba77788205ce80546001600160401b031990811660329081179092557f9d7b4b86750ebdfb3286f1d6d6e10e6737ad0e2b51f87675faad0f7f4a752dff80548216601e9081179091557f6c1032f3a03883eb44928204d99058698a6a4063c0fee5f4077ad35871c61ae18054831660289081179091557fa5885a979809277f2296a51f707e49064a4aab7cb585309ac40b0d3b3d27eb0980548416603c9081179091557f0be1d78b9a29126ef62eafda7f94713338d9db6d05b6adf300ba51fcf54ab2058054851660469081179091557f3f0de5f588fbef817ef65b9f218ab58bb698b8aa57f27a1374050e494f1c6787805486169096179095557f1061b5517c6e1813fa4a07d1613ee4384e750538d69c4513a8df591da5f938ac805485169093179092557f35ac6e3f5d662ce5e5646170c540f4363ae8e58a5f27a153e746ced9ed5d3a6a8054841690911790557f27ecb3381e588894c8c3289f7225118941ced1dba06d926a22dc78e1f95b879080548316909117905560049092527f8c6065603763fec3f5742441d3833f3f43b982453612d76adb39a885e3006b5f9092527f79770c9b7871c6f48a4ee7f11b62a97cc89b020ba23b8e44b340b9b9577fc0f6805490911690911790555062001c3292505050565b600080546001600160a01b038381166001600160a01b0319831681178455604051919092169283917f8be0079c531659141344cd1fd0a4f28419497f9722a3daafe3b4186f6b6457e09190a35050565b82805482825590600052602060002090601f0160209004810192821562001a995791602002820160005b8382111562001a6857835183826101000a81548160ff021916908360ff160217905550926020019260010160208160000104928301926001030262001a28565b801562001a975782816101000a81549060ff021916905560010160208160000104928301926001030262001a68565b505b5062001aa792915062001b51565b5090565b8280548282559060005260206000209060030160049004810192821562001a995791602002820160005b8382111562001b1c57835183826101000a8154816001600160401b03021916908361ffff160217905550926020019260080160208160070104928301926001030262001ad5565b801562001a975782816101000a8154906001600160401b03021916905560080160208160070104928301926001030262001b1c565b5b8082111562001aa7576000815560010162001b52565b60006001600160401b0382811684821680830382111562001b9957634e487b7160e01b600052601160045260246000fd5b01949350505050565b80516001600160a01b038116811462001bba57600080fd5b919050565b6000806000806080858703121562001bd657600080fd5b62001be18562001ba2565b935062001bf16020860162001ba2565b925062001c016040860162001ba2565b915062001c116060860162001ba2565b905092959194509250565b634e487b7160e01b600052603260045260246000fd5b612e728062001c426000396000f3fe608060405234801561001057600080fd5b506004361061027f5760003560e01c8063764733831161015c578063d1682760116100ce578063ec21475811610087578063ec21475814610638578063f23a6e611461069e578063f2fde38b146106d7578063f862af8f146106ea578063fa5f68c9146106fd578063fc157cb41461044d57600080fd5b8063d1682760146105af578063d999171b146105c2578063ddf134d3146105d5578063e2991024146105e8578063e2eb41ff146105fb578063e30c10711461062457600080fd5b8063a66e340011610120578063a66e3400146104db578063a66f2a42146104ee578063ab91fc6914610501578063bc197c8114610535578063becd7e2214610589578063c324965b1461059c57600080fd5b806376473383146104915780637c695384146104a45780637fec8d38146102cb57806387fad4e3146104b75780638da5cb5b146104ca57600080fd5b806344dea5a7116101f55780634e71d92d116101b95780634e71d92d146104325780634efefef71461043a5780635800ba111461044d5780636d1cd37814610456578063715018a614610476578063719e1b771461047e57600080fd5b806344dea5a7146103b2578063463a9d85146103c557806346904840146103f75780634c5be5741461040a5780634c5eb27e1461041f57600080fd5b806323ca07471161024757806323ca0747146103235780632ab12c0214610343578063335b6b9d146103565780633bba6a36146103675780633d2aee711461037a5780633d82b5f31461038d57600080fd5b806301ffc9a71461028457806303b67592146102ac5780630e02dcd6146102c3578063112a322c146102cd5780631be22b1e146102f8575b600080fd5b6102976102923660046123a4565b61072b565b60405190151581526020015b60405180910390f35b6102b560085481565b6040519081526020016102a3565b6102cb61073c565b005b6102b56102db3660046123f9565b600a60209081526000928352604080842090915290825290205481565b61030b610306366004612430565b6109b8565b6040516001600160a01b0390911681526020016102a3565b61033661033136600461245c565b6109f0565b6040516102a39190612477565b6102cb61035136600461245c565b610bd5565b6102cb6103643660046124aa565b50565b60015461030b906001600160a01b031681565b6102cb61038836600461245c565b610c21565b6103a061039b36600461245c565b610c6d565b60405160ff90911681526020016102a3565b60045461030b906001600160a01b031681565b6004546103df90600160a01b90046001600160401b031681565b6040516001600160401b0390911681526020016102a3565b60115461030b906001600160a01b031681565b610412610e2c565b6040516102a39190612502565b6005546103df906001600160401b031681565b6102cb61109a565b6102b56104483660046125ee565b611262565b6102b56103e881565b6102b56104643660046124aa565b60096020526000908152604090205481565b6102cb611451565b6102b561048c366004612651565b611487565b60025461030b906001600160a01b031681565b6102cb6104b2366004612430565b6114a8565b6102cb6104c536600461266a565b611658565b6000546001600160a01b031661030b565b61030b6104e93660046126f2565b611b04565b6102cb6104fc366004612729565b611b2c565b6103df61050f366004612746565b60106020908152600092835260408084209091529082529020546001600160401b031681565b6105706105433660046127f0565b7fbc197c819b3e337a6f9652dd10becd7eef83032af3b9d958d3d42f669414662198975050505050505050565b6040516001600160e01b031990911681526020016102a3565b6102cb6105973660046124aa565b611bd5565b6102cb6105aa36600461245c565b611db8565b6103a06105bd36600461245c565b611e04565b6102b56105d036600461245c565b611eed565b6103a06105e33660046128aa565b612008565b6103df6105f63660046128aa565b612058565b61060e61060936600461245c565b6120b1565b6040516102a39a999897969594939291906128eb565b61029761063236600461245c565b50600190565b6106756106463660046124aa565b600d602052600090815260409020805460029091015460ff80831692610100900416906001600160401b031683565b6040805160ff94851681529390921660208401526001600160401b0316908201526060016102a3565b6105706106ac366004612988565b7ff23a6e612e1ff4830e658fe43f4e3cb4a5f8170bd5d9e69fb5d7a7fa9e4fdf979695505050505050565b6102cb6106e536600461245c565b6121de565b60035461030b906001600160a01b031681565b61071461070b3660046129ff565b50600091829150565b6040805192151583526020830191909152016102a3565b600061073682612276565b92915050565b6005546001600160401b03164210156107705760405162461bcd60e51b815260040161076790612a40565b60405180910390fd5b60008060005b60048160ff1610156107e3578160078260ff168154811061079957610799612a70565b906000526020600020015411156107d15760078160ff16815481106107c0576107c0612a70565b906000526020600020015491508092505b806107db81612a9c565b915050610776565b50336000908152600a6020908152604080832060ff861684529091529020548061083a5760405162461bcd60e51b81526020600482015260086024820152674e6f20626f6e757360c01b6044820152606401610767565b60ff831660009081526009602052604081205460085461086691906108609085906122ab565b906122be565b6004549091506001600160a01b031663a9059cbb3361088b606461086086605a6122ab565b6040516001600160e01b031960e085901b1681526001600160a01b0390921660048301526024820152604401602060405180830381600087803b1580156108d157600080fd5b505af11580156108e5573d6000803e3d6000fd5b505050506040513d601f19601f820116820180604052508101906109099190612abc565b506004546011546001600160a01b039182169163a9059cbb9116610933606461086086600a6122ab565b6040516001600160e01b031960e085901b1681526001600160a01b0390921660048301526024820152604401602060405180830381600087803b15801561097957600080fd5b505af115801561098d573d6000803e3d6000fd5b505050506040513d601f19601f820116820180604052508101906109b19190612abc565b5050505050565b600e60205281600052604060002081815481106109d457600080fd5b6000918252602090912001546001600160a01b03169150829050565b6109f8612326565b6001600160a01b0382166000908152600f6020526040902060010154600160401b90046001600160401b0316421015610a3057919050565b6000610a3b83611e04565b60ff8082166000908152600d6020526040902054919250601891161115610a625750919050565b60ff8181166000908152600d60205260409020541660181415610a955760018260045b9115156020909202015250919050565b60ff8082166000908152600d6020526040902054610100900416610abd576001826000610a85565b60ff8082166000908152600d602052604090205461010090041660011415610af95760018260005b911515602090920201526001826002610a85565b60ff8181166000908152600d602052604090205461010090041660021415610ba35760ff81166000908152600d602052604081206001018054909190610b4157610b41612a70565b6000918252602080832081830401546001600160a01b0387168452600f909152604090922054601f9091166101000a90910460ff90811691161415610b8a576001826000610ae5565b60018260005b9115156020909202015260018281610ae5565b60ff8181166000908152600d602052604090205461010090041660031415610bcf576001826000610b90565b50919050565b6000546001600160a01b03163314610bff5760405162461bcd60e51b815260040161076790612ade565b600280546001600160a01b0319166001600160a01b0392909216919091179055565b6000546001600160a01b03163314610c4b5760405162461bcd60e51b815260040161076790612ade565b600380546001600160a01b0319166001600160a01b0392909216919091179055565b6001600160a01b0381166000908152600f60205260408120546301000000900460ff16158015610cc057506001600160a01b0382166000908152600f60205260409020546601000000000000900460ff16155b15610ccd57506064919050565b6001600160a01b0382166000908152600f602090815260408083205460ff808216808652600b85528386206101008404831680885295529290942080549294620100009092049091169182908110610d2757610d27612a70565b90600052602060002090602091828204019190069054906101000a900460ff1660ff1660181415610d5d57506064949350505050565b6001600160a01b0385166000908152600f6020526040902060010154600160401b90046001600160401b0316421115610df75760ff8084166000908152600b60209081526040808320938616835292905220610dba826001612b13565b60ff1681548110610dcd57610dcd612a70565b90600052602060002090602091828204019190069054906101000a900460ff169350505050919050565b60ff8084166000908152600b6020908152604080832086851684529091529020805490918316908110610dcd57610dcd612a70565b600080526009602052600080516020612dbd83398151915254606090610eb490610e579060016122ca565b6009602052600080516020612dfd83398151915254600080516020612ddd833981519152546001600052600080516020612e1d83398151915254610860926064929091610ea49190612b38565b610eae9190612b38565b906122ab565b81600081518110610ec757610ec7612a70565b602090810291909101810191909152600160008190526009909152600080516020612e1d83398151915254610f4c91610f0091906122ca565b6009602052600080516020612dfd83398151915254600080516020612ddd8339815191525460008052600080516020612dbd83398151915254610860926064929091610ea49190612b38565b81600181518110610f5f57610f5f612a70565b602090810291909101810191909152600260005260099052600080516020612ddd83398151915254610fe290610f969060016122ca565b6009602052600080516020612dfd83398151915254600080516020612e1d8339815191525460008052600080516020612dbd83398151915254610860926064929091610ea49190612b38565b81600281518110610ff557610ff5612a70565b602090810291909101810191909152600360005260099052600080516020612dfd833981519152546110789061102c9060016122ca565b6009602052600080516020612ddd83398151915254600080516020612e1d8339815191525460008052600080516020612dbd83398151915254610860926064929091610ea49190612b38565b8160038151811061108b5761108b612a70565b60200260200101818152505090565b6005546001600160401b03164210156110c55760405162461bcd60e51b815260040161076790612a40565b60005b336000908152600f602052604090206003015460ff8216101561119357600154336000818152600f6020526040902060030180546001600160a01b03909316926323b872dd923092909160ff871690811061112557611125612a70565b90600052602060002001546040518463ffffffff1660e01b815260040161114e93929190612b50565b600060405180830381600087803b15801561116857600080fd5b505af115801561117c573d6000803e3d6000fd5b50505050808061118b90612a9c565b9150506110c8565b5060005b336000908152600f602052604090206004015460ff8216101561036457600154336000818152600f6020526040902060040180546001600160a01b03909316926323b872dd923092909160ff87169081106111f4576111f4612a70565b90600052602060002001546040518463ffffffff1660e01b815260040161121d93929190612b50565b600060405180830381600087803b15801561123757600080fd5b505af115801561124b573d6000803e3d6000fd5b50505050808061125a90612a9c565b915050611197565b600060058351111561127357600080fd5b6000805b84518160ff1610156113575760015485516000916001600160a01b0316906321d8011190889060ff86169081106112b0576112b0612a70565b60200260200101516040518263ffffffff1660e01b81526004016112d691815260200190565b6102206040518083038186803b1580156112ef57600080fd5b505afa158015611303573d6000803e3d6000fd5b505050506040513d601f19601f820116820180604052508101906113279190612c00565b9050611341816101600151846122ca90919063ffffffff16565b925050808061134f90612a9c565b915050611277565b5060005b83518160ff16101561143b5760015484516000916001600160a01b0316906321d8011190879060ff861690811061139457611394612a70565b60200260200101516040518263ffffffff1660e01b81526004016113ba91815260200190565b6102206040518083038186803b1580156113d357600080fd5b505afa1580156113e7573d6000803e3d6000fd5b505050506040513d601f19601f8201168201806040525081019061140b9190612c00565b9050611425816101600151846122ca90919063ffffffff16565b925050808061143390612a9c565b91505061135b565b5061144981620186a06122be565b949350505050565b6000546001600160a01b0316331461147b5760405162461bcd60e51b815260040161076790612ade565b61148560006122d6565b565b6007818154811061149757600080fd5b600091825260209091200154905081565b60048260ff16106114b857600080fd5b600480546040516323b872dd60e01b81526001600160a01b03909116916323b872dd916114eb9133913091879101612b50565b602060405180830381600087803b15801561150557600080fd5b505af1158015611519573d6000803e3d6000fd5b505050506040513d601f19601f8201168201806040525081019061153d9190612abc565b61154657600080fd5b60045461156690600160a01b90046001600160401b03166203f480612cf3565b6001600160401b031642106115cb5760405162461bcd60e51b815260206004820152602560248201527f426574206f6e6c79206f70656e20696e20746865206669727374207468726565604482015264206461797360d81b6064820152608401610767565b336000908152600a6020908152604080832060ff861684529091529020546115f390826122ca565b336000908152600a6020908152604080832060ff8716845290915290205560085461161e90826122ca565b60085560ff821660009081526009602052604090205461163e90826122ca565b60ff90921660009081526009602052604090209190915550565b60048460ff161061166857600080fd5b600582511115801561167d575060028360ff16105b61168657600080fd5b336000908152600f60205260409020546301000000900460ff16156116aa57600080fd5b6000805b83518160ff1610156118185760015484516001600160a01b03909116906323b872dd9033903090889060ff87169081106116ea576116ea612a70565b60200260200101516040518463ffffffff1660e01b815260040161171093929190612b50565b600060405180830381600087803b15801561172a57600080fd5b505af115801561173e573d6000803e3d6000fd5b50506001548651600093506001600160a01b0390911691506321d8011190879060ff861690811061177157611771612a70565b60200260200101516040518263ffffffff1660e01b815260040161179791815260200190565b6102206040518083038186803b1580156117b057600080fd5b505afa1580156117c4573d6000803e3d6000fd5b505050506040513d601f19601f820116820180604052508101906117e89190612c00565b9050611802816101600151846122ca90919063ffffffff16565b925050808061181090612a9c565b9150506116ae565b5060005b82518160ff1610156119865760015483516001600160a01b03909116906323b872dd9033903090879060ff871690811061185857611858612a70565b60200260200101516040518463ffffffff1660e01b815260040161187e93929190612b50565b600060405180830381600087803b15801561189857600080fd5b505af11580156118ac573d6000803e3d6000fd5b50506001548551600093506001600160a01b0390911691506321d8011190869060ff86169081106118df576118df612a70565b60200260200101516040518263ffffffff1660e01b815260040161190591815260200190565b6102206040518083038186803b15801561191e57600080fd5b505afa158015611932573d6000803e3d6000fd5b505050506040513d601f19601f820116820180604052508101906119569190612c00565b9050611970816101600151846122ca90919063ffffffff16565b925050808061197e90612a9c565b91505061181c565b50336000908152600f60209081526040808320805460ff8a811661ffff199092168217610100918b169182021763ffff000019166314000000178355600190920180546001600160401b03421667ffffffffffffffff199091161790558452600c83528184209084529091528120805460149290611a0657611a06612a70565b90600052602060002090600491828204019190066008029054906101000a90046001600160401b0316610e10611a3c9190612d1e565b611a469190612d63565b611a509042612cf3565b336000908152600f602090815260409091206001810180546001600160401b0394909416600160401b0267ffffffffffffffff60401b19909416939093179092558451611aa39260030191860190612344565b50336000908152600f602090815260409091208351611aca92600490920191850190612344565b50505060ff9092166000908152600e602090815260408220805460018101825590835291200180546001600160a01b031916331790555050565b60068281548110611b1457600080fd5b9060005260206000200181815481106109d457600080fd5b6000546001600160a01b03163314611b565760405162461bcd60e51b815260040161076790612ade565b600454600160a01b90046001600160401b031615611ba85760405162461bcd60e51b815260206004820152600f60248201526e105b1c9958591e481cdd185c9d1959608a1b6044820152606401610767565b600480546001600160401b03909216600160a01b0267ffffffffffffffff60a01b19909216919091179055565b6000611be0336109f0565b9050808260ff1660058110611bf757611bf7612a70565b6020020151611c3e5760405162461bcd60e51b8152602060048201526013602482015272111958da5cda5bdb881a5cc81a5b9d985b1a59606a1b6044820152606401610767565b6000611c4933611e04565b905060ff8316611db357336000908152600f6020526040902054611c779062010000900460ff166001612b13565b336000908152600f60205260409020805460ff92909216620100000262ff00001990921691909117815560018101805467ffffffffffffffff1916426001600160401b038181169290921790925560029092015490911611611cd857505050565b336000818152600f602081815260408084205460ff8082168652600c8452828620610100830482168752845291852095909452919052825460149392620100009004909116908110611d2c57611d2c612a70565b90600052602060002090600491828204019190066008029054906101000a90046001600160401b0316610e10611d629190612d1e565b611d6c9190612d63565b611d769042612cf3565b336000908152600f6020526040902060010180546001600160401b0392909216600160401b0267ffffffffffffffff60401b199092169190911790555b505050565b6000546001600160a01b03163314611de25760405162461bcd60e51b815260040161076790612ade565b600180546001600160a01b0319166001600160a01b0392909216919091179055565b6001600160a01b0381166000908152600f60205260408120546301000000900460ff16611e3357506064919050565b6001600160a01b0382166000908152600f602090815260408083205460ff808216808652600b85528386206101008404831680885295529290942080549294620100009092049091169182908110611e8d57611e8d612a70565b90600052602060002090602091828204019190069054906101000a900460ff1660ff1660181415611ec357506064949350505050565b60ff8084166000908152600b60209081526040808320938616835292905220610dba826001612b13565b6005546000906001600160401b0316421015611f1b5760405162461bcd60e51b815260040161076790612a40565b60008060005b60048160ff161015611f8e578160078260ff1681548110611f4457611f44612a70565b90600052602060002001541115611f7c5760078160ff1681548110611f6b57611f6b612a70565b906000526020600020015491508092505b80611f8681612a9c565b915050611f21565b506001600160a01b0384166000908152600a6020908152604080832060ff8616845290915290205480611fc657506000949350505050565b60ff8316600090815260096020526040812054600854611fec91906108609085906122ab565b9050611ffe606461086083605a6122ab565b9695505050505050565b600b602052826000526040600020602052816000526040600020818154811061203057600080fd5b906000526020600020906020918282040191900692509250509054906101000a900460ff1681565b600c602052826000526040600020602052816000526040600020818154811061208057600080fd5b906000526020600020906004918282040191900660080292509250509054906101000a90046001600160401b031681565b600f6020908152600091825260409182902080548351600583018054606095810283018601875295820186815260ff808516976101008604821697620100008704831697630100000088048416976401000000008104851697650100000000008204861697660100000000000083048716976701000000000000008404881697600160401b9094049093169593949193909284929091849184018282801561217857602002820191906000526020600020905b815481526020019060010190808311612164575b50505050508152602001600182018054806020026020016040519081016040528092919081815260200182805480156121d057602002820191906000526020600020905b8154815260200190600101908083116121bc575b50505050508152505090508a565b6000546001600160a01b031633146122085760405162461bcd60e51b815260040161076790612ade565b6001600160a01b03811661226d5760405162461bcd60e51b815260206004820152602660248201527f4f776e61626c653a206e6577206f776e657220697320746865207a65726f206160448201526564647265737360d01b6064820152608401610767565b610364816122d6565b60006001600160e01b03198216630271189760e51b148061073657506301ffc9a760e01b6001600160e01b0319831614610736565b60006122b78284612d89565b9392505050565b60006122b78284612da8565b60006122b78284612b38565b600080546001600160a01b038381166001600160a01b0319831681178455604051919092169283917f8be0079c531659141344cd1fd0a4f28419497f9722a3daafe3b4186f6b6457e09190a35050565b6040518060a001604052806005906020820280368337509192915050565b82805482825590600052602060002090810192821561237f579160200282015b8281111561237f578251825591602001919060010190612364565b5061238b92915061238f565b5090565b5b8082111561238b5760008155600101612390565b6000602082840312156123b657600080fd5b81356001600160e01b0319811681146122b757600080fd5b80356001600160a01b03811681146123e557600080fd5b919050565b60ff8116811461036457600080fd5b6000806040838503121561240c57600080fd5b612415836123ce565b91506020830135612425816123ea565b809150509250929050565b6000806040838503121561244357600080fd5b823561244e816123ea565b946020939093013593505050565b60006020828403121561246e57600080fd5b6122b7826123ce565b60a08101818360005b60058110156124a15781511515835260209283019290910190600101612480565b50505092915050565b6000602082840312156124bc57600080fd5b81356122b7816123ea565b600081518084526020808501945080840160005b838110156124f7578151875295820195908201906001016124db565b509495945050505050565b6020815260006122b760208301846124c7565b634e487b7160e01b600052604160045260246000fd5b6040516101a081016001600160401b038111828210171561254e5761254e612515565b60405290565b600082601f83011261256557600080fd5b813560206001600160401b038083111561258157612581612515565b8260051b604051601f19603f830116810181811084821117156125a6576125a6612515565b6040529384528581018301938381019250878511156125c457600080fd5b83870191505b848210156125e3578135835291830191908301906125ca565b979650505050505050565b6000806040838503121561260157600080fd5b82356001600160401b038082111561261857600080fd5b61262486838701612554565b9350602085013591508082111561263a57600080fd5b5061264785828601612554565b9150509250929050565b60006020828403121561266357600080fd5b5035919050565b6000806000806080858703121561268057600080fd5b843561268b816123ea565b9350602085013561269b816123ea565b925060408501356001600160401b03808211156126b757600080fd5b6126c388838901612554565b935060608701359150808211156126d957600080fd5b506126e687828801612554565b91505092959194509250565b6000806040838503121561270557600080fd5b50508035926020909101359150565b6001600160401b038116811461036457600080fd5b60006020828403121561273b57600080fd5b81356122b781612714565b6000806040838503121561275957600080fd5b8235612415816123ea565b60008083601f84011261277657600080fd5b5081356001600160401b0381111561278d57600080fd5b6020830191508360208260051b85010111156127a857600080fd5b9250929050565b60008083601f8401126127c157600080fd5b5081356001600160401b038111156127d857600080fd5b6020830191508360208285010111156127a857600080fd5b60008060008060008060008060a0898b03121561280c57600080fd5b612815896123ce565b975061282360208a016123ce565b965060408901356001600160401b038082111561283f57600080fd5b61284b8c838d01612764565b909850965060608b013591508082111561286457600080fd5b6128708c838d01612764565b909650945060808b013591508082111561288957600080fd5b506128968b828c016127af565b999c989b5096995094979396929594505050565b6000806000606084860312156128bf57600080fd5b83356128ca816123ea565b925060208401356128da816123ea565b929592945050506040919091013590565b600061014060ff808e168452808d166020850152808c166040850152808b166060850152808a16608085015280891660a085015280881660c085015280871660e0850152808616610100850152508061012084015283516040828501526129566101808501826124c7565b915050602084015161013f198483030161016085015261297682826124c7565b9e9d5050505050505050505050505050565b60008060008060008060a087890312156129a157600080fd5b6129aa876123ce565b95506129b8602088016123ce565b9450604087013593506060870135925060808701356001600160401b038111156129e157600080fd5b6129ed89828a016127af565b979a9699509497509295939492505050565b60008060208385031215612a1257600080fd5b82356001600160401b03811115612a2857600080fd5b612a3485828601612764565b90969095509350505050565b6020808252601690820152752a3432903130ba3a36329034b9903737ba1037bb32b960511b604082015260600190565b634e487b7160e01b600052603260045260246000fd5b634e487b7160e01b600052601160045260246000fd5b600060ff821660ff811415612ab357612ab3612a86565b60010192915050565b600060208284031215612ace57600080fd5b815180151581146122b757600080fd5b6020808252818101527f4f776e61626c653a2063616c6c6572206973206e6f7420746865206f776e6572604082015260600190565b600060ff821660ff84168060ff03821115612b3057612b30612a86565b019392505050565b60008219821115612b4b57612b4b612a86565b500190565b6001600160a01b039384168152919092166020820152604081019190915260600190565b80516123e5816123ea565b80516123e581612714565b600082601f830112612b9b57600080fd5b60405160a081018181106001600160401b0382111715612bbd57612bbd612515565b6040528060a0840185811115612bd257600080fd5b845b81811015612bf5578051612be781612714565b835260209283019201612bd4565b509195945050505050565b60006102208284031215612c1357600080fd5b612c1b61252b565b82518152612c2b60208401612b74565b6020820152612c3c60408401612b74565b6040820152612c4d60608401612b74565b6060820152612c5e60808401612b74565b6080820152612c6f60a08401612b74565b60a0820152612c8060c08401612b74565b60c0820152612c9160e08401612b74565b60e0820152610100612ca4818501612b7f565b90820152610120612cb6848201612b7f565b90820152610140612cc985858301612b8a565b908201526101e0830151610160820152612ce66102008401612b74565b6101808201529392505050565b60006001600160401b03808316818516808303821115612d1557612d15612a86565b01949350505050565b60006001600160401b0380831681851681830481118215151615612d4457612d44612a86565b02949350505050565b634e487b7160e01b600052601260045260246000fd5b60006001600160401b0380841680612d7d57612d7d612d4d565b92169190910492915050565b6000816000190483118215151615612da357612da3612a86565b500290565b600082612db757612db7612d4d565b50049056feec8156718a8372b1db44bb411437d0870f3e3790d4a08526d024ce1b0b668f6b6cde3cea4b3a3fb2488b2808bae7556f4a405e50f65e1794383bc026131b13c3c575c31fea594a6eb97c8e9d3f9caee4c16218c6ef37e923234c0fe9014a61e792e85d02570a8092d09a6e3a57665bc3815a2699a4074001bf1ccabf660f5a36a26469706673582212208ddeb41454fc83ae171801ef5617cec0804d03cefd9f28d202ff8bb2f6356a9b64736f6c63430008090033a5049387d9cb649c59f4bda666105ba636c2a103d8e2b232ba4d125737cd214aa50eece07c7db1631545c0069bd8f5f54d5935e215d59097edf258a44ba91634d421a5181c571bba3f01190c922c3b2a896fc1d84e86c9f17ac10e67ebef8b5c52c2086a203f40e709b1346663401f6c737b2fce5878601fcf875b047fed5fb701a49be1e7ea084651fd665847100d28826db0b17160863a99534933cbbd2dcfdf7de25b7f1fd6d0b5205f0e18f1f35bd7b8d84cce336588d184533ce43a6f7661aa25cf391356ba640a4a503ee096a9320b1458703836411a4cfd64367cc40735c0ef8c6f7488ebe28ad34a3af68b3aa3aea0693e227054e9ec90bd504f66d3154ef5b709dcdc8b49a2af6408b8a1af209c39b5fa796f03680257c97692546f5d6016397a73f5e079297ac5a36fef17b4d9c3831618e63ab105738020ddd7200b705463cf5f7356780ee6e96132d37412c1b5816a4d207b8dcd42c349767458ba9d637f252776d5e1b3534bbd7554a1265a4ef0539d9ca50abe118598a6973d6fbf3b49b523bc27464b7dbfa6311951351b1d3efd07aa2ee4d1ce319801a0cfc0da782485e77ae272268ae0a3ff44c1552ecb60b3743924de17a815e0a3cfd7a48544818c2c710afa9849c61ec9c60e8acdb3eaa2885f33b37e118cc8fd04ad72c6bfb7988af3a1efa6568f02a999bc52252641c659d85961ca3d372b57d5cf10a81eed9d63d16face5e76357905348e6253d3394086026bb2bf2145d7cc24a",
  "immutableReferences": {},
  "source": "// SPDX-License-Identifier: SimPL-2.0\n\npragma solidity ^0.8.0;\npragma experimental ABIEncoderV2;\n\nimport \"./RichShop.sol\";\nimport \"./BattleShop.sol\";\nimport \"./RichHero.sol\";\n\nimport \"@openzeppelin/contracts/access/Ownable.sol\";\nimport \"@openzeppelin/contracts/access/AccessControl.sol\";\nimport \"@openzeppelin/contracts/token/ERC20/IERC20.sol\";\nimport \"@openzeppelin/contracts/token/ERC1155/IERC1155.sol\";\nimport \"@openzeppelin/contracts/token/ERC1155/utils/ERC1155Receiver.sol\";\n\nimport \"@openzeppelin/contracts/utils/Address.sol\";\nimport \"@openzeppelin/contracts/utils/math/SafeMath.sol\";\n\n/**\n* @title Battle - Romance of the Three Kingdoms Battle\n*\n*\n* Docs: \n*\n* Version v1.1.0\n*\n*/\n\ncontract Battle is Ownable, ERC1155Receiver {\n    using SafeMath for uint256;\n\n    uint256 public constant PCT_BASE = 1000;\n    uint256 public constant RAND_BASE = 1000;\n\n    struct Addition {\n        uint256[] buff; // (...)  0: 1: 2: 3: 4: 5:\n        uint256[] debuff;//   0: 1: 2: 3: 4: 5:\n    }\n\n    struct PlayerInfo {\n        uint8 camp; //\n        uint8 road; //\n        uint8 currentStep; //\n        uint8 baseSpeed; //\n        uint8 speedBuffType; //buff / 0: 1: 2:\n        uint8 additionSpeed; // / \n        uint8 state; // 0: 1: 2: 3:\n        uint8 lastEvent;//\n        uint8 lastBuffId;//\n        uint64[5] times; //0,1,2,3,4,5\n        uint256[] commonTokenIds; //\n        uint256[] goldenTokenIds; //\n        Addition addition; // \n    }\n\n    struct Node {\n        uint8 nodeId; //id\n        uint8 nodeType; //0:  1:     2:  3:\n        uint8[] camps; //camps[0] camps[1]  camps[0]\n        uint64 nowConflictStartTime; //\n        mapping(uint8 => address[]) inConflictsPlayers; // \n        mapping(uint8 => address[]) inNodePlayers; // \n    }\n\n    RichHero public HERO; \n    RichShop public RICHSHOP; \n    BattleShop public BATTLESHOP; \n    IERC20 public MMC;\n\n    uint64 public battleStartTime;\n    uint64 public battleEndTime = battleStartTime + 7 days;\n    uint64 confilctLastTime = 5 hours;\n    uint64 surrenderAddition = 999;\n\n    address[][] public arriveAddress;\n    uint256[] public arrivePower;\n    \n    uint256 public totalBetPool = 100000e18;\n    mapping (uint8 => uint256) public campPool;\n    mapping (address => mapping(uint8 => uint256)) public betInfos;\n\n    mapping (uint8 => mapping(uint8 => uint8[])) public roadMap; // camp => roadId => roadMap\n    mapping (uint8 => mapping(uint8 => uint64[])) public distance; // camp => roadId => distance\n    mapping (uint8 => Node) public nodeInfo; //nodeId => nodeInfo;\n    mapping (uint8 => address[]) public campPlayers; //camp => addresses;\n    mapping (address => PlayerInfo) public players; //address => playerInfo;\n\n    mapping (uint8 => mapping(uint8 => uint64)) public randomEvent; //add/sub => properties => percentage; /0 1 =  = \n\n    address public feeRecipient = 0x8F3b8f3046dEb7C4E227dC0c6379051755Ba3142;\n\n    constructor(address nft, address richShop, address battleShop, address mmc) {\n        HERO = RichHero(nft);\n        RICHSHOP = RichShop(richShop);\n        BATTLESHOP = BattleShop(battleShop);\n        MMC = IERC20(mmc);\n        \n        roadMap[0][0] = [7, 8, 5, 6, 24]; \n        distance[0][0] = [100, 0, 300, 600];\n\n        roadMap[0][1] = [7, 9, 10, 11, 12, 24];\n        distance[0][1] = [100, 200, 0, 300, 400];\n\n        roadMap[1][0] = [19, 20, 21, 2, 24];\n        distance[1][0] = [100, 200, 0, 700];\n\n        roadMap[1][1] = [19, 23, 17, 18, 24];\n        distance[1][1] = [100, 0, 200, 700];\n\n        roadMap[2][0] = [0, 1, 2, 6, 24];\n        distance[2][0] = [100, 0, 200, 700];\n\n        roadMap[2][1] = [0, 3, 4, 5, 6, 24];\n        distance[2][1] = [100, 200, 0, 300, 400];\n\n        roadMap[3][0] = [13, 14, 11, 15, 24];\n        distance[3][0] = [100, 0, 200, 700];\n\n        roadMap[3][1] = [13, 16, 17, 18, 24];\n        distance[3][1] = [100, 0, 200, 700];\n\n        // 0:  1:     2:  3:\n        nodeInfo[0].nodeId = 0; //\n        nodeInfo[0].nodeType = 0; //\n\n        nodeInfo[1].nodeId = 1; //\n        nodeInfo[1].nodeType = 2; //\n        nodeInfo[1].camps[0] = 1; //\n        nodeInfo[1].camps[1] = 2; //        \n\n        nodeInfo[2].nodeId = 2; //\n        nodeInfo[2].nodeType = 1; //\n        nodeInfo[2].camps[0] = 1; //\n        nodeInfo[2].camps[1] = 2; //\n\n        nodeInfo[3].nodeId = 3; //\n        nodeInfo[3].nodeType = 0; //\n\n        nodeInfo[4].nodeId = 4; //\n        nodeInfo[4].nodeType = 2; //\n        nodeInfo[4].camps[0] = 2; //\n        nodeInfo[4].camps[1] = 0; //\n\n        nodeInfo[5].nodeId = 5; //\n        nodeInfo[5].nodeType = 1; //\n        nodeInfo[5].camps[0] = 2; //\n        nodeInfo[5].camps[1] = 0; //\n\n        nodeInfo[6].nodeId = 6; //\n        nodeInfo[6].nodeType = 3; //\n        nodeInfo[6].camps[0] = 0; //\n        nodeInfo[6].camps[1] = 1; //\n\n        nodeInfo[7].nodeId = 7; //\n        nodeInfo[7].nodeType = 0;//\n\n        nodeInfo[8].nodeId = 8; //\n        nodeInfo[8].nodeType = 2;//\n        nodeInfo[8].camps[0] = 2; //\n        nodeInfo[8].camps[1] = 0; //\n\n        nodeInfo[9].nodeId = 9; //\n        nodeInfo[9].nodeType = 0;//\n\n        nodeInfo[10].nodeId = 10;//\n        nodeInfo[10].nodeType = 2;//\n        nodeInfo[10].camps[0] = 0; //\n        nodeInfo[10].camps[1] = 3; //\n\n        nodeInfo[11].nodeId = 11;  //\n        nodeInfo[11].nodeType = 1; //\n        nodeInfo[11].camps[0] = 0; //\n        nodeInfo[11].camps[1] = 3; //\n\n        nodeInfo[12].nodeId = 12;  //\n        nodeInfo[12].nodeType = 0; //\n\n        nodeInfo[13].nodeId = 13; //\n        nodeInfo[13].nodeType = 0; //\n\n        nodeInfo[14].nodeId = 14; //\n        nodeInfo[14].nodeType = 2; //\n        nodeInfo[14].camps[0] = 0; //\n        nodeInfo[14].camps[1] = 3; //\n\n        nodeInfo[15].nodeId = 15; //\n        nodeInfo[15].nodeType = 0; //\n\n        nodeInfo[16].nodeId = 16; //\n        nodeInfo[16].nodeType = 2; //\n        nodeInfo[16].camps[0] = 3; //\n        nodeInfo[16].camps[1] = 1; //\n\n        nodeInfo[17].nodeId = 17; //\n        nodeInfo[17].nodeType = 1; //\n        nodeInfo[17].camps[0] = 3; //\n        nodeInfo[17].camps[1] = 1; //\n\n        nodeInfo[18].nodeId = 18; //\n        nodeInfo[18].nodeType = 3; //\n        nodeInfo[17].camps[0] = 1; //\n        nodeInfo[17].camps[1] = 3; //\n\n        nodeInfo[19].nodeId = 19; //\n        nodeInfo[19].nodeType = 0; //\n \n        nodeInfo[20].nodeId = 20; //\n        nodeInfo[20].nodeType = 0; //\n\n        nodeInfo[21].nodeId = 21; //\n        nodeInfo[21].nodeType = 2; //\n        nodeInfo[21].camps[0] = 1; //\n        nodeInfo[21].camps[1] = 2; //\n\n        nodeInfo[22].nodeId = 22; //\n        nodeInfo[22].nodeType = 0; //\n\n        nodeInfo[23].nodeId = 23; //\n        nodeInfo[23].nodeType = 0; //\n        nodeInfo[23].camps[0] = 3; //\n        nodeInfo[23].camps[1] = 1; //\n\n        nodeInfo[24].nodeId = 24; //\n        nodeInfo[24].nodeType = 0; //\n\n        // mapping (uint8 => mapping(uint8 => uint64)) public randomEvent; //add/sub => properties => percentage; /0 1 =  0 1 2 3 4  =  \n        randomEvent[0][0] = 50; //  50/1000 5%\n        randomEvent[0][1] = 30; //  3%\n        randomEvent[0][2] = 40; //  4%\n        randomEvent[0][3] = 60; //  6%\n        randomEvent[0][4] = 70; //  7%\n        randomEvent[1][0] = 50; //  50/1000 5%\n        randomEvent[1][1] = 30; //  3%\n        randomEvent[1][2] = 40; //  4%\n        randomEvent[1][3] = 60; //  6%\n        randomEvent[1][4] = 70; //  7%\n    }\n    \n    // uint256 balance = IERC1155(SHOP).balanceOf(msg.sender, books[detail.quality]);\n    // IERC1155(SHOP).safeTransferFrom(msg.sender, address(this), books[detail.quality], _baseAddition[detail.rarity][detail.star][2], \"\");\n\n    //\n    function startBattle(uint64 _startTime) public onlyOwner {\n        require(battleStartTime == 0, \"Already started\");\n        battleStartTime = _startTime;\n    }\n\n    //\n    function ticketAmount(uint256[] memory commonTokenIds, uint256[] memory goldenTokenIds) public view returns(uint256) {\n        require(commonTokenIds.length <= 5);\n        uint256 power;\n        for (uint8 i = 0; i < commonTokenIds.length; i++) {\n            RichHero.HeroDetail memory detail = HERO.getHero(commonTokenIds[i]);\n            power = power.add(detail.power);\n        }\n        for (uint8 i = 0; i < goldenTokenIds.length; i++) {\n            RichHero.HeroDetail memory detail = HERO.getHero(goldenTokenIds[i]);\n            power = power.add(detail.power);\n        }\n        //realPower / 1000\n        return power.div(100000);\n    }\n\n    // \n    function fight(uint8 camp, uint8 road, uint256[] memory commonTokenIds, uint256[] memory goldenTokenIds) public {\n        //\n        require(camp < 4);\n        //\n        require(commonTokenIds.length <= 5 && road < 2);\n        //\n        require(players[msg.sender].baseSpeed == 0);\n        //\n        uint256 power;\n        for (uint8 i = 0; i < commonTokenIds.length; i++) {\n            HERO.transferFrom(msg.sender, address(this), commonTokenIds[i]);\n            RichHero.HeroDetail memory detail = HERO.getHero(commonTokenIds[i]);\n            power = power.add(detail.power);\n        }\n        //\n        for (uint8 i = 0; i < goldenTokenIds.length; i++) {\n            HERO.transferFrom(msg.sender, address(this), goldenTokenIds[i]);\n            RichHero.HeroDetail memory detail = HERO.getHero(goldenTokenIds[i]);\n            power = power.add(detail.power);\n        }\n        // todo ; \n        players[msg.sender].camp = camp;\n        players[msg.sender].road = road;\n        players[msg.sender].currentStep = 0;\n        players[msg.sender].baseSpeed = 20;\n        players[msg.sender].times[0] = uint64(block.timestamp);\n        players[msg.sender].times[1] = uint64(block.timestamp) + distance[camp][road][0]*3600/20;\n        players[msg.sender].commonTokenIds = commonTokenIds;\n        players[msg.sender].goldenTokenIds = goldenTokenIds;\n        // todo ;\n        campPlayers[camp].push(msg.sender);\n    }\n\n    //0:  1: 2:3: 4:\n    function march(uint8 decision) public {\n        //\n        bool[5] memory tactics = getMarchTactics(msg.sender);\n        require(tactics[decision], \"Decision is invalid\");\n        uint8 nextNode = getNextNode(msg.sender);\n        //\n        // uint8 camp; //\n        // uint8 road; //\n        // uint8 currentStep; //\n        // uint8 baseSpeed; //\n        // uint8 speedBuffType; //buff / 0: 1: 2:\n        // uint8 additionSpeed; // / \n        // uint8 state; // 0: 1: 2:\n        // uint8 lastEvent;//\n        // uint8 lastBuffId;//\n        // uint64[] times; //0,1,2,3,4,5\n        // uint256[] commonTokenIds; //\n        // uint256[] goldenTokenIds; //\n        // Addition addition; // \n        if (decision == 0) {\n            //todo \n            players[msg.sender].currentStep = players[msg.sender].currentStep + 1;\n            players[msg.sender].times[0] = uint64(block.timestamp);\n            if(players[msg.sender].times[4] <= block.timestamp) {\n                //\n                //\n            } else {\n                players[msg.sender].times[1] = uint64(block.timestamp) + distance[players[msg.sender].camp][players[msg.sender].road][players[msg.sender].currentStep]*3600/20;\n            }\n        }\n        \n        // if (previewNextNode(msg.sender)) {\n            \n        // }\n\n    }\n\n    // \n    function trigger() public {\n\n    }\n\n    //\n    function useBuff(uint8 buffId) public {\n        //todo  \n    }\n\n    //\n    function claim() public {\n        require(block.timestamp >= battleEndTime, \"The battle is not over\");\n        for (uint8 i = 0; i < players[msg.sender].commonTokenIds.length; i++) {\n            HERO.transferFrom(address(this), msg.sender, players[msg.sender].commonTokenIds[i]);\n        }\n        //\n        for (uint8 i = 0; i < players[msg.sender].goldenTokenIds.length; i++) {\n            HERO.transferFrom(address(this), msg.sender, players[msg.sender].goldenTokenIds[i]);\n        }\n        //todo \n    }\n\n    //\n    function getMarchTactics(address account) public view returns (bool[5] memory tactics) {\n        //\n        if (block.timestamp < players[account].times[1]) {\n            return tactics;\n        } \n        uint8 nextNode = getNextNode(account);\n        if (nodeInfo[nextNode].nodeId > 24) {\n            return tactics;\n        }\n        //\n        //0:  1: 2:3: 4:\n        //  0 0      02 \n        //  0 1 2    \n        if (nodeInfo[nextNode].nodeId == 24) {\n            //\n            tactics[4] = true;\n            return tactics;\n        }\n        if (nodeInfo[nextNode].nodeType == 0) {\n            //\n            tactics[0] = true;\n            return tactics;\n        }\n        if (nodeInfo[nextNode].nodeType == 1) {\n            //\n            tactics[0] = true;\n            tactics[2] = true;\n            return tactics;\n        }\n        if (nodeInfo[nextNode].nodeType == 2) {\n            //\n            // \n            if (players[account].camp == nodeInfo[nextNode].camps[0]) {\n                //\n                tactics[0] = true;\n                tactics[2] = true;\n                return tactics;\n            } else {\n                //\n                tactics[0] = true; //\n                tactics[1] = true;\n                tactics[2] = true;\n                return tactics;\n            }\n        }\n        if (nodeInfo[nextNode].nodeType == 3) {\n            //\n            //\n            tactics[0] = true;\n            tactics[1] = true;\n            tactics[2] = true;\n            return tactics;\n        }\n    } \n\n    //\n    function previewNextNode(address player) public view returns (bool) {\n        return true;\n    } \n\n    //\n    function getCurrentNode(address player) public view returns(uint8) {\n        if (players[player].baseSpeed == 0 && players[player].state == 0) {\n            return 100;\n        }\n        uint8 camp = players[player].camp;\n        uint8 road = players[player].road;\n        uint8 currentStep = players[player].currentStep; \n        if (roadMap[camp][road][currentStep] == 24) {\n            return 100;\n        }\n        if (block.timestamp > players[player].times[1]) {\n            return roadMap[camp][road][currentStep+1];\n        }\n        return roadMap[camp][road][currentStep];\n    }\n\n    //\n    function getNextNode(address player) public view returns(uint8) {\n        if (players[player].baseSpeed == 0) {\n            return 100;\n        }\n        uint8 camp = players[player].camp;\n        uint8 road = players[player].road;\n        uint8 currentStep = players[player].currentStep; \n        if (roadMap[camp][road][currentStep] == 24) {\n            return 100;\n        }\n        return roadMap[camp][road][currentStep+1];\n    }\n    \n    //todo \n    function isCombine(uint256[] calldata commonTokenIds) public view returns (bool isTrigger, uint256 combineId) {\n        \n    }\n\n    //---------------\n    function setRichShop(address shop) public onlyOwner {\n        RICHSHOP = RichShop(shop);\n    }\n\n    function setBattleShop(address shop) public onlyOwner {\n        BATTLESHOP = BattleShop(shop);\n    }\n\n    function setHero(address hero) public onlyOwner {\n        HERO = RichHero(hero);\n    }\n\n    //---------------    \n    //\n    function getOdds() public view returns (uint256[] memory odds) {\n        odds[0] = (campPool[1] + campPool[2] + campPool[3]).mul(100).div(campPool[0].add(1));\n        odds[1] = (campPool[0] + campPool[2] + campPool[3]).mul(100).div(campPool[1].add(1));\n        odds[2] = (campPool[0] + campPool[1] + campPool[3]).mul(100).div(campPool[2].add(1));\n        odds[3] = (campPool[0] + campPool[1] + campPool[2]).mul(100).div(campPool[3].add(1));\n    }\n\n    // MMC\n    function bet(uint8 camp, uint256 amount) public {\n        require(camp < 4);\n        require(MMC.transferFrom(msg.sender, address(this), amount));\n        require(block.timestamp < battleStartTime + 3 days, \"Bet only open in the first three days\");\n        betInfos[msg.sender][camp] = betInfos[msg.sender][camp].add(amount);\n        totalBetPool = totalBetPool.add(amount);\n        campPool[camp] = campPool[camp].add(amount);\n    }\n\n    //\n    function claimBet() public {\n        require(block.timestamp >= battleEndTime, \"The battle is not over\");\n        uint8 maxPowerCamp;\n        uint256 maxPower;\n        for (uint8 i = 0; i < 4; i++) {\n            if (arrivePower[i] > maxPower) {\n                maxPower = arrivePower[i];\n                maxPowerCamp = i;\n            }\n        }\n        uint256 betAmount = betInfos[msg.sender][maxPowerCamp];\n        require(betAmount > 0, \"No bonus\");\n        uint256 bonus = betAmount.mul(totalBetPool).div(campPool[maxPowerCamp]);\n        MMC.transfer(msg.sender, bonus.mul(90).div(100));\n        MMC.transfer(feeRecipient, bonus.mul(10).div(100));\n    }\n\n    //\n    function getClaimBet(address account) public view returns(uint256) {\n        require(block.timestamp >= battleEndTime, \"The battle is not over\");\n        uint8 maxPowerCamp;\n        uint256 maxPower;\n        for (uint8 i = 0; i < 4; i++) {\n            if (arrivePower[i] > maxPower) {\n                maxPower = arrivePower[i];\n                maxPowerCamp = i;\n            }\n        }\n        uint256 betAmount = betInfos[account][maxPowerCamp];\n        if (betAmount == 0) {\n            return 0;\n        }\n        uint256 bonus = betAmount.mul(totalBetPool).div(campPool[maxPowerCamp]);\n        return bonus.mul(90).div(100);\n    }\n\n    //\n    function supportsInterface(bytes4 interfaceId) public view virtual\n        override(ERC1155Receiver) returns (bool) {\n        return super.supportsInterface(interfaceId);\n    }\n\n    function onERC1155Received(\n        address operator,\n        address from,\n        uint256 id,\n        uint256 value,\n        bytes calldata data\n    )\n    external\n    override\n    pure\n    returns(bytes4)\n    {\n        return bytes4(keccak256(\"onERC1155Received(address,address,uint256,uint256,bytes)\"));\n    }\n\n    function onERC1155BatchReceived(\n        address operator,\n        address from,\n        uint256[] calldata ids,\n        uint256[] calldata values,\n        bytes calldata data\n    )\n    external\n    override\n    pure\n    returns(bytes4)\n    {\n        return bytes4(keccak256(\"onERC1155BatchReceived(address,address,uint256[],uint256[],bytes)\"));\n    }\n\n    function _random(uint256 _value, uint256 index) private view returns (uint64) {\n        bytes memory seed = abi.encodePacked(block.timestamp, index, msg.sender);\n        return uint64(uint256(keccak256(seed)) % _value);\n    }\n\n    function _choose(uint64[] memory detail, uint64 preference, uint64[] memory properties, bool saveCamp, uint64 camp) private view\n        returns (uint64[] memory) {\n        uint64[] memory heroDetail = new uint64[](13);\n        uint256 randIndex = 0;\n        heroDetail[0] = detail[0]; //native\n        if (!saveCamp) {\n            heroDetail[1] = uint64(_random(uint256(HERO.camps()), randIndex++)); //camp\n        } else {\n            heroDetail[1] = camp;\n        }\n        heroDetail[2] = detail[1];//rarity\n        heroDetail[3] = uint64(_random(uint256(HERO.heroIds(heroDetail[2])), randIndex++)); //heroId\n        heroDetail[4] = detail[2]; //level\n        heroDetail[5] = detail[3]; //star  \n        heroDetail[6] = detail[4]; //quality\n        heroDetail[7] = detail[5]; //addition\n        (uint64 newPreference,,,,,) = HERO._heroInitials(heroDetail[1], heroDetail[2], heroDetail[3]); //preference\n        (properties[preference], properties[newPreference]) = (properties[newPreference], properties[preference]);\n        heroDetail[8] = properties[0];\n        heroDetail[9] = properties[1];\n        heroDetail[10] = properties[2];\n        heroDetail[11] = properties[3];\n        heroDetail[12] = properties[4];\n        return heroDetail;\n    }\n}",
  "sourcePath": "/Users/hy/new-rich-contract/contracts/Battle.sol",
  "compiler": {
    "name": "solc",
    "version": "0.8.9+commit.e5eed63a.Emscripten.clang"
  },
  "schemaVersion": "3.4.3",
  "updatedAt": "2022-03-19T08:03:24.315Z",
  "devdoc": {
    "kind": "dev",
    "methods": {
      "onERC1155BatchReceived(address,address,uint256[],uint256[],bytes)": {
        "details": "Handles the receipt of a multiple ERC1155 token types. This function is called at the end of a `safeBatchTransferFrom` after the balances have been updated. To accept the transfer(s), this must return `bytes4(keccak256(\"onERC1155BatchReceived(address,address,uint256[],uint256[],bytes)\"))` (i.e. 0xbc197c81, or its own function selector).",
        "params": {
          "data": "Additional data with no specified format",
          "from": "The address which previously owned the token",
          "ids": "An array containing ids of each token being transferred (order and length must match values array)",
          "operator": "The address which initiated the batch transfer (i.e. msg.sender)",
          "values": "An array containing amounts of each token being transferred (order and length must match ids array)"
        },
        "returns": {
          "_0": "`bytes4(keccak256(\"onERC1155BatchReceived(address,address,uint256[],uint256[],bytes)\"))` if transfer is allowed"
        }
      },
      "onERC1155Received(address,address,uint256,uint256,bytes)": {
        "details": "Handles the receipt of a single ERC1155 token type. This function is called at the end of a `safeTransferFrom` after the balance has been updated. To accept the transfer, this must return `bytes4(keccak256(\"onERC1155Received(address,address,uint256,uint256,bytes)\"))` (i.e. 0xf23a6e61, or its own function selector).",
        "params": {
          "data": "Additional data with no specified format",
          "from": "The address which previously owned the token",
          "id": "The ID of the token being transferred",
          "operator": "The address which initiated the transfer (i.e. msg.sender)",
          "value": "The amount of tokens being transferred"
        },
        "returns": {
          "_0": "`bytes4(keccak256(\"onERC1155Received(address,address,uint256,uint256,bytes)\"))` if transfer is allowed"
        }
      },
      "owner()": {
        "details": "Returns the address of the current owner."
      },
      "renounceOwnership()": {
        "details": "Leaves the contract without owner. It will not be possible to call `onlyOwner` functions anymore. Can only be called by the current owner. NOTE: Renouncing ownership will leave the contract without an owner, thereby removing any functionality that is only available to the owner."
      },
      "supportsInterface(bytes4)": {
        "details": "See {IERC165-supportsInterface}."
      },
      "transferOwnership(address)": {
        "details": "Transfers ownership of the contract to a new account (`newOwner`). Can only be called by the current owner."
      }
    },
    "title": "Battle - Romance of the Three Kingdoms Battle Docs:  Version v1.1.0",
    "version": 1
  },
  "userdoc": {
    "kind": "user",
    "methods": {},
    "notice": "",
    "version": 1
  }
}