{
  "contractName": "BattleShop",
  "abi": [
    {
      "inputs": [
        {
          "internalType": "address",
          "name": "mmc",
          "type": "address"
        }
      ],
      "stateMutability": "nonpayable",
      "type": "constructor"
    },
    {
      "anonymous": false,
      "inputs": [
        {
          "indexed": true,
          "internalType": "address",
          "name": "account",
          "type": "address"
        },
        {
          "indexed": true,
          "internalType": "address",
          "name": "operator",
          "type": "address"
        },
        {
          "indexed": false,
          "internalType": "bool",
          "name": "approved",
          "type": "bool"
        }
      ],
      "name": "ApprovalForAll",
      "type": "event"
    },
    {
      "anonymous": false,
      "inputs": [
        {
          "indexed": true,
          "internalType": "bytes32",
          "name": "role",
          "type": "bytes32"
        },
        {
          "indexed": true,
          "internalType": "bytes32",
          "name": "previousAdminRole",
          "type": "bytes32"
        },
        {
          "indexed": true,
          "internalType": "bytes32",
          "name": "newAdminRole",
          "type": "bytes32"
        }
      ],
      "name": "RoleAdminChanged",
      "type": "event"
    },
    {
      "anonymous": false,
      "inputs": [
        {
          "indexed": true,
          "internalType": "bytes32",
          "name": "role",
          "type": "bytes32"
        },
        {
          "indexed": true,
          "internalType": "address",
          "name": "account",
          "type": "address"
        },
        {
          "indexed": true,
          "internalType": "address",
          "name": "sender",
          "type": "address"
        }
      ],
      "name": "RoleGranted",
      "type": "event"
    },
    {
      "anonymous": false,
      "inputs": [
        {
          "indexed": true,
          "internalType": "bytes32",
          "name": "role",
          "type": "bytes32"
        },
        {
          "indexed": true,
          "internalType": "address",
          "name": "account",
          "type": "address"
        },
        {
          "indexed": true,
          "internalType": "address",
          "name": "sender",
          "type": "address"
        }
      ],
      "name": "RoleRevoked",
      "type": "event"
    },
    {
      "anonymous": false,
      "inputs": [
        {
          "indexed": true,
          "internalType": "address",
          "name": "operator",
          "type": "address"
        },
        {
          "indexed": true,
          "internalType": "address",
          "name": "from",
          "type": "address"
        },
        {
          "indexed": true,
          "internalType": "address",
          "name": "to",
          "type": "address"
        },
        {
          "indexed": false,
          "internalType": "uint256[]",
          "name": "ids",
          "type": "uint256[]"
        },
        {
          "indexed": false,
          "internalType": "uint256[]",
          "name": "values",
          "type": "uint256[]"
        }
      ],
      "name": "TransferBatch",
      "type": "event"
    },
    {
      "anonymous": false,
      "inputs": [
        {
          "indexed": true,
          "internalType": "address",
          "name": "operator",
          "type": "address"
        },
        {
          "indexed": true,
          "internalType": "address",
          "name": "from",
          "type": "address"
        },
        {
          "indexed": true,
          "internalType": "address",
          "name": "to",
          "type": "address"
        },
        {
          "indexed": false,
          "internalType": "uint256",
          "name": "id",
          "type": "uint256"
        },
        {
          "indexed": false,
          "internalType": "uint256",
          "name": "value",
          "type": "uint256"
        }
      ],
      "name": "TransferSingle",
      "type": "event"
    },
    {
      "anonymous": false,
      "inputs": [
        {
          "indexed": false,
          "internalType": "string",
          "name": "value",
          "type": "string"
        },
        {
          "indexed": true,
          "internalType": "uint256",
          "name": "id",
          "type": "uint256"
        }
      ],
      "name": "URI",
      "type": "event"
    },
    {
      "inputs": [],
      "name": "DEFAULT_ADMIN_ROLE",
      "outputs": [
        {
          "internalType": "bytes32",
          "name": "",
          "type": "bytes32"
        }
      ],
      "stateMutability": "view",
      "type": "function",
      "constant": true
    },
    {
      "inputs": [],
      "name": "MINT_ROLE",
      "outputs": [
        {
          "internalType": "bytes32",
          "name": "",
          "type": "bytes32"
        }
      ],
      "stateMutability": "view",
      "type": "function",
      "constant": true
    },
    {
      "inputs": [],
      "name": "MMC",
      "outputs": [
        {
          "internalType": "contract IERC20",
          "name": "",
          "type": "address"
        }
      ],
      "stateMutability": "view",
      "type": "function",
      "constant": true
    },
    {
      "inputs": [],
      "name": "PCT_BASE",
      "outputs": [
        {
          "internalType": "uint256",
          "name": "",
          "type": "uint256"
        }
      ],
      "stateMutability": "view",
      "type": "function",
      "constant": true
    },
    {
      "inputs": [
        {
          "internalType": "uint256",
          "name": "",
          "type": "uint256"
        }
      ],
      "name": "_items",
      "outputs": [
        {
          "internalType": "uint256",
          "name": "tokenId",
          "type": "uint256"
        },
        {
          "internalType": "bytes32",
          "name": "name",
          "type": "bytes32"
        },
        {
          "internalType": "uint8",
          "name": "speedAddition",
          "type": "uint8"
        }
      ],
      "stateMutability": "view",
      "type": "function",
      "constant": true
    },
    {
      "inputs": [
        {
          "internalType": "address",
          "name": "account",
          "type": "address"
        },
        {
          "internalType": "uint256",
          "name": "id",
          "type": "uint256"
        }
      ],
      "name": "balanceOf",
      "outputs": [
        {
          "internalType": "uint256",
          "name": "",
          "type": "uint256"
        }
      ],
      "stateMutability": "view",
      "type": "function",
      "constant": true
    },
    {
      "inputs": [
        {
          "internalType": "address[]",
          "name": "accounts",
          "type": "address[]"
        },
        {
          "internalType": "uint256[]",
          "name": "ids",
          "type": "uint256[]"
        }
      ],
      "name": "balanceOfBatch",
      "outputs": [
        {
          "internalType": "uint256[]",
          "name": "",
          "type": "uint256[]"
        }
      ],
      "stateMutability": "view",
      "type": "function",
      "constant": true
    },
    {
      "inputs": [],
      "name": "feeRecipient",
      "outputs": [
        {
          "internalType": "address",
          "name": "",
          "type": "address"
        }
      ],
      "stateMutability": "view",
      "type": "function",
      "constant": true
    },
    {
      "inputs": [
        {
          "internalType": "bytes32",
          "name": "role",
          "type": "bytes32"
        }
      ],
      "name": "getRoleAdmin",
      "outputs": [
        {
          "internalType": "bytes32",
          "name": "",
          "type": "bytes32"
        }
      ],
      "stateMutability": "view",
      "type": "function",
      "constant": true
    },
    {
      "inputs": [
        {
          "internalType": "bytes32",
          "name": "role",
          "type": "bytes32"
        },
        {
          "internalType": "address",
          "name": "account",
          "type": "address"
        }
      ],
      "name": "grantRole",
      "outputs": [],
      "stateMutability": "nonpayable",
      "type": "function"
    },
    {
      "inputs": [
        {
          "internalType": "bytes32",
          "name": "role",
          "type": "bytes32"
        },
        {
          "internalType": "address",
          "name": "account",
          "type": "address"
        }
      ],
      "name": "hasRole",
      "outputs": [
        {
          "internalType": "bool",
          "name": "",
          "type": "bool"
        }
      ],
      "stateMutability": "view",
      "type": "function",
      "constant": true
    },
    {
      "inputs": [
        {
          "internalType": "address",
          "name": "account",
          "type": "address"
        },
        {
          "internalType": "address",
          "name": "operator",
          "type": "address"
        }
      ],
      "name": "isApprovedForAll",
      "outputs": [
        {
          "internalType": "bool",
          "name": "",
          "type": "bool"
        }
      ],
      "stateMutability": "view",
      "type": "function",
      "constant": true
    },
    {
      "inputs": [],
      "name": "lootBoxPrice",
      "outputs": [
        {
          "internalType": "uint256",
          "name": "",
          "type": "uint256"
        }
      ],
      "stateMutability": "view",
      "type": "function",
      "constant": true
    },
    {
      "inputs": [
        {
          "internalType": "bytes32",
          "name": "role",
          "type": "bytes32"
        },
        {
          "internalType": "address",
          "name": "account",
          "type": "address"
        }
      ],
      "name": "renounceRole",
      "outputs": [],
      "stateMutability": "nonpayable",
      "type": "function"
    },
    {
      "inputs": [
        {
          "internalType": "bytes32",
          "name": "role",
          "type": "bytes32"
        },
        {
          "internalType": "address",
          "name": "account",
          "type": "address"
        }
      ],
      "name": "revokeRole",
      "outputs": [],
      "stateMutability": "nonpayable",
      "type": "function"
    },
    {
      "inputs": [
        {
          "internalType": "address",
          "name": "from",
          "type": "address"
        },
        {
          "internalType": "address",
          "name": "to",
          "type": "address"
        },
        {
          "internalType": "uint256[]",
          "name": "ids",
          "type": "uint256[]"
        },
        {
          "internalType": "uint256[]",
          "name": "amounts",
          "type": "uint256[]"
        },
        {
          "internalType": "bytes",
          "name": "data",
          "type": "bytes"
        }
      ],
      "name": "safeBatchTransferFrom",
      "outputs": [],
      "stateMutability": "nonpayable",
      "type": "function"
    },
    {
      "inputs": [
        {
          "internalType": "address",
          "name": "from",
          "type": "address"
        },
        {
          "internalType": "address",
          "name": "to",
          "type": "address"
        },
        {
          "internalType": "uint256",
          "name": "id",
          "type": "uint256"
        },
        {
          "internalType": "uint256",
          "name": "amount",
          "type": "uint256"
        },
        {
          "internalType": "bytes",
          "name": "data",
          "type": "bytes"
        }
      ],
      "name": "safeTransferFrom",
      "outputs": [],
      "stateMutability": "nonpayable",
      "type": "function"
    },
    {
      "inputs": [
        {
          "internalType": "address",
          "name": "operator",
          "type": "address"
        },
        {
          "internalType": "bool",
          "name": "approved",
          "type": "bool"
        }
      ],
      "name": "setApprovalForAll",
      "outputs": [],
      "stateMutability": "nonpayable",
      "type": "function"
    },
    {
      "inputs": [],
      "name": "tokenListLength",
      "outputs": [
        {
          "internalType": "uint256",
          "name": "",
          "type": "uint256"
        }
      ],
      "stateMutability": "view",
      "type": "function",
      "constant": true
    },
    {
      "inputs": [
        {
          "internalType": "uint256",
          "name": "",
          "type": "uint256"
        }
      ],
      "name": "uri",
      "outputs": [
        {
          "internalType": "string",
          "name": "",
          "type": "string"
        }
      ],
      "stateMutability": "view",
      "type": "function",
      "constant": true
    },
    {
      "inputs": [
        {
          "internalType": "bytes32",
          "name": "name",
          "type": "bytes32"
        },
        {
          "internalType": "uint8",
          "name": "speedAddition",
          "type": "uint8"
        }
      ],
      "name": "addItem",
      "outputs": [
        {
          "internalType": "uint256",
          "name": "",
          "type": "uint256"
        }
      ],
      "stateMutability": "nonpayable",
      "type": "function"
    },
    {
      "inputs": [
        {
          "internalType": "address",
          "name": "account",
          "type": "address"
        },
        {
          "internalType": "uint256",
          "name": "tokenId",
          "type": "uint256"
        },
        {
          "internalType": "uint256",
          "name": "amount",
          "type": "uint256"
        }
      ],
      "name": "mint",
      "outputs": [],
      "stateMutability": "nonpayable",
      "type": "function"
    },
    {
      "inputs": [
        {
          "internalType": "uint256",
          "name": "amount",
          "type": "uint256"
        }
      ],
      "name": "buy",
      "outputs": [],
      "stateMutability": "nonpayable",
      "type": "function"
    },
    {
      "inputs": [
        {
          "internalType": "uint256",
          "name": "price",
          "type": "uint256"
        }
      ],
      "name": "setPrice",
      "outputs": [],
      "stateMutability": "nonpayable",
      "type": "function"
    },
    {
      "inputs": [],
      "name": "getAllItems",
      "outputs": [
        {
          "components": [
            {
              "internalType": "uint256",
              "name": "tokenId",
              "type": "uint256"
            },
            {
              "internalType": "bytes32",
              "name": "name",
              "type": "bytes32"
            },
            {
              "internalType": "uint8",
              "name": "speedAddition",
              "type": "uint8"
            }
          ],
          "internalType": "struct BattleShop.ItemDetail[]",
          "name": "",
          "type": "tuple[]"
        }
      ],
      "stateMutability": "view",
      "type": "function",
      "constant": true
    },
    {
      "inputs": [
        {
          "internalType": "address",
          "name": "account",
          "type": "address"
        }
      ],
      "name": "ownList",
      "outputs": [
        {
          "internalType": "uint256[]",
          "name": "",
          "type": "uint256[]"
        }
      ],
      "stateMutability": "view",
      "type": "function",
      "constant": true
    },
    {
      "inputs": [
        {
          "internalType": "bytes4",
          "name": "interfaceId",
          "type": "bytes4"
        }
      ],
      "name": "supportsInterface",
      "outputs": [
        {
          "internalType": "bool",
          "name": "",
          "type": "bool"
        }
      ],
      "stateMutability": "view",
      "type": "function",
      "constant": true
    }
  ],
  "bytecode": "0x6080604052686c6b935b8bbd400000600455600780546001600160a01b031916738f3b8f3046deb7c4e227dc0c6379051755ba31421790553480156200004457600080fd5b5060405162002604380380620026048339810160408190526200006791620002fb565b60408051808201909152601081526f05269636820426174746c652053686f760841b6020820152620000998162000128565b50600880546001600160a01b0319166001600160a01b038316179055620000c260003362000141565b620000d461303160f01b6005620001e5565b50620000e761181960f11b600a620001e5565b50620000fa61303360f01b600f620001e5565b506200010d610c0d60f21b6014620001e5565b506200012061303560f01b6019620001e5565b505062000394565b80516200013d90600290602084019062000255565b5050565b60008281526003602090815260408083206001600160a01b038516845290915290205460ff166200013d5760008281526003602090815260408083206001600160a01b03851684529091529020805460ff19166001179055620001a13390565b6001600160a01b0316816001600160a01b0316837f2f8788117e7eff1d82e926ec794901d17c78024a50270940304540a733656f0d60405160405180910390a45050565b6005805460009182919082620001fb836200032d565b9091555060408051606081018252828152602080820197885260ff968716828401908152600085815260069092529290209051815595516001870155516002909501805460ff191695909416949094179092555090919050565b828054620002639062000357565b90600052602060002090601f016020900481019282620002875760008555620002d2565b82601f10620002a257805160ff1916838001178555620002d2565b82800160010185558215620002d2579182015b82811115620002d2578251825591602001919060010190620002b5565b50620002e0929150620002e4565b5090565b5b80821115620002e05760008155600101620002e5565b6000602082840312156200030e57600080fd5b81516001600160a01b03811681146200032657600080fd5b9392505050565b60006000198214156200035057634e487b7160e01b600052601160045260246000fd5b5060010190565b600181811c908216806200036c57607f821691505b602082108114156200038e57634e487b7160e01b600052602260045260246000fd5b50919050565b61226080620003a46000396000f3fe608060405234801561001057600080fd5b50600436106101a85760003560e01c80634e1273f4116100f9578063d547741f11610097578063e9a9c85011610071578063e9a9c85014610412578063f242432a14610427578063fb0db68b1461043a578063fc157cb41461044d57600080fd5b8063d547741f146103b0578063d96a094a146103c3578063e985e9c5146103d657600080fd5b8063925f995f116100d3578063925f995f146103795780639a552a291461038c578063a217fddf14610395578063a22cb4651461039d57600080fd5b80634e1273f41461033357806391b7f5ed1461035357806391d148541461036657600080fd5b80632eb2c2d6116101665780634402941011610140578063440294101461029057806344dea5a7146102e0578063469048401461030b5780634ba1d6aa1461031e57600080fd5b80632eb2c2d6146102575780632f2ff15d1461026a57806336568abe1461027d57600080fd5b8062fdd58e146101ad57806301ffc9a7146101d35780630d412adb146101f65780630e89341c146101ff578063156e29f61461021f578063248a9ca314610234575b600080fd5b6101c06101bb366004611853565b61045c565b6040519081526020015b60405180910390f35b6101e66101e1366004611896565b6104f3565b60405190151581526020016101ca565b6101c060045481565b61021261020d3660046118b3565b610504565b6040516101ca9190611924565b61023261022d366004611937565b610598565b005b6101c06102423660046118b3565b60009081526003602052604090206001015490565b610232610265366004611ab6565b6105d2565b610232610278366004611b60565b610669565b61023261028b366004611b60565b610694565b6102c261029e3660046118b3565b60066020526000908152604090208054600182015460029092015490919060ff1683565b60408051938452602084019290925260ff16908201526060016101ca565b6008546102f3906001600160a01b031681565b6040516001600160a01b0390911681526020016101ca565b6007546102f3906001600160a01b031681565b610326610712565b6040516101ca9190611b8c565b610346610341366004611be8565b6107fd565b6040516101ca9190611cee565b6102326103613660046118b3565b610927565b6101e6610374366004611b60565b610959565b610346610387366004611d01565b610984565b6101c060055481565b6101c0600081565b6102326103ab366004611d2a565b610a15565b6102326103be366004611b60565b610a20565b6102326103d13660046118b3565b610a46565b6101e66103e4366004611d61565b6001600160a01b03918216600090815260016020908152604080832093909416825291909152205460ff1690565b6101c060008051602061220b83398151915281565b610232610435366004611d8b565b610bdb565b6101c0610448366004611df0565b610c62565b6101c0670de0b6b3a764000081565b60006001600160a01b0383166104cd5760405162461bcd60e51b815260206004820152602b60248201527f455243313135353a2062616c616e636520717565727920666f7220746865207a60448201526a65726f206164647265737360a81b60648201526084015b60405180910390fd5b506000908152602081815260408083206001600160a01b03949094168352929052205490565b60006104fe82610c8f565b92915050565b60606002805461051390611e1b565b80601f016020809104026020016040519081016040528092919081815260200182805461053f90611e1b565b801561058c5780601f106105615761010080835404028352916020019161058c565b820191906000526020600020905b81548152906001019060200180831161056f57829003601f168201915b50505050509050919050565b60008051602061220b8339815191526105b18133610cb4565b6105cc84848460405180602001604052806000815250610d18565b50505050565b6001600160a01b0385163314806105ee57506105ee85336103e4565b6106555760405162461bcd60e51b815260206004820152603260248201527f455243313135353a207472616e736665722063616c6c6572206973206e6f74206044820152711bdddb995c881b9bdc88185c1c1c9bdd995960721b60648201526084016104c4565b6106628585858585610e22565b5050505050565b6000828152600360205260409020600101546106858133610cb4565b61068f8383610fff565b505050565b6001600160a01b03811633146107045760405162461bcd60e51b815260206004820152602f60248201527f416363657373436f6e74726f6c3a2063616e206f6e6c792072656e6f756e636560448201526e103937b632b9903337b91039b2b63360891b60648201526084016104c4565b61070e8282611085565b5050565b60055460609060008167ffffffffffffffff8111156107335761073361196a565b60405190808252806020026020018201604052801561077e57816020015b60408051606081018252600080825260208083018290529282015282526000199092019101816107515790505b50905060005b828110156107f6576000818152600660209081526040918290208251606081018452815481526001820154928101929092526002015460ff169181019190915282518390839081106107d8576107d8611e56565b602002602001018190525080806107ee90611e82565b915050610784565b5092915050565b606081518351146108625760405162461bcd60e51b815260206004820152602960248201527f455243313135353a206163636f756e747320616e6420696473206c656e677468604482015268040dad2e6dac2e8c6d60bb1b60648201526084016104c4565b6000835167ffffffffffffffff81111561087e5761087e61196a565b6040519080825280602002602001820160405280156108a7578160200160208202803683370190505b50905060005b845181101561091f576108f28582815181106108cb576108cb611e56565b60200260200101518583815181106108e5576108e5611e56565b602002602001015161045c565b82828151811061090457610904611e56565b602090810291909101015261091881611e82565b90506108ad565b509392505050565b60008051602061220b8339815191526109408133610cb4565b61095282670de0b6b3a7640000611e9d565b6004555050565b60009182526003602090815260408084206001600160a01b0393909316845291905290205460ff1690565b60055460609060008167ffffffffffffffff8111156109a5576109a561196a565b6040519080825280602002602001820160405280156109ce578160200160208202803683370190505b50905060005b8281101561091f576109e6858261045c565b8282815181106109f8576109f8611e56565b602090810291909101015280610a0d81611e82565b9150506109d4565b61070e3383836110ec565b600082815260036020526040902060010154610a3c8133610cb4565b61068f8383611085565b60008051602061220b833981519152610a5f8133610cb4565b333214610a985760405162461bcd60e51b81526020600482015260076024820152664e4f5420454f4160c81b60448201526064016104c4565b6008546007546004546000926001600160a01b03908116926323b872dd92339290911690610ac690886111cd565b6040516001600160e01b031960e086901b1681526001600160a01b0393841660048201529290911660248301526044820152606401602060405180830381600087803b158015610b1557600080fd5b505af1158015610b29573d6000803e3d6000fd5b505050506040513d601f19601f82011682018060405250810190610b4d9190611ebc565b905080610b8f5760405162461bcd60e51b815260206004820152601060248201526f151c985b9cd9995c88125b9d985b1a5960821b60448201526064016104c4565b60005b838110156105cc576000610ba76005836111e0565b9050610bc8338260ff16600160405180602001604052806000815250610d18565b5080610bd381611e82565b915050610b92565b6001600160a01b038516331480610bf75750610bf785336103e4565b610c555760405162461bcd60e51b815260206004820152602960248201527f455243313135353a2063616c6c6572206973206e6f74206f776e6572206e6f7260448201526808185c1c1c9bdd995960ba1b60648201526084016104c4565b6106628585858585611240565b600060008051602061220b833981519152610c7d8133610cb4565b610c87848461135d565b949350505050565b60006001600160e01b03198216637965db0b60e01b14806104fe57506104fe826113cb565b610cbe8282610959565b61070e57610cd6816001600160a01b0316601461141b565b610ce183602061141b565b604051602001610cf2929190611ed9565b60408051601f198184030181529082905262461bcd60e51b82526104c491600401611924565b6001600160a01b038416610d785760405162461bcd60e51b815260206004820152602160248201527f455243313135353a206d696e7420746f20746865207a65726f206164647265736044820152607360f81b60648201526084016104c4565b33610d9281600087610d89886115b7565b610662886115b7565b6000848152602081815260408083206001600160a01b038916845290915281208054859290610dc2908490611f4e565b909155505060408051858152602081018590526001600160a01b0380881692600092918516917fc3d58168c5ae7397731d063d5bbf3d657854427343f4c083240f7aacaa2d0f62910160405180910390a461066281600087878787611602565b8151835114610e845760405162461bcd60e51b815260206004820152602860248201527f455243313135353a2069647320616e6420616d6f756e7473206c656e677468206044820152670dad2e6dac2e8c6d60c31b60648201526084016104c4565b6001600160a01b038416610eaa5760405162461bcd60e51b81526004016104c490611f66565b3360005b8451811015610f91576000858281518110610ecb57610ecb611e56565b602002602001015190506000858381518110610ee957610ee9611e56565b602090810291909101810151600084815280835260408082206001600160a01b038e168352909352919091205490915081811015610f395760405162461bcd60e51b81526004016104c490611fab565b6000838152602081815260408083206001600160a01b038e8116855292528083208585039055908b16825281208054849290610f76908490611f4e565b9250508190555050505080610f8a90611e82565b9050610eae565b50846001600160a01b0316866001600160a01b0316826001600160a01b03167f4a39dc06d4c0dbc64b70af90fd698a233a518aa5d07e595d983b8c0526c8f7fb8787604051610fe1929190611ff5565b60405180910390a4610ff781878787878761176d565b505050505050565b6110098282610959565b61070e5760008281526003602090815260408083206001600160a01b03851684529091529020805460ff191660011790556110413390565b6001600160a01b0316816001600160a01b0316837f2f8788117e7eff1d82e926ec794901d17c78024a50270940304540a733656f0d60405160405180910390a45050565b61108f8282610959565b1561070e5760008281526003602090815260408083206001600160a01b0385168085529252808320805460ff1916905551339285917ff6391f5c32d9c69d2a47ea670b442974b53935d1edc7fd64eb21e047a839171b9190a45050565b816001600160a01b0316836001600160a01b031614156111605760405162461bcd60e51b815260206004820152602960248201527f455243313135353a2073657474696e6720617070726f76616c20737461747573604482015268103337b91039b2b63360b91b60648201526084016104c4565b6001600160a01b03838116600081815260016020908152604080832094871680845294825291829020805460ff191686151590811790915591519182527f17307eab39ab6107e8899845ad3d59bd9653f200f220920489ca2b5937696c31910160405180910390a3505050565b60006111d98284611e9d565b9392505050565b60008042833360405160200161121b93929190928352602083019190915260601b6bffffffffffffffffffffffff1916604082015260540190565b60408051601f1981840301815291905280516020820120909150610c87908590612023565b6001600160a01b0384166112665760405162461bcd60e51b81526004016104c490611f66565b33611276818787610d89886115b7565b6000848152602081815260408083206001600160a01b038a168452909152902054838110156112b75760405162461bcd60e51b81526004016104c490611fab565b6000858152602081815260408083206001600160a01b038b81168552925280832087850390559088168252812080548692906112f4908490611f4e565b909155505060408051868152602081018690526001600160a01b03808916928a821692918616917fc3d58168c5ae7397731d063d5bbf3d657854427343f4c083240f7aacaa2d0f62910160405180910390a4611354828888888888611602565b50505050505050565b600580546000918291908261137183611e82565b9091555060408051606081018252828152602080820197885260ff968716828401908152600085815260069092529290209051815595516001870155516002909501805460ff191695909416949094179092555090919050565b60006001600160e01b03198216636cdb3d1360e11b14806113fc57506001600160e01b031982166303a24d0760e21b145b806104fe57506301ffc9a760e01b6001600160e01b03198316146104fe565b6060600061142a836002611e9d565b611435906002611f4e565b67ffffffffffffffff81111561144d5761144d61196a565b6040519080825280601f01601f191660200182016040528015611477576020820181803683370190505b509050600360fc1b8160008151811061149257611492611e56565b60200101906001600160f81b031916908160001a905350600f60fb1b816001815181106114c1576114c1611e56565b60200101906001600160f81b031916908160001a90535060006114e5846002611e9d565b6114f0906001611f4e565b90505b6001811115611568576f181899199a1a9b1b9c1cb0b131b232b360811b85600f166010811061152457611524611e56565b1a60f81b82828151811061153a5761153a611e56565b60200101906001600160f81b031916908160001a90535060049490941c9361156181612045565b90506114f3565b5083156111d95760405162461bcd60e51b815260206004820181905260248201527f537472696e67733a20686578206c656e67746820696e73756666696369656e7460448201526064016104c4565b604080516001808252818301909252606091600091906020808301908036833701905050905082816000815181106115f1576115f1611e56565b602090810291909101015292915050565b6001600160a01b0384163b15610ff75760405163f23a6e6160e01b81526001600160a01b0385169063f23a6e6190611646908990899088908890889060040161205c565b602060405180830381600087803b15801561166057600080fd5b505af1925050508015611690575060408051601f3d908101601f1916820190925261168d918101906120a1565b60015b61173d5761169c6120be565b806308c379a014156116d657506116b16120da565b806116bc57506116d8565b8060405162461bcd60e51b81526004016104c49190611924565b505b60405162461bcd60e51b815260206004820152603460248201527f455243313135353a207472616e7366657220746f206e6f6e20455243313135356044820152732932b1b2b4bb32b91034b6b83632b6b2b73a32b960611b60648201526084016104c4565b6001600160e01b0319811663f23a6e6160e01b146113545760405162461bcd60e51b81526004016104c490612164565b6001600160a01b0384163b15610ff75760405163bc197c8160e01b81526001600160a01b0385169063bc197c81906117b190899089908890889088906004016121ac565b602060405180830381600087803b1580156117cb57600080fd5b505af19250505080156117fb575060408051601f3d908101601f191682019092526117f8918101906120a1565b60015b6118075761169c6120be565b6001600160e01b0319811663bc197c8160e01b146113545760405162461bcd60e51b81526004016104c490612164565b80356001600160a01b038116811461184e57600080fd5b919050565b6000806040838503121561186657600080fd5b61186f83611837565b946020939093013593505050565b6001600160e01b03198116811461189357600080fd5b50565b6000602082840312156118a857600080fd5b81356111d98161187d565b6000602082840312156118c557600080fd5b5035919050565b60005b838110156118e75781810151838201526020016118cf565b838111156105cc5750506000910152565b600081518084526119108160208601602086016118cc565b601f01601f19169290920160200192915050565b6020815260006111d960208301846118f8565b60008060006060848603121561194c57600080fd5b61195584611837565b95602085013595506040909401359392505050565b634e487b7160e01b600052604160045260246000fd5b601f8201601f1916810167ffffffffffffffff811182821017156119a6576119a661196a565b6040525050565b600067ffffffffffffffff8211156119c7576119c761196a565b5060051b60200190565b600082601f8301126119e257600080fd5b813560206119ef826119ad565b6040516119fc8282611980565b83815260059390931b8501820192828101915086841115611a1c57600080fd5b8286015b84811015611a375780358352918301918301611a20565b509695505050505050565b600082601f830112611a5357600080fd5b813567ffffffffffffffff811115611a6d57611a6d61196a565b604051611a84601f8301601f191660200182611980565b818152846020838601011115611a9957600080fd5b816020850160208301376000918101602001919091529392505050565b600080600080600060a08688031215611ace57600080fd5b611ad786611837565b9450611ae560208701611837565b9350604086013567ffffffffffffffff80821115611b0257600080fd5b611b0e89838a016119d1565b94506060880135915080821115611b2457600080fd5b611b3089838a016119d1565b93506080880135915080821115611b4657600080fd5b50611b5388828901611a42565b9150509295509295909350565b60008060408385031215611b7357600080fd5b82359150611b8360208401611837565b90509250929050565b602080825282518282018190526000919060409081850190868401855b82811015611bdb57815180518552868101518786015285015160ff168585015260609093019290850190600101611ba9565b5091979650505050505050565b60008060408385031215611bfb57600080fd5b823567ffffffffffffffff80821115611c1357600080fd5b818501915085601f830112611c2757600080fd5b81356020611c34826119ad565b604051611c418282611980565b83815260059390931b8501820192828101915089841115611c6157600080fd5b948201945b83861015611c8657611c7786611837565b82529482019490820190611c66565b96505086013592505080821115611c9c57600080fd5b50611ca9858286016119d1565b9150509250929050565b600081518084526020808501945080840160005b83811015611ce357815187529582019590820190600101611cc7565b509495945050505050565b6020815260006111d96020830184611cb3565b600060208284031215611d1357600080fd5b6111d982611837565b801515811461189357600080fd5b60008060408385031215611d3d57600080fd5b611d4683611837565b91506020830135611d5681611d1c565b809150509250929050565b60008060408385031215611d7457600080fd5b611d7d83611837565b9150611b8360208401611837565b600080600080600060a08688031215611da357600080fd5b611dac86611837565b9450611dba60208701611837565b93506040860135925060608601359150608086013567ffffffffffffffff811115611de457600080fd5b611b5388828901611a42565b60008060408385031215611e0357600080fd5b82359150602083013560ff81168114611d5657600080fd5b600181811c90821680611e2f57607f821691505b60208210811415611e5057634e487b7160e01b600052602260045260246000fd5b50919050565b634e487b7160e01b600052603260045260246000fd5b634e487b7160e01b600052601160045260246000fd5b6000600019821415611e9657611e96611e6c565b5060010190565b6000816000190483118215151615611eb757611eb7611e6c565b500290565b600060208284031215611ece57600080fd5b81516111d981611d1c565b7f416363657373436f6e74726f6c3a206163636f756e7420000000000000000000815260008351611f118160178501602088016118cc565b7001034b99036b4b9b9b4b733903937b6329607d1b6017918401918201528351611f428160288401602088016118cc565b01602801949350505050565b60008219821115611f6157611f61611e6c565b500190565b60208082526025908201527f455243313135353a207472616e7366657220746f20746865207a65726f206164604082015264647265737360d81b606082015260800190565b6020808252602a908201527f455243313135353a20696e73756666696369656e742062616c616e636520666f60408201526939103a3930b739b332b960b11b606082015260800190565b6040815260006120086040830185611cb3565b828103602084015261201a8185611cb3565b95945050505050565b60008261204057634e487b7160e01b600052601260045260246000fd5b500690565b60008161205457612054611e6c565b506000190190565b6001600160a01b03868116825285166020820152604081018490526060810183905260a060808201819052600090612096908301846118f8565b979650505050505050565b6000602082840312156120b357600080fd5b81516111d98161187d565b600060033d11156120d75760046000803e5060005160e01c5b90565b600060443d10156120e85790565b6040516003193d81016004833e81513d67ffffffffffffffff816024840111818411171561211857505050505090565b82850191508151818111156121305750505050505090565b843d870101602082850101111561214a5750505050505090565b61215960208286010187611980565b509095945050505050565b60208082526028908201527f455243313135353a204552433131353552656365697665722072656a656374656040820152676420746f6b656e7360c01b606082015260800190565b6001600160a01b0386811682528516602082015260a0604082018190526000906121d890830186611cb3565b82810360608401526121ea8186611cb3565b905082810360808401526121fe81856118f8565b9897505050505050505056fefdf81848136595c31bb5f76217767372bc4bf906663038eb38381131ea27ecbaa2646970667358221220c73bb784f8c7dd96fe0be3f7efc1430fb2c6b57bff5ba1a067f6dee3157fa9d764736f6c63430008090033",
  "immutableReferences": {},
  "source": "// SPDX-License-Identifier: SimPL-2.0\n\npragma solidity ^0.8.0;\npragma experimental ABIEncoderV2;\n\nimport \"@openzeppelin/contracts/token/ERC1155/ERC1155.sol\";\nimport \"@openzeppelin/contracts/access/AccessControl.sol\";\nimport \"@openzeppelin/contracts/token/ERC20/IERC20.sol\";\n\nimport \"@openzeppelin/contracts/utils/Address.sol\";\nimport \"@openzeppelin/contracts/utils/math/SafeMath.sol\";\n\n/**\n* @title BattleShop - Romance of the Three Kingdoms Battle Shop\n*\n*\n* Docs: \n*\n* Version v1.1.0\n*\n*/\n\ncontract BattleShop is ERC1155, AccessControl {\n    using SafeMath for uint256;\n\n    bytes32 public constant MINT_ROLE = keccak256(\"MINT\");\n\n    uint256 public constant PCT_BASE = 1e18;\n\n    struct ItemDetail {\n        uint256 tokenId; // ID\n        bytes32 name; // \n        uint8 speedAddition; //\n    }\n\n    uint256 public lootBoxPrice = 2000e18;\n    uint256 public tokenListLength;\n    mapping (uint256 => ItemDetail) public _items;\n    address public feeRecipient = 0x8F3b8f3046dEb7C4E227dC0c6379051755Ba3142;\n    IERC20 public MMC; \n\n    constructor(address mmc) ERC1155 (\"Rich Battle Shop\") {\n        MMC = IERC20(mmc);\n        _grantRole(DEFAULT_ADMIN_ROLE, msg.sender);\n        _addItem(\"01\", 5); //0\n        _addItem(\"02\", 10); //1\n        _addItem(\"03\", 15); //2\n        _addItem(\"04\", 20); //3\n        _addItem(\"05\", 25); //4\n    }\n\n    function addItem(bytes32 name, uint8 speedAddition) public onlyRole(MINT_ROLE) returns (uint256) {\n        return _addItem(name, speedAddition);\n    }\n\n    function _addItem(bytes32 name, uint8 speedAddition) internal returns (uint256) {\n        uint256 tokenId = tokenListLength++;\n        _items[tokenId] = ItemDetail(\n            tokenId, \n            name,\n            speedAddition\n        );\n        return tokenId;\n    }\n\n    // function setItem(uint256 tokenId, uint8 priceToken, uint256 price) public onlyRole(MINT_ROLE) {\n    //     _items[tokenId].price = price.mul(PCT_BASE);\n    //     _items[tokenId].priceToken = priceToken;\n    // }\n\n    function mint(\n        address account, uint256 tokenId, uint256 amount\n    ) public onlyRole(MINT_ROLE) {\n        _mint(account, tokenId, amount, \"\");\n    }\n\n    function buy(\n        uint256 amount\n    ) public onlyRole(MINT_ROLE) {\n        require(msg.sender == tx.origin, \"NOT EOA\");\n        bool s = MMC.transferFrom(msg.sender, feeRecipient, lootBoxPrice.mul(amount));\n        require(s, \"Transfer Invalid\");\n        for (uint256 i = 0; i < amount; i++) {\n            uint8 tokenId = uint8(_random(5, i));\n            _mint(msg.sender, tokenId, 1, \"\");\n        }\n    }\n\n    function setPrice(\n        uint256 price\n    ) public onlyRole(MINT_ROLE) {\n        lootBoxPrice = price * 1e18;\n    }\n\n    function _random(uint256 _value, uint256 index) private view returns (uint64) {\n        bytes memory seed = abi.encodePacked(block.timestamp, index, msg.sender);\n        return uint64(uint256(keccak256(seed)) % _value);\n    }\n\n    function getAllItems() public view returns (ItemDetail[] memory) {\n        uint256 len = tokenListLength;\n        ItemDetail[] memory list = new ItemDetail[](len);\n        for (uint256 i = 0; i < len; i++) {\n            list[i] = _items[i];\n        }\n        return list;\n    }\n\n    function ownList(address account) public view returns (uint256[] memory) {\n        uint256 len = tokenListLength;\n        uint256[] memory list = new uint256[](len);\n        for (uint256 i = 0; i < len; i++) {\n            list[i] = balanceOf(account, i);\n        }\n        return list;\n    }\n    \n    function supportsInterface(bytes4 interfaceId) public view virtual\n        override(ERC1155, AccessControl) returns (bool) {\n        return super.supportsInterface(interfaceId);\n    }\n}",
  "sourcePath": "/Users/hy/new-rich-contract/contracts/BattleShop.sol",
  "compiler": {
    "name": "solc",
    "version": "0.8.9+commit.e5eed63a.Emscripten.clang"
  },
  "schemaVersion": "3.4.3",
  "updatedAt": "2022-03-23T13:53:49.407Z",
  "networkType": "ethereum",
  "devdoc": {
    "kind": "dev",
    "methods": {
      "balanceOf(address,uint256)": {
        "details": "See {IERC1155-balanceOf}. Requirements: - `account` cannot be the zero address."
      },
      "balanceOfBatch(address[],uint256[])": {
        "details": "See {IERC1155-balanceOfBatch}. Requirements: - `accounts` and `ids` must have the same length."
      },
      "getRoleAdmin(bytes32)": {
        "details": "Returns the admin role that controls `role`. See {grantRole} and {revokeRole}. To change a role's admin, use {_setRoleAdmin}."
      },
      "grantRole(bytes32,address)": {
        "details": "Grants `role` to `account`. If `account` had not been already granted `role`, emits a {RoleGranted} event. Requirements: - the caller must have ``role``'s admin role."
      },
      "hasRole(bytes32,address)": {
        "details": "Returns `true` if `account` has been granted `role`."
      },
      "isApprovedForAll(address,address)": {
        "details": "See {IERC1155-isApprovedForAll}."
      },
      "renounceRole(bytes32,address)": {
        "details": "Revokes `role` from the calling account. Roles are often managed via {grantRole} and {revokeRole}: this function's purpose is to provide a mechanism for accounts to lose their privileges if they are compromised (such as when a trusted device is misplaced). If the calling account had been revoked `role`, emits a {RoleRevoked} event. Requirements: - the caller must be `account`."
      },
      "revokeRole(bytes32,address)": {
        "details": "Revokes `role` from `account`. If `account` had been granted `role`, emits a {RoleRevoked} event. Requirements: - the caller must have ``role``'s admin role."
      },
      "safeBatchTransferFrom(address,address,uint256[],uint256[],bytes)": {
        "details": "See {IERC1155-safeBatchTransferFrom}."
      },
      "safeTransferFrom(address,address,uint256,uint256,bytes)": {
        "details": "See {IERC1155-safeTransferFrom}."
      },
      "setApprovalForAll(address,bool)": {
        "details": "See {IERC1155-setApprovalForAll}."
      },
      "uri(uint256)": {
        "details": "See {IERC1155MetadataURI-uri}. This implementation returns the same URI for *all* token types. It relies on the token type ID substitution mechanism https://eips.ethereum.org/EIPS/eip-1155#metadata[defined in the EIP]. Clients calling this function must replace the `\\{id\\}` substring with the actual token type ID."
      }
    },
    "title": "BattleShop - Romance of the Three Kingdoms Battle Shop Docs:  Version v1.1.0",
    "version": 1
  },
  "userdoc": {
    "kind": "user",
    "methods": {},
    "notice": "",
    "version": 1
  }
}