{
  "contractName": "Bet",
  "abi": [
    {
      "inputs": [
        {
          "internalType": "address",
          "name": "battle",
          "type": "address"
        },
        {
          "internalType": "address",
          "name": "mmc",
          "type": "address"
        }
      ],
      "stateMutability": "nonpayable",
      "type": "constructor"
    },
    {
      "anonymous": false,
      "inputs": [
        {
          "indexed": true,
          "internalType": "address",
          "name": "previousOwner",
          "type": "address"
        },
        {
          "indexed": true,
          "internalType": "address",
          "name": "newOwner",
          "type": "address"
        }
      ],
      "name": "OwnershipTransferred",
      "type": "event"
    },
    {
      "inputs": [],
      "name": "PCT_BASE",
      "outputs": [
        {
          "internalType": "uint256",
          "name": "",
          "type": "uint256"
        }
      ],
      "stateMutability": "view",
      "type": "function",
      "constant": true
    },
    {
      "inputs": [
        {
          "internalType": "address",
          "name": "",
          "type": "address"
        },
        {
          "internalType": "uint8",
          "name": "",
          "type": "uint8"
        }
      ],
      "name": "betInfos",
      "outputs": [
        {
          "internalType": "uint256",
          "name": "",
          "type": "uint256"
        }
      ],
      "stateMutability": "view",
      "type": "function",
      "constant": true
    },
    {
      "inputs": [
        {
          "internalType": "uint8",
          "name": "",
          "type": "uint8"
        }
      ],
      "name": "campPool",
      "outputs": [
        {
          "internalType": "uint256",
          "name": "",
          "type": "uint256"
        }
      ],
      "stateMutability": "view",
      "type": "function",
      "constant": true
    },
    {
      "inputs": [],
      "name": "initBetPool",
      "outputs": [
        {
          "internalType": "uint256",
          "name": "",
          "type": "uint256"
        }
      ],
      "stateMutability": "view",
      "type": "function",
      "constant": true
    },
    {
      "inputs": [],
      "name": "owner",
      "outputs": [
        {
          "internalType": "address",
          "name": "",
          "type": "address"
        }
      ],
      "stateMutability": "view",
      "type": "function",
      "constant": true
    },
    {
      "inputs": [],
      "name": "renounceOwnership",
      "outputs": [],
      "stateMutability": "nonpayable",
      "type": "function"
    },
    {
      "inputs": [],
      "name": "totalBetPool",
      "outputs": [
        {
          "internalType": "uint256",
          "name": "",
          "type": "uint256"
        }
      ],
      "stateMutability": "view",
      "type": "function",
      "constant": true
    },
    {
      "inputs": [
        {
          "internalType": "address",
          "name": "newOwner",
          "type": "address"
        }
      ],
      "name": "transferOwnership",
      "outputs": [],
      "stateMutability": "nonpayable",
      "type": "function"
    },
    {
      "inputs": [],
      "name": "getOdds",
      "outputs": [
        {
          "internalType": "uint256[4]",
          "name": "odds",
          "type": "uint256[4]"
        }
      ],
      "stateMutability": "view",
      "type": "function",
      "constant": true
    },
    {
      "inputs": [
        {
          "internalType": "uint8",
          "name": "camp",
          "type": "uint8"
        },
        {
          "internalType": "uint256",
          "name": "amount",
          "type": "uint256"
        }
      ],
      "name": "bet",
      "outputs": [],
      "stateMutability": "nonpayable",
      "type": "function"
    },
    {
      "inputs": [],
      "name": "claimBet",
      "outputs": [],
      "stateMutability": "nonpayable",
      "type": "function"
    },
    {
      "inputs": [
        {
          "internalType": "address",
          "name": "account",
          "type": "address"
        }
      ],
      "name": "getClaimBet",
      "outputs": [
        {
          "internalType": "uint256",
          "name": "",
          "type": "uint256"
        }
      ],
      "stateMutability": "view",
      "type": "function",
      "constant": true
    }
  ],
  "bytecode": "0x608060405269152d02c7e14af68000006003819055600455600780546001600160a01b031916738f3b8f3046deb7c4e227dc0c6379051755ba314217905534801561004957600080fd5b506040516112923803806112928339810160408190526100689161010e565b610071336100a2565b600180546001600160a01b039384166001600160a01b03199182161790915560028054929093169116179055610141565b600080546001600160a01b038381166001600160a01b0319831681178455604051919092169283917f8be0079c531659141344cd1fd0a4f28419497f9722a3daafe3b4186f6b6457e09190a35050565b80516001600160a01b038116811461010957600080fd5b919050565b6000806040838503121561012157600080fd5b61012a836100f2565b9150610138602084016100f2565b90509250929050565b611142806101506000396000f3fe608060405234801561001057600080fd5b50600436106100b45760003560e01c80637c695384116100715780637c695384146101475780638da5cb5b1461015a578063d999171b14610175578063f2fde38b14610188578063fc157cb41461019b578063fef82841146101a457600080fd5b806303b67592146100b95780630e02dcd6146100d5578063112a322c146100df5780634c5be5741461010a5780636d1cd3781461011f578063715018a61461013f575b600080fd5b6100c260045481565b6040519081526020015b60405180910390f35b6100dd6101ad565b005b6100c26100ed366004610db1565b600660209081526000928352604080842090915290825290205481565b6101126104e1565b6040516100cc9190610de8565b6100c261012d366004610e19565b60056020526000908152604090205481565b6100dd61071e565b6100dd610155366004610e36565b610784565b6000546040516001600160a01b0390911681526020016100cc565b6100c2610183366004610e62565b6109ad565b6100dd610196366004610e62565b610c22565b6100c26103e881565b6100c260035481565b600160009054906101000a90046001600160a01b03166001600160a01b0316634c5eb27e6040518163ffffffff1660e01b815260040160206040518083038186803b1580156101fb57600080fd5b505afa15801561020f573d6000803e3d6000fd5b505050506040513d601f19601f820116820180604052508101906102339190610e7d565b67ffffffffffffffff1642116102895760405162461bcd60e51b81526020600482015260166024820152752a3432903130ba3a36329034b9903737ba1037bb32b960511b60448201526064015b60405180910390fd5b6001546040805163d311aee760e01b815290516000926001600160a01b03169163d311aee791600480830192610100929190829003018186803b1580156102cf57600080fd5b505afa1580156102e3573d6000803e3d6000fd5b505050506040513d601f19601f820116820180604052508101906103079190610ede565b336000908152600660209081526040808320845160ff1684529091529020549092509050806103635760405162461bcd60e51b81526020600482015260086024820152674e6f20626f6e757360c01b6044820152606401610280565b815160ff16600090815260056020526040812054600454610390919061038a908590610ced565b90610d00565b6002549091506001600160a01b031663a9059cbb336103b5606461038a86605a610ced565b6040516001600160e01b031960e085901b1681526001600160a01b0390921660048301526024820152604401602060405180830381600087803b1580156103fb57600080fd5b505af115801561040f573d6000803e3d6000fd5b505050506040513d601f19601f820116820180604052508101906104339190610f96565b506002546007546001600160a01b039182169163a9059cbb911661045d606461038a86600a610ced565b6040516001600160e01b031960e085901b1681526001600160a01b0390921660048301526024820152604401602060405180830381600087803b1580156104a357600080fd5b505af11580156104b7573d6000803e3d6000fd5b505050506040513d601f19601f820116820180604052508101906104db9190610f96565b50505050565b6104e9610d68565b6000805260056020526000805160206110ed833981519152546105849061051890670de0b6b3a7640000610d0c565b600560205260008051602061108d833981519152546000805160206110cd8339815191525460016000526000805160206110ad8339815191525460035461038a936064939092909161056a9190610fce565b6105749190610fce565b61057e9190610fce565b90610ced565b8152600160005260056020526000805160206110ad83398151915254610607906105b690670de0b6b3a7640000610d0c565b600560205260008051602061108d833981519152546000805160206110cd83398151915254600080526000805160206110ed8339815191525460035461038a936064939092909161056a9190610fce565b6020808301919091526002600052600590526000805160206110cd833981519152546106909061063f90670de0b6b3a7640000610d0c565b600560205260008051602061108d833981519152546000805160206110ad83398151915254600080526000805160206110ed8339815191525460035461038a936064939092909161056a9190610fce565b60408201526003600052600560205260008051602061108d83398151915254610716906106c590670de0b6b3a7640000610d0c565b60056020526000805160206110cd833981519152546000805160206110ad83398151915254600080526000805160206110ed8339815191525460035461038a936064939092909161056a9190610fce565b606082015290565b6000546001600160a01b031633146107785760405162461bcd60e51b815260206004820181905260248201527f4f776e61626c653a2063616c6c6572206973206e6f7420746865206f776e65726044820152606401610280565b6107826000610d18565b565b60048260ff161061079457600080fd5b6002546040516323b872dd60e01b8152336004820152306024820152604481018390526001600160a01b03909116906323b872dd90606401602060405180830381600087803b1580156107e657600080fd5b505af11580156107fa573d6000803e3d6000fd5b505050506040513d601f19601f8201168201806040525081019061081e9190610f96565b61082757600080fd5b600160009054906101000a90046001600160a01b03166001600160a01b031663463a9d856040518163ffffffff1660e01b815260040160206040518083038186803b15801561087557600080fd5b505afa158015610889573d6000803e3d6000fd5b505050506040513d601f19601f820116820180604052508101906108ad9190610e7d565b6108ba906203f480610fe6565b67ffffffffffffffff1642106109205760405162461bcd60e51b815260206004820152602560248201527f426574206f6e6c79206f70656e20696e20746865206669727374207468726565604482015264206461797360d81b6064820152608401610280565b33600090815260066020908152604080832060ff861684529091529020546109489082610d0c565b33600090815260066020908152604080832060ff871684529091529020556004546109739082610d0c565b60045560ff82166000908152600560205260409020546109939082610d0c565b60ff90921660009081526005602052604090209190915550565b6001546040805163262f593f60e11b815290516000926001600160a01b031691634c5eb27e916004808301926020929190829003018186803b1580156109f257600080fd5b505afa158015610a06573d6000803e3d6000fd5b505050506040513d601f19601f82011682018060405250810190610a2a9190610e7d565b67ffffffffffffffff16421015610a7c5760405162461bcd60e51b81526020600482015260166024820152752a3432903130ba3a36329034b9903737ba1037bb32b960511b6044820152606401610280565b60008060005b60048160ff161015610ba85760015460405163c4cdd5bb60e01b815260ff8316600482015283916001600160a01b03169063c4cdd5bb9060240160206040518083038186803b158015610ad457600080fd5b505afa158015610ae8573d6000803e3d6000fd5b505050506040513d601f19601f82011682018060405250810190610b0c9190611012565b1115610b965760015460405163c4cdd5bb60e01b815260ff831660048201526001600160a01b039091169063c4cdd5bb9060240160206040518083038186803b158015610b5857600080fd5b505afa158015610b6c573d6000803e3d6000fd5b505050506040513d601f19601f82011682018060405250810190610b909190611012565b91508092505b80610ba08161102b565b915050610a82565b506001600160a01b038416600090815260066020908152604080832060ff8616845290915290205480610be057506000949350505050565b60ff8316600090815260056020526040812054600454610c06919061038a908590610ced565b9050610c18606461038a83605a610ced565b9695505050505050565b6000546001600160a01b03163314610c7c5760405162461bcd60e51b815260206004820181905260248201527f4f776e61626c653a2063616c6c6572206973206e6f7420746865206f776e65726044820152606401610280565b6001600160a01b038116610ce15760405162461bcd60e51b815260206004820152602660248201527f4f776e61626c653a206e6577206f776e657220697320746865207a65726f206160448201526564647265737360d01b6064820152608401610280565b610cea81610d18565b50565b6000610cf9828461104b565b9392505050565b6000610cf9828461106a565b6000610cf98284610fce565b600080546001600160a01b038381166001600160a01b0319831681178455604051919092169283917f8be0079c531659141344cd1fd0a4f28419497f9722a3daafe3b4186f6b6457e09190a35050565b60405180608001604052806004906020820280368337509192915050565b80356001600160a01b0381168114610d9d57600080fd5b919050565b60ff81168114610cea57600080fd5b60008060408385031215610dc457600080fd5b610dcd83610d86565b91506020830135610ddd81610da2565b809150509250929050565b60808101818360005b6004811015610e10578151835260209283019290910190600101610df1565b50505092915050565b600060208284031215610e2b57600080fd5b8135610cf981610da2565b60008060408385031215610e4957600080fd5b8235610e5481610da2565b946020939093013593505050565b600060208284031215610e7457600080fd5b610cf982610d86565b600060208284031215610e8f57600080fd5b815167ffffffffffffffff81168114610cf957600080fd5b6040516080810167ffffffffffffffff81118282101715610ed857634e487b7160e01b600052604160045260246000fd5b60405290565b600080610100808486031215610ef357600080fd5b84601f850112610f0257600080fd5b610f0a610ea7565b806080860187811115610f1c57600080fd5b865b81811015610f36578051845260209384019301610f1e565b5081955087609f880112610f4957600080fd5b610f51610ea7565b93870193925082915087841115610f6757600080fd5b83811015610f88578051610f7a81610da2565b835260209283019201610f67565b508093505050509250929050565b600060208284031215610fa857600080fd5b81518015158114610cf957600080fd5b634e487b7160e01b600052601160045260246000fd5b60008219821115610fe157610fe1610fb8565b500190565b600067ffffffffffffffff80831681851680830382111561100957611009610fb8565b01949350505050565b60006020828403121561102457600080fd5b5051919050565b600060ff821660ff81141561104257611042610fb8565b60010192915050565b600081600019048311821515161561106557611065610fb8565b500290565b60008261108757634e487b7160e01b600052601260045260246000fd5b50049056fea9bc9a3a348c357ba16b37005d7e6b3236198c0e939f4af8c5f19b8deeb8ebc01471eb6eb2c5e789fc3de43f8ce62938c7d1836ec861730447e2ada8fd81017b89832631fb3c3307a103ba2c84ab569c64d6182a18893dcd163f0f1c2090733a05b8ccbb9d4d8fb16ea74ce3c29a41f1b461fbdaff4714a0d9a8eb05499746bca2646970667358221220abf853e89c425261354d14a237d7ed63b39c79eeb7007bca0bd48e9fdc652c3364736f6c63430008090033",
  "immutableReferences": {},
  "source": "// SPDX-License-Identifier: SimPL-2.0\n\npragma solidity ^0.8.0;\npragma experimental ABIEncoderV2;\n\nimport \"./Battle.sol\";\n\nimport \"@openzeppelin/contracts/access/Ownable.sol\";\nimport \"@openzeppelin/contracts/access/AccessControl.sol\";\nimport \"@openzeppelin/contracts/token/ERC20/IERC20.sol\";\n\nimport \"@openzeppelin/contracts/utils/Address.sol\";\nimport \"@openzeppelin/contracts/utils/math/SafeMath.sol\";\n\n/**\n* @title Battle - Romance of the Three Kingdoms Battle\n*\n*\n* Docs: \n*\n* Version v1.1.0\n*\n*/\n\ncontract Bet is Ownable {\n    using SafeMath for uint256;\n\n    uint256 public constant PCT_BASE = 1000;\n\n    Battle BATTLE;\n    IERC20 MMC; \n    \n    uint256 public initBetPool = 100000e18;\n    uint256 public totalBetPool = 100000e18;\n    mapping (uint8 => uint256) public campPool;\n    mapping (address => mapping(uint8 => uint256)) public betInfos;\n\n    address feeRecipient = 0x8F3b8f3046dEb7C4E227dC0c6379051755Ba3142;\n\n    modifier battleOpen() {\n        require(BATTLE.battleStartTime() != 0 && block.timestamp >= BATTLE.battleStartTime() && block.timestamp <= BATTLE.battleEndTime(), \"The battle is not open\");\n        _;\n    }\n\n    modifier battleClose() {\n        require(block.timestamp > BATTLE.battleEndTime(), \"The battle is not over\");\n        _;\n    }\n\n    constructor(address battle, address mmc) {\n        BATTLE = Battle(battle);\n        MMC = IERC20(mmc);\n    }\n\n    //---------------    \n    //\n    function getOdds() public view returns (uint256[4] memory odds) {\n        odds[0] = (initBetPool + campPool[1] + campPool[2] + campPool[3]).mul(100).div(campPool[0].add(1e18));\n        odds[1] = (initBetPool + campPool[0] + campPool[2] + campPool[3]).mul(100).div(campPool[1].add(1e18));\n        odds[2] = (initBetPool + campPool[0] + campPool[1] + campPool[3]).mul(100).div(campPool[2].add(1e18));\n        odds[3] = (initBetPool + campPool[0] + campPool[1] + campPool[2]).mul(100).div(campPool[3].add(1e18));\n    }\n\n    // MMC\n    function bet(uint8 camp, uint256 amount) public {\n        require(camp < 4);\n        require(MMC.transferFrom(msg.sender, address(this), amount));\n        require(block.timestamp < BATTLE.battleStartTime() + 3 days, \"Bet only open in the first three days\");\n        betInfos[msg.sender][camp] = betInfos[msg.sender][camp].add(amount);\n        totalBetPool = totalBetPool.add(amount);\n        campPool[camp] = campPool[camp].add(amount);\n    }\n\n    //\n    function claimBet() public battleClose {\n        (, uint8[4] memory campRank) = BATTLE.getCampArrivePower();\n        uint256 betAmount = betInfos[msg.sender][campRank[0]];\n        require(betAmount > 0, \"No bonus\");\n        uint256 bonus = betAmount.mul(totalBetPool).div(campPool[campRank[0]]);\n        MMC.transfer(msg.sender, bonus.mul(90).div(100));\n        MMC.transfer(feeRecipient, bonus.mul(10).div(100));\n    }\n\n    //\n    function getClaimBet(address account) public view returns(uint256) {\n        require(block.timestamp >= BATTLE.battleEndTime(), \"The battle is not over\");\n        uint8 maxPowerCamp;\n        uint256 maxPower;\n        for (uint8 i = 0; i < 4; i++) {\n            if (BATTLE.arrivePower(i) > maxPower) {\n                maxPower = BATTLE.arrivePower(i);\n                maxPowerCamp = i;\n            }\n        }\n        uint256 betAmount = betInfos[account][maxPowerCamp];\n        if (betAmount == 0) {\n            return 0;\n        }\n        uint256 bonus = betAmount.mul(totalBetPool).div(campPool[maxPowerCamp]);\n        return bonus.mul(90).div(100);\n    }\n}",
  "sourcePath": "/Users/hy/new-rich-contract/contracts/Bet.sol",
  "compiler": {
    "name": "solc",
    "version": "0.8.9+commit.e5eed63a.Emscripten.clang"
  },
  "schemaVersion": "3.4.3",
  "updatedAt": "2022-03-23T15:53:26.562Z",
  "networkType": "ethereum",
  "devdoc": {
    "kind": "dev",
    "methods": {
      "owner()": {
        "details": "Returns the address of the current owner."
      },
      "renounceOwnership()": {
        "details": "Leaves the contract without owner. It will not be possible to call `onlyOwner` functions anymore. Can only be called by the current owner. NOTE: Renouncing ownership will leave the contract without an owner, thereby removing any functionality that is only available to the owner."
      },
      "transferOwnership(address)": {
        "details": "Transfers ownership of the contract to a new account (`newOwner`). Can only be called by the current owner."
      }
    },
    "title": "Battle - Romance of the Three Kingdoms Battle Docs:  Version v1.1.0",
    "version": 1
  },
  "userdoc": {
    "kind": "user",
    "methods": {},
    "notice": "",
    "version": 1
  }
}