{
  "contractName": "Bet",
  "abi": [
    {
      "inputs": [
        {
          "internalType": "address",
          "name": "battle",
          "type": "address"
        },
        {
          "internalType": "address",
          "name": "mmc",
          "type": "address"
        }
      ],
      "stateMutability": "nonpayable",
      "type": "constructor"
    },
    {
      "anonymous": false,
      "inputs": [
        {
          "indexed": true,
          "internalType": "address",
          "name": "previousOwner",
          "type": "address"
        },
        {
          "indexed": true,
          "internalType": "address",
          "name": "newOwner",
          "type": "address"
        }
      ],
      "name": "OwnershipTransferred",
      "type": "event"
    },
    {
      "inputs": [],
      "name": "PCT_BASE",
      "outputs": [
        {
          "internalType": "uint256",
          "name": "",
          "type": "uint256"
        }
      ],
      "stateMutability": "view",
      "type": "function",
      "constant": true
    },
    {
      "inputs": [
        {
          "internalType": "address",
          "name": "",
          "type": "address"
        },
        {
          "internalType": "uint8",
          "name": "",
          "type": "uint8"
        }
      ],
      "name": "betInfos",
      "outputs": [
        {
          "internalType": "uint256",
          "name": "",
          "type": "uint256"
        }
      ],
      "stateMutability": "view",
      "type": "function",
      "constant": true
    },
    {
      "inputs": [
        {
          "internalType": "uint8",
          "name": "",
          "type": "uint8"
        }
      ],
      "name": "campPool",
      "outputs": [
        {
          "internalType": "uint256",
          "name": "",
          "type": "uint256"
        }
      ],
      "stateMutability": "view",
      "type": "function",
      "constant": true
    },
    {
      "inputs": [],
      "name": "owner",
      "outputs": [
        {
          "internalType": "address",
          "name": "",
          "type": "address"
        }
      ],
      "stateMutability": "view",
      "type": "function",
      "constant": true
    },
    {
      "inputs": [],
      "name": "renounceOwnership",
      "outputs": [],
      "stateMutability": "nonpayable",
      "type": "function"
    },
    {
      "inputs": [],
      "name": "totalBetPool",
      "outputs": [
        {
          "internalType": "uint256",
          "name": "",
          "type": "uint256"
        }
      ],
      "stateMutability": "view",
      "type": "function",
      "constant": true
    },
    {
      "inputs": [
        {
          "internalType": "address",
          "name": "newOwner",
          "type": "address"
        }
      ],
      "name": "transferOwnership",
      "outputs": [],
      "stateMutability": "nonpayable",
      "type": "function"
    },
    {
      "inputs": [],
      "name": "getOdds",
      "outputs": [
        {
          "internalType": "uint256[]",
          "name": "odds",
          "type": "uint256[]"
        }
      ],
      "stateMutability": "view",
      "type": "function",
      "constant": true
    },
    {
      "inputs": [
        {
          "internalType": "uint8",
          "name": "camp",
          "type": "uint8"
        },
        {
          "internalType": "uint256",
          "name": "amount",
          "type": "uint256"
        }
      ],
      "name": "bet",
      "outputs": [],
      "stateMutability": "nonpayable",
      "type": "function"
    },
    {
      "inputs": [],
      "name": "claimBet",
      "outputs": [],
      "stateMutability": "nonpayable",
      "type": "function"
    },
    {
      "inputs": [
        {
          "internalType": "address",
          "name": "account",
          "type": "address"
        }
      ],
      "name": "getClaimBet",
      "outputs": [
        {
          "internalType": "uint256",
          "name": "",
          "type": "uint256"
        }
      ],
      "stateMutability": "view",
      "type": "function",
      "constant": true
    }
  ],
  "bytecode": "0x608060405269152d02c7e14af6800000600355600680546001600160a01b031916738f3b8f3046deb7c4e227dc0c6379051755ba314217905534801561004457600080fd5b506040516112b53803806112b583398101604081905261006391610109565b61006c3361009d565b600180546001600160a01b039384166001600160a01b0319918216179091556002805492909316911617905561013c565b600080546001600160a01b038381166001600160a01b0319831681178455604051919092169283917f8be0079c531659141344cd1fd0a4f28419497f9722a3daafe3b4186f6b6457e09190a35050565b80516001600160a01b038116811461010457600080fd5b919050565b6000806040838503121561011c57600080fd5b610125836100ed565b9150610133602084016100ed565b90509250929050565b61116a8061014b6000396000f3fe608060405234801561001057600080fd5b50600436106100a95760003560e01c8063715018a611610071578063715018a6146101345780637c6953841461013c5780638da5cb5b1461014f578063d999171b1461016a578063f2fde38b1461017d578063fc157cb41461019057600080fd5b806303b67592146100ae5780630e02dcd6146100ca578063112a322c146100d45780634c5be574146100ff5780636d1cd37814610114575b600080fd5b6100b760035481565b6040519081526020015b60405180910390f35b6100d2610199565b005b6100b76100e2366004610db0565b600560209081526000928352604080842090915290825290205481565b6101076104cd565b6040516100c19190610de7565b6100b7610122366004610e2b565b60046020526000908152604090205481565b6100d261073b565b6100d261014a366004610e48565b6107a1565b6000546040516001600160a01b0390911681526020016100c1565b6100b7610178366004610e74565b6109ca565b6100d261018b366004610e74565b610c3f565b6100b76103e881565b600160009054906101000a90046001600160a01b03166001600160a01b0316634c5eb27e6040518163ffffffff1660e01b815260040160206040518083038186803b1580156101e757600080fd5b505afa1580156101fb573d6000803e3d6000fd5b505050506040513d601f19601f8201168201806040525081019061021f9190610e8f565b67ffffffffffffffff1642116102755760405162461bcd60e51b81526020600482015260166024820152752a3432903130ba3a36329034b9903737ba1037bb32b960511b60448201526064015b60405180910390fd5b6001546040805163d311aee760e01b815290516000926001600160a01b03169163d311aee791600480830192610100929190829003018186803b1580156102bb57600080fd5b505afa1580156102cf573d6000803e3d6000fd5b505050506040513d601f19601f820116820180604052508101906102f39190610ef0565b336000908152600560209081526040808320845160ff16845290915290205490925090508061034f5760405162461bcd60e51b81526020600482015260086024820152674e6f20626f6e757360c01b604482015260640161026c565b815160ff1660009081526004602052604081205460035461037c9190610376908590610d0a565b90610d1d565b6002549091506001600160a01b031663a9059cbb336103a1606461037686605a610d0a565b6040516001600160e01b031960e085901b1681526001600160a01b0390921660048301526024820152604401602060405180830381600087803b1580156103e757600080fd5b505af11580156103fb573d6000803e3d6000fd5b505050506040513d601f19601f8201168201806040525081019061041f9190610fbe565b506002546006546001600160a01b039182169163a9059cbb9116610449606461037686600a610d0a565b6040516001600160e01b031960e085901b1681526001600160a01b0390921660048301526024820152604401602060405180830381600087803b15801561048f57600080fd5b505af11580156104a3573d6000803e3d6000fd5b505050506040513d601f19601f820116820180604052508101906104c79190610fbe565b50505050565b6000805260046020526000805160206110d583398151915254606090610555906104f8906001610d29565b60046020526000805160206110f5833981519152546000805160206111158339815191525460016000526000805160206110b5833981519152546103769260649290916105459190610ff6565b61054f9190610ff6565b90610d0a565b8160008151811061056857610568610fa8565b6020908102919091018101919091526001600081905260049091526000805160206110b5833981519152546105ed916105a19190610d29565b60046020526000805160206110f58339815191525460008051602061111583398151915254600080526000805160206110d5833981519152546103769260649290916105459190610ff6565b8160018151811061060057610600610fa8565b6020908102919091018101919091526002600052600490526000805160206111158339815191525461068390610637906001610d29565b60046020526000805160206110f5833981519152546000805160206110b583398151915254600080526000805160206110d5833981519152546103769260649290916105459190610ff6565b8160028151811061069657610696610fa8565b6020908102919091018101919091526003600052600490526000805160206110f583398151915254610719906106cd906001610d29565b6004602052600080516020611115833981519152546000805160206110b583398151915254600080526000805160206110d5833981519152546103769260649290916105459190610ff6565b8160038151811061072c5761072c610fa8565b60200260200101818152505090565b6000546001600160a01b031633146107955760405162461bcd60e51b815260206004820181905260248201527f4f776e61626c653a2063616c6c6572206973206e6f7420746865206f776e6572604482015260640161026c565b61079f6000610d35565b565b60048260ff16106107b157600080fd5b6002546040516323b872dd60e01b8152336004820152306024820152604481018390526001600160a01b03909116906323b872dd90606401602060405180830381600087803b15801561080357600080fd5b505af1158015610817573d6000803e3d6000fd5b505050506040513d601f19601f8201168201806040525081019061083b9190610fbe565b61084457600080fd5b600160009054906101000a90046001600160a01b03166001600160a01b031663463a9d856040518163ffffffff1660e01b815260040160206040518083038186803b15801561089257600080fd5b505afa1580156108a6573d6000803e3d6000fd5b505050506040513d601f19601f820116820180604052508101906108ca9190610e8f565b6108d7906203f48061100e565b67ffffffffffffffff16421061093d5760405162461bcd60e51b815260206004820152602560248201527f426574206f6e6c79206f70656e20696e20746865206669727374207468726565604482015264206461797360d81b606482015260840161026c565b33600090815260056020908152604080832060ff861684529091529020546109659082610d29565b33600090815260056020908152604080832060ff871684529091529020556003546109909082610d29565b60035560ff82166000908152600460205260409020546109b09082610d29565b60ff90921660009081526004602052604090209190915550565b6001546040805163262f593f60e11b815290516000926001600160a01b031691634c5eb27e916004808301926020929190829003018186803b158015610a0f57600080fd5b505afa158015610a23573d6000803e3d6000fd5b505050506040513d601f19601f82011682018060405250810190610a479190610e8f565b67ffffffffffffffff16421015610a995760405162461bcd60e51b81526020600482015260166024820152752a3432903130ba3a36329034b9903737ba1037bb32b960511b604482015260640161026c565b60008060005b60048160ff161015610bc55760015460405163c4cdd5bb60e01b815260ff8316600482015283916001600160a01b03169063c4cdd5bb9060240160206040518083038186803b158015610af157600080fd5b505afa158015610b05573d6000803e3d6000fd5b505050506040513d601f19601f82011682018060405250810190610b29919061103a565b1115610bb35760015460405163c4cdd5bb60e01b815260ff831660048201526001600160a01b039091169063c4cdd5bb9060240160206040518083038186803b158015610b7557600080fd5b505afa158015610b89573d6000803e3d6000fd5b505050506040513d601f19601f82011682018060405250810190610bad919061103a565b91508092505b80610bbd81611053565b915050610a9f565b506001600160a01b038416600090815260056020908152604080832060ff8616845290915290205480610bfd57506000949350505050565b60ff8316600090815260046020526040812054600354610c239190610376908590610d0a565b9050610c35606461037683605a610d0a565b9695505050505050565b6000546001600160a01b03163314610c995760405162461bcd60e51b815260206004820181905260248201527f4f776e61626c653a2063616c6c6572206973206e6f7420746865206f776e6572604482015260640161026c565b6001600160a01b038116610cfe5760405162461bcd60e51b815260206004820152602660248201527f4f776e61626c653a206e6577206f776e657220697320746865207a65726f206160448201526564647265737360d01b606482015260840161026c565b610d0781610d35565b50565b6000610d168284611073565b9392505050565b6000610d168284611092565b6000610d168284610ff6565b600080546001600160a01b038381166001600160a01b0319831681178455604051919092169283917f8be0079c531659141344cd1fd0a4f28419497f9722a3daafe3b4186f6b6457e09190a35050565b80356001600160a01b0381168114610d9c57600080fd5b919050565b60ff81168114610d0757600080fd5b60008060408385031215610dc357600080fd5b610dcc83610d85565b91506020830135610ddc81610da1565b809150509250929050565b6020808252825182820181905260009190848201906040850190845b81811015610e1f57835183529284019291840191600101610e03565b50909695505050505050565b600060208284031215610e3d57600080fd5b8135610d1681610da1565b60008060408385031215610e5b57600080fd5b8235610e6681610da1565b946020939093013593505050565b600060208284031215610e8657600080fd5b610d1682610d85565b600060208284031215610ea157600080fd5b815167ffffffffffffffff81168114610d1657600080fd5b6040516080810167ffffffffffffffff81118282101715610eea57634e487b7160e01b600052604160045260246000fd5b60405290565b600080610100808486031215610f0557600080fd5b84601f850112610f1457600080fd5b610f1c610eb9565b806080860187811115610f2e57600080fd5b865b81811015610f48578051845260209384019301610f30565b5081955087609f880112610f5b57600080fd5b610f63610eb9565b93870193925082915087841115610f7957600080fd5b83811015610f9a578051610f8c81610da1565b835260209283019201610f79565b508093505050509250929050565b634e487b7160e01b600052603260045260246000fd5b600060208284031215610fd057600080fd5b81518015158114610d1657600080fd5b634e487b7160e01b600052601160045260246000fd5b6000821982111561100957611009610fe0565b500190565b600067ffffffffffffffff80831681851680830382111561103157611031610fe0565b01949350505050565b60006020828403121561104c57600080fd5b5051919050565b600060ff821660ff81141561106a5761106a610fe0565b60010192915050565b600081600019048311821515161561108d5761108d610fe0565b500290565b6000826110af57634e487b7160e01b600052601260045260246000fd5b50049056feabd6e7cb50984ff9c2f3e18a2660c3353dadf4e3291deeb275dae2cd1e44fe0517ef568e3e12ab5b9c7254a8d58478811de00f9e6eb34345acd53bf8fd09d3ec2e174c10e159ea99b867ce3205125c24a42d128804e4070ed6fcc8cc98166aa091da3fd0782e51c6b3986e9e672fd566868e71f3dbc2d6c2cd6fbb3e361af2a7a26469706673582212201f582aa0e4bacc440a51b654710b318fa97bff9f2451176d1d5054348c667f2b64736f6c63430008090033",
  "immutableReferences": {},
  "source": "// SPDX-License-Identifier: SimPL-2.0\n\npragma solidity ^0.8.0;\npragma experimental ABIEncoderV2;\n\nimport \"./Battle.sol\";\n\nimport \"@openzeppelin/contracts/access/Ownable.sol\";\nimport \"@openzeppelin/contracts/access/AccessControl.sol\";\nimport \"@openzeppelin/contracts/token/ERC20/IERC20.sol\";\n\nimport \"@openzeppelin/contracts/utils/Address.sol\";\nimport \"@openzeppelin/contracts/utils/math/SafeMath.sol\";\n\n/**\n* @title Battle - Romance of the Three Kingdoms Battle\n*\n*\n* Docs: \n*\n* Version v1.1.0\n*\n*/\n\ncontract Bet is Ownable {\n    using SafeMath for uint256;\n\n    uint256 public constant PCT_BASE = 1000;\n\n    Battle BATTLE;\n    IERC20 MMC; \n    \n    uint256 public totalBetPool = 100000e18;\n    mapping (uint8 => uint256) public campPool;\n    mapping (address => mapping(uint8 => uint256)) public betInfos;\n\n    address feeRecipient = 0x8F3b8f3046dEb7C4E227dC0c6379051755Ba3142;\n\n    modifier battleOpen() {\n        require(BATTLE.battleStartTime() != 0 && block.timestamp >= BATTLE.battleStartTime() && block.timestamp <= BATTLE.battleEndTime(), \"The battle is not open\");\n        _;\n    }\n\n    modifier battleClose() {\n        require(block.timestamp > BATTLE.battleEndTime(), \"The battle is not over\");\n        _;\n    }\n\n    constructor(address battle, address mmc) {\n        BATTLE = Battle(battle);\n        MMC = IERC20(mmc);\n    }\n\n    //---------------    \n    //\n    function getOdds() public view returns (uint256[] memory odds) {\n        odds[0] = (campPool[1] + campPool[2] + campPool[3]).mul(100).div(campPool[0].add(1));\n        odds[1] = (campPool[0] + campPool[2] + campPool[3]).mul(100).div(campPool[1].add(1));\n        odds[2] = (campPool[0] + campPool[1] + campPool[3]).mul(100).div(campPool[2].add(1));\n        odds[3] = (campPool[0] + campPool[1] + campPool[2]).mul(100).div(campPool[3].add(1));\n    }\n\n    // MMC\n    function bet(uint8 camp, uint256 amount) public {\n        require(camp < 4);\n        require(MMC.transferFrom(msg.sender, address(this), amount));\n        require(block.timestamp < BATTLE.battleStartTime() + 3 days, \"Bet only open in the first three days\");\n        betInfos[msg.sender][camp] = betInfos[msg.sender][camp].add(amount);\n        totalBetPool = totalBetPool.add(amount);\n        campPool[camp] = campPool[camp].add(amount);\n    }\n\n    //\n    function claimBet() public battleClose {\n        (, uint8[4] memory campRank) = BATTLE.getCampArrivePower();\n        uint256 betAmount = betInfos[msg.sender][campRank[0]];\n        require(betAmount > 0, \"No bonus\");\n        uint256 bonus = betAmount.mul(totalBetPool).div(campPool[campRank[0]]);\n        MMC.transfer(msg.sender, bonus.mul(90).div(100));\n        MMC.transfer(feeRecipient, bonus.mul(10).div(100));\n    }\n\n    //\n    function getClaimBet(address account) public view returns(uint256) {\n        require(block.timestamp >= BATTLE.battleEndTime(), \"The battle is not over\");\n        uint8 maxPowerCamp;\n        uint256 maxPower;\n        for (uint8 i = 0; i < 4; i++) {\n            if (BATTLE.arrivePower(i) > maxPower) {\n                maxPower = BATTLE.arrivePower(i);\n                maxPowerCamp = i;\n            }\n        }\n        uint256 betAmount = betInfos[account][maxPowerCamp];\n        if (betAmount == 0) {\n            return 0;\n        }\n        uint256 bonus = betAmount.mul(totalBetPool).div(campPool[maxPowerCamp]);\n        return bonus.mul(90).div(100);\n    }\n}",
  "sourcePath": "/Users/hy/new-rich-contract/contracts/Bet.sol",
  "compiler": {
    "name": "solc",
    "version": "0.8.9+commit.e5eed63a.Emscripten.clang"
  },
  "schemaVersion": "3.4.3",
  "updatedAt": "2022-03-23T13:53:49.422Z",
  "networkType": "ethereum",
  "devdoc": {
    "kind": "dev",
    "methods": {
      "owner()": {
        "details": "Returns the address of the current owner."
      },
      "renounceOwnership()": {
        "details": "Leaves the contract without owner. It will not be possible to call `onlyOwner` functions anymore. Can only be called by the current owner. NOTE: Renouncing ownership will leave the contract without an owner, thereby removing any functionality that is only available to the owner."
      },
      "transferOwnership(address)": {
        "details": "Transfers ownership of the contract to a new account (`newOwner`). Can only be called by the current owner."
      }
    },
    "title": "Battle - Romance of the Three Kingdoms Battle Docs:  Version v1.1.0",
    "version": 1
  },
  "userdoc": {
    "kind": "user",
    "methods": {},
    "notice": "",
    "version": 1
  }
}