{
  "contractName": "Exchange",
  "abi": [
    {
      "inputs": [
        {
          "internalType": "address",
          "name": "token",
          "type": "address"
        },
        {
          "internalType": "address",
          "name": "nft",
          "type": "address"
        }
      ],
      "stateMutability": "nonpayable",
      "type": "constructor"
    },
    {
      "anonymous": false,
      "inputs": [
        {
          "indexed": true,
          "internalType": "address",
          "name": "previousOwner",
          "type": "address"
        },
        {
          "indexed": true,
          "internalType": "address",
          "name": "newOwner",
          "type": "address"
        }
      ],
      "name": "OwnershipTransferred",
      "type": "event"
    },
    {
      "anonymous": false,
      "inputs": [
        {
          "components": [
            {
              "internalType": "uint256",
              "name": "tokenId",
              "type": "uint256"
            },
            {
              "internalType": "uint8",
              "name": "native",
              "type": "uint8"
            },
            {
              "internalType": "uint8",
              "name": "camp",
              "type": "uint8"
            },
            {
              "internalType": "uint8",
              "name": "rarity",
              "type": "uint8"
            },
            {
              "internalType": "uint8",
              "name": "heroId",
              "type": "uint8"
            },
            {
              "internalType": "uint8",
              "name": "level",
              "type": "uint8"
            },
            {
              "internalType": "uint8",
              "name": "star",
              "type": "uint8"
            },
            {
              "internalType": "uint8",
              "name": "quality",
              "type": "uint8"
            },
            {
              "internalType": "uint64",
              "name": "addition",
              "type": "uint64"
            },
            {
              "internalType": "uint64",
              "name": "preference",
              "type": "uint64"
            },
            {
              "internalType": "uint64[5]",
              "name": "properties",
              "type": "uint64[5]"
            },
            {
              "internalType": "uint256",
              "name": "power",
              "type": "uint256"
            },
            {
              "internalType": "uint8",
              "name": "rebirthTimes",
              "type": "uint8"
            }
          ],
          "indexed": false,
          "internalType": "struct RichHero.HeroDetail",
          "name": "detail",
          "type": "tuple"
        },
        {
          "indexed": false,
          "internalType": "uint256",
          "name": "price",
          "type": "uint256"
        },
        {
          "indexed": false,
          "internalType": "address",
          "name": "seller",
          "type": "address"
        },
        {
          "indexed": false,
          "internalType": "address",
          "name": "buyer",
          "type": "address"
        }
      ],
      "name": "Trading",
      "type": "event"
    },
    {
      "inputs": [],
      "name": "EXCHANGE",
      "outputs": [
        {
          "internalType": "contract IERC20",
          "name": "",
          "type": "address"
        }
      ],
      "stateMutability": "view",
      "type": "function",
      "constant": true
    },
    {
      "inputs": [],
      "name": "HERO",
      "outputs": [
        {
          "internalType": "contract RichHero",
          "name": "",
          "type": "address"
        }
      ],
      "stateMutability": "view",
      "type": "function",
      "constant": true
    },
    {
      "inputs": [],
      "name": "PCT_BASE",
      "outputs": [
        {
          "internalType": "uint256",
          "name": "",
          "type": "uint256"
        }
      ],
      "stateMutability": "view",
      "type": "function",
      "constant": true
    },
    {
      "inputs": [
        {
          "internalType": "address",
          "name": "",
          "type": "address"
        }
      ],
      "name": "_inviter",
      "outputs": [
        {
          "internalType": "address",
          "name": "",
          "type": "address"
        }
      ],
      "stateMutability": "view",
      "type": "function",
      "constant": true
    },
    {
      "inputs": [
        {
          "internalType": "uint256",
          "name": "",
          "type": "uint256"
        }
      ],
      "name": "_orders",
      "outputs": [
        {
          "internalType": "address",
          "name": "creator",
          "type": "address"
        },
        {
          "internalType": "uint256",
          "name": "price",
          "type": "uint256"
        }
      ],
      "stateMutability": "view",
      "type": "function",
      "constant": true
    },
    {
      "inputs": [],
      "name": "feeRecipient",
      "outputs": [
        {
          "internalType": "address",
          "name": "",
          "type": "address"
        }
      ],
      "stateMutability": "view",
      "type": "function",
      "constant": true
    },
    {
      "inputs": [],
      "name": "owner",
      "outputs": [
        {
          "internalType": "address",
          "name": "",
          "type": "address"
        }
      ],
      "stateMutability": "view",
      "type": "function",
      "constant": true
    },
    {
      "inputs": [],
      "name": "renounceOwnership",
      "outputs": [],
      "stateMutability": "nonpayable",
      "type": "function"
    },
    {
      "inputs": [
        {
          "internalType": "address",
          "name": "newOwner",
          "type": "address"
        }
      ],
      "name": "transferOwnership",
      "outputs": [],
      "stateMutability": "nonpayable",
      "type": "function"
    },
    {
      "inputs": [
        {
          "internalType": "address",
          "name": "owner",
          "type": "address"
        }
      ],
      "name": "getExchangeList",
      "outputs": [
        {
          "components": [
            {
              "components": [
                {
                  "internalType": "uint256",
                  "name": "tokenId",
                  "type": "uint256"
                },
                {
                  "internalType": "uint8",
                  "name": "native",
                  "type": "uint8"
                },
                {
                  "internalType": "uint8",
                  "name": "camp",
                  "type": "uint8"
                },
                {
                  "internalType": "uint8",
                  "name": "rarity",
                  "type": "uint8"
                },
                {
                  "internalType": "uint8",
                  "name": "heroId",
                  "type": "uint8"
                },
                {
                  "internalType": "uint8",
                  "name": "level",
                  "type": "uint8"
                },
                {
                  "internalType": "uint8",
                  "name": "star",
                  "type": "uint8"
                },
                {
                  "internalType": "uint8",
                  "name": "quality",
                  "type": "uint8"
                },
                {
                  "internalType": "uint64",
                  "name": "addition",
                  "type": "uint64"
                },
                {
                  "internalType": "uint64",
                  "name": "preference",
                  "type": "uint64"
                },
                {
                  "internalType": "uint64[5]",
                  "name": "properties",
                  "type": "uint64[5]"
                },
                {
                  "internalType": "uint256",
                  "name": "power",
                  "type": "uint256"
                },
                {
                  "internalType": "uint8",
                  "name": "rebirthTimes",
                  "type": "uint8"
                }
              ],
              "internalType": "struct RichHero.HeroDetail",
              "name": "detail",
              "type": "tuple"
            },
            {
              "components": [
                {
                  "internalType": "address",
                  "name": "creator",
                  "type": "address"
                },
                {
                  "internalType": "uint256",
                  "name": "price",
                  "type": "uint256"
                }
              ],
              "internalType": "struct Exchange.Order",
              "name": "order",
              "type": "tuple"
            }
          ],
          "internalType": "struct Exchange.HeroDetail[]",
          "name": "",
          "type": "tuple[]"
        }
      ],
      "stateMutability": "view",
      "type": "function",
      "constant": true
    },
    {
      "inputs": [],
      "name": "checkList",
      "outputs": [],
      "stateMutability": "nonpayable",
      "type": "function"
    },
    {
      "inputs": [
        {
          "internalType": "uint256",
          "name": "tokenId",
          "type": "uint256"
        },
        {
          "internalType": "uint256",
          "name": "price",
          "type": "uint256"
        }
      ],
      "name": "put",
      "outputs": [],
      "stateMutability": "nonpayable",
      "type": "function"
    },
    {
      "inputs": [
        {
          "internalType": "uint256",
          "name": "tokenId",
          "type": "uint256"
        }
      ],
      "name": "pull",
      "outputs": [],
      "stateMutability": "nonpayable",
      "type": "function"
    },
    {
      "inputs": [
        {
          "internalType": "uint256",
          "name": "tokenId",
          "type": "uint256"
        }
      ],
      "name": "exchange",
      "outputs": [],
      "stateMutability": "nonpayable",
      "type": "function"
    },
    {
      "inputs": [
        {
          "internalType": "address",
          "name": "newRecipient",
          "type": "address"
        }
      ],
      "name": "setFeeRecipient",
      "outputs": [],
      "stateMutability": "nonpayable",
      "type": "function"
    }
  ],
  "bytecode": "0x6080604052600380546001600160a01b031916738f3b8f3046deb7c4e227dc0c6379051755ba31421790553480156200003757600080fd5b506040516200185f3803806200185f8339810160408190526200005a91620001b4565b620000653362000141565b6200007b826200019160201b62000de81760201c565b620000bd5760405162461bcd60e51b815260206004820152600d60248201526c151bdad95b88125b9d985b1a59609a1b60448201526064015b60405180910390fd5b620000d3816200019160201b62000de81760201c565b6200010f5760405162461bcd60e51b815260206004820152600b60248201526a13999d08125b9d985b1a5960aa1b6044820152606401620000b4565b600280546001600160a01b039384166001600160a01b03199182161790915560018054929093169116179055620001ec565b600080546001600160a01b038381166001600160a01b0319831681178455604051919092169283917f8be0079c531659141344cd1fd0a4f28419497f9722a3daafe3b4186f6b6457e09190a35050565b3b151590565b80516001600160a01b0381168114620001af57600080fd5b919050565b60008060408385031215620001c857600080fd5b620001d38362000197565b9150620001e36020840162000197565b90509250929050565b61166380620001fc6000396000f3fe608060405234801561001057600080fd5b50600436106100f55760003560e01c80637061eb2f11610097578063ccdbd42411610066578063ccdbd4241461021e578063e74b981b14610247578063f2fde38b1461025a578063fc157cb41461026d57600080fd5b80637061eb2f146101ea578063715018a6146101f25780638da5cb5b146101fa578063b50e44b81461020b57600080fd5b80634e5919ef116100d35780634e5919ef1461015257806353556559146101a4578063541aea0f146101b757806356562328146101ca57600080fd5b80633bba6a36146100fa578063469048401461012a5780634d0392a81461013d575b600080fd5b60015461010d906001600160a01b031681565b6040516001600160a01b0390911681526020015b60405180910390f35b60035461010d906001600160a01b031681565b61015061014b3660046110cc565b61028a565b005b6101856101603660046110cc565b600660205260009081526040902080546001909101546001600160a01b039091169082565b604080516001600160a01b039093168352602083019190915201610121565b6101506101b23660046110cc565b610379565b6101506101c53660046110e5565b61072f565b6101dd6101d836600461111c565b6108ea565b6040516101219190611266565b610150610be4565b610150610ccb565b6000546001600160a01b031661010d565b60025461010d906001600160a01b031681565b61010d61022c36600461111c565b6008602052600090815260409020546001600160a01b031681565b61015061025536600461111c565b610d01565b61015061026836600461111c565b610d4d565b61027c670de0b6b3a764000081565b604051908152602001610121565b6000818152600660205260409020546001600160a01b031633146102e45760405162461bcd60e51b815260206004820152600c60248201526b27b7363c9021b932b0ba37b960a11b60448201526064015b60405180910390fd5b6001546040516323b872dd60e01b81526001600160a01b03909116906323b872dd90610318903090339086906004016112d3565b600060405180830381600087803b15801561033257600080fd5b505af1158015610346573d6000803e3d6000fd5b505050600082815260066020526040812080546001600160a01b03191681556001015550610375600482610dee565b5050565b6000818152600660205260409020600101546103ca5760405162461bcd60e51b815260206004820152601060248201526f4f72646572204e6f742045786973747360801b60448201526064016102db565b6002546000828152600660205260408120805460019091015491926001600160a01b03908116926323b872dd92339216906104139060649061040d90605f610e03565b90610e0f565b6040518463ffffffff1660e01b8152600401610431939291906112d3565b602060405180830381600087803b15801561044b57600080fd5b505af115801561045f573d6000803e3d6000fd5b505050506040513d601f19601f8201168201806040525081019061048391906112f7565b9050806104c55760405162461bcd60e51b815260206004820152601060248201526f151c985b9cd9995c88125b9d985b1a5960821b60448201526064016102db565b6002546003546000848152600660205260409020600101546001600160a01b03928316926323b872dd9233929116906105069060649061040d906005610e03565b6040518463ffffffff1660e01b8152600401610524939291906112d3565b602060405180830381600087803b15801561053e57600080fd5b505af1158015610552573d6000803e3d6000fd5b505050506040513d601f19601f8201168201806040525081019061057691906112f7565b9050806105b85760405162461bcd60e51b815260206004820152601060248201526f151c985b9cd9995c88125b9d985b1a5960821b60448201526064016102db565b6001546040516323b872dd60e01b81526001600160a01b03909116906323b872dd906105ec903090339087906004016112d3565b600060405180830381600087803b15801561060657600080fd5b505af115801561061a573d6000803e3d6000fd5b50506001546040516321d8011160e01b815260048101869052600093506001600160a01b0390911691506321d80111906024016102206040518083038186803b15801561066657600080fd5b505afa15801561067a573d6000803e3d6000fd5b505050506040513d601f19601f8201168201806040525081019061069e91906113fc565b600084815260066020526040908190206001810154905491519293507f3a29ee816a91ee37797fc53bfcfd2722f212e17666dac176ee82b9d1344354a2926106f6928592916001600160a01b039091169033906114ef565b60405180910390a1600083815260066020526040812080546001600160a01b031916815560010155610729600484610dee565b50505050565b6001546040516331a9108f60e11b81526004810184905233916001600160a01b031690636352211e9060240160206040518083038186803b15801561077357600080fd5b505afa158015610787573d6000803e3d6000fd5b505050506040513d601f19601f820116820180604052508101906107ab9190611526565b6001600160a01b0316146107ee5760405162461bcd60e51b815260206004820152600a60248201526927b7363c9027bbb732b960b11b60448201526064016102db565b6000811161082e5760405162461bcd60e51b815260206004820152600d60248201526c141c9a58d948125b9d985b1a59609a1b60448201526064016102db565b6001546040516323b872dd60e01b81526001600160a01b03909116906323b872dd90610862903390309087906004016112d3565b600060405180830381600087803b15801561087c57600080fd5b505af1158015610890573d6000803e3d6000fd5b5050604080518082018252338152602080820186815260008881526006909252929020905181546001600160a01b0319166001600160a01b039091161781559051600190910155506108e59050600483610e1b565b505050565b606060006108f86004610e27565b905060008167ffffffffffffffff81111561091557610915611319565b60405190808252806020026020018201604052801561094e57816020015b61093b610ff9565b8152602001906001900390816109335790505b5090506000805b83811015610b2d57600061096a600483610e31565b600154604051634f558e7960e01b8152600481018390529192506001600160a01b031690634f558e799060240160206040518083038186803b1580156109af57600080fd5b505afa1580156109c3573d6000803e3d6000fd5b505050506040513d601f19601f820116820180604052508101906109e791906112f7565b6109f15750610b1b565b6001600160a01b03871615801590610a2357506000818152600660205260409020546001600160a01b03888116911614155b15610a2e5750610b1b565b6001546040516321d8011160e01b8152600481018390526000916001600160a01b0316906321d80111906024016102206040518083038186803b158015610a7457600080fd5b505afa158015610a88573d6000803e3d6000fd5b505050506040513d601f19601f82011682018060405250810190610aac91906113fc565b60408051808201825282815260008581526006602090815290839020835180850190945280546001600160a01b031684526001015483820152810191909152909150808686610afa81611559565b975081518110610b0c57610b0c611574565b60200260200101819052505050505b80610b2581611559565b915050610955565b5060008167ffffffffffffffff811115610b4957610b49611319565b604051908082528060200260200182016040528015610b8257816020015b610b6f610ff9565b815260200190600190039081610b675790505b50905060005b82811015610bda57838181518110610ba257610ba2611574565b6020026020010151828281518110610bbc57610bbc611574565b60200260200101819052508080610bd290611559565b915050610b88565b5095945050505050565b6000610bf06004610e27565b905060005b81811015610375576000610c0a600483610e31565b600154604051634f558e7960e01b8152600481018390529192506001600160a01b031690634f558e799060240160206040518083038186803b158015610c4f57600080fd5b505afa158015610c63573d6000803e3d6000fd5b505050506040513d601f19601f82011682018060405250810190610c8791906112f7565b610cb857610c96600482610dee565b50600081815260066020526040812080546001600160a01b0319168155600101555b5080610cc381611559565b915050610bf5565b6000546001600160a01b03163314610cf55760405162461bcd60e51b81526004016102db9061158a565b610cff6000610e3d565b565b6000546001600160a01b03163314610d2b5760405162461bcd60e51b81526004016102db9061158a565b600380546001600160a01b0319166001600160a01b0392909216919091179055565b6000546001600160a01b03163314610d775760405162461bcd60e51b81526004016102db9061158a565b6001600160a01b038116610ddc5760405162461bcd60e51b815260206004820152602660248201527f4f776e61626c653a206e6577206f776e657220697320746865207a65726f206160448201526564647265737360d01b60648201526084016102db565b610de581610e3d565b50565b3b151590565b6000610dfa8383610e8d565b90505b92915050565b6000610dfa82846115bf565b6000610dfa82846115de565b6000610dfa8383610f80565b6000610dfd825490565b6000610dfa8383610fcf565b600080546001600160a01b038381166001600160a01b0319831681178455604051919092169283917f8be0079c531659141344cd1fd0a4f28419497f9722a3daafe3b4186f6b6457e09190a35050565b60008181526001830160205260408120548015610f76576000610eb1600183611600565b8554909150600090610ec590600190611600565b9050818114610f2a576000866000018281548110610ee557610ee5611574565b9060005260206000200154905080876000018481548110610f0857610f08611574565b6000918252602080832090910192909255918252600188019052604090208390555b8554869080610f3b57610f3b611617565b600190038181906000526020600020016000905590558560010160008681526020019081526020016000206000905560019350505050610dfd565b6000915050610dfd565b6000818152600183016020526040812054610fc757508154600181810184556000848152602080822090930184905584548482528286019093526040902091909155610dfd565b506000610dfd565b6000826000018281548110610fe657610fe6611574565b9060005260206000200154905092915050565b604051806040016040528061100c61103c565b8152602001611037604051806040016040528060006001600160a01b03168152602001600081525090565b905290565b604080516101a081018252600080825260208201819052918101829052606081018290526080810182905260a0810182905260c0810182905260e081018290526101008101829052610120810191909152610140810161109a6110ae565b815260006020820181905260409091015290565b6040518060a001604052806005906020820280368337509192915050565b6000602082840312156110de57600080fd5b5035919050565b600080604083850312156110f857600080fd5b50508035926020909101359150565b6001600160a01b0381168114610de557600080fd5b60006020828403121561112e57600080fd5b813561113981611107565b9392505050565b8060005b600581101561072957815167ffffffffffffffff16845260209384019390910190600101611144565b805182526020810151611185602084018260ff169052565b50604081015161119a604084018260ff169052565b5060608101516111af606084018260ff169052565b5060808101516111c4608084018260ff169052565b5060a08101516111d960a084018260ff169052565b5060c08101516111ee60c084018260ff169052565b5060e081015161120360e084018260ff169052565b506101008181015167ffffffffffffffff81168483015250506101208181015167ffffffffffffffff81168483015250506101408082015161124782850182611140565b50506101608101516101e0830152610180015160ff1661020090910152565b6020808252825182820181905260009190848201906040850190845b818110156112c757835161129784825161116d565b85015180516001600160a01b03166102208501528501516102408401529284019261026090920191600101611282565b50909695505050505050565b6001600160a01b039384168152919092166020820152604081019190915260600190565b60006020828403121561130957600080fd5b8151801515811461113957600080fd5b634e487b7160e01b600052604160045260246000fd5b6040516101a0810167ffffffffffffffff8111828210171561135357611353611319565b60405290565b805160ff8116811461136a57600080fd5b919050565b805167ffffffffffffffff8116811461136a57600080fd5b600082601f83011261139857600080fd5b60405160a0810181811067ffffffffffffffff821117156113bb576113bb611319565b6040528060a08401858111156113d057600080fd5b845b818110156113f1576113e38161136f565b8352602092830192016113d2565b509195945050505050565b6000610220828403121561140f57600080fd5b61141761132f565b8251815261142760208401611359565b602082015261143860408401611359565b604082015261144960608401611359565b606082015261145a60808401611359565b608082015261146b60a08401611359565b60a082015261147c60c08401611359565b60c082015261148d60e08401611359565b60e08201526101006114a081850161136f565b908201526101206114b284820161136f565b908201526101406114c585858301611387565b908201526101e08301516101608201526114e26102008401611359565b6101808201529392505050565b61028081016114fe828761116d565b6102208201949094526001600160a01b03928316610240820152911661026090910152919050565b60006020828403121561153857600080fd5b815161113981611107565b634e487b7160e01b600052601160045260246000fd5b600060001982141561156d5761156d611543565b5060010190565b634e487b7160e01b600052603260045260246000fd5b6020808252818101527f4f776e61626c653a2063616c6c6572206973206e6f7420746865206f776e6572604082015260600190565b60008160001904831182151516156115d9576115d9611543565b500290565b6000826115fb57634e487b7160e01b600052601260045260246000fd5b500490565b60008282101561161257611612611543565b500390565b634e487b7160e01b600052603160045260246000fdfea26469706673582212209d36cb7333928bc8acbed30a4804d336051e555f590f7fe1a8408faa5796514264736f6c63430008090033",
  "immutableReferences": {},
  "source": "// SPDX-License-Identifier: SimPL-2.0\n\npragma solidity ^0.8.0;\npragma experimental ABIEncoderV2;\n\nimport \"./RichHero.sol\";\n\nimport \"@openzeppelin/contracts/access/Ownable.sol\";\nimport \"@openzeppelin/contracts/token/ERC20/IERC20.sol\";\n\nimport \"@openzeppelin/contracts/utils/Address.sol\";\nimport \"@openzeppelin/contracts/utils/math/SafeMath.sol\";\nimport \"@openzeppelin/contracts/utils/structs/EnumerableSet.sol\";\n\n/**\n* @title Exchange - Romance of the Three Kingdoms Exchange\n*\n* Version v1.1.0\n*\n*/\n\ncontract Exchange is Ownable {\n    using SafeMath for uint256;\n    using EnumerableSet for EnumerableSet.UintSet;\n\n    uint256 public constant PCT_BASE = 1e18;\n\n    struct Order {\n        address creator;\n        uint256 price;\n    }\n\n    struct HeroDetail {\n        RichHero.HeroDetail detail;\n        Order order;\n    }\n\n    RichHero public HERO;\n    IERC20 public EXCHANGE;\n    address public feeRecipient = 0x8F3b8f3046dEb7C4E227dC0c6379051755Ba3142;\n\n    EnumerableSet.UintSet private _tokenIds;\n\n    mapping (uint256 => Order) public _orders;\n    mapping (uint256 => uint256) private _roles;\n    mapping (address => address) public _inviter;\n\n    event Trading(RichHero.HeroDetail detail, uint256 price, address seller, address buyer);\n\n    constructor(address token, address nft) {\n        require(Address.isContract(token), \"Token Invalid\");\n        require(Address.isContract(nft), \"Nft Invalid\");\n\n        EXCHANGE = IERC20(token);\n        HERO = RichHero(nft);\n    }\n\n    function getExchangeList(address owner) public view returns (HeroDetail[] memory) {\n        uint256 len = _tokenIds.length();\n        HeroDetail[] memory list = new HeroDetail[](len);\n        uint256 resultLen;\n        for (uint256 i = 0; i < len; i++) {\n            uint256 tokenId = _tokenIds.at(i);\n            if (!HERO.exists(tokenId)) {\n                continue;\n            }\n            if ((owner != address(0)) && (_orders[tokenId].creator != owner)) {\n                continue;\n            }\n            RichHero.HeroDetail memory hero = HERO.getHero(tokenId);\n            HeroDetail memory detail = HeroDetail(hero, _orders[tokenId]);\n            list[resultLen++] = detail;\n        }\n        HeroDetail[] memory result = new HeroDetail[](resultLen);\n        for (uint256 i = 0; i < resultLen; i++) {\n            result[i] = list[i];\n        }\n        return result;\n    }\n\n    function checkList() public {\n        uint256 len = _tokenIds.length();\n        for (uint256 i = 0; i < len; i++) {\n            uint256 tokenId = _tokenIds.at(i);\n            if (!HERO.exists(tokenId)) {\n                _tokenIds.remove(tokenId);\n                delete _orders[tokenId];\n            }\n        }\n    }\n\n    function put(uint256 tokenId, uint256 price) public {\n        require(HERO.ownerOf(tokenId) == msg.sender, \"Only Owner\");\n        require(price > 0, \"Price Invalid\");\n        HERO.transferFrom(msg.sender, address(this), tokenId);\n        _orders[tokenId] = Order(msg.sender, price);\n        _tokenIds.add(tokenId);\n    }\n\n    function pull(uint256 tokenId) public {\n        require(_orders[tokenId].creator == msg.sender, \"Only Creator\");\n        HERO.transferFrom(address(this), msg.sender, tokenId);\n        delete _orders[tokenId];\n        _tokenIds.remove(tokenId);\n    }\n\n    function exchange(uint256 tokenId) public {\n        require(_orders[tokenId].price > 0, \"Order Not Exists\");\n        bool success = EXCHANGE.transferFrom(\n            msg.sender, _orders[tokenId].creator, _orders[tokenId].price.mul(95).div(100)\n        );\n        require(success, \"Transfer Invalid\");\n        success = EXCHANGE.transferFrom(\n            msg.sender, feeRecipient, _orders[tokenId].price.mul(5).div(100)\n        );\n        require(success, \"Transfer Invalid\");\n\n        HERO.transferFrom(address(this), msg.sender, tokenId);\n        RichHero.HeroDetail memory hero = HERO.getHero(tokenId);\n        emit Trading(hero, _orders[tokenId].price, _orders[tokenId].creator, msg.sender);\n        delete _orders[tokenId];\n        _tokenIds.remove(tokenId);\n    }\n\n    function setFeeRecipient(address newRecipient) public onlyOwner {\n        feeRecipient = newRecipient;\n    }\n}",
  "sourcePath": "/Users/hy/new-rich-contract/contracts/Exchange.sol",
  "compiler": {
    "name": "solc",
    "version": "0.8.9+commit.e5eed63a.Emscripten.clang"
  },
  "schemaVersion": "3.4.3",
  "updatedAt": "2022-02-22T14:19:16.359Z",
  "networkType": "ethereum",
  "devdoc": {
    "kind": "dev",
    "methods": {
      "owner()": {
        "details": "Returns the address of the current owner."
      },
      "renounceOwnership()": {
        "details": "Leaves the contract without owner. It will not be possible to call `onlyOwner` functions anymore. Can only be called by the current owner. NOTE: Renouncing ownership will leave the contract without an owner, thereby removing any functionality that is only available to the owner."
      },
      "transferOwnership(address)": {
        "details": "Transfers ownership of the contract to a new account (`newOwner`). Can only be called by the current owner."
      }
    },
    "title": "Exchange - Romance of the Three Kingdoms Exchange Version v1.1.0",
    "version": 1
  },
  "userdoc": {
    "kind": "user",
    "methods": {},
    "notice": "",
    "version": 1
  }
}