{
  "contractName": "Invite",
  "abi": [
    {
      "anonymous": false,
      "inputs": [
        {
          "indexed": false,
          "internalType": "address",
          "name": "player",
          "type": "address"
        },
        {
          "indexed": false,
          "internalType": "address",
          "name": "inviter",
          "type": "address"
        }
      ],
      "name": "NewInvite",
      "type": "event"
    },
    {
      "anonymous": false,
      "inputs": [
        {
          "indexed": true,
          "internalType": "address",
          "name": "previousOwner",
          "type": "address"
        },
        {
          "indexed": true,
          "internalType": "address",
          "name": "newOwner",
          "type": "address"
        }
      ],
      "name": "OwnershipTransferred",
      "type": "event"
    },
    {
      "inputs": [],
      "name": "HERO",
      "outputs": [
        {
          "internalType": "contract RichHero",
          "name": "",
          "type": "address"
        }
      ],
      "stateMutability": "view",
      "type": "function",
      "constant": true
    },
    {
      "inputs": [],
      "name": "MMC",
      "outputs": [
        {
          "internalType": "contract IERC20",
          "name": "",
          "type": "address"
        }
      ],
      "stateMutability": "view",
      "type": "function",
      "constant": true
    },
    {
      "inputs": [],
      "name": "PCT_BASE",
      "outputs": [
        {
          "internalType": "uint256",
          "name": "",
          "type": "uint256"
        }
      ],
      "stateMutability": "view",
      "type": "function",
      "constant": true
    },
    {
      "inputs": [
        {
          "internalType": "uint256",
          "name": "",
          "type": "uint256"
        }
      ],
      "name": "award",
      "outputs": [
        {
          "internalType": "uint256",
          "name": "",
          "type": "uint256"
        }
      ],
      "stateMutability": "view",
      "type": "function",
      "constant": true
    },
    {
      "inputs": [],
      "name": "awardLength",
      "outputs": [
        {
          "internalType": "uint256",
          "name": "",
          "type": "uint256"
        }
      ],
      "stateMutability": "view",
      "type": "function",
      "constant": true
    },
    {
      "inputs": [],
      "name": "owner",
      "outputs": [
        {
          "internalType": "address",
          "name": "",
          "type": "address"
        }
      ],
      "stateMutability": "view",
      "type": "function",
      "constant": true
    },
    {
      "inputs": [],
      "name": "renounceOwnership",
      "outputs": [],
      "stateMutability": "nonpayable",
      "type": "function"
    },
    {
      "inputs": [
        {
          "internalType": "address",
          "name": "",
          "type": "address"
        }
      ],
      "name": "superior",
      "outputs": [
        {
          "internalType": "address",
          "name": "",
          "type": "address"
        }
      ],
      "stateMutability": "view",
      "type": "function",
      "constant": true
    },
    {
      "inputs": [
        {
          "internalType": "address",
          "name": "newOwner",
          "type": "address"
        }
      ],
      "name": "transferOwnership",
      "outputs": [],
      "stateMutability": "nonpayable",
      "type": "function"
    },
    {
      "inputs": [
        {
          "internalType": "address",
          "name": "player",
          "type": "address"
        },
        {
          "internalType": "address",
          "name": "inviter",
          "type": "address"
        }
      ],
      "name": "setInviter",
      "outputs": [],
      "stateMutability": "nonpayable",
      "type": "function"
    },
    {
      "inputs": [
        {
          "internalType": "uint256[]",
          "name": "reward",
          "type": "uint256[]"
        }
      ],
      "name": "setReward",
      "outputs": [],
      "stateMutability": "nonpayable",
      "type": "function"
    }
  ],
  "bytecode": "0x6127106001556101006040526101f4608090815261012c60a052609660c052603260e05261003090600490816100a1565b50600460055534801561004257600080fd5b5061004c33610051565b610107565b600080546001600160a01b038381166001600160a01b0319831681178455604051919092169283917f8be0079c531659141344cd1fd0a4f28419497f9722a3daafe3b4186f6b6457e09190a35050565b8280548282559060005260206000209081019282156100e2579160200282015b828111156100e2578251829061ffff169055916020019190600101906100c1565b506100ee9291506100f2565b5090565b5b808211156100ee57600081556001016100f3565b610603806101166000396000f3fe608060405234801561001057600080fd5b50600436106100a95760003560e01c8063715018a611610071578063715018a61461013a5780638da5cb5b14610142578063da1f988814610153578063f2fde38b1461017c578063f842d40b1461018f578063fc157cb41461019857600080fd5b80630184e952146100ae57806338cfe0d2146100d45780633bba6a36146100e957806344dea5a7146101145780636e071f1714610127575b600080fd5b6100c16100bc36600461043a565b6101a1565b6040519081526020015b60405180910390f35b6100e76100e2366004610469565b6101c2565b005b6002546100fc906001600160a01b031681565b6040516001600160a01b0390911681526020016100cb565b6003546100fc906001600160a01b031681565b6100e7610135366004610543565b61020f565b6100e76102b9565b6000546001600160a01b03166100fc565b6100fc610161366004610576565b6006602052600090815260409020546001600160a01b031681565b6100e761018a366004610576565b6102ef565b6100c160055481565b6100c160015481565b600481815481106101b157600080fd5b600091825260209091200154905081565b6000546001600160a01b031633146101f55760405162461bcd60e51b81526004016101ec90610598565b60405180910390fd5b80516102089060049060208401906103da565b5051600555565b806001600160a01b0316826001600160a01b0316141561022e57600080fd5b6001600160a01b03828116600090815260066020526040902054166102b5576001600160a01b0382811660008181526006602090815260409182902080546001600160a01b031916948616948517905581519283528201929092527f9224237b23a640ae1cb55119e00ce71ff40edc85e0cd77a1193bf189f8acd7e9910160405180910390a15b5050565b6000546001600160a01b031633146102e35760405162461bcd60e51b81526004016101ec90610598565b6102ed600061038a565b565b6000546001600160a01b031633146103195760405162461bcd60e51b81526004016101ec90610598565b6001600160a01b03811661037e5760405162461bcd60e51b815260206004820152602660248201527f4f776e61626c653a206e6577206f776e657220697320746865207a65726f206160448201526564647265737360d01b60648201526084016101ec565b6103878161038a565b50565b600080546001600160a01b038381166001600160a01b0319831681178455604051919092169283917f8be0079c531659141344cd1fd0a4f28419497f9722a3daafe3b4186f6b6457e09190a35050565b828054828255906000526020600020908101928215610415579160200282015b828111156104155782518255916020019190600101906103fa565b50610421929150610425565b5090565b5b808211156104215760008155600101610426565b60006020828403121561044c57600080fd5b5035919050565b634e487b7160e01b600052604160045260246000fd5b6000602080838503121561047c57600080fd5b823567ffffffffffffffff8082111561049457600080fd5b818501915085601f8301126104a857600080fd5b8135818111156104ba576104ba610453565b8060051b604051601f19603f830116810181811085821117156104df576104df610453565b6040529182528482019250838101850191888311156104fd57600080fd5b938501935b8285101561051b57843584529385019392850192610502565b98975050505050505050565b80356001600160a01b038116811461053e57600080fd5b919050565b6000806040838503121561055657600080fd5b61055f83610527565b915061056d60208401610527565b90509250929050565b60006020828403121561058857600080fd5b61059182610527565b9392505050565b6020808252818101527f4f776e61626c653a2063616c6c6572206973206e6f7420746865206f776e657260408201526060019056fea2646970667358221220d5fdaebb24f52de0f0d284c58e9c7bc2afd36a5663b2c5a64f2f4936ddf907a864736f6c63430008090033",
  "immutableReferences": {},
  "source": "// SPDX-License-Identifier: SimPL-2.0\n\npragma solidity ^0.8.0;\npragma experimental ABIEncoderV2;\n\nimport \"./RichHero.sol\";\n\nimport \"@openzeppelin/contracts/access/Ownable.sol\";\nimport \"@openzeppelin/contracts/token/ERC20/IERC20.sol\";\n\nimport \"@openzeppelin/contracts/utils/Address.sol\";\nimport \"@openzeppelin/contracts/utils/math/SafeMath.sol\";\n\n/**\n* @title Invite - Romance of the Three Kingdoms Invite\n*\n* Version v1.1.0\n*\n*/\n\ncontract Invite is Ownable {\n    using SafeMath for uint256;\n\n    uint256 public PCT_BASE = 10000;\n    RichHero public HERO;\n    IERC20 public MMC;\n    uint256[] public award = [500, 300, 150, 50];\n    uint256 public awardLength = 4;\n\n    mapping (address => address) public superior;\n\n    event NewInvite(address player, address inviter);\n\n    function setInviter(address player, address inviter) public {\n        require(player != inviter);\n        if (superior[player] == address(0)) {\n            superior[player] = inviter;\n            emit NewInvite(player, inviter);\n        }\n    }\n\n    function setReward(uint256[] memory reward) public onlyOwner {\n        award = reward;\n        awardLength = reward.length;\n    }\n}",
  "sourcePath": "/Users/hy/new-rich-contract/contracts/Invite.sol",
  "compiler": {
    "name": "solc",
    "version": "0.8.9+commit.e5eed63a.Emscripten.clang"
  },
  "schemaVersion": "3.4.3",
  "updatedAt": "2022-02-22T14:19:16.367Z",
  "networkType": "ethereum",
  "devdoc": {
    "kind": "dev",
    "methods": {
      "owner()": {
        "details": "Returns the address of the current owner."
      },
      "renounceOwnership()": {
        "details": "Leaves the contract without owner. It will not be possible to call `onlyOwner` functions anymore. Can only be called by the current owner. NOTE: Renouncing ownership will leave the contract without an owner, thereby removing any functionality that is only available to the owner."
      },
      "transferOwnership(address)": {
        "details": "Transfers ownership of the contract to a new account (`newOwner`). Can only be called by the current owner."
      }
    },
    "title": "Invite - Romance of the Three Kingdoms Invite Version v1.1.0",
    "version": 1
  },
  "userdoc": {
    "kind": "user",
    "methods": {},
    "notice": "",
    "version": 1
  }
}