{
  "contractName": "M3tTokenETHF",
  "abi": [
    {
      "inputs": [
        {
          "internalType": "address",
          "name": "_usdt",
          "type": "address"
        },
        {
          "internalType": "address",
          "name": "u2ethf",
          "type": "address"
        }
      ],
      "stateMutability": "nonpayable",
      "type": "constructor"
    },
    {
      "anonymous": false,
      "inputs": [
        {
          "indexed": true,
          "internalType": "address",
          "name": "owner",
          "type": "address"
        },
        {
          "indexed": true,
          "internalType": "address",
          "name": "spender",
          "type": "address"
        },
        {
          "indexed": false,
          "internalType": "uint256",
          "name": "value",
          "type": "uint256"
        }
      ],
      "name": "Approval",
      "type": "event"
    },
    {
      "anonymous": false,
      "inputs": [
        {
          "indexed": true,
          "internalType": "address",
          "name": "previousOwner",
          "type": "address"
        },
        {
          "indexed": true,
          "internalType": "address",
          "name": "newOwner",
          "type": "address"
        }
      ],
      "name": "OwnershipTransferred",
      "type": "event"
    },
    {
      "anonymous": false,
      "inputs": [
        {
          "indexed": true,
          "internalType": "address",
          "name": "from",
          "type": "address"
        },
        {
          "indexed": true,
          "internalType": "address",
          "name": "to",
          "type": "address"
        },
        {
          "indexed": false,
          "internalType": "uint256",
          "name": "value",
          "type": "uint256"
        }
      ],
      "name": "Transfer",
      "type": "event"
    },
    {
      "inputs": [],
      "name": "MDao",
      "outputs": [
        {
          "internalType": "contract IERC20",
          "name": "",
          "type": "address"
        }
      ],
      "stateMutability": "view",
      "type": "function"
    },
    {
      "inputs": [],
      "name": "U2ETHF",
      "outputs": [
        {
          "internalType": "contract IMdaoPair",
          "name": "",
          "type": "address"
        }
      ],
      "stateMutability": "view",
      "type": "function"
    },
    {
      "inputs": [],
      "name": "USDT_TOKEN",
      "outputs": [
        {
          "internalType": "contract IERC20",
          "name": "",
          "type": "address"
        }
      ],
      "stateMutability": "view",
      "type": "function"
    },
    {
      "inputs": [
        {
          "internalType": "address",
          "name": "owner",
          "type": "address"
        },
        {
          "internalType": "address",
          "name": "spender",
          "type": "address"
        }
      ],
      "name": "allowance",
      "outputs": [
        {
          "internalType": "uint256",
          "name": "",
          "type": "uint256"
        }
      ],
      "stateMutability": "view",
      "type": "function"
    },
    {
      "inputs": [
        {
          "internalType": "address",
          "name": "spender",
          "type": "address"
        },
        {
          "internalType": "uint256",
          "name": "amount",
          "type": "uint256"
        }
      ],
      "name": "approve",
      "outputs": [
        {
          "internalType": "bool",
          "name": "",
          "type": "bool"
        }
      ],
      "stateMutability": "nonpayable",
      "type": "function"
    },
    {
      "inputs": [
        {
          "internalType": "address",
          "name": "account",
          "type": "address"
        }
      ],
      "name": "balanceOf",
      "outputs": [
        {
          "internalType": "uint256",
          "name": "",
          "type": "uint256"
        }
      ],
      "stateMutability": "view",
      "type": "function"
    },
    {
      "inputs": [],
      "name": "decimals",
      "outputs": [
        {
          "internalType": "uint8",
          "name": "",
          "type": "uint8"
        }
      ],
      "stateMutability": "view",
      "type": "function"
    },
    {
      "inputs": [
        {
          "internalType": "address",
          "name": "spender",
          "type": "address"
        },
        {
          "internalType": "uint256",
          "name": "subtractedValue",
          "type": "uint256"
        }
      ],
      "name": "decreaseAllowance",
      "outputs": [
        {
          "internalType": "bool",
          "name": "",
          "type": "bool"
        }
      ],
      "stateMutability": "nonpayable",
      "type": "function"
    },
    {
      "inputs": [
        {
          "internalType": "address",
          "name": "spender",
          "type": "address"
        },
        {
          "internalType": "uint256",
          "name": "addedValue",
          "type": "uint256"
        }
      ],
      "name": "increaseAllowance",
      "outputs": [
        {
          "internalType": "bool",
          "name": "",
          "type": "bool"
        }
      ],
      "stateMutability": "nonpayable",
      "type": "function"
    },
    {
      "inputs": [
        {
          "internalType": "address",
          "name": "",
          "type": "address"
        }
      ],
      "name": "lockInfos",
      "outputs": [
        {
          "internalType": "uint64",
          "name": "lockTime",
          "type": "uint64"
        },
        {
          "internalType": "uint64",
          "name": "unlockTime",
          "type": "uint64"
        },
        {
          "internalType": "uint256",
          "name": "lockAmount",
          "type": "uint256"
        },
        {
          "internalType": "uint256",
          "name": "claimedAmount",
          "type": "uint256"
        }
      ],
      "stateMutability": "view",
      "type": "function"
    },
    {
      "inputs": [],
      "name": "name",
      "outputs": [
        {
          "internalType": "string",
          "name": "",
          "type": "string"
        }
      ],
      "stateMutability": "view",
      "type": "function"
    },
    {
      "inputs": [],
      "name": "owner",
      "outputs": [
        {
          "internalType": "address",
          "name": "",
          "type": "address"
        }
      ],
      "stateMutability": "view",
      "type": "function"
    },
    {
      "inputs": [],
      "name": "priceM3t",
      "outputs": [
        {
          "internalType": "uint256",
          "name": "",
          "type": "uint256"
        }
      ],
      "stateMutability": "view",
      "type": "function"
    },
    {
      "inputs": [],
      "name": "priceMDao",
      "outputs": [
        {
          "internalType": "uint256",
          "name": "",
          "type": "uint256"
        }
      ],
      "stateMutability": "view",
      "type": "function"
    },
    {
      "inputs": [],
      "name": "renounceOwnership",
      "outputs": [],
      "stateMutability": "nonpayable",
      "type": "function"
    },
    {
      "inputs": [],
      "name": "symbol",
      "outputs": [
        {
          "internalType": "string",
          "name": "",
          "type": "string"
        }
      ],
      "stateMutability": "view",
      "type": "function"
    },
    {
      "inputs": [],
      "name": "totalSupply",
      "outputs": [
        {
          "internalType": "uint256",
          "name": "",
          "type": "uint256"
        }
      ],
      "stateMutability": "view",
      "type": "function"
    },
    {
      "inputs": [
        {
          "internalType": "address",
          "name": "newOwner",
          "type": "address"
        }
      ],
      "name": "transferOwnership",
      "outputs": [],
      "stateMutability": "nonpayable",
      "type": "function"
    },
    {
      "inputs": [
        {
          "internalType": "uint256",
          "name": "newPrice",
          "type": "uint256"
        }
      ],
      "name": "setPriceM3t",
      "outputs": [],
      "stateMutability": "nonpayable",
      "type": "function"
    },
    {
      "inputs": [
        {
          "internalType": "uint256",
          "name": "newPrice",
          "type": "uint256"
        }
      ],
      "name": "setPriceMDao",
      "outputs": [],
      "stateMutability": "nonpayable",
      "type": "function"
    },
    {
      "inputs": [
        {
          "internalType": "address",
          "name": "mdao",
          "type": "address"
        }
      ],
      "name": "setMDao",
      "outputs": [],
      "stateMutability": "nonpayable",
      "type": "function"
    },
    {
      "inputs": [
        {
          "internalType": "address",
          "name": "newWallet",
          "type": "address"
        }
      ],
      "name": "setWallet",
      "outputs": [],
      "stateMutability": "nonpayable",
      "type": "function"
    },
    {
      "inputs": [
        {
          "internalType": "uint256",
          "name": "uamount",
          "type": "uint256"
        }
      ],
      "name": "getETHFCost",
      "outputs": [
        {
          "internalType": "uint256",
          "name": "price",
          "type": "uint256"
        }
      ],
      "stateMutability": "view",
      "type": "function"
    },
    {
      "inputs": [
        {
          "internalType": "uint256",
          "name": "amount",
          "type": "uint256"
        },
        {
          "internalType": "uint256",
          "name": "payForm",
          "type": "uint256"
        }
      ],
      "name": "recharge",
      "outputs": [],
      "stateMutability": "payable",
      "type": "function"
    },
    {
      "inputs": [
        {
          "internalType": "address",
          "name": "account",
          "type": "address"
        }
      ],
      "name": "getCanClaimMMC",
      "outputs": [
        {
          "internalType": "uint256",
          "name": "",
          "type": "uint256"
        },
        {
          "internalType": "uint256",
          "name": "",
          "type": "uint256"
        }
      ],
      "stateMutability": "view",
      "type": "function"
    },
    {
      "inputs": [],
      "name": "claim",
      "outputs": [],
      "stateMutability": "nonpayable",
      "type": "function"
    },
    {
      "inputs": [
        {
          "internalType": "address",
          "name": "recipient",
          "type": "address"
        },
        {
          "internalType": "uint256",
          "name": "amount",
          "type": "uint256"
        }
      ],
      "name": "transfer",
      "outputs": [
        {
          "internalType": "bool",
          "name": "",
          "type": "bool"
        }
      ],
      "stateMutability": "nonpayable",
      "type": "function"
    },
    {
      "inputs": [
        {
          "internalType": "address",
          "name": "sender",
          "type": "address"
        },
        {
          "internalType": "address",
          "name": "recipient",
          "type": "address"
        },
        {
          "internalType": "uint256",
          "name": "amount",
          "type": "uint256"
        }
      ],
      "name": "transferFrom",
      "outputs": [
        {
          "internalType": "bool",
          "name": "",
          "type": "bool"
        }
      ],
      "stateMutability": "nonpayable",
      "type": "function"
    }
  ],
  "bytecode": "0x60a0604052600780546001600160e01b0319167705a39a800342fc12cfb57621ded0438403dc3ac63ac3bf311790553480156200003b57600080fd5b5060405162001a6a38038062001a6a8339810160408190526200005e9162000282565b604051806040016040528060098152602001682699aa102a37b5b2b760b91b81525060405180604001604052806003815260200162134cd560ea1b8152508160039081620000ad91906200035e565b506004620000bc82826200035e565b505050620000d9620000d36200012260201b60201c565b62000126565b6001600160a01b03828116608052600a80546001600160a01b03191691831691909117905560326008556200011a306aa56fa5b99019a5c800000062000178565b505062000452565b3390565b600580546001600160a01b038381166001600160a01b0319831681179093556040519116919082907f8be0079c531659141344cd1fd0a4f28419497f9722a3daafe3b4186f6b6457e090600090a35050565b6001600160a01b038216620001d35760405162461bcd60e51b815260206004820152601f60248201527f45524332303a206d696e7420746f20746865207a65726f206164647265737300604482015260640160405180910390fd5b8060026000828254620001e791906200042a565b90915550506001600160a01b03821660009081526020819052604081208054839290620002169084906200042a565b90915550506040518181526001600160a01b038316906000907fddf252ad1be2c89b69c2b068fc378daa952ba7f163c4a11628f55a4df523b3ef9060200160405180910390a35050565b505050565b80516001600160a01b03811681146200027d57600080fd5b919050565b600080604083850312156200029657600080fd5b620002a18362000265565b9150620002b16020840162000265565b90509250929050565b634e487b7160e01b600052604160045260246000fd5b600181811c90821680620002e557607f821691505b6020821081036200030657634e487b7160e01b600052602260045260246000fd5b50919050565b601f8211156200026057600081815260208120601f850160051c81016020861015620003355750805b601f850160051c820191505b81811015620003565782815560010162000341565b505050505050565b81516001600160401b038111156200037a576200037a620002ba565b62000392816200038b8454620002d0565b846200030c565b602080601f831160018114620003ca5760008415620003b15750858301515b600019600386901b1c1916600185901b17855562000356565b600085815260208120601f198616915b82811015620003fb57888601518255948401946001909101908401620003da565b50858210156200041a5787850151600019600388901b60f8161c191681555b5050505050600190811b01905550565b808201808211156200044c57634e487b7160e01b600052601160045260246000fd5b92915050565b6080516115f562000475600039600081816103ec0152610d6d01526115f56000f3fe6080604052600436106101775760003560e01c8063715018a6116100cc578063c460a13f1161007a578063c460a13f146104b0578063dd62ed3e146104c3578063deaa59df14610509578063f29a474a14610529578063f2fde38b1461053f578063f4bcc9e11461055f578063fdfb456e1461057f57600080fd5b8063715018a6146103c557806377b330c9146103da5780638da5cb5b1461042657806395d89b411461043b578063a0b1f15f14610450578063a457c2d714610470578063a9059cbb1461049057600080fd5b8063381fc80911610129578063381fc8091461028957806339509351146102a957806341d189f2146102c95780634e71d92d146103445780635ebd3b79146103595780636c4e3e5a1461037957806370a082311461038f57600080fd5b806306fdde031461017c578063091c0166146101a7578063095ea7b3146101dc57806318160ddd1461020c5780631bb3bdbb1461022b57806323b872dd1461024d578063313ce5671461026d575b600080fd5b34801561018857600080fd5b5061019161059f565b60405161019e91906112c3565b60405180910390f35b3480156101b357600080fd5b506101c76101c236600461132d565b610631565b6040805192835260208301919091520161019e565b3480156101e857600080fd5b506101fc6101f736600461134f565b6106ec565b604051901515815260200161019e565b34801561021857600080fd5b506002545b60405190815260200161019e565b34801561023757600080fd5b5061024b61024636600461132d565b610706565b005b34801561025957600080fd5b506101fc610268366004611379565b610760565b34801561027957600080fd5b506040516012815260200161019e565b34801561029557600080fd5b5061024b6102a43660046113b5565b6107f4565b3480156102b557600080fd5b506101fc6102c436600461134f565b610828565b3480156102d557600080fd5b506103196102e436600461132d565b600b602052600090815260409020805460018201546002909201546001600160401b0380831693600160401b90930416919084565b604080516001600160401b03958616815294909316602085015291830152606082015260800161019e565b34801561035057600080fd5b5061024b610867565b34801561036557600080fd5b5061024b6103743660046113b5565b610922565b34801561038557600080fd5b5061021d60085481565b34801561039b57600080fd5b5061021d6103aa36600461132d565b6001600160a01b031660009081526020819052604090205490565b3480156103d157600080fd5b5061024b610956565b3480156103e657600080fd5b5061040e7f000000000000000000000000000000000000000000000000000000000000000081565b6040516001600160a01b03909116815260200161019e565b34801561043257600080fd5b5061040e610991565b34801561044757600080fd5b506101916109a0565b34801561045c57600080fd5b5061021d61046b3660046113b5565b6109af565b34801561047c57600080fd5b506101fc61048b36600461134f565b610a66565b34801561049c57600080fd5b506101fc6104ab36600461134f565b610af8565b61024b6104be3660046113ce565b610b0e565b3480156104cf57600080fd5b5061021d6104de3660046113f0565b6001600160a01b03918216600090815260016020908152604080832093909416825291909152205490565b34801561051557600080fd5b5061024b61052436600461132d565b610e8d565b34801561053557600080fd5b5061021d60095481565b34801561054b57600080fd5b5061024b61055a36600461132d565b610ede565b34801561056b57600080fd5b5060065461040e906001600160a01b031681565b34801561058b57600080fd5b50600a5461040e906001600160a01b031681565b6060600380546105ae90611423565b80601f01602080910402602001604051908101604052809291908181526020018280546105da90611423565b80156106275780601f106105fc57610100808354040283529160200191610627565b820191906000526020600020905b81548152906001019060200180831161060a57829003601f168201915b5050505050905090565b6009546001600160a01b0382166000908152600b602052604081206001015490918291829161065f91611473565b6001600160a01b0385166000908152600b60205260408120549192509061068f906001600160401b031642611492565b6007546106ac90600160a01b90046001600160401b0316846114a5565b6106b69190611473565b6001600160a01b0386166000908152600b602052604090206002015490915081906106e19082611492565b935093505050915091565b6000336106fa818585610f7e565b60019150505b92915050565b3361070f610991565b6001600160a01b03161461073e5760405162461bcd60e51b8152600401610735906114c7565b60405180910390fd5b600680546001600160a01b0319166001600160a01b0392909216919091179055565b600061076d8484846110a2565b600061077985336104de565b9050828110156107dc5760405162461bcd60e51b815260206004820152602860248201527f45524332303a207472616e7366657220616d6f756e74206578636565647320616044820152676c6c6f77616e636560c01b6064820152608401610735565b6107e98533858403610f7e565b506001949350505050565b336107fd610991565b6001600160a01b0316146108235760405162461bcd60e51b8152600401610735906114c7565b600955565b3360008181526001602090815260408083206001600160a01b03871684529091528120549091906106fa90829086906108629087906114fc565b610f7e565b600061087233610631565b9150506000811161088257600080fd5b60065460405163a9059cbb60e01b8152336004820152602481018390526001600160a01b039091169063a9059cbb906044016020604051808303816000875af11580156108d3573d6000803e3d6000fd5b505050506040513d601f19601f820116820180604052508101906108f7919061150f565b50336000908152600b60205260408120600201805483929061091a9084906114fc565b909155505050565b3361092b610991565b6001600160a01b0316146109515760405162461bcd60e51b8152600401610735906114c7565b600855565b3361095f610991565b6001600160a01b0316146109855760405162461bcd60e51b8152600401610735906114c7565b61098f6000611271565b565b6005546001600160a01b031690565b6060600480546105ae90611423565b6000806000600a60009054906101000a90046001600160a01b03166001600160a01b0316630902f1ac6040518163ffffffff1660e01b8152600401606060405180830381865afa158015610a07573d6000803e3d6000fd5b505050506040513d601f19601f82011682018060405250810190610a2b9190611548565b506001600160701b03918216935016905083610a4783836114a5565b610a5490620f4240611473565b610a5e9190611473565b949350505050565b3360008181526001602090815260408083206001600160a01b038716845290915281205490919083811015610aeb5760405162461bcd60e51b815260206004820152602560248201527f45524332303a2064656372656173656420616c6c6f77616e63652062656c6f77604482015264207a65726f60d81b6064820152608401610735565b6107e98286868403610f7e565b6000610b053384846110a2565b50600192915050565b60008211610b4f5760405162461bcd60e51b815260206004820152600e60248201526d105b5bdd5b9d08125b9d985b1a5960921b6044820152606401610735565b600060085483610b5f9190611473565b610b6e9064e8d4a51000611473565b336000908152600b602052604081205491925084916001600160401b03169003610c1357336000908152600b6020526040902080546001600160401b034281811667ffffffffffffffff1990931692909217909255600754610bd992600160a01b9091041690611598565b336000908152600b6020526040902080546001600160401b0392909216600160401b0267ffffffffffffffff60401b199092169190911790555b610c228464e8d4a51000611473565b336000908152600b602052604081206001018054909190610c449084906114fc565b90915550506000839003610d3357610c5b846109af565b341015610c9c5760405162461bcd60e51b815260206004820152600f60248201526e2737ba1032b737bab3b41032ba343360891b6044820152606401610735565b6007546001600160a01b03166108fc610cb4866109af565b6040518115909202916000818181858888f19350505050158015610cdc573d6000803e3d6000fd5b50610ce6846109af565b341115610d2e57336108fc610cfa866109af565b610d049034611492565b6040518115909202916000818181858888f19350505050158015610d2c573d6000803e3d6000fd5b505b610e1e565b82600103610e1e576007546040516323b872dd60e01b81523360048201526001600160a01b039182166024820152604481018390526000917f000000000000000000000000000000000000000000000000000000000000000016906323b872dd906064016020604051808303816000875af1158015610db6573d6000803e3d6000fd5b505050506040513d601f19601f82011682018060405250810190610dda919061150f565b905080610e1c5760405162461bcd60e51b815260206004820152601060248201526f151c985b9cd9995c88125b9d985b1a5960821b6044820152606401610735565b505b60405163a9059cbb60e01b815233600482015260248101839052309063a9059cbb906044016020604051808303816000875af1158015610e62573d6000803e3d6000fd5b505050506040513d601f19601f82011682018060405250810190610e86919061150f565b5050505050565b33610e96610991565b6001600160a01b031614610ebc5760405162461bcd60e51b8152600401610735906114c7565b600780546001600160a01b0319166001600160a01b0392909216919091179055565b33610ee7610991565b6001600160a01b031614610f0d5760405162461bcd60e51b8152600401610735906114c7565b6001600160a01b038116610f725760405162461bcd60e51b815260206004820152602660248201527f4f776e61626c653a206e6577206f776e657220697320746865207a65726f206160448201526564647265737360d01b6064820152608401610735565b610f7b81611271565b50565b6001600160a01b038316610fe05760405162461bcd60e51b8152602060048201526024808201527f45524332303a20617070726f76652066726f6d20746865207a65726f206164646044820152637265737360e01b6064820152608401610735565b6001600160a01b0382166110415760405162461bcd60e51b815260206004820152602260248201527f45524332303a20617070726f766520746f20746865207a65726f206164647265604482015261737360f01b6064820152608401610735565b6001600160a01b0383811660008181526001602090815260408083209487168084529482529182902085905590518481527f8c5be1e5ebec7d5bd14f71427d1e84f3dd0314c0f7b2291e5b200ac8c7c3b925910160405180910390a3505050565b6001600160a01b0383166111065760405162461bcd60e51b815260206004820152602560248201527f45524332303a207472616e736665722066726f6d20746865207a65726f206164604482015264647265737360d81b6064820152608401610735565b6001600160a01b0382166111685760405162461bcd60e51b815260206004820152602360248201527f45524332303a207472616e7366657220746f20746865207a65726f206164647260448201526265737360e81b6064820152608401610735565b6001600160a01b038316600090815260208190526040902054818110156111e05760405162461bcd60e51b815260206004820152602660248201527f45524332303a207472616e7366657220616d6f756e7420657863656564732062604482015265616c616e636560d01b6064820152608401610735565b6001600160a01b038085166000908152602081905260408082208585039055918516815290812080548492906112179084906114fc565b92505081905550826001600160a01b0316846001600160a01b03167fddf252ad1be2c89b69c2b068fc378daa952ba7f163c4a11628f55a4df523b3ef8460405161126391815260200190565b60405180910390a350505050565b600580546001600160a01b038381166001600160a01b0319831681179093556040519116919082907f8be0079c531659141344cd1fd0a4f28419497f9722a3daafe3b4186f6b6457e090600090a35050565b600060208083528351808285015260005b818110156112f0578581018301518582016040015282016112d4565b506000604082860101526040601f19601f8301168501019250505092915050565b80356001600160a01b038116811461132857600080fd5b919050565b60006020828403121561133f57600080fd5b61134882611311565b9392505050565b6000806040838503121561136257600080fd5b61136b83611311565b946020939093013593505050565b60008060006060848603121561138e57600080fd5b61139784611311565b92506113a560208501611311565b9150604084013590509250925092565b6000602082840312156113c757600080fd5b5035919050565b600080604083850312156113e157600080fd5b50508035926020909101359150565b6000806040838503121561140357600080fd5b61140c83611311565b915061141a60208401611311565b90509250929050565b600181811c9082168061143757607f821691505b60208210810361145757634e487b7160e01b600052602260045260246000fd5b50919050565b634e487b7160e01b600052601160045260246000fd5b600081600019048311821515161561148d5761148d61145d565b500290565b818103818111156107005761070061145d565b6000826114c257634e487b7160e01b600052601260045260246000fd5b500490565b6020808252818101527f4f776e61626c653a2063616c6c6572206973206e6f7420746865206f776e6572604082015260600190565b808201808211156107005761070061145d565b60006020828403121561152157600080fd5b8151801515811461134857600080fd5b80516001600160701b038116811461132857600080fd5b60008060006060848603121561155d57600080fd5b61156684611531565b925061157460208501611531565b9150604084015163ffffffff8116811461158d57600080fd5b809150509250925092565b6001600160401b038181168382160190808211156115b8576115b861145d565b509291505056fea26469706673582212201cd10f90758b3e8d144388941a1700fb5714528bc28d51ef102817fb171707a364736f6c63430008100033",
  "immutableReferences": {
    "21407": [
      {
        "length": 32,
        "start": 1004
      },
      {
        "length": 32,
        "start": 3437
      }
    ]
  },
  "source": "// SPDX-License-Identifier: SimPL-2.0\n\npragma solidity ^0.8.0;\n\nimport \"@openzeppelin/contracts/token/ERC20/ERC20.sol\";\nimport \"@openzeppelin/contracts/token/ERC20/IERC20.sol\";\nimport \"@openzeppelin/contracts/access/Ownable.sol\";\nimport \"./IMdaoPair.sol\"; \n\ncontract M3tTokenETHF is ERC20, Ownable {\n    IERC20 immutable public USDT_TOKEN;\n    IERC20 public MDao;\n    address _wallet = 0x0342FC12CfB57621DED0438403Dc3AC63ac3bf31;\n    uint64 UnlockTime = 1095 days;\n    uint256 public priceM3t;\n    uint256 public priceMDao;\n    IMdaoPair public U2ETHF;\n\n    struct LockInfo {\n        uint64 lockTime;\n        uint64 unlockTime;\n        uint256 lockAmount;\n        uint256 claimedAmount;\n    }\n    mapping (address => LockInfo) public lockInfos;\n\n    constructor(address _usdt, address u2ethf) ERC20(\"M3T Token\", \"M3T\") {\n        USDT_TOKEN = IERC20(_usdt);\n        U2ETHF = IMdaoPair(u2ethf);\n        priceM3t = 50;\n        _mint(address(this), 200000000e18);\n    }\n\n    function setPriceM3t(uint256 newPrice) public onlyOwner {\n        priceM3t = newPrice;\n    }\n\n    function setPriceMDao(uint256 newPrice) public onlyOwner {\n        priceMDao = newPrice;\n    }\n\n    function setMDao(address mdao) public onlyOwner {\n        MDao = IERC20(mdao);\n    }\n\n    function setWallet(address newWallet) public onlyOwner {\n        _wallet = newWallet;\n    }\n\n    function getETHFCost(uint256 uamount) public view returns(uint256 price) {\n        (uint256 u, uint256 ethfu,) = U2ETHF.getReserves();\n        price = ethfu / u * 1e6 * uamount;\n    }\n\n    function recharge(uint256 amount, uint256 payForm) external payable {\n        require(amount > 0, \"Amount Invalid\");\n        uint256 m3t = amount * priceM3t * 1e12;\n        uint256 usdt = amount;\n        if (lockInfos[msg.sender].lockTime == 0) {\n            lockInfos[msg.sender].lockTime = uint64(block.timestamp);\n            lockInfos[msg.sender].unlockTime = uint64(block.timestamp) + UnlockTime;\n        }\n        lockInfos[msg.sender].lockAmount += amount * 1e12;\n        if (payForm == 0) {\n            require(msg.value >= getETHFCost(amount), \"Not enough ethf\");\n            payable(_wallet).transfer(getETHFCost(amount));\n            if (msg.value > getETHFCost(amount)) {\n                payable(msg.sender).transfer(msg.value - getETHFCost(amount));\n            }\n        } else if (payForm == 1) {\n            bool success = USDT_TOKEN.transferFrom(\n                msg.sender, _wallet, usdt\n            );\n            require(success, \"Transfer Invalid\");\n        }\n\n        IERC20(address(this)).transfer(msg.sender, m3t);\n    }\n\n    function getCanClaimMMC(address account) public view returns (uint256, uint256) {\n        // amount * days / 3 year\n        uint256 totalCanClaimAmountMDao = lockInfos[account].lockAmount * priceMDao;\n        uint256 totalCanClaimAmount = totalCanClaimAmountMDao / UnlockTime * (block.timestamp - lockInfos[account].lockTime);\n        return (totalCanClaimAmount, totalCanClaimAmount - lockInfos[account].claimedAmount);\n    }\n\n    function claim() public {\n        (, uint256 nowCanClaimAmount) = getCanClaimMMC(msg.sender);\n        require(nowCanClaimAmount > 0);\n        MDao.transfer(msg.sender, nowCanClaimAmount);\n        lockInfos[msg.sender].claimedAmount += nowCanClaimAmount;\n    }\n\n    function transfer(address recipient, uint256 amount) public virtual override returns (bool) {\n        _transfer(_msgSender(), recipient, amount);\n        return true;\n    }\n\n    function transferFrom(\n        address sender,\n        address recipient,\n        uint256 amount\n    ) public virtual override returns (bool) {\n        _transfer(sender, recipient, amount);\n        uint256 currentAllowance = allowance(sender, _msgSender());\n        require(currentAllowance >= amount, \"ERC20: transfer amount exceeds allowance\");\n        unchecked {\n            _approve(sender, _msgSender(), currentAllowance - amount);\n        }\n\n        return true;\n    }\n\n\n\n\n    // //for test\n    // mapping (address => bool) getTest;\n    // uint256 totalTest = 40000000;\n    // uint256 nowTest = 0;\n\n    // function getTestToken() public {\n    //     require(nowTest + 200000 <= totalTest);\n    //     require(!getTest[msg.sender]);\n    //     _mint(msg.sender, 200000e18);\n    //     nowTest += 200000;\n    //     getTest[msg.sender] = true;\n    // }\n\n    // function canGetTestToken(address account) public view returns(bool) {\n    //     return getTest[account];\n    // }\n}",
  "sourcePath": "/Users/hy/new-rich-contract/contracts/M3tTokenETHF.sol",
  "compiler": {
    "name": "solc",
    "version": "0.8.16+commit.07a7930e.Emscripten.clang"
  },
  "schemaVersion": "3.4.3",
  "updatedAt": "2022-10-26T16:23:43.223Z",
  "devdoc": {
    "kind": "dev",
    "methods": {
      "allowance(address,address)": {
        "details": "See {IERC20-allowance}."
      },
      "approve(address,uint256)": {
        "details": "See {IERC20-approve}. NOTE: If `amount` is the maximum `uint256`, the allowance is not updated on `transferFrom`. This is semantically equivalent to an infinite approval. Requirements: - `spender` cannot be the zero address."
      },
      "balanceOf(address)": {
        "details": "See {IERC20-balanceOf}."
      },
      "decimals()": {
        "details": "Returns the number of decimals used to get its user representation. For example, if `decimals` equals `2`, a balance of `505` tokens should be displayed to a user as `5.05` (`505 / 10 ** 2`). Tokens usually opt for a value of 18, imitating the relationship between Ether and Wei. This is the value {ERC20} uses, unless this function is overridden; NOTE: This information is only used for _display_ purposes: it in no way affects any of the arithmetic of the contract, including {IERC20-balanceOf} and {IERC20-transfer}."
      },
      "decreaseAllowance(address,uint256)": {
        "details": "Atomically decreases the allowance granted to `spender` by the caller. This is an alternative to {approve} that can be used as a mitigation for problems described in {IERC20-approve}. Emits an {Approval} event indicating the updated allowance. Requirements: - `spender` cannot be the zero address. - `spender` must have allowance for the caller of at least `subtractedValue`."
      },
      "increaseAllowance(address,uint256)": {
        "details": "Atomically increases the allowance granted to `spender` by the caller. This is an alternative to {approve} that can be used as a mitigation for problems described in {IERC20-approve}. Emits an {Approval} event indicating the updated allowance. Requirements: - `spender` cannot be the zero address."
      },
      "name()": {
        "details": "Returns the name of the token."
      },
      "owner()": {
        "details": "Returns the address of the current owner."
      },
      "renounceOwnership()": {
        "details": "Leaves the contract without owner. It will not be possible to call `onlyOwner` functions anymore. Can only be called by the current owner. NOTE: Renouncing ownership will leave the contract without an owner, thereby removing any functionality that is only available to the owner."
      },
      "symbol()": {
        "details": "Returns the symbol of the token, usually a shorter version of the name."
      },
      "totalSupply()": {
        "details": "See {IERC20-totalSupply}."
      },
      "transferOwnership(address)": {
        "details": "Transfers ownership of the contract to a new account (`newOwner`). Can only be called by the current owner."
      }
    },
    "version": 1
  },
  "userdoc": {
    "kind": "user",
    "methods": {},
    "version": 1
  }
}