{
  "contractName": "M3tToken",
  "abi": [
    {
      "inputs": [
        {
          "internalType": "address",
          "name": "_token",
          "type": "address"
        }
      ],
      "stateMutability": "nonpayable",
      "type": "constructor"
    },
    {
      "anonymous": false,
      "inputs": [
        {
          "indexed": true,
          "internalType": "address",
          "name": "owner",
          "type": "address"
        },
        {
          "indexed": true,
          "internalType": "address",
          "name": "spender",
          "type": "address"
        },
        {
          "indexed": false,
          "internalType": "uint256",
          "name": "value",
          "type": "uint256"
        }
      ],
      "name": "Approval",
      "type": "event"
    },
    {
      "anonymous": false,
      "inputs": [
        {
          "indexed": true,
          "internalType": "address",
          "name": "from",
          "type": "address"
        },
        {
          "indexed": true,
          "internalType": "address",
          "name": "to",
          "type": "address"
        },
        {
          "indexed": false,
          "internalType": "uint256",
          "name": "value",
          "type": "uint256"
        }
      ],
      "name": "Transfer",
      "type": "event"
    },
    {
      "inputs": [],
      "name": "USDT_TOKEN",
      "outputs": [
        {
          "internalType": "contract IERC20",
          "name": "",
          "type": "address"
        }
      ],
      "stateMutability": "view",
      "type": "function",
      "constant": true
    },
    {
      "inputs": [
        {
          "internalType": "address",
          "name": "owner",
          "type": "address"
        },
        {
          "internalType": "address",
          "name": "spender",
          "type": "address"
        }
      ],
      "name": "allowance",
      "outputs": [
        {
          "internalType": "uint256",
          "name": "",
          "type": "uint256"
        }
      ],
      "stateMutability": "view",
      "type": "function",
      "constant": true
    },
    {
      "inputs": [
        {
          "internalType": "address",
          "name": "spender",
          "type": "address"
        },
        {
          "internalType": "uint256",
          "name": "amount",
          "type": "uint256"
        }
      ],
      "name": "approve",
      "outputs": [
        {
          "internalType": "bool",
          "name": "",
          "type": "bool"
        }
      ],
      "stateMutability": "nonpayable",
      "type": "function"
    },
    {
      "inputs": [
        {
          "internalType": "address",
          "name": "account",
          "type": "address"
        }
      ],
      "name": "balanceOf",
      "outputs": [
        {
          "internalType": "uint256",
          "name": "",
          "type": "uint256"
        }
      ],
      "stateMutability": "view",
      "type": "function",
      "constant": true
    },
    {
      "inputs": [],
      "name": "decimals",
      "outputs": [
        {
          "internalType": "uint8",
          "name": "",
          "type": "uint8"
        }
      ],
      "stateMutability": "view",
      "type": "function",
      "constant": true
    },
    {
      "inputs": [
        {
          "internalType": "address",
          "name": "spender",
          "type": "address"
        },
        {
          "internalType": "uint256",
          "name": "subtractedValue",
          "type": "uint256"
        }
      ],
      "name": "decreaseAllowance",
      "outputs": [
        {
          "internalType": "bool",
          "name": "",
          "type": "bool"
        }
      ],
      "stateMutability": "nonpayable",
      "type": "function"
    },
    {
      "inputs": [
        {
          "internalType": "address",
          "name": "spender",
          "type": "address"
        },
        {
          "internalType": "uint256",
          "name": "addedValue",
          "type": "uint256"
        }
      ],
      "name": "increaseAllowance",
      "outputs": [
        {
          "internalType": "bool",
          "name": "",
          "type": "bool"
        }
      ],
      "stateMutability": "nonpayable",
      "type": "function"
    },
    {
      "inputs": [],
      "name": "name",
      "outputs": [
        {
          "internalType": "string",
          "name": "",
          "type": "string"
        }
      ],
      "stateMutability": "view",
      "type": "function",
      "constant": true
    },
    {
      "inputs": [],
      "name": "symbol",
      "outputs": [
        {
          "internalType": "string",
          "name": "",
          "type": "string"
        }
      ],
      "stateMutability": "view",
      "type": "function",
      "constant": true
    },
    {
      "inputs": [],
      "name": "totalSupply",
      "outputs": [
        {
          "internalType": "uint256",
          "name": "",
          "type": "uint256"
        }
      ],
      "stateMutability": "view",
      "type": "function",
      "constant": true
    },
    {
      "inputs": [],
      "name": "getTestToken",
      "outputs": [],
      "stateMutability": "nonpayable",
      "type": "function"
    },
    {
      "inputs": [
        {
          "internalType": "address",
          "name": "account",
          "type": "address"
        }
      ],
      "name": "canGetTestToken",
      "outputs": [
        {
          "internalType": "bool",
          "name": "",
          "type": "bool"
        }
      ],
      "stateMutability": "view",
      "type": "function",
      "constant": true
    },
    {
      "inputs": [
        {
          "internalType": "uint256",
          "name": "amount",
          "type": "uint256"
        }
      ],
      "name": "recharge",
      "outputs": [],
      "stateMutability": "nonpayable",
      "type": "function"
    },
    {
      "inputs": [
        {
          "internalType": "address",
          "name": "recipient",
          "type": "address"
        },
        {
          "internalType": "uint256",
          "name": "amount",
          "type": "uint256"
        }
      ],
      "name": "transfer",
      "outputs": [
        {
          "internalType": "bool",
          "name": "",
          "type": "bool"
        }
      ],
      "stateMutability": "nonpayable",
      "type": "function"
    },
    {
      "inputs": [
        {
          "internalType": "address",
          "name": "sender",
          "type": "address"
        },
        {
          "internalType": "address",
          "name": "recipient",
          "type": "address"
        },
        {
          "internalType": "uint256",
          "name": "amount",
          "type": "uint256"
        }
      ],
      "name": "transferFrom",
      "outputs": [
        {
          "internalType": "bool",
          "name": "",
          "type": "bool"
        }
      ],
      "stateMutability": "nonpayable",
      "type": "function"
    }
  ],
  "bytecode": "0x60a0604052600580546001600160a01b03199081167310ed43c718714eb63d5aa57b78b54704e256024e17909155600680549091167352ed09d15c0d29ec26b80a09a901ecf4896c287e1790553480156200005957600080fd5b50604051620010f8380380620010f88339810160408190526200007c9162000350565b604051806040016040528060098152602001682699aa102a37b5b2b760b91b81525060405180604001604052806003815260200162134cd560ea1b8152508160039080519060200190620000d2929190620002aa565b508051620000e8906004906020840190620002aa565b5050506001600160a01b0381166080526200010f306aa56fa5b99019a5c8000000620001c2565b6200013a73159f369e0fb35a070d572e29737168a499dec6f56a52b7d2dcc80cd2e4000000620001c2565b62000165732ec8ebb0a8eaa40e4ce620cf9f84a96df68d46696a52b7d2dcc80cd2e4000000620001c2565b620001907392f4d033e44576b8672c6f46b35f8ab8031514136a52b7d2dcc80cd2e4000000620001c2565b620001bb73aad1f995f6994bef38cadc711f533f9629e4839c6a52b7d2dcc80cd2e4000000620001c2565b50620003e6565b6001600160a01b0382166200021d5760405162461bcd60e51b815260206004820152601f60248201527f45524332303a206d696e7420746f20746865207a65726f206164647265737300604482015260640160405180910390fd5b806002600082825462000231919062000382565b90915550506001600160a01b038216600090815260208190526040812080548392906200026090849062000382565b90915550506040518181526001600160a01b038316906000907fddf252ad1be2c89b69c2b068fc378daa952ba7f163c4a11628f55a4df523b3ef9060200160405180910390a35050565b828054620002b890620003a9565b90600052602060002090601f016020900481019282620002dc576000855562000327565b82601f10620002f757805160ff191683800117855562000327565b8280016001018555821562000327579182015b82811115620003275782518255916020019190600101906200030a565b506200033592915062000339565b5090565b5b808211156200033557600081556001016200033a565b6000602082840312156200036357600080fd5b81516001600160a01b03811681146200037b57600080fd5b9392505050565b60008219821115620003a457634e487b7160e01b600052601160045260246000fd5b500190565b600181811c90821680620003be57607f821691505b60208210811415620003e057634e487b7160e01b600052602260045260246000fd5b50919050565b608051610cef62000409600039600081816101b001526105bc0152610cef6000f3fe608060405234801561001057600080fd5b50600436106100f55760003560e01c806377b330c911610097578063a9059cbb11610066578063a9059cbb14610231578063abb28b9214610244578063dd62ed3e1461024e578063ef299b0b1461028757600080fd5b806377b330c9146101ab57806395d89b41146101ea5780639d720bce146101f2578063a457c2d71461021e57600080fd5b806323b872dd116100d357806323b872dd1461014d578063313ce56714610160578063395093511461016f57806370a082311461018257600080fd5b806306fdde03146100fa578063095ea7b31461011857806318160ddd1461013b575b600080fd5b61010261029a565b60405161010f9190610aca565b60405180910390f35b61012b610126366004610b3b565b61032c565b604051901515815260200161010f565b6002545b60405190815260200161010f565b61012b61015b366004610b65565b610342565b6040516012815260200161010f565b61012b61017d366004610b3b565b6103f7565b61013f610190366004610ba1565b6001600160a01b031660009081526020819052604090205490565b6101d27f000000000000000000000000000000000000000000000000000000000000000081565b6040516001600160a01b03909116815260200161010f565b610102610433565b61012b610200366004610ba1565b6001600160a01b031660009081526007602052604090205460ff1690565b61012b61022c366004610b3b565b610442565b61012b61023f366004610b3b565b6104db565b61024c610504565b005b61013f61025c366004610bc3565b6001600160a01b03918216600090815260016020908152604080832093909416825291909152205490565b61024c610295366004610bf6565b610537565b6060600380546102a990610c0f565b80601f01602080910402602001604051908101604052809291908181526020018280546102d590610c0f565b80156103225780601f106102f757610100808354040283529160200191610322565b820191906000526020600020905b81548152906001019060200180831161030557829003601f168201915b5050505050905090565b60006103393384846106f8565b50600192915050565b6005546000906001600160a01b038481169116141561036057600080fd5b61036b84848461081c565b6000610377853361025c565b9050828110156103df5760405162461bcd60e51b815260206004820152602860248201527f45524332303a207472616e7366657220616d6f756e74206578636565647320616044820152676c6c6f77616e636560c01b60648201526084015b60405180910390fd5b6103ec85338584036106f8565b506001949350505050565b3360008181526001602090815260408083206001600160a01b0387168452909152812054909161033991859061042e908690610c60565b6106f8565b6060600480546102a990610c0f565b3360009081526001602090815260408083206001600160a01b0386168452909152812054828110156104c45760405162461bcd60e51b815260206004820152602560248201527f45524332303a2064656372656173656420616c6c6f77616e63652062656c6f77604482015264207a65726f60d81b60648201526084016103d6565b6104d133858584036106f8565b5060019392505050565b6005546000906001600160a01b03848116911614156104f957600080fd5b61033933848461081c565b3360009081526007602052604090205460ff161561052157600080fd5b6105353369d3c21bcecceda10000006109eb565b565b600081116105785760405162461bcd60e51b815260206004820152600e60248201526d105b5bdd5b9d08125b9d985b1a5960921b60448201526064016103d6565b6000610585826019610c78565b6006546040516323b872dd60e01b81523360048201526001600160a01b0391821660248201526044810185905291925083916000917f000000000000000000000000000000000000000000000000000000000000000016906323b872dd90606401602060405180830381600087803b15801561060057600080fd5b505af1158015610614573d6000803e3d6000fd5b505050506040513d601f19601f820116820180604052508101906106389190610c97565b90508061067a5760405162461bcd60e51b815260206004820152601060248201526f151c985b9cd9995c88125b9d985b1a5960821b60448201526064016103d6565b60405163a9059cbb60e01b815233600482015260248101849052309063a9059cbb90604401602060405180830381600087803b1580156106b957600080fd5b505af11580156106cd573d6000803e3d6000fd5b505050506040513d601f19601f820116820180604052508101906106f19190610c97565b5050505050565b6001600160a01b03831661075a5760405162461bcd60e51b8152602060048201526024808201527f45524332303a20617070726f76652066726f6d20746865207a65726f206164646044820152637265737360e01b60648201526084016103d6565b6001600160a01b0382166107bb5760405162461bcd60e51b815260206004820152602260248201527f45524332303a20617070726f766520746f20746865207a65726f206164647265604482015261737360f01b60648201526084016103d6565b6001600160a01b0383811660008181526001602090815260408083209487168084529482529182902085905590518481527f8c5be1e5ebec7d5bd14f71427d1e84f3dd0314c0f7b2291e5b200ac8c7c3b925910160405180910390a3505050565b6001600160a01b0383166108805760405162461bcd60e51b815260206004820152602560248201527f45524332303a207472616e736665722066726f6d20746865207a65726f206164604482015264647265737360d81b60648201526084016103d6565b6001600160a01b0382166108e25760405162461bcd60e51b815260206004820152602360248201527f45524332303a207472616e7366657220746f20746865207a65726f206164647260448201526265737360e81b60648201526084016103d6565b6001600160a01b0383166000908152602081905260409020548181101561095a5760405162461bcd60e51b815260206004820152602660248201527f45524332303a207472616e7366657220616d6f756e7420657863656564732062604482015265616c616e636560d01b60648201526084016103d6565b6001600160a01b03808516600090815260208190526040808220858503905591851681529081208054849290610991908490610c60565b92505081905550826001600160a01b0316846001600160a01b03167fddf252ad1be2c89b69c2b068fc378daa952ba7f163c4a11628f55a4df523b3ef846040516109dd91815260200190565b60405180910390a350505050565b6001600160a01b038216610a415760405162461bcd60e51b815260206004820152601f60248201527f45524332303a206d696e7420746f20746865207a65726f20616464726573730060448201526064016103d6565b8060026000828254610a539190610c60565b90915550506001600160a01b03821660009081526020819052604081208054839290610a80908490610c60565b90915550506040518181526001600160a01b038316906000907fddf252ad1be2c89b69c2b068fc378daa952ba7f163c4a11628f55a4df523b3ef9060200160405180910390a35050565b600060208083528351808285015260005b81811015610af757858101830151858201604001528201610adb565b81811115610b09576000604083870101525b50601f01601f1916929092016040019392505050565b80356001600160a01b0381168114610b3657600080fd5b919050565b60008060408385031215610b4e57600080fd5b610b5783610b1f565b946020939093013593505050565b600080600060608486031215610b7a57600080fd5b610b8384610b1f565b9250610b9160208501610b1f565b9150604084013590509250925092565b600060208284031215610bb357600080fd5b610bbc82610b1f565b9392505050565b60008060408385031215610bd657600080fd5b610bdf83610b1f565b9150610bed60208401610b1f565b90509250929050565b600060208284031215610c0857600080fd5b5035919050565b600181811c90821680610c2357607f821691505b60208210811415610c4457634e487b7160e01b600052602260045260246000fd5b50919050565b634e487b7160e01b600052601160045260246000fd5b60008219821115610c7357610c73610c4a565b500190565b6000816000190483118215151615610c9257610c92610c4a565b500290565b600060208284031215610ca957600080fd5b81518015158114610bbc57600080fdfea264697066735822122094d80903d588732227d0af43d98e5c665bf284faafa2f25cff40aedf06f1b21164736f6c63430008090033",
  "immutableReferences": {
    "10117": [
      {
        "length": 32,
        "start": 432
      },
      {
        "length": 32,
        "start": 1468
      }
    ]
  },
  "source": "// SPDX-License-Identifier: SimPL-2.0\n\npragma solidity ^0.8.0;\n\nimport \"@openzeppelin/contracts/token/ERC20/ERC20.sol\";\nimport \"@openzeppelin/contracts/token/ERC20/IERC20.sol\";\n\ncontract M3tToken is ERC20 {\n    IERC20 immutable public USDT_TOKEN;\n    address _pancakeswapV2Router = 0x10ED43C718714eb63d5aA57B78B54704E256024E;\n    address _wallet = 0x52ED09D15C0d29eC26b80a09a901EcF4896C287e;\n    //for test\n    mapping (address => bool) getTest;\n\n    function getTestToken() public {\n        require(!getTest[msg.sender]);\n        _mint(msg.sender, 1000000e18);\n    }\n\n    function canGetTestToken(address account) public view returns(bool) {\n        return getTest[account];\n    }\n\n    constructor(address _token) ERC20(\"M3T Token\", \"M3T\") {\n        USDT_TOKEN = IERC20(_token);\n        _mint(address(this), 200000000e18);\n        _mint(address(0x159F369E0fB35a070d572e29737168A499dEc6F5), 100000000e18);\n        _mint(address(0x2EC8EBB0a8eAa40e4Ce620CF9f84A96dF68D4669), 100000000e18);\n        _mint(address(0x92F4D033e44576B8672C6F46B35f8aB803151413), 100000000e18);\n        _mint(address(0xAAd1f995F6994BEf38Cadc711f533F9629e4839c), 100000000e18);\n    }\n\n    function recharge(uint256 amount) external {\n        require(amount > 0, \"Amount Invalid\");\n        uint256 m3t = amount * 25;\n        uint256 usdt = amount;\n\n        bool success = USDT_TOKEN.transferFrom(\n            msg.sender, _wallet, usdt\n        );\n        require(success, \"Transfer Invalid\");\n        IERC20(address(this)).transfer(msg.sender, m3t);\n    }\n\n    function transfer(address recipient, uint256 amount) public virtual override returns (bool) {\n        require(recipient != _pancakeswapV2Router);\n        _transfer(_msgSender(), recipient, amount);\n        return true;\n    }\n\n    function transferFrom(\n        address sender,\n        address recipient,\n        uint256 amount\n    ) public virtual override returns (bool) {\n        require(recipient != _pancakeswapV2Router);\n        _transfer(sender, recipient, amount);\n        uint256 currentAllowance = allowance(sender, _msgSender());\n        require(currentAllowance >= amount, \"ERC20: transfer amount exceeds allowance\");\n        unchecked {\n            _approve(sender, _msgSender(), currentAllowance - amount);\n        }\n\n        return true;\n    }\n}",
  "sourcePath": "/Users/hy/new-rich-contract/contracts/M3tToken.sol",
  "compiler": {
    "name": "solc",
    "version": "0.8.9+commit.e5eed63a.Emscripten.clang"
  },
  "schemaVersion": "3.4.3",
  "updatedAt": "2022-03-09T15:22:07.977Z",
  "networkType": "ethereum",
  "devdoc": {
    "kind": "dev",
    "methods": {
      "allowance(address,address)": {
        "details": "See {IERC20-allowance}."
      },
      "approve(address,uint256)": {
        "details": "See {IERC20-approve}. Requirements: - `spender` cannot be the zero address."
      },
      "balanceOf(address)": {
        "details": "See {IERC20-balanceOf}."
      },
      "decimals()": {
        "details": "Returns the number of decimals used to get its user representation. For example, if `decimals` equals `2`, a balance of `505` tokens should be displayed to a user as `5.05` (`505 / 10 ** 2`). Tokens usually opt for a value of 18, imitating the relationship between Ether and Wei. This is the value {ERC20} uses, unless this function is overridden; NOTE: This information is only used for _display_ purposes: it in no way affects any of the arithmetic of the contract, including {IERC20-balanceOf} and {IERC20-transfer}."
      },
      "decreaseAllowance(address,uint256)": {
        "details": "Atomically decreases the allowance granted to `spender` by the caller. This is an alternative to {approve} that can be used as a mitigation for problems described in {IERC20-approve}. Emits an {Approval} event indicating the updated allowance. Requirements: - `spender` cannot be the zero address. - `spender` must have allowance for the caller of at least `subtractedValue`."
      },
      "increaseAllowance(address,uint256)": {
        "details": "Atomically increases the allowance granted to `spender` by the caller. This is an alternative to {approve} that can be used as a mitigation for problems described in {IERC20-approve}. Emits an {Approval} event indicating the updated allowance. Requirements: - `spender` cannot be the zero address."
      },
      "name()": {
        "details": "Returns the name of the token."
      },
      "symbol()": {
        "details": "Returns the symbol of the token, usually a shorter version of the name."
      },
      "totalSupply()": {
        "details": "See {IERC20-totalSupply}."
      },
      "transfer(address,uint256)": {
        "details": "See {IERC20-transfer}. Requirements: - `recipient` cannot be the zero address. - the caller must have a balance of at least `amount`."
      },
      "transferFrom(address,address,uint256)": {
        "details": "See {IERC20-transferFrom}. Emits an {Approval} event indicating the updated allowance. This is not required by the EIP. See the note at the beginning of {ERC20}. Requirements: - `sender` and `recipient` cannot be the zero address. - `sender` must have a balance of at least `amount`. - the caller must have allowance for ``sender``'s tokens of at least `amount`."
      }
    },
    "version": 1
  },
  "userdoc": {
    "kind": "user",
    "methods": {},
    "version": 1
  }
}