{
  "contractName": "MemoryToken",
  "abi": [
    {
      "inputs": [],
      "stateMutability": "nonpayable",
      "type": "constructor"
    },
    {
      "anonymous": false,
      "inputs": [
        {
          "indexed": true,
          "internalType": "address",
          "name": "owner",
          "type": "address"
        },
        {
          "indexed": true,
          "internalType": "address",
          "name": "spender",
          "type": "address"
        },
        {
          "indexed": false,
          "internalType": "uint256",
          "name": "value",
          "type": "uint256"
        }
      ],
      "name": "Approval",
      "type": "event"
    },
    {
      "anonymous": false,
      "inputs": [
        {
          "indexed": true,
          "internalType": "address",
          "name": "from",
          "type": "address"
        },
        {
          "indexed": true,
          "internalType": "address",
          "name": "to",
          "type": "address"
        },
        {
          "indexed": false,
          "internalType": "uint256",
          "name": "value",
          "type": "uint256"
        }
      ],
      "name": "Transfer",
      "type": "event"
    },
    {
      "inputs": [
        {
          "internalType": "address",
          "name": "owner",
          "type": "address"
        },
        {
          "internalType": "address",
          "name": "spender",
          "type": "address"
        }
      ],
      "name": "allowance",
      "outputs": [
        {
          "internalType": "uint256",
          "name": "",
          "type": "uint256"
        }
      ],
      "stateMutability": "view",
      "type": "function",
      "constant": true
    },
    {
      "inputs": [
        {
          "internalType": "address",
          "name": "spender",
          "type": "address"
        },
        {
          "internalType": "uint256",
          "name": "amount",
          "type": "uint256"
        }
      ],
      "name": "approve",
      "outputs": [
        {
          "internalType": "bool",
          "name": "",
          "type": "bool"
        }
      ],
      "stateMutability": "nonpayable",
      "type": "function"
    },
    {
      "inputs": [
        {
          "internalType": "address",
          "name": "account",
          "type": "address"
        }
      ],
      "name": "balanceOf",
      "outputs": [
        {
          "internalType": "uint256",
          "name": "",
          "type": "uint256"
        }
      ],
      "stateMutability": "view",
      "type": "function",
      "constant": true
    },
    {
      "inputs": [],
      "name": "decimals",
      "outputs": [
        {
          "internalType": "uint8",
          "name": "",
          "type": "uint8"
        }
      ],
      "stateMutability": "view",
      "type": "function",
      "constant": true
    },
    {
      "inputs": [
        {
          "internalType": "address",
          "name": "spender",
          "type": "address"
        },
        {
          "internalType": "uint256",
          "name": "subtractedValue",
          "type": "uint256"
        }
      ],
      "name": "decreaseAllowance",
      "outputs": [
        {
          "internalType": "bool",
          "name": "",
          "type": "bool"
        }
      ],
      "stateMutability": "nonpayable",
      "type": "function"
    },
    {
      "inputs": [
        {
          "internalType": "address",
          "name": "spender",
          "type": "address"
        },
        {
          "internalType": "uint256",
          "name": "addedValue",
          "type": "uint256"
        }
      ],
      "name": "increaseAllowance",
      "outputs": [
        {
          "internalType": "bool",
          "name": "",
          "type": "bool"
        }
      ],
      "stateMutability": "nonpayable",
      "type": "function"
    },
    {
      "inputs": [],
      "name": "name",
      "outputs": [
        {
          "internalType": "string",
          "name": "",
          "type": "string"
        }
      ],
      "stateMutability": "view",
      "type": "function",
      "constant": true
    },
    {
      "inputs": [],
      "name": "symbol",
      "outputs": [
        {
          "internalType": "string",
          "name": "",
          "type": "string"
        }
      ],
      "stateMutability": "view",
      "type": "function",
      "constant": true
    },
    {
      "inputs": [],
      "name": "totalSupply",
      "outputs": [
        {
          "internalType": "uint256",
          "name": "",
          "type": "uint256"
        }
      ],
      "stateMutability": "view",
      "type": "function",
      "constant": true
    },
    {
      "inputs": [
        {
          "internalType": "address",
          "name": "recipient",
          "type": "address"
        },
        {
          "internalType": "uint256",
          "name": "amount",
          "type": "uint256"
        }
      ],
      "name": "transfer",
      "outputs": [
        {
          "internalType": "bool",
          "name": "",
          "type": "bool"
        }
      ],
      "stateMutability": "nonpayable",
      "type": "function"
    },
    {
      "inputs": [
        {
          "internalType": "address",
          "name": "sender",
          "type": "address"
        },
        {
          "internalType": "address",
          "name": "recipient",
          "type": "address"
        },
        {
          "internalType": "uint256",
          "name": "amount",
          "type": "uint256"
        }
      ],
      "name": "transferFrom",
      "outputs": [
        {
          "internalType": "bool",
          "name": "",
          "type": "bool"
        }
      ],
      "stateMutability": "nonpayable",
      "type": "function"
    },
    {
      "inputs": [],
      "name": "getTestToken",
      "outputs": [],
      "stateMutability": "nonpayable",
      "type": "function"
    },
    {
      "inputs": [
        {
          "internalType": "address",
          "name": "account",
          "type": "address"
        }
      ],
      "name": "canGetTestToken",
      "outputs": [
        {
          "internalType": "bool",
          "name": "",
          "type": "bool"
        }
      ],
      "stateMutability": "view",
      "type": "function",
      "constant": true
    }
  ],
  "bytecode": "0x60806040523480156200001157600080fd5b506040518060400160405280600c81526020016b26b2b6b7b93c902a37b5b2b760a11b815250604051806040016040528060038152602001624d4d4360e81b81525081600390805190602001906200006b92919062000224565b5080516200008190600490602084019062000224565b505050620000b573159f369e0fb35a070d572e29737168a499dec6f56a52b7d2dcc80cd2e40000006200013c60201b60201c565b620000e0732ec8ebb0a8eaa40e4ce620cf9f84a96df68d46696a52b7d2dcc80cd2e40000006200013c565b6200010b7392f4d033e44576b8672c6f46b35f8ab8031514136a52b7d2dcc80cd2e40000006200013c565b6200013673aad1f995f6994bef38cadc711f533f9629e4839c6a52b7d2dcc80cd2e40000006200013c565b6200032e565b6001600160a01b038216620001975760405162461bcd60e51b815260206004820152601f60248201527f45524332303a206d696e7420746f20746865207a65726f206164647265737300604482015260640160405180910390fd5b8060026000828254620001ab9190620002ca565b90915550506001600160a01b03821660009081526020819052604081208054839290620001da908490620002ca565b90915550506040518181526001600160a01b038316906000907fddf252ad1be2c89b69c2b068fc378daa952ba7f163c4a11628f55a4df523b3ef9060200160405180910390a35050565b8280546200023290620002f1565b90600052602060002090601f016020900481019282620002565760008555620002a1565b82601f106200027157805160ff1916838001178555620002a1565b82800160010185558215620002a1579182015b82811115620002a157825182559160200191906001019062000284565b50620002af929150620002b3565b5090565b5b80821115620002af5760008155600101620002b4565b60008219821115620002ec57634e487b7160e01b600052601160045260246000fd5b500190565b600181811c908216806200030657607f821691505b602082108114156200032857634e487b7160e01b600052602260045260246000fd5b50919050565b610a32806200033e6000396000f3fe608060405234801561001057600080fd5b50600436106100cf5760003560e01c806370a082311161008c578063a457c2d711610066578063a457c2d7146101b9578063a9059cbb146101cc578063abb28b92146101df578063dd62ed3e146101e957600080fd5b806370a082311461015c57806395d89b41146101855780639d720bce1461018d57600080fd5b806306fdde03146100d4578063095ea7b3146100f257806318160ddd1461011557806323b872dd14610127578063313ce5671461013a5780633950935114610149575b600080fd5b6100dc610222565b6040516100e9919061086f565b60405180910390f35b6101056101003660046108e0565b6102b4565b60405190151581526020016100e9565b6002545b6040519081526020016100e9565b61010561013536600461090a565b6102ca565b604051601281526020016100e9565b6101056101573660046108e0565b610379565b61011961016a366004610946565b6001600160a01b031660009081526020819052604090205490565b6100dc6103b5565b61010561019b366004610946565b6001600160a01b031660009081526005602052604090205460ff1690565b6101056101c73660046108e0565b6103c4565b6101056101da3660046108e0565b61045d565b6101e761046a565b005b6101196101f7366004610968565b6001600160a01b03918216600090815260016020908152604080832093909416825291909152205490565b6060600380546102319061099b565b80601f016020809104026020016040519081016040528092919081815260200182805461025d9061099b565b80156102aa5780601f1061027f576101008083540402835291602001916102aa565b820191906000526020600020905b81548152906001019060200180831161028d57829003601f168201915b5050505050905090565b60006102c133848461049d565b50600192915050565b60006102d78484846105c1565b6001600160a01b0384166000908152600160209081526040808320338452909152902054828110156103615760405162461bcd60e51b815260206004820152602860248201527f45524332303a207472616e7366657220616d6f756e74206578636565647320616044820152676c6c6f77616e636560c01b60648201526084015b60405180910390fd5b61036e853385840361049d565b506001949350505050565b3360008181526001602090815260408083206001600160a01b038716845290915281205490916102c19185906103b09086906109d6565b61049d565b6060600480546102319061099b565b3360009081526001602090815260408083206001600160a01b0386168452909152812054828110156104465760405162461bcd60e51b815260206004820152602560248201527f45524332303a2064656372656173656420616c6c6f77616e63652062656c6f77604482015264207a65726f60d81b6064820152608401610358565b610453338585840361049d565b5060019392505050565b60006102c13384846105c1565b3360009081526005602052604090205460ff161561048757600080fd5b61049b3369d3c21bcecceda1000000610790565b565b6001600160a01b0383166104ff5760405162461bcd60e51b8152602060048201526024808201527f45524332303a20617070726f76652066726f6d20746865207a65726f206164646044820152637265737360e01b6064820152608401610358565b6001600160a01b0382166105605760405162461bcd60e51b815260206004820152602260248201527f45524332303a20617070726f766520746f20746865207a65726f206164647265604482015261737360f01b6064820152608401610358565b6001600160a01b0383811660008181526001602090815260408083209487168084529482529182902085905590518481527f8c5be1e5ebec7d5bd14f71427d1e84f3dd0314c0f7b2291e5b200ac8c7c3b925910160405180910390a3505050565b6001600160a01b0383166106255760405162461bcd60e51b815260206004820152602560248201527f45524332303a207472616e736665722066726f6d20746865207a65726f206164604482015264647265737360d81b6064820152608401610358565b6001600160a01b0382166106875760405162461bcd60e51b815260206004820152602360248201527f45524332303a207472616e7366657220746f20746865207a65726f206164647260448201526265737360e81b6064820152608401610358565b6001600160a01b038316600090815260208190526040902054818110156106ff5760405162461bcd60e51b815260206004820152602660248201527f45524332303a207472616e7366657220616d6f756e7420657863656564732062604482015265616c616e636560d01b6064820152608401610358565b6001600160a01b038085166000908152602081905260408082208585039055918516815290812080548492906107369084906109d6565b92505081905550826001600160a01b0316846001600160a01b03167fddf252ad1be2c89b69c2b068fc378daa952ba7f163c4a11628f55a4df523b3ef8460405161078291815260200190565b60405180910390a350505050565b6001600160a01b0382166107e65760405162461bcd60e51b815260206004820152601f60248201527f45524332303a206d696e7420746f20746865207a65726f2061646472657373006044820152606401610358565b80600260008282546107f891906109d6565b90915550506001600160a01b038216600090815260208190526040812080548392906108259084906109d6565b90915550506040518181526001600160a01b038316906000907fddf252ad1be2c89b69c2b068fc378daa952ba7f163c4a11628f55a4df523b3ef9060200160405180910390a35050565b600060208083528351808285015260005b8181101561089c57858101830151858201604001528201610880565b818111156108ae576000604083870101525b50601f01601f1916929092016040019392505050565b80356001600160a01b03811681146108db57600080fd5b919050565b600080604083850312156108f357600080fd5b6108fc836108c4565b946020939093013593505050565b60008060006060848603121561091f57600080fd5b610928846108c4565b9250610936602085016108c4565b9150604084013590509250925092565b60006020828403121561095857600080fd5b610961826108c4565b9392505050565b6000806040838503121561097b57600080fd5b610984836108c4565b9150610992602084016108c4565b90509250929050565b600181811c908216806109af57607f821691505b602082108114156109d057634e487b7160e01b600052602260045260246000fd5b50919050565b600082198211156109f757634e487b7160e01b600052601160045260246000fd5b50019056fea26469706673582212204b2d2cebb83525b7e8c8604996e68bf0495b57ee765b5c2be340fa30dfa7b51a64736f6c63430008090033",
  "immutableReferences": {},
  "source": "// SPDX-License-Identifier: SimPL-2.0\n\npragma solidity ^0.8.0;\n\nimport \"@openzeppelin/contracts/token/ERC20/ERC20.sol\";\n\ncontract MemoryToken is ERC20 {\n    //for test\n    mapping (address => bool) getTest;\n\n    function getTestToken() public {\n        require(!getTest[msg.sender]);\n        _mint(msg.sender, 1000000e18);\n    }\n\n    function canGetTestToken(address account) public view returns(bool) {\n        return getTest[account];\n    }\n\n    constructor() ERC20(\"Memory Token\", \"MMC\") {\n        _mint(address(0x159F369E0fB35a070d572e29737168A499dEc6F5), 100000000e18);\n        _mint(address(0x2EC8EBB0a8eAa40e4Ce620CF9f84A96dF68D4669), 100000000e18);\n        _mint(address(0x92F4D033e44576B8672C6F46B35f8aB803151413), 100000000e18);\n        _mint(address(0xAAd1f995F6994BEf38Cadc711f533F9629e4839c), 100000000e18);\n    }\n}",
  "sourcePath": "/Users/hy/new-rich-contract/contracts/MemoryToken.sol",
  "compiler": {
    "name": "solc",
    "version": "0.8.9+commit.e5eed63a.Emscripten.clang"
  },
  "schemaVersion": "3.4.3",
  "updatedAt": "2022-03-09T15:22:07.980Z",
  "networkType": "ethereum",
  "devdoc": {
    "kind": "dev",
    "methods": {
      "allowance(address,address)": {
        "details": "See {IERC20-allowance}."
      },
      "approve(address,uint256)": {
        "details": "See {IERC20-approve}. Requirements: - `spender` cannot be the zero address."
      },
      "balanceOf(address)": {
        "details": "See {IERC20-balanceOf}."
      },
      "decimals()": {
        "details": "Returns the number of decimals used to get its user representation. For example, if `decimals` equals `2`, a balance of `505` tokens should be displayed to a user as `5.05` (`505 / 10 ** 2`). Tokens usually opt for a value of 18, imitating the relationship between Ether and Wei. This is the value {ERC20} uses, unless this function is overridden; NOTE: This information is only used for _display_ purposes: it in no way affects any of the arithmetic of the contract, including {IERC20-balanceOf} and {IERC20-transfer}."
      },
      "decreaseAllowance(address,uint256)": {
        "details": "Atomically decreases the allowance granted to `spender` by the caller. This is an alternative to {approve} that can be used as a mitigation for problems described in {IERC20-approve}. Emits an {Approval} event indicating the updated allowance. Requirements: - `spender` cannot be the zero address. - `spender` must have allowance for the caller of at least `subtractedValue`."
      },
      "increaseAllowance(address,uint256)": {
        "details": "Atomically increases the allowance granted to `spender` by the caller. This is an alternative to {approve} that can be used as a mitigation for problems described in {IERC20-approve}. Emits an {Approval} event indicating the updated allowance. Requirements: - `spender` cannot be the zero address."
      },
      "name()": {
        "details": "Returns the name of the token."
      },
      "symbol()": {
        "details": "Returns the symbol of the token, usually a shorter version of the name."
      },
      "totalSupply()": {
        "details": "See {IERC20-totalSupply}."
      },
      "transfer(address,uint256)": {
        "details": "See {IERC20-transfer}. Requirements: - `recipient` cannot be the zero address. - the caller must have a balance of at least `amount`."
      },
      "transferFrom(address,address,uint256)": {
        "details": "See {IERC20-transferFrom}. Emits an {Approval} event indicating the updated allowance. This is not required by the EIP. See the note at the beginning of {ERC20}. Requirements: - `sender` and `recipient` cannot be the zero address. - `sender` must have a balance of at least `amount`. - the caller must have allowance for ``sender``'s tokens of at least `amount`."
      }
    },
    "version": 1
  },
  "userdoc": {
    "kind": "user",
    "methods": {},
    "version": 1
  }
}