{
  "contractName": "Recruit",
  "abi": [
    {
      "inputs": [
        {
          "internalType": "address",
          "name": "token",
          "type": "address"
        },
        {
          "internalType": "address",
          "name": "nft",
          "type": "address"
        },
        {
          "internalType": "address",
          "name": "_inviteContract",
          "type": "address"
        }
      ],
      "stateMutability": "nonpayable",
      "type": "constructor"
    },
    {
      "anonymous": false,
      "inputs": [
        {
          "indexed": false,
          "internalType": "address",
          "name": "buyer",
          "type": "address"
        },
        {
          "indexed": false,
          "internalType": "address",
          "name": "inviter",
          "type": "address"
        },
        {
          "indexed": false,
          "internalType": "uint256",
          "name": "generation",
          "type": "uint256"
        },
        {
          "indexed": false,
          "internalType": "uint256",
          "name": "amount",
          "type": "uint256"
        }
      ],
      "name": "InviterBuy",
      "type": "event"
    },
    {
      "anonymous": false,
      "inputs": [
        {
          "indexed": true,
          "internalType": "address",
          "name": "previousOwner",
          "type": "address"
        },
        {
          "indexed": true,
          "internalType": "address",
          "name": "newOwner",
          "type": "address"
        }
      ],
      "name": "OwnershipTransferred",
      "type": "event"
    },
    {
      "inputs": [],
      "name": "HERO",
      "outputs": [
        {
          "internalType": "contract RichHero",
          "name": "",
          "type": "address"
        }
      ],
      "stateMutability": "view",
      "type": "function",
      "constant": true
    },
    {
      "inputs": [],
      "name": "MMC",
      "outputs": [
        {
          "internalType": "contract IERC20",
          "name": "",
          "type": "address"
        }
      ],
      "stateMutability": "view",
      "type": "function",
      "constant": true
    },
    {
      "inputs": [],
      "name": "PCT_BASE",
      "outputs": [
        {
          "internalType": "uint256",
          "name": "",
          "type": "uint256"
        }
      ],
      "stateMutability": "view",
      "type": "function",
      "constant": true
    },
    {
      "inputs": [],
      "name": "RAND_BASE",
      "outputs": [
        {
          "internalType": "uint256",
          "name": "",
          "type": "uint256"
        }
      ],
      "stateMutability": "view",
      "type": "function",
      "constant": true
    },
    {
      "inputs": [
        {
          "internalType": "address",
          "name": "",
          "type": "address"
        }
      ],
      "name": "buyer",
      "outputs": [
        {
          "internalType": "bool",
          "name": "",
          "type": "bool"
        }
      ],
      "stateMutability": "view",
      "type": "function",
      "constant": true
    },
    {
      "inputs": [],
      "name": "feeRecipient",
      "outputs": [
        {
          "internalType": "address",
          "name": "",
          "type": "address"
        }
      ],
      "stateMutability": "view",
      "type": "function",
      "constant": true
    },
    {
      "inputs": [],
      "name": "inviterContract",
      "outputs": [
        {
          "internalType": "contract Invite",
          "name": "",
          "type": "address"
        }
      ],
      "stateMutability": "view",
      "type": "function",
      "constant": true
    },
    {
      "inputs": [],
      "name": "owner",
      "outputs": [
        {
          "internalType": "address",
          "name": "",
          "type": "address"
        }
      ],
      "stateMutability": "view",
      "type": "function",
      "constant": true
    },
    {
      "inputs": [],
      "name": "promotionWallet",
      "outputs": [
        {
          "internalType": "address",
          "name": "",
          "type": "address"
        }
      ],
      "stateMutability": "view",
      "type": "function",
      "constant": true
    },
    {
      "inputs": [],
      "name": "renounceOwnership",
      "outputs": [],
      "stateMutability": "nonpayable",
      "type": "function"
    },
    {
      "inputs": [
        {
          "internalType": "address",
          "name": "newOwner",
          "type": "address"
        }
      ],
      "name": "transferOwnership",
      "outputs": [],
      "stateMutability": "nonpayable",
      "type": "function"
    },
    {
      "inputs": [
        {
          "internalType": "uint256",
          "name": "blindBox",
          "type": "uint256"
        },
        {
          "internalType": "uint256",
          "name": "amount",
          "type": "uint256"
        },
        {
          "internalType": "address",
          "name": "inviter",
          "type": "address"
        }
      ],
      "name": "buy",
      "outputs": [],
      "stateMutability": "nonpayable",
      "type": "function"
    },
    {
      "inputs": [
        {
          "internalType": "uint256",
          "name": "boxIndex",
          "type": "uint256"
        },
        {
          "internalType": "uint256",
          "name": "amount",
          "type": "uint256"
        },
        {
          "internalType": "bool",
          "name": "add",
          "type": "bool"
        }
      ],
      "name": "setBlindBox",
      "outputs": [],
      "stateMutability": "nonpayable",
      "type": "function"
    },
    {
      "inputs": [
        {
          "internalType": "uint256",
          "name": "boxIndex",
          "type": "uint256"
        }
      ],
      "name": "getBlindBoxNumber",
      "outputs": [
        {
          "internalType": "uint256",
          "name": "",
          "type": "uint256"
        }
      ],
      "stateMutability": "view",
      "type": "function",
      "constant": true
    },
    {
      "inputs": [
        {
          "internalType": "uint256",
          "name": "boxIndex",
          "type": "uint256"
        },
        {
          "internalType": "uint256",
          "name": "price",
          "type": "uint256"
        }
      ],
      "name": "setBlindBoxPrice",
      "outputs": [],
      "stateMutability": "nonpayable",
      "type": "function"
    },
    {
      "inputs": [],
      "name": "getBlindBoxPrice",
      "outputs": [
        {
          "internalType": "uint256[3]",
          "name": "",
          "type": "uint256[3]"
        }
      ],
      "stateMutability": "view",
      "type": "function",
      "constant": true
    },
    {
      "inputs": [
        {
          "internalType": "address",
          "name": "newRecipient",
          "type": "address"
        }
      ],
      "name": "setFeeRecipient",
      "outputs": [],
      "stateMutability": "nonpayable",
      "type": "function"
    },
    {
      "inputs": [
        {
          "internalType": "address",
          "name": "newWallet",
          "type": "address"
        }
      ],
      "name": "setPromotionWallet",
      "outputs": [],
      "stateMutability": "nonpayable",
      "type": "function"
    },
    {
      "inputs": [
        {
          "internalType": "address",
          "name": "inviter",
          "type": "address"
        }
      ],
      "name": "setInvite",
      "outputs": [],
      "stateMutability": "nonpayable",
      "type": "function"
    }
  ],
  "bytecode": "0x608060405260038054738f3b8f3046deb7c4e227dc0c6379051755ba31426001600160a01b031991821681179092556004805490911690911790553480156200004757600080fd5b506040516200205a3803806200205a8339810160408190526200006a916200066f565b6200007533620005fc565b6200008b836200064c60201b62000dbb1760201c565b620000cd5760405162461bcd60e51b815260206004820152600d60248201526c151bdad95b88125b9d985b1a59609a1b60448201526064015b60405180910390fd5b620000e3826200064c60201b62000dbb1760201c565b6200011f5760405162461bcd60e51b815260206004820152600b60248201526a13999d08125b9d985b1a5960aa1b6044820152606401620000c4565b600580546001600160a01b039283166001600160a01b031991821617909155600280549483169482169490941784556001805493909216921691909117815569010f0cf064dd592000007fec8156718a8372b1db44bb411437d0870f3e3790d4a08526d024ce1b0b668f6b556102587fa10ad2b52834a4a0b1b010aabefa322be82c4e7f9681b01580b9b961f85380bd5561012c7f2334eedee9ca76a51db8c1be3a27879722de574ad42e040a8f11a7d76909191981905560637f2681671ba1b0e545b3d0fbd85f394c77833350985a7a3d6216a924d8d9d7747d557f124c41147545f57ae38ef39ed3417b882d53287ea814c7e1f0c8e64a8bc5bfba919091556103207fca388a67cf7baf68f39fdaf381c9bcfce8a06933b24fdd145fadf34259df511e5560967f37488287c41d5ecc5073338323e216f8757f87519a50ed7fbbfab2b05e79dc1f55601e7f358f4775ea298f1933505d80f92dea28d9dc1765c787d7aa35e5dc8bd556194f81905560147f4d221ab326c49c6271a8898849bc1e99331e611d4f5ab89fb207f206f6b5d2b78190556113887fec8156718a8372b1db44bb411437d0870f3e3790d4a08526d024ce1b0b668f6c81905569021e19e0c9bab24000007f92e85d02570a8092d09a6e3a57665bc3815a2699a4074001bf1ccabf660f5a365560647f1d87bdb402d751dc73b7c7504172d57cf34fcd8d6ebf920c039e8e3ce93e1376556101f47f3dc3e7dcb80790b85eab27d3fb49c90bdfc5a89a45a45811c66ae4f693d84b8681905561015e7faee6af7fce94e71f566de96da9932cc236c8d0c5ffacb32f7d1ac4193ac2a2d75560327ffa64f0a1e1d2b957708a7d53c57b63e5169ff4fde5faf3dfba7dc7cebf93682d8190557f5d06e217ebbb108b305bace607150fb4503397e6d91be41bce10f9ad24b604848290556101c27fea703ee8a8f125a571810f20ba8d7698d9f97c63354f74003a515ce8d6dd58f6557f77a743ee78adf082af1c62d3c6e6e804a92c781d71c5402266582eeafd8658b5949094557f245fa40b084bba9ab1957ad00cbe69c956d105c561bbaf10ceabb366503275688390557f92e85d02570a8092d09a6e3a57665bc3815a2699a4074001bf1ccabf660f5a3782905569065a4da25d3016c000007f6cde3cea4b3a3fb2488b2808bae7556f4a405e50f65e1794383bc026131b13c3557fad1b75ad8715c01eb26d93b5f7baf95ffd1509ace316557aa17ba9568de5bf20929092557fa2d3b684f460edc2ade4c4cf2276e215761828f5cb4ef95a3e95e01da93d13138390557f6248c49b0456348ab5916cfb3b77c219e8a4c6bd3baaf85b8d3f49e591878436919091556101a47f2960de3541331e989c730abda05662e49589a3aac6451ef46976d384cca2069855600a7f7ed487bb192cf14c19eb4a84713b60d5eeedfb36508582ba40c823289f498d2b5560fa7f6e311f24e7b206a20098ccc81c42b77530682352b71fc9cad97d9d7ef79dcf18556101907fbc0ca75c4aed60c40b28ffe94d84df50c57e9c28a2846a8edb8baf85ab201622557ff2bdc97ba24aebd471c361c4c9f4885326b4e29ae90b8f9423ef390dd6d20e2d929092557f10f47e04aca7b895cfe0a55b46e8b7b486f5bf623f3d6343802e489c873ba9545560009190915260096020527f6cde3cea4b3a3fb2488b2808bae7556f4a405e50f65e1794383bc026131b13c455620006b9565b600080546001600160a01b038381166001600160a01b0319831681178455604051919092169283917f8be0079c531659141344cd1fd0a4f28419497f9722a3daafe3b4186f6b6457e09190a35050565b3b151590565b80516001600160a01b03811681146200066a57600080fd5b919050565b6000806000606084860312156200068557600080fd5b620006908462000652565b9250620006a06020850162000652565b9150620006b06040850162000652565b90509250925092565b61199180620006c96000396000f3fe608060405234801561001057600080fd5b50600436106101215760003560e01c80638da5cb5b116100ad578063d230407a11610071578063d230407a14610278578063e3be91cc1461028b578063e74b981b1461029e578063f2fde38b146102b1578063fc157cb4146102c457600080fd5b80638da5cb5b146101f9578063aa251ffc1461020a578063b77482081461021d578063badc9adf14610250578063ca83db6c1461026557600080fd5b806347646b9e116100f457806347646b9e146101ad5780635800ba11146101c057806359a87bc1146101c95780635cab2c08146101de578063715018a6146101f157600080fd5b80631d293b36146101265780633bba6a361461015c57806344dea5a714610187578063469048401461019a575b600080fd5b61014961013436600461152c565b60009081526009602052604090206001015490565b6040519081526020015b60405180910390f35b60015461016f906001600160a01b031681565b6040516001600160a01b039091168152602001610153565b60025461016f906001600160a01b031681565b60035461016f906001600160a01b031681565b60055461016f906001600160a01b031681565b6101496103e881565b6101dc6101d736600461155a565b6102d3565b005b6101dc6101ec366004611593565b610a9e565b6101dc610aea565b6000546001600160a01b031661016f565b6101dc6102183660046115b0565b610b20565b61024061022b366004611593565b60086020526000908152604090205460ff1681565b6040519015158152602001610153565b610258610b72565b60405161015391906115d2565b6101dc610273366004611593565b610c09565b6101dc610286366004611611565b610c55565b60045461016f906001600160a01b031681565b6101dc6102ac366004611593565b610cd4565b6101dc6102bf366004611593565b610d20565b610149670de0b6b3a764000081565b3332146103275760405162461bcd60e51b815260206004820152601860248201527f5468652063616c6c6572206973206e6f7420616e20454f41000000000000000060448201526064015b60405180910390fd5b3360009081526008602052604090205460ff1661035957336000908152600860205260409020805460ff191660011790555b600554604051636e071f1760e01b81523360048201526001600160a01b03838116602483015290911690636e071f1790604401600060405180830381600087803b1580156103a657600080fd5b505af11580156103ba573d6000803e3d6000fd5b5050506000848152600960205260408120549091506103d99084610dc1565b90506000600560009054906101000a90046001600160a01b03166001600160a01b031663fc157cb46040518163ffffffff1660e01b815260040160206040518083038186803b15801561042b57600080fd5b505afa15801561043f573d6000803e3d6000fd5b505050506040513d601f19601f82011682018060405250810190610463919061163f565b90503360008061047485600a610dd4565b905060005b600560009054906101000a90046001600160a01b03166001600160a01b031663f842d40b6040518163ffffffff1660e01b815260040160206040518083038186803b1580156104c757600080fd5b505afa1580156104db573d6000803e3d6000fd5b505050506040513d601f19601f820116820180604052508101906104ff919061163f565b81101561077657600554604051631b43f31160e31b81526001600160a01b0386811660048301529091169063da1f98889060240160206040518083038186803b15801561054b57600080fd5b505afa15801561055f573d6000803e3d6000fd5b505050506040513d601f19601f820116820180604052508101906105839190611658565b93506001600160a01b0384161561075f5760055460405162c274a960e11b8152600481018390526000916001600160a01b031690630184e9529060240160206040518083038186803b1580156105d857600080fd5b505afa1580156105ec573d6000803e3d6000fd5b505050506040513d601f19601f82011682018060405250810190610610919061163f565b905061061c818561168b565b6002549094506000906001600160a01b03166323b872dd3388610649610642878d610dd4565b8990610dc1565b6040516001600160e01b031960e086901b1681526001600160a01b0393841660048201529290911660248301526044820152606401602060405180830381600087803b15801561069857600080fd5b505af11580156106ac573d6000803e3d6000fd5b505050506040513d601f19601f820116820180604052508101906106d091906116a3565b9050806106ef5760405162461bcd60e51b815260040161031e906116c0565b7ffc7fb93c98a8ad7a2bca29744062601464b20af499ddd155641d280acf8c4cb9338761071d86600161168b565b61072a610642878d610dd4565b604080516001600160a01b03958616815294909316602085015291830152606082015260800160405180910390a15050610764565b610776565b8061076e816116ea565b915050610479565b50610782600a8561171b565b821015610871576002546004546000916001600160a01b03908116916323b872dd913391166107c9896107c36106428a6107bd84600a610dd4565b90610de0565b90610dd4565b6040516001600160e01b031960e086901b1681526001600160a01b0393841660048201529290911660248301526044820152606401602060405180830381600087803b15801561081857600080fd5b505af115801561082c573d6000803e3d6000fd5b505050506040513d601f19601f8201168201806040525081019061085091906116a3565b90508061086f5760405162461bcd60e51b815260040161031e906116c0565b505b6002546003546000916001600160a01b03908116916323b872dd9133911661089f60646107c38c605a610dc1565b6040516001600160e01b031960e086901b1681526001600160a01b0393841660048201529290911660248301526044820152606401602060405180830381600087803b1580156108ee57600080fd5b505af1158015610902573d6000803e3d6000fd5b505050506040513d601f19601f8201168201806040525081019061092691906116a3565b9050806109455760405162461bcd60e51b815260040161031e906116c0565b600089815260096020526040902060010154888110156109a75760405162461bcd60e51b815260206004820152601a60248201527f496e73756666696369656e74207175616e74697479206c656674000000000000604482015260640161031e565b60005b89811015610a915760408051600d8082526101c08201909252600091602082016101a0803683370190505090506109e18c83610dec565b60008d8152600960205260409020600190810154919250610a029190610de0565b60008d8152600960205260409081902060019081019290925590549051632d716a8b60e11b81526001600160a01b0390911690635ae2d51690610a4b903390859060040161172f565b600060405180830381600087803b158015610a6557600080fd5b505af1158015610a79573d6000803e3d6000fd5b50505050508080610a89906116ea565b9150506109aa565b5050505050505050505050565b6000546001600160a01b03163314610ac85760405162461bcd60e51b815260040161031e9061178e565b600580546001600160a01b0319166001600160a01b0392909216919091179055565b6000546001600160a01b03163314610b145760405162461bcd60e51b815260040161031e9061178e565b610b1e600061144a565b565b6000546001600160a01b03163314610b4a5760405162461bcd60e51b815260040161031e9061178e565b610b5c81670de0b6b3a7640000610dc1565b6000928352600960205260409092209190915550565b610b7a61150e565b50604080516060810182527fec8156718a8372b1db44bb411437d0870f3e3790d4a08526d024ce1b0b668f6b5481527f92e85d02570a8092d09a6e3a57665bc3815a2699a4074001bf1ccabf660f5a36546020808301919091526002600052600990527f6cde3cea4b3a3fb2488b2808bae7556f4a405e50f65e1794383bc026131b13c3549181019190915290565b6000546001600160a01b03163314610c335760405162461bcd60e51b815260040161031e9061178e565b600480546001600160a01b0319166001600160a01b0392909216919091179055565b6000546001600160a01b03163314610c7f5760405162461bcd60e51b815260040161031e9061178e565b8015610cb857600083815260096020526040902060010154610ca1908361149a565b600084815260096020526040902060010155505050565b600083815260096020526040902060010154610ca19083610de0565b6000546001600160a01b03163314610cfe5760405162461bcd60e51b815260040161031e9061178e565b600380546001600160a01b0319166001600160a01b0392909216919091179055565b6000546001600160a01b03163314610d4a5760405162461bcd60e51b815260040161031e9061178e565b6001600160a01b038116610daf5760405162461bcd60e51b815260206004820152602660248201527f4f776e61626c653a206e6577206f776e657220697320746865207a65726f206160448201526564647265737360d01b606482015260840161031e565b610db88161144a565b50565b3b151590565b6000610dcd82846117c3565b9392505050565b6000610dcd828461171b565b6000610dcd82846117e2565b60408051600d8082526101c0820190925260609160009190602082016101a0803683370190505090506000839050600082600081518110610e2f57610e2f6117f9565b6001600160401b0390921660209283029190910182015260015460408051633bd5e17760e01b81529051610ed6936001600160a01b0390931692633bd5e1779260048082019391829003018186803b158015610e8a57600080fd5b505afa158015610e9e573d6000803e3d6000fd5b505050506040513d601f19601f82011682018060405250810190610ec2919061180f565b60ff1682610ecf816116ea565b93506114a6565b82600181518110610ee957610ee96117f9565b6001600160401b03909216602092830291909101909101526000610f1a6103e883610f13816116ea565b94506114a6565b6001600160401b031690506000805b6005816001600160401b03161015610fc55760008881526009602090815260408083206001600160401b0385168452600201909152902054610f6c90839061149a565b9150818310610f7a57610fb3565b8085600281518110610f8e57610f8e6117f9565b60200260200101906001600160401b031690816001600160401b031681525050610fc5565b80610fbd81611832565b915050610f29565b5050600154835161104192506001600160a01b039091169063614a4e449085906002908110610ff657610ff66117f9565b60200260200101516040518263ffffffff1660e01b815260040161102991906001600160401b0391909116815260200190565b60206040518083038186803b158015610e8a57600080fd5b82600381518110611054576110546117f9565b60200260200101906001600160401b031690816001600160401b031681525050600082600481518110611089576110896117f9565b60200260200101906001600160401b031690816001600160401b0316815250506000826005815181106110be576110be6117f9565b6001600160401b039092166020928302919091019091015260006110e86103e883610f13816116ea565b6001600160401b031690506000805b6004816001600160401b031610156111935760008881526009602090815260408083206001600160401b038516845260030190915290205461113a90839061149a565b915081831061114857611181565b808560068151811061115c5761115c6117f9565b60200260200101906001600160401b031690816001600160401b031681525050611193565b8061118b81611832565b9150506110f7565b5050600154835160009182916001600160a01b039091169063793eece190879060069081106111c4576111c46117f9565b60200260200101516040518263ffffffff1660e01b81526004016111f791906001600160401b0391909116815260200190565b604080518083038186803b15801561120e57600080fd5b505afa158015611222573d6000803e3d6000fd5b505050506040513d601f19601f820116820180604052508101906112469190611875565b91509150611269816001600160401b03168580611262906116ea565b96506114a6565b61127390836118a8565b85600781518110611286576112866117f9565b6001600160401b03909216602092830291909101909101526001805486516001600160a01b039091169163a2edc2d69188919081106112c7576112c76117f9565b6020026020010151876002815181106112e2576112e26117f9565b6020026020010151886003815181106112fd576112fd6117f9565b60200260200101516040518463ffffffff1660e01b8152600401611341939291906001600160401b0393841681529183166020830152909116604082015260600190565b60c06040518083038186803b15801561135957600080fd5b505afa15801561136d573d6000803e3d6000fd5b505050506040513d601f19601f8201168201806040525081019061139191906118d3565b909192939450896008815181106113aa576113aa6117f9565b602002602001018a6009815181106113c4576113c46117f9565b602002602001018b600a815181106113de576113de6117f9565b602002602001018c600b815181106113f8576113f86117f9565b602002602001018d600c81518110611412576114126117f9565b6001600160401b0396871660209182029290920101529484169094529382169092529283169091529116905250929695505050505050565b600080546001600160a01b038381166001600160a01b0319831681178455604051919092169283917f8be0079c531659141344cd1fd0a4f28419497f9722a3daafe3b4186f6b6457e09190a35050565b6000610dcd828461168b565b6000804283336040516020016114e193929190928352602083019190915260601b6bffffffffffffffffffffffff1916604082015260540190565b60408051601f1981840301815291905280516020820120909150611506908590611947565b949350505050565b60405180606001604052806003906020820280368337509192915050565b60006020828403121561153e57600080fd5b5035919050565b6001600160a01b0381168114610db857600080fd5b60008060006060848603121561156f57600080fd5b8335925060208401359150604084013561158881611545565b809150509250925092565b6000602082840312156115a557600080fd5b8135610dcd81611545565b600080604083850312156115c357600080fd5b50508035926020909101359150565b60608101818360005b60038110156115fa5781518352602092830192909101906001016115db565b50505092915050565b8015158114610db857600080fd5b60008060006060848603121561162657600080fd5b8335925060208401359150604084013561158881611603565b60006020828403121561165157600080fd5b5051919050565b60006020828403121561166a57600080fd5b8151610dcd81611545565b634e487b7160e01b600052601160045260246000fd5b6000821982111561169e5761169e611675565b500190565b6000602082840312156116b557600080fd5b8151610dcd81611603565b60208082526010908201526f151c985b9cd9995c88125b9d985b1a5960821b604082015260600190565b60006000198214156116fe576116fe611675565b5060010190565b634e487b7160e01b600052601260045260246000fd5b60008261172a5761172a611705565b500490565b6001600160a01b038316815260406020808301829052835191830182905260009184820191906060850190845b818110156117815784516001600160401b03168352938301939183019160010161175c565b5090979650505050505050565b6020808252818101527f4f776e61626c653a2063616c6c6572206973206e6f7420746865206f776e6572604082015260600190565b60008160001904831182151516156117dd576117dd611675565b500290565b6000828210156117f4576117f4611675565b500390565b634e487b7160e01b600052603260045260246000fd5b60006020828403121561182157600080fd5b815160ff81168114610dcd57600080fd5b60006001600160401b038083168181141561184f5761184f611675565b6001019392505050565b80516001600160401b038116811461187057600080fd5b919050565b6000806040838503121561188857600080fd5b61189183611859565b915061189f60208401611859565b90509250929050565b60006001600160401b038083168185168083038211156118ca576118ca611675565b01949350505050565b60008060008060008060c087890312156118ec57600080fd5b6118f587611859565b955061190360208801611859565b945061191160408801611859565b935061191f60608801611859565b925061192d60808801611859565b915061193b60a08801611859565b90509295509295509295565b60008261195657611956611705565b50069056fea26469706673582212205440021c399dc7dcc60dfeb623f96f26c09257d751f9ee4ff40b3cc41e75e4fa64736f6c63430008090033",
  "immutableReferences": {},
  "source": "// SPDX-License-Identifier: SimPL-2.0\n\npragma solidity ^0.8.0;\npragma experimental ABIEncoderV2;\n\nimport \"./RichHero.sol\";\nimport \"./Invite.sol\";\n\nimport \"@openzeppelin/contracts/access/Ownable.sol\";\nimport \"@openzeppelin/contracts/token/ERC20/IERC20.sol\";\n\nimport \"@openzeppelin/contracts/utils/Address.sol\";\nimport \"@openzeppelin/contracts/utils/math/SafeMath.sol\";\nimport \"@openzeppelin/contracts/utils/structs/EnumerableSet.sol\";\n\n/**\n* @title Recruit - Romance of the Three Kingdoms Recruit\n*\n* Version v1.1.0\n*\n*/\n\ncontract Recruit is Ownable {\n    using SafeMath for uint256;\n    using EnumerableSet for EnumerableSet.UintSet;\n\n    uint256 public constant PCT_BASE = 1e18;\n    uint256 public constant RAND_BASE = 1000;\n\n    struct BlindBoxStruct {\n        uint256 price;\n        uint256 totalHero;\n        mapping (uint256 => uint256) rarities;\n        mapping (uint256 => uint256) qualities;\n    }\n\n    RichHero public HERO;\n    IERC20 public MMC;\n    address public feeRecipient = 0x8F3b8f3046dEb7C4E227dC0c6379051755Ba3142;\n    address public promotionWallet = 0x8F3b8f3046dEb7C4E227dC0c6379051755Ba3142;\n    Invite public inviterContract;\n    EnumerableSet.UintSet private _tokenIds;\n\n    mapping (address => bool) public buyer;\n    mapping (uint256 => BlindBoxStruct) private _blindBoxes;\n\n    event InviterBuy(address buyer, address inviter, uint256 generation, uint256 amount);\n\n    constructor(address token, address nft, address _inviteContract) {\n        require(Address.isContract(token), \"Token Invalid\");\n        require(Address.isContract(nft), \"Nft Invalid\");\n        inviterContract = Invite(_inviteContract);\n        MMC = IERC20(token);\n        HERO = RichHero(nft);\n\n        _blindBoxes[0].price = 5000e18;\n        _blindBoxes[0].rarities[0] = 600;\n        _blindBoxes[0].rarities[1] = 300;\n        _blindBoxes[0].rarities[2] = 99;\n        _blindBoxes[0].rarities[3] = 1;\n        _blindBoxes[0].qualities[0] = 800;\n        _blindBoxes[0].qualities[1] = 150;\n        _blindBoxes[0].qualities[2] = 30;\n        _blindBoxes[0].qualities[3] = 20;\n        _blindBoxes[0].totalHero = 5000;\n\n        _blindBoxes[1].price = 10000e18;\n        _blindBoxes[1].rarities[0] = 100;\n        _blindBoxes[1].rarities[1] = 500;\n        _blindBoxes[1].rarities[2] = 350;\n        _blindBoxes[1].rarities[3] = 50;\n        _blindBoxes[1].qualities[0] = 500;\n        _blindBoxes[1].qualities[1] = 450;\n        _blindBoxes[1].qualities[2] = 30;\n        _blindBoxes[1].qualities[3] = 20;\n        _blindBoxes[1].totalHero = 5000;\n\n        _blindBoxes[2].price = 30000e18;\n        _blindBoxes[2].rarities[0] = 20;\n        _blindBoxes[2].rarities[1] = 50;\n        _blindBoxes[2].rarities[2] = 500;\n        _blindBoxes[2].rarities[3] = 420;\n        _blindBoxes[2].rarities[4] = 10;\n        _blindBoxes[2].qualities[0] = 250;\n        _blindBoxes[2].qualities[1] = 400;\n        _blindBoxes[2].qualities[2] = 300;\n        _blindBoxes[2].qualities[3] = 50;\n        _blindBoxes[2].totalHero = 5000;\n    }\n\n    function _random(uint256 _value, uint256 index) private view returns (uint64) {\n        bytes memory seed = abi.encodePacked(block.timestamp, index, msg.sender);\n        return uint64(uint256(keccak256(seed)) % _value);\n    }\n\n    function _choose(uint256 blindBox, uint256 index) private view\n        returns (uint64[] memory) {\n        uint64[] memory heroDetail = new uint64[](13);\n        uint256 randIndex = index;\n        heroDetail[0] = 0; //native\n        heroDetail[1] = uint64(_random(uint256(HERO.camps()), randIndex++)); //camp\n        {\n            uint256 ranRarity = _random(RAND_BASE, randIndex++);\n            uint256 rarityTotal;\n            for (uint64 i = 0; i < 5; i++) {\n                rarityTotal = rarityTotal.add(_blindBoxes[blindBox].rarities[i]);\n                if (ranRarity >= rarityTotal) {\n                    continue;\n                } else {\n                    heroDetail[2] = i; //rarity\n                    break;\n                }\n            }\n        }\n        heroDetail[3] = uint64(_random(uint256(HERO.heroIds(heroDetail[2])), randIndex++)); //heroId\n        heroDetail[4] = 0; //level\n        heroDetail[5] = 0; //star  \n        uint256 ranQuality = _random(RAND_BASE, randIndex++);\n        {\n            uint256 qualityTotal;\n            for (uint64 i = 0; i < 4; i++) {\n                qualityTotal = qualityTotal.add(_blindBoxes[blindBox].qualities[i]);\n                if (ranQuality >= qualityTotal) {\n                    continue;\n                } else {\n                    heroDetail[6] = i; //quality\n                    break;\n                }\n            }\n        }\n        (uint64 baseAddition, uint64 additionMod) = HERO.additions(heroDetail[6]);\n        heroDetail[7] = baseAddition + uint64(_random(additionMod, randIndex++)); //addition\n        (,\n        heroDetail[8],\n        heroDetail[9],\n        heroDetail[10],\n        heroDetail[11],\n        heroDetail[12]) = HERO._heroInitials(heroDetail[1], heroDetail[2], heroDetail[3]); //preference\n        return heroDetail;\n    }\n\n    function buy(uint256 blindBox, uint256 amount, address inviter) public {\n        require(msg.sender == tx.origin, \"The caller is not an EOA\");\n        if (!buyer[msg.sender]) {\n            buyer[msg.sender] = true;\n        }\n        inviterContract.setInviter(msg.sender, inviter);\n        uint256 salePrice = _blindBoxes[blindBox].price.mul(amount);\n        uint256 base = inviterContract.PCT_BASE();\n        address previous = msg.sender;\n        uint256 total;\n        uint256 inviteFee = salePrice.div(10);\n        for (uint256 i = 0; i < inviterContract.awardLength(); i++) {\n            previous = inviterContract.superior(previous);\n            if (previous != address(0)) {\n                uint256 award = inviterContract.award(i);\n                total += award;\n                bool s1 = MMC.transferFrom(msg.sender, previous, inviteFee.mul(award.div(base)));\n                require(s1, \"Transfer Invalid\");\n                emit InviterBuy(msg.sender, previous, i+1, inviteFee.mul(award.div(base)));\n            } else {\n                break;\n            }\n        }\n        // not enough generation, send to promotionWallet\n        if (total < base/10) {\n            bool s2 = MMC.transferFrom(msg.sender, promotionWallet, inviteFee.mul(base.div(10).sub(total)).div(base));\n            require(s2, \"Transfer Invalid\");\n        }\n\n        // buy\n        bool success = MMC.transferFrom(msg.sender, feeRecipient, salePrice.mul(90).div(100));\n        require(success, \"Transfer Invalid\");\n        uint256 number = _blindBoxes[blindBox].totalHero;\n        require(number >= amount, \"Insufficient quantity left\");\n\n        for (uint256 i = 0; i < amount; i++) {\n            uint64[] memory detail = new uint64[](13);\n            detail = _choose(blindBox, i);\n            _blindBoxes[blindBox].totalHero = _blindBoxes[blindBox].totalHero.sub(1);\n            HERO.mint(msg.sender, detail);\n        }\n    }\n\n    function setBlindBox(uint256 boxIndex, uint256 amount, bool add) public onlyOwner {\n        if (add) {\n            _blindBoxes[boxIndex].totalHero = _blindBoxes[boxIndex].totalHero.add(amount);\n        } else {\n            _blindBoxes[boxIndex].totalHero = _blindBoxes[boxIndex].totalHero.sub(amount);\n        }\n    }\n\n    function getBlindBoxNumber(uint256 boxIndex) public view returns (uint256) {\n        return _blindBoxes[boxIndex].totalHero;\n    }\n\n    function setBlindBoxPrice(uint256 boxIndex, uint256 price) public onlyOwner {\n        _blindBoxes[boxIndex].price = price.mul(PCT_BASE);\n    }\n\n    function getBlindBoxPrice() public view returns(uint256[3] memory) {\n        uint256[3] memory prices = [_blindBoxes[0].price, _blindBoxes[1].price, _blindBoxes[2].price];\n        return prices;\n    }\n\n    function setFeeRecipient(address newRecipient) public onlyOwner {\n        feeRecipient = newRecipient;\n    }\n\n    function setPromotionWallet(address newWallet) public onlyOwner {\n        promotionWallet = newWallet;\n    }\n\n    function setInvite(address inviter) public onlyOwner {\n        inviterContract = Invite(inviter);\n    }\n}",
  "sourcePath": "/Users/hy/new-rich-contract/contracts/Recruit.sol",
  "compiler": {
    "name": "solc",
    "version": "0.8.9+commit.e5eed63a.Emscripten.clang"
  },
  "schemaVersion": "3.4.3",
  "updatedAt": "2022-02-22T14:19:16.401Z",
  "networkType": "ethereum",
  "devdoc": {
    "kind": "dev",
    "methods": {
      "owner()": {
        "details": "Returns the address of the current owner."
      },
      "renounceOwnership()": {
        "details": "Leaves the contract without owner. It will not be possible to call `onlyOwner` functions anymore. Can only be called by the current owner. NOTE: Renouncing ownership will leave the contract without an owner, thereby removing any functionality that is only available to the owner."
      },
      "transferOwnership(address)": {
        "details": "Transfers ownership of the contract to a new account (`newOwner`). Can only be called by the current owner."
      }
    },
    "title": "Recruit - Romance of the Three Kingdoms Recruit Version v1.1.0",
    "version": 1
  },
  "userdoc": {
    "kind": "user",
    "methods": {},
    "notice": "",
    "version": 1
  }
}