{
  "contractName": "RecruitETHF",
  "abi": [
    {
      "inputs": [
        {
          "internalType": "address",
          "name": "rm",
          "type": "address"
        },
        {
          "internalType": "address",
          "name": "u2ethf",
          "type": "address"
        },
        {
          "internalType": "address",
          "name": "rm2ethf",
          "type": "address"
        },
        {
          "internalType": "address",
          "name": "hero",
          "type": "address"
        },
        {
          "internalType": "address",
          "name": "_inviteContract",
          "type": "address"
        }
      ],
      "stateMutability": "nonpayable",
      "type": "constructor"
    },
    {
      "anonymous": false,
      "inputs": [
        {
          "indexed": false,
          "internalType": "address",
          "name": "buyer",
          "type": "address"
        },
        {
          "indexed": false,
          "internalType": "address",
          "name": "inviter",
          "type": "address"
        },
        {
          "indexed": false,
          "internalType": "uint256",
          "name": "generation",
          "type": "uint256"
        },
        {
          "indexed": false,
          "internalType": "uint256",
          "name": "amount",
          "type": "uint256"
        }
      ],
      "name": "InviterBuy",
      "type": "event"
    },
    {
      "anonymous": false,
      "inputs": [
        {
          "indexed": true,
          "internalType": "address",
          "name": "previousOwner",
          "type": "address"
        },
        {
          "indexed": true,
          "internalType": "address",
          "name": "newOwner",
          "type": "address"
        }
      ],
      "name": "OwnershipTransferred",
      "type": "event"
    },
    {
      "inputs": [],
      "name": "HERO",
      "outputs": [
        {
          "internalType": "contract RichHero",
          "name": "",
          "type": "address"
        }
      ],
      "stateMutability": "view",
      "type": "function"
    },
    {
      "inputs": [],
      "name": "PCT_BASE",
      "outputs": [
        {
          "internalType": "uint256",
          "name": "",
          "type": "uint256"
        }
      ],
      "stateMutability": "view",
      "type": "function"
    },
    {
      "inputs": [],
      "name": "RAND_BASE",
      "outputs": [
        {
          "internalType": "uint256",
          "name": "",
          "type": "uint256"
        }
      ],
      "stateMutability": "view",
      "type": "function"
    },
    {
      "inputs": [],
      "name": "RM",
      "outputs": [
        {
          "internalType": "contract IERC20",
          "name": "",
          "type": "address"
        }
      ],
      "stateMutability": "view",
      "type": "function"
    },
    {
      "inputs": [],
      "name": "RM2ETHF",
      "outputs": [
        {
          "internalType": "contract IMdaoPair",
          "name": "",
          "type": "address"
        }
      ],
      "stateMutability": "view",
      "type": "function"
    },
    {
      "inputs": [],
      "name": "U2ETHF",
      "outputs": [
        {
          "internalType": "contract IMdaoPair",
          "name": "",
          "type": "address"
        }
      ],
      "stateMutability": "view",
      "type": "function"
    },
    {
      "inputs": [],
      "name": "battle",
      "outputs": [
        {
          "internalType": "contract IBattle",
          "name": "",
          "type": "address"
        }
      ],
      "stateMutability": "view",
      "type": "function"
    },
    {
      "inputs": [
        {
          "internalType": "address",
          "name": "",
          "type": "address"
        }
      ],
      "name": "buyer",
      "outputs": [
        {
          "internalType": "bool",
          "name": "",
          "type": "bool"
        }
      ],
      "stateMutability": "view",
      "type": "function"
    },
    {
      "inputs": [],
      "name": "feeRecipient",
      "outputs": [
        {
          "internalType": "address",
          "name": "",
          "type": "address"
        }
      ],
      "stateMutability": "view",
      "type": "function"
    },
    {
      "inputs": [],
      "name": "inviterContract",
      "outputs": [
        {
          "internalType": "contract Invite",
          "name": "",
          "type": "address"
        }
      ],
      "stateMutability": "view",
      "type": "function"
    },
    {
      "inputs": [],
      "name": "owner",
      "outputs": [
        {
          "internalType": "address",
          "name": "",
          "type": "address"
        }
      ],
      "stateMutability": "view",
      "type": "function"
    },
    {
      "inputs": [],
      "name": "promotionWallet",
      "outputs": [
        {
          "internalType": "address",
          "name": "",
          "type": "address"
        }
      ],
      "stateMutability": "view",
      "type": "function"
    },
    {
      "inputs": [],
      "name": "renounceOwnership",
      "outputs": [],
      "stateMutability": "nonpayable",
      "type": "function"
    },
    {
      "inputs": [
        {
          "internalType": "address",
          "name": "newOwner",
          "type": "address"
        }
      ],
      "name": "transferOwnership",
      "outputs": [],
      "stateMutability": "nonpayable",
      "type": "function"
    },
    {
      "inputs": [
        {
          "internalType": "address",
          "name": "_battle",
          "type": "address"
        }
      ],
      "name": "setBattleContract",
      "outputs": [],
      "stateMutability": "nonpayable",
      "type": "function"
    },
    {
      "inputs": [
        {
          "internalType": "uint256",
          "name": "blindBox",
          "type": "uint256"
        },
        {
          "internalType": "uint256",
          "name": "amount",
          "type": "uint256"
        },
        {
          "internalType": "uint256",
          "name": "payForm",
          "type": "uint256"
        }
      ],
      "name": "getCost",
      "outputs": [
        {
          "internalType": "uint256",
          "name": "price",
          "type": "uint256"
        }
      ],
      "stateMutability": "view",
      "type": "function"
    },
    {
      "inputs": [
        {
          "internalType": "uint256",
          "name": "blindBox",
          "type": "uint256"
        },
        {
          "internalType": "uint256",
          "name": "amount",
          "type": "uint256"
        },
        {
          "internalType": "address",
          "name": "inviter",
          "type": "address"
        },
        {
          "internalType": "uint256",
          "name": "payForm",
          "type": "uint256"
        }
      ],
      "name": "buy",
      "outputs": [],
      "stateMutability": "payable",
      "type": "function"
    },
    {
      "inputs": [
        {
          "internalType": "uint256",
          "name": "boxIndex",
          "type": "uint256"
        },
        {
          "internalType": "uint256",
          "name": "amount",
          "type": "uint256"
        },
        {
          "internalType": "bool",
          "name": "add",
          "type": "bool"
        }
      ],
      "name": "setBlindBox",
      "outputs": [],
      "stateMutability": "nonpayable",
      "type": "function"
    },
    {
      "inputs": [
        {
          "internalType": "uint256",
          "name": "boxIndex",
          "type": "uint256"
        }
      ],
      "name": "getBlindBoxNumber",
      "outputs": [
        {
          "internalType": "uint256",
          "name": "",
          "type": "uint256"
        }
      ],
      "stateMutability": "view",
      "type": "function"
    },
    {
      "inputs": [
        {
          "internalType": "uint256",
          "name": "boxIndex",
          "type": "uint256"
        },
        {
          "internalType": "uint256",
          "name": "price",
          "type": "uint256"
        }
      ],
      "name": "setBlindBoxPrice",
      "outputs": [],
      "stateMutability": "nonpayable",
      "type": "function"
    },
    {
      "inputs": [],
      "name": "getBlindBoxPrice",
      "outputs": [
        {
          "internalType": "uint256[3]",
          "name": "",
          "type": "uint256[3]"
        }
      ],
      "stateMutability": "view",
      "type": "function"
    },
    {
      "inputs": [
        {
          "internalType": "address",
          "name": "newRecipient",
          "type": "address"
        }
      ],
      "name": "setFeeRecipient",
      "outputs": [],
      "stateMutability": "nonpayable",
      "type": "function"
    },
    {
      "inputs": [
        {
          "internalType": "address",
          "name": "newWallet",
          "type": "address"
        }
      ],
      "name": "setPromotionWallet",
      "outputs": [],
      "stateMutability": "nonpayable",
      "type": "function"
    },
    {
      "inputs": [
        {
          "internalType": "address",
          "name": "inviter",
          "type": "address"
        }
      ],
      "name": "setInvite",
      "outputs": [],
      "stateMutability": "nonpayable",
      "type": "function"
    },
    {
      "inputs": [
        {
          "internalType": "address",
          "name": "hero",
          "type": "address"
        }
      ],
      "name": "setHero",
      "outputs": [],
      "stateMutability": "nonpayable",
      "type": "function"
    },
    {
      "inputs": [],
      "name": "withdraw",
      "outputs": [],
      "stateMutability": "nonpayable",
      "type": "function"
    },
    {
      "inputs": [
        {
          "internalType": "address",
          "name": "token",
          "type": "address"
        }
      ],
      "name": "withdraw",
      "outputs": [],
      "stateMutability": "nonpayable",
      "type": "function"
    }
  ],
  "bytecode": "0x608060405260068054738f3b8f3046deb7c4e227dc0c6379051755ba31426001600160a01b031991821681179092556007805490911690911790553480156200004757600080fd5b50604051620029ab380380620029ab8339810160408190526200006a9162000628565b6200007533620005ac565b6200008b82620005fc60201b6200168a1760201c565b620000ca5760405162461bcd60e51b815260206004820152600b60248201526a13999d08125b9d985b1a5960aa1b604482015260640160405180910390fd5b600880546001600160a01b03199081166001600160a01b03938416179091556002805482169683169690961786556001805482169383169390931783556003805482169583169590951790945560048054909416921691909117909155601e7f13649b2456f1b42fef0f0040b3aaeabcd21a76a0f3f5defd4f583839455116e88190556102587fde2282c3dc8422b99f71e46eb5438c18a16c9dd4b12f22ebc04637b775d0be9881905561012c7f4e9dad3806353cb84c0216856d4837fde61ba563feecb15434b19b388beeea5881905560637faf84d716a465d1ceda6dee859fc7e7b0caf639b95abe72aee12f93b754374cdb557f3c4cfa97727f65108fc1c75946c4e963c6403f3757d4c40a3fa3367ece09cd1f939093556103207f3cde7facd626f8b1df105e791e860430badabfc0cc48b8d5675d92ed1937d6495560967f5713dd04894b94dacbcdd3a996312f273bfc47ed15f8fdbc434c227038ecaee6557f88d69b24d988bef0a1ced4b86f39386b42a438e5a9bbe3cb044621c3e9a7214f82905560147f48cc89b7a8fdc02006b08bceb1114c1bf985b4d6c415440263322db170f2001f8190556113887f13649b2456f1b42fef0f0040b3aaeabcd21a76a0f3f5defd4f583839455116e9819055605a7fd421a5181c571bba3f01190c922c3b2a896fc1d84e86c9f17ac10e67ebef8b5c5560647fbcc29f7371afc906b80fe846aa172de9f69090c45a6319d7b6dd092cb29e6bd2556101f47f98e3464a8f56b71b3b798c99845c71d175ee8187f5233ef6ab5c3bfcf18909c081905561015e7f984524814adc5b019b80e2c06e17f13cbe3e70fdef24b6c10e6ea11ad44ef5fe5560327fbbaa2cc6e7ef58a63fbba91e11b7b2c4e623c7fb6169c081b3a5cabc2260a91a8190557f6d28d5d1d4f3aa8862408914fd7f8135d70449d1ae9a550414c4bd3f51d24d2b919091556101c27faf40aee73bb6667d4d6a7b07bd1de0fe913dcec05ee1d59ebb275fdc057f6dfd557f5b344b9bb27baf669a44a4e29c34e3ba39c018173aab2e011d58a38ce38e70d2949094557fb3fe6820201b2396cea8c5571730484c8f240bd2a02c92526b329231b67cf634919091557fd421a5181c571bba3f01190c922c3b2a896fc1d84e86c9f17ac10e67ebef8b5d81905560c87f5d6016397a73f5e079297ac5a36fef17b4d9c3831618e63ab105738020ddd72081905560197fd1b380be1bb3fd835b16da6e831a90edf1430a56f7682e7d0d2419599d666d19557f28fe9c503c35e91a8fd0dfdff293ec67a16f4954238906362d7daa0b1e6474c6557fc24e05b2df30c8f40da448b9b95d25cd2d46039ed6c0b1fb8ecb58d43785219b9190915560aa7ff37bbcefea4f1cb16d13cb56edb8933ab57f0efdfc3ab15291e1cad99a908e635560057f29afd6d25331d3189753c6a352003b440deef6e05bc7c6cbf658bacacc1b44175560fa7f078b8cdba2ae362b7bb5281a9b27153b6d942875f9fcb9398c57e51e108f9e3f556101907fc161dfc6652da95ed09776a2633d1e8509944b60e81ddea8e45c5ed85e165103557fabae71f50358746d0ea00d467151560a5b17d4bebef9c812b2848c3ecf8691d0929092557fb444fbbed49e392b76786d114dfcc3ceca22fa9bd26466bd321157fa47e12e2255600091909152600c6020527f5d6016397a73f5e079297ac5a36fef17b4d9c3831618e63ab105738020ddd7215562000698565b600080546001600160a01b038381166001600160a01b0319831681178455604051919092169283917f8be0079c531659141344cd1fd0a4f28419497f9722a3daafe3b4186f6b6457e09190a35050565b6001600160a01b03163b151590565b80516001600160a01b03811681146200062357600080fd5b919050565b600080600080600060a086880312156200064157600080fd5b6200064c866200060b565b94506200065c602087016200060b565b93506200066c604087016200060b565b92506200067c606087016200060b565b91506200068c608087016200060b565b90509295509295909350565b61230380620006a86000396000f3fe60806040526004361061016c5760003560e01c80638945257c116100cc578063ca83db6c1161007a578063ca83db6c1461040d578063d230407a1461042d578063e3be91cc1461044d578063e74b981b1461046d578063f2fde38b1461048d578063fc157cb4146104ad578063fdfb456e146104c957600080fd5b80638945257c146103235780638da5cb5b14610336578063aa251ffc1461034b578063b77482081461036b578063badc9adf146103ab578063c0d3fd7c146103cd578063c324965b146103ed57600080fd5b80634690484011610129578063469048401461025857806347646b9e1461027857806351cff8d9146102985780635800ba11146102b85780635cab2c08146102ce57806368d9c9de146102ee578063715018a61461030e57600080fd5b80630db6dff7146101715780631d293b36146101935780633bba6a36146101d65780633ccfd60b146102035780633da51cd31461021857806344e4454514610238575b600080fd5b34801561017d57600080fd5b5061019161018c366004611deb565b6104e9565b005b34801561019f57600080fd5b506101c36101ae366004611e0f565b6000908152600c602052604090206001015490565b6040519081526020015b60405180910390f35b3480156101e257600080fd5b506001546101f6906001600160a01b031681565b6040516101cd9190611e28565b34801561020f57600080fd5b50610191610543565b34801561022457600080fd5b506004546101f6906001600160a01b031681565b34801561024457600080fd5b506005546101f6906001600160a01b031681565b34801561026457600080fd5b506006546101f6906001600160a01b031681565b34801561028457600080fd5b506008546101f6906001600160a01b031681565b3480156102a457600080fd5b506101916102b3366004611deb565b6105b5565b3480156102c457600080fd5b506101c36103e881565b3480156102da57600080fd5b506101916102e9366004611deb565b6106db565b3480156102fa57600080fd5b506101c3610309366004611e3c565b61072c565b34801561031a57600080fd5b50610191610915565b610191610331366004611e68565b610950565b34801561034257600080fd5b506101f661138f565b34801561035757600080fd5b50610191610366366004611ea7565b61139e565b34801561037757600080fd5b5061039b610386366004611deb565b600b6020526000908152604090205460ff1681565b60405190151581526020016101cd565b3480156103b757600080fd5b506103c06113df565b6040516101cd9190611ec9565b3480156103d957600080fd5b506002546101f6906001600160a01b031681565b3480156103f957600080fd5b50610191610408366004611deb565b611476565b34801561041957600080fd5b50610191610428366004611deb565b6114c7565b34801561043957600080fd5b50610191610448366004611f08565b611518565b34801561045957600080fd5b506007546101f6906001600160a01b031681565b34801561047957600080fd5b50610191610488366004611deb565b61159c565b34801561049957600080fd5b506101916104a8366004611deb565b6115ed565b3480156104b957600080fd5b506101c3670de0b6b3a764000081565b3480156104d557600080fd5b506003546101f6906001600160a01b031681565b336104f261138f565b6001600160a01b0316146105215760405162461bcd60e51b815260040161051890611f41565b60405180910390fd5b600580546001600160a01b0319166001600160a01b0392909216919091179055565b3361054c61138f565b6001600160a01b0316146105725760405162461bcd60e51b815260040161051890611f41565b61057a61138f565b6001600160a01b03166108fc479081150290604051600060405180830381858888f193505050501580156105b2573d6000803e3d6000fd5b50565b336105be61138f565b6001600160a01b0316146105e45760405162461bcd60e51b815260040161051890611f41565b806001600160a01b031663a9059cbb6105fb61138f565b6040516370a0823160e01b81526001600160a01b038516906370a0823190610627903090600401611e28565b602060405180830381865afa158015610644573d6000803e3d6000fd5b505050506040513d601f19601f820116820180604052508101906106689190611f76565b6040516001600160e01b031960e085901b1681526001600160a01b03909216600483015260248201526044016020604051808303816000875af11580156106b3573d6000803e3d6000fd5b505050506040513d601f19601f820116820180604052508101906106d79190611f8f565b5050565b336106e461138f565b6001600160a01b03161461070a5760405162461bcd60e51b815260040161051890611f41565b600880546001600160a01b0319166001600160a01b0392909216919091179055565b6000806000600360009054906101000a90046001600160a01b03166001600160a01b0316630902f1ac6040518163ffffffff1660e01b8152600401606060405180830381865afa158015610784573d6000803e3d6000fd5b505050506040513d601f19601f820116820180604052508101906107a89190611fc8565b506001600160701b031691506001600160701b03169150600080600460009054906101000a90046001600160a01b03166001600160a01b0316630902f1ac6040518163ffffffff1660e01b8152600401606060405180830381865afa158015610815573d6000803e3d6000fd5b505050506040513d601f19601f820116820180604052508101906108399190611fc8565b506001600160701b031691506001600160701b031691508560000361089a576000888152600c6020526040902054876108728686612039565b61087c919061204d565b610886919061204d565b61089390620f424061204d565b945061090a565b856001036108d0576000888152600c6020526040902054876108bc8686612039565b6108c68486612039565b610872919061204d565b60405162461bcd60e51b815260206004820152600f60248201526e496e76616c696420706179466f726d60881b6044820152606401610518565b505050509392505050565b3361091e61138f565b6001600160a01b0316146109445760405162461bcd60e51b815260040161051890611f41565b61094e6000611699565b565b33321461099a5760405162461bcd60e51b81526020600482015260186024820152775468652063616c6c6572206973206e6f7420616e20454f4160401b6044820152606401610518565b336000908152600b602052604090205460ff166109cc57336000908152600b60205260409020805460ff191660011790555b600854604051636e071f1760e01b81523360048201526001600160a01b03848116602483015290911690636e071f1790604401600060405180830381600087803b158015610a1957600080fd5b505af1158015610a2d573d6000803e3d6000fd5b505050506000610a3e85858461072c565b905081600003610ac35780341015610a8b5760405162461bcd60e51b815260206004820152601060248201526f2737ba1032b737bab3b41032ba34331760811b6044820152606401610518565b336108fc610a99833461206c565b6040518115909202916000818181858888f19350505050158015610ac1573d6000803e3d6000fd5b505b60085460408051633f055f2d60e21b815290516000926001600160a01b03169163fc157cb49160048083019260209291908290030181865afa158015610b0d573d6000803e3d6000fd5b505050506040513d601f19601f82011682018060405250810190610b319190611f76565b9050336000805b600860009054906101000a90046001600160a01b03166001600160a01b031663f842d40b6040518163ffffffff1660e01b8152600401602060405180830381865afa158015610b8b573d6000803e3d6000fd5b505050506040513d601f19601f82011682018060405250810190610baf9190611f76565b811015610e3757600854604051631b43f31160e31b81526001600160a01b039091169063da1f988890610be6908690600401611e28565b602060405180830381865afa158015610c03573d6000803e3d6000fd5b505050506040513d601f19601f82011682018060405250810190610c27919061207f565b92506001600160a01b03831615610e205760085460405162c274a960e11b8152600481018390526000916001600160a01b031690630184e95290602401602060405180830381865afa158015610c81573d6000803e3d6000fd5b505050506040513d601f19601f82011682018060405250810190610ca59190611f76565b9050610cb1818461209c565b925086600003610d0a576001600160a01b0384166108fc610cdc87610cd68a866116e9565b906116fe565b6040518115909202916000818181858888f19350505050158015610d04573d6000803e3d6000fd5b50610db0565b6002546000906001600160a01b03166323b872dd3387610d2e8a610cd68d896116e9565b6040518463ffffffff1660e01b8152600401610d4c939291906120af565b6020604051808303816000875af1158015610d6b573d6000803e3d6000fd5b505050506040513d601f19601f82011682018060405250810190610d8f9190611f8f565b905080610dae5760405162461bcd60e51b8152600401610518906120d3565b505b7ffc7fb93c98a8ad7a2bca29744062601464b20af499ddd155641d280acf8c4cb93385610dde85600161209c565b610dec89610cd68c886116e9565b604080516001600160a01b03958616815294909316602085015291830152606082015260800160405180910390a150610e25565b610e37565b80610e2f816120fd565b915050610b38565b50610e43600a84612039565b811015610f6d5784600003610eb0576001600160a01b0382166108fc610e8285610cd6610e7b86610e7584600a6116fe565b9061170a565b89906116e9565b6040518115909202916000818181858888f19350505050158015610eaa573d6000803e3d6000fd5b50610f6d565b6002546007546000916001600160a01b03908116916323b872dd91339116610eeb88610cd6610ee489610e7584600a6116fe565b8c906116e9565b6040518463ffffffff1660e01b8152600401610f09939291906120af565b6020604051808303816000875af1158015610f28573d6000803e3d6000fd5b505050506040513d601f19601f82011682018060405250810190610f4c9190611f8f565b905080610f6b5760405162461bcd60e51b8152600401610518906120d3565b505b84600003610fc2576006546001600160a01b03166108fc610f946064610cd688605a6116e9565b6040518115909202916000818181858888f19350505050158015610fbc573d6000803e3d6000fd5b50611237565b6002546006546000916001600160a01b03908116916323b872dd91339116610ff06064610cd68b60326116e9565b6040518463ffffffff1660e01b815260040161100e939291906120af565b6020604051808303816000875af115801561102d573d6000803e3d6000fd5b505050506040513d601f19601f820116820180604052508101906110519190611f8f565b9050806110705760405162461bcd60e51b8152600401610518906120d3565b60006110826064610cd68860286116e9565b6005549091506001600160a01b031615611196576002546005546040516323b872dd60e01b81526000926001600160a01b03908116926323b872dd926110d0923392169087906004016120af565b6020604051808303816000875af11580156110ef573d6000803e3d6000fd5b505050506040513d601f19601f820116820180604052508101906111139190611f8f565b9050806111325760405162461bcd60e51b8152600401610518906120d3565b600554604051631a4f6b3360e11b8152600481018490526001600160a01b039091169063349ed66690602401600060405180830381600087803b15801561117857600080fd5b505af115801561118c573d6000803e3d6000fd5b5050505050611234565b6002546006546040516323b872dd60e01b81526000926001600160a01b03908116926323b872dd926111d0923392169087906004016120af565b6020604051808303816000875af11580156111ef573d6000803e3d6000fd5b505050506040513d601f19601f820116820180604052508101906112139190611f8f565b9050806112325760405162461bcd60e51b8152600401610518906120d3565b505b50505b6000888152600c6020526040902060010154878110156112995760405162461bcd60e51b815260206004820152601a60248201527f496e73756666696369656e74207175616e74697479206c6566740000000000006044820152606401610518565b5060005b878110156113845760408051600d8082526101c08201909252600091602082016101a0803683370190505090506112d48a83611716565b60008b8152600c602052604090206001908101549192506112f5919061170a565b60008b8152600c60205260409081902060019081019290925590549051632d716a8b60e11b81526001600160a01b0390911690635ae2d5169061133e9033908590600401612116565b600060405180830381600087803b15801561135857600080fd5b505af115801561136c573d6000803e3d6000fd5b5050505050808061137c906120fd565b91505061129d565b505050505050505050565b6000546001600160a01b031690565b336113a761138f565b6001600160a01b0316146113cd5760405162461bcd60e51b815260040161051890611f41565b6000918252600c602052604090912055565b6113e7611db8565b50604080516060810182527f13649b2456f1b42fef0f0040b3aaeabcd21a76a0f3f5defd4f583839455116e85481527fd421a5181c571bba3f01190c922c3b2a896fc1d84e86c9f17ac10e67ebef8b5c546020808301919091526002600052600c90527f5d6016397a73f5e079297ac5a36fef17b4d9c3831618e63ab105738020ddd720549181019190915290565b3361147f61138f565b6001600160a01b0316146114a55760405162461bcd60e51b815260040161051890611f41565b600180546001600160a01b0319166001600160a01b0392909216919091179055565b336114d061138f565b6001600160a01b0316146114f65760405162461bcd60e51b815260040161051890611f41565b600780546001600160a01b0319166001600160a01b0392909216919091179055565b3361152161138f565b6001600160a01b0316146115475760405162461bcd60e51b815260040161051890611f41565b8015611580576000838152600c60205260409020600101546115699083611d44565b6000848152600c6020526040902060010155505050565b6000838152600c6020526040902060010154611569908361170a565b336115a561138f565b6001600160a01b0316146115cb5760405162461bcd60e51b815260040161051890611f41565b600680546001600160a01b0319166001600160a01b0392909216919091179055565b336115f661138f565b6001600160a01b03161461161c5760405162461bcd60e51b815260040161051890611f41565b6001600160a01b0381166116815760405162461bcd60e51b815260206004820152602660248201527f4f776e61626c653a206e6577206f776e657220697320746865207a65726f206160448201526564647265737360d01b6064820152608401610518565b6105b281611699565b6001600160a01b03163b151590565b600080546001600160a01b038381166001600160a01b0319831681178455604051919092169283917f8be0079c531659141344cd1fd0a4f28419497f9722a3daafe3b4186f6b6457e09190a35050565b60006116f5828461204d565b90505b92915050565b60006116f58284612039565b60006116f5828461206c565b60408051600d8082526101c0820190925260609160009190602082016101a080368337019050509050600083905060008260008151811061175957611759612175565b6001600160401b0390921660209283029190910182015260015460408051633bd5e17760e01b815290516117f1936001600160a01b0390931692633bd5e17792600480820193918290030181865afa1580156117b9573d6000803e3d6000fd5b505050506040513d601f19601f820116820180604052508101906117dd919061218b565b60ff16826117ea816120fd565b9350611d50565b8260018151811061180457611804612175565b6001600160401b039092166020928302919091019091015260006118356103e88361182e816120fd565b9450611d50565b6001600160401b031690506000805b6005816001600160401b031610156118dc576000888152600c602090815260408083206001600160401b0385168452600201909152902054611887908390611d44565b9150818310156118ca5780856002815181106118a5576118a5612175565b60200260200101906001600160401b031690816001600160401b0316815250506118dc565b806118d4816121ae565b915050611844565b5050600154835161195d92506001600160a01b039091169063614a4e44908590600290811061190d5761190d612175565b60200260200101516040518263ffffffff1660e01b815260040161194091906001600160401b0391909116815260200190565b602060405180830381865afa1580156117b9573d6000803e3d6000fd5b8260038151811061197057611970612175565b60200260200101906001600160401b031690816001600160401b0316815250506000826004815181106119a5576119a5612175565b60200260200101906001600160401b031690816001600160401b0316815250506000826005815181106119da576119da612175565b6001600160401b03909216602092830291909101909101526000611a046103e88361182e816120fd565b6001600160401b031690506000805b6004816001600160401b03161015611aab576000888152600c602090815260408083206001600160401b0385168452600301909152902054611a56908390611d44565b915081831015611a99578085600681518110611a7457611a74612175565b60200260200101906001600160401b031690816001600160401b031681525050611aab565b80611aa3816121ae565b915050611a13565b5050600154835160009182916001600160a01b039091169063793eece19087906006908110611adc57611adc612175565b60200260200101516040518263ffffffff1660e01b8152600401611b0f91906001600160401b0391909116815260200190565b6040805180830381865afa158015611b2b573d6000803e3d6000fd5b505050506040513d601f19601f82011682018060405250810190611b4f91906121eb565b91509150611b72816001600160401b03168580611b6b906120fd565b9650611d50565b611b7c908361221e565b85600781518110611b8f57611b8f612175565b6001600160401b03909216602092830291909101909101526001805486516001600160a01b039091169163a2edc2d6918891908110611bd057611bd0612175565b602002602001015187600281518110611beb57611beb612175565b602002602001015188600381518110611c0657611c06612175565b60200260200101516040518463ffffffff1660e01b8152600401611c4a939291906001600160401b0393841681529183166020830152909116604082015260600190565b60c060405180830381865afa158015611c67573d6000803e3d6000fd5b505050506040513d601f19601f82011682018060405250810190611c8b9190612245565b90919293945089600881518110611ca457611ca4612175565b602002602001018a600981518110611cbe57611cbe612175565b602002602001018b600a81518110611cd857611cd8612175565b602002602001018c600b81518110611cf257611cf2612175565b602002602001018d600c81518110611d0c57611d0c612175565b6001600160401b0396871660209182029290920101529484169094529382169092529283169091529116905250929695505050505050565b60006116f5828461209c565b600080428333604051602001611d8b93929190928352602083019190915260601b6bffffffffffffffffffffffff1916604082015260540190565b60408051601f1981840301815291905280516020820120909150611db09085906122b9565b949350505050565b60405180606001604052806003906020820280368337509192915050565b6001600160a01b03811681146105b257600080fd5b600060208284031215611dfd57600080fd5b8135611e0881611dd6565b9392505050565b600060208284031215611e2157600080fd5b5035919050565b6001600160a01b0391909116815260200190565b600080600060608486031215611e5157600080fd5b505081359360208301359350604090920135919050565b60008060008060808587031215611e7e57600080fd5b84359350602085013592506040850135611e9781611dd6565b9396929550929360600135925050565b60008060408385031215611eba57600080fd5b50508035926020909101359150565b60608101818360005b6003811015611ef1578151835260209283019290910190600101611ed2565b50505092915050565b80151581146105b257600080fd5b600080600060608486031215611f1d57600080fd5b83359250602084013591506040840135611f3681611efa565b809150509250925092565b6020808252818101527f4f776e61626c653a2063616c6c6572206973206e6f7420746865206f776e6572604082015260600190565b600060208284031215611f8857600080fd5b5051919050565b600060208284031215611fa157600080fd5b8151611e0881611efa565b80516001600160701b0381168114611fc357600080fd5b919050565b600080600060608486031215611fdd57600080fd5b611fe684611fac565b9250611ff460208501611fac565b9150604084015163ffffffff81168114611f3657600080fd5b634e487b7160e01b600052601260045260246000fd5b634e487b7160e01b600052601160045260246000fd5b6000826120485761204861200d565b500490565b600081600019048311821515161561206757612067612023565b500290565b818103818111156116f8576116f8612023565b60006020828403121561209157600080fd5b8151611e0881611dd6565b808201808211156116f8576116f8612023565b6001600160a01b039384168152919092166020820152604081019190915260600190565b60208082526010908201526f151c985b9cd9995c88125b9d985b1a5960821b604082015260600190565b60006001820161210f5761210f612023565b5060010190565b6001600160a01b038316815260406020808301829052835191830182905260009184820191906060850190845b818110156121685784516001600160401b031683529383019391830191600101612143565b5090979650505050505050565b634e487b7160e01b600052603260045260246000fd5b60006020828403121561219d57600080fd5b815160ff81168114611e0857600080fd5b60006001600160401b038083168181036121ca576121ca612023565b6001019392505050565b80516001600160401b0381168114611fc357600080fd5b600080604083850312156121fe57600080fd5b612207836121d4565b9150612215602084016121d4565b90509250929050565b6001600160401b0381811683821601908082111561223e5761223e612023565b5092915050565b60008060008060008060c0878903121561225e57600080fd5b612267876121d4565b9550612275602088016121d4565b9450612283604088016121d4565b9350612291606088016121d4565b925061229f608088016121d4565b91506122ad60a088016121d4565b90509295509295509295565b6000826122c8576122c861200d565b50069056fea2646970667358221220fdb0811596dc8b9fcad865a88f04864ea5bb5948354447d9faed6dc47fc3bb3b64736f6c63430008100033",
  "immutableReferences": {},
  "source": "// SPDX-License-Identifier: SimPL-2.0\n\npragma solidity ^0.8.0;\npragma experimental ABIEncoderV2;\n\nimport \"./RichHero.sol\";\nimport \"./Invite.sol\";\nimport \"./IBattle.sol\";\nimport \"./IMdaoPair.sol\"; \n\nimport \"@openzeppelin/contracts/access/Ownable.sol\";\nimport \"@openzeppelin/contracts/token/ERC20/IERC20.sol\";\n\nimport \"@openzeppelin/contracts/utils/math/SafeMath.sol\";\nimport \"@openzeppelin/contracts/utils/structs/EnumerableSet.sol\";\n\n/**\n* @title Recruit - Romance of the Three Kingdoms Recruit\n*\n* Version v1.1.0\n*\n*/\n\ncontract RecruitETHF is Ownable {\n    using SafeMath for uint256;\n    using EnumerableSet for EnumerableSet.UintSet;\n\n    uint256 public constant PCT_BASE = 1e18;\n    uint256 public constant RAND_BASE = 1000;\n\n    struct BlindBoxStruct {\n        uint256 price;\n        uint256 totalHero;\n        mapping (uint256 => uint256) rarities;\n        mapping (uint256 => uint256) qualities;\n    }\n\n    RichHero public HERO;\n    IERC20 public RM;\n    IMdaoPair public U2ETHF;\n    IMdaoPair public RM2ETHF;\n    IBattle public battle;\n    address public feeRecipient = 0x8F3b8f3046dEb7C4E227dC0c6379051755Ba3142;\n    address public promotionWallet = 0x8F3b8f3046dEb7C4E227dC0c6379051755Ba3142;\n    Invite public inviterContract;\n    EnumerableSet.UintSet private _tokenIds;\n\n    mapping (address => bool) public buyer;\n    mapping (uint256 => BlindBoxStruct) private _blindBoxes;\n\n    event InviterBuy(address buyer, address inviter, uint256 generation, uint256 amount);\n\n    constructor(address rm, address u2ethf, address rm2ethf, address hero, address _inviteContract) {\n        require(Address.isContract(hero), \"Nft Invalid\");\n        inviterContract = Invite(_inviteContract);\n        RM = IERC20(rm);\n        HERO = RichHero(hero);\n        U2ETHF = IMdaoPair(u2ethf);\n        RM2ETHF = IMdaoPair(rm2ethf);\n\n        _blindBoxes[0].price = 30; //u\n        _blindBoxes[0].rarities[0] = 600;\n        _blindBoxes[0].rarities[1] = 300;\n        _blindBoxes[0].rarities[2] = 99;\n        _blindBoxes[0].rarities[3] = 1;\n        _blindBoxes[0].qualities[0] = 800;\n        _blindBoxes[0].qualities[1] = 150;\n        _blindBoxes[0].qualities[2] = 30;\n        _blindBoxes[0].qualities[3] = 20;\n        _blindBoxes[0].totalHero = 5000;\n\n        _blindBoxes[1].price = 90;\n        _blindBoxes[1].rarities[0] = 100;\n        _blindBoxes[1].rarities[1] = 500;\n        _blindBoxes[1].rarities[2] = 350;\n        _blindBoxes[1].rarities[3] = 50;\n        _blindBoxes[1].qualities[0] = 500;\n        _blindBoxes[1].qualities[1] = 450;\n        _blindBoxes[1].qualities[2] = 30;\n        _blindBoxes[1].qualities[3] = 20;\n        _blindBoxes[1].totalHero = 5000;\n\n        _blindBoxes[2].price = 200;\n        _blindBoxes[2].rarities[0] = 25;\n        _blindBoxes[2].rarities[1] = 200;\n        _blindBoxes[2].rarities[2] = 600;\n        _blindBoxes[2].rarities[3] = 170;\n        _blindBoxes[2].rarities[4] = 5;\n        _blindBoxes[2].qualities[0] = 250;\n        _blindBoxes[2].qualities[1] = 400;\n        _blindBoxes[2].qualities[2] = 300;\n        _blindBoxes[2].qualities[3] = 50;\n        _blindBoxes[2].totalHero = 5000;\n    }\n\n    function setBattleContract(address _battle) public onlyOwner {\n        battle = IBattle(_battle);\n    }\n\n    function _random(uint256 _value, uint256 index) private view returns (uint64) {\n        bytes memory seed = abi.encodePacked(block.timestamp, index, msg.sender);\n        return uint64(uint256(keccak256(seed)) % _value);\n    }\n\n    function _choose(uint256 blindBox, uint256 index) private view\n        returns (uint64[] memory) {\n        uint64[] memory heroDetail = new uint64[](13);\n        uint256 randIndex = index;\n        heroDetail[0] = 0; //native\n        heroDetail[1] = uint64(_random(uint256(HERO.camps()), randIndex++)); //camp\n        {\n            uint256 ranRarity = _random(RAND_BASE, randIndex++);\n            uint256 rarityTotal;\n            for (uint64 i = 0; i < 5; i++) {\n                rarityTotal = rarityTotal.add(_blindBoxes[blindBox].rarities[i]);\n                if (ranRarity >= rarityTotal) {\n                    continue;\n                } else {\n                    heroDetail[2] = i; //rarity\n                    break;\n                }\n            }\n        }\n        heroDetail[3] = uint64(_random(uint256(HERO.heroIds(heroDetail[2])), randIndex++)); //heroId\n        heroDetail[4] = 0; //level\n        heroDetail[5] = 0; //star  \n        uint256 ranQuality = _random(RAND_BASE, randIndex++);\n        {\n            uint256 qualityTotal;\n            for (uint64 i = 0; i < 4; i++) {\n                qualityTotal = qualityTotal.add(_blindBoxes[blindBox].qualities[i]);\n                if (ranQuality >= qualityTotal) {\n                    continue;\n                } else {\n                    heroDetail[6] = i; //quality\n                    break;\n                }\n            }\n        }\n        (uint64 baseAddition, uint64 additionMod) = HERO.additions(heroDetail[6]);\n        heroDetail[7] = baseAddition + uint64(_random(additionMod, randIndex++)); //addition\n        (,\n        heroDetail[8],\n        heroDetail[9],\n        heroDetail[10],\n        heroDetail[11],\n        heroDetail[12]) = HERO._heroInitials(heroDetail[1], heroDetail[2], heroDetail[3]); //preference\n        return heroDetail;\n    }\n\n    function getCost(uint256 blindBox, uint256 amount, uint256 payForm) public view returns(uint256 price) {\n        (uint256 u, uint256 ethfu,) = U2ETHF.getReserves();\n        (uint256 rm, uint256 ethfrm,) = RM2ETHF.getReserves();\n        if (payForm == 0) {\n            //ethf\n            price = ethfu / u * amount * _blindBoxes[blindBox].price * 1e6; //u 1e6\n        } else if (payForm == 1) {\n            //rm\n            price = (rm / ethfrm) * (ethfu / u) * amount * _blindBoxes[blindBox].price * 1e6;\n        } else {\n            revert(\"Invalid payForm\");\n        }\n    }\n\n    function buy(uint256 blindBox, uint256 amount, address inviter, uint256 payForm) public payable {\n        require(msg.sender == tx.origin, \"The caller is not an EOA\");\n        if (!buyer[msg.sender]) {\n            buyer[msg.sender] = true;\n        }\n        inviterContract.setInviter(msg.sender, inviter);\n        uint256 salePrice = getCost(blindBox, amount, payForm);\n        if (payForm == 0) {\n            require(msg.value >= salePrice, \"Not enough ethf.\");\n            payable(msg.sender).transfer(msg.value - salePrice);\n        }\n        uint256 base = inviterContract.PCT_BASE();\n        address previous = msg.sender;\n        uint256 total;\n        for (uint256 i = 0; i < inviterContract.awardLength(); i++) {\n            previous = inviterContract.superior(previous);\n            if (previous != address(0)) {\n                uint256 award = inviterContract.award(i);\n                total += award;\n                if (payForm == 0) {\n                    //ethf\n                    payable(previous).transfer(salePrice.mul(award).div(base));\n                } else {\n                    bool s1 = RM.transferFrom(msg.sender, previous, salePrice.mul(award).div(base));\n                    require(s1, \"Transfer Invalid\");\n                }\n                emit InviterBuy(msg.sender, previous, i+1, salePrice.mul(award).div(base));\n            } else {\n                break;\n            }\n        }\n        // not enough generation, send to promotionWallet\n        if (total < base/10) {\n            if (payForm == 0) {\n                payable(previous).transfer(salePrice.mul(base.div(10).sub(total)).div(base));\n            } else {\n                bool s2 = RM.transferFrom(msg.sender, promotionWallet, salePrice.mul(base.div(10).sub(total)).div(base));\n                require(s2, \"Transfer Invalid\");\n            }\n        }\n\n        // buy\n        {\n            if (payForm == 0) {\n                payable(feeRecipient).transfer(salePrice.mul(90).div(100));\n            } else {\n                bool s1 = RM.transferFrom(msg.sender, feeRecipient, salePrice.mul(50).div(100));\n                require(s1, \"Transfer Invalid\");\n                uint256 toBattle = salePrice.mul(40).div(100);\n                if (address(battle) != address(0)) {\n                    bool s2 = RM.transferFrom(msg.sender, address(battle), toBattle);\n                    require(s2, \"Transfer Invalid\");\n                    battle.SendMMC(toBattle);\n                } else {\n                    bool s2 = RM.transferFrom(msg.sender, feeRecipient, toBattle);\n                    require(s2, \"Transfer Invalid\");\n                }\n            }\n            uint256 number = _blindBoxes[blindBox].totalHero;\n            require(number >= amount, \"Insufficient quantity left\");\n        }\n        for (uint256 i = 0; i < amount; i++) {\n            uint64[] memory detail = new uint64[](13);\n            detail = _choose(blindBox, i);\n            _blindBoxes[blindBox].totalHero = _blindBoxes[blindBox].totalHero.sub(1);\n            HERO.mint(msg.sender, detail);\n        }\n    }\n\n    function setBlindBox(uint256 boxIndex, uint256 amount, bool add) public onlyOwner {\n        if (add) {\n            _blindBoxes[boxIndex].totalHero = _blindBoxes[boxIndex].totalHero.add(amount);\n        } else {\n            _blindBoxes[boxIndex].totalHero = _blindBoxes[boxIndex].totalHero.sub(amount);\n        }\n    }\n\n    function getBlindBoxNumber(uint256 boxIndex) public view returns (uint256) {\n        return _blindBoxes[boxIndex].totalHero;\n    }\n\n    function setBlindBoxPrice(uint256 boxIndex, uint256 price) public onlyOwner {\n        _blindBoxes[boxIndex].price = price;  //u\n    }\n\n    function getBlindBoxPrice() public view returns(uint256[3] memory) {\n        uint256[3] memory prices = [_blindBoxes[0].price, _blindBoxes[1].price, _blindBoxes[2].price];\n        return prices;\n    }\n\n    function setFeeRecipient(address newRecipient) public onlyOwner {\n        feeRecipient = newRecipient;\n    }\n\n    function setPromotionWallet(address newWallet) public onlyOwner {\n        promotionWallet = newWallet;\n    }\n\n    function setInvite(address inviter) public onlyOwner {\n        inviterContract = Invite(inviter);\n    }\n\n    function setHero(address hero) public onlyOwner {\n        HERO = RichHero(hero);\n    }\n\n    function withdraw() public onlyOwner {\n        payable(owner()).transfer(address(this).balance);\n    }\n\n    function withdraw(address token) public onlyOwner {\n        IERC20(token).transfer(owner(), IERC20(token).balanceOf(address(this)));\n    }\n}",
  "sourcePath": "/Users/hy/new-rich-contract/contracts/RecruitETHF.sol",
  "compiler": {
    "name": "solc",
    "version": "0.8.16+commit.07a7930e.Emscripten.clang"
  },
  "schemaVersion": "3.4.3",
  "updatedAt": "2022-10-23T13:56:41.048Z",
  "devdoc": {
    "kind": "dev",
    "methods": {
      "owner()": {
        "details": "Returns the address of the current owner."
      },
      "renounceOwnership()": {
        "details": "Leaves the contract without owner. It will not be possible to call `onlyOwner` functions anymore. Can only be called by the current owner. NOTE: Renouncing ownership will leave the contract without an owner, thereby removing any functionality that is only available to the owner."
      },
      "transferOwnership(address)": {
        "details": "Transfers ownership of the contract to a new account (`newOwner`). Can only be called by the current owner."
      }
    },
    "title": "Recruit - Romance of the Three Kingdoms Recruit Version v1.1.0",
    "version": 1
  },
  "userdoc": {
    "kind": "user",
    "methods": {},
    "notice": "",
    "version": 1
  }
}