{
  "contractName": "RichShop",
  "abi": [
    {
      "inputs": [
        {
          "internalType": "address",
          "name": "mmc",
          "type": "address"
        },
        {
          "internalType": "address",
          "name": "m3t",
          "type": "address"
        }
      ],
      "stateMutability": "nonpayable",
      "type": "constructor"
    },
    {
      "anonymous": false,
      "inputs": [
        {
          "indexed": true,
          "internalType": "address",
          "name": "account",
          "type": "address"
        },
        {
          "indexed": true,
          "internalType": "address",
          "name": "operator",
          "type": "address"
        },
        {
          "indexed": false,
          "internalType": "bool",
          "name": "approved",
          "type": "bool"
        }
      ],
      "name": "ApprovalForAll",
      "type": "event"
    },
    {
      "anonymous": false,
      "inputs": [
        {
          "indexed": true,
          "internalType": "bytes32",
          "name": "role",
          "type": "bytes32"
        },
        {
          "indexed": true,
          "internalType": "bytes32",
          "name": "previousAdminRole",
          "type": "bytes32"
        },
        {
          "indexed": true,
          "internalType": "bytes32",
          "name": "newAdminRole",
          "type": "bytes32"
        }
      ],
      "name": "RoleAdminChanged",
      "type": "event"
    },
    {
      "anonymous": false,
      "inputs": [
        {
          "indexed": true,
          "internalType": "bytes32",
          "name": "role",
          "type": "bytes32"
        },
        {
          "indexed": true,
          "internalType": "address",
          "name": "account",
          "type": "address"
        },
        {
          "indexed": true,
          "internalType": "address",
          "name": "sender",
          "type": "address"
        }
      ],
      "name": "RoleGranted",
      "type": "event"
    },
    {
      "anonymous": false,
      "inputs": [
        {
          "indexed": true,
          "internalType": "bytes32",
          "name": "role",
          "type": "bytes32"
        },
        {
          "indexed": true,
          "internalType": "address",
          "name": "account",
          "type": "address"
        },
        {
          "indexed": true,
          "internalType": "address",
          "name": "sender",
          "type": "address"
        }
      ],
      "name": "RoleRevoked",
      "type": "event"
    },
    {
      "anonymous": false,
      "inputs": [
        {
          "indexed": true,
          "internalType": "address",
          "name": "operator",
          "type": "address"
        },
        {
          "indexed": true,
          "internalType": "address",
          "name": "from",
          "type": "address"
        },
        {
          "indexed": true,
          "internalType": "address",
          "name": "to",
          "type": "address"
        },
        {
          "indexed": false,
          "internalType": "uint256[]",
          "name": "ids",
          "type": "uint256[]"
        },
        {
          "indexed": false,
          "internalType": "uint256[]",
          "name": "values",
          "type": "uint256[]"
        }
      ],
      "name": "TransferBatch",
      "type": "event"
    },
    {
      "anonymous": false,
      "inputs": [
        {
          "indexed": true,
          "internalType": "address",
          "name": "operator",
          "type": "address"
        },
        {
          "indexed": true,
          "internalType": "address",
          "name": "from",
          "type": "address"
        },
        {
          "indexed": true,
          "internalType": "address",
          "name": "to",
          "type": "address"
        },
        {
          "indexed": false,
          "internalType": "uint256",
          "name": "id",
          "type": "uint256"
        },
        {
          "indexed": false,
          "internalType": "uint256",
          "name": "value",
          "type": "uint256"
        }
      ],
      "name": "TransferSingle",
      "type": "event"
    },
    {
      "anonymous": false,
      "inputs": [
        {
          "indexed": false,
          "internalType": "string",
          "name": "value",
          "type": "string"
        },
        {
          "indexed": true,
          "internalType": "uint256",
          "name": "id",
          "type": "uint256"
        }
      ],
      "name": "URI",
      "type": "event"
    },
    {
      "inputs": [],
      "name": "DEFAULT_ADMIN_ROLE",
      "outputs": [
        {
          "internalType": "bytes32",
          "name": "",
          "type": "bytes32"
        }
      ],
      "stateMutability": "view",
      "type": "function",
      "constant": true
    },
    {
      "inputs": [],
      "name": "M3T",
      "outputs": [
        {
          "internalType": "contract IERC20",
          "name": "",
          "type": "address"
        }
      ],
      "stateMutability": "view",
      "type": "function",
      "constant": true
    },
    {
      "inputs": [],
      "name": "MINT_ROLE",
      "outputs": [
        {
          "internalType": "bytes32",
          "name": "",
          "type": "bytes32"
        }
      ],
      "stateMutability": "view",
      "type": "function",
      "constant": true
    },
    {
      "inputs": [],
      "name": "MMC",
      "outputs": [
        {
          "internalType": "contract IERC20",
          "name": "",
          "type": "address"
        }
      ],
      "stateMutability": "view",
      "type": "function",
      "constant": true
    },
    {
      "inputs": [],
      "name": "PCT_BASE",
      "outputs": [
        {
          "internalType": "uint256",
          "name": "",
          "type": "uint256"
        }
      ],
      "stateMutability": "view",
      "type": "function",
      "constant": true
    },
    {
      "inputs": [
        {
          "internalType": "uint256",
          "name": "",
          "type": "uint256"
        }
      ],
      "name": "_items",
      "outputs": [
        {
          "internalType": "uint256",
          "name": "tokenId",
          "type": "uint256"
        },
        {
          "internalType": "bytes32",
          "name": "name",
          "type": "bytes32"
        },
        {
          "internalType": "uint8",
          "name": "priceToken",
          "type": "uint8"
        },
        {
          "internalType": "uint256",
          "name": "price",
          "type": "uint256"
        }
      ],
      "stateMutability": "view",
      "type": "function",
      "constant": true
    },
    {
      "inputs": [
        {
          "internalType": "address",
          "name": "account",
          "type": "address"
        },
        {
          "internalType": "uint256",
          "name": "id",
          "type": "uint256"
        }
      ],
      "name": "balanceOf",
      "outputs": [
        {
          "internalType": "uint256",
          "name": "",
          "type": "uint256"
        }
      ],
      "stateMutability": "view",
      "type": "function",
      "constant": true
    },
    {
      "inputs": [
        {
          "internalType": "address[]",
          "name": "accounts",
          "type": "address[]"
        },
        {
          "internalType": "uint256[]",
          "name": "ids",
          "type": "uint256[]"
        }
      ],
      "name": "balanceOfBatch",
      "outputs": [
        {
          "internalType": "uint256[]",
          "name": "",
          "type": "uint256[]"
        }
      ],
      "stateMutability": "view",
      "type": "function",
      "constant": true
    },
    {
      "inputs": [],
      "name": "feeRecipient",
      "outputs": [
        {
          "internalType": "address",
          "name": "",
          "type": "address"
        }
      ],
      "stateMutability": "view",
      "type": "function",
      "constant": true
    },
    {
      "inputs": [
        {
          "internalType": "bytes32",
          "name": "role",
          "type": "bytes32"
        }
      ],
      "name": "getRoleAdmin",
      "outputs": [
        {
          "internalType": "bytes32",
          "name": "",
          "type": "bytes32"
        }
      ],
      "stateMutability": "view",
      "type": "function",
      "constant": true
    },
    {
      "inputs": [
        {
          "internalType": "bytes32",
          "name": "role",
          "type": "bytes32"
        },
        {
          "internalType": "address",
          "name": "account",
          "type": "address"
        }
      ],
      "name": "grantRole",
      "outputs": [],
      "stateMutability": "nonpayable",
      "type": "function"
    },
    {
      "inputs": [
        {
          "internalType": "bytes32",
          "name": "role",
          "type": "bytes32"
        },
        {
          "internalType": "address",
          "name": "account",
          "type": "address"
        }
      ],
      "name": "hasRole",
      "outputs": [
        {
          "internalType": "bool",
          "name": "",
          "type": "bool"
        }
      ],
      "stateMutability": "view",
      "type": "function",
      "constant": true
    },
    {
      "inputs": [
        {
          "internalType": "address",
          "name": "account",
          "type": "address"
        },
        {
          "internalType": "address",
          "name": "operator",
          "type": "address"
        }
      ],
      "name": "isApprovedForAll",
      "outputs": [
        {
          "internalType": "bool",
          "name": "",
          "type": "bool"
        }
      ],
      "stateMutability": "view",
      "type": "function",
      "constant": true
    },
    {
      "inputs": [
        {
          "internalType": "bytes32",
          "name": "role",
          "type": "bytes32"
        },
        {
          "internalType": "address",
          "name": "account",
          "type": "address"
        }
      ],
      "name": "renounceRole",
      "outputs": [],
      "stateMutability": "nonpayable",
      "type": "function"
    },
    {
      "inputs": [
        {
          "internalType": "bytes32",
          "name": "role",
          "type": "bytes32"
        },
        {
          "internalType": "address",
          "name": "account",
          "type": "address"
        }
      ],
      "name": "revokeRole",
      "outputs": [],
      "stateMutability": "nonpayable",
      "type": "function"
    },
    {
      "inputs": [
        {
          "internalType": "address",
          "name": "from",
          "type": "address"
        },
        {
          "internalType": "address",
          "name": "to",
          "type": "address"
        },
        {
          "internalType": "uint256[]",
          "name": "ids",
          "type": "uint256[]"
        },
        {
          "internalType": "uint256[]",
          "name": "amounts",
          "type": "uint256[]"
        },
        {
          "internalType": "bytes",
          "name": "data",
          "type": "bytes"
        }
      ],
      "name": "safeBatchTransferFrom",
      "outputs": [],
      "stateMutability": "nonpayable",
      "type": "function"
    },
    {
      "inputs": [
        {
          "internalType": "address",
          "name": "from",
          "type": "address"
        },
        {
          "internalType": "address",
          "name": "to",
          "type": "address"
        },
        {
          "internalType": "uint256",
          "name": "id",
          "type": "uint256"
        },
        {
          "internalType": "uint256",
          "name": "amount",
          "type": "uint256"
        },
        {
          "internalType": "bytes",
          "name": "data",
          "type": "bytes"
        }
      ],
      "name": "safeTransferFrom",
      "outputs": [],
      "stateMutability": "nonpayable",
      "type": "function"
    },
    {
      "inputs": [
        {
          "internalType": "address",
          "name": "operator",
          "type": "address"
        },
        {
          "internalType": "bool",
          "name": "approved",
          "type": "bool"
        }
      ],
      "name": "setApprovalForAll",
      "outputs": [],
      "stateMutability": "nonpayable",
      "type": "function"
    },
    {
      "inputs": [],
      "name": "tokenListLength",
      "outputs": [
        {
          "internalType": "uint256",
          "name": "",
          "type": "uint256"
        }
      ],
      "stateMutability": "view",
      "type": "function",
      "constant": true
    },
    {
      "inputs": [
        {
          "internalType": "uint256",
          "name": "",
          "type": "uint256"
        }
      ],
      "name": "uri",
      "outputs": [
        {
          "internalType": "string",
          "name": "",
          "type": "string"
        }
      ],
      "stateMutability": "view",
      "type": "function",
      "constant": true
    },
    {
      "inputs": [
        {
          "internalType": "bytes32",
          "name": "name",
          "type": "bytes32"
        },
        {
          "internalType": "uint8",
          "name": "priceToken",
          "type": "uint8"
        },
        {
          "internalType": "uint256",
          "name": "price",
          "type": "uint256"
        }
      ],
      "name": "addItem",
      "outputs": [
        {
          "internalType": "uint256",
          "name": "",
          "type": "uint256"
        }
      ],
      "stateMutability": "nonpayable",
      "type": "function"
    },
    {
      "inputs": [
        {
          "internalType": "address",
          "name": "account",
          "type": "address"
        },
        {
          "internalType": "uint256",
          "name": "tokenId",
          "type": "uint256"
        },
        {
          "internalType": "uint256",
          "name": "amount",
          "type": "uint256"
        }
      ],
      "name": "buy",
      "outputs": [],
      "stateMutability": "nonpayable",
      "type": "function"
    },
    {
      "inputs": [],
      "name": "getAllItems",
      "outputs": [
        {
          "components": [
            {
              "internalType": "uint256",
              "name": "tokenId",
              "type": "uint256"
            },
            {
              "internalType": "bytes32",
              "name": "name",
              "type": "bytes32"
            },
            {
              "internalType": "uint8",
              "name": "priceToken",
              "type": "uint8"
            },
            {
              "internalType": "uint256",
              "name": "price",
              "type": "uint256"
            }
          ],
          "internalType": "struct RichShop.ItemDetail[]",
          "name": "",
          "type": "tuple[]"
        }
      ],
      "stateMutability": "view",
      "type": "function",
      "constant": true
    },
    {
      "inputs": [
        {
          "internalType": "address",
          "name": "account",
          "type": "address"
        }
      ],
      "name": "ownList",
      "outputs": [
        {
          "internalType": "uint256[]",
          "name": "",
          "type": "uint256[]"
        }
      ],
      "stateMutability": "view",
      "type": "function",
      "constant": true
    },
    {
      "inputs": [
        {
          "internalType": "bytes4",
          "name": "interfaceId",
          "type": "bytes4"
        }
      ],
      "name": "supportsInterface",
      "outputs": [
        {
          "internalType": "bool",
          "name": "",
          "type": "bool"
        }
      ],
      "stateMutability": "view",
      "type": "function",
      "constant": true
    }
  ],
  "bytecode": "0x6080604052600880546001600160a01b031916738f3b8f3046deb7c4e227dc0c6379051755ba31421790553480156200003757600080fd5b50604051620026fa380380620026fa8339810160408190526200005a916200044a565b60408051808201909152600a81526952696368205469746c6560b01b6020820152620000868162000209565b506200009460003362000222565b600580546001600160a01b038085166001600160a01b0319928316179092556006805492841692909116919091179055620000d9622d242560e91b60016064620002c6565b50620000ef621511d360ea1b600160c8620002c6565b50620001066229a42560e91b6001610190620002c6565b506200011d6229a3ad60e91b6001610320620002c6565b506200013d6c457863656c6c656e745f47656d60981b60016064620002c6565b506200015967457069635f47656d60c01b60016104e2620002c6565b5062000177694c6567656e645f47656d60b01b6001612710620002c6565b506200019368427265616b5f47656d60b81b600160c8620002c6565b50620001b36b416476616e6365645f47656d60a01b60016104e2620002c6565b50620001cf674c595f53746f6e6560c01b60016101f4620002c6565b50620001e7634472756d60e01b60006103e8620002c6565b506200020065466f7261676560d01b60006064620002c6565b50505062000515565b80516200021e90600290602084019062000387565b5050565b60008281526003602090815260408083206001600160a01b038516845290915290205460ff166200021e5760008281526003602090815260408083206001600160a01b03851684529091529020805460ff19166001179055620002823390565b6001600160a01b0316816001600160a01b0316837f2f8788117e7eff1d82e926ec794901d17c78024a50270940304540a733656f0d60405160405180910390a45050565b6004805460009182919082620002dc8362000498565b91905055905060405180608001604052808281526020018681526020018560ff16815260200162000324670de0b6b3a7640000866200037260201b62000c581790919060201c565b9052600082815260076020908152604091829020835181559083015160018201559082015160028201805460ff191660ff909216919091179055606090910151600390910155949350505050565b6000620003808284620004b6565b9392505050565b8280546200039590620004d8565b90600052602060002090601f016020900481019282620003b9576000855562000404565b82601f10620003d457805160ff191683800117855562000404565b8280016001018555821562000404579182015b8281111562000404578251825591602001919060010190620003e7565b506200041292915062000416565b5090565b5b8082111562000412576000815560010162000417565b80516001600160a01b03811681146200044557600080fd5b919050565b600080604083850312156200045e57600080fd5b62000469836200042d565b915062000479602084016200042d565b90509250929050565b634e487b7160e01b600052601160045260246000fd5b6000600019821415620004af57620004af62000482565b5060010190565b6000816000190483118215151615620004d357620004d362000482565b500290565b600181811c90821680620004ed57607f821691505b602082108114156200050f57634e487b7160e01b600052602260045260246000fd5b50919050565b6121d580620005256000396000f3fe608060405234801561001057600080fd5b50600436106101725760003560e01c806379300f53116100de578063a22cb46511610097578063e985e9c511610071578063e985e9c5146103ab578063e9a9c850146103e7578063f242432a1461040e578063fc157cb41461042157600080fd5b8063a22cb46514610372578063a59ac6dd14610385578063d547741f1461039857600080fd5b806379300f53146103155780638c874ea31461032857806391d148541461033b578063925f995f1461034e5780639a552a2914610361578063a217fddf1461036a57600080fd5b806336568abe1161013057806336568abe1461022b578063440294101461023e57806344dea5a7146102a257806346904840146102cd5780634ba1d6aa146102e05780634e1273f4146102f557600080fd5b8062fdd58e1461017757806301ffc9a71461019d5780630e89341c146101c0578063248a9ca3146101e05780632eb2c2d6146102035780632f2ff15d14610218575b600080fd5b61018a6101853660046117f1565b610430565b6040519081526020015b60405180910390f35b6101b06101ab366004611834565b6104c7565b6040519015158152602001610194565b6101d36101ce366004611851565b6104d8565b60405161019491906118c6565b61018a6101ee366004611851565b60009081526003602052604090206001015490565b610216610211366004611a25565b61056c565b005b610216610226366004611acf565b610603565b610216610239366004611acf565b61062e565b61027961024c366004611851565b60076020526000908152604090208054600182015460028301546003909301549192909160ff9091169084565b6040516101949493929190938452602084019290925260ff166040830152606082015260800190565b6005546102b5906001600160a01b031681565b6040516001600160a01b039091168152602001610194565b6008546102b5906001600160a01b031681565b6102e86106ac565b6040516101949190611afb565b610308610303366004611b62565b6107aa565b6040516101949190611c68565b6006546102b5906001600160a01b031681565b61018a610336366004611c7b565b6108d4565b6101b0610349366004611acf565b610931565b61030861035c366004611cb9565b61095c565b61018a60045481565b61018a600081565b610216610380366004611ce2565b6109ed565b610216610393366004611d19565b6109f8565b6102166103a6366004611acf565b610bab565b6101b06103b9366004611d4c565b6001600160a01b03918216600090815260016020908152604080832093909416825291909152205460ff1690565b61018a7ffdf81848136595c31bb5f76217767372bc4bf906663038eb38381131ea27ecba81565b61021661041c366004611d76565b610bd1565b61018a670de0b6b3a764000081565b60006001600160a01b0383166104a15760405162461bcd60e51b815260206004820152602b60248201527f455243313135353a2062616c616e636520717565727920666f7220746865207a60448201526a65726f206164647265737360a81b60648201526084015b60405180910390fd5b506000908152602081815260408083206001600160a01b03949094168352929052205490565b60006104d282610c6b565b92915050565b6060600280546104e790611ddb565b80601f016020809104026020016040519081016040528092919081815260200182805461051390611ddb565b80156105605780601f1061053557610100808354040283529160200191610560565b820191906000526020600020905b81548152906001019060200180831161054357829003601f168201915b50505050509050919050565b6001600160a01b038516331480610588575061058885336103b9565b6105ef5760405162461bcd60e51b815260206004820152603260248201527f455243313135353a207472616e736665722063616c6c6572206973206e6f74206044820152711bdddb995c881b9bdc88185c1c1c9bdd995960721b6064820152608401610498565b6105fc8585858585610c90565b5050505050565b60008281526003602052604090206001015461061f8133610e6d565b6106298383610ed1565b505050565b6001600160a01b038116331461069e5760405162461bcd60e51b815260206004820152602f60248201527f416363657373436f6e74726f6c3a2063616e206f6e6c792072656e6f756e636560448201526e103937b632b9903337b91039b2b63360891b6064820152608401610498565b6106a88282610f57565b5050565b60045460609060008167ffffffffffffffff8111156106cd576106cd6118d9565b60405190808252806020026020018201604052801561071f57816020015b6040805160808101825260008082526020808301829052928201819052606082015282526000199092019101816106eb5790505b50905060005b828110156107a357600081815260076020908152604091829020825160808101845281548152600182015492810192909252600281015460ff16928201929092526003909101546060820152825183908390811061078557610785611e16565b6020026020010181905250808061079b90611e42565b915050610725565b5092915050565b6060815183511461080f5760405162461bcd60e51b815260206004820152602960248201527f455243313135353a206163636f756e747320616e6420696473206c656e677468604482015268040dad2e6dac2e8c6d60bb1b6064820152608401610498565b6000835167ffffffffffffffff81111561082b5761082b6118d9565b604051908082528060200260200182016040528015610854578160200160208202803683370190505b50905060005b84518110156108cc5761089f85828151811061087857610878611e16565b602002602001015185838151811061089257610892611e16565b6020026020010151610430565b8282815181106108b1576108b1611e16565b60209081029190910101526108c581611e42565b905061085a565b509392505050565b60007ffdf81848136595c31bb5f76217767372bc4bf906663038eb38381131ea27ecba6109018133610e6d565b60ff8416158061091457508360ff166001145b61091d57600080fd5b610928858585610fbe565b95945050505050565b60009182526003602090815260408084206001600160a01b0393909316845291905290205460ff1690565b60045460609060008167ffffffffffffffff81111561097d5761097d6118d9565b6040519080825280602002602001820160405280156109a6578160200160208202803683370190505b50905060005b828110156108cc576109be8582610430565b8282815181106109d0576109d0611e16565b6020908102919091010152806109e581611e42565b9150506109ac565b6106a8338383611061565b6004548210610a0657600080fd5b60008281526007602052604090206002015460ff16610af55760055460085460008481526007602052604081206003015490926001600160a01b03908116926323b872dd92339290911690610a5c908790610c58565b6040516001600160e01b031960e086901b1681526001600160a01b0393841660048201529290911660248301526044820152606401602060405180830381600087803b158015610aab57600080fd5b505af1158015610abf573d6000803e3d6000fd5b505050506040513d601f19601f82011682018060405250810190610ae39190611e5d565b905080610aef57600080fd5b50610b90565b60008281526007602052604090206002015460ff1660011415610b4f5760065460085460008481526007602052604081206003015490926001600160a01b03908116926323b872dd92339290911690610a5c908790610c58565b60405162461bcd60e51b8152602060048201526016602482015275141c9a58d9481d1bdad95b881a5cc81a5b9d985b1a5960521b6044820152606401610498565b61062983838360405180602001604052806000815250611142565b600082815260036020526040902060010154610bc78133610e6d565b6106298383610f57565b6001600160a01b038516331480610bed5750610bed85336103b9565b610c4b5760405162461bcd60e51b815260206004820152602960248201527f455243313135353a2063616c6c6572206973206e6f74206f776e6572206e6f7260448201526808185c1c1c9bdd995960ba1b6064820152608401610498565b6105fc858585858561124c565b6000610c648284611e7a565b9392505050565b60006001600160e01b03198216637965db0b60e01b14806104d257506104d282611369565b8151835114610cf25760405162461bcd60e51b815260206004820152602860248201527f455243313135353a2069647320616e6420616d6f756e7473206c656e677468206044820152670dad2e6dac2e8c6d60c31b6064820152608401610498565b6001600160a01b038416610d185760405162461bcd60e51b815260040161049890611e99565b3360005b8451811015610dff576000858281518110610d3957610d39611e16565b602002602001015190506000858381518110610d5757610d57611e16565b602090810291909101810151600084815280835260408082206001600160a01b038e168352909352919091205490915081811015610da75760405162461bcd60e51b815260040161049890611ede565b6000838152602081815260408083206001600160a01b038e8116855292528083208585039055908b16825281208054849290610de4908490611f28565b9250508190555050505080610df890611e42565b9050610d1c565b50846001600160a01b0316866001600160a01b0316826001600160a01b03167f4a39dc06d4c0dbc64b70af90fd698a233a518aa5d07e595d983b8c0526c8f7fb8787604051610e4f929190611f40565b60405180910390a4610e658187878787876113b9565b505050505050565b610e778282610931565b6106a857610e8f816001600160a01b03166014611524565b610e9a836020611524565b604051602001610eab929190611f65565b60408051601f198184030181529082905262461bcd60e51b8252610498916004016118c6565b610edb8282610931565b6106a85760008281526003602090815260408083206001600160a01b03851684529091529020805460ff19166001179055610f133390565b6001600160a01b0316816001600160a01b0316837f2f8788117e7eff1d82e926ec794901d17c78024a50270940304540a733656f0d60405160405180910390a45050565b610f618282610931565b156106a85760008281526003602090815260408083206001600160a01b0385168085529252808320805460ff1916905551339285917ff6391f5c32d9c69d2a47ea670b442974b53935d1edc7fd64eb21e047a839171b9190a45050565b6004805460009182919082610fd283611e42565b91905055905060405180608001604052808281526020018681526020018560ff168152602001611013670de0b6b3a764000086610c5890919063ffffffff16565b9052600082815260076020908152604091829020835181559083015160018201559082015160028201805460ff191660ff909216919091179055606090910151600390910155949350505050565b816001600160a01b0316836001600160a01b031614156110d55760405162461bcd60e51b815260206004820152602960248201527f455243313135353a2073657474696e6720617070726f76616c20737461747573604482015268103337b91039b2b63360b91b6064820152608401610498565b6001600160a01b03838116600081815260016020908152604080832094871680845294825291829020805460ff191686151590811790915591519182527f17307eab39ab6107e8899845ad3d59bd9653f200f220920489ca2b5937696c31910160405180910390a3505050565b6001600160a01b0384166111a25760405162461bcd60e51b815260206004820152602160248201527f455243313135353a206d696e7420746f20746865207a65726f206164647265736044820152607360f81b6064820152608401610498565b336111bc816000876111b3886116c0565b6105fc886116c0565b6000848152602081815260408083206001600160a01b0389168452909152812080548592906111ec908490611f28565b909155505060408051858152602081018590526001600160a01b0380881692600092918516917fc3d58168c5ae7397731d063d5bbf3d657854427343f4c083240f7aacaa2d0f62910160405180910390a46105fc8160008787878761170b565b6001600160a01b0384166112725760405162461bcd60e51b815260040161049890611e99565b336112828187876111b3886116c0565b6000848152602081815260408083206001600160a01b038a168452909152902054838110156112c35760405162461bcd60e51b815260040161049890611ede565b6000858152602081815260408083206001600160a01b038b8116855292528083208785039055908816825281208054869290611300908490611f28565b909155505060408051868152602081018690526001600160a01b03808916928a821692918616917fc3d58168c5ae7397731d063d5bbf3d657854427343f4c083240f7aacaa2d0f62910160405180910390a461136082888888888861170b565b50505050505050565b60006001600160e01b03198216636cdb3d1360e11b148061139a57506001600160e01b031982166303a24d0760e21b145b806104d257506301ffc9a760e01b6001600160e01b03198316146104d2565b6001600160a01b0384163b15610e655760405163bc197c8160e01b81526001600160a01b0385169063bc197c81906113fd9089908990889088908890600401611fda565b602060405180830381600087803b15801561141757600080fd5b505af1925050508015611447575060408051601f3d908101601f1916820190925261144491810190612038565b60015b6114f457611453612055565b806308c379a0141561148d5750611468612071565b80611473575061148f565b8060405162461bcd60e51b815260040161049891906118c6565b505b60405162461bcd60e51b815260206004820152603460248201527f455243313135353a207472616e7366657220746f206e6f6e20455243313135356044820152732932b1b2b4bb32b91034b6b83632b6b2b73a32b960611b6064820152608401610498565b6001600160e01b0319811663bc197c8160e01b146113605760405162461bcd60e51b8152600401610498906120fb565b60606000611533836002611e7a565b61153e906002611f28565b67ffffffffffffffff811115611556576115566118d9565b6040519080825280601f01601f191660200182016040528015611580576020820181803683370190505b509050600360fc1b8160008151811061159b5761159b611e16565b60200101906001600160f81b031916908160001a905350600f60fb1b816001815181106115ca576115ca611e16565b60200101906001600160f81b031916908160001a90535060006115ee846002611e7a565b6115f9906001611f28565b90505b6001811115611671576f181899199a1a9b1b9c1cb0b131b232b360811b85600f166010811061162d5761162d611e16565b1a60f81b82828151811061164357611643611e16565b60200101906001600160f81b031916908160001a90535060049490941c9361166a81612143565b90506115fc565b508315610c645760405162461bcd60e51b815260206004820181905260248201527f537472696e67733a20686578206c656e67746820696e73756666696369656e746044820152606401610498565b604080516001808252818301909252606091600091906020808301908036833701905050905082816000815181106116fa576116fa611e16565b602090810291909101015292915050565b6001600160a01b0384163b15610e655760405163f23a6e6160e01b81526001600160a01b0385169063f23a6e619061174f908990899088908890889060040161215a565b602060405180830381600087803b15801561176957600080fd5b505af1925050508015611799575060408051601f3d908101601f1916820190925261179691810190612038565b60015b6117a557611453612055565b6001600160e01b0319811663f23a6e6160e01b146113605760405162461bcd60e51b8152600401610498906120fb565b80356001600160a01b03811681146117ec57600080fd5b919050565b6000806040838503121561180457600080fd5b61180d836117d5565b946020939093013593505050565b6001600160e01b03198116811461183157600080fd5b50565b60006020828403121561184657600080fd5b8135610c648161181b565b60006020828403121561186357600080fd5b5035919050565b60005b8381101561188557818101518382015260200161186d565b83811115611894576000848401525b50505050565b600081518084526118b281602086016020860161186a565b601f01601f19169290920160200192915050565b602081526000610c64602083018461189a565b634e487b7160e01b600052604160045260246000fd5b601f8201601f1916810167ffffffffffffffff81118282101715611915576119156118d9565b6040525050565b600067ffffffffffffffff821115611936576119366118d9565b5060051b60200190565b600082601f83011261195157600080fd5b8135602061195e8261191c565b60405161196b82826118ef565b83815260059390931b850182019282810191508684111561198b57600080fd5b8286015b848110156119a6578035835291830191830161198f565b509695505050505050565b600082601f8301126119c257600080fd5b813567ffffffffffffffff8111156119dc576119dc6118d9565b6040516119f3601f8301601f1916602001826118ef565b818152846020838601011115611a0857600080fd5b816020850160208301376000918101602001919091529392505050565b600080600080600060a08688031215611a3d57600080fd5b611a46866117d5565b9450611a54602087016117d5565b9350604086013567ffffffffffffffff80821115611a7157600080fd5b611a7d89838a01611940565b94506060880135915080821115611a9357600080fd5b611a9f89838a01611940565b93506080880135915080821115611ab557600080fd5b50611ac2888289016119b1565b9150509295509295909350565b60008060408385031215611ae257600080fd5b82359150611af2602084016117d5565b90509250929050565b602080825282518282018190526000919060409081850190868401855b82811015611b555781518051855286810151878601528581015160ff16868601526060908101519085015260809093019290850190600101611b18565b5091979650505050505050565b60008060408385031215611b7557600080fd5b823567ffffffffffffffff80821115611b8d57600080fd5b818501915085601f830112611ba157600080fd5b81356020611bae8261191c565b604051611bbb82826118ef565b83815260059390931b8501820192828101915089841115611bdb57600080fd5b948201945b83861015611c0057611bf1866117d5565b82529482019490820190611be0565b96505086013592505080821115611c1657600080fd5b50611c2385828601611940565b9150509250929050565b600081518084526020808501945080840160005b83811015611c5d57815187529582019590820190600101611c41565b509495945050505050565b602081526000610c646020830184611c2d565b600080600060608486031215611c9057600080fd5b83359250602084013560ff81168114611ca857600080fd5b929592945050506040919091013590565b600060208284031215611ccb57600080fd5b610c64826117d5565b801515811461183157600080fd5b60008060408385031215611cf557600080fd5b611cfe836117d5565b91506020830135611d0e81611cd4565b809150509250929050565b600080600060608486031215611d2e57600080fd5b611d37846117d5565b95602085013595506040909401359392505050565b60008060408385031215611d5f57600080fd5b611d68836117d5565b9150611af2602084016117d5565b600080600080600060a08688031215611d8e57600080fd5b611d97866117d5565b9450611da5602087016117d5565b93506040860135925060608601359150608086013567ffffffffffffffff811115611dcf57600080fd5b611ac2888289016119b1565b600181811c90821680611def57607f821691505b60208210811415611e1057634e487b7160e01b600052602260045260246000fd5b50919050565b634e487b7160e01b600052603260045260246000fd5b634e487b7160e01b600052601160045260246000fd5b6000600019821415611e5657611e56611e2c565b5060010190565b600060208284031215611e6f57600080fd5b8151610c6481611cd4565b6000816000190483118215151615611e9457611e94611e2c565b500290565b60208082526025908201527f455243313135353a207472616e7366657220746f20746865207a65726f206164604082015264647265737360d81b606082015260800190565b6020808252602a908201527f455243313135353a20696e73756666696369656e742062616c616e636520666f60408201526939103a3930b739b332b960b11b606082015260800190565b60008219821115611f3b57611f3b611e2c565b500190565b604081526000611f536040830185611c2d565b82810360208401526109288185611c2d565b7f416363657373436f6e74726f6c3a206163636f756e7420000000000000000000815260008351611f9d81601785016020880161186a565b7001034b99036b4b9b9b4b733903937b6329607d1b6017918401918201528351611fce81602884016020880161186a565b01602801949350505050565b6001600160a01b0386811682528516602082015260a06040820181905260009061200690830186611c2d565b82810360608401526120188186611c2d565b9050828103608084015261202c818561189a565b98975050505050505050565b60006020828403121561204a57600080fd5b8151610c648161181b565b600060033d111561206e5760046000803e5060005160e01c5b90565b600060443d101561207f5790565b6040516003193d81016004833e81513d67ffffffffffffffff81602484011181841117156120af57505050505090565b82850191508151818111156120c75750505050505090565b843d87010160208285010111156120e15750505050505090565b6120f0602082860101876118ef565b509095945050505050565b60208082526028908201527f455243313135353a204552433131353552656365697665722072656a656374656040820152676420746f6b656e7360c01b606082015260800190565b60008161215257612152611e2c565b506000190190565b6001600160a01b03868116825285166020820152604081018490526060810183905260a0608082018190526000906121949083018461189a565b97965050505050505056fea26469706673582212203454777ea45831b1da75765004b3f625704c9bbe1a5e87be01f78a8c4ce346ea64736f6c63430008090033",
  "immutableReferences": {},
  "source": "// SPDX-License-Identifier: SimPL-2.0\n\npragma solidity ^0.8.0;\npragma experimental ABIEncoderV2;\n\nimport \"@openzeppelin/contracts/token/ERC1155/ERC1155.sol\";\nimport \"@openzeppelin/contracts/access/AccessControl.sol\";\nimport \"@openzeppelin/contracts/token/ERC20/IERC20.sol\";\n\nimport \"@openzeppelin/contracts/utils/Address.sol\";\nimport \"@openzeppelin/contracts/utils/math/SafeMath.sol\";\n\n/**\n* @title RichShop - Romance of the Three Kingdoms Title Shop\n*\n*\n* Docs: \n*\n* Version v1.1.0\n*\n*/\n\ncontract RichShop is ERC1155, AccessControl {\n    using SafeMath for uint256;\n\n    bytes32 public constant MINT_ROLE = keccak256(\"MINT\");\n\n    uint256 public constant PCT_BASE = 1e18;\n\n    struct ItemDetail {\n        uint256 tokenId; // ID\n        bytes32 name; // \n        uint8 priceToken; //  0: mmc 1: m3t\n        uint256 price; // \n    }\n\n    uint256 public tokenListLength;\n    IERC20 public MMC;\n    IERC20 public M3T;\n    mapping (uint256 => ItemDetail) public _items;\n    address public feeRecipient = 0x8F3b8f3046dEb7C4E227dC0c6379051755Ba3142;\n\n    constructor(address mmc, address m3t) ERC1155 (\"Rich Title\") {\n        _grantRole(DEFAULT_ADMIN_ROLE, msg.sender);\n        MMC = IERC20(mmc);\n        M3T = IERC20(m3t);\n        _addItem(\"ZHJ\", 1, 100); // tokenId: 0 //4u\n        _addItem(\"TGL\", 1, 200); // tokenId: 1 //8u\n        _addItem(\"SHJ\", 1, 400); // tokenId: 2 //16u\n        _addItem(\"SGZ\", 1, 800); // tokenId: 3 //32u\n        _addItem(\"Excellent_Gem\", 1, 100); // tokenId: 4 //4u\n        _addItem(\"Epic_Gem\", 1, 1250); // tokenId: 5 //50u\n        _addItem(\"Legend_Gem\", 1, 10000); // tokenId: 6 //400u\n        _addItem(\"Break_Gem\", 1, 200); // tokenId: 7 //8u\n        _addItem(\"Advanced_Gem\", 1, 1250); // tokenId: 8 //50u\n        _addItem(\"LY_Stone\", 1, 500); // tokenId: 9 //20u\n        _addItem(\"Drum\", 0, 1000); // tokenId: 10 // 10u\n        _addItem(\"Forage\", 0, 100); // tokenId: 11 // 1u\n    }\n\n    function addItem(bytes32 name, uint8 priceToken, uint256 price) public onlyRole(MINT_ROLE) returns (uint256) {\n        require(priceToken == 0 || priceToken == 1);\n        return _addItem(name, priceToken, price);\n    }\n\n    function _addItem(bytes32 name, uint8 priceToken, uint256 price) internal returns (uint256){\n        uint256 tokenId = tokenListLength++;\n        _items[tokenId] = ItemDetail(\n            tokenId, \n            name,\n            priceToken, \n            price.mul(PCT_BASE)\n        );\n        return tokenId;\n    }\n\n    function buy(\n        address account, uint256 tokenId, uint256 amount\n    ) public {\n        require(tokenId < tokenListLength);\n        if (_items[tokenId].priceToken == 0) {\n            bool success = MMC.transferFrom(msg.sender, feeRecipient, amount.mul(_items[tokenId].price));\n            require(success);\n        } else if (_items[tokenId].priceToken == 1) {\n            bool success = M3T.transferFrom(msg.sender, feeRecipient, amount.mul(_items[tokenId].price));\n            require(success);\n        } else {\n            revert(\"Price token is invalid\");\n        }\n        _mint(account, tokenId, amount, \"\");\n    }\n\n    function getAllItems() public view returns (ItemDetail[] memory) {\n        uint256 len = tokenListLength;\n        ItemDetail[] memory list = new ItemDetail[](len);\n        for (uint256 i = 0; i < len; i++) {\n            list[i] = _items[i];\n        }\n        return list;\n    }\n\n    function ownList(address account) public view returns (uint256[] memory) {\n        uint256 len = tokenListLength;\n        uint256[] memory list = new uint256[](len);\n        for (uint256 i = 0; i < len; i++) {\n            list[i] = balanceOf(account, i);\n        }\n        return list;\n    }\n    \n    function supportsInterface(bytes4 interfaceId) public view virtual\n        override(ERC1155, AccessControl) returns (bool) {\n        return super.supportsInterface(interfaceId);\n    }\n}",
  "sourcePath": "/Users/hy/new-rich-contract/contracts/RichShop.sol",
  "compiler": {
    "name": "solc",
    "version": "0.8.9+commit.e5eed63a.Emscripten.clang"
  },
  "schemaVersion": "3.4.3",
  "updatedAt": "2022-02-22T14:19:16.535Z",
  "networkType": "ethereum",
  "devdoc": {
    "kind": "dev",
    "methods": {
      "balanceOf(address,uint256)": {
        "details": "See {IERC1155-balanceOf}. Requirements: - `account` cannot be the zero address."
      },
      "balanceOfBatch(address[],uint256[])": {
        "details": "See {IERC1155-balanceOfBatch}. Requirements: - `accounts` and `ids` must have the same length."
      },
      "getRoleAdmin(bytes32)": {
        "details": "Returns the admin role that controls `role`. See {grantRole} and {revokeRole}. To change a role's admin, use {_setRoleAdmin}."
      },
      "grantRole(bytes32,address)": {
        "details": "Grants `role` to `account`. If `account` had not been already granted `role`, emits a {RoleGranted} event. Requirements: - the caller must have ``role``'s admin role."
      },
      "hasRole(bytes32,address)": {
        "details": "Returns `true` if `account` has been granted `role`."
      },
      "isApprovedForAll(address,address)": {
        "details": "See {IERC1155-isApprovedForAll}."
      },
      "renounceRole(bytes32,address)": {
        "details": "Revokes `role` from the calling account. Roles are often managed via {grantRole} and {revokeRole}: this function's purpose is to provide a mechanism for accounts to lose their privileges if they are compromised (such as when a trusted device is misplaced). If the calling account had been revoked `role`, emits a {RoleRevoked} event. Requirements: - the caller must be `account`."
      },
      "revokeRole(bytes32,address)": {
        "details": "Revokes `role` from `account`. If `account` had been granted `role`, emits a {RoleRevoked} event. Requirements: - the caller must have ``role``'s admin role."
      },
      "safeBatchTransferFrom(address,address,uint256[],uint256[],bytes)": {
        "details": "See {IERC1155-safeBatchTransferFrom}."
      },
      "safeTransferFrom(address,address,uint256,uint256,bytes)": {
        "details": "See {IERC1155-safeTransferFrom}."
      },
      "setApprovalForAll(address,bool)": {
        "details": "See {IERC1155-setApprovalForAll}."
      },
      "uri(uint256)": {
        "details": "See {IERC1155MetadataURI-uri}. This implementation returns the same URI for *all* token types. It relies on the token type ID substitution mechanism https://eips.ethereum.org/EIPS/eip-1155#metadata[defined in the EIP]. Clients calling this function must replace the `\\{id\\}` substring with the actual token type ID."
      }
    },
    "title": "RichShop - Romance of the Three Kingdoms Title Shop Docs:  Version v1.1.0",
    "version": 1
  },
  "userdoc": {
    "kind": "user",
    "methods": {},
    "notice": "",
    "version": 1
  }
}