{
  "contractName": "RichTitle",
  "abi": [
    {
      "inputs": [],
      "stateMutability": "nonpayable",
      "type": "constructor"
    },
    {
      "anonymous": false,
      "inputs": [
        {
          "indexed": true,
          "internalType": "address",
          "name": "account",
          "type": "address"
        },
        {
          "indexed": true,
          "internalType": "address",
          "name": "operator",
          "type": "address"
        },
        {
          "indexed": false,
          "internalType": "bool",
          "name": "approved",
          "type": "bool"
        }
      ],
      "name": "ApprovalForAll",
      "type": "event"
    },
    {
      "anonymous": false,
      "inputs": [
        {
          "indexed": false,
          "internalType": "uint256",
          "name": "tokenId",
          "type": "uint256"
        },
        {
          "indexed": false,
          "internalType": "bytes32",
          "name": "name",
          "type": "bytes32"
        },
        {
          "indexed": false,
          "internalType": "address",
          "name": "owner",
          "type": "address"
        }
      ],
      "name": "NewTitle",
      "type": "event"
    },
    {
      "anonymous": false,
      "inputs": [
        {
          "indexed": true,
          "internalType": "bytes32",
          "name": "role",
          "type": "bytes32"
        },
        {
          "indexed": true,
          "internalType": "bytes32",
          "name": "previousAdminRole",
          "type": "bytes32"
        },
        {
          "indexed": true,
          "internalType": "bytes32",
          "name": "newAdminRole",
          "type": "bytes32"
        }
      ],
      "name": "RoleAdminChanged",
      "type": "event"
    },
    {
      "anonymous": false,
      "inputs": [
        {
          "indexed": true,
          "internalType": "bytes32",
          "name": "role",
          "type": "bytes32"
        },
        {
          "indexed": true,
          "internalType": "address",
          "name": "account",
          "type": "address"
        },
        {
          "indexed": true,
          "internalType": "address",
          "name": "sender",
          "type": "address"
        }
      ],
      "name": "RoleGranted",
      "type": "event"
    },
    {
      "anonymous": false,
      "inputs": [
        {
          "indexed": true,
          "internalType": "bytes32",
          "name": "role",
          "type": "bytes32"
        },
        {
          "indexed": true,
          "internalType": "address",
          "name": "account",
          "type": "address"
        },
        {
          "indexed": true,
          "internalType": "address",
          "name": "sender",
          "type": "address"
        }
      ],
      "name": "RoleRevoked",
      "type": "event"
    },
    {
      "anonymous": false,
      "inputs": [
        {
          "indexed": true,
          "internalType": "address",
          "name": "operator",
          "type": "address"
        },
        {
          "indexed": true,
          "internalType": "address",
          "name": "from",
          "type": "address"
        },
        {
          "indexed": true,
          "internalType": "address",
          "name": "to",
          "type": "address"
        },
        {
          "indexed": false,
          "internalType": "uint256[]",
          "name": "ids",
          "type": "uint256[]"
        },
        {
          "indexed": false,
          "internalType": "uint256[]",
          "name": "values",
          "type": "uint256[]"
        }
      ],
      "name": "TransferBatch",
      "type": "event"
    },
    {
      "anonymous": false,
      "inputs": [
        {
          "indexed": true,
          "internalType": "address",
          "name": "operator",
          "type": "address"
        },
        {
          "indexed": true,
          "internalType": "address",
          "name": "from",
          "type": "address"
        },
        {
          "indexed": true,
          "internalType": "address",
          "name": "to",
          "type": "address"
        },
        {
          "indexed": false,
          "internalType": "uint256",
          "name": "id",
          "type": "uint256"
        },
        {
          "indexed": false,
          "internalType": "uint256",
          "name": "value",
          "type": "uint256"
        }
      ],
      "name": "TransferSingle",
      "type": "event"
    },
    {
      "anonymous": false,
      "inputs": [
        {
          "indexed": false,
          "internalType": "string",
          "name": "value",
          "type": "string"
        },
        {
          "indexed": true,
          "internalType": "uint256",
          "name": "id",
          "type": "uint256"
        }
      ],
      "name": "URI",
      "type": "event"
    },
    {
      "inputs": [],
      "name": "DEFAULT_ADMIN_ROLE",
      "outputs": [
        {
          "internalType": "bytes32",
          "name": "",
          "type": "bytes32"
        }
      ],
      "stateMutability": "view",
      "type": "function",
      "constant": true
    },
    {
      "inputs": [],
      "name": "MINT_ROLE",
      "outputs": [
        {
          "internalType": "bytes32",
          "name": "",
          "type": "bytes32"
        }
      ],
      "stateMutability": "view",
      "type": "function",
      "constant": true
    },
    {
      "inputs": [],
      "name": "PCT_BASE",
      "outputs": [
        {
          "internalType": "uint256",
          "name": "",
          "type": "uint256"
        }
      ],
      "stateMutability": "view",
      "type": "function",
      "constant": true
    },
    {
      "inputs": [
        {
          "internalType": "address",
          "name": "",
          "type": "address"
        }
      ],
      "name": "_isWears",
      "outputs": [
        {
          "internalType": "bool",
          "name": "",
          "type": "bool"
        }
      ],
      "stateMutability": "view",
      "type": "function",
      "constant": true
    },
    {
      "inputs": [
        {
          "internalType": "uint256",
          "name": "",
          "type": "uint256"
        }
      ],
      "name": "_titles",
      "outputs": [
        {
          "internalType": "uint256",
          "name": "tokenId",
          "type": "uint256"
        },
        {
          "internalType": "bytes32",
          "name": "name",
          "type": "bytes32"
        },
        {
          "internalType": "uint64",
          "name": "getTime",
          "type": "uint64"
        },
        {
          "internalType": "uint64",
          "name": "getWay",
          "type": "uint64"
        },
        {
          "internalType": "uint64",
          "name": "quality",
          "type": "uint64"
        },
        {
          "internalType": "uint64",
          "name": "property",
          "type": "uint64"
        },
        {
          "internalType": "uint64",
          "name": "addition",
          "type": "uint64"
        }
      ],
      "stateMutability": "view",
      "type": "function",
      "constant": true
    },
    {
      "inputs": [
        {
          "internalType": "address",
          "name": "",
          "type": "address"
        }
      ],
      "name": "_wears",
      "outputs": [
        {
          "internalType": "uint256",
          "name": "",
          "type": "uint256"
        }
      ],
      "stateMutability": "view",
      "type": "function",
      "constant": true
    },
    {
      "inputs": [
        {
          "internalType": "address",
          "name": "account",
          "type": "address"
        },
        {
          "internalType": "uint256",
          "name": "id",
          "type": "uint256"
        }
      ],
      "name": "balanceOf",
      "outputs": [
        {
          "internalType": "uint256",
          "name": "",
          "type": "uint256"
        }
      ],
      "stateMutability": "view",
      "type": "function",
      "constant": true
    },
    {
      "inputs": [
        {
          "internalType": "address[]",
          "name": "accounts",
          "type": "address[]"
        },
        {
          "internalType": "uint256[]",
          "name": "ids",
          "type": "uint256[]"
        }
      ],
      "name": "balanceOfBatch",
      "outputs": [
        {
          "internalType": "uint256[]",
          "name": "",
          "type": "uint256[]"
        }
      ],
      "stateMutability": "view",
      "type": "function",
      "constant": true
    },
    {
      "inputs": [
        {
          "internalType": "bytes32",
          "name": "role",
          "type": "bytes32"
        }
      ],
      "name": "getRoleAdmin",
      "outputs": [
        {
          "internalType": "bytes32",
          "name": "",
          "type": "bytes32"
        }
      ],
      "stateMutability": "view",
      "type": "function",
      "constant": true
    },
    {
      "inputs": [
        {
          "internalType": "bytes32",
          "name": "role",
          "type": "bytes32"
        },
        {
          "internalType": "address",
          "name": "account",
          "type": "address"
        }
      ],
      "name": "grantRole",
      "outputs": [],
      "stateMutability": "nonpayable",
      "type": "function"
    },
    {
      "inputs": [
        {
          "internalType": "bytes32",
          "name": "role",
          "type": "bytes32"
        },
        {
          "internalType": "address",
          "name": "account",
          "type": "address"
        }
      ],
      "name": "hasRole",
      "outputs": [
        {
          "internalType": "bool",
          "name": "",
          "type": "bool"
        }
      ],
      "stateMutability": "view",
      "type": "function",
      "constant": true
    },
    {
      "inputs": [
        {
          "internalType": "address",
          "name": "account",
          "type": "address"
        },
        {
          "internalType": "address",
          "name": "operator",
          "type": "address"
        }
      ],
      "name": "isApprovedForAll",
      "outputs": [
        {
          "internalType": "bool",
          "name": "",
          "type": "bool"
        }
      ],
      "stateMutability": "view",
      "type": "function",
      "constant": true
    },
    {
      "inputs": [
        {
          "internalType": "bytes32",
          "name": "role",
          "type": "bytes32"
        },
        {
          "internalType": "address",
          "name": "account",
          "type": "address"
        }
      ],
      "name": "renounceRole",
      "outputs": [],
      "stateMutability": "nonpayable",
      "type": "function"
    },
    {
      "inputs": [
        {
          "internalType": "bytes32",
          "name": "role",
          "type": "bytes32"
        },
        {
          "internalType": "address",
          "name": "account",
          "type": "address"
        }
      ],
      "name": "revokeRole",
      "outputs": [],
      "stateMutability": "nonpayable",
      "type": "function"
    },
    {
      "inputs": [
        {
          "internalType": "address",
          "name": "from",
          "type": "address"
        },
        {
          "internalType": "address",
          "name": "to",
          "type": "address"
        },
        {
          "internalType": "uint256[]",
          "name": "ids",
          "type": "uint256[]"
        },
        {
          "internalType": "uint256[]",
          "name": "amounts",
          "type": "uint256[]"
        },
        {
          "internalType": "bytes",
          "name": "data",
          "type": "bytes"
        }
      ],
      "name": "safeBatchTransferFrom",
      "outputs": [],
      "stateMutability": "nonpayable",
      "type": "function"
    },
    {
      "inputs": [
        {
          "internalType": "address",
          "name": "from",
          "type": "address"
        },
        {
          "internalType": "address",
          "name": "to",
          "type": "address"
        },
        {
          "internalType": "uint256",
          "name": "id",
          "type": "uint256"
        },
        {
          "internalType": "uint256",
          "name": "amount",
          "type": "uint256"
        },
        {
          "internalType": "bytes",
          "name": "data",
          "type": "bytes"
        }
      ],
      "name": "safeTransferFrom",
      "outputs": [],
      "stateMutability": "nonpayable",
      "type": "function"
    },
    {
      "inputs": [
        {
          "internalType": "address",
          "name": "operator",
          "type": "address"
        },
        {
          "internalType": "bool",
          "name": "approved",
          "type": "bool"
        }
      ],
      "name": "setApprovalForAll",
      "outputs": [],
      "stateMutability": "nonpayable",
      "type": "function"
    },
    {
      "inputs": [],
      "name": "tokenListLength",
      "outputs": [
        {
          "internalType": "uint256",
          "name": "",
          "type": "uint256"
        }
      ],
      "stateMutability": "view",
      "type": "function",
      "constant": true
    },
    {
      "inputs": [
        {
          "internalType": "uint256",
          "name": "",
          "type": "uint256"
        }
      ],
      "name": "uri",
      "outputs": [
        {
          "internalType": "string",
          "name": "",
          "type": "string"
        }
      ],
      "stateMutability": "view",
      "type": "function",
      "constant": true
    },
    {
      "inputs": [
        {
          "internalType": "bytes32",
          "name": "name",
          "type": "bytes32"
        },
        {
          "internalType": "uint64[]",
          "name": "detail",
          "type": "uint64[]"
        }
      ],
      "name": "addTitle",
      "outputs": [
        {
          "internalType": "uint256",
          "name": "",
          "type": "uint256"
        }
      ],
      "stateMutability": "nonpayable",
      "type": "function"
    },
    {
      "inputs": [
        {
          "internalType": "address",
          "name": "account",
          "type": "address"
        },
        {
          "internalType": "uint256",
          "name": "tokenId",
          "type": "uint256"
        }
      ],
      "name": "mint",
      "outputs": [],
      "stateMutability": "nonpayable",
      "type": "function"
    },
    {
      "inputs": [
        {
          "internalType": "address",
          "name": "who",
          "type": "address"
        }
      ],
      "name": "getNowTitle",
      "outputs": [
        {
          "components": [
            {
              "internalType": "uint256",
              "name": "tokenId",
              "type": "uint256"
            },
            {
              "internalType": "bytes32",
              "name": "name",
              "type": "bytes32"
            },
            {
              "internalType": "uint64",
              "name": "getTime",
              "type": "uint64"
            },
            {
              "internalType": "uint64",
              "name": "getWay",
              "type": "uint64"
            },
            {
              "internalType": "uint64",
              "name": "quality",
              "type": "uint64"
            },
            {
              "internalType": "uint64",
              "name": "property",
              "type": "uint64"
            },
            {
              "internalType": "uint64",
              "name": "addition",
              "type": "uint64"
            }
          ],
          "internalType": "struct RichTitle.TitleDetail",
          "name": "detail",
          "type": "tuple"
        }
      ],
      "stateMutability": "view",
      "type": "function",
      "constant": true
    },
    {
      "inputs": [],
      "name": "getAllTitles",
      "outputs": [
        {
          "components": [
            {
              "internalType": "uint256",
              "name": "tokenId",
              "type": "uint256"
            },
            {
              "internalType": "bytes32",
              "name": "name",
              "type": "bytes32"
            },
            {
              "internalType": "uint64",
              "name": "getTime",
              "type": "uint64"
            },
            {
              "internalType": "uint64",
              "name": "getWay",
              "type": "uint64"
            },
            {
              "internalType": "uint64",
              "name": "quality",
              "type": "uint64"
            },
            {
              "internalType": "uint64",
              "name": "property",
              "type": "uint64"
            },
            {
              "internalType": "uint64",
              "name": "addition",
              "type": "uint64"
            }
          ],
          "internalType": "struct RichTitle.TitleDetail[]",
          "name": "",
          "type": "tuple[]"
        }
      ],
      "stateMutability": "view",
      "type": "function",
      "constant": true
    },
    {
      "inputs": [
        {
          "internalType": "address",
          "name": "account",
          "type": "address"
        }
      ],
      "name": "titleList",
      "outputs": [
        {
          "components": [
            {
              "internalType": "uint256",
              "name": "tokenId",
              "type": "uint256"
            },
            {
              "internalType": "bytes32",
              "name": "name",
              "type": "bytes32"
            },
            {
              "internalType": "uint64",
              "name": "getTime",
              "type": "uint64"
            },
            {
              "internalType": "uint64",
              "name": "getWay",
              "type": "uint64"
            },
            {
              "internalType": "uint64",
              "name": "quality",
              "type": "uint64"
            },
            {
              "internalType": "uint64",
              "name": "property",
              "type": "uint64"
            },
            {
              "internalType": "uint64",
              "name": "addition",
              "type": "uint64"
            }
          ],
          "internalType": "struct RichTitle.TitleDetail[]",
          "name": "",
          "type": "tuple[]"
        }
      ],
      "stateMutability": "view",
      "type": "function",
      "constant": true
    },
    {
      "inputs": [
        {
          "internalType": "uint256",
          "name": "tokenId",
          "type": "uint256"
        }
      ],
      "name": "wear",
      "outputs": [],
      "stateMutability": "nonpayable",
      "type": "function"
    },
    {
      "inputs": [],
      "name": "detach",
      "outputs": [],
      "stateMutability": "nonpayable",
      "type": "function"
    },
    {
      "inputs": [
        {
          "internalType": "bytes4",
          "name": "interfaceId",
          "type": "bytes4"
        }
      ],
      "name": "supportsInterface",
      "outputs": [
        {
          "internalType": "bool",
          "name": "",
          "type": "bool"
        }
      ],
      "stateMutability": "view",
      "type": "function",
      "constant": true
    }
  ],
  "bytecode": "0x60806040523480156200001157600080fd5b5060408051808201909152600a81526952696368205469746c6560b01b60208201526200003e8162000052565b506200004c6000336200006b565b620001f2565b8051620000679060029060208401906200010f565b5050565b60008281526003602090815260408083206001600160a01b038516845290915290205460ff16620000675760008281526003602090815260408083206001600160a01b03851684529091529020805460ff19166001179055620000cb3390565b6001600160a01b0316816001600160a01b0316837f2f8788117e7eff1d82e926ec794901d17c78024a50270940304540a733656f0d60405160405180910390a45050565b8280546200011d90620001b5565b90600052602060002090601f0160209004810192826200014157600085556200018c565b82601f106200015c57805160ff19168380011785556200018c565b828001600101855582156200018c579182015b828111156200018c5782518255916020019190600101906200016f565b506200019a9291506200019e565b5090565b5b808211156200019a57600081556001016200019f565b600181811c90821680620001ca57607f821691505b60208210811415620001ec57634e487b7160e01b600052602260045260246000fd5b50919050565b6125d480620002026000396000f3fe608060405234801561001057600080fd5b50600436106101a85760003560e01c80639a552a29116100f9578063d4db722e11610097578063e9a9c85011610071578063e9a9c85014610479578063f1c19a22146104a0578063f242432a146104b3578063fc157cb4146104c657600080fd5b8063d4db722e14610384578063d547741f1461042a578063e985e9c51461043d57600080fd5b8063a22cb465116100d3578063a22cb4651461031b578063a33c3ecf1461032e578063a99d8d2414610341578063bc241fb71461036157600080fd5b80639a552a29146102ea5780639d866357146102f3578063a217fddf1461031357600080fd5b80632f2ff15d116101665780633af4519f116101405780633af4519f1461029157806340c10f19146102a45780634e1273f4146102b757806391d14854146102d757600080fd5b80632f2ff15d1461025657806336568abe14610269578063379560391461027c57600080fd5b8062fdd58e146101ad57806301ffc9a7146101d35780630e89341c146101f6578063225435c014610216578063248a9ca3146102205780632eb2c2d614610243575b600080fd5b6101c06101bb366004611b7f565b6104d5565b6040519081526020015b60405180910390f35b6101e66101e1366004611bbf565b61056f565b60405190151581526020016101ca565b610209610204366004611bdc565b61057a565b6040516101ca9190611c51565b61021e61060e565b005b6101c061022e366004611bdc565b60009081526003602052604090206001015490565b61021e610251366004611dad565b610650565b61021e610264366004611e56565b6106e7565b61021e610277366004611e56565b610712565b610284610790565b6040516101ca9190611edb565b61021e61029f366004611bdc565b6108a7565b61021e6102b2366004611b7f565b61092f565b6102ca6102c5366004611f29565b6109e2565b6040516101ca919061202e565b6101e66102e5366004611e56565b610b0b565b6101c060045481565b610306610301366004612041565b610b36565b6040516101ca919061205c565b6101c0600081565b61021e61032936600461206a565b610bf2565b61028461033c366004612041565b610bfd565b6101c061034f366004612041565b60066020526000908152604090205481565b6101e661036f366004612041565b60076020526000908152604090205460ff1681565b6103e5610392366004611bdc565b6005602052600090815260409020805460018201546002830154600390930154919290916001600160401b0380831692600160401b8104821692600160801b8204831692600160c01b9092048216911687565b6040805197885260208801969096526001600160401b0394851695870195909552918316606086015282166080850152811660a08401521660c082015260e0016101ca565b61021e610438366004611e56565b610ddf565b6101e661044b3660046120a6565b6001600160a01b03918216600090815260016020908152604080832093909416825291909152205460ff1690565b6101c07ffdf81848136595c31bb5f76217767372bc4bf906663038eb38381131ea27ecba81565b6101c06104ae3660046120d0565b610e05565b61021e6104c136600461218b565b610fd8565b6101c0670de0b6b3a764000081565b60006001600160a01b0383166105465760405162461bcd60e51b815260206004820152602b60248201527f455243313135353a2062616c616e636520717565727920666f7220746865207a60448201526a65726f206164647265737360a81b60648201526084015b60405180910390fd5b506000818152602081815260408083206001600160a01b03861684529091529020545b92915050565b60006105698261105f565b606060028054610589906121ef565b80601f01602080910402602001604051908101604052809291908181526020018280546105b5906121ef565b80156106025780601f106105d757610100808354040283529160200191610602565b820191906000526020600020905b8154815290600101906020018083116105e557829003601f168201915b50505050509050919050565b3360009081526007602052604090205460ff1661062a57600080fd5b33600090815260066020908152604080832083905560079091529020805460ff19169055565b6001600160a01b03851633148061066c575061066c853361044b565b6106d35760405162461bcd60e51b815260206004820152603260248201527f455243313135353a207472616e736665722063616c6c6572206973206e6f74206044820152711bdddb995c881b9bdc88185c1c1c9bdd995960721b606482015260840161053d565b6106e08585858585611084565b5050505050565b6000828152600360205260409020600101546107038133611261565b61070d83836112c5565b505050565b6001600160a01b03811633146107825760405162461bcd60e51b815260206004820152602f60248201527f416363657373436f6e74726f6c3a2063616e206f6e6c792072656e6f756e636560448201526e103937b632b9903337b91039b2b63360891b606482015260840161053d565b61078c828261134b565b5050565b6004546060906000816001600160401b038111156107b0576107b0611c64565b6040519080825280602002602001820160405280156107e957816020015b6107d6611b2c565b8152602001906001900390816107ce5790505b50905060005b828110156108a057600081815260056020908152604091829020825160e0810184528154815260018201549281019290925260028101546001600160401b0380821694840194909452600160401b810484166060840152600160801b810484166080840152600160c01b9004831660a08301526003015490911660c082015282518390839081106108825761088261222a565b6020026020010181905250808061089890612256565b9150506107ef565b5092915050565b60006108b333836104d5565b116108ed5760405162461bcd60e51b815260206004820152600a60248201526927b7363c9027bbb732b960b11b604482015260640161053d565b336000908152600660209081526040808320849055600790915290205460ff1661092c57336000908152600760205260409020805460ff191660011790555b50565b7ffdf81848136595c31bb5f76217767372bc4bf906663038eb38381131ea27ecba61095a8133611261565b600454821061096857600080fd5b61098483836001604051806020016040528060008152506113b2565b600082815260056020908152604091829020600101548251858152918201526001600160a01b0385168183015290517ff7bbc48ea43bfec7784d3ed4533e4bd9b4710cc942bd3acf7d4bbc7d23ca89ca9181900360600190a1505050565b60608151835114610a475760405162461bcd60e51b815260206004820152602960248201527f455243313135353a206163636f756e747320616e6420696473206c656e677468604482015268040dad2e6dac2e8c6d60bb1b606482015260840161053d565b600083516001600160401b03811115610a6257610a62611c64565b604051908082528060200260200182016040528015610a8b578160200160208202803683370190505b50905060005b8451811015610b0357610ad6858281518110610aaf57610aaf61222a565b6020026020010151858381518110610ac957610ac961222a565b60200260200101516104d5565b828281518110610ae857610ae861222a565b6020908102919091010152610afc81612256565b9050610a91565b509392505050565b60009182526003602090815260408084206001600160a01b0393909316845291905290205460ff1690565b610b3e611b2c565b6001600160a01b03821660009081526007602052604090205460ff1615610bed57506001600160a01b031660009081526006602090815260408083205483526005825291829020825160e0810184528154815260018201549281019290925260028101546001600160401b0380821694840194909452600160401b810484166060840152600160801b810484166080840152600160c01b9004831660a08301526003015490911660c082015290565b919050565b61078c3383836114bc565b6004546060906000816001600160401b03811115610c1d57610c1d611c64565b604051908082528060200260200182016040528015610c5657816020015b610c43611b2c565b815260200190600190039081610c3b5790505b5090506000805b83811015610d29576000610c7187836104d5565b1115610d1757600081815260056020908152604091829020825160e0810184528154815260018201549281019290925260028101546001600160401b0380821694840194909452600160401b810484166060840152600160801b810484166080840152600160c01b9004831660a08301526003015490911660c08201528383610cf981612256565b945081518110610d0b57610d0b61222a565b60200260200101819052505b80610d2181612256565b915050610c5d565b506000816001600160401b03811115610d4457610d44611c64565b604051908082528060200260200182016040528015610d7d57816020015b610d6a611b2c565b815260200190600190039081610d625790505b50905060005b82811015610dd557838181518110610d9d57610d9d61222a565b6020026020010151828281518110610db757610db761222a565b60200260200101819052508080610dcd90612256565b915050610d83565b5095945050505050565b600082815260036020526040902060010154610dfb8133611261565b61070d838361134b565b60007ffdf81848136595c31bb5f76217767372bc4bf906663038eb38381131ea27ecba610e328133611261565b6004805460009182610e4383612256565b9190505590506040518060e00160405280828152602001868152602001426001600160401b0316815260200185600081518110610e8257610e8261222a565b60200260200101516001600160401b0316815260200185600181518110610eab57610eab61222a565b60200260200101516001600160401b0316815260200185600281518110610ed457610ed461222a565b60200260200101516001600160401b0316815260200185600381518110610efd57610efd61222a565b6020908102919091018101516001600160401b03908116909252600084815260058252604090819020845181559184015160018301558301516002820180546060860151608087015160a08801519487166fffffffffffffffffffffffffffffffff1990931692909217600160401b91871691909102176fffffffffffffffffffffffffffffffff16600160801b918616919091026001600160c01b031617600160c01b9285169290920291909117905560c0909201516003909201805467ffffffffffffffff191692909116919091179055949350505050565b6001600160a01b038516331480610ff45750610ff4853361044b565b6110525760405162461bcd60e51b815260206004820152602960248201527f455243313135353a2063616c6c6572206973206e6f74206f776e6572206e6f7260448201526808185c1c1c9bdd995960ba1b606482015260840161053d565b6106e0858585858561159d565b60006001600160e01b03198216637965db0b60e01b14806105695750610569826116ba565b81518351146110e65760405162461bcd60e51b815260206004820152602860248201527f455243313135353a2069647320616e6420616d6f756e7473206c656e677468206044820152670dad2e6dac2e8c6d60c31b606482015260840161053d565b6001600160a01b03841661110c5760405162461bcd60e51b815260040161053d90612271565b3360005b84518110156111f357600085828151811061112d5761112d61222a565b60200260200101519050600085838151811061114b5761114b61222a565b602090810291909101810151600084815280835260408082206001600160a01b038e16835290935291909120549091508181101561119b5760405162461bcd60e51b815260040161053d906122b6565b6000838152602081815260408083206001600160a01b038e8116855292528083208585039055908b168252812080548492906111d8908490612300565b92505081905550505050806111ec90612256565b9050611110565b50846001600160a01b0316866001600160a01b0316826001600160a01b03167f4a39dc06d4c0dbc64b70af90fd698a233a518aa5d07e595d983b8c0526c8f7fb8787604051611243929190612318565b60405180910390a461125981878787878761170a565b505050505050565b61126b8282610b0b565b61078c57611283816001600160a01b03166014611875565b61128e836020611875565b60405160200161129f929190612346565b60408051601f198184030181529082905262461bcd60e51b825261053d91600401611c51565b6112cf8282610b0b565b61078c5760008281526003602090815260408083206001600160a01b03851684529091529020805460ff191660011790556113073390565b6001600160a01b0316816001600160a01b0316837f2f8788117e7eff1d82e926ec794901d17c78024a50270940304540a733656f0d60405160405180910390a45050565b6113558282610b0b565b1561078c5760008281526003602090815260408083206001600160a01b0385168085529252808320805460ff1916905551339285917ff6391f5c32d9c69d2a47ea670b442974b53935d1edc7fd64eb21e047a839171b9190a45050565b6001600160a01b0384166114125760405162461bcd60e51b815260206004820152602160248201527f455243313135353a206d696e7420746f20746865207a65726f206164647265736044820152607360f81b606482015260840161053d565b3361142c8160008761142388611a17565b6106e088611a17565b6000848152602081815260408083206001600160a01b03891684529091528120805485929061145c908490612300565b909155505060408051858152602081018590526001600160a01b0380881692600092918516917fc3d58168c5ae7397731d063d5bbf3d657854427343f4c083240f7aacaa2d0f62910160405180910390a46106e081600087878787611a62565b816001600160a01b0316836001600160a01b031614156115305760405162461bcd60e51b815260206004820152602960248201527f455243313135353a2073657474696e6720617070726f76616c20737461747573604482015268103337b91039b2b63360b91b606482015260840161053d565b6001600160a01b03838116600081815260016020908152604080832094871680845294825291829020805460ff191686151590811790915591519182527f17307eab39ab6107e8899845ad3d59bd9653f200f220920489ca2b5937696c31910160405180910390a3505050565b6001600160a01b0384166115c35760405162461bcd60e51b815260040161053d90612271565b336115d381878761142388611a17565b6000848152602081815260408083206001600160a01b038a168452909152902054838110156116145760405162461bcd60e51b815260040161053d906122b6565b6000858152602081815260408083206001600160a01b038b8116855292528083208785039055908816825281208054869290611651908490612300565b909155505060408051868152602081018690526001600160a01b03808916928a821692918616917fc3d58168c5ae7397731d063d5bbf3d657854427343f4c083240f7aacaa2d0f62910160405180910390a46116b1828888888888611a62565b50505050505050565b60006001600160e01b03198216636cdb3d1360e11b14806116eb57506001600160e01b031982166303a24d0760e21b145b8061056957506301ffc9a760e01b6001600160e01b0319831614610569565b6001600160a01b0384163b156112595760405163bc197c8160e01b81526001600160a01b0385169063bc197c819061174e90899089908890889088906004016123bb565b602060405180830381600087803b15801561176857600080fd5b505af1925050508015611798575060408051601f3d908101601f1916820190925261179591810190612419565b60015b611845576117a4612436565b806308c379a014156117de57506117b9612452565b806117c457506117e0565b8060405162461bcd60e51b815260040161053d9190611c51565b505b60405162461bcd60e51b815260206004820152603460248201527f455243313135353a207472616e7366657220746f206e6f6e20455243313135356044820152732932b1b2b4bb32b91034b6b83632b6b2b73a32b960611b606482015260840161053d565b6001600160e01b0319811663bc197c8160e01b146116b15760405162461bcd60e51b815260040161053d906124db565b60606000611884836002612523565b61188f906002612300565b6001600160401b038111156118a6576118a6611c64565b6040519080825280601f01601f1916602001820160405280156118d0576020820181803683370190505b509050600360fc1b816000815181106118eb576118eb61222a565b60200101906001600160f81b031916908160001a905350600f60fb1b8160018151811061191a5761191a61222a565b60200101906001600160f81b031916908160001a905350600061193e846002612523565b611949906001612300565b90505b60018111156119c1576f181899199a1a9b1b9c1cb0b131b232b360811b85600f166010811061197d5761197d61222a565b1a60f81b8282815181106119935761199361222a565b60200101906001600160f81b031916908160001a90535060049490941c936119ba81612542565b905061194c565b508315611a105760405162461bcd60e51b815260206004820181905260248201527f537472696e67733a20686578206c656e67746820696e73756666696369656e74604482015260640161053d565b9392505050565b60408051600180825281830190925260609160009190602080830190803683370190505090508281600081518110611a5157611a5161222a565b602090810291909101015292915050565b6001600160a01b0384163b156112595760405163f23a6e6160e01b81526001600160a01b0385169063f23a6e6190611aa69089908990889088908890600401612559565b602060405180830381600087803b158015611ac057600080fd5b505af1925050508015611af0575060408051601f3d908101601f19168201909252611aed91810190612419565b60015b611afc576117a4612436565b6001600160e01b0319811663f23a6e6160e01b146116b15760405162461bcd60e51b815260040161053d906124db565b6040805160e081018252600080825260208201819052918101829052606081018290526080810182905260a0810182905260c081019190915290565b80356001600160a01b0381168114610bed57600080fd5b60008060408385031215611b9257600080fd5b611b9b83611b68565b946020939093013593505050565b6001600160e01b03198116811461092c57600080fd5b600060208284031215611bd157600080fd5b8135611a1081611ba9565b600060208284031215611bee57600080fd5b5035919050565b60005b83811015611c10578181015183820152602001611bf8565b83811115611c1f576000848401525b50505050565b60008151808452611c3d816020860160208601611bf5565b601f01601f19169290920160200192915050565b602081526000611a106020830184611c25565b634e487b7160e01b600052604160045260246000fd5b601f8201601f191681016001600160401b0381118282101715611c9f57611c9f611c64565b6040525050565b60006001600160401b03821115611cbf57611cbf611c64565b5060051b60200190565b600082601f830112611cda57600080fd5b81356020611ce782611ca6565b604051611cf48282611c7a565b83815260059390931b8501820192828101915086841115611d1457600080fd5b8286015b84811015611d2f5780358352918301918301611d18565b509695505050505050565b600082601f830112611d4b57600080fd5b81356001600160401b03811115611d6457611d64611c64565b604051611d7b601f8301601f191660200182611c7a565b818152846020838601011115611d9057600080fd5b816020850160208301376000918101602001919091529392505050565b600080600080600060a08688031215611dc557600080fd5b611dce86611b68565b9450611ddc60208701611b68565b935060408601356001600160401b0380821115611df857600080fd5b611e0489838a01611cc9565b94506060880135915080821115611e1a57600080fd5b611e2689838a01611cc9565b93506080880135915080821115611e3c57600080fd5b50611e4988828901611d3a565b9150509295509295909350565b60008060408385031215611e6957600080fd5b82359150611e7960208401611b68565b90509250929050565b805182526020810151602083015260408101516001600160401b0380821660408501528060608401511660608501528060808401511660808501528060a08401511660a08501528060c08401511660c085015250505050565b6020808252825182820181905260009190848201906040850190845b81811015611f1d57611f0a838551611e82565b9284019260e09290920191600101611ef7565b50909695505050505050565b60008060408385031215611f3c57600080fd5b82356001600160401b0380821115611f5357600080fd5b818501915085601f830112611f6757600080fd5b81356020611f7482611ca6565b604051611f818282611c7a565b83815260059390931b8501820192828101915089841115611fa157600080fd5b948201945b83861015611fc657611fb786611b68565b82529482019490820190611fa6565b96505086013592505080821115611fdc57600080fd5b50611fe985828601611cc9565b9150509250929050565b600081518084526020808501945080840160005b8381101561202357815187529582019590820190600101612007565b509495945050505050565b602081526000611a106020830184611ff3565b60006020828403121561205357600080fd5b611a1082611b68565b60e081016105698284611e82565b6000806040838503121561207d57600080fd5b61208683611b68565b91506020830135801515811461209b57600080fd5b809150509250929050565b600080604083850312156120b957600080fd5b6120c283611b68565b9150611e7960208401611b68565b600080604083850312156120e357600080fd5b823591506020808401356001600160401b038082111561210257600080fd5b818601915086601f83011261211657600080fd5b813561212181611ca6565b60405161212e8282611c7a565b82815260059290921b840185019185810191508983111561214e57600080fd5b938501935b8285101561217b578435848116811461216c5760008081fd5b82529385019390850190612153565b8096505050505050509250929050565b600080600080600060a086880312156121a357600080fd5b6121ac86611b68565b94506121ba60208701611b68565b9350604086013592506060860135915060808601356001600160401b038111156121e357600080fd5b611e4988828901611d3a565b600181811c9082168061220357607f821691505b6020821081141561222457634e487b7160e01b600052602260045260246000fd5b50919050565b634e487b7160e01b600052603260045260246000fd5b634e487b7160e01b600052601160045260246000fd5b600060001982141561226a5761226a612240565b5060010190565b60208082526025908201527f455243313135353a207472616e7366657220746f20746865207a65726f206164604082015264647265737360d81b606082015260800190565b6020808252602a908201527f455243313135353a20696e73756666696369656e742062616c616e636520666f60408201526939103a3930b739b332b960b11b606082015260800190565b6000821982111561231357612313612240565b500190565b60408152600061232b6040830185611ff3565b828103602084015261233d8185611ff3565b95945050505050565b7f416363657373436f6e74726f6c3a206163636f756e742000000000000000000081526000835161237e816017850160208801611bf5565b7001034b99036b4b9b9b4b733903937b6329607d1b60179184019182015283516123af816028840160208801611bf5565b01602801949350505050565b6001600160a01b0386811682528516602082015260a0604082018190526000906123e790830186611ff3565b82810360608401526123f98186611ff3565b9050828103608084015261240d8185611c25565b98975050505050505050565b60006020828403121561242b57600080fd5b8151611a1081611ba9565b600060033d111561244f5760046000803e5060005160e01c5b90565b600060443d10156124605790565b6040516003193d81016004833e81513d6001600160401b03816024840111818411171561248f57505050505090565b82850191508151818111156124a75750505050505090565b843d87010160208285010111156124c15750505050505090565b6124d060208286010187611c7a565b509095945050505050565b60208082526028908201527f455243313135353a204552433131353552656365697665722072656a656374656040820152676420746f6b656e7360c01b606082015260800190565b600081600019048311821515161561253d5761253d612240565b500290565b60008161255157612551612240565b506000190190565b6001600160a01b03868116825285166020820152604081018490526060810183905260a06080820181905260009061259390830184611c25565b97965050505050505056fea2646970667358221220a5dece5571d94cb3c652c8de14aa171d55065fc9f404fd4fa08b3ab9cbab6b6564736f6c63430008090033",
  "immutableReferences": {},
  "source": "// SPDX-License-Identifier: SimPL-2.0\n\npragma solidity ^0.8.0;\npragma experimental ABIEncoderV2;\n\nimport \"@openzeppelin/contracts/token/ERC1155/ERC1155.sol\";\nimport \"@openzeppelin/contracts/access/AccessControl.sol\";\n\nimport \"@openzeppelin/contracts/utils/Address.sol\";\nimport \"@openzeppelin/contracts/utils/math/SafeMath.sol\";\n\n/**\n* @title Rich Title - Romance of the Three Kingdoms Title NFT\n*\n*\n* Docs: \n*\n* Version v1.1.0\n*\n*/\n\ncontract RichTitle is ERC1155, AccessControl {\n    using SafeMath for uint256;\n\n    bytes32 public constant MINT_ROLE = keccak256(\"MINT\");\n\n    uint256 public constant PCT_BASE = 1e18;\n\n    struct TitleDetail {\n        uint256 tokenId; //  ID\n        bytes32 name; // \n        uint64 getTime; // \n        uint64 getWay; // 0:PVE \n        uint64 quality; //  0: 1: 2: 3:\n        uint64 property; // 0: 1: 2: 3: 4:\n        uint64 addition; // \n    }\n\n    uint256 public tokenListLength;\n\n    mapping (uint256 => TitleDetail) public _titles;\n    mapping (address => uint256) public _wears;\n    mapping (address => bool) public _isWears;\n\n    event NewTitle(uint256 tokenId, bytes32 name, address owner);\n\n    constructor() ERC1155 (\"Rich Title\") {\n        _grantRole(DEFAULT_ADMIN_ROLE, msg.sender);\n    }\n\n    function addTitle(bytes32 name, uint64[] memory detail) public onlyRole(MINT_ROLE) returns (uint256) {\n        uint256 tokenId = tokenListLength++;\n        _titles[tokenId] = TitleDetail(\n            tokenId, \n            name,\n            uint64(block.timestamp),\n            detail[0], \n            detail[1],\n            detail[2],\n            detail[3]\n        );\n        return tokenId;\n    }\n\n    function mint(\n        address account, uint256 tokenId\n    ) public onlyRole(MINT_ROLE) {\n        require(tokenId < tokenListLength);\n        _mint(account, tokenId, 1, \"\");\n        emit NewTitle(tokenId, _titles[tokenId].name, account);\n    }\n\n    function getNowTitle(address who) public view returns (TitleDetail memory detail) {\n        if (_isWears[who]) {\n            return _titles[_wears[who]];\n        } \n    }\n\n    function getAllTitles() public view returns (TitleDetail[] memory) {\n        uint256 len = tokenListLength;\n        TitleDetail[] memory list = new TitleDetail[](len);\n        for (uint256 i = 0; i < len; i++) {\n            list[i] = _titles[i];\n        }\n        return list;\n    }\n\n    function titleList(address account) public view returns (TitleDetail[] memory) {\n        uint256 len = tokenListLength;\n        TitleDetail[] memory list = new TitleDetail[](len);\n        uint256 resultLen;\n        for (uint256 i = 0; i < len; i++) {\n            if (balanceOf(account, i) > 0) {\n                list[resultLen++] = _titles[i];\n            }\n        }\n        TitleDetail[] memory result = new TitleDetail[](resultLen);\n        for (uint256 i = 0; i < resultLen; i++) {\n            result[i] = list[i];\n        }\n        return result;\n    }\n\n    function wear(uint256 tokenId) public {\n        require(balanceOf(msg.sender, tokenId) > 0, \"Only Owner\");\n        _wears[msg.sender] = tokenId;\n        if (!_isWears[msg.sender]) {\n            _isWears[msg.sender] = true;\n        }\n    }\n\n    function detach() public {\n        require(_isWears[msg.sender]);\n        _wears[msg.sender] = 0;\n        _isWears[msg.sender] = false;\n    }\n    \n    function supportsInterface(bytes4 interfaceId) public view virtual\n        override(ERC1155, AccessControl) returns (bool) {\n        return super.supportsInterface(interfaceId);\n    }\n}",
  "sourcePath": "/Users/hy/new-rich-contract/contracts/RichTitle.sol",
  "compiler": {
    "name": "solc",
    "version": "0.8.9+commit.e5eed63a.Emscripten.clang"
  },
  "schemaVersion": "3.4.3",
  "updatedAt": "2022-03-09T15:22:08.087Z",
  "networkType": "ethereum",
  "devdoc": {
    "kind": "dev",
    "methods": {
      "balanceOf(address,uint256)": {
        "details": "See {IERC1155-balanceOf}. Requirements: - `account` cannot be the zero address."
      },
      "balanceOfBatch(address[],uint256[])": {
        "details": "See {IERC1155-balanceOfBatch}. Requirements: - `accounts` and `ids` must have the same length."
      },
      "getRoleAdmin(bytes32)": {
        "details": "Returns the admin role that controls `role`. See {grantRole} and {revokeRole}. To change a role's admin, use {_setRoleAdmin}."
      },
      "grantRole(bytes32,address)": {
        "details": "Grants `role` to `account`. If `account` had not been already granted `role`, emits a {RoleGranted} event. Requirements: - the caller must have ``role``'s admin role."
      },
      "hasRole(bytes32,address)": {
        "details": "Returns `true` if `account` has been granted `role`."
      },
      "isApprovedForAll(address,address)": {
        "details": "See {IERC1155-isApprovedForAll}."
      },
      "renounceRole(bytes32,address)": {
        "details": "Revokes `role` from the calling account. Roles are often managed via {grantRole} and {revokeRole}: this function's purpose is to provide a mechanism for accounts to lose their privileges if they are compromised (such as when a trusted device is misplaced). If the calling account had been revoked `role`, emits a {RoleRevoked} event. Requirements: - the caller must be `account`."
      },
      "revokeRole(bytes32,address)": {
        "details": "Revokes `role` from `account`. If `account` had been granted `role`, emits a {RoleRevoked} event. Requirements: - the caller must have ``role``'s admin role."
      },
      "safeBatchTransferFrom(address,address,uint256[],uint256[],bytes)": {
        "details": "See {IERC1155-safeBatchTransferFrom}."
      },
      "safeTransferFrom(address,address,uint256,uint256,bytes)": {
        "details": "See {IERC1155-safeTransferFrom}."
      },
      "setApprovalForAll(address,bool)": {
        "details": "See {IERC1155-setApprovalForAll}."
      },
      "uri(uint256)": {
        "details": "See {IERC1155MetadataURI-uri}. This implementation returns the same URI for *all* token types. It relies on the token type ID substitution mechanism https://eips.ethereum.org/EIPS/eip-1155#metadata[defined in the EIP]. Clients calling this function must replace the `\\{id\\}` substring with the actual token type ID."
      }
    },
    "title": "Rich Title - Romance of the Three Kingdoms Title NFT Docs:  Version v1.1.0",
    "version": 1
  },
  "userdoc": {
    "kind": "user",
    "methods": {},
    "notice": "",
    "version": 1
  }
}