{
  "data": {
    "bytecode": {
      "linkReferences": {},
      "object": "600060025560e060405260076080908152600e60a052601e60c0526200002a906008906003620001cd565b5060408051606081018252600181526003602082018190526005928201929092526200005a9160099190620001cd565b506000600a5560408051606081018252600681526003602082018190526001928201929092526200008f916010919062000286565b5060408051606081018252601e8152600f6020820152600591810191909152620000be90601190600362000286565b50348015620000cc57600080fd5b506040516200260538038062002605833981016040819052620000ef91620002f9565b620000fa336200017d565b600e80546001600160a01b038088166001600160a01b03199283161790925560018054868416908316179055600f8054928716929091169190911790556003829055600b81905562000150816276a7006200035e565b600c5550506040805180820190915243808252600060209092018290526004556005555062000385915050565b600080546001600160a01b038381166001600160a01b0319831681178455604051919092169283917f8be0079c531659141344cd1fd0a4f28419497f9722a3daafe3b4186f6b6457e09190a35050565b82805482825590600052602060002090600301600490048101928215620002745791602002820160005b838211156200023d57835183826101000a8154816001600160401b03021916908360ff1602179055509260200192600801602081600701049283019260010302620001f7565b8015620002725782816101000a8154906001600160401b0302191690556008016020816007010492830192600103026200023d565b505b5062000282929150620002c9565b5090565b82805482825590600052602060002090810192821562000274579160200282015b8281111562000274578251829060ff16905591602001919060010190620002a7565b5b80821115620002825760008155600101620002ca565b6001600160a01b0381168114620002f657600080fd5b50565b600080600080600060a086880312156200031257600080fd5b85516200031f81620002e0565b60208701519095506200033281620002e0565b60408701519094506200034581620002e0565b6060870151608090970151959894975095949392505050565b600082198211156200038057634e487b7160e01b600052601160045260246000fd5b500190565b61227080620003956000396000f3fe608060405234801561001057600080fd5b50600436106101c45760003560e01c80636917c501116100f95780639f608da311610097578063c91b46c611610071578063c91b46c61461048c578063d4796ef214610494578063e3161ddd146104a7578063f2fde38b146104af57600080fd5b80639f608da314610411578063acff05b014610424578063b2520a7c1461043757600080fd5b8063785e9e86116100d3578063785e9e86146103d15780637f513d5d146103e45780638ae39cac146103f75780638da5cb5b1461040057600080fd5b80636917c501146103ad5780636ff1c9bc146103b6578063715018a6146103c957600080fd5b806347646b9e116101665780635c76ca2d116101405780635c76ca2d1461035e5780635eebea201461036757806360343cae1461037a5780636386c1c71461038d57600080fd5b806347646b9e1461030757806348cd4cb1146103325780635a2f3d091461033b57600080fd5b806317caf6f1116101a257806317caf6f11461020d5780631959a002146102165780633bddf74e146102f75780633f90916a146102ff57600080fd5b8063083c6323146101c95780630af72c69146101e557806310b43acf146101fa575b600080fd5b6101d2600c5481565b6040519081526020015b60405180910390f35b6101f86101f3366004611ce1565b6104c2565b005b6101d2610208366004611d99565b610916565b6101d2600a5481565b610291610224366004611dc7565b60066020819052600091825260409091208054600182015460028301546003840154600485015495850154600786015460088701546009880154600a890154600b8a0154600c909a0154989a979996989597969495939492939192909160ff80831692610100900416908d565b604080519d8e5260208e019c909c529a8c019990995260608b019790975260808a019590955260a089019390935260c088019190915260e0870152610100860152610120850152151561014084015215156101608301526101808201526101a0016101dc565b6101f8610937565b6101d2610b73565b600f5461031a906001600160a01b031681565b6040516001600160a01b0390911681526020016101dc565b6101d2600b5481565b600454600554610349919082565b604080519283526020830191909152016101dc565b6101d260025481565b6101d2610375366004611dc7565b610bc9565b6101d2610388366004611d99565b610c9f565b6103a061039b366004611dc7565b610caf565b6040516101dc9190611e26565b6101d2600d5481565b6101f86103c4366004611dc7565b610e2c565b6101f8610f70565b60015461031a906001600160a01b031681565b600e5461031a906001600160a01b031681565b6101d260035481565b6000546001600160a01b031661031a565b6101f861041f366004611f03565b610fa6565b6101f8610432366004611d99565b6112c9565b610471610445366004611f20565b600760209081526000928352604080842090915290825290208054600182015460029092015490919083565b604080519384526020840192909252908201526060016101dc565b6101f861155a565b6101d26104a2366004611d99565b61195d565b6101f86119bf565b6101f86104bd366004611dc7565b611a45565b336000908152600660205260409020600b81015460049190610100900460ff16156104ec57600080fd5b600b81015460ff16156105a85780600801548360ff161461050c57600080fd5b42600882600801548154811061052457610524611f4c565b90600052602060002090600491828204019190066008029054906101000a900467ffffffffffffffff1667ffffffffffffffff1682600601546105679190611f78565b106105a35760405162461bcd60e51b8152602060048201526007602482015266115e1c1a5c995960ca1b60448201526064015b60405180910390fd5b610635565b60038360ff16106105b857600080fd5b600b8101805460ff1916600117905560ff83166008808301829055426006840155805490919081106105ec576105ec611f4c565b90600052602060002090600491828204019190066008029054906101000a900467ffffffffffffffff1667ffffffffffffffff16816006015461062f9190611f78565b60078201555b60008060005b86518110156107af57600e5487516000916001600160a01b0316906321d80111908a908590811061066e5761066e611f4c565b60200260200101516040518263ffffffff1660e01b815260040161069491815260200190565b6102206040518083038186803b1580156106ad57600080fd5b505afa1580156106c1573d6000803e3d6000fd5b505050506040513d601f19601f820116820180604052508101906106e59190612028565b9050806101600151846106f89190611f78565b600e5489519195506001600160a01b0316906323b872dd90339030908c908790811061072657610726611f4c565b60200260200101516040518463ffffffff1660e01b815260040161074c9392919061211b565b600060405180830381600087803b15801561076657600080fd5b505af115801561077a573d6000803e3d6000fd5b50505050806060015160ff166004141561079c57826107988161213f565b9350505b50806107a78161213f565b91505061063b565b50818360010160008282546107c49190611f78565b90915550508254819084906000906107dd908490611f78565b909155505082546000906064906107f590600a61215a565b610800906064611f78565b856001015461080f919061215a565b6108199190612179565b60028501819055905061082a6119bf565b80600d600082825461083c9190611f78565b90915550506002840154156108a657600084600301546a0c097ce7bc90715b34b9f160241b87600101548760020154610875919061215a565b61087f9190612179565b610889919061219b565b90508085600901600082825461089f9190611f78565b9091555050505b6a0c097ce7bc90715b34b9f160241b856001015485600201546108c9919061215a565b6108d39190612179565b600385015560405183815233907fe1fffcc4923d04b559f4d29a8bfc6cda04eb5b0d3c460751c2402c5c5cc9109c9060200160405180910390a250505050505050565b6011818154811061092657600080fd5b600091825260209091200154905081565b336000908152600660205260409020600b8101546004919060ff1661095b57600080fd5b60018101546109719066038d7ea4c6800061215a565b81600401541061098057600080fd5b600180546004830154918301546001600160a01b03909116916323b872dd91339130916109b49066038d7ea4c6800061215a565b6109be919061219b565b6040518463ffffffff1660e01b81526004016109dc9392919061211b565b602060405180830381600087803b1580156109f657600080fd5b505af1158015610a0a573d6000803e3d6000fd5b505050506040513d601f19601f82011682018060405250810190610a2e91906121b2565b50610a376119bf565b8054600090606490610a4a90600a61215a565b610a55906064611f78565b610a6090600a611f78565b8360010154610a6f919061215a565b610a799190612179565b600283015490915015610ae157600082600301546a0c097ce7bc90715b34b9f160241b85600101548560020154610ab0919061215a565b610aba9190612179565b610ac4919061219b565b905080836009016000828254610ada9190611f78565b9091555050505b6a0c097ce7bc90715b34b9f160241b83600101548360020154610b04919061215a565b610b0e9190612179565b60038301556002820154600d8054600090610b2a90849061219b565b909155505060028201819055600d8054829190600090610b4b908490611f78565b90915550506001820154610b669066038d7ea4c6800061215a565b8260040181905550505050565b6000600b544311610b845750600090565b6000600c544310610b9757600c54610b99565b435b9050600254600b5482610bac919061219b565b600354610bb9919061215a565b610bc3919061219b565b91505090565b6001600160a01b0381166000908152600660205260408120600554600480549092919043118015610bfb5750600d5415155b15610c5e576000600c544310610c1357600c54610c15565b435b90506000610c27856000015483611ae0565b600d54909150610c45826a0c097ce7bc90715b34b9f160241b61215a565b610c4f9190612179565b610c599084611f78565b925050505b81600301546a0c097ce7bc90715b34b9f160241b828460020154610c82919061215a565b610c8c9190612179565b610c96919061219b565b95945050505050565b6010818154811061092657600080fd5b610d25604051806101c001604052806000815260200160008152602001600081526020016000815260200160008152602001606081526020016000815260200160008152602001600081526020016000815260200160008152602001600015158152602001600015158152602001600081525090565b6001600160a01b03821660009081526006602090815260409182902082516101c0810184528154815260018201548184015260028201548185015260038201546060820152600482015460808201526005820180548551818602810186019096528086529194929360a08601939290830182828015610dc357602002820191906000526020600020905b815481526020019060010190808311610daf575b505050918352505060068201546020820152600782015460408201526008820154606082015260098201546080820152600a82015460a0820152600b82015460ff808216151560c08401526101009182900416151560e0830152600c9092015491015292915050565b6000546001600160a01b03163314610e565760405162461bcd60e51b815260040161059a906121cf565b806001600160a01b031663a9059cbb610e776000546001600160a01b031690565b6040516370a0823160e01b81523060048201526001600160a01b038516906370a082319060240160206040518083038186803b158015610eb657600080fd5b505afa158015610eca573d6000803e3d6000fd5b505050506040513d601f19601f82011682018060405250810190610eee9190612204565b6040516001600160e01b031960e085901b1681526001600160a01b0390921660048301526024820152604401602060405180830381600087803b158015610f3457600080fd5b505af1158015610f48573d6000803e3d6000fd5b505050506040513d601f19601f82011682018060405250810190610f6c91906121b2565b5050565b6000546001600160a01b03163314610f9a5760405162461bcd60e51b815260040161059a906121cf565b610fa46000611aff565b565b336000908152600660205260409020600b810154610100900460ff16610fcb57600080fd5b600b8101805461ff0019169055816112265761101c3360648084600c01548560090154610ff8919061215a565b6110029190612179565b61100d90605061215a565b6110179190612179565b611b4f565b3360005b600f60009054906101000a90046001600160a01b03166001600160a01b031663f842d40b6040518163ffffffff1660e01b815260040160206040518083038186803b15801561106e57600080fd5b505afa158015611082573d6000803e3d6000fd5b505050506040513d601f19601f820116820180604052508101906110a69190612204565b81101561121f57600f54604051631b43f31160e31b81526001600160a01b0384811660048301529091169063da1f98889060240160206040518083038186803b1580156110f257600080fd5b505afa158015611106573d6000803e3d6000fd5b505050506040513d601f19601f8201168201806040525081019061112a919061221d565b91506001600160a01b038216156112085760006010828154811061115057611150611f4c565b9060005260206000200154905060006103e882606487600c01548860090154611179919061215a565b6111839190612179565b61118d919061215a565b6111979190612179565b90506111a38482611b4f565b7f061f9efc09a7e2bff53abe4fcf2714bb516b14ce6b8893742cc587de5cd8807933856111d1866001611f78565b604080516001600160a01b039485168152939092166020840152908201526060810183905260800160405180910390a1505061120d565b61121f565b806112178161213f565b915050611020565b50506112b7565b336000908152600760209081526040808320600a85015484529091529020429055600c81015460098201546064918291611260919061215a565b61126a9190612179565b61127590607361215a565b61127f9190612179565b336000908152600760209081526040808320600a8601805485529252822060010192909255815491906112b18361213f565b91905055505b60006009820181905560039091015550565b336000908152600760209081526040808320848452909152902060018101546112f157600080fd5b6001810154815460009162278d009161130a904261219b565b611314919061215a565b61131e9190612179565b90508160010154811115611333575060018101545b6000826002015482611345919061219b565b905061135833606461100d84605f61215a565b8083600201600082825461136c9190611f78565b9091555033905060005b600f60009054906101000a90046001600160a01b03166001600160a01b031663f842d40b6040518163ffffffff1660e01b815260040160206040518083038186803b1580156113c457600080fd5b505afa1580156113d8573d6000803e3d6000fd5b505050506040513d601f19601f820116820180604052508101906113fc9190612204565b81101561155257600f54604051631b43f31160e31b81526001600160a01b0384811660048301529091169063da1f98889060240160206040518083038186803b15801561144857600080fd5b505afa15801561145c573d6000803e3d6000fd5b505050506040513d601f19601f82011682018060405250810190611480919061221d565b91506001600160a01b0382161561153b576000601182815481106114a6576114a6611f4c565b600091825260208220015491506103e86114c0838761215a565b6114ca9190612179565b90506114d68482611b4f565b7f061f9efc09a7e2bff53abe4fcf2714bb516b14ce6b8893742cc587de5cd880793385611504866001611f78565b604080516001600160a01b039485168152939092166020840152908201526060810183905260800160405180910390a15050611540565b611552565b8061154a8161213f565b915050611376565b505050505050565b336000908152600660205260409020600b8101546004919060ff166115d45760405162461bcd60e51b815260206004820152602a60248201527f77697468647261773a2063616e2774207769746864726177206d6f7265207468604482015269185b8819195c1bdcda5d60b21b606482015260840161059a565b6115dc6119bf565b8060020154600d60008282546115f2919061219b565b92505081905550600081600301546a0c097ce7bc90715b34b9f160241b84600101548460020154611623919061215a565b61162d9190612179565b611637919061219b565b90508082600901600082825461164d9190611f78565b9091555050600183015460028301546a0c097ce7bc90715b34b9f160241b916116759161215a565b61167f9190612179565b600383015560005b600583015481101561173157600e546005840180546001600160a01b03909216916323b872dd913091339190869081106116c3576116c3611f4c565b90600052602060002001546040518463ffffffff1660e01b81526004016116ec9392919061211b565b600060405180830381600087803b15801561170657600080fd5b505af115801561171a573d6000803e3d6000fd5b5050505080806117299061213f565b915050611687565b5081600701544210611749576064600c830155611887565b60006201518083600601544261175f919061219b565b6117699190612179565b9050600181101561177957600080fd5b60088301546117a25761178d81600a61215a565b61179890601e611f78565b600c840155611885565b826008015460011415611816578060011080156117c0575060048111155b156117d157601e600c840155611885565b8060041080156117e2575060088111155b156117f357603c600c840155611885565b8060081080156118045750600d8111155b15611811576050600c8401555b611885565b826008015460021415611885578060011080156118345750600a8111155b1561184557601e600c840155611885565b80600a108015611856575060148111155b1561186757603c600c840155611885565b8060141080156118785750601d8111155b15611885576050600c8401555b505b6004808301805460009091556001546040516323b872dd60e01b815291926001600160a01b03909116916323b872dd916118c7913091339187910161211b565b602060405180830381600087803b1580156118e157600080fd5b505af11580156118f5573d6000803e3d6000fd5b505050506040513d601f19601f8201168201806040525081019061191991906121b2565b506040805160008152602081019182905251611939916005860191611bf1565b5050600060018301819055600283015550600b01805461ffff191661010017905550565b6000600d54600014156119735750612710919050565b8161198457670de0b6b3a764000091505b6103e8600d5460035484611998919061215a565b6119a5906276a70061215a565b6119af9190612179565b6119b99190612179565b92915050565b600c5460049060009043106119d657600c546119d8565b435b825490915081116119e7575050565b600d546119f2579055565b6000611a02836000015483611ae0565b600d54909150611a20826a0c097ce7bc90715b34b9f160241b61215a565b611a2a9190612179565b8360010154611a399190611f78565b60018401555050439055565b6000546001600160a01b03163314611a6f5760405162461bcd60e51b815260040161059a906121cf565b6001600160a01b038116611ad45760405162461bcd60e51b815260206004820152602660248201527f4f776e61626c653a206e6577206f776e657220697320746865207a65726f206160448201526564647265737360d01b606482015260840161059a565b611add81611aff565b50565b600080611aed848461219b565b9050600060035482610c96919061215a565b600080546001600160a01b038381166001600160a01b0319831681178455604051919092169283917f8be0079c531659141344cd1fd0a4f28419497f9722a3daafe3b4186f6b6457e09190a35050565b60015460405163a9059cbb60e01b81526001600160a01b038481166004830152602482018490529091169063a9059cbb90604401602060405180830381600087803b158015611b9d57600080fd5b505af1158015611bb1573d6000803e3d6000fd5b505050506040513d601f19601f82011682018060405250810190611bd591906121b2565b508060026000828254611be89190611f78565b90915550505050565b828054828255906000526020600020908101928215611c2c579160200282015b82811115611c2c578251825591602001919060010190611c11565b50611c38929150611c3c565b5090565b5b80821115611c385760008155600101611c3d565b634e487b7160e01b600052604160045260246000fd5b6040516101a0810167ffffffffffffffff81118282101715611c8b57611c8b611c51565b60405290565b604051601f8201601f1916810167ffffffffffffffff81118282101715611cba57611cba611c51565b604052919050565b60ff81168114611add57600080fd5b8035611cdc81611cc2565b919050565b60008060408385031215611cf457600080fd5b823567ffffffffffffffff80821115611d0c57600080fd5b818501915085601f830112611d2057600080fd5b8135602082821115611d3457611d34611c51565b8160051b9250611d45818401611c91565b8281529284018101928181019089851115611d5f57600080fd5b948201945b84861015611d7d57853582529482019490820190611d64565b9650611d8c9050878201611cd1565b9450505050509250929050565b600060208284031215611dab57600080fd5b5035919050565b6001600160a01b0381168114611add57600080fd5b600060208284031215611dd957600080fd5b8135611de481611db2565b9392505050565b600081518084526020808501945080840160005b83811015611e1b57815187529582019590820190600101611dff565b509495945050505050565b6020815281516020820152602082015160408201526040820151606082015260608201516080820152608082015160a0820152600060a08301516101c08060c0850152611e776101e0850183611deb565b60c086015160e08681019190915286015161010080870191909152860151610120808701919091528601516101408087019190915286015161016080870191909152860151909250610180611ecf8187018315159052565b86015190506101a0611ee48682018315159052565b959095015193019290925250919050565b8015158114611add57600080fd5b600060208284031215611f1557600080fd5b8135611de481611ef5565b60008060408385031215611f3357600080fd5b8235611f3e81611db2565b946020939093013593505050565b634e487b7160e01b600052603260045260246000fd5b634e487b7160e01b600052601160045260246000fd5b60008219821115611f8b57611f8b611f62565b500190565b8051611cdc81611cc2565b805167ffffffffffffffff81168114611cdc57600080fd5b600082601f830112611fc457600080fd5b60405160a0810181811067ffffffffffffffff82111715611fe757611fe7611c51565b6040528060a0840185811115611ffc57600080fd5b845b8181101561201d5761200f81611f9b565b835260209283019201611ffe565b509195945050505050565b6000610220828403121561203b57600080fd5b612043611c67565b8251815261205360208401611f90565b602082015261206460408401611f90565b604082015261207560608401611f90565b606082015261208660808401611f90565b608082015261209760a08401611f90565b60a08201526120a860c08401611f90565b60c08201526120b960e08401611f90565b60e08201526101006120cc818501611f9b565b908201526101206120de848201611f9b565b908201526101406120f185858301611fb3565b908201526101e083015161016082015261210e6102008401611f90565b6101808201529392505050565b6001600160a01b039384168152919092166020820152604081019190915260600190565b600060001982141561215357612153611f62565b5060010190565b600081600019048311821515161561217457612174611f62565b500290565b60008261219657634e487b7160e01b600052601260045260246000fd5b500490565b6000828210156121ad576121ad611f62565b500390565b6000602082840312156121c457600080fd5b8151611de481611ef5565b6020808252818101527f4f776e61626c653a2063616c6c6572206973206e6f7420746865206f776e6572604082015260600190565b60006020828403121561221657600080fd5b5051919050565b60006020828403121561222f57600080fd5b8151611de481611db256fea26469706673582212201fc22111232568212a9f1b1c9b14034111fbd83b64c5b42785e5a15f86070a2a64736f6c63430008080033",
      "opcodes": "PUSH1 0x0 PUSH1 0x2 SSTORE PUSH1 0xE0 PUSH1 0x40 MSTORE PUSH1 0x7 PUSH1 0x80 SWAP1 DUP2 MSTORE PUSH1 0xE PUSH1 0xA0 MSTORE PUSH1 0x1E PUSH1 0xC0 MSTORE PUSH3 0x2A SWAP1 PUSH1 0x8 SWAP1 PUSH1 0x3 PUSH3 0x1CD JUMP JUMPDEST POP PUSH1 0x40 DUP1 MLOAD PUSH1 0x60 DUP2 ADD DUP3 MSTORE PUSH1 0x1 DUP2 MSTORE PUSH1 0x3 PUSH1 0x20 DUP3 ADD DUP2 SWAP1 MSTORE PUSH1 0x5 SWAP3 DUP3 ADD SWAP3 SWAP1 SWAP3 MSTORE PUSH3 0x5A SWAP2 PUSH1 0x9 SWAP2 SWAP1 PUSH3 0x1CD JUMP JUMPDEST POP PUSH1 0x0 PUSH1 0xA SSTORE PUSH1 0x40 DUP1 MLOAD PUSH1 0x60 DUP2 ADD DUP3 MSTORE PUSH1 0x6 DUP2 MSTORE PUSH1 0x3 PUSH1 0x20 DUP3 ADD DUP2 SWAP1 MSTORE PUSH1 0x1 SWAP3 DUP3 ADD SWAP3 SWAP1 SWAP3 MSTORE PUSH3 0x8F SWAP2 PUSH1 0x10 SWAP2 SWAP1 PUSH3 0x286 JUMP JUMPDEST POP PUSH1 0x40 DUP1 MLOAD PUSH1 0x60 DUP2 ADD DUP3 MSTORE PUSH1 0x1E DUP2 MSTORE PUSH1 0xF PUSH1 0x20 DUP3 ADD MSTORE PUSH1 0x5 SWAP2 DUP2 ADD SWAP2 SWAP1 SWAP2 MSTORE PUSH3 0xBE SWAP1 PUSH1 0x11 SWAP1 PUSH1 0x3 PUSH3 0x286 JUMP JUMPDEST POP CALLVALUE DUP1 ISZERO PUSH3 0xCC JUMPI PUSH1 0x0 DUP1 REVERT JUMPDEST POP PUSH1 0x40 MLOAD PUSH3 0x2605 CODESIZE SUB DUP1 PUSH3 0x2605 DUP4 CODECOPY DUP2 ADD PUSH1 0x40 DUP2 SWAP1 MSTORE PUSH3 0xEF SWAP2 PUSH3 0x2F9 JUMP JUMPDEST PUSH3 0xFA CALLER PUSH3 0x17D JUMP JUMPDEST PUSH1 0xE DUP1 SLOAD PUSH1 0x1 PUSH1 0x1 PUSH1 0xA0 SHL SUB DUP1 DUP9 AND PUSH1 0x1 PUSH1 0x1 PUSH1 0xA0 SHL SUB NOT SWAP3 DUP4 AND OR SWAP1 SWAP3 SSTORE PUSH1 0x1 DUP1 SLOAD DUP7 DUP5 AND SWAP1 DUP4 AND OR SWAP1 SSTORE PUSH1 0xF DUP1 SLOAD SWAP3 DUP8 AND SWAP3 SWAP1 SWAP2 AND SWAP2 SWAP1 SWAP2 OR SWAP1 SSTORE PUSH1 0x3 DUP3 SWAP1 SSTORE PUSH1 0xB DUP2 SWAP1 SSTORE PUSH3 0x150 DUP2 PUSH3 0x76A700 PUSH3 0x35E JUMP JUMPDEST PUSH1 0xC SSTORE POP POP PUSH1 0x40 DUP1 MLOAD DUP1 DUP3 ADD SWAP1 SWAP2 MSTORE NUMBER DUP1 DUP3 MSTORE PUSH1 0x0 PUSH1 0x20 SWAP1 SWAP3 ADD DUP3 SWAP1 MSTORE PUSH1 0x4 SSTORE PUSH1 0x5 SSTORE POP PUSH3 0x385 SWAP2 POP POP JUMP JUMPDEST PUSH1 0x0 DUP1 SLOAD PUSH1 0x1 PUSH1 0x1 PUSH1 0xA0 SHL SUB DUP4 DUP2 AND PUSH1 0x1 PUSH1 0x1 PUSH1 0xA0 SHL SUB NOT DUP4 AND DUP2 OR DUP5 SSTORE PUSH1 0x40 MLOAD SWAP2 SWAP1 SWAP3 AND SWAP3 DUP4 SWAP2 PUSH32 0x8BE0079C531659141344CD1FD0A4F28419497F9722A3DAAFE3B4186F6B6457E0 SWAP2 SWAP1 LOG3 POP POP JUMP JUMPDEST DUP3 DUP1 SLOAD DUP3 DUP3 SSTORE SWAP1 PUSH1 0x0 MSTORE PUSH1 0x20 PUSH1 0x0 KECCAK256 SWAP1 PUSH1 0x3 ADD PUSH1 0x4 SWAP1 DIV DUP2 ADD SWAP3 DUP3 ISZERO PUSH3 0x274 JUMPI SWAP2 PUSH1 0x20 MUL DUP3 ADD PUSH1 0x0 JUMPDEST DUP4 DUP3 GT ISZERO PUSH3 0x23D JUMPI DUP4 MLOAD DUP4 DUP3 PUSH2 0x100 EXP DUP2 SLOAD DUP2 PUSH1 0x1 PUSH1 0x1 PUSH1 0x40 SHL SUB MUL NOT AND SWAP1 DUP4 PUSH1 0xFF AND MUL OR SWAP1 SSTORE POP SWAP3 PUSH1 0x20 ADD SWAP3 PUSH1 0x8 ADD PUSH1 0x20 DUP2 PUSH1 0x7 ADD DIV SWAP3 DUP4 ADD SWAP3 PUSH1 0x1 SUB MUL PUSH3 0x1F7 JUMP JUMPDEST DUP1 ISZERO PUSH3 0x272 JUMPI DUP3 DUP2 PUSH2 0x100 EXP DUP2 SLOAD SWAP1 PUSH1 0x1 PUSH1 0x1 PUSH1 0x40 SHL SUB MUL NOT AND SWAP1 SSTORE PUSH1 0x8 ADD PUSH1 0x20 DUP2 PUSH1 0x7 ADD DIV SWAP3 DUP4 ADD SWAP3 PUSH1 0x1 SUB MUL PUSH3 0x23D JUMP JUMPDEST POP JUMPDEST POP PUSH3 0x282 SWAP3 SWAP2 POP PUSH3 0x2C9 JUMP JUMPDEST POP SWAP1 JUMP JUMPDEST DUP3 DUP1 SLOAD DUP3 DUP3 SSTORE SWAP1 PUSH1 0x0 MSTORE PUSH1 0x20 PUSH1 0x0 KECCAK256 SWAP1 DUP2 ADD SWAP3 DUP3 ISZERO PUSH3 0x274 JUMPI SWAP2 PUSH1 0x20 MUL DUP3 ADD JUMPDEST DUP3 DUP2 GT ISZERO PUSH3 0x274 JUMPI DUP3 MLOAD DUP3 SWAP1 PUSH1 0xFF AND SWAP1 SSTORE SWAP2 PUSH1 0x20 ADD SWAP2 SWAP1 PUSH1 0x1 ADD SWAP1 PUSH3 0x2A7 JUMP JUMPDEST JUMPDEST DUP1 DUP3 GT ISZERO PUSH3 0x282 JUMPI PUSH1 0x0 DUP2 SSTORE PUSH1 0x1 ADD PUSH3 0x2CA JUMP JUMPDEST PUSH1 0x1 PUSH1 0x1 PUSH1 0xA0 SHL SUB DUP2 AND DUP2 EQ PUSH3 0x2F6 JUMPI PUSH1 0x0 DUP1 REVERT JUMPDEST POP JUMP JUMPDEST PUSH1 0x0 DUP1 PUSH1 0x0 DUP1 PUSH1 0x0 PUSH1 0xA0 DUP7 DUP9 SUB SLT ISZERO PUSH3 0x312 JUMPI PUSH1 0x0 DUP1 REVERT JUMPDEST DUP6 MLOAD PUSH3 0x31F DUP2 PUSH3 0x2E0 JUMP JUMPDEST PUSH1 0x20 DUP8 ADD MLOAD SWAP1 SWAP6 POP PUSH3 0x332 DUP2 PUSH3 0x2E0 JUMP JUMPDEST PUSH1 0x40 DUP8 ADD MLOAD SWAP1 SWAP5 POP PUSH3 0x345 DUP2 PUSH3 0x2E0 JUMP JUMPDEST PUSH1 0x60 DUP8 ADD MLOAD PUSH1 0x80 SWAP1 SWAP8 ADD MLOAD SWAP6 SWAP9 SWAP5 SWAP8 POP SWAP6 SWAP5 SWAP4 SWAP3 POP POP POP JUMP JUMPDEST PUSH1 0x0 DUP3 NOT DUP3 GT ISZERO PUSH3 0x380 JUMPI PUSH4 0x4E487B71 PUSH1 0xE0 SHL PUSH1 0x0 MSTORE PUSH1 0x11 PUSH1 0x4 MSTORE PUSH1 0x24 PUSH1 0x0 REVERT JUMPDEST POP ADD SWAP1 JUMP JUMPDEST PUSH2 0x2270 DUP1 PUSH3 0x395 PUSH1 0x0 CODECOPY PUSH1 0x0 RETURN INVALID PUSH1 0x80 PUSH1 0x40 MSTORE CALLVALUE DUP1 ISZERO PUSH2 0x10 JUMPI PUSH1 0x0 DUP1 REVERT JUMPDEST POP PUSH1 0x4 CALLDATASIZE LT PUSH2 0x1C4 JUMPI PUSH1 0x0 CALLDATALOAD PUSH1 0xE0 SHR DUP1 PUSH4 0x6917C501 GT PUSH2 0xF9 JUMPI DUP1 PUSH4 0x9F608DA3 GT PUSH2 0x97 JUMPI DUP1 PUSH4 0xC91B46C6 GT PUSH2 0x71 JUMPI DUP1 PUSH4 0xC91B46C6 EQ PUSH2 0x48C JUMPI DUP1 PUSH4 0xD4796EF2 EQ PUSH2 0x494 JUMPI DUP1 PUSH4 0xE3161DDD EQ PUSH2 0x4A7 JUMPI DUP1 PUSH4 0xF2FDE38B EQ PUSH2 0x4AF JUMPI PUSH1 0x0 DUP1 REVERT JUMPDEST DUP1 PUSH4 0x9F608DA3 EQ PUSH2 0x411 JUMPI DUP1 PUSH4 0xACFF05B0 EQ PUSH2 0x424 JUMPI DUP1 PUSH4 0xB2520A7C EQ PUSH2 0x437 JUMPI PUSH1 0x0 DUP1 REVERT JUMPDEST DUP1 PUSH4 0x785E9E86 GT PUSH2 0xD3 JUMPI DUP1 PUSH4 0x785E9E86 EQ PUSH2 0x3D1 JUMPI DUP1 PUSH4 0x7F513D5D EQ PUSH2 0x3E4 JUMPI DUP1 PUSH4 0x8AE39CAC EQ PUSH2 0x3F7 JUMPI DUP1 PUSH4 0x8DA5CB5B EQ PUSH2 0x400 JUMPI PUSH1 0x0 DUP1 REVERT JUMPDEST DUP1 PUSH4 0x6917C501 EQ PUSH2 0x3AD JUMPI DUP1 PUSH4 0x6FF1C9BC EQ PUSH2 0x3B6 JUMPI DUP1 PUSH4 0x715018A6 EQ PUSH2 0x3C9 JUMPI PUSH1 0x0 DUP1 REVERT JUMPDEST DUP1 PUSH4 0x47646B9E GT PUSH2 0x166 JUMPI DUP1 PUSH4 0x5C76CA2D GT PUSH2 0x140 JUMPI DUP1 PUSH4 0x5C76CA2D EQ PUSH2 0x35E JUMPI DUP1 PUSH4 0x5EEBEA20 EQ PUSH2 0x367 JUMPI DUP1 PUSH4 0x60343CAE EQ PUSH2 0x37A JUMPI DUP1 PUSH4 0x6386C1C7 EQ PUSH2 0x38D JUMPI PUSH1 0x0 DUP1 REVERT JUMPDEST DUP1 PUSH4 0x47646B9E EQ PUSH2 0x307 JUMPI DUP1 PUSH4 0x48CD4CB1 EQ PUSH2 0x332 JUMPI DUP1 PUSH4 0x5A2F3D09 EQ PUSH2 0x33B JUMPI PUSH1 0x0 DUP1 REVERT JUMPDEST DUP1 PUSH4 0x17CAF6F1 GT PUSH2 0x1A2 JUMPI DUP1 PUSH4 0x17CAF6F1 EQ PUSH2 0x20D JUMPI DUP1 PUSH4 0x1959A002 EQ PUSH2 0x216 JUMPI DUP1 PUSH4 0x3BDDF74E EQ PUSH2 0x2F7 JUMPI DUP1 PUSH4 0x3F90916A EQ PUSH2 0x2FF JUMPI PUSH1 0x0 DUP1 REVERT JUMPDEST DUP1 PUSH4 0x83C6323 EQ PUSH2 0x1C9 JUMPI DUP1 PUSH4 0xAF72C69 EQ PUSH2 0x1E5 JUMPI DUP1 PUSH4 0x10B43ACF EQ PUSH2 0x1FA JUMPI JUMPDEST PUSH1 0x0 DUP1 REVERT JUMPDEST PUSH2 0x1D2 PUSH1 0xC SLOAD DUP2 JUMP JUMPDEST PUSH1 0x40 MLOAD SWAP1 DUP2 MSTORE PUSH1 0x20 ADD JUMPDEST PUSH1 0x40 MLOAD DUP1 SWAP2 SUB SWAP1 RETURN JUMPDEST PUSH2 0x1F8 PUSH2 0x1F3 CALLDATASIZE PUSH1 0x4 PUSH2 0x1CE1 JUMP JUMPDEST PUSH2 0x4C2 JUMP JUMPDEST STOP JUMPDEST PUSH2 0x1D2 PUSH2 0x208 CALLDATASIZE PUSH1 0x4 PUSH2 0x1D99 JUMP JUMPDEST PUSH2 0x916 JUMP JUMPDEST PUSH2 0x1D2 PUSH1 0xA SLOAD DUP2 JUMP JUMPDEST PUSH2 0x291 PUSH2 0x224 CALLDATASIZE PUSH1 0x4 PUSH2 0x1DC7 JUMP JUMPDEST PUSH1 0x6 PUSH1 0x20 DUP2 SWAP1 MSTORE PUSH1 0x0 SWAP2 DUP3 MSTORE PUSH1 0x40 SWAP1 SWAP2 KECCAK256 DUP1 SLOAD PUSH1 0x1 DUP3 ADD SLOAD PUSH1 0x2 DUP4 ADD SLOAD PUSH1 0x3 DUP5 ADD SLOAD PUSH1 0x4 DUP6 ADD SLOAD SWAP6 DUP6 ADD SLOAD PUSH1 0x7 DUP7 ADD SLOAD PUSH1 0x8 DUP8 ADD SLOAD PUSH1 0x9 DUP9 ADD SLOAD PUSH1 0xA DUP10 ADD SLOAD PUSH1 0xB DUP11 ADD SLOAD PUSH1 0xC SWAP1 SWAP11 ADD SLOAD SWAP9 SWAP11 SWAP8 SWAP10 SWAP7 SWAP9 SWAP6 SWAP8 SWAP7 SWAP5 SWAP6 SWAP4 SWAP5 SWAP3 SWAP4 SWAP2 SWAP3 SWAP1 SWAP2 PUSH1 0xFF DUP1 DUP4 AND SWAP3 PUSH2 0x100 SWAP1 DIV AND SWAP1 DUP14 JUMP JUMPDEST PUSH1 0x40 DUP1 MLOAD SWAP14 DUP15 MSTORE PUSH1 0x20 DUP15 ADD SWAP13 SWAP1 SWAP13 MSTORE SWAP11 DUP13 ADD SWAP10 SWAP1 SWAP10 MSTORE PUSH1 0x60 DUP12 ADD SWAP8 SWAP1 SWAP8 MSTORE PUSH1 0x80 DUP11 ADD SWAP6 SWAP1 SWAP6 MSTORE PUSH1 0xA0 DUP10 ADD SWAP4 SWAP1 SWAP4 MSTORE PUSH1 0xC0 DUP9 ADD SWAP2 SWAP1 SWAP2 MSTORE PUSH1 0xE0 DUP8 ADD MSTORE PUSH2 0x100 DUP7 ADD MSTORE PUSH2 0x120 DUP6 ADD MSTORE ISZERO ISZERO PUSH2 0x140 DUP5 ADD MSTORE ISZERO ISZERO PUSH2 0x160 DUP4 ADD MSTORE PUSH2 0x180 DUP3 ADD MSTORE PUSH2 0x1A0 ADD PUSH2 0x1DC JUMP JUMPDEST PUSH2 0x1F8 PUSH2 0x937 JUMP JUMPDEST PUSH2 0x1D2 PUSH2 0xB73 JUMP JUMPDEST PUSH1 0xF SLOAD PUSH2 0x31A SWAP1 PUSH1 0x1 PUSH1 0x1 PUSH1 0xA0 SHL SUB AND DUP2 JUMP JUMPDEST PUSH1 0x40 MLOAD PUSH1 0x1 PUSH1 0x1 PUSH1 0xA0 SHL SUB SWAP1 SWAP2 AND DUP2 MSTORE PUSH1 0x20 ADD PUSH2 0x1DC JUMP JUMPDEST PUSH2 0x1D2 PUSH1 0xB SLOAD DUP2 JUMP JUMPDEST PUSH1 0x4 SLOAD PUSH1 0x5 SLOAD PUSH2 0x349 SWAP2 SWAP1 DUP3 JUMP JUMPDEST PUSH1 0x40 DUP1 MLOAD SWAP3 DUP4 MSTORE PUSH1 0x20 DUP4 ADD SWAP2 SWAP1 SWAP2 MSTORE ADD PUSH2 0x1DC JUMP JUMPDEST PUSH2 0x1D2 PUSH1 0x2 SLOAD DUP2 JUMP JUMPDEST PUSH2 0x1D2 PUSH2 0x375 CALLDATASIZE PUSH1 0x4 PUSH2 0x1DC7 JUMP JUMPDEST PUSH2 0xBC9 JUMP JUMPDEST PUSH2 0x1D2 PUSH2 0x388 CALLDATASIZE PUSH1 0x4 PUSH2 0x1D99 JUMP JUMPDEST PUSH2 0xC9F JUMP JUMPDEST PUSH2 0x3A0 PUSH2 0x39B CALLDATASIZE PUSH1 0x4 PUSH2 0x1DC7 JUMP JUMPDEST PUSH2 0xCAF JUMP JUMPDEST PUSH1 0x40 MLOAD PUSH2 0x1DC SWAP2 SWAP1 PUSH2 0x1E26 JUMP JUMPDEST PUSH2 0x1D2 PUSH1 0xD SLOAD DUP2 JUMP JUMPDEST PUSH2 0x1F8 PUSH2 0x3C4 CALLDATASIZE PUSH1 0x4 PUSH2 0x1DC7 JUMP JUMPDEST PUSH2 0xE2C JUMP JUMPDEST PUSH2 0x1F8 PUSH2 0xF70 JUMP JUMPDEST PUSH1 0x1 SLOAD PUSH2 0x31A SWAP1 PUSH1 0x1 PUSH1 0x1 PUSH1 0xA0 SHL SUB AND DUP2 JUMP JUMPDEST PUSH1 0xE SLOAD PUSH2 0x31A SWAP1 PUSH1 0x1 PUSH1 0x1 PUSH1 0xA0 SHL SUB AND DUP2 JUMP JUMPDEST PUSH2 0x1D2 PUSH1 0x3 SLOAD DUP2 JUMP JUMPDEST PUSH1 0x0 SLOAD PUSH1 0x1 PUSH1 0x1 PUSH1 0xA0 SHL SUB AND PUSH2 0x31A JUMP JUMPDEST PUSH2 0x1F8 PUSH2 0x41F CALLDATASIZE PUSH1 0x4 PUSH2 0x1F03 JUMP JUMPDEST PUSH2 0xFA6 JUMP JUMPDEST PUSH2 0x1F8 PUSH2 0x432 CALLDATASIZE PUSH1 0x4 PUSH2 0x1D99 JUMP JUMPDEST PUSH2 0x12C9 JUMP JUMPDEST PUSH2 0x471 PUSH2 0x445 CALLDATASIZE PUSH1 0x4 PUSH2 0x1F20 JUMP JUMPDEST PUSH1 0x7 PUSH1 0x20 SWAP1 DUP2 MSTORE PUSH1 0x0 SWAP3 DUP4 MSTORE PUSH1 0x40 DUP1 DUP5 KECCAK256 SWAP1 SWAP2 MSTORE SWAP1 DUP3 MSTORE SWAP1 KECCAK256 DUP1 SLOAD PUSH1 0x1 DUP3 ADD SLOAD PUSH1 0x2 SWAP1 SWAP3 ADD SLOAD SWAP1 SWAP2 SWAP1 DUP4 JUMP JUMPDEST PUSH1 0x40 DUP1 MLOAD SWAP4 DUP5 MSTORE PUSH1 0x20 DUP5 ADD SWAP3 SWAP1 SWAP3 MSTORE SWAP1 DUP3 ADD MSTORE PUSH1 0x60 ADD PUSH2 0x1DC JUMP JUMPDEST PUSH2 0x1F8 PUSH2 0x155A JUMP JUMPDEST PUSH2 0x1D2 PUSH2 0x4A2 CALLDATASIZE PUSH1 0x4 PUSH2 0x1D99 JUMP JUMPDEST PUSH2 0x195D JUMP JUMPDEST PUSH2 0x1F8 PUSH2 0x19BF JUMP JUMPDEST PUSH2 0x1F8 PUSH2 0x4BD CALLDATASIZE PUSH1 0x4 PUSH2 0x1DC7 JUMP JUMPDEST PUSH2 0x1A45 JUMP JUMPDEST CALLER PUSH1 0x0 SWAP1 DUP2 MSTORE PUSH1 0x6 PUSH1 0x20 MSTORE PUSH1 0x40 SWAP1 KECCAK256 PUSH1 0xB DUP2 ADD SLOAD PUSH1 0x4 SWAP2 SWAP1 PUSH2 0x100 SWAP1 DIV PUSH1 0xFF AND ISZERO PUSH2 0x4EC JUMPI PUSH1 0x0 DUP1 REVERT JUMPDEST PUSH1 0xB DUP2 ADD SLOAD PUSH1 0xFF AND ISZERO PUSH2 0x5A8 JUMPI DUP1 PUSH1 0x8 ADD SLOAD DUP4 PUSH1 0xFF AND EQ PUSH2 0x50C JUMPI PUSH1 0x0 DUP1 REVERT JUMPDEST TIMESTAMP PUSH1 0x8 DUP3 PUSH1 0x8 ADD SLOAD DUP2 SLOAD DUP2 LT PUSH2 0x524 JUMPI PUSH2 0x524 PUSH2 0x1F4C JUMP JUMPDEST SWAP1 PUSH1 0x0 MSTORE PUSH1 0x20 PUSH1 0x0 KECCAK256 SWAP1 PUSH1 0x4 SWAP2 DUP3 DUP3 DIV ADD SWAP2 SWAP1 MOD PUSH1 0x8 MUL SWAP1 SLOAD SWAP1 PUSH2 0x100 EXP SWAP1 DIV PUSH8 0xFFFFFFFFFFFFFFFF AND PUSH8 0xFFFFFFFFFFFFFFFF AND DUP3 PUSH1 0x6 ADD SLOAD PUSH2 0x567 SWAP2 SWAP1 PUSH2 0x1F78 JUMP JUMPDEST LT PUSH2 0x5A3 JUMPI PUSH1 0x40 MLOAD PUSH3 0x461BCD PUSH1 0xE5 SHL DUP2 MSTORE PUSH1 0x20 PUSH1 0x4 DUP3 ADD MSTORE PUSH1 0x7 PUSH1 0x24 DUP3 ADD MSTORE PUSH7 0x115E1C1A5C9959 PUSH1 0xCA SHL PUSH1 0x44 DUP3 ADD MSTORE PUSH1 0x64 ADD JUMPDEST PUSH1 0x40 MLOAD DUP1 SWAP2 SUB SWAP1 REVERT JUMPDEST PUSH2 0x635 JUMP JUMPDEST PUSH1 0x3 DUP4 PUSH1 0xFF AND LT PUSH2 0x5B8 JUMPI PUSH1 0x0 DUP1 REVERT JUMPDEST PUSH1 0xB DUP2 ADD DUP1 SLOAD PUSH1 0xFF NOT AND PUSH1 0x1 OR SWAP1 SSTORE PUSH1 0xFF DUP4 AND PUSH1 0x8 DUP1 DUP4 ADD DUP3 SWAP1 SSTORE TIMESTAMP PUSH1 0x6 DUP5 ADD SSTORE DUP1 SLOAD SWAP1 SWAP2 SWAP1 DUP2 LT PUSH2 0x5EC JUMPI PUSH2 0x5EC PUSH2 0x1F4C JUMP JUMPDEST SWAP1 PUSH1 0x0 MSTORE PUSH1 0x20 PUSH1 0x0 KECCAK256 SWAP1 PUSH1 0x4 SWAP2 DUP3 DUP3 DIV ADD SWAP2 SWAP1 MOD PUSH1 0x8 MUL SWAP1 SLOAD SWAP1 PUSH2 0x100 EXP SWAP1 DIV PUSH8 0xFFFFFFFFFFFFFFFF AND PUSH8 0xFFFFFFFFFFFFFFFF AND DUP2 PUSH1 0x6 ADD SLOAD PUSH2 0x62F SWAP2 SWAP1 PUSH2 0x1F78 JUMP JUMPDEST PUSH1 0x7 DUP3 ADD SSTORE JUMPDEST PUSH1 0x0 DUP1 PUSH1 0x0 JUMPDEST DUP7 MLOAD DUP2 LT ISZERO PUSH2 0x7AF JUMPI PUSH1 0xE SLOAD DUP8 MLOAD PUSH1 0x0 SWAP2 PUSH1 0x1 PUSH1 0x1 PUSH1 0xA0 SHL SUB AND SWAP1 PUSH4 0x21D80111 SWAP1 DUP11 SWAP1 DUP6 SWAP1 DUP2 LT PUSH2 0x66E JUMPI PUSH2 0x66E PUSH2 0x1F4C JUMP JUMPDEST PUSH1 0x20 MUL PUSH1 0x20 ADD ADD MLOAD PUSH1 0x40 MLOAD DUP3 PUSH4 0xFFFFFFFF AND PUSH1 0xE0 SHL DUP2 MSTORE PUSH1 0x4 ADD PUSH2 0x694 SWAP2 DUP2 MSTORE PUSH1 0x20 ADD SWAP1 JUMP JUMPDEST PUSH2 0x220 PUSH1 0x40 MLOAD DUP1 DUP4 SUB DUP2 DUP7 DUP1 EXTCODESIZE ISZERO DUP1 ISZERO PUSH2 0x6AD JUMPI PUSH1 0x0 DUP1 REVERT JUMPDEST POP GAS STATICCALL ISZERO DUP1 ISZERO PUSH2 0x6C1 JUMPI RETURNDATASIZE PUSH1 0x0 DUP1 RETURNDATACOPY RETURNDATASIZE PUSH1 0x0 REVERT JUMPDEST POP POP POP POP PUSH1 0x40 MLOAD RETURNDATASIZE PUSH1 0x1F NOT PUSH1 0x1F DUP3 ADD AND DUP3 ADD DUP1 PUSH1 0x40 MSTORE POP DUP2 ADD SWAP1 PUSH2 0x6E5 SWAP2 SWAP1 PUSH2 0x2028 JUMP JUMPDEST SWAP1 POP DUP1 PUSH2 0x160 ADD MLOAD DUP5 PUSH2 0x6F8 SWAP2 SWAP1 PUSH2 0x1F78 JUMP JUMPDEST PUSH1 0xE SLOAD DUP10 MLOAD SWAP2 SWAP6 POP PUSH1 0x1 PUSH1 0x1 PUSH1 0xA0 SHL SUB AND SWAP1 PUSH4 0x23B872DD SWAP1 CALLER SWAP1 ADDRESS SWAP1 DUP13 SWAP1 DUP8 SWAP1 DUP2 LT PUSH2 0x726 JUMPI PUSH2 0x726 PUSH2 0x1F4C JUMP JUMPDEST PUSH1 0x20 MUL PUSH1 0x20 ADD ADD MLOAD PUSH1 0x40 MLOAD DUP5 PUSH4 0xFFFFFFFF AND PUSH1 0xE0 SHL DUP2 MSTORE PUSH1 0x4 ADD PUSH2 0x74C SWAP4 SWAP3 SWAP2 SWAP1 PUSH2 0x211B JUMP JUMPDEST PUSH1 0x0 PUSH1 0x40 MLOAD DUP1 DUP4 SUB DUP2 PUSH1 0x0 DUP8 DUP1 EXTCODESIZE ISZERO DUP1 ISZERO PUSH2 0x766 JUMPI PUSH1 0x0 DUP1 REVERT JUMPDEST POP GAS CALL ISZERO DUP1 ISZERO PUSH2 0x77A JUMPI RETURNDATASIZE PUSH1 0x0 DUP1 RETURNDATACOPY RETURNDATASIZE PUSH1 0x0 REVERT JUMPDEST POP POP POP POP DUP1 PUSH1 0x60 ADD MLOAD PUSH1 0xFF AND PUSH1 0x4 EQ ISZERO PUSH2 0x79C JUMPI DUP3 PUSH2 0x798 DUP2 PUSH2 0x213F JUMP JUMPDEST SWAP4 POP POP JUMPDEST POP DUP1 PUSH2 0x7A7 DUP2 PUSH2 0x213F JUMP JUMPDEST SWAP2 POP POP PUSH2 0x63B JUMP JUMPDEST POP DUP2 DUP4 PUSH1 0x1 ADD PUSH1 0x0 DUP3 DUP3 SLOAD PUSH2 0x7C4 SWAP2 SWAP1 PUSH2 0x1F78 JUMP JUMPDEST SWAP1 SWAP2 SSTORE POP POP DUP3 SLOAD DUP2 SWAP1 DUP5 SWAP1 PUSH1 0x0 SWAP1 PUSH2 0x7DD SWAP1 DUP5 SWAP1 PUSH2 0x1F78 JUMP JUMPDEST SWAP1 SWAP2 SSTORE POP POP DUP3 SLOAD PUSH1 0x0 SWAP1 PUSH1 0x64 SWAP1 PUSH2 0x7F5 SWAP1 PUSH1 0xA PUSH2 0x215A JUMP JUMPDEST PUSH2 0x800 SWAP1 PUSH1 0x64 PUSH2 0x1F78 JUMP JUMPDEST DUP6 PUSH1 0x1 ADD SLOAD PUSH2 0x80F SWAP2 SWAP1 PUSH2 0x215A JUMP JUMPDEST PUSH2 0x819 SWAP2 SWAP1 PUSH2 0x2179 JUMP JUMPDEST PUSH1 0x2 DUP6 ADD DUP2 SWAP1 SSTORE SWAP1 POP PUSH2 0x82A PUSH2 0x19BF JUMP JUMPDEST DUP1 PUSH1 0xD PUSH1 0x0 DUP3 DUP3 SLOAD PUSH2 0x83C SWAP2 SWAP1 PUSH2 0x1F78 JUMP JUMPDEST SWAP1 SWAP2 SSTORE POP POP PUSH1 0x2 DUP5 ADD SLOAD ISZERO PUSH2 0x8A6 JUMPI PUSH1 0x0 DUP5 PUSH1 0x3 ADD SLOAD PUSH11 0xC097CE7BC90715B34B9F1 PUSH1 0x24 SHL DUP8 PUSH1 0x1 ADD SLOAD DUP8 PUSH1 0x2 ADD SLOAD PUSH2 0x875 SWAP2 SWAP1 PUSH2 0x215A JUMP JUMPDEST PUSH2 0x87F SWAP2 SWAP1 PUSH2 0x2179 JUMP JUMPDEST PUSH2 0x889 SWAP2 SWAP1 PUSH2 0x219B JUMP JUMPDEST SWAP1 POP DUP1 DUP6 PUSH1 0x9 ADD PUSH1 0x0 DUP3 DUP3 SLOAD PUSH2 0x89F SWAP2 SWAP1 PUSH2 0x1F78 JUMP JUMPDEST SWAP1 SWAP2 SSTORE POP POP POP JUMPDEST PUSH11 0xC097CE7BC90715B34B9F1 PUSH1 0x24 SHL DUP6 PUSH1 0x1 ADD SLOAD DUP6 PUSH1 0x2 ADD SLOAD PUSH2 0x8C9 SWAP2 SWAP1 PUSH2 0x215A JUMP JUMPDEST PUSH2 0x8D3 SWAP2 SWAP1 PUSH2 0x2179 JUMP JUMPDEST PUSH1 0x3 DUP6 ADD SSTORE PUSH1 0x40 MLOAD DUP4 DUP2 MSTORE CALLER SWAP1 PUSH32 0xE1FFFCC4923D04B559F4D29A8BFC6CDA04EB5B0D3C460751C2402C5C5CC9109C SWAP1 PUSH1 0x20 ADD PUSH1 0x40 MLOAD DUP1 SWAP2 SUB SWAP1 LOG2 POP POP POP POP POP POP POP JUMP JUMPDEST PUSH1 0x11 DUP2 DUP2 SLOAD DUP2 LT PUSH2 0x926 JUMPI PUSH1 0x0 DUP1 REVERT JUMPDEST PUSH1 0x0 SWAP2 DUP3 MSTORE PUSH1 0x20 SWAP1 SWAP2 KECCAK256 ADD SLOAD SWAP1 POP DUP2 JUMP JUMPDEST CALLER PUSH1 0x0 SWAP1 DUP2 MSTORE PUSH1 0x6 PUSH1 0x20 MSTORE PUSH1 0x40 SWAP1 KECCAK256 PUSH1 0xB DUP2 ADD SLOAD PUSH1 0x4 SWAP2 SWAP1 PUSH1 0xFF AND PUSH2 0x95B JUMPI PUSH1 0x0 DUP1 REVERT JUMPDEST PUSH1 0x1 DUP2 ADD SLOAD PUSH2 0x971 SWAP1 PUSH7 0x38D7EA4C68000 PUSH2 0x215A JUMP JUMPDEST DUP2 PUSH1 0x4 ADD SLOAD LT PUSH2 0x980 JUMPI PUSH1 0x0 DUP1 REVERT JUMPDEST PUSH1 0x1 DUP1 SLOAD PUSH1 0x4 DUP4 ADD SLOAD SWAP2 DUP4 ADD SLOAD PUSH1 0x1 PUSH1 0x1 PUSH1 0xA0 SHL SUB SWAP1 SWAP2 AND SWAP2 PUSH4 0x23B872DD SWAP2 CALLER SWAP2 ADDRESS SWAP2 PUSH2 0x9B4 SWAP1 PUSH7 0x38D7EA4C68000 PUSH2 0x215A JUMP JUMPDEST PUSH2 0x9BE SWAP2 SWAP1 PUSH2 0x219B JUMP JUMPDEST PUSH1 0x40 MLOAD DUP5 PUSH4 0xFFFFFFFF AND PUSH1 0xE0 SHL DUP2 MSTORE PUSH1 0x4 ADD PUSH2 0x9DC SWAP4 SWAP3 SWAP2 SWAP1 PUSH2 0x211B JUMP JUMPDEST PUSH1 0x20 PUSH1 0x40 MLOAD DUP1 DUP4 SUB DUP2 PUSH1 0x0 DUP8 DUP1 EXTCODESIZE ISZERO DUP1 ISZERO PUSH2 0x9F6 JUMPI PUSH1 0x0 DUP1 REVERT JUMPDEST POP GAS CALL ISZERO DUP1 ISZERO PUSH2 0xA0A JUMPI RETURNDATASIZE PUSH1 0x0 DUP1 RETURNDATACOPY RETURNDATASIZE PUSH1 0x0 REVERT JUMPDEST POP POP POP POP PUSH1 0x40 MLOAD RETURNDATASIZE PUSH1 0x1F NOT PUSH1 0x1F DUP3 ADD AND DUP3 ADD DUP1 PUSH1 0x40 MSTORE POP DUP2 ADD SWAP1 PUSH2 0xA2E SWAP2 SWAP1 PUSH2 0x21B2 JUMP JUMPDEST POP PUSH2 0xA37 PUSH2 0x19BF JUMP JUMPDEST DUP1 SLOAD PUSH1 0x0 SWAP1 PUSH1 0x64 SWAP1 PUSH2 0xA4A SWAP1 PUSH1 0xA PUSH2 0x215A JUMP JUMPDEST PUSH2 0xA55 SWAP1 PUSH1 0x64 PUSH2 0x1F78 JUMP JUMPDEST PUSH2 0xA60 SWAP1 PUSH1 0xA PUSH2 0x1F78 JUMP JUMPDEST DUP4 PUSH1 0x1 ADD SLOAD PUSH2 0xA6F SWAP2 SWAP1 PUSH2 0x215A JUMP JUMPDEST PUSH2 0xA79 SWAP2 SWAP1 PUSH2 0x2179 JUMP JUMPDEST PUSH1 0x2 DUP4 ADD SLOAD SWAP1 SWAP2 POP ISZERO PUSH2 0xAE1 JUMPI PUSH1 0x0 DUP3 PUSH1 0x3 ADD SLOAD PUSH11 0xC097CE7BC90715B34B9F1 PUSH1 0x24 SHL DUP6 PUSH1 0x1 ADD SLOAD DUP6 PUSH1 0x2 ADD SLOAD PUSH2 0xAB0 SWAP2 SWAP1 PUSH2 0x215A JUMP JUMPDEST PUSH2 0xABA SWAP2 SWAP1 PUSH2 0x2179 JUMP JUMPDEST PUSH2 0xAC4 SWAP2 SWAP1 PUSH2 0x219B JUMP JUMPDEST SWAP1 POP DUP1 DUP4 PUSH1 0x9 ADD PUSH1 0x0 DUP3 DUP3 SLOAD PUSH2 0xADA SWAP2 SWAP1 PUSH2 0x1F78 JUMP JUMPDEST SWAP1 SWAP2 SSTORE POP POP POP JUMPDEST PUSH11 0xC097CE7BC90715B34B9F1 PUSH1 0x24 SHL DUP4 PUSH1 0x1 ADD SLOAD DUP4 PUSH1 0x2 ADD SLOAD PUSH2 0xB04 SWAP2 SWAP1 PUSH2 0x215A JUMP JUMPDEST PUSH2 0xB0E SWAP2 SWAP1 PUSH2 0x2179 JUMP JUMPDEST PUSH1 0x3 DUP4 ADD SSTORE PUSH1 0x2 DUP3 ADD SLOAD PUSH1 0xD DUP1 SLOAD PUSH1 0x0 SWAP1 PUSH2 0xB2A SWAP1 DUP5 SWAP1 PUSH2 0x219B JUMP JUMPDEST SWAP1 SWAP2 SSTORE POP POP PUSH1 0x2 DUP3 ADD DUP2 SWAP1 SSTORE PUSH1 0xD DUP1 SLOAD DUP3 SWAP2 SWAP1 PUSH1 0x0 SWAP1 PUSH2 0xB4B SWAP1 DUP5 SWAP1 PUSH2 0x1F78 JUMP JUMPDEST SWAP1 SWAP2 SSTORE POP POP PUSH1 0x1 DUP3 ADD SLOAD PUSH2 0xB66 SWAP1 PUSH7 0x38D7EA4C68000 PUSH2 0x215A JUMP JUMPDEST DUP3 PUSH1 0x4 ADD DUP2 SWAP1 SSTORE POP POP POP POP JUMP JUMPDEST PUSH1 0x0 PUSH1 0xB SLOAD NUMBER GT PUSH2 0xB84 JUMPI POP PUSH1 0x0 SWAP1 JUMP JUMPDEST PUSH1 0x0 PUSH1 0xC SLOAD NUMBER LT PUSH2 0xB97 JUMPI PUSH1 0xC SLOAD PUSH2 0xB99 JUMP JUMPDEST NUMBER JUMPDEST SWAP1 POP PUSH1 0x2 SLOAD PUSH1 0xB SLOAD DUP3 PUSH2 0xBAC SWAP2 SWAP1 PUSH2 0x219B JUMP JUMPDEST PUSH1 0x3 SLOAD PUSH2 0xBB9 SWAP2 SWAP1 PUSH2 0x215A JUMP JUMPDEST PUSH2 0xBC3 SWAP2 SWAP1 PUSH2 0x219B JUMP JUMPDEST SWAP2 POP POP SWAP1 JUMP JUMPDEST PUSH1 0x1 PUSH1 0x1 PUSH1 0xA0 SHL SUB DUP2 AND PUSH1 0x0 SWAP1 DUP2 MSTORE PUSH1 0x6 PUSH1 0x20 MSTORE PUSH1 0x40 DUP2 KECCAK256 PUSH1 0x5 SLOAD PUSH1 0x4 DUP1 SLOAD SWAP1 SWAP3 SWAP2 SWAP1 NUMBER GT DUP1 ISZERO PUSH2 0xBFB JUMPI POP PUSH1 0xD SLOAD ISZERO ISZERO JUMPDEST ISZERO PUSH2 0xC5E JUMPI PUSH1 0x0 PUSH1 0xC SLOAD NUMBER LT PUSH2 0xC13 JUMPI PUSH1 0xC SLOAD PUSH2 0xC15 JUMP JUMPDEST NUMBER JUMPDEST SWAP1 POP PUSH1 0x0 PUSH2 0xC27 DUP6 PUSH1 0x0 ADD SLOAD DUP4 PUSH2 0x1AE0 JUMP JUMPDEST PUSH1 0xD SLOAD SWAP1 SWAP2 POP PUSH2 0xC45 DUP3 PUSH11 0xC097CE7BC90715B34B9F1 PUSH1 0x24 SHL PUSH2 0x215A JUMP JUMPDEST PUSH2 0xC4F SWAP2 SWAP1 PUSH2 0x2179 JUMP JUMPDEST PUSH2 0xC59 SWAP1 DUP5 PUSH2 0x1F78 JUMP JUMPDEST SWAP3 POP POP POP JUMPDEST DUP2 PUSH1 0x3 ADD SLOAD PUSH11 0xC097CE7BC90715B34B9F1 PUSH1 0x24 SHL DUP3 DUP5 PUSH1 0x2 ADD SLOAD PUSH2 0xC82 SWAP2 SWAP1 PUSH2 0x215A JUMP JUMPDEST PUSH2 0xC8C SWAP2 SWAP1 PUSH2 0x2179 JUMP JUMPDEST PUSH2 0xC96 SWAP2 SWAP1 PUSH2 0x219B JUMP JUMPDEST SWAP6 SWAP5 POP POP POP POP POP JUMP JUMPDEST PUSH1 0x10 DUP2 DUP2 SLOAD DUP2 LT PUSH2 0x926 JUMPI PUSH1 0x0 DUP1 REVERT JUMPDEST PUSH2 0xD25 PUSH1 0x40 MLOAD DUP1 PUSH2 0x1C0 ADD PUSH1 0x40 MSTORE DUP1 PUSH1 0x0 DUP2 MSTORE PUSH1 0x20 ADD PUSH1 0x0 DUP2 MSTORE PUSH1 0x20 ADD PUSH1 0x0 DUP2 MSTORE PUSH1 0x20 ADD PUSH1 0x0 DUP2 MSTORE PUSH1 0x20 ADD PUSH1 0x0 DUP2 MSTORE PUSH1 0x20 ADD PUSH1 0x60 DUP2 MSTORE PUSH1 0x20 ADD PUSH1 0x0 DUP2 MSTORE PUSH1 0x20 ADD PUSH1 0x0 DUP2 MSTORE PUSH1 0x20 ADD PUSH1 0x0 DUP2 MSTORE PUSH1 0x20 ADD PUSH1 0x0 DUP2 MSTORE PUSH1 0x20 ADD PUSH1 0x0 DUP2 MSTORE PUSH1 0x20 ADD PUSH1 0x0 ISZERO ISZERO DUP2 MSTORE PUSH1 0x20 ADD PUSH1 0x0 ISZERO ISZERO DUP2 MSTORE PUSH1 0x20 ADD PUSH1 0x0 DUP2 MSTORE POP SWAP1 JUMP JUMPDEST PUSH1 0x1 PUSH1 0x1 PUSH1 0xA0 SHL SUB DUP3 AND PUSH1 0x0 SWAP1 DUP2 MSTORE PUSH1 0x6 PUSH1 0x20 SWAP1 DUP2 MSTORE PUSH1 0x40 SWAP2 DUP3 SWAP1 KECCAK256 DUP3 MLOAD PUSH2 0x1C0 DUP2 ADD DUP5 MSTORE DUP2 SLOAD DUP2 MSTORE PUSH1 0x1 DUP3 ADD SLOAD DUP2 DUP5 ADD MSTORE PUSH1 0x2 DUP3 ADD SLOAD DUP2 DUP6 ADD MSTORE PUSH1 0x3 DUP3 ADD SLOAD PUSH1 0x60 DUP3 ADD MSTORE PUSH1 0x4 DUP3 ADD SLOAD PUSH1 0x80 DUP3 ADD MSTORE PUSH1 0x5 DUP3 ADD DUP1 SLOAD DUP6 MLOAD DUP2 DUP7 MUL DUP2 ADD DUP7 ADD SWAP1 SWAP7 MSTORE DUP1 DUP7 MSTORE SWAP2 SWAP5 SWAP3 SWAP4 PUSH1 0xA0 DUP7 ADD SWAP4 SWAP3 SWAP1 DUP4 ADD DUP3 DUP3 DUP1 ISZERO PUSH2 0xDC3 JUMPI PUSH1 0x20 MUL DUP3 ADD SWAP2 SWAP1 PUSH1 0x0 MSTORE PUSH1 0x20 PUSH1 0x0 KECCAK256 SWAP1 JUMPDEST DUP2 SLOAD DUP2 MSTORE PUSH1 0x20 ADD SWAP1 PUSH1 0x1 ADD SWAP1 DUP1 DUP4 GT PUSH2 0xDAF JUMPI JUMPDEST POP POP POP SWAP2 DUP4 MSTORE POP POP PUSH1 0x6 DUP3 ADD SLOAD PUSH1 0x20 DUP3 ADD MSTORE PUSH1 0x7 DUP3 ADD SLOAD PUSH1 0x40 DUP3 ADD MSTORE PUSH1 0x8 DUP3 ADD SLOAD PUSH1 0x60 DUP3 ADD MSTORE PUSH1 0x9 DUP3 ADD SLOAD PUSH1 0x80 DUP3 ADD MSTORE PUSH1 0xA DUP3 ADD SLOAD PUSH1 0xA0 DUP3 ADD MSTORE PUSH1 0xB DUP3 ADD SLOAD PUSH1 0xFF DUP1 DUP3 AND ISZERO ISZERO PUSH1 0xC0 DUP5 ADD MSTORE PUSH2 0x100 SWAP2 DUP3 SWAP1 DIV AND ISZERO ISZERO PUSH1 0xE0 DUP4 ADD MSTORE PUSH1 0xC SWAP1 SWAP3 ADD SLOAD SWAP2 ADD MSTORE SWAP3 SWAP2 POP POP JUMP JUMPDEST PUSH1 0x0 SLOAD PUSH1 0x1 PUSH1 0x1 PUSH1 0xA0 SHL SUB AND CALLER EQ PUSH2 0xE56 JUMPI PUSH1 0x40 MLOAD PUSH3 0x461BCD PUSH1 0xE5 SHL DUP2 MSTORE PUSH1 0x4 ADD PUSH2 0x59A SWAP1 PUSH2 0x21CF JUMP JUMPDEST DUP1 PUSH1 0x1 PUSH1 0x1 PUSH1 0xA0 SHL SUB AND PUSH4 0xA9059CBB PUSH2 0xE77 PUSH1 0x0 SLOAD PUSH1 0x1 PUSH1 0x1 PUSH1 0xA0 SHL SUB AND SWAP1 JUMP JUMPDEST PUSH1 0x40 MLOAD PUSH4 0x70A08231 PUSH1 0xE0 SHL DUP2 MSTORE ADDRESS PUSH1 0x4 DUP3 ADD MSTORE PUSH1 0x1 PUSH1 0x1 PUSH1 0xA0 SHL SUB DUP6 AND SWAP1 PUSH4 0x70A08231 SWAP1 PUSH1 0x24 ADD PUSH1 0x20 PUSH1 0x40 MLOAD DUP1 DUP4 SUB DUP2 DUP7 DUP1 EXTCODESIZE ISZERO DUP1 ISZERO PUSH2 0xEB6 JUMPI PUSH1 0x0 DUP1 REVERT JUMPDEST POP GAS STATICCALL ISZERO DUP1 ISZERO PUSH2 0xECA JUMPI RETURNDATASIZE PUSH1 0x0 DUP1 RETURNDATACOPY RETURNDATASIZE PUSH1 0x0 REVERT JUMPDEST POP POP POP POP PUSH1 0x40 MLOAD RETURNDATASIZE PUSH1 0x1F NOT PUSH1 0x1F DUP3 ADD AND DUP3 ADD DUP1 PUSH1 0x40 MSTORE POP DUP2 ADD SWAP1 PUSH2 0xEEE SWAP2 SWAP1 PUSH2 0x2204 JUMP JUMPDEST PUSH1 0x40 MLOAD PUSH1 0x1 PUSH1 0x1 PUSH1 0xE0 SHL SUB NOT PUSH1 0xE0 DUP6 SWAP1 SHL AND DUP2 MSTORE PUSH1 0x1 PUSH1 0x1 PUSH1 0xA0 SHL SUB SWAP1 SWAP3 AND PUSH1 0x4 DUP4 ADD MSTORE PUSH1 0x24 DUP3 ADD MSTORE PUSH1 0x44 ADD PUSH1 0x20 PUSH1 0x40 MLOAD DUP1 DUP4 SUB DUP2 PUSH1 0x0 DUP8 DUP1 EXTCODESIZE ISZERO DUP1 ISZERO PUSH2 0xF34 JUMPI PUSH1 0x0 DUP1 REVERT JUMPDEST POP GAS CALL ISZERO DUP1 ISZERO PUSH2 0xF48 JUMPI RETURNDATASIZE PUSH1 0x0 DUP1 RETURNDATACOPY RETURNDATASIZE PUSH1 0x0 REVERT JUMPDEST POP POP POP POP PUSH1 0x40 MLOAD RETURNDATASIZE PUSH1 0x1F NOT PUSH1 0x1F DUP3 ADD AND DUP3 ADD DUP1 PUSH1 0x40 MSTORE POP DUP2 ADD SWAP1 PUSH2 0xF6C SWAP2 SWAP1 PUSH2 0x21B2 JUMP JUMPDEST POP POP JUMP JUMPDEST PUSH1 0x0 SLOAD PUSH1 0x1 PUSH1 0x1 PUSH1 0xA0 SHL SUB AND CALLER EQ PUSH2 0xF9A JUMPI PUSH1 0x40 MLOAD PUSH3 0x461BCD PUSH1 0xE5 SHL DUP2 MSTORE PUSH1 0x4 ADD PUSH2 0x59A SWAP1 PUSH2 0x21CF JUMP JUMPDEST PUSH2 0xFA4 PUSH1 0x0 PUSH2 0x1AFF JUMP JUMPDEST JUMP JUMPDEST CALLER PUSH1 0x0 SWAP1 DUP2 MSTORE PUSH1 0x6 PUSH1 0x20 MSTORE PUSH1 0x40 SWAP1 KECCAK256 PUSH1 0xB DUP2 ADD SLOAD PUSH2 0x100 SWAP1 DIV PUSH1 0xFF AND PUSH2 0xFCB JUMPI PUSH1 0x0 DUP1 REVERT JUMPDEST PUSH1 0xB DUP2 ADD DUP1 SLOAD PUSH2 0xFF00 NOT AND SWAP1 SSTORE DUP2 PUSH2 0x1226 JUMPI PUSH2 0x101C CALLER PUSH1 0x64 DUP1 DUP5 PUSH1 0xC ADD SLOAD DUP6 PUSH1 0x9 ADD SLOAD PUSH2 0xFF8 SWAP2 SWAP1 PUSH2 0x215A JUMP JUMPDEST PUSH2 0x1002 SWAP2 SWAP1 PUSH2 0x2179 JUMP JUMPDEST PUSH2 0x100D SWAP1 PUSH1 0x50 PUSH2 0x215A JUMP JUMPDEST PUSH2 0x1017 SWAP2 SWAP1 PUSH2 0x2179 JUMP JUMPDEST PUSH2 0x1B4F JUMP JUMPDEST CALLER PUSH1 0x0 JUMPDEST PUSH1 0xF PUSH1 0x0 SWAP1 SLOAD SWAP1 PUSH2 0x100 EXP SWAP1 DIV PUSH1 0x1 PUSH1 0x1 PUSH1 0xA0 SHL SUB AND PUSH1 0x1 PUSH1 0x1 PUSH1 0xA0 SHL SUB AND PUSH4 0xF842D40B PUSH1 0x40 MLOAD DUP2 PUSH4 0xFFFFFFFF AND PUSH1 0xE0 SHL DUP2 MSTORE PUSH1 0x4 ADD PUSH1 0x20 PUSH1 0x40 MLOAD DUP1 DUP4 SUB DUP2 DUP7 DUP1 EXTCODESIZE ISZERO DUP1 ISZERO PUSH2 0x106E JUMPI PUSH1 0x0 DUP1 REVERT JUMPDEST POP GAS STATICCALL ISZERO DUP1 ISZERO PUSH2 0x1082 JUMPI RETURNDATASIZE PUSH1 0x0 DUP1 RETURNDATACOPY RETURNDATASIZE PUSH1 0x0 REVERT JUMPDEST POP POP POP POP PUSH1 0x40 MLOAD RETURNDATASIZE PUSH1 0x1F NOT PUSH1 0x1F DUP3 ADD AND DUP3 ADD DUP1 PUSH1 0x40 MSTORE POP DUP2 ADD SWAP1 PUSH2 0x10A6 SWAP2 SWAP1 PUSH2 0x2204 JUMP JUMPDEST DUP2 LT ISZERO PUSH2 0x121F JUMPI PUSH1 0xF SLOAD PUSH1 0x40 MLOAD PUSH4 0x1B43F311 PUSH1 0xE3 SHL DUP2 MSTORE PUSH1 0x1 PUSH1 0x1 PUSH1 0xA0 SHL SUB DUP5 DUP2 AND PUSH1 0x4 DUP4 ADD MSTORE SWAP1 SWAP2 AND SWAP1 PUSH4 0xDA1F9888 SWAP1 PUSH1 0x24 ADD PUSH1 0x20 PUSH1 0x40 MLOAD DUP1 DUP4 SUB DUP2 DUP7 DUP1 EXTCODESIZE ISZERO DUP1 ISZERO PUSH2 0x10F2 JUMPI PUSH1 0x0 DUP1 REVERT JUMPDEST POP GAS STATICCALL ISZERO DUP1 ISZERO PUSH2 0x1106 JUMPI RETURNDATASIZE PUSH1 0x0 DUP1 RETURNDATACOPY RETURNDATASIZE PUSH1 0x0 REVERT JUMPDEST POP POP POP POP PUSH1 0x40 MLOAD RETURNDATASIZE PUSH1 0x1F NOT PUSH1 0x1F DUP3 ADD AND DUP3 ADD DUP1 PUSH1 0x40 MSTORE POP DUP2 ADD SWAP1 PUSH2 0x112A SWAP2 SWAP1 PUSH2 0x221D JUMP JUMPDEST SWAP2 POP PUSH1 0x1 PUSH1 0x1 PUSH1 0xA0 SHL SUB DUP3 AND ISZERO PUSH2 0x1208 JUMPI PUSH1 0x0 PUSH1 0x10 DUP3 DUP2 SLOAD DUP2 LT PUSH2 0x1150 JUMPI PUSH2 0x1150 PUSH2 0x1F4C JUMP JUMPDEST SWAP1 PUSH1 0x0 MSTORE PUSH1 0x20 PUSH1 0x0 KECCAK256 ADD SLOAD SWAP1 POP PUSH1 0x0 PUSH2 0x3E8 DUP3 PUSH1 0x64 DUP8 PUSH1 0xC ADD SLOAD DUP9 PUSH1 0x9 ADD SLOAD PUSH2 0x1179 SWAP2 SWAP1 PUSH2 0x215A JUMP JUMPDEST PUSH2 0x1183 SWAP2 SWAP1 PUSH2 0x2179 JUMP JUMPDEST PUSH2 0x118D SWAP2 SWAP1 PUSH2 0x215A JUMP JUMPDEST PUSH2 0x1197 SWAP2 SWAP1 PUSH2 0x2179 JUMP JUMPDEST SWAP1 POP PUSH2 0x11A3 DUP5 DUP3 PUSH2 0x1B4F JUMP JUMPDEST PUSH32 0x61F9EFC09A7E2BFF53ABE4FCF2714BB516B14CE6B8893742CC587DE5CD88079 CALLER DUP6 PUSH2 0x11D1 DUP7 PUSH1 0x1 PUSH2 0x1F78 JUMP JUMPDEST PUSH1 0x40 DUP1 MLOAD PUSH1 0x1 PUSH1 0x1 PUSH1 0xA0 SHL SUB SWAP5 DUP6 AND DUP2 MSTORE SWAP4 SWAP1 SWAP3 AND PUSH1 0x20 DUP5 ADD MSTORE SWAP1 DUP3 ADD MSTORE PUSH1 0x60 DUP2 ADD DUP4 SWAP1 MSTORE PUSH1 0x80 ADD PUSH1 0x40 MLOAD DUP1 SWAP2 SUB SWAP1 LOG1 POP POP PUSH2 0x120D JUMP JUMPDEST PUSH2 0x121F JUMP JUMPDEST DUP1 PUSH2 0x1217 DUP2 PUSH2 0x213F JUMP JUMPDEST SWAP2 POP POP PUSH2 0x1020 JUMP JUMPDEST POP POP PUSH2 0x12B7 JUMP JUMPDEST CALLER PUSH1 0x0 SWAP1 DUP2 MSTORE PUSH1 0x7 PUSH1 0x20 SWAP1 DUP2 MSTORE PUSH1 0x40 DUP1 DUP4 KECCAK256 PUSH1 0xA DUP6 ADD SLOAD DUP5 MSTORE SWAP1 SWAP2 MSTORE SWAP1 KECCAK256 TIMESTAMP SWAP1 SSTORE PUSH1 0xC DUP2 ADD SLOAD PUSH1 0x9 DUP3 ADD SLOAD PUSH1 0x64 SWAP2 DUP3 SWAP2 PUSH2 0x1260 SWAP2 SWAP1 PUSH2 0x215A JUMP JUMPDEST PUSH2 0x126A SWAP2 SWAP1 PUSH2 0x2179 JUMP JUMPDEST PUSH2 0x1275 SWAP1 PUSH1 0x73 PUSH2 0x215A JUMP JUMPDEST PUSH2 0x127F SWAP2 SWAP1 PUSH2 0x2179 JUMP JUMPDEST CALLER PUSH1 0x0 SWAP1 DUP2 MSTORE PUSH1 0x7 PUSH1 0x20 SWAP1 DUP2 MSTORE PUSH1 0x40 DUP1 DUP4 KECCAK256 PUSH1 0xA DUP7 ADD DUP1 SLOAD DUP6 MSTORE SWAP3 MSTORE DUP3 KECCAK256 PUSH1 0x1 ADD SWAP3 SWAP1 SWAP3 SSTORE DUP2 SLOAD SWAP2 SWAP1 PUSH2 0x12B1 DUP4 PUSH2 0x213F JUMP JUMPDEST SWAP2 SWAP1 POP SSTORE POP JUMPDEST PUSH1 0x0 PUSH1 0x9 DUP3 ADD DUP2 SWAP1 SSTORE PUSH1 0x3 SWAP1 SWAP2 ADD SSTORE POP JUMP JUMPDEST CALLER PUSH1 0x0 SWAP1 DUP2 MSTORE PUSH1 0x7 PUSH1 0x20 SWAP1 DUP2 MSTORE PUSH1 0x40 DUP1 DUP4 KECCAK256 DUP5 DUP5 MSTORE SWAP1 SWAP2 MSTORE SWAP1 KECCAK256 PUSH1 0x1 DUP2 ADD SLOAD PUSH2 0x12F1 JUMPI PUSH1 0x0 DUP1 REVERT JUMPDEST PUSH1 0x1 DUP2 ADD SLOAD DUP2 SLOAD PUSH1 0x0 SWAP2 PUSH3 0x278D00 SWAP2 PUSH2 0x130A SWAP1 TIMESTAMP PUSH2 0x219B JUMP JUMPDEST PUSH2 0x1314 SWAP2 SWAP1 PUSH2 0x215A JUMP JUMPDEST PUSH2 0x131E SWAP2 SWAP1 PUSH2 0x2179 JUMP JUMPDEST SWAP1 POP DUP2 PUSH1 0x1 ADD SLOAD DUP2 GT ISZERO PUSH2 0x1333 JUMPI POP PUSH1 0x1 DUP2 ADD SLOAD JUMPDEST PUSH1 0x0 DUP3 PUSH1 0x2 ADD SLOAD DUP3 PUSH2 0x1345 SWAP2 SWAP1 PUSH2 0x219B JUMP JUMPDEST SWAP1 POP PUSH2 0x1358 CALLER PUSH1 0x64 PUSH2 0x100D DUP5 PUSH1 0x5F PUSH2 0x215A JUMP JUMPDEST DUP1 DUP4 PUSH1 0x2 ADD PUSH1 0x0 DUP3 DUP3 SLOAD PUSH2 0x136C SWAP2 SWAP1 PUSH2 0x1F78 JUMP JUMPDEST SWAP1 SWAP2 SSTORE POP CALLER SWAP1 POP PUSH1 0x0 JUMPDEST PUSH1 0xF PUSH1 0x0 SWAP1 SLOAD SWAP1 PUSH2 0x100 EXP SWAP1 DIV PUSH1 0x1 PUSH1 0x1 PUSH1 0xA0 SHL SUB AND PUSH1 0x1 PUSH1 0x1 PUSH1 0xA0 SHL SUB AND PUSH4 0xF842D40B PUSH1 0x40 MLOAD DUP2 PUSH4 0xFFFFFFFF AND PUSH1 0xE0 SHL DUP2 MSTORE PUSH1 0x4 ADD PUSH1 0x20 PUSH1 0x40 MLOAD DUP1 DUP4 SUB DUP2 DUP7 DUP1 EXTCODESIZE ISZERO DUP1 ISZERO PUSH2 0x13C4 JUMPI PUSH1 0x0 DUP1 REVERT JUMPDEST POP GAS STATICCALL ISZERO DUP1 ISZERO PUSH2 0x13D8 JUMPI RETURNDATASIZE PUSH1 0x0 DUP1 RETURNDATACOPY RETURNDATASIZE PUSH1 0x0 REVERT JUMPDEST POP POP POP POP PUSH1 0x40 MLOAD RETURNDATASIZE PUSH1 0x1F NOT PUSH1 0x1F DUP3 ADD AND DUP3 ADD DUP1 PUSH1 0x40 MSTORE POP DUP2 ADD SWAP1 PUSH2 0x13FC SWAP2 SWAP1 PUSH2 0x2204 JUMP JUMPDEST DUP2 LT ISZERO PUSH2 0x1552 JUMPI PUSH1 0xF SLOAD PUSH1 0x40 MLOAD PUSH4 0x1B43F311 PUSH1 0xE3 SHL DUP2 MSTORE PUSH1 0x1 PUSH1 0x1 PUSH1 0xA0 SHL SUB DUP5 DUP2 AND PUSH1 0x4 DUP4 ADD MSTORE SWAP1 SWAP2 AND SWAP1 PUSH4 0xDA1F9888 SWAP1 PUSH1 0x24 ADD PUSH1 0x20 PUSH1 0x40 MLOAD DUP1 DUP4 SUB DUP2 DUP7 DUP1 EXTCODESIZE ISZERO DUP1 ISZERO PUSH2 0x1448 JUMPI PUSH1 0x0 DUP1 REVERT JUMPDEST POP GAS STATICCALL ISZERO DUP1 ISZERO PUSH2 0x145C JUMPI RETURNDATASIZE PUSH1 0x0 DUP1 RETURNDATACOPY RETURNDATASIZE PUSH1 0x0 REVERT JUMPDEST POP POP POP POP PUSH1 0x40 MLOAD RETURNDATASIZE PUSH1 0x1F NOT PUSH1 0x1F DUP3 ADD AND DUP3 ADD DUP1 PUSH1 0x40 MSTORE POP DUP2 ADD SWAP1 PUSH2 0x1480 SWAP2 SWAP1 PUSH2 0x221D JUMP JUMPDEST SWAP2 POP PUSH1 0x1 PUSH1 0x1 PUSH1 0xA0 SHL SUB DUP3 AND ISZERO PUSH2 0x153B JUMPI PUSH1 0x0 PUSH1 0x11 DUP3 DUP2 SLOAD DUP2 LT PUSH2 0x14A6 JUMPI PUSH2 0x14A6 PUSH2 0x1F4C JUMP JUMPDEST PUSH1 0x0 SWAP2 DUP3 MSTORE PUSH1 0x20 DUP3 KECCAK256 ADD SLOAD SWAP2 POP PUSH2 0x3E8 PUSH2 0x14C0 DUP4 DUP8 PUSH2 0x215A JUMP JUMPDEST PUSH2 0x14CA SWAP2 SWAP1 PUSH2 0x2179 JUMP JUMPDEST SWAP1 POP PUSH2 0x14D6 DUP5 DUP3 PUSH2 0x1B4F JUMP JUMPDEST PUSH32 0x61F9EFC09A7E2BFF53ABE4FCF2714BB516B14CE6B8893742CC587DE5CD88079 CALLER DUP6 PUSH2 0x1504 DUP7 PUSH1 0x1 PUSH2 0x1F78 JUMP JUMPDEST PUSH1 0x40 DUP1 MLOAD PUSH1 0x1 PUSH1 0x1 PUSH1 0xA0 SHL SUB SWAP5 DUP6 AND DUP2 MSTORE SWAP4 SWAP1 SWAP3 AND PUSH1 0x20 DUP5 ADD MSTORE SWAP1 DUP3 ADD MSTORE PUSH1 0x60 DUP2 ADD DUP4 SWAP1 MSTORE PUSH1 0x80 ADD PUSH1 0x40 MLOAD DUP1 SWAP2 SUB SWAP1 LOG1 POP POP PUSH2 0x1540 JUMP JUMPDEST PUSH2 0x1552 JUMP JUMPDEST DUP1 PUSH2 0x154A DUP2 PUSH2 0x213F JUMP JUMPDEST SWAP2 POP POP PUSH2 0x1376 JUMP JUMPDEST POP POP POP POP POP POP JUMP JUMPDEST CALLER PUSH1 0x0 SWAP1 DUP2 MSTORE PUSH1 0x6 PUSH1 0x20 MSTORE PUSH1 0x40 SWAP1 KECCAK256 PUSH1 0xB DUP2 ADD SLOAD PUSH1 0x4 SWAP2 SWAP1 PUSH1 0xFF AND PUSH2 0x15D4 JUMPI PUSH1 0x40 MLOAD PUSH3 0x461BCD PUSH1 0xE5 SHL DUP2 MSTORE PUSH1 0x20 PUSH1 0x4 DUP3 ADD MSTORE PUSH1 0x2A PUSH1 0x24 DUP3 ADD MSTORE PUSH32 0x77697468647261773A2063616E2774207769746864726177206D6F7265207468 PUSH1 0x44 DUP3 ADD MSTORE PUSH10 0x185B8819195C1BDCDA5D PUSH1 0xB2 SHL PUSH1 0x64 DUP3 ADD MSTORE PUSH1 0x84 ADD PUSH2 0x59A JUMP JUMPDEST PUSH2 0x15DC PUSH2 0x19BF JUMP JUMPDEST DUP1 PUSH1 0x2 ADD SLOAD PUSH1 0xD PUSH1 0x0 DUP3 DUP3 SLOAD PUSH2 0x15F2 SWAP2 SWAP1 PUSH2 0x219B JUMP JUMPDEST SWAP3 POP POP DUP2 SWAP1 SSTORE POP PUSH1 0x0 DUP2 PUSH1 0x3 ADD SLOAD PUSH11 0xC097CE7BC90715B34B9F1 PUSH1 0x24 SHL DUP5 PUSH1 0x1 ADD SLOAD DUP5 PUSH1 0x2 ADD SLOAD PUSH2 0x1623 SWAP2 SWAP1 PUSH2 0x215A JUMP JUMPDEST PUSH2 0x162D SWAP2 SWAP1 PUSH2 0x2179 JUMP JUMPDEST PUSH2 0x1637 SWAP2 SWAP1 PUSH2 0x219B JUMP JUMPDEST SWAP1 POP DUP1 DUP3 PUSH1 0x9 ADD PUSH1 0x0 DUP3 DUP3 SLOAD PUSH2 0x164D SWAP2 SWAP1 PUSH2 0x1F78 JUMP JUMPDEST SWAP1 SWAP2 SSTORE POP POP PUSH1 0x1 DUP4 ADD SLOAD PUSH1 0x2 DUP4 ADD SLOAD PUSH11 0xC097CE7BC90715B34B9F1 PUSH1 0x24 SHL SWAP2 PUSH2 0x1675 SWAP2 PUSH2 0x215A JUMP JUMPDEST PUSH2 0x167F SWAP2 SWAP1 PUSH2 0x2179 JUMP JUMPDEST PUSH1 0x3 DUP4 ADD SSTORE PUSH1 0x0 JUMPDEST PUSH1 0x5 DUP4 ADD SLOAD DUP2 LT ISZERO PUSH2 0x1731 JUMPI PUSH1 0xE SLOAD PUSH1 0x5 DUP5 ADD DUP1 SLOAD PUSH1 0x1 PUSH1 0x1 PUSH1 0xA0 SHL SUB SWAP1 SWAP3 AND SWAP2 PUSH4 0x23B872DD SWAP2 ADDRESS SWAP2 CALLER SWAP2 SWAP1 DUP7 SWAP1 DUP2 LT PUSH2 0x16C3 JUMPI PUSH2 0x16C3 PUSH2 0x1F4C JUMP JUMPDEST SWAP1 PUSH1 0x0 MSTORE PUSH1 0x20 PUSH1 0x0 KECCAK256 ADD SLOAD PUSH1 0x40 MLOAD DUP5 PUSH4 0xFFFFFFFF AND PUSH1 0xE0 SHL DUP2 MSTORE PUSH1 0x4 ADD PUSH2 0x16EC SWAP4 SWAP3 SWAP2 SWAP1 PUSH2 0x211B JUMP JUMPDEST PUSH1 0x0 PUSH1 0x40 MLOAD DUP1 DUP4 SUB DUP2 PUSH1 0x0 DUP8 DUP1 EXTCODESIZE ISZERO DUP1 ISZERO PUSH2 0x1706 JUMPI PUSH1 0x0 DUP1 REVERT JUMPDEST POP GAS CALL ISZERO DUP1 ISZERO PUSH2 0x171A JUMPI RETURNDATASIZE PUSH1 0x0 DUP1 RETURNDATACOPY RETURNDATASIZE PUSH1 0x0 REVERT JUMPDEST POP POP POP POP DUP1 DUP1 PUSH2 0x1729 SWAP1 PUSH2 0x213F JUMP JUMPDEST SWAP2 POP POP PUSH2 0x1687 JUMP JUMPDEST POP DUP2 PUSH1 0x7 ADD SLOAD TIMESTAMP LT PUSH2 0x1749 JUMPI PUSH1 0x64 PUSH1 0xC DUP4 ADD SSTORE PUSH2 0x1887 JUMP JUMPDEST PUSH1 0x0 PUSH3 0x15180 DUP4 PUSH1 0x6 ADD SLOAD TIMESTAMP PUSH2 0x175F SWAP2 SWAP1 PUSH2 0x219B JUMP JUMPDEST PUSH2 0x1769 SWAP2 SWAP1 PUSH2 0x2179 JUMP JUMPDEST SWAP1 POP PUSH1 0x1 DUP2 LT ISZERO PUSH2 0x1779 JUMPI PUSH1 0x0 DUP1 REVERT JUMPDEST PUSH1 0x8 DUP4 ADD SLOAD PUSH2 0x17A2 JUMPI PUSH2 0x178D DUP2 PUSH1 0xA PUSH2 0x215A JUMP JUMPDEST PUSH2 0x1798 SWAP1 PUSH1 0x1E PUSH2 0x1F78 JUMP JUMPDEST PUSH1 0xC DUP5 ADD SSTORE PUSH2 0x1885 JUMP JUMPDEST DUP3 PUSH1 0x8 ADD SLOAD PUSH1 0x1 EQ ISZERO PUSH2 0x1816 JUMPI DUP1 PUSH1 0x1 LT DUP1 ISZERO PUSH2 0x17C0 JUMPI POP PUSH1 0x4 DUP2 GT ISZERO JUMPDEST ISZERO PUSH2 0x17D1 JUMPI PUSH1 0x1E PUSH1 0xC DUP5 ADD SSTORE PUSH2 0x1885 JUMP JUMPDEST DUP1 PUSH1 0x4 LT DUP1 ISZERO PUSH2 0x17E2 JUMPI POP PUSH1 0x8 DUP2 GT ISZERO JUMPDEST ISZERO PUSH2 0x17F3 JUMPI PUSH1 0x3C PUSH1 0xC DUP5 ADD SSTORE PUSH2 0x1885 JUMP JUMPDEST DUP1 PUSH1 0x8 LT DUP1 ISZERO PUSH2 0x1804 JUMPI POP PUSH1 0xD DUP2 GT ISZERO JUMPDEST ISZERO PUSH2 0x1811 JUMPI PUSH1 0x50 PUSH1 0xC DUP5 ADD SSTORE JUMPDEST PUSH2 0x1885 JUMP JUMPDEST DUP3 PUSH1 0x8 ADD SLOAD PUSH1 0x2 EQ ISZERO PUSH2 0x1885 JUMPI DUP1 PUSH1 0x1 LT DUP1 ISZERO PUSH2 0x1834 JUMPI POP PUSH1 0xA DUP2 GT ISZERO JUMPDEST ISZERO PUSH2 0x1845 JUMPI PUSH1 0x1E PUSH1 0xC DUP5 ADD SSTORE PUSH2 0x1885 JUMP JUMPDEST DUP1 PUSH1 0xA LT DUP1 ISZERO PUSH2 0x1856 JUMPI POP PUSH1 0x14 DUP2 GT ISZERO JUMPDEST ISZERO PUSH2 0x1867 JUMPI PUSH1 0x3C PUSH1 0xC DUP5 ADD SSTORE PUSH2 0x1885 JUMP JUMPDEST DUP1 PUSH1 0x14 LT DUP1 ISZERO PUSH2 0x1878 JUMPI POP PUSH1 0x1D DUP2 GT ISZERO JUMPDEST ISZERO PUSH2 0x1885 JUMPI PUSH1 0x50 PUSH1 0xC DUP5 ADD SSTORE JUMPDEST POP JUMPDEST PUSH1 0x4 DUP1 DUP4 ADD DUP1 SLOAD PUSH1 0x0 SWAP1 SWAP2 SSTORE PUSH1 0x1 SLOAD PUSH1 0x40 MLOAD PUSH4 0x23B872DD PUSH1 0xE0 SHL DUP2 MSTORE SWAP2 SWAP3 PUSH1 0x1 PUSH1 0x1 PUSH1 0xA0 SHL SUB SWAP1 SWAP2 AND SWAP2 PUSH4 0x23B872DD SWAP2 PUSH2 0x18C7 SWAP2 ADDRESS SWAP2 CALLER SWAP2 DUP8 SWAP2 ADD PUSH2 0x211B JUMP JUMPDEST PUSH1 0x20 PUSH1 0x40 MLOAD DUP1 DUP4 SUB DUP2 PUSH1 0x0 DUP8 DUP1 EXTCODESIZE ISZERO DUP1 ISZERO PUSH2 0x18E1 JUMPI PUSH1 0x0 DUP1 REVERT JUMPDEST POP GAS CALL ISZERO DUP1 ISZERO PUSH2 0x18F5 JUMPI RETURNDATASIZE PUSH1 0x0 DUP1 RETURNDATACOPY RETURNDATASIZE PUSH1 0x0 REVERT JUMPDEST POP POP POP POP PUSH1 0x40 MLOAD RETURNDATASIZE PUSH1 0x1F NOT PUSH1 0x1F DUP3 ADD AND DUP3 ADD DUP1 PUSH1 0x40 MSTORE POP DUP2 ADD SWAP1 PUSH2 0x1919 SWAP2 SWAP1 PUSH2 0x21B2 JUMP JUMPDEST POP PUSH1 0x40 DUP1 MLOAD PUSH1 0x0 DUP2 MSTORE PUSH1 0x20 DUP2 ADD SWAP2 DUP3 SWAP1 MSTORE MLOAD PUSH2 0x1939 SWAP2 PUSH1 0x5 DUP7 ADD SWAP2 PUSH2 0x1BF1 JUMP JUMPDEST POP POP PUSH1 0x0 PUSH1 0x1 DUP4 ADD DUP2 SWAP1 SSTORE PUSH1 0x2 DUP4 ADD SSTORE POP PUSH1 0xB ADD DUP1 SLOAD PUSH2 0xFFFF NOT AND PUSH2 0x100 OR SWAP1 SSTORE POP JUMP JUMPDEST PUSH1 0x0 PUSH1 0xD SLOAD PUSH1 0x0 EQ ISZERO PUSH2 0x1973 JUMPI POP PUSH2 0x2710 SWAP2 SWAP1 POP JUMP JUMPDEST DUP2 PUSH2 0x1984 JUMPI PUSH8 0xDE0B6B3A7640000 SWAP2 POP JUMPDEST PUSH2 0x3E8 PUSH1 0xD SLOAD PUSH1 0x3 SLOAD DUP5 PUSH2 0x1998 SWAP2 SWAP1 PUSH2 0x215A JUMP JUMPDEST PUSH2 0x19A5 SWAP1 PUSH3 0x76A700 PUSH2 0x215A JUMP JUMPDEST PUSH2 0x19AF SWAP2 SWAP1 PUSH2 0x2179 JUMP JUMPDEST PUSH2 0x19B9 SWAP2 SWAP1 PUSH2 0x2179 JUMP JUMPDEST SWAP3 SWAP2 POP POP JUMP JUMPDEST PUSH1 0xC SLOAD PUSH1 0x4 SWAP1 PUSH1 0x0 SWAP1 NUMBER LT PUSH2 0x19D6 JUMPI PUSH1 0xC SLOAD PUSH2 0x19D8 JUMP JUMPDEST NUMBER JUMPDEST DUP3 SLOAD SWAP1 SWAP2 POP DUP2 GT PUSH2 0x19E7 JUMPI POP POP JUMP JUMPDEST PUSH1 0xD SLOAD PUSH2 0x19F2 JUMPI SWAP1 SSTORE JUMP JUMPDEST PUSH1 0x0 PUSH2 0x1A02 DUP4 PUSH1 0x0 ADD SLOAD DUP4 PUSH2 0x1AE0 JUMP JUMPDEST PUSH1 0xD SLOAD SWAP1 SWAP2 POP PUSH2 0x1A20 DUP3 PUSH11 0xC097CE7BC90715B34B9F1 PUSH1 0x24 SHL PUSH2 0x215A JUMP JUMPDEST PUSH2 0x1A2A SWAP2 SWAP1 PUSH2 0x2179 JUMP JUMPDEST DUP4 PUSH1 0x1 ADD SLOAD PUSH2 0x1A39 SWAP2 SWAP1 PUSH2 0x1F78 JUMP JUMPDEST PUSH1 0x1 DUP5 ADD SSTORE POP POP NUMBER SWAP1 SSTORE JUMP JUMPDEST PUSH1 0x0 SLOAD PUSH1 0x1 PUSH1 0x1 PUSH1 0xA0 SHL SUB AND CALLER EQ PUSH2 0x1A6F JUMPI PUSH1 0x40 MLOAD PUSH3 0x461BCD PUSH1 0xE5 SHL DUP2 MSTORE PUSH1 0x4 ADD PUSH2 0x59A SWAP1 PUSH2 0x21CF JUMP JUMPDEST PUSH1 0x1 PUSH1 0x1 PUSH1 0xA0 SHL SUB DUP2 AND PUSH2 0x1AD4 JUMPI PUSH1 0x40 MLOAD PUSH3 0x461BCD PUSH1 0xE5 SHL DUP2 MSTORE PUSH1 0x20 PUSH1 0x4 DUP3 ADD MSTORE PUSH1 0x26 PUSH1 0x24 DUP3 ADD MSTORE PUSH32 0x4F776E61626C653A206E6577206F776E657220697320746865207A65726F2061 PUSH1 0x44 DUP3 ADD MSTORE PUSH6 0x646472657373 PUSH1 0xD0 SHL PUSH1 0x64 DUP3 ADD MSTORE PUSH1 0x84 ADD PUSH2 0x59A JUMP JUMPDEST PUSH2 0x1ADD DUP2 PUSH2 0x1AFF JUMP JUMPDEST POP JUMP JUMPDEST PUSH1 0x0 DUP1 PUSH2 0x1AED DUP5 DUP5 PUSH2 0x219B JUMP JUMPDEST SWAP1 POP PUSH1 0x0 PUSH1 0x3 SLOAD DUP3 PUSH2 0xC96 SWAP2 SWAP1 PUSH2 0x215A JUMP JUMPDEST PUSH1 0x0 DUP1 SLOAD PUSH1 0x1 PUSH1 0x1 PUSH1 0xA0 SHL SUB DUP4 DUP2 AND PUSH1 0x1 PUSH1 0x1 PUSH1 0xA0 SHL SUB NOT DUP4 AND DUP2 OR DUP5 SSTORE PUSH1 0x40 MLOAD SWAP2 SWAP1 SWAP3 AND SWAP3 DUP4 SWAP2 PUSH32 0x8BE0079C531659141344CD1FD0A4F28419497F9722A3DAAFE3B4186F6B6457E0 SWAP2 SWAP1 LOG3 POP POP JUMP JUMPDEST PUSH1 0x1 SLOAD PUSH1 0x40 MLOAD PUSH4 0xA9059CBB PUSH1 0xE0 SHL DUP2 MSTORE PUSH1 0x1 PUSH1 0x1 PUSH1 0xA0 SHL SUB DUP5 DUP2 AND PUSH1 0x4 DUP4 ADD MSTORE PUSH1 0x24 DUP3 ADD DUP5 SWAP1 MSTORE SWAP1 SWAP2 AND SWAP1 PUSH4 0xA9059CBB SWAP1 PUSH1 0x44 ADD PUSH1 0x20 PUSH1 0x40 MLOAD DUP1 DUP4 SUB DUP2 PUSH1 0x0 DUP8 DUP1 EXTCODESIZE ISZERO DUP1 ISZERO PUSH2 0x1B9D JUMPI PUSH1 0x0 DUP1 REVERT JUMPDEST POP GAS CALL ISZERO DUP1 ISZERO PUSH2 0x1BB1 JUMPI RETURNDATASIZE PUSH1 0x0 DUP1 RETURNDATACOPY RETURNDATASIZE PUSH1 0x0 REVERT JUMPDEST POP POP POP POP PUSH1 0x40 MLOAD RETURNDATASIZE PUSH1 0x1F NOT PUSH1 0x1F DUP3 ADD AND DUP3 ADD DUP1 PUSH1 0x40 MSTORE POP DUP2 ADD SWAP1 PUSH2 0x1BD5 SWAP2 SWAP1 PUSH2 0x21B2 JUMP JUMPDEST POP DUP1 PUSH1 0x2 PUSH1 0x0 DUP3 DUP3 SLOAD PUSH2 0x1BE8 SWAP2 SWAP1 PUSH2 0x1F78 JUMP JUMPDEST SWAP1 SWAP2 SSTORE POP POP POP POP JUMP JUMPDEST DUP3 DUP1 SLOAD DUP3 DUP3 SSTORE SWAP1 PUSH1 0x0 MSTORE PUSH1 0x20 PUSH1 0x0 KECCAK256 SWAP1 DUP2 ADD SWAP3 DUP3 ISZERO PUSH2 0x1C2C JUMPI SWAP2 PUSH1 0x20 MUL DUP3 ADD JUMPDEST DUP3 DUP2 GT ISZERO PUSH2 0x1C2C JUMPI DUP3 MLOAD DUP3 SSTORE SWAP2 PUSH1 0x20 ADD SWAP2 SWAP1 PUSH1 0x1 ADD SWAP1 PUSH2 0x1C11 JUMP JUMPDEST POP PUSH2 0x1C38 SWAP3 SWAP2 POP PUSH2 0x1C3C JUMP JUMPDEST POP SWAP1 JUMP JUMPDEST JUMPDEST DUP1 DUP3 GT ISZERO PUSH2 0x1C38 JUMPI PUSH1 0x0 DUP2 SSTORE PUSH1 0x1 ADD PUSH2 0x1C3D JUMP JUMPDEST PUSH4 0x4E487B71 PUSH1 0xE0 SHL PUSH1 0x0 MSTORE PUSH1 0x41 PUSH1 0x4 MSTORE PUSH1 0x24 PUSH1 0x0 REVERT JUMPDEST PUSH1 0x40 MLOAD PUSH2 0x1A0 DUP2 ADD PUSH8 0xFFFFFFFFFFFFFFFF DUP2 GT DUP3 DUP3 LT OR ISZERO PUSH2 0x1C8B JUMPI PUSH2 0x1C8B PUSH2 0x1C51 JUMP JUMPDEST PUSH1 0x40 MSTORE SWAP1 JUMP JUMPDEST PUSH1 0x40 MLOAD PUSH1 0x1F DUP3 ADD PUSH1 0x1F NOT AND DUP2 ADD PUSH8 0xFFFFFFFFFFFFFFFF DUP2 GT DUP3 DUP3 LT OR ISZERO PUSH2 0x1CBA JUMPI PUSH2 0x1CBA PUSH2 0x1C51 JUMP JUMPDEST PUSH1 0x40 MSTORE SWAP2 SWAP1 POP JUMP JUMPDEST PUSH1 0xFF DUP2 AND DUP2 EQ PUSH2 0x1ADD JUMPI PUSH1 0x0 DUP1 REVERT JUMPDEST DUP1 CALLDATALOAD PUSH2 0x1CDC DUP2 PUSH2 0x1CC2 JUMP JUMPDEST SWAP2 SWAP1 POP JUMP JUMPDEST PUSH1 0x0 DUP1 PUSH1 0x40 DUP4 DUP6 SUB SLT ISZERO PUSH2 0x1CF4 JUMPI PUSH1 0x0 DUP1 REVERT JUMPDEST DUP3 CALLDATALOAD PUSH8 0xFFFFFFFFFFFFFFFF DUP1 DUP3 GT ISZERO PUSH2 0x1D0C JUMPI PUSH1 0x0 DUP1 REVERT JUMPDEST DUP2 DUP6 ADD SWAP2 POP DUP6 PUSH1 0x1F DUP4 ADD SLT PUSH2 0x1D20 JUMPI PUSH1 0x0 DUP1 REVERT JUMPDEST DUP2 CALLDATALOAD PUSH1 0x20 DUP3 DUP3 GT ISZERO PUSH2 0x1D34 JUMPI PUSH2 0x1D34 PUSH2 0x1C51 JUMP JUMPDEST DUP2 PUSH1 0x5 SHL SWAP3 POP PUSH2 0x1D45 DUP2 DUP5 ADD PUSH2 0x1C91 JUMP JUMPDEST DUP3 DUP2 MSTORE SWAP3 DUP5 ADD DUP2 ADD SWAP3 DUP2 DUP2 ADD SWAP1 DUP10 DUP6 GT ISZERO PUSH2 0x1D5F JUMPI PUSH1 0x0 DUP1 REVERT JUMPDEST SWAP5 DUP3 ADD SWAP5 JUMPDEST DUP5 DUP7 LT ISZERO PUSH2 0x1D7D JUMPI DUP6 CALLDATALOAD DUP3 MSTORE SWAP5 DUP3 ADD SWAP5 SWAP1 DUP3 ADD SWAP1 PUSH2 0x1D64 JUMP JUMPDEST SWAP7 POP PUSH2 0x1D8C SWAP1 POP DUP8 DUP3 ADD PUSH2 0x1CD1 JUMP JUMPDEST SWAP5 POP POP POP POP POP SWAP3 POP SWAP3 SWAP1 POP JUMP JUMPDEST PUSH1 0x0 PUSH1 0x20 DUP3 DUP5 SUB SLT ISZERO PUSH2 0x1DAB JUMPI PUSH1 0x0 DUP1 REVERT JUMPDEST POP CALLDATALOAD SWAP2 SWAP1 POP JUMP JUMPDEST PUSH1 0x1 PUSH1 0x1 PUSH1 0xA0 SHL SUB DUP2 AND DUP2 EQ PUSH2 0x1ADD JUMPI PUSH1 0x0 DUP1 REVERT JUMPDEST PUSH1 0x0 PUSH1 0x20 DUP3 DUP5 SUB SLT ISZERO PUSH2 0x1DD9 JUMPI PUSH1 0x0 DUP1 REVERT JUMPDEST DUP2 CALLDATALOAD PUSH2 0x1DE4 DUP2 PUSH2 0x1DB2 JUMP JUMPDEST SWAP4 SWAP3 POP POP POP JUMP JUMPDEST PUSH1 0x0 DUP2 MLOAD DUP1 DUP5 MSTORE PUSH1 0x20 DUP1 DUP6 ADD SWAP5 POP DUP1 DUP5 ADD PUSH1 0x0 JUMPDEST DUP4 DUP2 LT ISZERO PUSH2 0x1E1B JUMPI DUP2 MLOAD DUP8 MSTORE SWAP6 DUP3 ADD SWAP6 SWAP1 DUP3 ADD SWAP1 PUSH1 0x1 ADD PUSH2 0x1DFF JUMP JUMPDEST POP SWAP5 SWAP6 SWAP5 POP POP POP POP POP JUMP JUMPDEST PUSH1 0x20 DUP2 MSTORE DUP2 MLOAD PUSH1 0x20 DUP3 ADD MSTORE PUSH1 0x20 DUP3 ADD MLOAD PUSH1 0x40 DUP3 ADD MSTORE PUSH1 0x40 DUP3 ADD MLOAD PUSH1 0x60 DUP3 ADD MSTORE PUSH1 0x60 DUP3 ADD MLOAD PUSH1 0x80 DUP3 ADD MSTORE PUSH1 0x80 DUP3 ADD MLOAD PUSH1 0xA0 DUP3 ADD MSTORE PUSH1 0x0 PUSH1 0xA0 DUP4 ADD MLOAD PUSH2 0x1C0 DUP1 PUSH1 0xC0 DUP6 ADD MSTORE PUSH2 0x1E77 PUSH2 0x1E0 DUP6 ADD DUP4 PUSH2 0x1DEB JUMP JUMPDEST PUSH1 0xC0 DUP7 ADD MLOAD PUSH1 0xE0 DUP7 DUP2 ADD SWAP2 SWAP1 SWAP2 MSTORE DUP7 ADD MLOAD PUSH2 0x100 DUP1 DUP8 ADD SWAP2 SWAP1 SWAP2 MSTORE DUP7 ADD MLOAD PUSH2 0x120 DUP1 DUP8 ADD SWAP2 SWAP1 SWAP2 MSTORE DUP7 ADD MLOAD PUSH2 0x140 DUP1 DUP8 ADD SWAP2 SWAP1 SWAP2 MSTORE DUP7 ADD MLOAD PUSH2 0x160 DUP1 DUP8 ADD SWAP2 SWAP1 SWAP2 MSTORE DUP7 ADD MLOAD SWAP1 SWAP3 POP PUSH2 0x180 PUSH2 0x1ECF DUP2 DUP8 ADD DUP4 ISZERO ISZERO SWAP1 MSTORE JUMP JUMPDEST DUP7 ADD MLOAD SWAP1 POP PUSH2 0x1A0 PUSH2 0x1EE4 DUP7 DUP3 ADD DUP4 ISZERO ISZERO SWAP1 MSTORE JUMP JUMPDEST SWAP6 SWAP1 SWAP6 ADD MLOAD SWAP4 ADD SWAP3 SWAP1 SWAP3 MSTORE POP SWAP2 SWAP1 POP JUMP JUMPDEST DUP1 ISZERO ISZERO DUP2 EQ PUSH2 0x1ADD JUMPI PUSH1 0x0 DUP1 REVERT JUMPDEST PUSH1 0x0 PUSH1 0x20 DUP3 DUP5 SUB SLT ISZERO PUSH2 0x1F15 JUMPI PUSH1 0x0 DUP1 REVERT JUMPDEST DUP2 CALLDATALOAD PUSH2 0x1DE4 DUP2 PUSH2 0x1EF5 JUMP JUMPDEST PUSH1 0x0 DUP1 PUSH1 0x40 DUP4 DUP6 SUB SLT ISZERO PUSH2 0x1F33 JUMPI PUSH1 0x0 DUP1 REVERT JUMPDEST DUP3 CALLDATALOAD PUSH2 0x1F3E DUP2 PUSH2 0x1DB2 JUMP JUMPDEST SWAP5 PUSH1 0x20 SWAP4 SWAP1 SWAP4 ADD CALLDATALOAD SWAP4 POP POP POP JUMP JUMPDEST PUSH4 0x4E487B71 PUSH1 0xE0 SHL PUSH1 0x0 MSTORE PUSH1 0x32 PUSH1 0x4 MSTORE PUSH1 0x24 PUSH1 0x0 REVERT JUMPDEST PUSH4 0x4E487B71 PUSH1 0xE0 SHL PUSH1 0x0 MSTORE PUSH1 0x11 PUSH1 0x4 MSTORE PUSH1 0x24 PUSH1 0x0 REVERT JUMPDEST PUSH1 0x0 DUP3 NOT DUP3 GT ISZERO PUSH2 0x1F8B JUMPI PUSH2 0x1F8B PUSH2 0x1F62 JUMP JUMPDEST POP ADD SWAP1 JUMP JUMPDEST DUP1 MLOAD PUSH2 0x1CDC DUP2 PUSH2 0x1CC2 JUMP JUMPDEST DUP1 MLOAD PUSH8 0xFFFFFFFFFFFFFFFF DUP2 AND DUP2 EQ PUSH2 0x1CDC JUMPI PUSH1 0x0 DUP1 REVERT JUMPDEST PUSH1 0x0 DUP3 PUSH1 0x1F DUP4 ADD SLT PUSH2 0x1FC4 JUMPI PUSH1 0x0 DUP1 REVERT JUMPDEST PUSH1 0x40 MLOAD PUSH1 0xA0 DUP2 ADD DUP2 DUP2 LT PUSH8 0xFFFFFFFFFFFFFFFF DUP3 GT OR ISZERO PUSH2 0x1FE7 JUMPI PUSH2 0x1FE7 PUSH2 0x1C51 JUMP JUMPDEST PUSH1 0x40 MSTORE DUP1 PUSH1 0xA0 DUP5 ADD DUP6 DUP2 GT ISZERO PUSH2 0x1FFC JUMPI PUSH1 0x0 DUP1 REVERT JUMPDEST DUP5 JUMPDEST DUP2 DUP2 LT ISZERO PUSH2 0x201D JUMPI PUSH2 0x200F DUP2 PUSH2 0x1F9B JUMP JUMPDEST DUP4 MSTORE PUSH1 0x20 SWAP3 DUP4 ADD SWAP3 ADD PUSH2 0x1FFE JUMP JUMPDEST POP SWAP2 SWAP6 SWAP5 POP POP POP POP POP JUMP JUMPDEST PUSH1 0x0 PUSH2 0x220 DUP3 DUP5 SUB SLT ISZERO PUSH2 0x203B JUMPI PUSH1 0x0 DUP1 REVERT JUMPDEST PUSH2 0x2043 PUSH2 0x1C67 JUMP JUMPDEST DUP3 MLOAD DUP2 MSTORE PUSH2 0x2053 PUSH1 0x20 DUP5 ADD PUSH2 0x1F90 JUMP JUMPDEST PUSH1 0x20 DUP3 ADD MSTORE PUSH2 0x2064 PUSH1 0x40 DUP5 ADD PUSH2 0x1F90 JUMP JUMPDEST PUSH1 0x40 DUP3 ADD MSTORE PUSH2 0x2075 PUSH1 0x60 DUP5 ADD PUSH2 0x1F90 JUMP JUMPDEST PUSH1 0x60 DUP3 ADD MSTORE PUSH2 0x2086 PUSH1 0x80 DUP5 ADD PUSH2 0x1F90 JUMP JUMPDEST PUSH1 0x80 DUP3 ADD MSTORE PUSH2 0x2097 PUSH1 0xA0 DUP5 ADD PUSH2 0x1F90 JUMP JUMPDEST PUSH1 0xA0 DUP3 ADD MSTORE PUSH2 0x20A8 PUSH1 0xC0 DUP5 ADD PUSH2 0x1F90 JUMP JUMPDEST PUSH1 0xC0 DUP3 ADD MSTORE PUSH2 0x20B9 PUSH1 0xE0 DUP5 ADD PUSH2 0x1F90 JUMP JUMPDEST PUSH1 0xE0 DUP3 ADD MSTORE PUSH2 0x100 PUSH2 0x20CC DUP2 DUP6 ADD PUSH2 0x1F9B JUMP JUMPDEST SWAP1 DUP3 ADD MSTORE PUSH2 0x120 PUSH2 0x20DE DUP5 DUP3 ADD PUSH2 0x1F9B JUMP JUMPDEST SWAP1 DUP3 ADD MSTORE PUSH2 0x140 PUSH2 0x20F1 DUP6 DUP6 DUP4 ADD PUSH2 0x1FB3 JUMP JUMPDEST SWAP1 DUP3 ADD MSTORE PUSH2 0x1E0 DUP4 ADD MLOAD PUSH2 0x160 DUP3 ADD MSTORE PUSH2 0x210E PUSH2 0x200 DUP5 ADD PUSH2 0x1F90 JUMP JUMPDEST PUSH2 0x180 DUP3 ADD MSTORE SWAP4 SWAP3 POP POP POP JUMP JUMPDEST PUSH1 0x1 PUSH1 0x1 PUSH1 0xA0 SHL SUB SWAP4 DUP5 AND DUP2 MSTORE SWAP2 SWAP1 SWAP3 AND PUSH1 0x20 DUP3 ADD MSTORE PUSH1 0x40 DUP2 ADD SWAP2 SWAP1 SWAP2 MSTORE PUSH1 0x60 ADD SWAP1 JUMP JUMPDEST PUSH1 0x0 PUSH1 0x0 NOT DUP3 EQ ISZERO PUSH2 0x2153 JUMPI PUSH2 0x2153 PUSH2 0x1F62 JUMP JUMPDEST POP PUSH1 0x1 ADD SWAP1 JUMP JUMPDEST PUSH1 0x0 DUP2 PUSH1 0x0 NOT DIV DUP4 GT DUP3 ISZERO ISZERO AND ISZERO PUSH2 0x2174 JUMPI PUSH2 0x2174 PUSH2 0x1F62 JUMP JUMPDEST POP MUL SWAP1 JUMP JUMPDEST PUSH1 0x0 DUP3 PUSH2 0x2196 JUMPI PUSH4 0x4E487B71 PUSH1 0xE0 SHL PUSH1 0x0 MSTORE PUSH1 0x12 PUSH1 0x4 MSTORE PUSH1 0x24 PUSH1 0x0 REVERT JUMPDEST POP DIV SWAP1 JUMP JUMPDEST PUSH1 0x0 DUP3 DUP3 LT ISZERO PUSH2 0x21AD JUMPI PUSH2 0x21AD PUSH2 0x1F62 JUMP JUMPDEST POP SUB SWAP1 JUMP JUMPDEST PUSH1 0x0 PUSH1 0x20 DUP3 DUP5 SUB SLT ISZERO PUSH2 0x21C4 JUMPI PUSH1 0x0 DUP1 REVERT JUMPDEST DUP2 MLOAD PUSH2 0x1DE4 DUP2 PUSH2 0x1EF5 JUMP JUMPDEST PUSH1 0x20 DUP1 DUP3 MSTORE DUP2 DUP2 ADD MSTORE PUSH32 0x4F776E61626C653A2063616C6C6572206973206E6F7420746865206F776E6572 PUSH1 0x40 DUP3 ADD MSTORE PUSH1 0x60 ADD SWAP1 JUMP JUMPDEST PUSH1 0x0 PUSH1 0x20 DUP3 DUP5 SUB SLT ISZERO PUSH2 0x2216 JUMPI PUSH1 0x0 DUP1 REVERT JUMPDEST POP MLOAD SWAP2 SWAP1 POP JUMP JUMPDEST PUSH1 0x0 PUSH1 0x20 DUP3 DUP5 SUB SLT ISZERO PUSH2 0x222F JUMPI PUSH1 0x0 DUP1 REVERT JUMPDEST DUP2 MLOAD PUSH2 0x1DE4 DUP2 PUSH2 0x1DB2 JUMP INVALID LOG2 PUSH5 0x6970667358 0x22 SLT KECCAK256 0x1F 0xC2 0x21 GT 0x23 0x25 PUSH9 0x212A9F1B1C9B140341 GT 0xFB 0xD8 EXTCODESIZE PUSH5 0xC5B42785E5 LOG1 0x5F DUP7 SMOD EXP 0x2A PUSH5 0x736F6C6343 STOP ADDMOD ADDMOD STOP CALLER "
    },
    "gasEstimates": {
      "creation": {
        "codeDepositCost": "1763200",
        "executionCost": "infinite",
        "totalCost": "infinite"
      },
      "external": {
        "APYPercent(uint256)": "infinite",
        "claimHero()": "infinite",
        "decideClaimForm(bool)": "infinite",
        "deposit(uint256[],uint8)": "infinite",
        "depositMdao()": "infinite",
        "emergencyWithdraw(address)": "infinite",
        "endBlock()": "2331",
        "erc20()": "2382",
        "form1InviteAward(uint256)": "4653",
        "form2InviteAward(uint256)": "4655",
        "getUserInfo(address)": "infinite",
        "hero()": "2404",
        "inviterContract()": "2383",
        "lockInfo(address,uint256)": "6970",
        "lockRewardWithdraw(uint256)": "infinite",
        "owner()": "2442",
        "paidOut()": "2329",
        "pending(address)": "infinite",
        "poolInfo()": "4518",
        "renounceOwnership()": "28204",
        "rewardPerBlock()": "2373",
        "startBlock()": "2352",
        "totalAllocPoint()": "2330",
        "totalPending()": "infinite",
        "totalPowers()": "2330",
        "transferOwnership(address)": "infinite",
        "updatePool()": "infinite",
        "userInfo(address)": "26133"
      },
      "internal": {
        "computerReward(uint256,uint256)": "2311",
        "erc20Transfer(address,uint256)": "infinite"
      }
    },
    "methodIdentifiers": {
      "APYPercent(uint256)": "d4796ef2",
      "claimHero()": "c91b46c6",
      "decideClaimForm(bool)": "9f608da3",
      "deposit(uint256[],uint8)": "0af72c69",
      "depositMdao()": "3bddf74e",
      "emergencyWithdraw(address)": "6ff1c9bc",
      "endBlock()": "083c6323",
      "erc20()": "785e9e86",
      "form1InviteAward(uint256)": "60343cae",
      "form2InviteAward(uint256)": "10b43acf",
      "getUserInfo(address)": "6386c1c7",
      "hero()": "7f513d5d",
      "inviterContract()": "47646b9e",
      "lockInfo(address,uint256)": "b2520a7c",
      "lockRewardWithdraw(uint256)": "acff05b0",
      "owner()": "8da5cb5b",
      "paidOut()": "5c76ca2d",
      "pending(address)": "5eebea20",
      "poolInfo()": "5a2f3d09",
      "renounceOwnership()": "715018a6",
      "rewardPerBlock()": "8ae39cac",
      "startBlock()": "48cd4cb1",
      "totalAllocPoint()": "17caf6f1",
      "totalPending()": "3f90916a",
      "totalPowers()": "6917c501",
      "transferOwnership(address)": "f2fde38b",
      "updatePool()": "e3161ddd",
      "userInfo(address)": "1959a002"
    }
  },
  "abi": [
    {
      "inputs": [
        {
          "internalType": "contract IRichHero",
          "name": "_hero",
          "type": "address"
        },
        {
          "internalType": "address",
          "name": "_invite",
          "type": "address"
        },
        {
          "internalType": "contract IERC20",
          "name": "_erc20",
          "type": "address"
        },
        {
          "internalType": "uint256",
          "name": "_rewardPerBlock",
          "type": "uint256"
        },
        {
          "internalType": "uint256",
          "name": "_startBlock",
          "type": "uint256"
        }
      ],
      "stateMutability": "nonpayable",
      "type": "constructor"
    },
    {
      "anonymous": false,
      "inputs": [
        {
          "indexed": true,
          "internalType": "address",
          "name": "user",
          "type": "address"
        },
        {
          "indexed": false,
          "internalType": "uint256",
          "name": "amount",
          "type": "uint256"
        }
      ],
      "name": "Deposit",
      "type": "event"
    },
    {
      "anonymous": false,
      "inputs": [
        {
          "indexed": true,
          "internalType": "address",
          "name": "user",
          "type": "address"
        },
        {
          "indexed": false,
          "internalType": "uint256",
          "name": "amount",
          "type": "uint256"
        }
      ],
      "name": "EmergencyWithdraw",
      "type": "event"
    },
    {
      "anonymous": false,
      "inputs": [
        {
          "indexed": false,
          "internalType": "address",
          "name": "buyer",
          "type": "address"
        },
        {
          "indexed": false,
          "internalType": "address",
          "name": "inviter",
          "type": "address"
        },
        {
          "indexed": false,
          "internalType": "uint256",
          "name": "generation",
          "type": "uint256"
        },
        {
          "indexed": false,
          "internalType": "uint256",
          "name": "amount",
          "type": "uint256"
        }
      ],
      "name": "InviterClaim",
      "type": "event"
    },
    {
      "anonymous": false,
      "inputs": [
        {
          "indexed": true,
          "internalType": "address",
          "name": "previousOwner",
          "type": "address"
        },
        {
          "indexed": true,
          "internalType": "address",
          "name": "newOwner",
          "type": "address"
        }
      ],
      "name": "OwnershipTransferred",
      "type": "event"
    },
    {
      "anonymous": false,
      "inputs": [
        {
          "indexed": true,
          "internalType": "address",
          "name": "user",
          "type": "address"
        },
        {
          "indexed": false,
          "internalType": "uint256",
          "name": "amount",
          "type": "uint256"
        }
      ],
      "name": "Withdraw",
      "type": "event"
    },
    {
      "inputs": [
        {
          "internalType": "uint256",
          "name": "power",
          "type": "uint256"
        }
      ],
      "name": "APYPercent",
      "outputs": [
        {
          "internalType": "uint256",
          "name": "apy",
          "type": "uint256"
        }
      ],
      "stateMutability": "view",
      "type": "function"
    },
    {
      "inputs": [],
      "name": "claimHero",
      "outputs": [],
      "stateMutability": "nonpayable",
      "type": "function"
    },
    {
      "inputs": [
        {
          "internalType": "bool",
          "name": "isLockClaim",
          "type": "bool"
        }
      ],
      "name": "decideClaimForm",
      "outputs": [],
      "stateMutability": "nonpayable",
      "type": "function"
    },
    {
      "inputs": [
        {
          "internalType": "uint256[]",
          "name": "_tokenIds",
          "type": "uint256[]"
        },
        {
          "internalType": "uint8",
          "name": "difficulty",
          "type": "uint8"
        }
      ],
      "name": "deposit",
      "outputs": [],
      "stateMutability": "nonpayable",
      "type": "function"
    },
    {
      "inputs": [],
      "name": "depositMdao",
      "outputs": [],
      "stateMutability": "nonpayable",
      "type": "function"
    },
    {
      "inputs": [
        {
          "internalType": "address",
          "name": "token",
          "type": "address"
        }
      ],
      "name": "emergencyWithdraw",
      "outputs": [],
      "stateMutability": "nonpayable",
      "type": "function"
    },
    {
      "inputs": [],
      "name": "endBlock",
      "outputs": [
        {
          "internalType": "uint256",
          "name": "",
          "type": "uint256"
        }
      ],
      "stateMutability": "view",
      "type": "function"
    },
    {
      "inputs": [],
      "name": "erc20",
      "outputs": [
        {
          "internalType": "contract IERC20",
          "name": "",
          "type": "address"
        }
      ],
      "stateMutability": "view",
      "type": "function"
    },
    {
      "inputs": [
        {
          "internalType": "uint256",
          "name": "",
          "type": "uint256"
        }
      ],
      "name": "form1InviteAward",
      "outputs": [
        {
          "internalType": "uint256",
          "name": "",
          "type": "uint256"
        }
      ],
      "stateMutability": "view",
      "type": "function"
    },
    {
      "inputs": [
        {
          "internalType": "uint256",
          "name": "",
          "type": "uint256"
        }
      ],
      "name": "form2InviteAward",
      "outputs": [
        {
          "internalType": "uint256",
          "name": "",
          "type": "uint256"
        }
      ],
      "stateMutability": "view",
      "type": "function"
    },
    {
      "inputs": [
        {
          "internalType": "address",
          "name": "user",
          "type": "address"
        }
      ],
      "name": "getUserInfo",
      "outputs": [
        {
          "components": [
            {
              "internalType": "uint256",
              "name": "goldens",
              "type": "uint256"
            },
            {
              "internalType": "uint256",
              "name": "realPower",
              "type": "uint256"
            },
            {
              "internalType": "uint256",
              "name": "buffedPower",
              "type": "uint256"
            },
            {
              "internalType": "uint256",
              "name": "rewardDebt",
              "type": "uint256"
            },
            {
              "internalType": "uint256",
              "name": "mdao",
              "type": "uint256"
            },
            {
              "internalType": "uint256[]",
              "name": "tokenIds",
              "type": "uint256[]"
            },
            {
              "internalType": "uint256",
              "name": "startTime",
              "type": "uint256"
            },
            {
              "internalType": "uint256",
              "name": "endTime",
              "type": "uint256"
            },
            {
              "internalType": "uint256",
              "name": "difficulty",
              "type": "uint256"
            },
            {
              "internalType": "uint256",
              "name": "pendingAmount",
              "type": "uint256"
            },
            {
              "internalType": "uint256",
              "name": "lastLockId",
              "type": "uint256"
            },
            {
              "internalType": "bool",
              "name": "inFarm",
              "type": "bool"
            },
            {
              "internalType": "bool",
              "name": "isUnClaim",
              "type": "bool"
            },
            {
              "internalType": "uint256",
              "name": "exitPercent",
              "type": "uint256"
            }
          ],
          "internalType": "struct HeroFarm.UserInfo",
          "name": "",
          "type": "tuple"
        }
      ],
      "stateMutability": "view",
      "type": "function"
    },
    {
      "inputs": [],
      "name": "hero",
      "outputs": [
        {
          "internalType": "contract IRichHero",
          "name": "",
          "type": "address"
        }
      ],
      "stateMutability": "view",
      "type": "function"
    },
    {
      "inputs": [],
      "name": "inviterContract",
      "outputs": [
        {
          "internalType": "contract Invite",
          "name": "",
          "type": "address"
        }
      ],
      "stateMutability": "view",
      "type": "function"
    },
    {
      "inputs": [
        {
          "internalType": "address",
          "name": "",
          "type": "address"
        },
        {
          "internalType": "uint256",
          "name": "",
          "type": "uint256"
        }
      ],
      "name": "lockInfo",
      "outputs": [
        {
          "internalType": "uint256",
          "name": "claimStartTime",
          "type": "uint256"
        },
        {
          "internalType": "uint256",
          "name": "rewardAmount",
          "type": "uint256"
        },
        {
          "internalType": "uint256",
          "name": "claimedAmount",
          "type": "uint256"
        }
      ],
      "stateMutability": "view",
      "type": "function"
    },
    {
      "inputs": [
        {
          "internalType": "uint256",
          "name": "lockId",
          "type": "uint256"
        }
      ],
      "name": "lockRewardWithdraw",
      "outputs": [],
      "stateMutability": "nonpayable",
      "type": "function"
    },
    {
      "inputs": [],
      "name": "owner",
      "outputs": [
        {
          "internalType": "address",
          "name": "",
          "type": "address"
        }
      ],
      "stateMutability": "view",
      "type": "function"
    },
    {
      "inputs": [],
      "name": "paidOut",
      "outputs": [
        {
          "internalType": "uint256",
          "name": "",
          "type": "uint256"
        }
      ],
      "stateMutability": "view",
      "type": "function"
    },
    {
      "inputs": [
        {
          "internalType": "address",
          "name": "_user",
          "type": "address"
        }
      ],
      "name": "pending",
      "outputs": [
        {
          "internalType": "uint256",
          "name": "",
          "type": "uint256"
        }
      ],
      "stateMutability": "view",
      "type": "function"
    },
    {
      "inputs": [],
      "name": "poolInfo",
      "outputs": [
        {
          "internalType": "uint256",
          "name": "lastRewardBlock",
          "type": "uint256"
        },
        {
          "internalType": "uint256",
          "name": "accPowerPerShare",
          "type": "uint256"
        }
      ],
      "stateMutability": "view",
      "type": "function"
    },
    {
      "inputs": [],
      "name": "renounceOwnership",
      "outputs": [],
      "stateMutability": "nonpayable",
      "type": "function"
    },
    {
      "inputs": [],
      "name": "rewardPerBlock",
      "outputs": [
        {
          "internalType": "uint256",
          "name": "",
          "type": "uint256"
        }
      ],
      "stateMutability": "view",
      "type": "function"
    },
    {
      "inputs": [],
      "name": "startBlock",
      "outputs": [
        {
          "internalType": "uint256",
          "name": "",
          "type": "uint256"
        }
      ],
      "stateMutability": "view",
      "type": "function"
    },
    {
      "inputs": [],
      "name": "totalAllocPoint",
      "outputs": [
        {
          "internalType": "uint256",
          "name": "",
          "type": "uint256"
        }
      ],
      "stateMutability": "view",
      "type": "function"
    },
    {
      "inputs": [],
      "name": "totalPending",
      "outputs": [
        {
          "internalType": "uint256",
          "name": "",
          "type": "uint256"
        }
      ],
      "stateMutability": "view",
      "type": "function"
    },
    {
      "inputs": [],
      "name": "totalPowers",
      "outputs": [
        {
          "internalType": "uint256",
          "name": "",
          "type": "uint256"
        }
      ],
      "stateMutability": "view",
      "type": "function"
    },
    {
      "inputs": [
        {
          "internalType": "address",
          "name": "newOwner",
          "type": "address"
        }
      ],
      "name": "transferOwnership",
      "outputs": [],
      "stateMutability": "nonpayable",
      "type": "function"
    },
    {
      "inputs": [],
      "name": "updatePool",
      "outputs": [],
      "stateMutability": "nonpayable",
      "type": "function"
    },
    {
      "inputs": [
        {
          "internalType": "address",
          "name": "",
          "type": "address"
        }
      ],
      "name": "userInfo",
      "outputs": [
        {
          "internalType": "uint256",
          "name": "goldens",
          "type": "uint256"
        },
        {
          "internalType": "uint256",
          "name": "realPower",
          "type": "uint256"
        },
        {
          "internalType": "uint256",
          "name": "buffedPower",
          "type": "uint256"
        },
        {
          "internalType": "uint256",
          "name": "rewardDebt",
          "type": "uint256"
        },
        {
          "internalType": "uint256",
          "name": "mdao",
          "type": "uint256"
        },
        {
          "internalType": "uint256",
          "name": "startTime",
          "type": "uint256"
        },
        {
          "internalType": "uint256",
          "name": "endTime",
          "type": "uint256"
        },
        {
          "internalType": "uint256",
          "name": "difficulty",
          "type": "uint256"
        },
        {
          "internalType": "uint256",
          "name": "pendingAmount",
          "type": "uint256"
        },
        {
          "internalType": "uint256",
          "name": "lastLockId",
          "type": "uint256"
        },
        {
          "internalType": "bool",
          "name": "inFarm",
          "type": "bool"
        },
        {
          "internalType": "bool",
          "name": "isUnClaim",
          "type": "bool"
        },
        {
          "internalType": "uint256",
          "name": "exitPercent",
          "type": "uint256"
        }
      ],
      "stateMutability": "view",
      "type": "function"
    }
  ]
}