{
  "contractName": "Staking",
  "abi": [
    {
      "inputs": [
        {
          "internalType": "address",
          "name": "hero",
          "type": "address"
        },
        {
          "internalType": "address",
          "name": "mmc",
          "type": "address"
        }
      ],
      "stateMutability": "nonpayable",
      "type": "constructor"
    },
    {
      "anonymous": false,
      "inputs": [
        {
          "indexed": false,
          "internalType": "address",
          "name": "player",
          "type": "address"
        },
        {
          "indexed": false,
          "internalType": "uint256",
          "name": "timestamp",
          "type": "uint256"
        }
      ],
      "name": "NewStaking",
      "type": "event"
    },
    {
      "anonymous": false,
      "inputs": [
        {
          "indexed": true,
          "internalType": "address",
          "name": "previousOwner",
          "type": "address"
        },
        {
          "indexed": true,
          "internalType": "address",
          "name": "newOwner",
          "type": "address"
        }
      ],
      "name": "OwnershipTransferred",
      "type": "event"
    },
    {
      "inputs": [
        {
          "internalType": "uint8",
          "name": "",
          "type": "uint8"
        },
        {
          "internalType": "uint8",
          "name": "",
          "type": "uint8"
        }
      ],
      "name": "combinesAddition",
      "outputs": [
        {
          "internalType": "uint64",
          "name": "",
          "type": "uint64"
        }
      ],
      "stateMutability": "view",
      "type": "function"
    },
    {
      "inputs": [],
      "name": "owner",
      "outputs": [
        {
          "internalType": "address",
          "name": "",
          "type": "address"
        }
      ],
      "stateMutability": "view",
      "type": "function"
    },
    {
      "inputs": [
        {
          "internalType": "address",
          "name": "",
          "type": "address"
        }
      ],
      "name": "players",
      "outputs": [
        {
          "internalType": "bool",
          "name": "inStaking",
          "type": "bool"
        },
        {
          "internalType": "uint8",
          "name": "level",
          "type": "uint8"
        },
        {
          "internalType": "uint256",
          "name": "percent",
          "type": "uint256"
        },
        {
          "internalType": "uint256",
          "name": "totalReward",
          "type": "uint256"
        },
        {
          "internalType": "uint256",
          "name": "canClaimReward",
          "type": "uint256"
        },
        {
          "components": [
            {
              "internalType": "uint8",
              "name": "stakingDifficulty",
              "type": "uint8"
            },
            {
              "internalType": "uint64",
              "name": "stakingStartTime",
              "type": "uint64"
            },
            {
              "internalType": "uint64",
              "name": "stakingEndTime",
              "type": "uint64"
            },
            {
              "internalType": "uint256",
              "name": "power",
              "type": "uint256"
            },
            {
              "internalType": "uint256[]",
              "name": "stakingHeros",
              "type": "uint256[]"
            }
          ],
          "internalType": "struct Staking.StakingInfo",
          "name": "stakingInfo",
          "type": "tuple"
        }
      ],
      "stateMutability": "view",
      "type": "function"
    },
    {
      "inputs": [],
      "name": "renounceOwnership",
      "outputs": [],
      "stateMutability": "nonpayable",
      "type": "function"
    },
    {
      "inputs": [
        {
          "internalType": "address",
          "name": "newOwner",
          "type": "address"
        }
      ],
      "name": "transferOwnership",
      "outputs": [],
      "stateMutability": "nonpayable",
      "type": "function"
    },
    {
      "inputs": [
        {
          "internalType": "uint256[]",
          "name": "tokenIds",
          "type": "uint256[]"
        },
        {
          "internalType": "bool",
          "name": "hasCombine",
          "type": "bool"
        },
        {
          "internalType": "uint8",
          "name": "combineCamp",
          "type": "uint8"
        },
        {
          "internalType": "uint8",
          "name": "combineId",
          "type": "uint8"
        },
        {
          "internalType": "uint8",
          "name": "difficulty",
          "type": "uint8"
        }
      ],
      "name": "staking",
      "outputs": [],
      "stateMutability": "nonpayable",
      "type": "function"
    },
    {
      "inputs": [
        {
          "internalType": "address",
          "name": "account",
          "type": "address"
        }
      ],
      "name": "calculateReward",
      "outputs": [
        {
          "internalType": "uint256",
          "name": "",
          "type": "uint256"
        },
        {
          "internalType": "uint256",
          "name": "",
          "type": "uint256"
        }
      ],
      "stateMutability": "view",
      "type": "function"
    },
    {
      "inputs": [
        {
          "internalType": "address",
          "name": "account",
          "type": "address"
        }
      ],
      "name": "calculatePercent",
      "outputs": [
        {
          "internalType": "uint256",
          "name": "",
          "type": "uint256"
        }
      ],
      "stateMutability": "view",
      "type": "function"
    },
    {
      "inputs": [],
      "name": "claimHero",
      "outputs": [],
      "stateMutability": "nonpayable",
      "type": "function"
    },
    {
      "inputs": [],
      "name": "claimReward",
      "outputs": [],
      "stateMutability": "nonpayable",
      "type": "function"
    },
    {
      "inputs": [],
      "name": "occupy",
      "outputs": [],
      "stateMutability": "nonpayable",
      "type": "function"
    },
    {
      "inputs": [
        {
          "internalType": "address",
          "name": "account",
          "type": "address"
        }
      ],
      "name": "getStakingHeros",
      "outputs": [
        {
          "internalType": "uint256[]",
          "name": "tokenIds",
          "type": "uint256[]"
        }
      ],
      "stateMutability": "view",
      "type": "function"
    },
    {
      "inputs": [
        {
          "internalType": "uint256[]",
          "name": "tokenIds",
          "type": "uint256[]"
        }
      ],
      "name": "isCombine",
      "outputs": [
        {
          "internalType": "bool",
          "name": "combine",
          "type": "bool"
        },
        {
          "internalType": "uint8",
          "name": "combineCamp",
          "type": "uint8"
        },
        {
          "internalType": "uint8",
          "name": "combineId",
          "type": "uint8"
        }
      ],
      "stateMutability": "view",
      "type": "function"
    }
  ],
  "bytecode": "0x6002805460ff60a01b1916600560a11b17905560e060405260076080908152600f60a052601e60c052620000379060039081620010ec565b50604080516060810182526103e8815261038460208201526103209181019190915262000069906004906003620011a5565b50600580546001600160401b0319166101f41790553480156200008b57600080fd5b5060405162002fba38038062002fba833981016040819052620000ae91620012e3565b620000b9336200109c565b600180546001600160a01b038085166001600160a01b031992831617835560028054918516919092161781556040805160a0810182528381526020808201949094529081018290526060810191909152600360808201526000805260008051602062002f7a83398151915290915262000156907f25de49357469a04e2e0a55d7b7cd85100a918cf55d734f01066d3fdc0f7b9d3290600562001216565b506040805160a08101825260018082526003602080840182905260009484018590526060840192909252608083015291805260008051602062002f5a833981519152909152620001ca907fc65916d663d52b0a18b63681e34ad6e3e8bb58d57f662b8e7e045ab09fab038590600562001216565b507f3b543ac468519aa6396aba1a2611925510398aac61d1cc7b45f433e69042eb5780546001600160401b0319166096179055604080518082019091526003808252602082810191909152600160005260008051602062002f7a83398151915290526200025b907f7c836334d5ab49f854acdcda28542386b2e447238f01a7b550cf4b73e9b03dc590600262001216565b5060408051808201909152600080825260016020808401829052915260008051602062002f5a8339815191529052620002b8907ffa778a20fba1b88d7c7b188dc1c4eb115a1fb0693025fb44b92eb4ffe9dbb68e90600262001216565b507f1b4dc45c9661b5e2a9811ed27e0e8a4fabbe5923764fe958074e81903e799e3a80546001600160401b03191660641790556040805180820190915260028082526003602083810191909152600082905260008051602062002f7a833981519152905262000349917f3c482f52128b8e7c79a8c64b5cb21db10ef8ac55884ff031453ef660972fabef9162001216565b506040805180820190915260028082526020808301829052600082905260008051602062002f5a8339815191529052620003a5917f036f0bf5c2c5c073196f6fb1488fb5c6d4ab60c37eeee12ba5ea6ad19555aa719162001216565b507f76f2babce59d6f09fcd3a78f4d43564d0f12e1ef1118541ef82e4d2eba87286580546001600160401b0319166050179055604080518082019091526001815260026020828101829052600360005260008051602062002f7a833981519152905262000434917fecb4726ced1f7640e56a0ff67fc049ee90e524a52510c3eec5a9c123aaadf4a19162001216565b50604080518082019091526004808252602080830191909152600360005260008051602062002f5a833981519152905262000493907fed1a59d391841cd382d393969d4cc2b42696716b842306a168373ad09ae6924090600262001216565b507fc12e897952fcdd8e77a4bcc5c86367b4cd9a162c784a0ca6d3bc9958a0088c5780546001600160401b031916601e1790556040805160a081018252600280825260208281019190915260039282018390526060820183905260808201929092526000805260008051602062002efa8339815191529091526200053b907f558e8cd53b467e9e56a1fc646b287819bef55e9e9b1cef531285b78fb892c6f590600562001216565b506040805160a081018252600080825260016020808401829052938301829052606083015260036080830152805260008051602062002f1a833981519152909152620005ab907fdab972c909d3e9becdfd720143424fd6fe2ef53f3b2f9c4b45f582e7e83b39bb90600562001216565b507f8f715efb45b3f43fabf5a352a1ea9cb6a7048b73a9b21d92cf2b6cf34d9fd22d80546001600160401b03191660c81790556040805160608101825260038082526020828101829052600493830193909352600160005260008051602062002efa83398151915290925262000644917f0f44af8394d12f4d2493817decf7ae460f4010dc707becaefcc522b156cf8914919062001216565b5060408051606081018252600080825260016020808401829052938301829052905260008051602062002f1a833981519152909152620006a8907f7e3f8087768dd46afafd904b64320d27e506312b937487e59f767c7732ae8f6e90600362001216565b507f201cfe56e3078299f26d8ce4ac47862ef90d0160f4a50f7c80a39a29152f508580546001600160401b03191660fa1790556040805180820190915260028082526003602083810191909152600082905260008051602062002efa833981519152905262000739917fc5ab4a74920faf8555678fb3de0a5cca786df401ae6d7a3376075739d60be5a49162001216565b50604080518082019091526004815260026020808301829052600082905260008051602062002f1a833981519152905262000796917fae5957d19e851187bdb8518f7f1b23fbcf1fdb4f1669df5cf30a17b1260123a89162001216565b507f42d6dcf6034961381a956f3f0aba0686eabb39443946ef1727a03421db3fd34280546001600160401b03191660461790556040805180820190915260028082526003602083810182905260009190915260008051602062002efa833981519152905262000827917f08db3a5a3fef285ea17549d954d4a42d5c978a4a3404fc6e5a3c7fac90d38d409162001216565b506040805180820190915260028082526020808301829052600360005260008051602062002f1a833981519152905262000883917fe109eb232531d13b92e9baec800e9aed4ca7b9e4f3a98167c52170a2a319c8019162001216565b507f7becf0f14006b75102d88163b9a180e6d265130330e33a84aa26f94e719bd1a380546001600160401b031916603c179055604080516080810182526003808252602082810182905292820181905260608201526000805260008051602062002f9a8339815191529091526200091e907f406ee0964527577a0bccb366233e2f254586a2d995f6070e6b471f3ea71efedd90600462001216565b50604080516080810182526000808252600160208084019190915260029383019390935260036060830152805260008051602062002f3a8339815191529091526200098d907f41ed2064a2505e8931dbb2320fd86e162a7d3b8432a0a598c14563f81d4a686590600462001216565b507fd9690336c04c7b4a20664fc4d426cbd085363881e4fde5554979ba447badb41b80546001600160401b03191660c81790556040805180820190915260028082526003602083810191909152600160005260008051602062002f9a833981519152905262000a1e917f1e54a9adfa3544fab9ab81a89b64f496f0df09417f9acc8af4ec2e2fddf082079162001216565b506040805180820190915260008082526020808301829052600190915260008051602062002f3a833981519152905262000a7c907fca4700bbe1246d28963b0e13e0965c53a70427b0f30f330575d330c1a693f3a390600262001216565b507fa727b787328a6323f84d3c66505f54e7f7ed1be1f21a1ecc1c9d9d02ac2a5dbc80546001600160401b03191660461790556040805180820190915260018082526020828101919091526002600081905260008051602062002f9a83398151915290915262000b0e917f712462b36ea0b35fd0622653c37f5bdd6dd34cda95cd12b2c4ca4a4d334b8c869162001216565b50604080518082019091526004815260056020808301919091526002600081905260008051602062002f3a83398151915290915262000b6f917f67222cbf9f2b523b96e5c595cb2c623c5d799e1f368c069c1beea01eccc99b979162001216565b507f9678bae8f2d6a992a613d536c02028a8eae96ec2ab9f3f7f6e312c7f0f38861080546001600160401b031916601e1790556040805160a08101825260018082526020828101919091526002928201839052606082018390526080820192909252600360005260008051602062002f9a83398151915290915262000c18907f7db66dcb65d0b0376b0c1a71df499296a98267c8f5febf9e59b466ff55ff3a9d90600562001216565b506040805160a0810182526000808252600360208084018290529383018290526001606084015260046080840152905260008051602062002f3a83398151915290915262000c8a907f8e79a4c74bb48fbfa1f0012d7da6c0ec4031b3a7bc55783715b0f09b125cf76590600562001216565b507f6926a2205f90c23d98f625c45767fa4e43d7ad718c426d65a2d8ec1fa268f0b680546001600160401b031916606417905560408051808201909152600280825260036020838101919091526000805260008051602062002eba833981519152905262000d1a917f5798f4f0752d195991ab691e224b24872242216d5f3f308dde1f6fe41a20ce629162001216565b50604080518082019091526000808252602080830182905290805260008051602062002eda833981519152905262000d76907f0af7a712f0269ac4ebb9702af6ed8b32e4d1003e80a6cc8e4121e3e8480672c990600262001216565b507f205df099ecb3b99a602408f8138be7d120093dd9ff429a6ede336c9b6d5006ac80546001600160401b0319166064179055604080516020818101909252600281526001600081905260008051602062002eba83398151915290925262000e01917f5483de04ea1e9fa4c03153791827a6fe680e6bc3d78971c7103225ebeb2b8b3d919062001216565b506040805160208082019092526001808252600081905260008051602062002eda83398151915290925262000e59917fee26bdce9a0f44249be1ef1048fcff6a398728ad45453e3c3411382b17b19776919062001216565b507f329cbae33ff921d114da652fb4797ac3c47244ad2f4f95dd9d5a42172799b75f80546001600160401b031916604617905560408051602081810190925260048152600260005260008051602062002eba83398151915290915262000ee3907f4bbbfe63892f7fb937f21aa1c3c175820eb547fe5f009e54a6a127072e702c8690600162001216565b5060408051602080820190925260008082526002905260008051602062002eda83398151915290915262000f3b907fdfffa646a8ed92e88f1b7525370d9629bf14d0cc1f3b223f009517bddb844cad90600162001216565b507fbd922c22a37989ef60ae9e489be4f9e12d6f07e316c15239e286deea1842ad8780546001600160401b03191660641790556040805160608101825260018082526020828101919091526003928201839052600083905260008051602062002eba833981519152905262000fd3917fc1edb2d7009ca817d98c42e4ad8757745fb1787ec511f589fd1ae636ca91d9f9919062001216565b50604080516060810182526000808252600160208084018290529383015260039081905260008051602062002eda83398151915290925262001038917fcb515f4ba914fbc5ab9702a562432cdc8e1740c800f5f72184fff18008a9d72b919062001216565b50506003600052507f625b35f5e76f098dd7c3a05b10e2e5e78a4a01228d60c3b143426cdf36d264556020527f8f79bde2fc0f4a471693ce40430610e5c26afbde59e1da0aed1470a1322f392480546001600160401b03191660641790556200131b565b600080546001600160a01b038381166001600160a01b0319831681178455604051919092169283917f8be0079c531659141344cd1fd0a4f28419497f9722a3daafe3b4186f6b6457e09190a35050565b82805482825590600052602060002090600301600490048101928215620011935791602002820160005b838211156200115c57835183826101000a8154816001600160401b03021916908360ff160217905550926020019260080160208160070104928301926001030262001116565b8015620011915782816101000a8154906001600160401b0302191690556008016020816007010492830192600103026200115c565b505b50620011a1929150620012af565b5090565b82805482825590600052602060002090600301600490048101928215620011935791602002820160005b838211156200115c57835183826101000a8154816001600160401b03021916908361ffff1602179055509260200192600801602081600701049283019260010302620011cf565b82805482825590600052602060002090601f01602090048101928215620011935791602002820160005b838211156200128057835183826101000a81548160ff021916908360ff160217905550926020019260010160208160000104928301926001030262001240565b8015620011915782816101000a81549060ff021916905560010160208160000104928301926001030262001280565b5b80821115620011a15760008155600101620012b0565b80516001600160a01b0381168114620012de57600080fd5b919050565b60008060408385031215620012f757600080fd5b6200130283620012c6565b91506200131260208401620012c6565b90509250929050565b611b8f806200132b6000396000f3fe608060405234801561001057600080fd5b50600436106100bf5760003560e01c8063c717a12d1161007c578063c717a12d14610175578063c91b46c61461017d578063d671321914610185578063d82e3962146101a6578063e2eb41ff146101ce578063f2fde38b146101f3578063fa5f68c91461020657600080fd5b8063191306b1146100c4578063715018a6146100d95780638da5cb5b146100e15780639e42ab8f14610101578063b7f497cd14610121578063b88a802f1461016d575b600080fd5b6100d76100d2366004611540565b61023a565b005b6100d76105ac565b6000546040516001600160a01b0390911681526020015b60405180910390f35b61011461010f366004611629565b6105eb565b6040516100f89190611659565b61015561012f36600461169d565b60086020908152600092835260408084209091529082529020546001600160401b031681565b6040516001600160401b0390911681526020016100f8565b6100d7610680565b6100d761075c565b6100d76108c2565b610198610193366004611629565b610a6d565b6040519081526020016100f8565b6101b96101b4366004611629565b610c79565b604080519283526020830191909152016100f8565b6101e16101dc366004611629565b610e74565b6040516100f8969594939291906116d6565b6100d7610201366004611629565b610f45565b610219610214366004611791565b610fe0565b60408051931515845260ff92831660208501529116908201526060016100f8565b3360009081526009602052604090205460ff161561025757600080fd5b6000805b86518110156103b25760015487516000916001600160a01b0316906321d80111908a908590811061028e5761028e611805565b60200260200101516040518263ffffffff1660e01b81526004016102b491815260200190565b6102206040518083038186803b1580156102cd57600080fd5b505afa1580156102e1573d6000803e3d6000fd5b505050506040513d601f19601f8201168201806040525081019061030591906118b1565b90508061016001518361031891906119ba565b60015489519194506001600160a01b0316906323b872dd90339030908c908790811061034657610346611805565b60200260200101516040518463ffffffff1660e01b815260040161036c939291906119d2565b600060405180830381600087803b15801561038657600080fd5b505af115801561039a573d6000803e3d6000fd5b505050505080806103aa906119f6565b91505061025b565b5084156104075760ff8085166000908152600860209081526040808320938716835292905220546103e8906103f0906001600160401b0316826119ba565b6103fa9083611a11565b6104049190611a46565b90505b3360009081526009602052604090206003015415610455573360009081526009602052604090206003015461043d90600a611a11565b610448906064611a11565b61045290826119ba565b90505b3360009081526009602090815260409091208054600160ff1991821617825560048201805490911660ff86161790558751610498926006909201918901906113a9565b50336000908152600960205260409020600401805468ffffffffffffffff001916610100426001600160401b0316021790556003805460ff84169081106104e1576104e1611805565b90600052602060002090600491828204019190066008029054906101000a90046001600160401b0316620151806105189190611a5a565b61052b906001600160401b0316426119ba565b3360008181526009602090815260409182902060040180546001600160401b0395909516600160481b0267ffffffffffffffff60481b1990951694909417909355805191825242928201929092527f6edd1b14bace157564bf1e460d93df31ac949f777f52b38782067d3b4b2f8097910160405180910390a1505050505050565b6000546001600160a01b031633146105df5760405162461bcd60e51b81526004016105d690611a89565b60405180910390fd5b6105e96000611359565b565b6001600160a01b03811660009081526009602052604090205460609060ff1661061357919050565b6001600160a01b0382166000908152600960209081526040918290206006018054835181840281018401909452808452909183018282801561067457602002820191906000526020600020905b815481526020019060010190808311610660575b50505050509050919050565b3360009081526009602052604090205460ff161561069d57600080fd5b336000908152600960205260409020600301546106b957600080fd5b336000818152600960205260408082206003018054929055600254905163a9059cbb60e01b815260048101939093526024830182905290916001600160a01b039091169063a9059cbb90604401602060405180830381600087803b15801561072057600080fd5b505af1158015610734573d6000803e3d6000fd5b505050506040513d601f19601f820116820180604052508101906107589190611abe565b5050565b336000908152600960205260409020600101546103e81461077c57600080fd5b60025433600090815260096020526040902054600160a01b90910460ff90811661010090920416106107ad57600080fd5b336000908152600960205260408120600180820192909255805482906107dc908290610100900460ff16611adb565b825460ff91821661010093840a90810290830219909116179092553360009081526009602052604081205490935061081a92919004166103e8611a11565b3360009081526009602052604090205490915061084190600290610100900460ff16611b00565b60ff1661085757610854612710826119ba565b90505b600061086b670de0b6b3a764000083611a11565b336000908152600960205260408120600201805492935083929091906108929084906119ba565b909155505033600090815260096020526040812060030180548392906108b99084906119ba565b90915550505050565b3360009081526009602052604090205460ff166108de57600080fd5b60008060006108ec33610c79565b336000908152600960205260409020600401549193509150600160481b90046001600160401b031642111561092357819250610927565b8092505b60005b336000908152600960205260409020600601548110156109ef5760015433600081815260096020526040902060060180546001600160a01b03909316926323b872dd92309290918690811061098157610981611805565b90600052602060002001546040518463ffffffff1660e01b81526004016109aa939291906119d2565b600060405180830381600087803b1580156109c457600080fd5b505af11580156109d8573d6000803e3d6000fd5b5050505080806109e7906119f6565b91505061092a565b506109f933610a6d565b336000908152600960205260408120600181019290925560029091018054859290610a259084906119ba565b90915550503360009081526009602052604081206003018054859290610a4c9084906119ba565b9091555050336000908152600960205260409020805460ff19169055505050565b6001600160a01b03811660009081526009602052604081205460ff16610aac57506001600160a01b031660009081526009602052604090206001015490565b6001600160a01b0382166000908152600960205260408120600401546201518090610ae59061010090046001600160401b031642611b22565b610aef9190611a46565b6001600160a01b038416600090815260096020526040902060040154600380549293509160ff909116908110610b2757610b27611805565b6000918252602090912060048204015460039091166008026101000a90046001600160401b0316811115610bb3576001600160a01b03831660009081526009602052604090206004015460038054909160ff16908110610b8957610b89611805565b6000918252602090912060048204015460039091166008026101000a90046001600160401b031690505b6001600160a01b038316600090815260096020526040812054610100900460ff16610be181620f4240611a11565b610beb9190611a11565b6001600160a01b038516600090815260096020526040812060050154919250908290606490610c1a9086611a11565b610c249190611a46565b610c30906103e8611a11565b610c3a9190611a46565b6001600160a01b038616600090815260096020526040902060010154610c6091906119ba565b90506103e8811115610c7157506103e85b949350505050565b6001600160a01b038116600090815260096020526040812054819060ff16610ca657506000928392509050565b6001600160a01b0383166000908152600960205260408120600401546201518090610cdf9061010090046001600160401b031642611b22565b610ce99190611a46565b6001600160a01b038516600090815260096020526040902060040154600380549293509160ff909116908110610d2157610d21611805565b6000918252602090912060048204015460039091166008026101000a90046001600160401b0316811115610dad576001600160a01b03841660009081526009602052604090206004015460038054909160ff16908110610d8357610d83611805565b6000918252602090912060048204015460039091166008026101000a90046001600160401b031690505b6001600160a01b038416600090815260096020526040812060049081015481546064929160ff16908110610de357610de3611805565b600091825260208083206004830401546001600160a01b038a1684526009909152604090922060050154610e2f9260039092166008026101000a9091046001600160401b031690611a46565b610e399190611a46565b90506000670de0b6b3a7640000610e508385611a11565b610e5a9190611a11565b905080610e68600282611a46565b94509450505050915091565b6009602090815260009182526040918290208054600182015460028301546003840154865160a08101885260048601805460ff81811684526001600160401b036101008084048216868d0152600160481b90930416848c0152600589015460608501526006890180548c51818d0281018d01909d52808d52828a169c939099049091169996989597949693949293608086019390830182828015610f3757602002820191906000526020600020905b815481526020019060010190808311610f23575b505050505081525050905086565b6000546001600160a01b03163314610f6f5760405162461bcd60e51b81526004016105d690611a89565b6001600160a01b038116610fd45760405162461bcd60e51b815260206004820152602660248201527f4f776e61626c653a206e6577206f776e657220697320746865207a65726f206160448201526564647265737360d01b60648201526084016105d6565b610fdd81611359565b50565b600080808381816001600160401b03811115610ffe57610ffe611499565b60405190808252806020026020018201604052801561103757816020015b6110246113f4565b81526020019060019003908161101c5790505b50905060005b828160ff161015611117576001546001600160a01b03166321d80111898960ff851681811061106e5761106e611805565b905060200201356040518263ffffffff1660e01b815260040161109391815260200190565b6102206040518083038186803b1580156110ac57600080fd5b505afa1580156110c0573d6000803e3d6000fd5b505050506040513d601f19601f820116820180604052508101906110e491906118b1565b828260ff16815181106110f9576110f9611805565b6020026020010181905250808061110f90611b39565b91505061103d565b5060005b60048160ff16101561134e5760005b60048160ff16101561133b5760ff808316600090815260066020908152604080832085851684529091529020549081168510156111675750611329565b60005b8160ff168160ff161015611326576000805b878160ff1610156112da578560ff16878260ff16815181106111a0576111a0611805565b60200260200101516040015160ff16148015611235575060ff8087166000908152600660209081526040808320898516845290915290208054909185169081106111ec576111ec611805565b90600052602060002090602091828204019190069054906101000a900460ff1660ff16878260ff168151811061122457611224611805565b60200260200101516060015160ff16145b80156112ba575060ff80871660009081526007602090815260408083208985168452909152902080549091851690811061127157611271611805565b90600052602060002090602091828204019190069054906101000a900460ff1660ff16878260ff16815181106112a9576112a9611805565b60200260200101516080015160ff16145b156112c857600191506112da565b806112d281611b39565b91505061117c565b50806112e65750611326565b60ff83166112f5836001611adb565b60ff1614156113135750600198509296509094506113529350505050565b508061131e81611b39565b91505061116a565b50505b8061133381611b39565b91505061112a565b508061134681611b39565b91505061111b565b5050505b9250925092565b600080546001600160a01b038381166001600160a01b0319831681178455604051919092169283917f8be0079c531659141344cd1fd0a4f28419497f9722a3daafe3b4186f6b6457e09190a35050565b8280548282559060005260206000209081019282156113e4579160200282015b828111156113e45782518255916020019190600101906113c9565b506113f0929150611466565b5090565b604080516101a081018252600080825260208201819052918101829052606081018290526080810182905260a0810182905260c0810182905260e081018290526101008101829052610120810191909152610140810161145261147b565b815260006020820181905260409091015290565b5b808211156113f05760008155600101611467565b6040518060a001604052806005906020820280368337509192915050565b634e487b7160e01b600052604160045260246000fd5b6040516101a081016001600160401b03811182821017156114d2576114d2611499565b60405290565b604051601f8201601f191681016001600160401b038111828210171561150057611500611499565b604052919050565b8015158114610fdd57600080fd5b803561152181611508565b919050565b60ff81168114610fdd57600080fd5b803561152181611526565b600080600080600060a0868803121561155857600080fd5b85356001600160401b038082111561156f57600080fd5b818801915088601f83011261158357600080fd5b813560208282111561159757611597611499565b8160051b92506115a88184016114d8565b828152928401810192818101908c8511156115c257600080fd5b948201945b848610156115e0578535825294820194908201906115c7565b99506115ef90508a8201611516565b97505050505061160160408701611535565b925061160f60608701611535565b915061161d60808701611535565b90509295509295909350565b60006020828403121561163b57600080fd5b81356001600160a01b038116811461165257600080fd5b9392505050565b6020808252825182820181905260009190848201906040850190845b8181101561169157835183529284019291840191600101611675565b50909695505050505050565b600080604083850312156116b057600080fd5b82356116bb81611526565b915060208301356116cb81611526565b809150509250929050565b86151581526000602060ff88168184015286604084015285606084015284608084015260c060a0840152610160830160ff85511660c0850152818501516001600160401b0380821660e08701528060408801511661010087015250506060850151610120850152608085015160a0610140860152818151808452610180870191508483019350600092505b808310156117815783518252928401926001929092019190840190611761565b509b9a5050505050505050505050565b600080602083850312156117a457600080fd5b82356001600160401b03808211156117bb57600080fd5b818501915085601f8301126117cf57600080fd5b8135818111156117de57600080fd5b8660208260051b85010111156117f357600080fd5b60209290920196919550909350505050565b634e487b7160e01b600052603260045260246000fd5b805161152181611526565b80516001600160401b038116811461152157600080fd5b600082601f83011261184e57600080fd5b60405160a081018181106001600160401b038211171561187057611870611499565b6040528060a084018581111561188557600080fd5b845b818110156118a65761189881611826565b835260209283019201611887565b509195945050505050565b600061022082840312156118c457600080fd5b6118cc6114af565b825181526118dc6020840161181b565b60208201526118ed6040840161181b565b60408201526118fe6060840161181b565b606082015261190f6080840161181b565b608082015261192060a0840161181b565b60a082015261193160c0840161181b565b60c082015261194260e0840161181b565b60e0820152610100611955818501611826565b90820152610120611967848201611826565b9082015261014061197a8585830161183d565b908201526101e0830151610160820152611997610200840161181b565b6101808201529392505050565b634e487b7160e01b600052601160045260246000fd5b600082198211156119cd576119cd6119a4565b500190565b6001600160a01b039384168152919092166020820152604081019190915260600190565b6000600019821415611a0a57611a0a6119a4565b5060010190565b6000816000190483118215151615611a2b57611a2b6119a4565b500290565b634e487b7160e01b600052601260045260246000fd5b600082611a5557611a55611a30565b500490565b60006001600160401b0380831681851681830481118215151615611a8057611a806119a4565b02949350505050565b6020808252818101527f4f776e61626c653a2063616c6c6572206973206e6f7420746865206f776e6572604082015260600190565b600060208284031215611ad057600080fd5b815161165281611508565b600060ff821660ff84168060ff03821115611af857611af86119a4565b019392505050565b600060ff831680611b1357611b13611a30565b8060ff84160691505092915050565b600082821015611b3457611b346119a4565b500390565b600060ff821660ff811415611b5057611b506119a4565b6001019291505056fea2646970667358221220d8c0298c4dd67993876cb8585ccd22235456e1b7f05247ce256ac241596e4fcd64736f6c6343000809003375f96ab15d697e93042dc45b5c896c4b27e89bb6eaf39475c5c371cb2513f7d23be6fd20d5acfde5b873b48692cd31f4d3c7e8ee8a813af4696af8859e5ca6c63e5fec24aa4dc4e5aee2e025e51e1392c72a2500577559fae9665c6d52bd6a31b39221ace053465ec3453ce2b36430bd138b997ecea25c1043da0c366812b828b7c774451310d1be4108bc180d1b52823cb0ee0274a6c0081bcaf94f115fb96d6d5257204ebe7d88fd91ae87941cb2dd9d8062b64ae5a2bd2d28ec40b9fbf6df54cdd369e4e8a8515e52ca72ec816c2101831ad1f18bf44102ed171459c9b4f88819ef417987f8ae7a81f42cdfb18815282fe989326fbff903d13cf0e03ace29",
  "immutableReferences": {},
  "source": "// SPDX-License-Identifier: SimPL-2.0\n\npragma solidity ^0.8.0;\npragma experimental ABIEncoderV2;\n\nimport \"./IRichHero.sol\";\n\nimport \"@openzeppelin/contracts/access/Ownable.sol\";\nimport \"@openzeppelin/contracts/token/ERC20/IERC20.sol\";\n\nimport \"@openzeppelin/contracts/utils/math/SafeMath.sol\";\n\n/**\n* @title Staking - Romance of the Three Kingdoms Staking\n*\n*\n* Docs: \n*\n* Version v1.1.0\n*\n*/\n\ncontract Staking is Ownable { \n    using SafeMath for uint256; \n\n    IRichHero HERO; \n    IERC20 MMC; \n    uint256 constant MMC_BASE = 1e18;\n    uint256 constant LV_BASE = 1000000;\n    uint256 constant PCT_BASE = 1000;\n    uint256 constant LV_BONUS_BASE = 1000;\n\n    struct StakingInfo { \n        uint8 stakingDifficulty; \n        uint64 stakingStartTime; \n        uint64 stakingEndTime; \n        uint256 power;\n        uint256[] stakingHeros; \n    } \n\n    struct PlayerInfo { \n        bool inStaking;\n        uint8 level;\n        uint256 percent;\n        uint256 totalReward;\n        uint256 canClaimReward;\n        StakingInfo stakingInfo;\n    }\n\n    uint8 totalLevel = 10;\n    uint64[] difficultyTime = [7, 15, 30]; //0, 1, 2\n    uint64[] difficultySpeed = [1000, 900, 800];\n    uint64 exitPct = 500;\n\n    mapping (uint8 => mapping(uint8 => uint8[])) combinesRarity;\n    mapping (uint8 => mapping(uint8 => uint8[])) combinesHeroId;\n    mapping (uint8 => mapping(uint8 => uint64)) public combinesAddition; //base 1000\n    mapping (address => PlayerInfo) public players; \n\n    event NewStaking(address player, uint256 timestamp);\n\n    constructor(address hero, address mmc) {\n        HERO = IRichHero(hero);\n        MMC = IERC20(mmc);\n\n        //      15%\n        combinesRarity[0][0] = [1, 1, 2, 2, 3];\n        combinesHeroId[0][0] = [1, 3, 0, 1, 3];\n        combinesAddition[0][0] = 150;\n        //   10%\n        combinesRarity[0][1] = [3, 3];\n        combinesHeroId[0][1] = [0, 1];\n        combinesAddition[0][1] = 100;\n        //   7%\n        combinesRarity[0][2] = [2, 3];\n        combinesHeroId[0][2] = [2, 2];\n        combinesAddition[0][2] = 80;\n        //   3%\n        combinesRarity[0][3] = [1, 2];\n        combinesHeroId[0][3] = [4, 4];\n        combinesAddition[0][3] = 30;\n\n        //      20%\n        combinesRarity[1][0] = [2, 2, 3, 3, 3];\n        combinesHeroId[1][0] = [0, 1, 0, 1, 3];\n        combinesAddition[1][0] = 200;\n        //    25%\n        combinesRarity[1][1] = [3, 3, 4];\n        combinesHeroId[1][1] = [0, 1, 0];\n        combinesAddition[1][1] = 250;\n        //   7%\n        combinesRarity[1][2] = [2, 3];\n        combinesHeroId[1][2] = [4, 2];\n        combinesAddition[1][2] = 70;\n        //   6%\n        combinesRarity[1][3] = [2, 3];\n        combinesHeroId[1][3] = [2, 2];\n        combinesAddition[1][3] = 60;\n\n        //     20%\n        combinesRarity[2][0] = [3, 3, 3, 3];\n        combinesHeroId[2][0] = [0, 1, 2, 3];\n        combinesAddition[2][0] = 200;\n        //   7%\n        combinesRarity[2][1] = [2, 3];\n        combinesHeroId[2][1] = [0, 0];\n        combinesAddition[2][1] = 70;\n        //   3%\n        combinesRarity[2][2] = [1, 1];\n        combinesHeroId[2][2] = [4, 5];\n        combinesAddition[2][2] = 30;\n        //      10%\n        combinesRarity[2][3] = [1, 1, 2, 2, 2];\n        combinesHeroId[2][3] = [0, 3, 0, 1, 4];\n        combinesAddition[2][3] = 100;\n\n        //   10%\n        combinesRarity[3][0] = [2, 3];\n        combinesHeroId[3][0] = [0, 0];\n        combinesAddition[3][0] = 100;\n        //  7%\n        combinesRarity[3][1] = [2];\n        combinesHeroId[3][1] = [1];\n        combinesAddition[3][1] = 70;\n        //  10%\n        combinesRarity[3][2] = [4];\n        combinesHeroId[3][2] = [0];\n        combinesAddition[3][2] = 100;\n        //    10%\n        combinesRarity[3][3] = [1, 1, 3];\n        combinesHeroId[3][3] = [0, 1, 1];\n        combinesAddition[3][3] = 100;        \n    }\n\n    function staking(\n        uint256[] memory tokenIds, \n        bool hasCombine, \n        uint8 combineCamp, \n        uint8 combineId, \n        uint8 difficulty\n    ) public {\n        require(!players[msg.sender].inStaking);\n        uint256 power;\n        for(uint256 i = 0; i < tokenIds.length; i++) {\n            IRichHero.HeroDetail memory detail = HERO.getHero(tokenIds[i]);\n            power += detail.power;\n            HERO.transferFrom(msg.sender, address(this), tokenIds[i]);\n        }\n\n        if (hasCombine) {\n            //todo verify\n            power = power * (PCT_BASE + combinesAddition[combineCamp][combineId]) / PCT_BASE;\n        }\n\n        if (players[msg.sender].canClaimReward != 0) {\n            power += players[msg.sender].canClaimReward * 10 * 100; //mmc * 10 * power\n        }\n        players[msg.sender].inStaking = true;\n        players[msg.sender].stakingInfo.stakingDifficulty = difficulty;\n        players[msg.sender].stakingInfo.stakingHeros = tokenIds;\n        players[msg.sender].stakingInfo.stakingStartTime = uint64(block.timestamp);\n        players[msg.sender].stakingInfo.stakingEndTime = uint64(block.timestamp + difficultyTime[difficulty] * 1 days);\n        emit NewStaking(msg.sender, block.timestamp);\n    }\n\n    function calculateReward(address account) public view returns(uint256, uint256) {\n        if (!players[account].inStaking) {\n            return (0, 0);\n        }\n        uint256 day = (block.timestamp - players[account].stakingInfo.stakingStartTime) / 1 days;\n        if (day > difficultyTime[players[account].stakingInfo.stakingDifficulty]) {\n            day = difficultyTime[players[account].stakingInfo.stakingDifficulty];\n        }\n        uint256 dayReward = players[account].stakingInfo.power / difficultySpeed[players[account].stakingInfo.stakingDifficulty] / 100; //power / 100 = realpower\n        uint256 reward = day * dayReward * MMC_BASE;\n        return (reward, reward / 2);\n    }\n\n    function calculatePercent(address account) public view returns(uint256) {\n        if (!players[account].inStaking) {\n            return players[account].percent;\n        }\n        uint256 day = (block.timestamp - players[account].stakingInfo.stakingStartTime) / 1 days;\n        if (day > difficultyTime[players[account].stakingInfo.stakingDifficulty]) {\n            day = difficultyTime[players[account].stakingInfo.stakingDifficulty];\n        }\n        uint256 lvTotal = LV_BASE * players[account].level * players[account].level;\n        uint256 percent = players[account].percent + day * players[account].stakingInfo.power / 100 * 1000 / lvTotal;\n        if (percent > PCT_BASE) {\n            percent = PCT_BASE;\n        }\n        return percent;\n    }\n\n    function claimHero() public {\n        require(players[msg.sender].inStaking);\n        uint256 reward;\n        (uint256 fullReward, uint256 midwayReward) = calculateReward(msg.sender);\n        if (block.timestamp > players[msg.sender].stakingInfo.stakingEndTime) {\n            reward = fullReward;\n        } else {\n            reward = midwayReward;\n        }\n        for(uint256 i = 0; i < players[msg.sender].stakingInfo.stakingHeros.length; i++) {\n            HERO.transferFrom(address(this), msg.sender, players[msg.sender].stakingInfo.stakingHeros[i]);\n        }\n        players[msg.sender].percent = calculatePercent(msg.sender);\n        players[msg.sender].totalReward += reward;\n        players[msg.sender].canClaimReward += reward;\n        players[msg.sender].inStaking = false;\n    }\n\n    function claimReward() public {\n        require(!players[msg.sender].inStaking);\n        require(players[msg.sender].canClaimReward > 0);\n        uint256 amount = players[msg.sender].canClaimReward;\n        players[msg.sender].canClaimReward = 0;\n        MMC.transfer(msg.sender, amount);\n    }\n\n    function occupy() public {\n        require(players[msg.sender].percent == 1000);\n        require(players[msg.sender].level < totalLevel);\n        players[msg.sender].percent = 0;\n        players[msg.sender].level += 1;\n        uint256 bonus = LV_BONUS_BASE * players[msg.sender].level;\n        if (players[msg.sender].level % 2 == 0) {\n            bonus += 10000;\n        }\n        uint256 bonusMMC = bonus * MMC_BASE;\n        players[msg.sender].totalReward += bonusMMC;\n        players[msg.sender].canClaimReward += bonusMMC;\n    }\n\n    function getStakingHeros(address account) public view returns(uint256[] memory tokenIds) {\n        if (!players[account].inStaking) {\n            return tokenIds;\n        }\n        return players[account].stakingInfo.stakingHeros;\n    }\n\n    function isCombine(uint256[] calldata tokenIds) external view returns (bool combine, uint8 combineCamp, uint8 combineId) {\n        uint256 clen = tokenIds.length;\n        IRichHero.HeroDetail[] memory details = new IRichHero.HeroDetail[](clen);\n        for (uint8 i = 0; i < clen; i++) {\n            details[i] = HERO.getHero(tokenIds[i]);\n        }\n        for (uint8 camp = 0; camp < 4; camp++) {\n            for (uint8 i = 0; i < 4; i++) {\n                uint8 nl = uint8(combinesRarity[camp][i].length);\n                if (nl > clen) {\n                    continue;\n                }\n                for (uint8 j = 0; j < nl; j++) {\n                    bool find;\n                    for (uint8 k = 0; k < clen; k++) {\n                        if (details[k].camp == camp && details[k].rarity == combinesRarity[camp][i][j] && details[k].heroId == combinesHeroId[camp][i][j]){\n                            find = true;\n                            break;\n                        }\n                    }\n                    if (!find) {\n                        break;\n                    }\n                    if (j+1 == nl) {\n                        return (true, camp, i);\n                    } \n                }\n            }\n        }\n    }\n}",
  "sourcePath": "/Users/hy/new-rich-contract/contracts/Staking.sol",
  "compiler": {
    "name": "solc",
    "version": "0.8.9+commit.e5eed63a.Emscripten.clang"
  },
  "schemaVersion": "3.4.3",
  "updatedAt": "2022-04-07T17:44:14.902Z",
  "devdoc": {
    "kind": "dev",
    "methods": {
      "owner()": {
        "details": "Returns the address of the current owner."
      },
      "renounceOwnership()": {
        "details": "Leaves the contract without owner. It will not be possible to call `onlyOwner` functions anymore. Can only be called by the current owner. NOTE: Renouncing ownership will leave the contract without an owner, thereby removing any functionality that is only available to the owner."
      },
      "transferOwnership(address)": {
        "details": "Transfers ownership of the contract to a new account (`newOwner`). Can only be called by the current owner."
      }
    },
    "title": "Staking - Romance of the Three Kingdoms Staking Docs:  Version v1.1.0",
    "version": 1
  },
  "userdoc": {
    "kind": "user",
    "methods": {},
    "notice": "",
    "version": 1
  }
}