{
  "contractName": "HeroFarm2",
  "abi": [
    {
      "inputs": [
        {
          "internalType": "contract IRichHero",
          "name": "_hero",
          "type": "address"
        },
        {
          "internalType": "address",
          "name": "_invite",
          "type": "address"
        },
        {
          "internalType": "contract IERC20",
          "name": "_erc20",
          "type": "address"
        },
        {
          "internalType": "contract IERC20",
          "name": "_wethf",
          "type": "address"
        },
        {
          "internalType": "uint256",
          "name": "_rewardPerBlock",
          "type": "uint256"
        },
        {
          "internalType": "uint256",
          "name": "_rewardPerBlockETHF",
          "type": "uint256"
        },
        {
          "internalType": "uint256",
          "name": "_startBlock",
          "type": "uint256"
        }
      ],
      "stateMutability": "nonpayable",
      "type": "constructor"
    },
    {
      "anonymous": false,
      "inputs": [
        {
          "indexed": true,
          "internalType": "address",
          "name": "user",
          "type": "address"
        },
        {
          "indexed": false,
          "internalType": "uint256",
          "name": "amount",
          "type": "uint256"
        }
      ],
      "name": "Deposit",
      "type": "event"
    },
    {
      "anonymous": false,
      "inputs": [
        {
          "indexed": true,
          "internalType": "address",
          "name": "user",
          "type": "address"
        },
        {
          "indexed": false,
          "internalType": "uint256",
          "name": "amount",
          "type": "uint256"
        }
      ],
      "name": "EmergencyWithdraw",
      "type": "event"
    },
    {
      "anonymous": false,
      "inputs": [
        {
          "indexed": false,
          "internalType": "address",
          "name": "buyer",
          "type": "address"
        },
        {
          "indexed": false,
          "internalType": "address",
          "name": "inviter",
          "type": "address"
        },
        {
          "indexed": false,
          "internalType": "uint256",
          "name": "generation",
          "type": "uint256"
        },
        {
          "indexed": false,
          "internalType": "uint256",
          "name": "amount",
          "type": "uint256"
        }
      ],
      "name": "InviterClaim",
      "type": "event"
    },
    {
      "anonymous": false,
      "inputs": [
        {
          "indexed": true,
          "internalType": "address",
          "name": "previousOwner",
          "type": "address"
        },
        {
          "indexed": true,
          "internalType": "address",
          "name": "newOwner",
          "type": "address"
        }
      ],
      "name": "OwnershipTransferred",
      "type": "event"
    },
    {
      "anonymous": false,
      "inputs": [
        {
          "indexed": true,
          "internalType": "address",
          "name": "user",
          "type": "address"
        },
        {
          "indexed": false,
          "internalType": "uint256",
          "name": "amount",
          "type": "uint256"
        }
      ],
      "name": "Withdraw",
      "type": "event"
    },
    {
      "inputs": [],
      "name": "endBlock",
      "outputs": [
        {
          "internalType": "uint256",
          "name": "",
          "type": "uint256"
        }
      ],
      "stateMutability": "view",
      "type": "function"
    },
    {
      "inputs": [],
      "name": "erc20",
      "outputs": [
        {
          "internalType": "contract IERC20",
          "name": "",
          "type": "address"
        }
      ],
      "stateMutability": "view",
      "type": "function"
    },
    {
      "inputs": [
        {
          "internalType": "uint256",
          "name": "",
          "type": "uint256"
        }
      ],
      "name": "form1InviteAward",
      "outputs": [
        {
          "internalType": "uint256",
          "name": "",
          "type": "uint256"
        }
      ],
      "stateMutability": "view",
      "type": "function"
    },
    {
      "inputs": [
        {
          "internalType": "uint256",
          "name": "",
          "type": "uint256"
        }
      ],
      "name": "form2InviteAward",
      "outputs": [
        {
          "internalType": "uint256",
          "name": "",
          "type": "uint256"
        }
      ],
      "stateMutability": "view",
      "type": "function"
    },
    {
      "inputs": [],
      "name": "hero",
      "outputs": [
        {
          "internalType": "contract IRichHero",
          "name": "",
          "type": "address"
        }
      ],
      "stateMutability": "view",
      "type": "function"
    },
    {
      "inputs": [],
      "name": "inviterContract",
      "outputs": [
        {
          "internalType": "contract Invite",
          "name": "",
          "type": "address"
        }
      ],
      "stateMutability": "view",
      "type": "function"
    },
    {
      "inputs": [
        {
          "internalType": "address",
          "name": "",
          "type": "address"
        },
        {
          "internalType": "uint256",
          "name": "",
          "type": "uint256"
        }
      ],
      "name": "lockInfo",
      "outputs": [
        {
          "internalType": "uint256",
          "name": "claimStartTime",
          "type": "uint256"
        }
      ],
      "stateMutability": "view",
      "type": "function"
    },
    {
      "inputs": [],
      "name": "owner",
      "outputs": [
        {
          "internalType": "address",
          "name": "",
          "type": "address"
        }
      ],
      "stateMutability": "view",
      "type": "function"
    },
    {
      "inputs": [],
      "name": "paidOut",
      "outputs": [
        {
          "internalType": "uint256",
          "name": "",
          "type": "uint256"
        }
      ],
      "stateMutability": "view",
      "type": "function"
    },
    {
      "inputs": [],
      "name": "paidOutETHF",
      "outputs": [
        {
          "internalType": "uint256",
          "name": "",
          "type": "uint256"
        }
      ],
      "stateMutability": "view",
      "type": "function"
    },
    {
      "inputs": [],
      "name": "poolInfo",
      "outputs": [
        {
          "internalType": "uint256",
          "name": "lastRewardBlock",
          "type": "uint256"
        },
        {
          "internalType": "uint256",
          "name": "accPowerPerShare",
          "type": "uint256"
        },
        {
          "internalType": "uint256",
          "name": "accPowerPerShareETHF",
          "type": "uint256"
        }
      ],
      "stateMutability": "view",
      "type": "function"
    },
    {
      "inputs": [],
      "name": "renounceOwnership",
      "outputs": [],
      "stateMutability": "nonpayable",
      "type": "function"
    },
    {
      "inputs": [],
      "name": "rewardPerBlock",
      "outputs": [
        {
          "internalType": "uint256",
          "name": "",
          "type": "uint256"
        }
      ],
      "stateMutability": "view",
      "type": "function"
    },
    {
      "inputs": [],
      "name": "rewardPerBlockETHF",
      "outputs": [
        {
          "internalType": "uint256",
          "name": "",
          "type": "uint256"
        }
      ],
      "stateMutability": "view",
      "type": "function"
    },
    {
      "inputs": [],
      "name": "startBlock",
      "outputs": [
        {
          "internalType": "uint256",
          "name": "",
          "type": "uint256"
        }
      ],
      "stateMutability": "view",
      "type": "function"
    },
    {
      "inputs": [],
      "name": "totalAllocPoint",
      "outputs": [
        {
          "internalType": "uint256",
          "name": "",
          "type": "uint256"
        }
      ],
      "stateMutability": "view",
      "type": "function"
    },
    {
      "inputs": [],
      "name": "totalPowers",
      "outputs": [
        {
          "internalType": "uint256",
          "name": "",
          "type": "uint256"
        }
      ],
      "stateMutability": "view",
      "type": "function"
    },
    {
      "inputs": [
        {
          "internalType": "address",
          "name": "newOwner",
          "type": "address"
        }
      ],
      "name": "transferOwnership",
      "outputs": [],
      "stateMutability": "nonpayable",
      "type": "function"
    },
    {
      "inputs": [
        {
          "internalType": "address",
          "name": "",
          "type": "address"
        }
      ],
      "name": "userInfo",
      "outputs": [
        {
          "internalType": "uint256",
          "name": "goldens",
          "type": "uint256"
        },
        {
          "internalType": "uint256",
          "name": "realPower",
          "type": "uint256"
        },
        {
          "internalType": "uint256",
          "name": "buffedPower",
          "type": "uint256"
        },
        {
          "internalType": "uint256",
          "name": "mdao",
          "type": "uint256"
        },
        {
          "internalType": "uint256",
          "name": "startTime",
          "type": "uint256"
        },
        {
          "internalType": "uint256",
          "name": "endTime",
          "type": "uint256"
        },
        {
          "internalType": "uint256",
          "name": "difficulty",
          "type": "uint256"
        },
        {
          "internalType": "uint256",
          "name": "lastLockId",
          "type": "uint256"
        },
        {
          "internalType": "uint256",
          "name": "exitPercent",
          "type": "uint256"
        },
        {
          "internalType": "bool",
          "name": "inFarm",
          "type": "bool"
        },
        {
          "internalType": "bool",
          "name": "isUnClaim",
          "type": "bool"
        }
      ],
      "stateMutability": "view",
      "type": "function"
    },
    {
      "inputs": [],
      "name": "wethf",
      "outputs": [
        {
          "internalType": "contract IERC20",
          "name": "",
          "type": "address"
        }
      ],
      "stateMutability": "view",
      "type": "function"
    },
    {
      "inputs": [
        {
          "internalType": "uint256",
          "name": "_rewardPerBlock",
          "type": "uint256"
        },
        {
          "internalType": "uint256",
          "name": "_rewardPerBlockETHF",
          "type": "uint256"
        }
      ],
      "name": "setRewardPerBlock",
      "outputs": [],
      "stateMutability": "nonpayable",
      "type": "function"
    },
    {
      "inputs": [
        {
          "internalType": "address",
          "name": "_user",
          "type": "address"
        }
      ],
      "name": "pending",
      "outputs": [
        {
          "internalType": "uint256",
          "name": "",
          "type": "uint256"
        },
        {
          "internalType": "uint256",
          "name": "",
          "type": "uint256"
        }
      ],
      "stateMutability": "view",
      "type": "function"
    },
    {
      "inputs": [],
      "name": "totalPending",
      "outputs": [
        {
          "internalType": "uint256",
          "name": "",
          "type": "uint256"
        },
        {
          "internalType": "uint256",
          "name": "",
          "type": "uint256"
        }
      ],
      "stateMutability": "view",
      "type": "function"
    },
    {
      "inputs": [],
      "name": "updatePool",
      "outputs": [],
      "stateMutability": "nonpayable",
      "type": "function"
    },
    {
      "inputs": [
        {
          "internalType": "uint256[]",
          "name": "_tokenIds",
          "type": "uint256[]"
        },
        {
          "internalType": "uint8",
          "name": "difficulty",
          "type": "uint8"
        }
      ],
      "name": "deposit",
      "outputs": [],
      "stateMutability": "nonpayable",
      "type": "function"
    },
    {
      "inputs": [],
      "name": "depositMdao",
      "outputs": [],
      "stateMutability": "nonpayable",
      "type": "function"
    },
    {
      "inputs": [
        {
          "internalType": "address",
          "name": "_user",
          "type": "address"
        }
      ],
      "name": "canDepositMdao",
      "outputs": [
        {
          "internalType": "uint256",
          "name": "",
          "type": "uint256"
        }
      ],
      "stateMutability": "view",
      "type": "function"
    },
    {
      "inputs": [],
      "name": "claimHero",
      "outputs": [],
      "stateMutability": "nonpayable",
      "type": "function"
    },
    {
      "inputs": [
        {
          "internalType": "bool",
          "name": "isLockClaim",
          "type": "bool"
        }
      ],
      "name": "decideClaimForm",
      "outputs": [],
      "stateMutability": "nonpayable",
      "type": "function"
    },
    {
      "inputs": [
        {
          "internalType": "address",
          "name": "user",
          "type": "address"
        }
      ],
      "name": "getUserInfo",
      "outputs": [
        {
          "components": [
            {
              "internalType": "uint256",
              "name": "goldens",
              "type": "uint256"
            },
            {
              "internalType": "uint256",
              "name": "realPower",
              "type": "uint256"
            },
            {
              "internalType": "uint256",
              "name": "buffedPower",
              "type": "uint256"
            },
            {
              "internalType": "uint256[2]",
              "name": "rewardDebt",
              "type": "uint256[2]"
            },
            {
              "internalType": "uint256[2]",
              "name": "pendingAmount",
              "type": "uint256[2]"
            },
            {
              "internalType": "uint256",
              "name": "mdao",
              "type": "uint256"
            },
            {
              "internalType": "uint256[]",
              "name": "tokenIds",
              "type": "uint256[]"
            },
            {
              "internalType": "uint256",
              "name": "startTime",
              "type": "uint256"
            },
            {
              "internalType": "uint256",
              "name": "endTime",
              "type": "uint256"
            },
            {
              "internalType": "uint256",
              "name": "difficulty",
              "type": "uint256"
            },
            {
              "internalType": "uint256",
              "name": "lastLockId",
              "type": "uint256"
            },
            {
              "internalType": "uint256",
              "name": "exitPercent",
              "type": "uint256"
            },
            {
              "internalType": "uint256[2]",
              "name": "inviteReward",
              "type": "uint256[2]"
            },
            {
              "internalType": "bool",
              "name": "inFarm",
              "type": "bool"
            },
            {
              "internalType": "bool",
              "name": "isUnClaim",
              "type": "bool"
            }
          ],
          "internalType": "struct HeroFarm2.UserInfo",
          "name": "",
          "type": "tuple"
        }
      ],
      "stateMutability": "view",
      "type": "function"
    },
    {
      "inputs": [
        {
          "internalType": "address",
          "name": "user",
          "type": "address"
        }
      ],
      "name": "canRelease",
      "outputs": [
        {
          "internalType": "bool",
          "name": "release",
          "type": "bool"
        }
      ],
      "stateMutability": "view",
      "type": "function"
    },
    {
      "inputs": [
        {
          "internalType": "uint256",
          "name": "lockId",
          "type": "uint256"
        }
      ],
      "name": "lockRewardWithdraw",
      "outputs": [],
      "stateMutability": "nonpayable",
      "type": "function"
    },
    {
      "inputs": [
        {
          "internalType": "address",
          "name": "user",
          "type": "address"
        }
      ],
      "name": "lockInfos",
      "outputs": [
        {
          "components": [
            {
              "internalType": "uint256",
              "name": "claimStartTime",
              "type": "uint256"
            },
            {
              "internalType": "uint256[2]",
              "name": "rewardAmount",
              "type": "uint256[2]"
            },
            {
              "internalType": "uint256[2]",
              "name": "claimedAmount",
              "type": "uint256[2]"
            }
          ],
          "internalType": "struct HeroFarm2.LockInfo[]",
          "name": "locks",
          "type": "tuple[]"
        }
      ],
      "stateMutability": "view",
      "type": "function"
    },
    {
      "inputs": [
        {
          "internalType": "uint256",
          "name": "power",
          "type": "uint256"
        }
      ],
      "name": "APYPercent",
      "outputs": [
        {
          "internalType": "uint256",
          "name": "apy",
          "type": "uint256"
        }
      ],
      "stateMutability": "view",
      "type": "function"
    },
    {
      "inputs": [],
      "name": "withdraw",
      "outputs": [],
      "stateMutability": "nonpayable",
      "type": "function"
    },
    {
      "inputs": [
        {
          "internalType": "address",
          "name": "_erc20",
          "type": "address"
        }
      ],
      "name": "withdraw",
      "outputs": [],
      "stateMutability": "nonpayable",
      "type": "function"
    }
  ],
  "bytecode": "0x60e060405260076080908152600e60a052601e60c0526200002590600c906003620001e5565b5060408051606081018252600181526003602082018190526005928201929092526200005591600d9190620001e5565b5060408051606081018252600681526003602082018190526001928201929092526200008591601491906200029e565b5060408051606081018252601e8152600f6020820152600591810191909152620000b49060159060036200029e565b50348015620000c257600080fd5b50604051620031be380380620031be833981016040819052620000e59162000311565b620000f03362000195565b601280546001600160a01b03808a166001600160a01b0319928316179092556001805488841690831617905560028054878416908316179055601380549289169290911691909117905560058390556006829055600f81905562000158816276a70062000398565b6010555050604080516060810182524380825260006020830181905291909201819052600791909155600881905560095550620003c09350505050565b600080546001600160a01b038381166001600160a01b0319831681178455604051919092169283917f8be0079c531659141344cd1fd0a4f28419497f9722a3daafe3b4186f6b6457e09190a35050565b828054828255906000526020600020906003016004900481019282156200028c5791602002820160005b838211156200025557835183826101000a8154816001600160401b03021916908360ff16021790555092602001926008016020816007010492830192600103026200020f565b80156200028a5782816101000a8154906001600160401b03021916905560080160208160070104928301926001030262000255565b505b506200029a929150620002e1565b5090565b8280548282559060005260206000209081019282156200028c579160200282015b828111156200028c578251829060ff16905591602001919060010190620002bf565b5b808211156200029a5760008155600101620002e2565b6001600160a01b03811681146200030e57600080fd5b50565b600080600080600080600060e0888a0312156200032d57600080fd5b87516200033a81620002f8565b60208901519097506200034d81620002f8565b60408901519096506200036081620002f8565b60608901519095506200037381620002f8565b809450506080880151925060a0880151915060c0880151905092959891949750929550565b80820180821115620003ba57634e487b7160e01b600052601160045260246000fd5b92915050565b612dee80620003d06000396000f3fe608060405234801561001057600080fd5b50600436106101dc5760003560e01c806360343cae116101055780638da5cb5b1161009d5780638da5cb5b1461049b5780639f608da3146104a3578063acff05b0146104b6578063b02636fe146104c9578063b2520a7c146104d2578063c91b46c6146104fd578063d4796ef214610505578063e3161ddd14610518578063f2fde38b1461052057600080fd5b806360343cae146103f257806363619e7f146104055780636386c1c7146104185780636917c501146104385780636dfe789a14610441578063715018a614610464578063785e9e861461046c5780637f513d5d1461047f5780638ae39cac1461049257600080fd5b80633ccfd60b116101785780633ccfd60b146103285780633f90916a1461033057806341d189f21461034d57806347646b9e1461036d57806348cd4cb11461038d57806351cff8d9146103965780635a2f3d09146103a95780635c76ca2d146103d65780635eebea20146103df57600080fd5b8063070dac68146101e1578063083c6323146101f65780630af72c691461021257806310b43acf1461022557806317caf6f1146102385780631959a0021461024157806339307b54146103045780633bddf74e146103175780633c9340d01461031f575b600080fd5b6101f46101ef36600461267d565b610533565b005b6101ff60105481565b6040519081526020015b60405180910390f35b6101f461022036600461272d565b610576565b6101ff6102333660046127e4565b610a98565b6101ff600e5481565b6102ad61024f366004612812565b600a6020819052600091825260409091208054600182015460028301546007840154600985015495850154600b860154600c870154600d88015460109098015496989597949693959492939192909160ff808216916101009004168b565b604080519b8c5260208c019a909a52988a01979097526060890195909552608088019390935260a087019190915260c086015260e08501526101008401521515610120830152151561014082015261016001610209565b6101ff610312366004612812565b610ab9565b6101f4610afd565b6101ff60045481565b6101f4610dae565b610338610e0c565b60408051928352602083019190915201610209565b61036061035b366004612812565b610e90565b6040516102099190612858565b601354610380906001600160a01b031681565b60405161020991906128c5565b6101ff600f5481565b6101f46103a4366004612812565b610f8d565b6007546008546009546103bb92919083565b60408051938452602084019290925290820152606001610209565b6101ff60035481565b6103386103ed366004612812565b611097565b6101ff6104003660046127e4565b6111f1565b600254610380906001600160a01b031681565b61042b610426366004612812565b611201565b6040516102099190612914565b6101ff60115481565b61045461044f366004612812565b6113ad565b6040519015158152602001610209565b6101f4611589565b600154610380906001600160a01b031681565b601254610380906001600160a01b031681565b6101ff60055481565b6103806115c4565b6101f46104b1366004612a1d565b6115d3565b6101f46104c43660046127e4565b611a51565b6101ff60065481565b6101ff6104e0366004612a3a565b600b60209081526000928352604080842090915290825290205481565b6101f4611db3565b6101ff6105133660046127e4565b612210565b6101f4612274565b6101f461052e366004612812565b612331565b3361053c6115c4565b6001600160a01b03161461056b5760405162461bcd60e51b815260040161056290612a66565b60405180910390fd5b600591909155600655565b336000908152600a60205260409020601081015460079190610100900460ff16156105a057600080fd5b601081015460ff16156106555780600b01548360ff16146105c057600080fd5b42600c82600b0154815481106105d8576105d8612a9b565b90600052602060002090600491828204019190066008029054906101000a90046001600160401b03166001600160401b031682600901546106199190612ac7565b106106505760405162461bcd60e51b8152602060048201526007602482015266115e1c1a5c995960ca1b6044820152606401610562565b6106ef565b60038360ff161061066557600080fd5b60108101805460ff1916600117905560ff8316600b8201819055426009830155600c8054909190811061069a5761069a612a9b565b90600052602060002090600491828204019190066008029054906101000a90046001600160401b0316620151806106d19190612ada565b6001600160401b031681600901546106e99190612ac7565b600a8201555b60008060005b865181101561088e5760125487516000916001600160a01b0316906321d80111908a908590811061072857610728612a9b565b60200260200101516040518263ffffffff1660e01b815260040161074e91815260200190565b61022060405180830381865afa15801561076c573d6000803e3d6000fd5b505050506040513d601f19601f820116820180604052508101906107909190612b9f565b9050806101600151846107a39190612ac7565b60125489519195506001600160a01b0316906323b872dd90339030908c90879081106107d1576107d1612a9b565b60200260200101516040518463ffffffff1660e01b81526004016107f793929190612c92565b600060405180830381600087803b15801561081157600080fd5b505af1158015610825573d6000803e3d6000fd5b50505050806060015160ff16600403610846578261084281612cb6565b9350505b8460080188838151811061085c5761085c612a9b565b60209081029190910181015182546001810184556000938452919092200155508061088681612cb6565b9150506106f5565b50610897612274565b818360010160008282546108ab9190612ac7565b90915550508254819084906000906108c4908490612ac7565b909155505082546000906064906108dc90600a612ccf565b6108e7906064612ac7565b85600101546108f69190612ccf565b6109009190612cee565b6002850154909150156109c45760006003850181015468056bc75e2d63100000876001015487600201546109349190612ccf565b61093e9190612cee565b6109489190612d10565b90506000600386016001015468056bc75e2d63100000886001015488600201546109729190612ccf565b61097c9190612cee565b6109869190612d10565b90508160058701600001600082825461099f9190612ac7565b909155508190506005870160010160008282546109bc9190612ac7565b909155505050505b8360020154601160008282546109da9190612d10565b909155505060028401819055601180548291906000906109fb908490612ac7565b90915550506001850154600285015468056bc75e2d6310000091610a1e91612ccf565b610a289190612cee565b60038501556002858101549085015468056bc75e2d6310000091610a4b91612ccf565b610a559190612cee565b600485015560405183815233907fe1fffcc4923d04b559f4d29a8bfc6cda04eb5b0d3c460751c2402c5c5cc9109c9060200160405180910390a250505050505050565b60158181548110610aa857600080fd5b600091825260209091200154905081565b6001600160a01b0381166000908152600a6020526040812060078101546001820154610aec9066038d7ea4c68000612ccf565b610af69190612d10565b9392505050565b336000908152600a6020526040902060108101546007919060ff16610b2157600080fd5b6001810154610b379066038d7ea4c68000612ccf565b816007015410610b4657600080fd5b600180546007830154918301546001600160a01b03909116916323b872dd9133913091610b7a9066038d7ea4c68000612ccf565b610b849190612d10565b6040518463ffffffff1660e01b8152600401610ba293929190612c92565b6020604051808303816000875af1158015610bc1573d6000803e3d6000fd5b505050506040513d601f19601f82011682018060405250810190610be59190612d23565b50610bee612274565b8054600090606490610c0190600a612ccf565b610c0c906064612ac7565b610c1790600a612ac7565b8360010154610c269190612ccf565b610c309190612cee565b600283015490915015610cf45760006003830181015468056bc75e2d6310000085600101548560020154610c649190612ccf565b610c6e9190612cee565b610c789190612d10565b90506000600384016001015468056bc75e2d6310000086600101548660020154610ca29190612ccf565b610cac9190612cee565b610cb69190612d10565b905081600585016000016000828254610ccf9190612ac7565b90915550819050600585016001016000828254610cec9190612ac7565b909155505050505b68056bc75e2d6310000083600101548360020154610d129190612ccf565b610d1c9190612cee565b60038301556002838101549083015468056bc75e2d6310000091610d3f91612ccf565b610d499190612cee565b6004830155600282015460118054600090610d65908490612d10565b90915550506002820181905560118054829190600090610d86908490612ac7565b90915550506001820154610da19066038d7ea4c68000612ccf565b8260070181905550505050565b33610db76115c4565b6001600160a01b031614610ddd5760405162461bcd60e51b815260040161056290612a66565b60405133904780156108fc02916000818181858888f19350505050158015610e09573d6000803e3d6000fd5b50565b600080600f544311610e215750600091829150565b60006010544310610e3457601054610e36565b435b9050600354600f5482610e499190612d10565b600554610e569190612ccf565b610e609190612d10565b600454600f54610e709084612d10565b600654610e7d9190612ccf565b610e879190612d10565b92509250509091565b606060005b6001600160a01b0383166000908152600a60205260409020600c0154811015610f87576001600160a01b0383166000908152600b6020908152604080832084845282529182902082516060810184528154815283518085019485905290939192840191600184019060029082845b815481526020019060010190808311610f03575050509183525050604080518082019182905260209092019190600384019060029082845b815481526020019060010190808311610f3b57505050505081525050828281518110610f6957610f69612a9b565b60200260200101819052508080610f7f90612cb6565b915050610e95565b50919050565b33610f966115c4565b6001600160a01b031614610fbc5760405162461bcd60e51b815260040161056290612a66565b6040516370a0823160e01b81526001600160a01b0382169063a9059cbb90339083906370a0823190610ff29030906004016128c5565b602060405180830381865afa15801561100f573d6000803e3d6000fd5b505050506040513d601f19601f820116820180604052508101906110339190612d40565b6040518363ffffffff1660e01b8152600401611050929190612d59565b6020604051808303816000875af115801561106f573d6000803e3d6000fd5b505050506040513d601f19601f820116820180604052508101906110939190612d23565b5050565b6001600160a01b0381166000908152600a602052604081206008546009546007805485949193919290431180156110cf575060115415155b1561115e57600060105443106110e7576010546110e9565b435b90506000806110fc8760000154846123ce565b60115491935091506111178368056bc75e2d63100000612ccf565b6111219190612cee565b61112b9086612ac7565b6011549095506111448268056bc75e2d63100000612ccf565b61114e9190612cee565b6111589085612ac7565b93505050505b6003830154600284015468056bc75e2d631000009061117e908590612ccf565b6111889190612cee565b60058501546111979190612ac7565b6111a19190612d10565b6004840154600285015468056bc75e2d63100000906111c1908690612ccf565b6111cb9190612cee565b60068601546111da9190612ac7565b6111e49190612d10565b9550955050505050915091565b60148181548110610aa857600080fd5b611209612577565b6001600160a01b0382166000908152600a602090815260409182902082516101e08101845281548152600182015492810192909252600280820154838501528351808501948590529293919260608501929091600385019182845b815481526020019060010190808311611264575050509183525050604080518082019182905260209092019190600584019060029082845b81548152602001906001019080831161129c5750505050508152602001600782015481526020016008820180548060200260200160405190810160405280929190818152602001828054801561131157602002820191906000526020600020905b8154815260200190600101908083116112fd575b505050918352505060098201546020820152600a820154604080830191909152600b8301546060830152600c8301546080830152600d83015460a083015280518082019182905260c09092019190600e84019060029082845b81548152602001906001019080831161136a5750505091835250506010919091015460ff8082161515602084015261010090910416151560409091015292915050565b6001600160a01b0381166000908152600a6020908152604080832081516101e08101835281548152600182015493810193909352600280820154848401528251808401938490528594936060850192600385019182845b815481526020019060010190808311611404575050509183525050604080518082019182905260209092019190600584019060029082845b81548152602001906001019080831161143c575050505050815260200160078201548152602001600882018054806020026020016040519081016040528092919081815260200182805480156114b157602002820191906000526020600020905b81548152602001906001019080831161149d575b505050918352505060098201546020820152600a820154604080830191909152600b8301546060830152600c8301546080830152600d83015460a083015280518082019182905260c09092019190600e84019060029082845b81548152602001906001019080831161150a5750505091835250506010919091015460ff808216151560208401526101009091041615156040909101526101a081015190915061155d5750600092915050565b6000620151808260e00151426115739190612d10565b61157d9190612cee565b60011115949350505050565b336115926115c4565b6001600160a01b0316146115b85760405162461bcd60e51b815260040161056290612a66565b6115c2600061240e565b565b6000546001600160a01b031690565b336000908152600a602052604090206010810154610100900460ff166115f857600080fd5b60108101805461ff0019169055816119465761165c3360648084600d01548560050160006002811061162c5761162c612a9b565b01546116389190612ccf565b6116429190612cee565b61164d906050612ccf565b6116579190612cee565b61245e565b6116ae3360648084600d01548560050160016002811061167e5761167e612a9b565b015461168a9190612ccf565b6116949190612cee565b61169f906050612ccf565b6116a99190612cee565b6124ef565b3360005b601360009054906101000a90046001600160a01b03166001600160a01b031663f842d40b6040518163ffffffff1660e01b8152600401602060405180830381865afa158015611705573d6000803e3d6000fd5b505050506040513d601f19601f820116820180604052508101906117299190612d40565b81101561193f57601354604051631b43f31160e31b81526001600160a01b039091169063da1f9888906117609085906004016128c5565b602060405180830381865afa15801561177d573d6000803e3d6000fd5b505050506040513d601f19601f820116820180604052508101906117a19190612d72565b91506001600160a01b03821615611928576000601482815481106117c7576117c7612a9b565b9060005260206000200154905060006103e882606487600d0154886005016000600281106117f7576117f7612a9b565b01546118039190612ccf565b61180d9190612cee565b6118179190612ccf565b6118219190612cee565b905060006103e883606488600d01548960050160016002811061184657611846612a9b565b01546118529190612ccf565b61185c9190612cee565b6118669190612ccf565b6118709190612cee565b6001600160a01b0386166000908152600a602052604081209192508390600e83010160008282546118a19190612ac7565b90915550829050600e820160010160008282546118be9190612ac7565b909155506118ce9050868461245e565b6118d886836124ef565b7f061f9efc09a7e2bff53abe4fcf2714bb516b14ce6b8893742cc587de5cd880793387611906886001612ac7565b866040516119179493929190612d8f565b60405180910390a15050505061192d565b61193f565b8061193781612cb6565b9150506116b2565b5050611a31565b336000908152600b60209081526040808320600c85015484529091529020429055600d810154600582015460649182916119809190612ccf565b61198a9190612cee565b611995906073612ccf565b61199f9190612cee565b336000908152600b60209081526040808320600c8601548452909152902060010155600d810154600682015460649182916119da9190612ccf565b6119e49190612cee565b6119ef906073612ccf565b6119f99190612cee565b336000908152600b60209081526040808320600c860180548552925282206002019290925581549190611a2b83612cb6565b91905055505b600060058201819055600682018190556003820181905560049091015550565b336000908152600b6020908152604080832084845290915290206001810154611a7957600080fd5b600062278d00600183018201548354611a929042612d10565b611a9c9190612ccf565b611aa69190612cee565b6001830154909150811115611abc575060018101545b600062278d00600180850101548454611ad59042612d10565b611adf9190612ccf565b611ae99190612cee565b6002840154909150811115611aff575060028201545b6003830154600090611b119084612d10565b9050611b2433606461164d84605f612ccf565b80600385016000016000828254611b3b9190612ac7565b90915550506004840154600090611b529084612d10565b9050611b6533606461169f84605f612ccf565b80600386016001016000828254611b7c9190612ac7565b9091555033905060005b601360009054906101000a90046001600160a01b03166001600160a01b031663f842d40b6040518163ffffffff1660e01b8152600401602060405180830381865afa158015611bd9573d6000803e3d6000fd5b505050506040513d601f19601f82011682018060405250810190611bfd9190612d40565b811015611da957601354604051631b43f31160e31b81526001600160a01b039091169063da1f988890611c349085906004016128c5565b602060405180830381865afa158015611c51573d6000803e3d6000fd5b505050506040513d601f19601f82011682018060405250810190611c759190612d72565b91506001600160a01b03821615611d9257600060158281548110611c9b57611c9b612a9b565b600091825260208220015491506103e8611cb58388612ccf565b611cbf9190612cee565b905060006103e8611cd08488612ccf565b611cda9190612cee565b6001600160a01b0386166000908152600a602052604081209192508390600e8301016000828254611d0b9190612ac7565b90915550839050600e82016001016000828254611d289190612ac7565b90915550611d389050868461245e565b611d4286836124ef565b7f061f9efc09a7e2bff53abe4fcf2714bb516b14ce6b8893742cc587de5cd880793387611d70886001612ac7565b86604051611d819493929190612d8f565b60405180910390a150505050611d97565b611da9565b80611da181612cb6565b915050611b86565b5050505050505050565b336000908152600a6020526040902060108101546007919060ff16611e155760405162461bcd60e51b815260206004820152601860248201527777697468647261773a2063616e277420776974686472617760401b6044820152606401610562565b611e1d612274565b806002015460116000828254611e339190612d10565b90915550600090506003820181015468056bc75e2d6310000084600101548460020154611e609190612ccf565b611e6a9190612cee565b611e749190612d10565b90506000600383016001015468056bc75e2d6310000085600101548560020154611e9e9190612ccf565b611ea89190612cee565b611eb29190612d10565b905081600584016000016000828254611ecb9190612ac7565b90915550819050600584016001016000828254611ee89190612ac7565b90915550506001840154600284015468056bc75e2d6310000091611f0b91612ccf565b611f159190612cee565b60038401556002848101549084015468056bc75e2d6310000091611f3891612ccf565b611f429190612cee565b600484015560005b6008840154811015611ff4576012546008850180546001600160a01b03909216916323b872dd91309133919086908110611f8657611f86612a9b565b90600052602060002001546040518463ffffffff1660e01b8152600401611faf93929190612c92565b600060405180830381600087803b158015611fc957600080fd5b505af1158015611fdd573d6000803e3d6000fd5b505050508080611fec90612cb6565b915050611f4a565b5082600a0154421061200c576064600d84015561214b565b6000620151808460090154426120229190612d10565b61202c9190612cee565b9050600181101561203c57600080fd5b83600b01546000036120685761205381600a612ccf565b61205e90601e612ac7565b600d850155612149565b83600b01546001036120db57806001108015612085575060048111155b1561209657601e600d850155612149565b8060041080156120a7575060088111155b156120b857603c600d850155612149565b8060081080156120c95750600d8111155b156120d6576050600d8501555b612149565b83600b0154600203612149578060011080156120f85750600a8111155b1561210957601e600d850155612149565b80600a10801561211a575060148111155b1561212b57603c600d850155612149565b80601410801561213c5750601d8111155b15612149576050600d8501555b505b600783018054600090915560015460405163a9059cbb60e01b81526001600160a01b039091169063a9059cbb906121889033908590600401612d59565b6020604051808303816000875af11580156121a7573d6000803e3d6000fd5b505050506040513d601f19601f820116820180604052508101906121cb9190612d23565b5060408051600081526020810191829052516121eb9160088701916125ff565b505060006001840181905560028401555050601001805461ffff191661010017905550565b60006011546000036122255750612710919050565b8160000361223957670de0b6b3a764000091505b6103e86011546005548461224d9190612ccf565b61225a906276a700612ccf565b6122649190612cee565b61226e9190612cee565b92915050565b601054600790600090431061228b5760105461228d565b435b8254909150811161229c575050565b6011546000036122aa579055565b6000806122bb8460000154846123ce565b60115491935091506122d68368056bc75e2d63100000612ccf565b6122e09190612cee565b84600101546122ef9190612ac7565b600185015560115461230a8268056bc75e2d63100000612ccf565b6123149190612cee565b84600201546123239190612ac7565b600285015550504390915550565b3361233a6115c4565b6001600160a01b0316146123605760405162461bcd60e51b815260040161056290612a66565b6001600160a01b0381166123c55760405162461bcd60e51b815260206004820152602660248201527f4f776e61626c653a206e6577206f776e657220697320746865207a65726f206160448201526564647265737360d01b6064820152608401610562565b610e098161240e565b600080806123dc8585612d10565b90506000600554826123ee9190612ccf565b90506000600654836124009190612ccf565b919791965090945050505050565b600080546001600160a01b038381166001600160a01b0319831681178455604051919092169283917f8be0079c531659141344cd1fd0a4f28419497f9722a3daafe3b4186f6b6457e09190a35050565b60015460405163a9059cbb60e01b81526001600160a01b039091169063a9059cbb906124909085908590600401612d59565b6020604051808303816000875af11580156124af573d6000803e3d6000fd5b505050506040513d601f19601f820116820180604052508101906124d39190612d23565b5080600360008282546124e69190612ac7565b90915550505050565b60025460405163a9059cbb60e01b81526001600160a01b039091169063a9059cbb906125219085908590600401612d59565b6020604051808303816000875af1158015612540573d6000803e3d6000fd5b505050506040513d601f19601f820116820180604052508101906125649190612d23565b5080600460008282546124e69190612ac7565b604051806101e001604052806000815260200160008152602001600081526020016125a061264a565b81526020016125ad61264a565b8152602001600081526020016060815260200160008152602001600081526020016000815260200160008152602001600081526020016125eb61264a565b815260006020820181905260409091015290565b82805482825590600052602060002090810192821561263a579160200282015b8281111561263a57825182559160200191906001019061261f565b50612646929150612668565b5090565b60405180604001604052806002906020820280368337509192915050565b5b808211156126465760008155600101612669565b6000806040838503121561269057600080fd5b50508035926020909101359150565b634e487b7160e01b600052604160045260246000fd5b6040516101a081016001600160401b03811182821017156126d8576126d861269f565b60405290565b604051601f8201601f191681016001600160401b03811182821017156127065761270661269f565b604052919050565b60ff81168114610e0957600080fd5b80356127288161270e565b919050565b6000806040838503121561274057600080fd5b82356001600160401b038082111561275757600080fd5b818501915085601f83011261276b57600080fd5b813560208282111561277f5761277f61269f565b8160051b92506127908184016126de565b82815292840181019281810190898511156127aa57600080fd5b948201945b848610156127c8578535825294820194908201906127af565b96506127d7905087820161271d565b9450505050509250929050565b6000602082840312156127f657600080fd5b5035919050565b6001600160a01b0381168114610e0957600080fd5b60006020828403121561282457600080fd5b8135610af6816127fd565b8060005b6002811015612852578151845260209384019390910190600101612833565b50505050565b602080825282518282018190526000919060409081850190868401855b828110156128b857815180518552868101516128938887018261282f565b508501516128a4606086018261282f565b5060a0939093019290850190600101612875565b5091979650505050505050565b6001600160a01b0391909116815260200190565b600081518084526020808501945080840160005b83811015612909578151875295820195908201906001016128ed565b509495945050505050565b6020815281516020820152602082015160408201526040820151606082015260006060830151612947608084018261282f565b50608083015161295a60c084018261282f565b5060a0830151610100818185015260c0850151915061024061012081818701526129886102608701856128d9565b60e08801516101408881019190915293880151610160808901919091529188015161018080890191909152938801516101a080890191909152918801516101c080890191909152848901519195509093916129e76101e089018661282f565b8801511515610220880152870151801515838801529250612a059050565b5090949350505050565b8015158114610e0957600080fd5b600060208284031215612a2f57600080fd5b8135610af681612a0f565b60008060408385031215612a4d57600080fd5b8235612a58816127fd565b946020939093013593505050565b6020808252818101527f4f776e61626c653a2063616c6c6572206973206e6f7420746865206f776e6572604082015260600190565b634e487b7160e01b600052603260045260246000fd5b634e487b7160e01b600052601160045260246000fd5b8082018082111561226e5761226e612ab1565b60006001600160401b0380831681851681830481118215151615612b0057612b00612ab1565b02949350505050565b80516127288161270e565b80516001600160401b038116811461272857600080fd5b600082601f830112612b3c57600080fd5b60405160a081018181106001600160401b0382111715612b5e57612b5e61269f565b6040528060a0840185811115612b7357600080fd5b845b81811015612b9457612b8681612b14565b835260209283019201612b75565b509195945050505050565b60006102208284031215612bb257600080fd5b612bba6126b5565b82518152612bca60208401612b09565b6020820152612bdb60408401612b09565b6040820152612bec60608401612b09565b6060820152612bfd60808401612b09565b6080820152612c0e60a08401612b09565b60a0820152612c1f60c08401612b09565b60c0820152612c3060e08401612b09565b60e0820152610100612c43818501612b14565b90820152610120612c55848201612b14565b90820152610140612c6885858301612b2b565b908201526101e0830151610160820152612c856102008401612b09565b6101808201529392505050565b6001600160a01b039384168152919092166020820152604081019190915260600190565b600060018201612cc857612cc8612ab1565b5060010190565b6000816000190483118215151615612ce957612ce9612ab1565b500290565b600082612d0b57634e487b7160e01b600052601260045260246000fd5b500490565b8181038181111561226e5761226e612ab1565b600060208284031215612d3557600080fd5b8151610af681612a0f565b600060208284031215612d5257600080fd5b5051919050565b6001600160a01b03929092168252602082015260400190565b600060208284031215612d8457600080fd5b8151610af6816127fd565b6001600160a01b039485168152929093166020830152604082015260608101919091526080019056fea2646970667358221220e8970d8c1872c3b337934b89ff039b13b8e162e0bbf2f7f21d27bec9e9ae2dd464736f6c63430008100033",
  "immutableReferences": {},
  "source": "// // SPDX-License-Identifier: MIT\npragma solidity ^0.8.0;\n\nimport \"./IRichHero.sol\";\nimport \"./Invite.sol\";\nimport \"@openzeppelin/contracts/token/ERC20/IERC20.sol\";\nimport \"@openzeppelin/contracts/access/Ownable.sol\";\n\n// Farm distributes the ERC20 rewards based on staked heroPower to each user.\n//\n// Cloned from https://github.com/SashimiProject/sashimiswap/blob/master/contracts/MasterChef.sol\n// Modified by ERC20 to work for non-mintable ERC20.\ncontract HeroFarm2 is Ownable {\n    // Info of each user.\n    struct UserInfo {\n        uint256 goldens;\n        uint256 realPower;\n        uint256 buffedPower; // How many power the user has provided.\n        uint256[2] rewardDebt; // Reward debt. See explanation below.\n        uint256[2] pendingAmount; // 0 mdao 1 ethf\n        uint256 mdao; //Deposited mdao\n        uint256[] tokenIds; //Deposited hero\n        uint256 startTime; //Start time\n        uint256 endTime; //End time\n        uint256 difficulty;\n        uint256 lastLockId;\n        uint256 exitPercent;\n        uint256[2] inviteReward;\n        bool inFarm;\n        bool isUnClaim;\n    }\n\n    struct LockInfo {\n        uint256 claimStartTime;\n        uint256[2] rewardAmount;\n        uint256[2] claimedAmount;\n    }\n\n    struct PoolInfo {\n        uint256 lastRewardBlock;    // Last block number that ERC20s distribution occurs.\n        uint256 accPowerPerShare;   // Accumulated ERC20s per share, times 1e36.\n        uint256 accPowerPerShareETHF;   // Accumulated ERC20s per share, times 1e36.\n    }\n\n    // Address of the ERC20 Token contract.\n    IERC20 public erc20;\n    IERC20 public wethf;\n    // The total amount of ERC20 that's paid out as reward.\n    uint256 public paidOut;\n    uint256 public paidOutETHF;\n    // ERC20 tokens rewarded per block.\n    uint256 public rewardPerBlock;\n    uint256 public rewardPerBlockETHF;\n\n    // Info of pool.\n    PoolInfo public poolInfo;\n    // Info of each user.\n    mapping (address => UserInfo) public userInfo;\n    mapping (address => mapping (uint256 => LockInfo)) public lockInfo;\n    // Staking Times\n    uint64[] difficultyTime = [7, 14, 30]; //0, 1, 2\n    // Staking Addition\n    uint64[] difficultyAddition = [1, 3, 5]; //1%, 3%, 5%\n    // Total Power\n    uint256 public totalAllocPoint;\n    // The block number when farming starts.\n    uint256 public startBlock;\n    // The block number when farming ends.\n    uint256 public endBlock;\n    uint256 public totalPowers;\n    IRichHero public hero;\n    Invite public inviterContract;\n    uint256[] public form1InviteAward = [6, 3, 1];\n    uint256[] public form2InviteAward = [30, 15, 5];\n    event Deposit(address indexed user, uint256 amount);\n    event Withdraw(address indexed user, uint256 amount);\n    event EmergencyWithdraw(address indexed user, uint256 amount);\n    event InviterClaim(address buyer, address inviter, uint256 generation, uint256 amount);\n\n    constructor(IRichHero _hero, address _invite, IERC20 _erc20, IERC20 _wethf, uint256 _rewardPerBlock, uint256 _rewardPerBlockETHF, uint256 _startBlock) {\n        hero = _hero;\n        erc20 = _erc20;\n        wethf = _wethf;\n        inviterContract = Invite(_invite);\n        rewardPerBlock = _rewardPerBlock;\n        rewardPerBlockETHF = _rewardPerBlockETHF;\n        startBlock = _startBlock;\n        endBlock = _startBlock + 7776000;\n        poolInfo = PoolInfo({\n            lastRewardBlock: block.number,\n            accPowerPerShare: 0,\n            accPowerPerShareETHF: 0\n        });\n    }\n\n    function setRewardPerBlock(uint256 _rewardPerBlock, uint256 _rewardPerBlockETHF) external onlyOwner {\n        rewardPerBlock = _rewardPerBlock;\n        rewardPerBlockETHF = _rewardPerBlockETHF;\n    }\n\n    // View function to see pending ERC20s for a user.\n    function pending(address _user) external view returns (uint256, uint256) {\n        PoolInfo storage pool = poolInfo;\n        UserInfo storage user = userInfo[_user];\n        uint256 accPowerPerShare = pool.accPowerPerShare;\n        uint256 accPowerPerShareETHF = pool.accPowerPerShareETHF;\n        if (block.number > pool.lastRewardBlock && totalPowers != 0) {\n            uint256 lastBlock = block.number < endBlock ? block.number : endBlock;\n\n            (uint256 erc20Rewards, uint256 ethfRewards) = computerReward(pool.lastRewardBlock, lastBlock);\n            accPowerPerShare = accPowerPerShare + (erc20Rewards * 1e20) / (totalPowers);\n            accPowerPerShareETHF = accPowerPerShareETHF + (ethfRewards * 1e20) / (totalPowers);\n        }\n        return (user.pendingAmount[0] + user.buffedPower * (accPowerPerShare) / (1e20) - (user.rewardDebt[0]),\n        user.pendingAmount[1] + user.buffedPower * (accPowerPerShare) / (1e20) - (user.rewardDebt[1]));\n    }\n\n    // View function for total reward the farm has yet to pay out.\n    function totalPending() external view returns (uint256, uint256) {\n        if (block.number <= startBlock) {\n            return (0, 0);\n        }\n        uint256 lastBlock = block.number < endBlock ? block.number : endBlock;\n        return (rewardPerBlock * (lastBlock - startBlock) - paidOut, \n        rewardPerBlockETHF * (lastBlock - startBlock) - paidOutETHF);\n    }\n\n    // Update reward variables of the given pool to be up-to-date.\n    function updatePool() public {\n        PoolInfo storage pool = poolInfo;\n        uint256 lastBlock = block.number < endBlock ? block.number : endBlock;\n\n        if (lastBlock <= pool.lastRewardBlock) {\n            return;\n        }\n        if (totalPowers == 0) {\n            pool.lastRewardBlock = lastBlock;\n            return;\n        }\n\n        (uint256 erc20Rewards, uint256 ethfRewards) = computerReward(pool.lastRewardBlock, lastBlock);\n        pool.accPowerPerShare = pool.accPowerPerShare + (erc20Rewards * (1e20) / (totalPowers));\n        pool.accPowerPerShareETHF = pool.accPowerPerShareETHF + (ethfRewards * (1e20) / (totalPowers));\n        pool.lastRewardBlock = block.number;\n    }\n\n    // Deposit hero power to Farm for ERC20 allocation.\n    function deposit(uint256[] memory _tokenIds, uint8 difficulty) public {\n        PoolInfo storage pool = poolInfo;\n        UserInfo storage user = userInfo[msg.sender];\n        require(!user.isUnClaim);\n        if (user.inFarm) {\n            require(difficulty == user.difficulty);\n            require(user.startTime + difficultyTime[user.difficulty] < block.timestamp, \"Expired\");\n        } else {\n            require(difficulty < 3);\n            user.inFarm = true;\n            user.difficulty = difficulty;\n            user.startTime = block.timestamp;\n            user.endTime = user.startTime + difficultyTime[user.difficulty] * 86400;\n        }\n        uint256 power;\n        uint256 totalGolden;\n        for(uint256 i = 0; i < _tokenIds.length; i++) {\n            IRichHero.HeroDetail memory detail = hero.getHero(_tokenIds[i]);\n            power += detail.power;\n            hero.transferFrom(msg.sender, address(this), _tokenIds[i]);\n            if (detail.rarity == 4) {\n                totalGolden++;\n            }\n            user.tokenIds.push(_tokenIds[i]);\n        }\n        updatePool();\n        user.realPower += power;\n        user.goldens += totalGolden;\n        uint256 buffedPower = user.realPower * (100 + user.goldens * 10) / 100;\n        if (user.buffedPower > 0) {\n            uint256 pendingAmount = user.buffedPower * (pool.accPowerPerShare) / (1e20) - (user.rewardDebt[0]);\n            uint256 pendingAmount2 = user.buffedPower * (pool.accPowerPerShare) / (1e20) - (user.rewardDebt[1]);\n            user.pendingAmount[0] += pendingAmount;\n            user.pendingAmount[1] += pendingAmount2;\n        }\n        totalPowers -= user.buffedPower;\n        user.buffedPower = buffedPower;\n        totalPowers += buffedPower;\n        user.rewardDebt[0] = user.buffedPower * (pool.accPowerPerShare) / (1e20);\n        user.rewardDebt[1] = user.buffedPower * (pool.accPowerPerShareETHF) / (1e20);\n        emit Deposit(msg.sender, power);\n    }\n\n    function depositMdao() public {\n        PoolInfo storage pool = poolInfo;\n        UserInfo storage user = userInfo[msg.sender];\n        require(user.inFarm);\n        require(user.mdao < user.realPower * 1e15);\n        erc20.transferFrom(msg.sender, address(this), user.realPower * 1e15 - user.mdao);\n        updatePool();\n        uint256 buffedPower = user.realPower * (100 + user.goldens * 10 + 10) / 100;\n        if (user.buffedPower > 0) {\n            uint256 pendingAmount = user.buffedPower * (pool.accPowerPerShare) / (1e20) - (user.rewardDebt[0]);\n            uint256 pendingAmount2 = user.buffedPower * (pool.accPowerPerShare) / (1e20) - (user.rewardDebt[1]);\n            user.pendingAmount[0] += pendingAmount;\n            user.pendingAmount[1] += pendingAmount2;\n        }\n        user.rewardDebt[0] = user.buffedPower * (pool.accPowerPerShare) / (1e20);\n        user.rewardDebt[1] = user.buffedPower * (pool.accPowerPerShareETHF) / (1e20);\n        totalPowers -= user.buffedPower;\n        user.buffedPower = buffedPower;\n        totalPowers += buffedPower;\n        user.mdao = user.realPower * 1e15;\n    }\n\n    function canDepositMdao(address _user) public view returns (uint256) {\n        UserInfo storage user = userInfo[_user];\n        return (user.realPower * 1e15 - user.mdao);\n    }\n            \n    // Claim Heros tokens from Farm.\n    function claimHero() public {\n        PoolInfo storage pool = poolInfo;\n        UserInfo storage user = userInfo[msg.sender];\n        require(user.inFarm, \"withdraw: can't withdraw\");\n        updatePool();\n        totalPowers -= user.buffedPower;\n        uint256 pendingAmount = user.buffedPower * (pool.accPowerPerShare) / (1e20) - (user.rewardDebt[0]);\n        uint256 pendingAmount2 = user.buffedPower * (pool.accPowerPerShare) / (1e20) - (user.rewardDebt[1]);\n        user.pendingAmount[0] += pendingAmount;\n        user.pendingAmount[1] += pendingAmount2;\n        user.rewardDebt[0] = user.buffedPower * (pool.accPowerPerShare) / (1e20);\n        user.rewardDebt[1] = user.buffedPower * (pool.accPowerPerShareETHF) / (1e20);\n\n        for (uint256 i = 0; i < user.tokenIds.length; i++) {\n            hero.transferFrom(address(this), address(msg.sender), user.tokenIds[i]);\n        }\n        if (block.timestamp >= user.endTime) {\n            user.exitPercent = 100;\n        } else {\n            uint256 day = (block.timestamp - user.startTime) / 1 days;\n            require(day >= 1);\n            if (user.difficulty == 0) {\n                //70%60%\n                user.exitPercent = 30 + 10 * day;\n            } else if (user.difficulty == 1) {\n                //1470%5--840%9-1320%\n                if (1 < day && day <= 4){\n                    user.exitPercent = 30;\n                } else if (4 < day && day <= 8) {\n                    user.exitPercent = 60;\n                } else if (8 < day && day <= 13) {\n                    user.exitPercent = 80;\n                }\n            } else if (user.difficulty == 2) {\n                //11070%11--2040%21-2920%\n                if (1 < day && day <= 10){\n                    user.exitPercent = 30;\n                } else if (10 < day && day <= 20) {\n                    user.exitPercent = 60;\n                } else if (20 < day && day <= 29) {\n                    user.exitPercent = 80;\n                }\n            }\n        }\n        uint256 amount = user.mdao;\n        user.mdao = 0;\n        erc20.transfer(msg.sender, amount);\n        user.tokenIds = new uint256[](0);\n        user.realPower = 0;\n        user.buffedPower = 0;\n        user.inFarm = false;\n        user.isUnClaim = true;\n    }\n\n    //todo:\n    // Withdraw Heros tokens from Farm.\n    function decideClaimForm(bool isLockClaim) public {\n        UserInfo storage user = userInfo[msg.sender];\n        require(user.isUnClaim);\n        user.isUnClaim = false;\n        if (!isLockClaim) {\n            // 20\n            erc20Transfer(msg.sender, user.pendingAmount[0] * user.exitPercent / 100 * 80 / 100);\n            wethfTransfer(msg.sender, user.pendingAmount[1] * user.exitPercent / 100 * 80 / 100);\n            //\n            address previous = msg.sender;\n            for (uint256 i = 0; i < inviterContract.awardLength(); i++) {\n                previous = inviterContract.superior(previous);\n                if (previous != address(0)) {\n                    uint256 award = form1InviteAward[i];\n                    uint256 amount = user.pendingAmount[0] * user.exitPercent / 100 * award / 1000;\n                    uint256 amount2 = user.pendingAmount[1] * user.exitPercent / 100 * award / 1000;\n                    UserInfo storage preUser = userInfo[previous];\n                    preUser.inviteReward[0] += amount;\n                    preUser.inviteReward[1] += amount2;\n                    erc20Transfer(previous, amount);\n                    wethfTransfer(previous, amount2);\n                    emit InviterClaim(msg.sender, previous, i+1, amount);\n                } else {\n                    break;\n                }\n            }\n        } else {\n            lockInfo[msg.sender][user.lastLockId].claimStartTime = block.timestamp;\n            lockInfo[msg.sender][user.lastLockId].rewardAmount[0] = user.pendingAmount[0] * user.exitPercent / 100 * 115 / 100;    \n            lockInfo[msg.sender][user.lastLockId].rewardAmount[1] = user.pendingAmount[1] * user.exitPercent / 100 * 115 / 100;    \n            user.lastLockId++;\n        }\n        user.pendingAmount[0] = 0;\n        user.pendingAmount[1] = 0;\n        user.rewardDebt[0] = 0;\n        user.rewardDebt[1] = 0;\n    }\n\n    function getUserInfo(address user) public view returns(UserInfo memory) {\n        return userInfo[user];\n    }\n\n    function canRelease(address user) public view returns(bool release) {\n        UserInfo memory info = userInfo[user];\n        if (!info.inFarm) {\n            return false;\n        }\n        uint256 day = (block.timestamp - info.startTime) / 1 days;\n        return day >= 1;\n    }\n\n    // Withdraw Heros tokens from Farm.\n    function lockRewardWithdraw(uint256 lockId) public {\n        LockInfo storage lock = lockInfo[msg.sender][lockId];\n        require(lock.rewardAmount[0] > 0);\n        uint256 timeClaimReward = (block.timestamp - lock.claimStartTime) * lock.rewardAmount[0] / 30 days;\n        if (timeClaimReward > lock.rewardAmount[0]) {\n            timeClaimReward = lock.rewardAmount[0];\n        }\n        uint256 timeClaimReward2 = (block.timestamp - lock.claimStartTime) * lock.rewardAmount[1] / 30 days;\n        if (timeClaimReward2 > lock.rewardAmount[1]) {\n            timeClaimReward2 = lock.rewardAmount[1];\n        }\n        uint256 canClaimReward = timeClaimReward - lock.claimedAmount[0];\n        erc20Transfer(msg.sender, canClaimReward * 95 / 100);\n        lock.claimedAmount[0] += canClaimReward;\n        uint256 canClaimReward2 = timeClaimReward2 - lock.claimedAmount[1];\n        wethfTransfer(msg.sender, canClaimReward2 * 95 / 100);\n        lock.claimedAmount[1] += canClaimReward2;\n        //invite\n        address previous = msg.sender;\n        for (uint256 i = 0; i < inviterContract.awardLength(); i++) {\n            previous = inviterContract.superior(previous);\n            if (previous != address(0)) {\n                uint256 award = form2InviteAward[i];\n                uint256 amount = canClaimReward * award / 1000;\n                uint256 amount2 = canClaimReward2 * award / 1000;\n                UserInfo storage preUser = userInfo[previous];\n                preUser.inviteReward[0] += amount;\n                preUser.inviteReward[1] += amount;\n                erc20Transfer(previous, amount);\n                wethfTransfer(previous, amount2);\n                emit InviterClaim(msg.sender, previous, i+1, amount);\n            } else {\n                break;\n            }\n        }\n    }\n\n    // Transfer ERC20 and update the required ERC20 to payout all rewards\n    function erc20Transfer(address _to, uint256 _amount) internal {\n        erc20.transfer(_to, _amount);\n        paidOut += _amount;\n    }\n\n    // Transfer ERC20 and update the required ERC20 to payout all rewards\n    function wethfTransfer(address _to, uint256 _amount) internal {\n        wethf.transfer(_to, _amount);\n        paidOutETHF += _amount;\n    }\n\n    // Compute Reward from block to block \n    function computerReward(uint256 _fromBlock, uint256 _toBlock) private view returns (uint256, uint256) {\n        uint256 nrOfBlocks = _toBlock - _fromBlock;\n        uint256 erc20Reward = nrOfBlocks * rewardPerBlock;\n        uint256 ethfReward = nrOfBlocks * rewardPerBlockETHF;\n        return (erc20Reward, ethfReward);\n    }\n\n    function lockInfos(address user) public view returns(LockInfo[] memory locks) {\n        for (uint256 i = 0; i < userInfo[user].lastLockId; i++) {\n            locks[i] = lockInfo[user][i];\n        }\n    }\n\n    // Compute apy of pool\n    function APYPercent(uint256 power) external view returns (uint256 apy) {\n        if (totalPowers == 0) {\n            return 10000;\n        }\n        if (power == 0) {\n            power = 1000000000000000000;\n        }\n        apy = power * (rewardPerBlock) * (7776000) / (totalPowers) / 1000;\n        return apy;\n    }\n\n    function withdraw() public onlyOwner {\n        payable(msg.sender).transfer(address(this).balance);\n    }\n\n    function withdraw(address _erc20) public onlyOwner {\n        IERC20(_erc20).transfer(msg.sender, IERC20(_erc20).balanceOf(address(this)));\n    }\n}\n",
  "sourcePath": "/Users/hy/new-rich-contract/contracts/HeroFarm2.sol",
  "compiler": {
    "name": "solc",
    "version": "0.8.16+commit.07a7930e.Emscripten.clang"
  },
  "schemaVersion": "3.4.3",
  "updatedAt": "2022-10-26T16:23:43.158Z",
  "devdoc": {
    "kind": "dev",
    "methods": {
      "owner()": {
        "details": "Returns the address of the current owner."
      },
      "renounceOwnership()": {
        "details": "Leaves the contract without owner. It will not be possible to call `onlyOwner` functions anymore. Can only be called by the current owner. NOTE: Renouncing ownership will leave the contract without an owner, thereby removing any functionality that is only available to the owner."
      },
      "transferOwnership(address)": {
        "details": "Transfers ownership of the contract to a new account (`newOwner`). Can only be called by the current owner."
      }
    },
    "version": 1
  },
  "userdoc": {
    "kind": "user",
    "methods": {},
    "version": 1
  }
}