{
	"data": {
		"bytecode": {
			"linkReferences": {},
			"object": "600060025560e060405260076080908152600e60a052601e60c0526200002a906008906003620001cd565b5060408051606081018252600181526003602082018190526005928201929092526200005a9160099190620001cd565b506000600a5560408051606081018252600681526003602082018190526001928201929092526200008f916010919062000286565b5060408051606081018252601e8152600f6020820152600591810191909152620000be90601190600362000286565b50348015620000cc57600080fd5b506040516200266038038062002660833981016040819052620000ef91620002f9565b620000fa336200017d565b600e80546001600160a01b038088166001600160a01b03199283161790925560018054868416908316179055600f8054928716929091169190911790556003829055600b81905562000150816276a7006200035e565b600c5550506040805180820190915243808252600060209092018290526004556005555062000385915050565b600080546001600160a01b038381166001600160a01b0319831681178455604051919092169283917f8be0079c531659141344cd1fd0a4f28419497f9722a3daafe3b4186f6b6457e09190a35050565b82805482825590600052602060002090600301600490048101928215620002745791602002820160005b838211156200023d57835183826101000a8154816001600160401b03021916908360ff1602179055509260200192600801602081600701049283019260010302620001f7565b8015620002725782816101000a8154906001600160401b0302191690556008016020816007010492830192600103026200023d565b505b5062000282929150620002c9565b5090565b82805482825590600052602060002090810192821562000274579160200282015b8281111562000274578251829060ff16905591602001919060010190620002a7565b5b80821115620002825760008155600101620002ca565b6001600160a01b0381168114620002f657600080fd5b50565b600080600080600060a086880312156200031257600080fd5b85516200031f81620002e0565b60208701519095506200033281620002e0565b60408701519094506200034581620002e0565b6060870151608090970151959894975095949392505050565b600082198211156200038057634e487b7160e01b600052601160045260246000fd5b500190565b6122cb80620003956000396000f3fe608060405234801561001057600080fd5b50600436106101cf5760003560e01c80636386c1c7116101045780638da5cb5b116100a2578063c91b46c611610071578063c91b46c6146104aa578063d4796ef2146104b2578063e3161ddd146104c5578063f2fde38b146104cd57600080fd5b80638da5cb5b1461041e5780639f608da31461042f578063acff05b014610442578063b2520a7c1461045557600080fd5b8063715018a6116100de578063715018a6146103e7578063785e9e86146103ef5780637f513d5d146104025780638ae39cac1461041557600080fd5b80636386c1c7146103ab5780636917c501146103cb5780636ff1c9bc146103d457600080fd5b80633f90916a116101715780635a2f3d091161014b5780635a2f3d09146103595780635c76ca2d1461037c5780635eebea201461038557806360343cae1461039857600080fd5b80633f90916a1461031d57806347646b9e1461032557806348cd4cb11461035057600080fd5b806317caf6f1116101ad57806317caf6f1146102185780631959a0021461022157806339307b54146103025780633bddf74e1461031557600080fd5b8063083c6323146101d45780630af72c69146101f057806310b43acf14610205575b600080fd5b6101dd600c5481565b6040519081526020015b60405180910390f35b6102036101fe366004611d43565b6104e0565b005b6101dd610213366004611dfb565b610934565b6101dd600a5481565b61029c61022f366004611e29565b60066020819052600091825260409091208054600182015460028301546003840154600485015495850154600786015460088701546009880154600a890154600b8a0154600c909a0154989a979996989597969495939492939192909160ff80831692610100900416908d565b604080519d8e5260208e019c909c529a8c019990995260608b019790975260808a019590955260a089019390935260c088019190915260e0870152610100860152610120850152151561014084015215156101608301526101808201526101a0016101e7565b6101dd610310366004611e29565b610955565b610203610999565b6101dd610bd5565b600f54610338906001600160a01b031681565b6040516001600160a01b0390911681526020016101e7565b6101dd600b5481565b600454600554610367919082565b604080519283526020830191909152016101e7565b6101dd60025481565b6101dd610393366004611e29565b610c2b565b6101dd6103a6366004611dfb565b610d01565b6103be6103b9366004611e29565b610d11565b6040516101e79190611e81565b6101dd600d5481565b6102036103e2366004611e29565b610e8e565b610203610fd2565b600154610338906001600160a01b031681565b600e54610338906001600160a01b031681565b6101dd60035481565b6000546001600160a01b0316610338565b61020361043d366004611f5e565b611008565b610203610450366004611dfb565b61132b565b61048f610463366004611f7b565b600760209081526000928352604080842090915290825290208054600182015460029092015490919083565b604080519384526020840192909252908201526060016101e7565b6102036115bc565b6101dd6104c0366004611dfb565b6119bf565b610203611a21565b6102036104db366004611e29565b611aa7565b336000908152600660205260409020600b81015460049190610100900460ff161561050a57600080fd5b600b81015460ff16156105c65780600801548360ff161461052a57600080fd5b42600882600801548154811061054257610542611fa7565b90600052602060002090600491828204019190066008029054906101000a900467ffffffffffffffff1667ffffffffffffffff1682600601546105859190611fd3565b106105c15760405162461bcd60e51b8152602060048201526007602482015266115e1c1a5c995960ca1b60448201526064015b60405180910390fd5b610653565b60038360ff16106105d657600080fd5b600b8101805460ff1916600117905560ff831660088083018290554260068401558054909190811061060a5761060a611fa7565b90600052602060002090600491828204019190066008029054906101000a900467ffffffffffffffff1667ffffffffffffffff16816006015461064d9190611fd3565b60078201555b60008060005b86518110156107cd57600e5487516000916001600160a01b0316906321d80111908a908590811061068c5761068c611fa7565b60200260200101516040518263ffffffff1660e01b81526004016106b291815260200190565b6102206040518083038186803b1580156106cb57600080fd5b505afa1580156106df573d6000803e3d6000fd5b505050506040513d601f19601f820116820180604052508101906107039190612083565b9050806101600151846107169190611fd3565b600e5489519195506001600160a01b0316906323b872dd90339030908c908790811061074457610744611fa7565b60200260200101516040518463ffffffff1660e01b815260040161076a93929190612176565b600060405180830381600087803b15801561078457600080fd5b505af1158015610798573d6000803e3d6000fd5b50505050806060015160ff16600414156107ba57826107b68161219a565b9350505b50806107c58161219a565b915050610659565b50818360010160008282546107e29190611fd3565b90915550508254819084906000906107fb908490611fd3565b9091555050825460009060649061081390600a6121b5565b61081e906064611fd3565b856001015461082d91906121b5565b61083791906121d4565b600285018190559050610848611a21565b80600d600082825461085a9190611fd3565b90915550506002840154156108c457600084600301546a0c097ce7bc90715b34b9f160241b8760010154876002015461089391906121b5565b61089d91906121d4565b6108a791906121f6565b9050808560090160008282546108bd9190611fd3565b9091555050505b6a0c097ce7bc90715b34b9f160241b856001015485600201546108e791906121b5565b6108f191906121d4565b600385015560405183815233907fe1fffcc4923d04b559f4d29a8bfc6cda04eb5b0d3c460751c2402c5c5cc9109c9060200160405180910390a250505050505050565b6011818154811061094457600080fd5b600091825260209091200154905081565b6001600160a01b0381166000908152600660205260408120600481015460018201546109889066038d7ea4c680006121b5565b61099291906121f6565b9392505050565b336000908152600660205260409020600b8101546004919060ff166109bd57600080fd5b60018101546109d39066038d7ea4c680006121b5565b8160040154106109e257600080fd5b600180546004830154918301546001600160a01b03909116916323b872dd9133913091610a169066038d7ea4c680006121b5565b610a2091906121f6565b6040518463ffffffff1660e01b8152600401610a3e93929190612176565b602060405180830381600087803b158015610a5857600080fd5b505af1158015610a6c573d6000803e3d6000fd5b505050506040513d601f19601f82011682018060405250810190610a90919061220d565b50610a99611a21565b8054600090606490610aac90600a6121b5565b610ab7906064611fd3565b610ac290600a611fd3565b8360010154610ad191906121b5565b610adb91906121d4565b600283015490915015610b4357600082600301546a0c097ce7bc90715b34b9f160241b85600101548560020154610b1291906121b5565b610b1c91906121d4565b610b2691906121f6565b905080836009016000828254610b3c9190611fd3565b9091555050505b6a0c097ce7bc90715b34b9f160241b83600101548360020154610b6691906121b5565b610b7091906121d4565b60038301556002820154600d8054600090610b8c9084906121f6565b909155505060028201819055600d8054829190600090610bad908490611fd3565b90915550506001820154610bc89066038d7ea4c680006121b5565b8260040181905550505050565b6000600b544311610be65750600090565b6000600c544310610bf957600c54610bfb565b435b9050600254600b5482610c0e91906121f6565b600354610c1b91906121b5565b610c2591906121f6565b91505090565b6001600160a01b0381166000908152600660205260408120600554600480549092919043118015610c5d5750600d5415155b15610cc0576000600c544310610c7557600c54610c77565b435b90506000610c89856000015483611b42565b600d54909150610ca7826a0c097ce7bc90715b34b9f160241b6121b5565b610cb191906121d4565b610cbb9084611fd3565b925050505b81600301546a0c097ce7bc90715b34b9f160241b828460020154610ce491906121b5565b610cee91906121d4565b610cf891906121f6565b95945050505050565b6010818154811061094457600080fd5b610d87604051806101c001604052806000815260200160008152602001600081526020016000815260200160008152602001606081526020016000815260200160008152602001600081526020016000815260200160008152602001600015158152602001600015158152602001600081525090565b6001600160a01b03821660009081526006602090815260409182902082516101c0810184528154815260018201548184015260028201548185015260038201546060820152600482015460808201526005820180548551818602810186019096528086529194929360a08601939290830182828015610e2557602002820191906000526020600020905b815481526020019060010190808311610e11575b505050918352505060068201546020820152600782015460408201526008820154606082015260098201546080820152600a82015460a0820152600b82015460ff808216151560c08401526101009182900416151560e0830152600c9092015491015292915050565b6000546001600160a01b03163314610eb85760405162461bcd60e51b81526004016105b89061222a565b806001600160a01b031663a9059cbb610ed96000546001600160a01b031690565b6040516370a0823160e01b81523060048201526001600160a01b038516906370a082319060240160206040518083038186803b158015610f1857600080fd5b505afa158015610f2c573d6000803e3d6000fd5b505050506040513d601f19601f82011682018060405250810190610f50919061225f565b6040516001600160e01b031960e085901b1681526001600160a01b0390921660048301526024820152604401602060405180830381600087803b158015610f9657600080fd5b505af1158015610faa573d6000803e3d6000fd5b505050506040513d601f19601f82011682018060405250810190610fce919061220d565b5050565b6000546001600160a01b03163314610ffc5760405162461bcd60e51b81526004016105b89061222a565b6110066000611b61565b565b336000908152600660205260409020600b810154610100900460ff1661102d57600080fd5b600b8101805461ff0019169055816112885761107e3360648084600c0154856009015461105a91906121b5565b61106491906121d4565b61106f9060506121b5565b61107991906121d4565b611bb1565b3360005b600f60009054906101000a90046001600160a01b03166001600160a01b031663f842d40b6040518163ffffffff1660e01b815260040160206040518083038186803b1580156110d057600080fd5b505afa1580156110e4573d6000803e3d6000fd5b505050506040513d601f19601f82011682018060405250810190611108919061225f565b81101561128157600f54604051631b43f31160e31b81526001600160a01b0384811660048301529091169063da1f98889060240160206040518083038186803b15801561115457600080fd5b505afa158015611168573d6000803e3d6000fd5b505050506040513d601f19601f8201168201806040525081019061118c9190612278565b91506001600160a01b0382161561126a576000601082815481106111b2576111b2611fa7565b9060005260206000200154905060006103e882606487600c015488600901546111db91906121b5565b6111e591906121d4565b6111ef91906121b5565b6111f991906121d4565b90506112058482611bb1565b7f061f9efc09a7e2bff53abe4fcf2714bb516b14ce6b8893742cc587de5cd880793385611233866001611fd3565b604080516001600160a01b039485168152939092166020840152908201526060810183905260800160405180910390a1505061126f565b611281565b806112798161219a565b915050611082565b5050611319565b336000908152600760209081526040808320600a85015484529091529020429055600c810154600982015460649182916112c291906121b5565b6112cc91906121d4565b6112d79060736121b5565b6112e191906121d4565b336000908152600760209081526040808320600a8601805485529252822060010192909255815491906113138361219a565b91905055505b60006009820181905560039091015550565b3360009081526007602090815260408083208484529091529020600181015461135357600080fd5b6001810154815460009162278d009161136c90426121f6565b61137691906121b5565b61138091906121d4565b90508160010154811115611395575060018101545b60008260020154826113a791906121f6565b90506113ba33606461106f84605f6121b5565b808360020160008282546113ce9190611fd3565b9091555033905060005b600f60009054906101000a90046001600160a01b03166001600160a01b031663f842d40b6040518163ffffffff1660e01b815260040160206040518083038186803b15801561142657600080fd5b505afa15801561143a573d6000803e3d6000fd5b505050506040513d601f19601f8201168201806040525081019061145e919061225f565b8110156115b457600f54604051631b43f31160e31b81526001600160a01b0384811660048301529091169063da1f98889060240160206040518083038186803b1580156114aa57600080fd5b505afa1580156114be573d6000803e3d6000fd5b505050506040513d601f19601f820116820180604052508101906114e29190612278565b91506001600160a01b0382161561159d5760006011828154811061150857611508611fa7565b600091825260208220015491506103e861152283876121b5565b61152c91906121d4565b90506115388482611bb1565b7f061f9efc09a7e2bff53abe4fcf2714bb516b14ce6b8893742cc587de5cd880793385611566866001611fd3565b604080516001600160a01b039485168152939092166020840152908201526060810183905260800160405180910390a150506115a2565b6115b4565b806115ac8161219a565b9150506113d8565b505050505050565b336000908152600660205260409020600b8101546004919060ff166116365760405162461bcd60e51b815260206004820152602a60248201527f77697468647261773a2063616e2774207769746864726177206d6f7265207468604482015269185b8819195c1bdcda5d60b21b60648201526084016105b8565b61163e611a21565b8060020154600d600082825461165491906121f6565b92505081905550600081600301546a0c097ce7bc90715b34b9f160241b8460010154846002015461168591906121b5565b61168f91906121d4565b61169991906121f6565b9050808260090160008282546116af9190611fd3565b9091555050600183015460028301546a0c097ce7bc90715b34b9f160241b916116d7916121b5565b6116e191906121d4565b600383015560005b600583015481101561179357600e546005840180546001600160a01b03909216916323b872dd9130913391908690811061172557611725611fa7565b90600052602060002001546040518463ffffffff1660e01b815260040161174e93929190612176565b600060405180830381600087803b15801561176857600080fd5b505af115801561177c573d6000803e3d6000fd5b50505050808061178b9061219a565b9150506116e9565b50816007015442106117ab576064600c8301556118e9565b6000620151808360060154426117c191906121f6565b6117cb91906121d4565b905060018110156117db57600080fd5b6008830154611804576117ef81600a6121b5565b6117fa90601e611fd3565b600c8401556118e7565b82600801546001141561187857806001108015611822575060048111155b1561183357601e600c8401556118e7565b806004108015611844575060088111155b1561185557603c600c8401556118e7565b8060081080156118665750600d8111155b15611873576050600c8401555b6118e7565b8260080154600214156118e7578060011080156118965750600a8111155b156118a757601e600c8401556118e7565b80600a1080156118b8575060148111155b156118c957603c600c8401556118e7565b8060141080156118da5750601d8111155b156118e7576050600c8401555b505b6004808301805460009091556001546040516323b872dd60e01b815291926001600160a01b03909116916323b872dd916119299130913391879101612176565b602060405180830381600087803b15801561194357600080fd5b505af1158015611957573d6000803e3d6000fd5b505050506040513d601f19601f8201168201806040525081019061197b919061220d565b50604080516000815260208101918290525161199b916005860191611c53565b5050600060018301819055600283015550600b01805461ffff191661010017905550565b6000600d54600014156119d55750612710919050565b816119e657670de0b6b3a764000091505b6103e8600d54600354846119fa91906121b5565b611a07906276a7006121b5565b611a1191906121d4565b611a1b91906121d4565b92915050565b600c546004906000904310611a3857600c54611a3a565b435b82549091508111611a49575050565b600d54611a54579055565b6000611a64836000015483611b42565b600d54909150611a82826a0c097ce7bc90715b34b9f160241b6121b5565b611a8c91906121d4565b8360010154611a9b9190611fd3565b60018401555050439055565b6000546001600160a01b03163314611ad15760405162461bcd60e51b81526004016105b89061222a565b6001600160a01b038116611b365760405162461bcd60e51b815260206004820152602660248201527f4f776e61626c653a206e6577206f776e657220697320746865207a65726f206160448201526564647265737360d01b60648201526084016105b8565b611b3f81611b61565b50565b600080611b4f84846121f6565b9050600060035482610cf891906121b5565b600080546001600160a01b038381166001600160a01b0319831681178455604051919092169283917f8be0079c531659141344cd1fd0a4f28419497f9722a3daafe3b4186f6b6457e09190a35050565b60015460405163a9059cbb60e01b81526001600160a01b038481166004830152602482018490529091169063a9059cbb90604401602060405180830381600087803b158015611bff57600080fd5b505af1158015611c13573d6000803e3d6000fd5b505050506040513d601f19601f82011682018060405250810190611c37919061220d565b508060026000828254611c4a9190611fd3565b90915550505050565b828054828255906000526020600020908101928215611c8e579160200282015b82811115611c8e578251825591602001919060010190611c73565b50611c9a929150611c9e565b5090565b5b80821115611c9a5760008155600101611c9f565b634e487b7160e01b600052604160045260246000fd5b6040516101a0810167ffffffffffffffff81118282101715611ced57611ced611cb3565b60405290565b604051601f8201601f1916810167ffffffffffffffff81118282101715611d1c57611d1c611cb3565b604052919050565b60ff81168114611b3f57600080fd5b8035611d3e81611d24565b919050565b60008060408385031215611d5657600080fd5b823567ffffffffffffffff80821115611d6e57600080fd5b818501915085601f830112611d8257600080fd5b8135602082821115611d9657611d96611cb3565b8160051b9250611da7818401611cf3565b8281529284018101928181019089851115611dc157600080fd5b948201945b84861015611ddf57853582529482019490820190611dc6565b9650611dee9050878201611d33565b9450505050509250929050565b600060208284031215611e0d57600080fd5b5035919050565b6001600160a01b0381168114611b3f57600080fd5b600060208284031215611e3b57600080fd5b813561099281611e14565b600081518084526020808501945080840160005b83811015611e7657815187529582019590820190600101611e5a565b509495945050505050565b6020815281516020820152602082015160408201526040820151606082015260608201516080820152608082015160a0820152600060a08301516101c08060c0850152611ed26101e0850183611e46565b60c086015160e08681019190915286015161010080870191909152860151610120808701919091528601516101408087019190915286015161016080870191909152860151909250610180611f2a8187018315159052565b86015190506101a0611f3f8682018315159052565b959095015193019290925250919050565b8015158114611b3f57600080fd5b600060208284031215611f7057600080fd5b813561099281611f50565b60008060408385031215611f8e57600080fd5b8235611f9981611e14565b946020939093013593505050565b634e487b7160e01b600052603260045260246000fd5b634e487b7160e01b600052601160045260246000fd5b60008219821115611fe657611fe6611fbd565b500190565b8051611d3e81611d24565b805167ffffffffffffffff81168114611d3e57600080fd5b600082601f83011261201f57600080fd5b60405160a0810181811067ffffffffffffffff8211171561204257612042611cb3565b6040528060a084018581111561205757600080fd5b845b818110156120785761206a81611ff6565b835260209283019201612059565b509195945050505050565b6000610220828403121561209657600080fd5b61209e611cc9565b825181526120ae60208401611feb565b60208201526120bf60408401611feb565b60408201526120d060608401611feb565b60608201526120e160808401611feb565b60808201526120f260a08401611feb565b60a082015261210360c08401611feb565b60c082015261211460e08401611feb565b60e0820152610100612127818501611ff6565b90820152610120612139848201611ff6565b9082015261014061214c8585830161200e565b908201526101e08301516101608201526121696102008401611feb565b6101808201529392505050565b6001600160a01b039384168152919092166020820152604081019190915260600190565b60006000198214156121ae576121ae611fbd565b5060010190565b60008160001904831182151516156121cf576121cf611fbd565b500290565b6000826121f157634e487b7160e01b600052601260045260246000fd5b500490565b60008282101561220857612208611fbd565b500390565b60006020828403121561221f57600080fd5b815161099281611f50565b6020808252818101527f4f776e61626c653a2063616c6c6572206973206e6f7420746865206f776e6572604082015260600190565b60006020828403121561227157600080fd5b5051919050565b60006020828403121561228a57600080fd5b815161099281611e1456fea26469706673582212204cd0c0697f79f408a3e9f8402666ff65134e18631b2fdd35cc2b847bd9cb733364736f6c63430008080033",
			"opcodes": "PUSH1 0x0 PUSH1 0x2 SSTORE PUSH1 0xE0 PUSH1 0x40 MSTORE PUSH1 0x7 PUSH1 0x80 SWAP1 DUP2 MSTORE PUSH1 0xE PUSH1 0xA0 MSTORE PUSH1 0x1E PUSH1 0xC0 MSTORE PUSH3 0x2A SWAP1 PUSH1 0x8 SWAP1 PUSH1 0x3 PUSH3 0x1CD JUMP JUMPDEST POP PUSH1 0x40 DUP1 MLOAD PUSH1 0x60 DUP2 ADD DUP3 MSTORE PUSH1 0x1 DUP2 MSTORE PUSH1 0x3 PUSH1 0x20 DUP3 ADD DUP2 SWAP1 MSTORE PUSH1 0x5 SWAP3 DUP3 ADD SWAP3 SWAP1 SWAP3 MSTORE PUSH3 0x5A SWAP2 PUSH1 0x9 SWAP2 SWAP1 PUSH3 0x1CD JUMP JUMPDEST POP PUSH1 0x0 PUSH1 0xA SSTORE PUSH1 0x40 DUP1 MLOAD PUSH1 0x60 DUP2 ADD DUP3 MSTORE PUSH1 0x6 DUP2 MSTORE PUSH1 0x3 PUSH1 0x20 DUP3 ADD DUP2 SWAP1 MSTORE PUSH1 0x1 SWAP3 DUP3 ADD SWAP3 SWAP1 SWAP3 MSTORE PUSH3 0x8F SWAP2 PUSH1 0x10 SWAP2 SWAP1 PUSH3 0x286 JUMP JUMPDEST POP PUSH1 0x40 DUP1 MLOAD PUSH1 0x60 DUP2 ADD DUP3 MSTORE PUSH1 0x1E DUP2 MSTORE PUSH1 0xF PUSH1 0x20 DUP3 ADD MSTORE PUSH1 0x5 SWAP2 DUP2 ADD SWAP2 SWAP1 SWAP2 MSTORE PUSH3 0xBE SWAP1 PUSH1 0x11 SWAP1 PUSH1 0x3 PUSH3 0x286 JUMP JUMPDEST POP CALLVALUE DUP1 ISZERO PUSH3 0xCC JUMPI PUSH1 0x0 DUP1 REVERT JUMPDEST POP PUSH1 0x40 MLOAD PUSH3 0x2660 CODESIZE SUB DUP1 PUSH3 0x2660 DUP4 CODECOPY DUP2 ADD PUSH1 0x40 DUP2 SWAP1 MSTORE PUSH3 0xEF SWAP2 PUSH3 0x2F9 JUMP JUMPDEST PUSH3 0xFA CALLER PUSH3 0x17D JUMP JUMPDEST PUSH1 0xE DUP1 SLOAD PUSH1 0x1 PUSH1 0x1 PUSH1 0xA0 SHL SUB DUP1 DUP9 AND PUSH1 0x1 PUSH1 0x1 PUSH1 0xA0 SHL SUB NOT SWAP3 DUP4 AND OR SWAP1 SWAP3 SSTORE PUSH1 0x1 DUP1 SLOAD DUP7 DUP5 AND SWAP1 DUP4 AND OR SWAP1 SSTORE PUSH1 0xF DUP1 SLOAD SWAP3 DUP8 AND SWAP3 SWAP1 SWAP2 AND SWAP2 SWAP1 SWAP2 OR SWAP1 SSTORE PUSH1 0x3 DUP3 SWAP1 SSTORE PUSH1 0xB DUP2 SWAP1 SSTORE PUSH3 0x150 DUP2 PUSH3 0x76A700 PUSH3 0x35E JUMP JUMPDEST PUSH1 0xC SSTORE POP POP PUSH1 0x40 DUP1 MLOAD DUP1 DUP3 ADD SWAP1 SWAP2 MSTORE NUMBER DUP1 DUP3 MSTORE PUSH1 0x0 PUSH1 0x20 SWAP1 SWAP3 ADD DUP3 SWAP1 MSTORE PUSH1 0x4 SSTORE PUSH1 0x5 SSTORE POP PUSH3 0x385 SWAP2 POP POP JUMP JUMPDEST PUSH1 0x0 DUP1 SLOAD PUSH1 0x1 PUSH1 0x1 PUSH1 0xA0 SHL SUB DUP4 DUP2 AND PUSH1 0x1 PUSH1 0x1 PUSH1 0xA0 SHL SUB NOT DUP4 AND DUP2 OR DUP5 SSTORE PUSH1 0x40 MLOAD SWAP2 SWAP1 SWAP3 AND SWAP3 DUP4 SWAP2 PUSH32 0x8BE0079C531659141344CD1FD0A4F28419497F9722A3DAAFE3B4186F6B6457E0 SWAP2 SWAP1 LOG3 POP POP JUMP JUMPDEST DUP3 DUP1 SLOAD DUP3 DUP3 SSTORE SWAP1 PUSH1 0x0 MSTORE PUSH1 0x20 PUSH1 0x0 KECCAK256 SWAP1 PUSH1 0x3 ADD PUSH1 0x4 SWAP1 DIV DUP2 ADD SWAP3 DUP3 ISZERO PUSH3 0x274 JUMPI SWAP2 PUSH1 0x20 MUL DUP3 ADD PUSH1 0x0 JUMPDEST DUP4 DUP3 GT ISZERO PUSH3 0x23D JUMPI DUP4 MLOAD DUP4 DUP3 PUSH2 0x100 EXP DUP2 SLOAD DUP2 PUSH1 0x1 PUSH1 0x1 PUSH1 0x40 SHL SUB MUL NOT AND SWAP1 DUP4 PUSH1 0xFF AND MUL OR SWAP1 SSTORE POP SWAP3 PUSH1 0x20 ADD SWAP3 PUSH1 0x8 ADD PUSH1 0x20 DUP2 PUSH1 0x7 ADD DIV SWAP3 DUP4 ADD SWAP3 PUSH1 0x1 SUB MUL PUSH3 0x1F7 JUMP JUMPDEST DUP1 ISZERO PUSH3 0x272 JUMPI DUP3 DUP2 PUSH2 0x100 EXP DUP2 SLOAD SWAP1 PUSH1 0x1 PUSH1 0x1 PUSH1 0x40 SHL SUB MUL NOT AND SWAP1 SSTORE PUSH1 0x8 ADD PUSH1 0x20 DUP2 PUSH1 0x7 ADD DIV SWAP3 DUP4 ADD SWAP3 PUSH1 0x1 SUB MUL PUSH3 0x23D JUMP JUMPDEST POP JUMPDEST POP PUSH3 0x282 SWAP3 SWAP2 POP PUSH3 0x2C9 JUMP JUMPDEST POP SWAP1 JUMP JUMPDEST DUP3 DUP1 SLOAD DUP3 DUP3 SSTORE SWAP1 PUSH1 0x0 MSTORE PUSH1 0x20 PUSH1 0x0 KECCAK256 SWAP1 DUP2 ADD SWAP3 DUP3 ISZERO PUSH3 0x274 JUMPI SWAP2 PUSH1 0x20 MUL DUP3 ADD JUMPDEST DUP3 DUP2 GT ISZERO PUSH3 0x274 JUMPI DUP3 MLOAD DUP3 SWAP1 PUSH1 0xFF AND SWAP1 SSTORE SWAP2 PUSH1 0x20 ADD SWAP2 SWAP1 PUSH1 0x1 ADD SWAP1 PUSH3 0x2A7 JUMP JUMPDEST JUMPDEST DUP1 DUP3 GT ISZERO PUSH3 0x282 JUMPI PUSH1 0x0 DUP2 SSTORE PUSH1 0x1 ADD PUSH3 0x2CA JUMP JUMPDEST PUSH1 0x1 PUSH1 0x1 PUSH1 0xA0 SHL SUB DUP2 AND DUP2 EQ PUSH3 0x2F6 JUMPI PUSH1 0x0 DUP1 REVERT JUMPDEST POP JUMP JUMPDEST PUSH1 0x0 DUP1 PUSH1 0x0 DUP1 PUSH1 0x0 PUSH1 0xA0 DUP7 DUP9 SUB SLT ISZERO PUSH3 0x312 JUMPI PUSH1 0x0 DUP1 REVERT JUMPDEST DUP6 MLOAD PUSH3 0x31F DUP2 PUSH3 0x2E0 JUMP JUMPDEST PUSH1 0x20 DUP8 ADD MLOAD SWAP1 SWAP6 POP PUSH3 0x332 DUP2 PUSH3 0x2E0 JUMP JUMPDEST PUSH1 0x40 DUP8 ADD MLOAD SWAP1 SWAP5 POP PUSH3 0x345 DUP2 PUSH3 0x2E0 JUMP JUMPDEST PUSH1 0x60 DUP8 ADD MLOAD PUSH1 0x80 SWAP1 SWAP8 ADD MLOAD SWAP6 SWAP9 SWAP5 SWAP8 POP SWAP6 SWAP5 SWAP4 SWAP3 POP POP POP JUMP JUMPDEST PUSH1 0x0 DUP3 NOT DUP3 GT ISZERO PUSH3 0x380 JUMPI PUSH4 0x4E487B71 PUSH1 0xE0 SHL PUSH1 0x0 MSTORE PUSH1 0x11 PUSH1 0x4 MSTORE PUSH1 0x24 PUSH1 0x0 REVERT JUMPDEST POP ADD SWAP1 JUMP JUMPDEST PUSH2 0x22CB DUP1 PUSH3 0x395 PUSH1 0x0 CODECOPY PUSH1 0x0 RETURN INVALID PUSH1 0x80 PUSH1 0x40 MSTORE CALLVALUE DUP1 ISZERO PUSH2 0x10 JUMPI PUSH1 0x0 DUP1 REVERT JUMPDEST POP PUSH1 0x4 CALLDATASIZE LT PUSH2 0x1CF JUMPI PUSH1 0x0 CALLDATALOAD PUSH1 0xE0 SHR DUP1 PUSH4 0x6386C1C7 GT PUSH2 0x104 JUMPI DUP1 PUSH4 0x8DA5CB5B GT PUSH2 0xA2 JUMPI DUP1 PUSH4 0xC91B46C6 GT PUSH2 0x71 JUMPI DUP1 PUSH4 0xC91B46C6 EQ PUSH2 0x4AA JUMPI DUP1 PUSH4 0xD4796EF2 EQ PUSH2 0x4B2 JUMPI DUP1 PUSH4 0xE3161DDD EQ PUSH2 0x4C5 JUMPI DUP1 PUSH4 0xF2FDE38B EQ PUSH2 0x4CD JUMPI PUSH1 0x0 DUP1 REVERT JUMPDEST DUP1 PUSH4 0x8DA5CB5B EQ PUSH2 0x41E JUMPI DUP1 PUSH4 0x9F608DA3 EQ PUSH2 0x42F JUMPI DUP1 PUSH4 0xACFF05B0 EQ PUSH2 0x442 JUMPI DUP1 PUSH4 0xB2520A7C EQ PUSH2 0x455 JUMPI PUSH1 0x0 DUP1 REVERT JUMPDEST DUP1 PUSH4 0x715018A6 GT PUSH2 0xDE JUMPI DUP1 PUSH4 0x715018A6 EQ PUSH2 0x3E7 JUMPI DUP1 PUSH4 0x785E9E86 EQ PUSH2 0x3EF JUMPI DUP1 PUSH4 0x7F513D5D EQ PUSH2 0x402 JUMPI DUP1 PUSH4 0x8AE39CAC EQ PUSH2 0x415 JUMPI PUSH1 0x0 DUP1 REVERT JUMPDEST DUP1 PUSH4 0x6386C1C7 EQ PUSH2 0x3AB JUMPI DUP1 PUSH4 0x6917C501 EQ PUSH2 0x3CB JUMPI DUP1 PUSH4 0x6FF1C9BC EQ PUSH2 0x3D4 JUMPI PUSH1 0x0 DUP1 REVERT JUMPDEST DUP1 PUSH4 0x3F90916A GT PUSH2 0x171 JUMPI DUP1 PUSH4 0x5A2F3D09 GT PUSH2 0x14B JUMPI DUP1 PUSH4 0x5A2F3D09 EQ PUSH2 0x359 JUMPI DUP1 PUSH4 0x5C76CA2D EQ PUSH2 0x37C JUMPI DUP1 PUSH4 0x5EEBEA20 EQ PUSH2 0x385 JUMPI DUP1 PUSH4 0x60343CAE EQ PUSH2 0x398 JUMPI PUSH1 0x0 DUP1 REVERT JUMPDEST DUP1 PUSH4 0x3F90916A EQ PUSH2 0x31D JUMPI DUP1 PUSH4 0x47646B9E EQ PUSH2 0x325 JUMPI DUP1 PUSH4 0x48CD4CB1 EQ PUSH2 0x350 JUMPI PUSH1 0x0 DUP1 REVERT JUMPDEST DUP1 PUSH4 0x17CAF6F1 GT PUSH2 0x1AD JUMPI DUP1 PUSH4 0x17CAF6F1 EQ PUSH2 0x218 JUMPI DUP1 PUSH4 0x1959A002 EQ PUSH2 0x221 JUMPI DUP1 PUSH4 0x39307B54 EQ PUSH2 0x302 JUMPI DUP1 PUSH4 0x3BDDF74E EQ PUSH2 0x315 JUMPI PUSH1 0x0 DUP1 REVERT JUMPDEST DUP1 PUSH4 0x83C6323 EQ PUSH2 0x1D4 JUMPI DUP1 PUSH4 0xAF72C69 EQ PUSH2 0x1F0 JUMPI DUP1 PUSH4 0x10B43ACF EQ PUSH2 0x205 JUMPI JUMPDEST PUSH1 0x0 DUP1 REVERT JUMPDEST PUSH2 0x1DD PUSH1 0xC SLOAD DUP2 JUMP JUMPDEST PUSH1 0x40 MLOAD SWAP1 DUP2 MSTORE PUSH1 0x20 ADD JUMPDEST PUSH1 0x40 MLOAD DUP1 SWAP2 SUB SWAP1 RETURN JUMPDEST PUSH2 0x203 PUSH2 0x1FE CALLDATASIZE PUSH1 0x4 PUSH2 0x1D43 JUMP JUMPDEST PUSH2 0x4E0 JUMP JUMPDEST STOP JUMPDEST PUSH2 0x1DD PUSH2 0x213 CALLDATASIZE PUSH1 0x4 PUSH2 0x1DFB JUMP JUMPDEST PUSH2 0x934 JUMP JUMPDEST PUSH2 0x1DD PUSH1 0xA SLOAD DUP2 JUMP JUMPDEST PUSH2 0x29C PUSH2 0x22F CALLDATASIZE PUSH1 0x4 PUSH2 0x1E29 JUMP JUMPDEST PUSH1 0x6 PUSH1 0x20 DUP2 SWAP1 MSTORE PUSH1 0x0 SWAP2 DUP3 MSTORE PUSH1 0x40 SWAP1 SWAP2 KECCAK256 DUP1 SLOAD PUSH1 0x1 DUP3 ADD SLOAD PUSH1 0x2 DUP4 ADD SLOAD PUSH1 0x3 DUP5 ADD SLOAD PUSH1 0x4 DUP6 ADD SLOAD SWAP6 DUP6 ADD SLOAD PUSH1 0x7 DUP7 ADD SLOAD PUSH1 0x8 DUP8 ADD SLOAD PUSH1 0x9 DUP9 ADD SLOAD PUSH1 0xA DUP10 ADD SLOAD PUSH1 0xB DUP11 ADD SLOAD PUSH1 0xC SWAP1 SWAP11 ADD SLOAD SWAP9 SWAP11 SWAP8 SWAP10 SWAP7 SWAP9 SWAP6 SWAP8 SWAP7 SWAP5 SWAP6 SWAP4 SWAP5 SWAP3 SWAP4 SWAP2 SWAP3 SWAP1 SWAP2 PUSH1 0xFF DUP1 DUP4 AND SWAP3 PUSH2 0x100 SWAP1 DIV AND SWAP1 DUP14 JUMP JUMPDEST PUSH1 0x40 DUP1 MLOAD SWAP14 DUP15 MSTORE PUSH1 0x20 DUP15 ADD SWAP13 SWAP1 SWAP13 MSTORE SWAP11 DUP13 ADD SWAP10 SWAP1 SWAP10 MSTORE PUSH1 0x60 DUP12 ADD SWAP8 SWAP1 SWAP8 MSTORE PUSH1 0x80 DUP11 ADD SWAP6 SWAP1 SWAP6 MSTORE PUSH1 0xA0 DUP10 ADD SWAP4 SWAP1 SWAP4 MSTORE PUSH1 0xC0 DUP9 ADD SWAP2 SWAP1 SWAP2 MSTORE PUSH1 0xE0 DUP8 ADD MSTORE PUSH2 0x100 DUP7 ADD MSTORE PUSH2 0x120 DUP6 ADD MSTORE ISZERO ISZERO PUSH2 0x140 DUP5 ADD MSTORE ISZERO ISZERO PUSH2 0x160 DUP4 ADD MSTORE PUSH2 0x180 DUP3 ADD MSTORE PUSH2 0x1A0 ADD PUSH2 0x1E7 JUMP JUMPDEST PUSH2 0x1DD PUSH2 0x310 CALLDATASIZE PUSH1 0x4 PUSH2 0x1E29 JUMP JUMPDEST PUSH2 0x955 JUMP JUMPDEST PUSH2 0x203 PUSH2 0x999 JUMP JUMPDEST PUSH2 0x1DD PUSH2 0xBD5 JUMP JUMPDEST PUSH1 0xF SLOAD PUSH2 0x338 SWAP1 PUSH1 0x1 PUSH1 0x1 PUSH1 0xA0 SHL SUB AND DUP2 JUMP JUMPDEST PUSH1 0x40 MLOAD PUSH1 0x1 PUSH1 0x1 PUSH1 0xA0 SHL SUB SWAP1 SWAP2 AND DUP2 MSTORE PUSH1 0x20 ADD PUSH2 0x1E7 JUMP JUMPDEST PUSH2 0x1DD PUSH1 0xB SLOAD DUP2 JUMP JUMPDEST PUSH1 0x4 SLOAD PUSH1 0x5 SLOAD PUSH2 0x367 SWAP2 SWAP1 DUP3 JUMP JUMPDEST PUSH1 0x40 DUP1 MLOAD SWAP3 DUP4 MSTORE PUSH1 0x20 DUP4 ADD SWAP2 SWAP1 SWAP2 MSTORE ADD PUSH2 0x1E7 JUMP JUMPDEST PUSH2 0x1DD PUSH1 0x2 SLOAD DUP2 JUMP JUMPDEST PUSH2 0x1DD PUSH2 0x393 CALLDATASIZE PUSH1 0x4 PUSH2 0x1E29 JUMP JUMPDEST PUSH2 0xC2B JUMP JUMPDEST PUSH2 0x1DD PUSH2 0x3A6 CALLDATASIZE PUSH1 0x4 PUSH2 0x1DFB JUMP JUMPDEST PUSH2 0xD01 JUMP JUMPDEST PUSH2 0x3BE PUSH2 0x3B9 CALLDATASIZE PUSH1 0x4 PUSH2 0x1E29 JUMP JUMPDEST PUSH2 0xD11 JUMP JUMPDEST PUSH1 0x40 MLOAD PUSH2 0x1E7 SWAP2 SWAP1 PUSH2 0x1E81 JUMP JUMPDEST PUSH2 0x1DD PUSH1 0xD SLOAD DUP2 JUMP JUMPDEST PUSH2 0x203 PUSH2 0x3E2 CALLDATASIZE PUSH1 0x4 PUSH2 0x1E29 JUMP JUMPDEST PUSH2 0xE8E JUMP JUMPDEST PUSH2 0x203 PUSH2 0xFD2 JUMP JUMPDEST PUSH1 0x1 SLOAD PUSH2 0x338 SWAP1 PUSH1 0x1 PUSH1 0x1 PUSH1 0xA0 SHL SUB AND DUP2 JUMP JUMPDEST PUSH1 0xE SLOAD PUSH2 0x338 SWAP1 PUSH1 0x1 PUSH1 0x1 PUSH1 0xA0 SHL SUB AND DUP2 JUMP JUMPDEST PUSH2 0x1DD PUSH1 0x3 SLOAD DUP2 JUMP JUMPDEST PUSH1 0x0 SLOAD PUSH1 0x1 PUSH1 0x1 PUSH1 0xA0 SHL SUB AND PUSH2 0x338 JUMP JUMPDEST PUSH2 0x203 PUSH2 0x43D CALLDATASIZE PUSH1 0x4 PUSH2 0x1F5E JUMP JUMPDEST PUSH2 0x1008 JUMP JUMPDEST PUSH2 0x203 PUSH2 0x450 CALLDATASIZE PUSH1 0x4 PUSH2 0x1DFB JUMP JUMPDEST PUSH2 0x132B JUMP JUMPDEST PUSH2 0x48F PUSH2 0x463 CALLDATASIZE PUSH1 0x4 PUSH2 0x1F7B JUMP JUMPDEST PUSH1 0x7 PUSH1 0x20 SWAP1 DUP2 MSTORE PUSH1 0x0 SWAP3 DUP4 MSTORE PUSH1 0x40 DUP1 DUP5 KECCAK256 SWAP1 SWAP2 MSTORE SWAP1 DUP3 MSTORE SWAP1 KECCAK256 DUP1 SLOAD PUSH1 0x1 DUP3 ADD SLOAD PUSH1 0x2 SWAP1 SWAP3 ADD SLOAD SWAP1 SWAP2 SWAP1 DUP4 JUMP JUMPDEST PUSH1 0x40 DUP1 MLOAD SWAP4 DUP5 MSTORE PUSH1 0x20 DUP5 ADD SWAP3 SWAP1 SWAP3 MSTORE SWAP1 DUP3 ADD MSTORE PUSH1 0x60 ADD PUSH2 0x1E7 JUMP JUMPDEST PUSH2 0x203 PUSH2 0x15BC JUMP JUMPDEST PUSH2 0x1DD PUSH2 0x4C0 CALLDATASIZE PUSH1 0x4 PUSH2 0x1DFB JUMP JUMPDEST PUSH2 0x19BF JUMP JUMPDEST PUSH2 0x203 PUSH2 0x1A21 JUMP JUMPDEST PUSH2 0x203 PUSH2 0x4DB CALLDATASIZE PUSH1 0x4 PUSH2 0x1E29 JUMP JUMPDEST PUSH2 0x1AA7 JUMP JUMPDEST CALLER PUSH1 0x0 SWAP1 DUP2 MSTORE PUSH1 0x6 PUSH1 0x20 MSTORE PUSH1 0x40 SWAP1 KECCAK256 PUSH1 0xB DUP2 ADD SLOAD PUSH1 0x4 SWAP2 SWAP1 PUSH2 0x100 SWAP1 DIV PUSH1 0xFF AND ISZERO PUSH2 0x50A JUMPI PUSH1 0x0 DUP1 REVERT JUMPDEST PUSH1 0xB DUP2 ADD SLOAD PUSH1 0xFF AND ISZERO PUSH2 0x5C6 JUMPI DUP1 PUSH1 0x8 ADD SLOAD DUP4 PUSH1 0xFF AND EQ PUSH2 0x52A JUMPI PUSH1 0x0 DUP1 REVERT JUMPDEST TIMESTAMP PUSH1 0x8 DUP3 PUSH1 0x8 ADD SLOAD DUP2 SLOAD DUP2 LT PUSH2 0x542 JUMPI PUSH2 0x542 PUSH2 0x1FA7 JUMP JUMPDEST SWAP1 PUSH1 0x0 MSTORE PUSH1 0x20 PUSH1 0x0 KECCAK256 SWAP1 PUSH1 0x4 SWAP2 DUP3 DUP3 DIV ADD SWAP2 SWAP1 MOD PUSH1 0x8 MUL SWAP1 SLOAD SWAP1 PUSH2 0x100 EXP SWAP1 DIV PUSH8 0xFFFFFFFFFFFFFFFF AND PUSH8 0xFFFFFFFFFFFFFFFF AND DUP3 PUSH1 0x6 ADD SLOAD PUSH2 0x585 SWAP2 SWAP1 PUSH2 0x1FD3 JUMP JUMPDEST LT PUSH2 0x5C1 JUMPI PUSH1 0x40 MLOAD PUSH3 0x461BCD PUSH1 0xE5 SHL DUP2 MSTORE PUSH1 0x20 PUSH1 0x4 DUP3 ADD MSTORE PUSH1 0x7 PUSH1 0x24 DUP3 ADD MSTORE PUSH7 0x115E1C1A5C9959 PUSH1 0xCA SHL PUSH1 0x44 DUP3 ADD MSTORE PUSH1 0x64 ADD JUMPDEST PUSH1 0x40 MLOAD DUP1 SWAP2 SUB SWAP1 REVERT JUMPDEST PUSH2 0x653 JUMP JUMPDEST PUSH1 0x3 DUP4 PUSH1 0xFF AND LT PUSH2 0x5D6 JUMPI PUSH1 0x0 DUP1 REVERT JUMPDEST PUSH1 0xB DUP2 ADD DUP1 SLOAD PUSH1 0xFF NOT AND PUSH1 0x1 OR SWAP1 SSTORE PUSH1 0xFF DUP4 AND PUSH1 0x8 DUP1 DUP4 ADD DUP3 SWAP1 SSTORE TIMESTAMP PUSH1 0x6 DUP5 ADD SSTORE DUP1 SLOAD SWAP1 SWAP2 SWAP1 DUP2 LT PUSH2 0x60A JUMPI PUSH2 0x60A PUSH2 0x1FA7 JUMP JUMPDEST SWAP1 PUSH1 0x0 MSTORE PUSH1 0x20 PUSH1 0x0 KECCAK256 SWAP1 PUSH1 0x4 SWAP2 DUP3 DUP3 DIV ADD SWAP2 SWAP1 MOD PUSH1 0x8 MUL SWAP1 SLOAD SWAP1 PUSH2 0x100 EXP SWAP1 DIV PUSH8 0xFFFFFFFFFFFFFFFF AND PUSH8 0xFFFFFFFFFFFFFFFF AND DUP2 PUSH1 0x6 ADD SLOAD PUSH2 0x64D SWAP2 SWAP1 PUSH2 0x1FD3 JUMP JUMPDEST PUSH1 0x7 DUP3 ADD SSTORE JUMPDEST PUSH1 0x0 DUP1 PUSH1 0x0 JUMPDEST DUP7 MLOAD DUP2 LT ISZERO PUSH2 0x7CD JUMPI PUSH1 0xE SLOAD DUP8 MLOAD PUSH1 0x0 SWAP2 PUSH1 0x1 PUSH1 0x1 PUSH1 0xA0 SHL SUB AND SWAP1 PUSH4 0x21D80111 SWAP1 DUP11 SWAP1 DUP6 SWAP1 DUP2 LT PUSH2 0x68C JUMPI PUSH2 0x68C PUSH2 0x1FA7 JUMP JUMPDEST PUSH1 0x20 MUL PUSH1 0x20 ADD ADD MLOAD PUSH1 0x40 MLOAD DUP3 PUSH4 0xFFFFFFFF AND PUSH1 0xE0 SHL DUP2 MSTORE PUSH1 0x4 ADD PUSH2 0x6B2 SWAP2 DUP2 MSTORE PUSH1 0x20 ADD SWAP1 JUMP JUMPDEST PUSH2 0x220 PUSH1 0x40 MLOAD DUP1 DUP4 SUB DUP2 DUP7 DUP1 EXTCODESIZE ISZERO DUP1 ISZERO PUSH2 0x6CB JUMPI PUSH1 0x0 DUP1 REVERT JUMPDEST POP GAS STATICCALL ISZERO DUP1 ISZERO PUSH2 0x6DF JUMPI RETURNDATASIZE PUSH1 0x0 DUP1 RETURNDATACOPY RETURNDATASIZE PUSH1 0x0 REVERT JUMPDEST POP POP POP POP PUSH1 0x40 MLOAD RETURNDATASIZE PUSH1 0x1F NOT PUSH1 0x1F DUP3 ADD AND DUP3 ADD DUP1 PUSH1 0x40 MSTORE POP DUP2 ADD SWAP1 PUSH2 0x703 SWAP2 SWAP1 PUSH2 0x2083 JUMP JUMPDEST SWAP1 POP DUP1 PUSH2 0x160 ADD MLOAD DUP5 PUSH2 0x716 SWAP2 SWAP1 PUSH2 0x1FD3 JUMP JUMPDEST PUSH1 0xE SLOAD DUP10 MLOAD SWAP2 SWAP6 POP PUSH1 0x1 PUSH1 0x1 PUSH1 0xA0 SHL SUB AND SWAP1 PUSH4 0x23B872DD SWAP1 CALLER SWAP1 ADDRESS SWAP1 DUP13 SWAP1 DUP8 SWAP1 DUP2 LT PUSH2 0x744 JUMPI PUSH2 0x744 PUSH2 0x1FA7 JUMP JUMPDEST PUSH1 0x20 MUL PUSH1 0x20 ADD ADD MLOAD PUSH1 0x40 MLOAD DUP5 PUSH4 0xFFFFFFFF AND PUSH1 0xE0 SHL DUP2 MSTORE PUSH1 0x4 ADD PUSH2 0x76A SWAP4 SWAP3 SWAP2 SWAP1 PUSH2 0x2176 JUMP JUMPDEST PUSH1 0x0 PUSH1 0x40 MLOAD DUP1 DUP4 SUB DUP2 PUSH1 0x0 DUP8 DUP1 EXTCODESIZE ISZERO DUP1 ISZERO PUSH2 0x784 JUMPI PUSH1 0x0 DUP1 REVERT JUMPDEST POP GAS CALL ISZERO DUP1 ISZERO PUSH2 0x798 JUMPI RETURNDATASIZE PUSH1 0x0 DUP1 RETURNDATACOPY RETURNDATASIZE PUSH1 0x0 REVERT JUMPDEST POP POP POP POP DUP1 PUSH1 0x60 ADD MLOAD PUSH1 0xFF AND PUSH1 0x4 EQ ISZERO PUSH2 0x7BA JUMPI DUP3 PUSH2 0x7B6 DUP2 PUSH2 0x219A JUMP JUMPDEST SWAP4 POP POP JUMPDEST POP DUP1 PUSH2 0x7C5 DUP2 PUSH2 0x219A JUMP JUMPDEST SWAP2 POP POP PUSH2 0x659 JUMP JUMPDEST POP DUP2 DUP4 PUSH1 0x1 ADD PUSH1 0x0 DUP3 DUP3 SLOAD PUSH2 0x7E2 SWAP2 SWAP1 PUSH2 0x1FD3 JUMP JUMPDEST SWAP1 SWAP2 SSTORE POP POP DUP3 SLOAD DUP2 SWAP1 DUP5 SWAP1 PUSH1 0x0 SWAP1 PUSH2 0x7FB SWAP1 DUP5 SWAP1 PUSH2 0x1FD3 JUMP JUMPDEST SWAP1 SWAP2 SSTORE POP POP DUP3 SLOAD PUSH1 0x0 SWAP1 PUSH1 0x64 SWAP1 PUSH2 0x813 SWAP1 PUSH1 0xA PUSH2 0x21B5 JUMP JUMPDEST PUSH2 0x81E SWAP1 PUSH1 0x64 PUSH2 0x1FD3 JUMP JUMPDEST DUP6 PUSH1 0x1 ADD SLOAD PUSH2 0x82D SWAP2 SWAP1 PUSH2 0x21B5 JUMP JUMPDEST PUSH2 0x837 SWAP2 SWAP1 PUSH2 0x21D4 JUMP JUMPDEST PUSH1 0x2 DUP6 ADD DUP2 SWAP1 SSTORE SWAP1 POP PUSH2 0x848 PUSH2 0x1A21 JUMP JUMPDEST DUP1 PUSH1 0xD PUSH1 0x0 DUP3 DUP3 SLOAD PUSH2 0x85A SWAP2 SWAP1 PUSH2 0x1FD3 JUMP JUMPDEST SWAP1 SWAP2 SSTORE POP POP PUSH1 0x2 DUP5 ADD SLOAD ISZERO PUSH2 0x8C4 JUMPI PUSH1 0x0 DUP5 PUSH1 0x3 ADD SLOAD PUSH11 0xC097CE7BC90715B34B9F1 PUSH1 0x24 SHL DUP8 PUSH1 0x1 ADD SLOAD DUP8 PUSH1 0x2 ADD SLOAD PUSH2 0x893 SWAP2 SWAP1 PUSH2 0x21B5 JUMP JUMPDEST PUSH2 0x89D SWAP2 SWAP1 PUSH2 0x21D4 JUMP JUMPDEST PUSH2 0x8A7 SWAP2 SWAP1 PUSH2 0x21F6 JUMP JUMPDEST SWAP1 POP DUP1 DUP6 PUSH1 0x9 ADD PUSH1 0x0 DUP3 DUP3 SLOAD PUSH2 0x8BD SWAP2 SWAP1 PUSH2 0x1FD3 JUMP JUMPDEST SWAP1 SWAP2 SSTORE POP POP POP JUMPDEST PUSH11 0xC097CE7BC90715B34B9F1 PUSH1 0x24 SHL DUP6 PUSH1 0x1 ADD SLOAD DUP6 PUSH1 0x2 ADD SLOAD PUSH2 0x8E7 SWAP2 SWAP1 PUSH2 0x21B5 JUMP JUMPDEST PUSH2 0x8F1 SWAP2 SWAP1 PUSH2 0x21D4 JUMP JUMPDEST PUSH1 0x3 DUP6 ADD SSTORE PUSH1 0x40 MLOAD DUP4 DUP2 MSTORE CALLER SWAP1 PUSH32 0xE1FFFCC4923D04B559F4D29A8BFC6CDA04EB5B0D3C460751C2402C5C5CC9109C SWAP1 PUSH1 0x20 ADD PUSH1 0x40 MLOAD DUP1 SWAP2 SUB SWAP1 LOG2 POP POP POP POP POP POP POP JUMP JUMPDEST PUSH1 0x11 DUP2 DUP2 SLOAD DUP2 LT PUSH2 0x944 JUMPI PUSH1 0x0 DUP1 REVERT JUMPDEST PUSH1 0x0 SWAP2 DUP3 MSTORE PUSH1 0x20 SWAP1 SWAP2 KECCAK256 ADD SLOAD SWAP1 POP DUP2 JUMP JUMPDEST PUSH1 0x1 PUSH1 0x1 PUSH1 0xA0 SHL SUB DUP2 AND PUSH1 0x0 SWAP1 DUP2 MSTORE PUSH1 0x6 PUSH1 0x20 MSTORE PUSH1 0x40 DUP2 KECCAK256 PUSH1 0x4 DUP2 ADD SLOAD PUSH1 0x1 DUP3 ADD SLOAD PUSH2 0x988 SWAP1 PUSH7 0x38D7EA4C68000 PUSH2 0x21B5 JUMP JUMPDEST PUSH2 0x992 SWAP2 SWAP1 PUSH2 0x21F6 JUMP JUMPDEST SWAP4 SWAP3 POP POP POP JUMP JUMPDEST CALLER PUSH1 0x0 SWAP1 DUP2 MSTORE PUSH1 0x6 PUSH1 0x20 MSTORE PUSH1 0x40 SWAP1 KECCAK256 PUSH1 0xB DUP2 ADD SLOAD PUSH1 0x4 SWAP2 SWAP1 PUSH1 0xFF AND PUSH2 0x9BD JUMPI PUSH1 0x0 DUP1 REVERT JUMPDEST PUSH1 0x1 DUP2 ADD SLOAD PUSH2 0x9D3 SWAP1 PUSH7 0x38D7EA4C68000 PUSH2 0x21B5 JUMP JUMPDEST DUP2 PUSH1 0x4 ADD SLOAD LT PUSH2 0x9E2 JUMPI PUSH1 0x0 DUP1 REVERT JUMPDEST PUSH1 0x1 DUP1 SLOAD PUSH1 0x4 DUP4 ADD SLOAD SWAP2 DUP4 ADD SLOAD PUSH1 0x1 PUSH1 0x1 PUSH1 0xA0 SHL SUB SWAP1 SWAP2 AND SWAP2 PUSH4 0x23B872DD SWAP2 CALLER SWAP2 ADDRESS SWAP2 PUSH2 0xA16 SWAP1 PUSH7 0x38D7EA4C68000 PUSH2 0x21B5 JUMP JUMPDEST PUSH2 0xA20 SWAP2 SWAP1 PUSH2 0x21F6 JUMP JUMPDEST PUSH1 0x40 MLOAD DUP5 PUSH4 0xFFFFFFFF AND PUSH1 0xE0 SHL DUP2 MSTORE PUSH1 0x4 ADD PUSH2 0xA3E SWAP4 SWAP3 SWAP2 SWAP1 PUSH2 0x2176 JUMP JUMPDEST PUSH1 0x20 PUSH1 0x40 MLOAD DUP1 DUP4 SUB DUP2 PUSH1 0x0 DUP8 DUP1 EXTCODESIZE ISZERO DUP1 ISZERO PUSH2 0xA58 JUMPI PUSH1 0x0 DUP1 REVERT JUMPDEST POP GAS CALL ISZERO DUP1 ISZERO PUSH2 0xA6C JUMPI RETURNDATASIZE PUSH1 0x0 DUP1 RETURNDATACOPY RETURNDATASIZE PUSH1 0x0 REVERT JUMPDEST POP POP POP POP PUSH1 0x40 MLOAD RETURNDATASIZE PUSH1 0x1F NOT PUSH1 0x1F DUP3 ADD AND DUP3 ADD DUP1 PUSH1 0x40 MSTORE POP DUP2 ADD SWAP1 PUSH2 0xA90 SWAP2 SWAP1 PUSH2 0x220D JUMP JUMPDEST POP PUSH2 0xA99 PUSH2 0x1A21 JUMP JUMPDEST DUP1 SLOAD PUSH1 0x0 SWAP1 PUSH1 0x64 SWAP1 PUSH2 0xAAC SWAP1 PUSH1 0xA PUSH2 0x21B5 JUMP JUMPDEST PUSH2 0xAB7 SWAP1 PUSH1 0x64 PUSH2 0x1FD3 JUMP JUMPDEST PUSH2 0xAC2 SWAP1 PUSH1 0xA PUSH2 0x1FD3 JUMP JUMPDEST DUP4 PUSH1 0x1 ADD SLOAD PUSH2 0xAD1 SWAP2 SWAP1 PUSH2 0x21B5 JUMP JUMPDEST PUSH2 0xADB SWAP2 SWAP1 PUSH2 0x21D4 JUMP JUMPDEST PUSH1 0x2 DUP4 ADD SLOAD SWAP1 SWAP2 POP ISZERO PUSH2 0xB43 JUMPI PUSH1 0x0 DUP3 PUSH1 0x3 ADD SLOAD PUSH11 0xC097CE7BC90715B34B9F1 PUSH1 0x24 SHL DUP6 PUSH1 0x1 ADD SLOAD DUP6 PUSH1 0x2 ADD SLOAD PUSH2 0xB12 SWAP2 SWAP1 PUSH2 0x21B5 JUMP JUMPDEST PUSH2 0xB1C SWAP2 SWAP1 PUSH2 0x21D4 JUMP JUMPDEST PUSH2 0xB26 SWAP2 SWAP1 PUSH2 0x21F6 JUMP JUMPDEST SWAP1 POP DUP1 DUP4 PUSH1 0x9 ADD PUSH1 0x0 DUP3 DUP3 SLOAD PUSH2 0xB3C SWAP2 SWAP1 PUSH2 0x1FD3 JUMP JUMPDEST SWAP1 SWAP2 SSTORE POP POP POP JUMPDEST PUSH11 0xC097CE7BC90715B34B9F1 PUSH1 0x24 SHL DUP4 PUSH1 0x1 ADD SLOAD DUP4 PUSH1 0x2 ADD SLOAD PUSH2 0xB66 SWAP2 SWAP1 PUSH2 0x21B5 JUMP JUMPDEST PUSH2 0xB70 SWAP2 SWAP1 PUSH2 0x21D4 JUMP JUMPDEST PUSH1 0x3 DUP4 ADD SSTORE PUSH1 0x2 DUP3 ADD SLOAD PUSH1 0xD DUP1 SLOAD PUSH1 0x0 SWAP1 PUSH2 0xB8C SWAP1 DUP5 SWAP1 PUSH2 0x21F6 JUMP JUMPDEST SWAP1 SWAP2 SSTORE POP POP PUSH1 0x2 DUP3 ADD DUP2 SWAP1 SSTORE PUSH1 0xD DUP1 SLOAD DUP3 SWAP2 SWAP1 PUSH1 0x0 SWAP1 PUSH2 0xBAD SWAP1 DUP5 SWAP1 PUSH2 0x1FD3 JUMP JUMPDEST SWAP1 SWAP2 SSTORE POP POP PUSH1 0x1 DUP3 ADD SLOAD PUSH2 0xBC8 SWAP1 PUSH7 0x38D7EA4C68000 PUSH2 0x21B5 JUMP JUMPDEST DUP3 PUSH1 0x4 ADD DUP2 SWAP1 SSTORE POP POP POP POP JUMP JUMPDEST PUSH1 0x0 PUSH1 0xB SLOAD NUMBER GT PUSH2 0xBE6 JUMPI POP PUSH1 0x0 SWAP1 JUMP JUMPDEST PUSH1 0x0 PUSH1 0xC SLOAD NUMBER LT PUSH2 0xBF9 JUMPI PUSH1 0xC SLOAD PUSH2 0xBFB JUMP JUMPDEST NUMBER JUMPDEST SWAP1 POP PUSH1 0x2 SLOAD PUSH1 0xB SLOAD DUP3 PUSH2 0xC0E SWAP2 SWAP1 PUSH2 0x21F6 JUMP JUMPDEST PUSH1 0x3 SLOAD PUSH2 0xC1B SWAP2 SWAP1 PUSH2 0x21B5 JUMP JUMPDEST PUSH2 0xC25 SWAP2 SWAP1 PUSH2 0x21F6 JUMP JUMPDEST SWAP2 POP POP SWAP1 JUMP JUMPDEST PUSH1 0x1 PUSH1 0x1 PUSH1 0xA0 SHL SUB DUP2 AND PUSH1 0x0 SWAP1 DUP2 MSTORE PUSH1 0x6 PUSH1 0x20 MSTORE PUSH1 0x40 DUP2 KECCAK256 PUSH1 0x5 SLOAD PUSH1 0x4 DUP1 SLOAD SWAP1 SWAP3 SWAP2 SWAP1 NUMBER GT DUP1 ISZERO PUSH2 0xC5D JUMPI POP PUSH1 0xD SLOAD ISZERO ISZERO JUMPDEST ISZERO PUSH2 0xCC0 JUMPI PUSH1 0x0 PUSH1 0xC SLOAD NUMBER LT PUSH2 0xC75 JUMPI PUSH1 0xC SLOAD PUSH2 0xC77 JUMP JUMPDEST NUMBER JUMPDEST SWAP1 POP PUSH1 0x0 PUSH2 0xC89 DUP6 PUSH1 0x0 ADD SLOAD DUP4 PUSH2 0x1B42 JUMP JUMPDEST PUSH1 0xD SLOAD SWAP1 SWAP2 POP PUSH2 0xCA7 DUP3 PUSH11 0xC097CE7BC90715B34B9F1 PUSH1 0x24 SHL PUSH2 0x21B5 JUMP JUMPDEST PUSH2 0xCB1 SWAP2 SWAP1 PUSH2 0x21D4 JUMP JUMPDEST PUSH2 0xCBB SWAP1 DUP5 PUSH2 0x1FD3 JUMP JUMPDEST SWAP3 POP POP POP JUMPDEST DUP2 PUSH1 0x3 ADD SLOAD PUSH11 0xC097CE7BC90715B34B9F1 PUSH1 0x24 SHL DUP3 DUP5 PUSH1 0x2 ADD SLOAD PUSH2 0xCE4 SWAP2 SWAP1 PUSH2 0x21B5 JUMP JUMPDEST PUSH2 0xCEE SWAP2 SWAP1 PUSH2 0x21D4 JUMP JUMPDEST PUSH2 0xCF8 SWAP2 SWAP1 PUSH2 0x21F6 JUMP JUMPDEST SWAP6 SWAP5 POP POP POP POP POP JUMP JUMPDEST PUSH1 0x10 DUP2 DUP2 SLOAD DUP2 LT PUSH2 0x944 JUMPI PUSH1 0x0 DUP1 REVERT JUMPDEST PUSH2 0xD87 PUSH1 0x40 MLOAD DUP1 PUSH2 0x1C0 ADD PUSH1 0x40 MSTORE DUP1 PUSH1 0x0 DUP2 MSTORE PUSH1 0x20 ADD PUSH1 0x0 DUP2 MSTORE PUSH1 0x20 ADD PUSH1 0x0 DUP2 MSTORE PUSH1 0x20 ADD PUSH1 0x0 DUP2 MSTORE PUSH1 0x20 ADD PUSH1 0x0 DUP2 MSTORE PUSH1 0x20 ADD PUSH1 0x60 DUP2 MSTORE PUSH1 0x20 ADD PUSH1 0x0 DUP2 MSTORE PUSH1 0x20 ADD PUSH1 0x0 DUP2 MSTORE PUSH1 0x20 ADD PUSH1 0x0 DUP2 MSTORE PUSH1 0x20 ADD PUSH1 0x0 DUP2 MSTORE PUSH1 0x20 ADD PUSH1 0x0 DUP2 MSTORE PUSH1 0x20 ADD PUSH1 0x0 ISZERO ISZERO DUP2 MSTORE PUSH1 0x20 ADD PUSH1 0x0 ISZERO ISZERO DUP2 MSTORE PUSH1 0x20 ADD PUSH1 0x0 DUP2 MSTORE POP SWAP1 JUMP JUMPDEST PUSH1 0x1 PUSH1 0x1 PUSH1 0xA0 SHL SUB DUP3 AND PUSH1 0x0 SWAP1 DUP2 MSTORE PUSH1 0x6 PUSH1 0x20 SWAP1 DUP2 MSTORE PUSH1 0x40 SWAP2 DUP3 SWAP1 KECCAK256 DUP3 MLOAD PUSH2 0x1C0 DUP2 ADD DUP5 MSTORE DUP2 SLOAD DUP2 MSTORE PUSH1 0x1 DUP3 ADD SLOAD DUP2 DUP5 ADD MSTORE PUSH1 0x2 DUP3 ADD SLOAD DUP2 DUP6 ADD MSTORE PUSH1 0x3 DUP3 ADD SLOAD PUSH1 0x60 DUP3 ADD MSTORE PUSH1 0x4 DUP3 ADD SLOAD PUSH1 0x80 DUP3 ADD MSTORE PUSH1 0x5 DUP3 ADD DUP1 SLOAD DUP6 MLOAD DUP2 DUP7 MUL DUP2 ADD DUP7 ADD SWAP1 SWAP7 MSTORE DUP1 DUP7 MSTORE SWAP2 SWAP5 SWAP3 SWAP4 PUSH1 0xA0 DUP7 ADD SWAP4 SWAP3 SWAP1 DUP4 ADD DUP3 DUP3 DUP1 ISZERO PUSH2 0xE25 JUMPI PUSH1 0x20 MUL DUP3 ADD SWAP2 SWAP1 PUSH1 0x0 MSTORE PUSH1 0x20 PUSH1 0x0 KECCAK256 SWAP1 JUMPDEST DUP2 SLOAD DUP2 MSTORE PUSH1 0x20 ADD SWAP1 PUSH1 0x1 ADD SWAP1 DUP1 DUP4 GT PUSH2 0xE11 JUMPI JUMPDEST POP POP POP SWAP2 DUP4 MSTORE POP POP PUSH1 0x6 DUP3 ADD SLOAD PUSH1 0x20 DUP3 ADD MSTORE PUSH1 0x7 DUP3 ADD SLOAD PUSH1 0x40 DUP3 ADD MSTORE PUSH1 0x8 DUP3 ADD SLOAD PUSH1 0x60 DUP3 ADD MSTORE PUSH1 0x9 DUP3 ADD SLOAD PUSH1 0x80 DUP3 ADD MSTORE PUSH1 0xA DUP3 ADD SLOAD PUSH1 0xA0 DUP3 ADD MSTORE PUSH1 0xB DUP3 ADD SLOAD PUSH1 0xFF DUP1 DUP3 AND ISZERO ISZERO PUSH1 0xC0 DUP5 ADD MSTORE PUSH2 0x100 SWAP2 DUP3 SWAP1 DIV AND ISZERO ISZERO PUSH1 0xE0 DUP4 ADD MSTORE PUSH1 0xC SWAP1 SWAP3 ADD SLOAD SWAP2 ADD MSTORE SWAP3 SWAP2 POP POP JUMP JUMPDEST PUSH1 0x0 SLOAD PUSH1 0x1 PUSH1 0x1 PUSH1 0xA0 SHL SUB AND CALLER EQ PUSH2 0xEB8 JUMPI PUSH1 0x40 MLOAD PUSH3 0x461BCD PUSH1 0xE5 SHL DUP2 MSTORE PUSH1 0x4 ADD PUSH2 0x5B8 SWAP1 PUSH2 0x222A JUMP JUMPDEST DUP1 PUSH1 0x1 PUSH1 0x1 PUSH1 0xA0 SHL SUB AND PUSH4 0xA9059CBB PUSH2 0xED9 PUSH1 0x0 SLOAD PUSH1 0x1 PUSH1 0x1 PUSH1 0xA0 SHL SUB AND SWAP1 JUMP JUMPDEST PUSH1 0x40 MLOAD PUSH4 0x70A08231 PUSH1 0xE0 SHL DUP2 MSTORE ADDRESS PUSH1 0x4 DUP3 ADD MSTORE PUSH1 0x1 PUSH1 0x1 PUSH1 0xA0 SHL SUB DUP6 AND SWAP1 PUSH4 0x70A08231 SWAP1 PUSH1 0x24 ADD PUSH1 0x20 PUSH1 0x40 MLOAD DUP1 DUP4 SUB DUP2 DUP7 DUP1 EXTCODESIZE ISZERO DUP1 ISZERO PUSH2 0xF18 JUMPI PUSH1 0x0 DUP1 REVERT JUMPDEST POP GAS STATICCALL ISZERO DUP1 ISZERO PUSH2 0xF2C JUMPI RETURNDATASIZE PUSH1 0x0 DUP1 RETURNDATACOPY RETURNDATASIZE PUSH1 0x0 REVERT JUMPDEST POP POP POP POP PUSH1 0x40 MLOAD RETURNDATASIZE PUSH1 0x1F NOT PUSH1 0x1F DUP3 ADD AND DUP3 ADD DUP1 PUSH1 0x40 MSTORE POP DUP2 ADD SWAP1 PUSH2 0xF50 SWAP2 SWAP1 PUSH2 0x225F JUMP JUMPDEST PUSH1 0x40 MLOAD PUSH1 0x1 PUSH1 0x1 PUSH1 0xE0 SHL SUB NOT PUSH1 0xE0 DUP6 SWAP1 SHL AND DUP2 MSTORE PUSH1 0x1 PUSH1 0x1 PUSH1 0xA0 SHL SUB SWAP1 SWAP3 AND PUSH1 0x4 DUP4 ADD MSTORE PUSH1 0x24 DUP3 ADD MSTORE PUSH1 0x44 ADD PUSH1 0x20 PUSH1 0x40 MLOAD DUP1 DUP4 SUB DUP2 PUSH1 0x0 DUP8 DUP1 EXTCODESIZE ISZERO DUP1 ISZERO PUSH2 0xF96 JUMPI PUSH1 0x0 DUP1 REVERT JUMPDEST POP GAS CALL ISZERO DUP1 ISZERO PUSH2 0xFAA JUMPI RETURNDATASIZE PUSH1 0x0 DUP1 RETURNDATACOPY RETURNDATASIZE PUSH1 0x0 REVERT JUMPDEST POP POP POP POP PUSH1 0x40 MLOAD RETURNDATASIZE PUSH1 0x1F NOT PUSH1 0x1F DUP3 ADD AND DUP3 ADD DUP1 PUSH1 0x40 MSTORE POP DUP2 ADD SWAP1 PUSH2 0xFCE SWAP2 SWAP1 PUSH2 0x220D JUMP JUMPDEST POP POP JUMP JUMPDEST PUSH1 0x0 SLOAD PUSH1 0x1 PUSH1 0x1 PUSH1 0xA0 SHL SUB AND CALLER EQ PUSH2 0xFFC JUMPI PUSH1 0x40 MLOAD PUSH3 0x461BCD PUSH1 0xE5 SHL DUP2 MSTORE PUSH1 0x4 ADD PUSH2 0x5B8 SWAP1 PUSH2 0x222A JUMP JUMPDEST PUSH2 0x1006 PUSH1 0x0 PUSH2 0x1B61 JUMP JUMPDEST JUMP JUMPDEST CALLER PUSH1 0x0 SWAP1 DUP2 MSTORE PUSH1 0x6 PUSH1 0x20 MSTORE PUSH1 0x40 SWAP1 KECCAK256 PUSH1 0xB DUP2 ADD SLOAD PUSH2 0x100 SWAP1 DIV PUSH1 0xFF AND PUSH2 0x102D JUMPI PUSH1 0x0 DUP1 REVERT JUMPDEST PUSH1 0xB DUP2 ADD DUP1 SLOAD PUSH2 0xFF00 NOT AND SWAP1 SSTORE DUP2 PUSH2 0x1288 JUMPI PUSH2 0x107E CALLER PUSH1 0x64 DUP1 DUP5 PUSH1 0xC ADD SLOAD DUP6 PUSH1 0x9 ADD SLOAD PUSH2 0x105A SWAP2 SWAP1 PUSH2 0x21B5 JUMP JUMPDEST PUSH2 0x1064 SWAP2 SWAP1 PUSH2 0x21D4 JUMP JUMPDEST PUSH2 0x106F SWAP1 PUSH1 0x50 PUSH2 0x21B5 JUMP JUMPDEST PUSH2 0x1079 SWAP2 SWAP1 PUSH2 0x21D4 JUMP JUMPDEST PUSH2 0x1BB1 JUMP JUMPDEST CALLER PUSH1 0x0 JUMPDEST PUSH1 0xF PUSH1 0x0 SWAP1 SLOAD SWAP1 PUSH2 0x100 EXP SWAP1 DIV PUSH1 0x1 PUSH1 0x1 PUSH1 0xA0 SHL SUB AND PUSH1 0x1 PUSH1 0x1 PUSH1 0xA0 SHL SUB AND PUSH4 0xF842D40B PUSH1 0x40 MLOAD DUP2 PUSH4 0xFFFFFFFF AND PUSH1 0xE0 SHL DUP2 MSTORE PUSH1 0x4 ADD PUSH1 0x20 PUSH1 0x40 MLOAD DUP1 DUP4 SUB DUP2 DUP7 DUP1 EXTCODESIZE ISZERO DUP1 ISZERO PUSH2 0x10D0 JUMPI PUSH1 0x0 DUP1 REVERT JUMPDEST POP GAS STATICCALL ISZERO DUP1 ISZERO PUSH2 0x10E4 JUMPI RETURNDATASIZE PUSH1 0x0 DUP1 RETURNDATACOPY RETURNDATASIZE PUSH1 0x0 REVERT JUMPDEST POP POP POP POP PUSH1 0x40 MLOAD RETURNDATASIZE PUSH1 0x1F NOT PUSH1 0x1F DUP3 ADD AND DUP3 ADD DUP1 PUSH1 0x40 MSTORE POP DUP2 ADD SWAP1 PUSH2 0x1108 SWAP2 SWAP1 PUSH2 0x225F JUMP JUMPDEST DUP2 LT ISZERO PUSH2 0x1281 JUMPI PUSH1 0xF SLOAD PUSH1 0x40 MLOAD PUSH4 0x1B43F311 PUSH1 0xE3 SHL DUP2 MSTORE PUSH1 0x1 PUSH1 0x1 PUSH1 0xA0 SHL SUB DUP5 DUP2 AND PUSH1 0x4 DUP4 ADD MSTORE SWAP1 SWAP2 AND SWAP1 PUSH4 0xDA1F9888 SWAP1 PUSH1 0x24 ADD PUSH1 0x20 PUSH1 0x40 MLOAD DUP1 DUP4 SUB DUP2 DUP7 DUP1 EXTCODESIZE ISZERO DUP1 ISZERO PUSH2 0x1154 JUMPI PUSH1 0x0 DUP1 REVERT JUMPDEST POP GAS STATICCALL ISZERO DUP1 ISZERO PUSH2 0x1168 JUMPI RETURNDATASIZE PUSH1 0x0 DUP1 RETURNDATACOPY RETURNDATASIZE PUSH1 0x0 REVERT JUMPDEST POP POP POP POP PUSH1 0x40 MLOAD RETURNDATASIZE PUSH1 0x1F NOT PUSH1 0x1F DUP3 ADD AND DUP3 ADD DUP1 PUSH1 0x40 MSTORE POP DUP2 ADD SWAP1 PUSH2 0x118C SWAP2 SWAP1 PUSH2 0x2278 JUMP JUMPDEST SWAP2 POP PUSH1 0x1 PUSH1 0x1 PUSH1 0xA0 SHL SUB DUP3 AND ISZERO PUSH2 0x126A JUMPI PUSH1 0x0 PUSH1 0x10 DUP3 DUP2 SLOAD DUP2 LT PUSH2 0x11B2 JUMPI PUSH2 0x11B2 PUSH2 0x1FA7 JUMP JUMPDEST SWAP1 PUSH1 0x0 MSTORE PUSH1 0x20 PUSH1 0x0 KECCAK256 ADD SLOAD SWAP1 POP PUSH1 0x0 PUSH2 0x3E8 DUP3 PUSH1 0x64 DUP8 PUSH1 0xC ADD SLOAD DUP9 PUSH1 0x9 ADD SLOAD PUSH2 0x11DB SWAP2 SWAP1 PUSH2 0x21B5 JUMP JUMPDEST PUSH2 0x11E5 SWAP2 SWAP1 PUSH2 0x21D4 JUMP JUMPDEST PUSH2 0x11EF SWAP2 SWAP1 PUSH2 0x21B5 JUMP JUMPDEST PUSH2 0x11F9 SWAP2 SWAP1 PUSH2 0x21D4 JUMP JUMPDEST SWAP1 POP PUSH2 0x1205 DUP5 DUP3 PUSH2 0x1BB1 JUMP JUMPDEST PUSH32 0x61F9EFC09A7E2BFF53ABE4FCF2714BB516B14CE6B8893742CC587DE5CD88079 CALLER DUP6 PUSH2 0x1233 DUP7 PUSH1 0x1 PUSH2 0x1FD3 JUMP JUMPDEST PUSH1 0x40 DUP1 MLOAD PUSH1 0x1 PUSH1 0x1 PUSH1 0xA0 SHL SUB SWAP5 DUP6 AND DUP2 MSTORE SWAP4 SWAP1 SWAP3 AND PUSH1 0x20 DUP5 ADD MSTORE SWAP1 DUP3 ADD MSTORE PUSH1 0x60 DUP2 ADD DUP4 SWAP1 MSTORE PUSH1 0x80 ADD PUSH1 0x40 MLOAD DUP1 SWAP2 SUB SWAP1 LOG1 POP POP PUSH2 0x126F JUMP JUMPDEST PUSH2 0x1281 JUMP JUMPDEST DUP1 PUSH2 0x1279 DUP2 PUSH2 0x219A JUMP JUMPDEST SWAP2 POP POP PUSH2 0x1082 JUMP JUMPDEST POP POP PUSH2 0x1319 JUMP JUMPDEST CALLER PUSH1 0x0 SWAP1 DUP2 MSTORE PUSH1 0x7 PUSH1 0x20 SWAP1 DUP2 MSTORE PUSH1 0x40 DUP1 DUP4 KECCAK256 PUSH1 0xA DUP6 ADD SLOAD DUP5 MSTORE SWAP1 SWAP2 MSTORE SWAP1 KECCAK256 TIMESTAMP SWAP1 SSTORE PUSH1 0xC DUP2 ADD SLOAD PUSH1 0x9 DUP3 ADD SLOAD PUSH1 0x64 SWAP2 DUP3 SWAP2 PUSH2 0x12C2 SWAP2 SWAP1 PUSH2 0x21B5 JUMP JUMPDEST PUSH2 0x12CC SWAP2 SWAP1 PUSH2 0x21D4 JUMP JUMPDEST PUSH2 0x12D7 SWAP1 PUSH1 0x73 PUSH2 0x21B5 JUMP JUMPDEST PUSH2 0x12E1 SWAP2 SWAP1 PUSH2 0x21D4 JUMP JUMPDEST CALLER PUSH1 0x0 SWAP1 DUP2 MSTORE PUSH1 0x7 PUSH1 0x20 SWAP1 DUP2 MSTORE PUSH1 0x40 DUP1 DUP4 KECCAK256 PUSH1 0xA DUP7 ADD DUP1 SLOAD DUP6 MSTORE SWAP3 MSTORE DUP3 KECCAK256 PUSH1 0x1 ADD SWAP3 SWAP1 SWAP3 SSTORE DUP2 SLOAD SWAP2 SWAP1 PUSH2 0x1313 DUP4 PUSH2 0x219A JUMP JUMPDEST SWAP2 SWAP1 POP SSTORE POP JUMPDEST PUSH1 0x0 PUSH1 0x9 DUP3 ADD DUP2 SWAP1 SSTORE PUSH1 0x3 SWAP1 SWAP2 ADD SSTORE POP JUMP JUMPDEST CALLER PUSH1 0x0 SWAP1 DUP2 MSTORE PUSH1 0x7 PUSH1 0x20 SWAP1 DUP2 MSTORE PUSH1 0x40 DUP1 DUP4 KECCAK256 DUP5 DUP5 MSTORE SWAP1 SWAP2 MSTORE SWAP1 KECCAK256 PUSH1 0x1 DUP2 ADD SLOAD PUSH2 0x1353 JUMPI PUSH1 0x0 DUP1 REVERT JUMPDEST PUSH1 0x1 DUP2 ADD SLOAD DUP2 SLOAD PUSH1 0x0 SWAP2 PUSH3 0x278D00 SWAP2 PUSH2 0x136C SWAP1 TIMESTAMP PUSH2 0x21F6 JUMP JUMPDEST PUSH2 0x1376 SWAP2 SWAP1 PUSH2 0x21B5 JUMP JUMPDEST PUSH2 0x1380 SWAP2 SWAP1 PUSH2 0x21D4 JUMP JUMPDEST SWAP1 POP DUP2 PUSH1 0x1 ADD SLOAD DUP2 GT ISZERO PUSH2 0x1395 JUMPI POP PUSH1 0x1 DUP2 ADD SLOAD JUMPDEST PUSH1 0x0 DUP3 PUSH1 0x2 ADD SLOAD DUP3 PUSH2 0x13A7 SWAP2 SWAP1 PUSH2 0x21F6 JUMP JUMPDEST SWAP1 POP PUSH2 0x13BA CALLER PUSH1 0x64 PUSH2 0x106F DUP5 PUSH1 0x5F PUSH2 0x21B5 JUMP JUMPDEST DUP1 DUP4 PUSH1 0x2 ADD PUSH1 0x0 DUP3 DUP3 SLOAD PUSH2 0x13CE SWAP2 SWAP1 PUSH2 0x1FD3 JUMP JUMPDEST SWAP1 SWAP2 SSTORE POP CALLER SWAP1 POP PUSH1 0x0 JUMPDEST PUSH1 0xF PUSH1 0x0 SWAP1 SLOAD SWAP1 PUSH2 0x100 EXP SWAP1 DIV PUSH1 0x1 PUSH1 0x1 PUSH1 0xA0 SHL SUB AND PUSH1 0x1 PUSH1 0x1 PUSH1 0xA0 SHL SUB AND PUSH4 0xF842D40B PUSH1 0x40 MLOAD DUP2 PUSH4 0xFFFFFFFF AND PUSH1 0xE0 SHL DUP2 MSTORE PUSH1 0x4 ADD PUSH1 0x20 PUSH1 0x40 MLOAD DUP1 DUP4 SUB DUP2 DUP7 DUP1 EXTCODESIZE ISZERO DUP1 ISZERO PUSH2 0x1426 JUMPI PUSH1 0x0 DUP1 REVERT JUMPDEST POP GAS STATICCALL ISZERO DUP1 ISZERO PUSH2 0x143A JUMPI RETURNDATASIZE PUSH1 0x0 DUP1 RETURNDATACOPY RETURNDATASIZE PUSH1 0x0 REVERT JUMPDEST POP POP POP POP PUSH1 0x40 MLOAD RETURNDATASIZE PUSH1 0x1F NOT PUSH1 0x1F DUP3 ADD AND DUP3 ADD DUP1 PUSH1 0x40 MSTORE POP DUP2 ADD SWAP1 PUSH2 0x145E SWAP2 SWAP1 PUSH2 0x225F JUMP JUMPDEST DUP2 LT ISZERO PUSH2 0x15B4 JUMPI PUSH1 0xF SLOAD PUSH1 0x40 MLOAD PUSH4 0x1B43F311 PUSH1 0xE3 SHL DUP2 MSTORE PUSH1 0x1 PUSH1 0x1 PUSH1 0xA0 SHL SUB DUP5 DUP2 AND PUSH1 0x4 DUP4 ADD MSTORE SWAP1 SWAP2 AND SWAP1 PUSH4 0xDA1F9888 SWAP1 PUSH1 0x24 ADD PUSH1 0x20 PUSH1 0x40 MLOAD DUP1 DUP4 SUB DUP2 DUP7 DUP1 EXTCODESIZE ISZERO DUP1 ISZERO PUSH2 0x14AA JUMPI PUSH1 0x0 DUP1 REVERT JUMPDEST POP GAS STATICCALL ISZERO DUP1 ISZERO PUSH2 0x14BE JUMPI RETURNDATASIZE PUSH1 0x0 DUP1 RETURNDATACOPY RETURNDATASIZE PUSH1 0x0 REVERT JUMPDEST POP POP POP POP PUSH1 0x40 MLOAD RETURNDATASIZE PUSH1 0x1F NOT PUSH1 0x1F DUP3 ADD AND DUP3 ADD DUP1 PUSH1 0x40 MSTORE POP DUP2 ADD SWAP1 PUSH2 0x14E2 SWAP2 SWAP1 PUSH2 0x2278 JUMP JUMPDEST SWAP2 POP PUSH1 0x1 PUSH1 0x1 PUSH1 0xA0 SHL SUB DUP3 AND ISZERO PUSH2 0x159D JUMPI PUSH1 0x0 PUSH1 0x11 DUP3 DUP2 SLOAD DUP2 LT PUSH2 0x1508 JUMPI PUSH2 0x1508 PUSH2 0x1FA7 JUMP JUMPDEST PUSH1 0x0 SWAP2 DUP3 MSTORE PUSH1 0x20 DUP3 KECCAK256 ADD SLOAD SWAP2 POP PUSH2 0x3E8 PUSH2 0x1522 DUP4 DUP8 PUSH2 0x21B5 JUMP JUMPDEST PUSH2 0x152C SWAP2 SWAP1 PUSH2 0x21D4 JUMP JUMPDEST SWAP1 POP PUSH2 0x1538 DUP5 DUP3 PUSH2 0x1BB1 JUMP JUMPDEST PUSH32 0x61F9EFC09A7E2BFF53ABE4FCF2714BB516B14CE6B8893742CC587DE5CD88079 CALLER DUP6 PUSH2 0x1566 DUP7 PUSH1 0x1 PUSH2 0x1FD3 JUMP JUMPDEST PUSH1 0x40 DUP1 MLOAD PUSH1 0x1 PUSH1 0x1 PUSH1 0xA0 SHL SUB SWAP5 DUP6 AND DUP2 MSTORE SWAP4 SWAP1 SWAP3 AND PUSH1 0x20 DUP5 ADD MSTORE SWAP1 DUP3 ADD MSTORE PUSH1 0x60 DUP2 ADD DUP4 SWAP1 MSTORE PUSH1 0x80 ADD PUSH1 0x40 MLOAD DUP1 SWAP2 SUB SWAP1 LOG1 POP POP PUSH2 0x15A2 JUMP JUMPDEST PUSH2 0x15B4 JUMP JUMPDEST DUP1 PUSH2 0x15AC DUP2 PUSH2 0x219A JUMP JUMPDEST SWAP2 POP POP PUSH2 0x13D8 JUMP JUMPDEST POP POP POP POP POP POP JUMP JUMPDEST CALLER PUSH1 0x0 SWAP1 DUP2 MSTORE PUSH1 0x6 PUSH1 0x20 MSTORE PUSH1 0x40 SWAP1 KECCAK256 PUSH1 0xB DUP2 ADD SLOAD PUSH1 0x4 SWAP2 SWAP1 PUSH1 0xFF AND PUSH2 0x1636 JUMPI PUSH1 0x40 MLOAD PUSH3 0x461BCD PUSH1 0xE5 SHL DUP2 MSTORE PUSH1 0x20 PUSH1 0x4 DUP3 ADD MSTORE PUSH1 0x2A PUSH1 0x24 DUP3 ADD MSTORE PUSH32 0x77697468647261773A2063616E2774207769746864726177206D6F7265207468 PUSH1 0x44 DUP3 ADD MSTORE PUSH10 0x185B8819195C1BDCDA5D PUSH1 0xB2 SHL PUSH1 0x64 DUP3 ADD MSTORE PUSH1 0x84 ADD PUSH2 0x5B8 JUMP JUMPDEST PUSH2 0x163E PUSH2 0x1A21 JUMP JUMPDEST DUP1 PUSH1 0x2 ADD SLOAD PUSH1 0xD PUSH1 0x0 DUP3 DUP3 SLOAD PUSH2 0x1654 SWAP2 SWAP1 PUSH2 0x21F6 JUMP JUMPDEST SWAP3 POP POP DUP2 SWAP1 SSTORE POP PUSH1 0x0 DUP2 PUSH1 0x3 ADD SLOAD PUSH11 0xC097CE7BC90715B34B9F1 PUSH1 0x24 SHL DUP5 PUSH1 0x1 ADD SLOAD DUP5 PUSH1 0x2 ADD SLOAD PUSH2 0x1685 SWAP2 SWAP1 PUSH2 0x21B5 JUMP JUMPDEST PUSH2 0x168F SWAP2 SWAP1 PUSH2 0x21D4 JUMP JUMPDEST PUSH2 0x1699 SWAP2 SWAP1 PUSH2 0x21F6 JUMP JUMPDEST SWAP1 POP DUP1 DUP3 PUSH1 0x9 ADD PUSH1 0x0 DUP3 DUP3 SLOAD PUSH2 0x16AF SWAP2 SWAP1 PUSH2 0x1FD3 JUMP JUMPDEST SWAP1 SWAP2 SSTORE POP POP PUSH1 0x1 DUP4 ADD SLOAD PUSH1 0x2 DUP4 ADD SLOAD PUSH11 0xC097CE7BC90715B34B9F1 PUSH1 0x24 SHL SWAP2 PUSH2 0x16D7 SWAP2 PUSH2 0x21B5 JUMP JUMPDEST PUSH2 0x16E1 SWAP2 SWAP1 PUSH2 0x21D4 JUMP JUMPDEST PUSH1 0x3 DUP4 ADD SSTORE PUSH1 0x0 JUMPDEST PUSH1 0x5 DUP4 ADD SLOAD DUP2 LT ISZERO PUSH2 0x1793 JUMPI PUSH1 0xE SLOAD PUSH1 0x5 DUP5 ADD DUP1 SLOAD PUSH1 0x1 PUSH1 0x1 PUSH1 0xA0 SHL SUB SWAP1 SWAP3 AND SWAP2 PUSH4 0x23B872DD SWAP2 ADDRESS SWAP2 CALLER SWAP2 SWAP1 DUP7 SWAP1 DUP2 LT PUSH2 0x1725 JUMPI PUSH2 0x1725 PUSH2 0x1FA7 JUMP JUMPDEST SWAP1 PUSH1 0x0 MSTORE PUSH1 0x20 PUSH1 0x0 KECCAK256 ADD SLOAD PUSH1 0x40 MLOAD DUP5 PUSH4 0xFFFFFFFF AND PUSH1 0xE0 SHL DUP2 MSTORE PUSH1 0x4 ADD PUSH2 0x174E SWAP4 SWAP3 SWAP2 SWAP1 PUSH2 0x2176 JUMP JUMPDEST PUSH1 0x0 PUSH1 0x40 MLOAD DUP1 DUP4 SUB DUP2 PUSH1 0x0 DUP8 DUP1 EXTCODESIZE ISZERO DUP1 ISZERO PUSH2 0x1768 JUMPI PUSH1 0x0 DUP1 REVERT JUMPDEST POP GAS CALL ISZERO DUP1 ISZERO PUSH2 0x177C JUMPI RETURNDATASIZE PUSH1 0x0 DUP1 RETURNDATACOPY RETURNDATASIZE PUSH1 0x0 REVERT JUMPDEST POP POP POP POP DUP1 DUP1 PUSH2 0x178B SWAP1 PUSH2 0x219A JUMP JUMPDEST SWAP2 POP POP PUSH2 0x16E9 JUMP JUMPDEST POP DUP2 PUSH1 0x7 ADD SLOAD TIMESTAMP LT PUSH2 0x17AB JUMPI PUSH1 0x64 PUSH1 0xC DUP4 ADD SSTORE PUSH2 0x18E9 JUMP JUMPDEST PUSH1 0x0 PUSH3 0x15180 DUP4 PUSH1 0x6 ADD SLOAD TIMESTAMP PUSH2 0x17C1 SWAP2 SWAP1 PUSH2 0x21F6 JUMP JUMPDEST PUSH2 0x17CB SWAP2 SWAP1 PUSH2 0x21D4 JUMP JUMPDEST SWAP1 POP PUSH1 0x1 DUP2 LT ISZERO PUSH2 0x17DB JUMPI PUSH1 0x0 DUP1 REVERT JUMPDEST PUSH1 0x8 DUP4 ADD SLOAD PUSH2 0x1804 JUMPI PUSH2 0x17EF DUP2 PUSH1 0xA PUSH2 0x21B5 JUMP JUMPDEST PUSH2 0x17FA SWAP1 PUSH1 0x1E PUSH2 0x1FD3 JUMP JUMPDEST PUSH1 0xC DUP5 ADD SSTORE PUSH2 0x18E7 JUMP JUMPDEST DUP3 PUSH1 0x8 ADD SLOAD PUSH1 0x1 EQ ISZERO PUSH2 0x1878 JUMPI DUP1 PUSH1 0x1 LT DUP1 ISZERO PUSH2 0x1822 JUMPI POP PUSH1 0x4 DUP2 GT ISZERO JUMPDEST ISZERO PUSH2 0x1833 JUMPI PUSH1 0x1E PUSH1 0xC DUP5 ADD SSTORE PUSH2 0x18E7 JUMP JUMPDEST DUP1 PUSH1 0x4 LT DUP1 ISZERO PUSH2 0x1844 JUMPI POP PUSH1 0x8 DUP2 GT ISZERO JUMPDEST ISZERO PUSH2 0x1855 JUMPI PUSH1 0x3C PUSH1 0xC DUP5 ADD SSTORE PUSH2 0x18E7 JUMP JUMPDEST DUP1 PUSH1 0x8 LT DUP1 ISZERO PUSH2 0x1866 JUMPI POP PUSH1 0xD DUP2 GT ISZERO JUMPDEST ISZERO PUSH2 0x1873 JUMPI PUSH1 0x50 PUSH1 0xC DUP5 ADD SSTORE JUMPDEST PUSH2 0x18E7 JUMP JUMPDEST DUP3 PUSH1 0x8 ADD SLOAD PUSH1 0x2 EQ ISZERO PUSH2 0x18E7 JUMPI DUP1 PUSH1 0x1 LT DUP1 ISZERO PUSH2 0x1896 JUMPI POP PUSH1 0xA DUP2 GT ISZERO JUMPDEST ISZERO PUSH2 0x18A7 JUMPI PUSH1 0x1E PUSH1 0xC DUP5 ADD SSTORE PUSH2 0x18E7 JUMP JUMPDEST DUP1 PUSH1 0xA LT DUP1 ISZERO PUSH2 0x18B8 JUMPI POP PUSH1 0x14 DUP2 GT ISZERO JUMPDEST ISZERO PUSH2 0x18C9 JUMPI PUSH1 0x3C PUSH1 0xC DUP5 ADD SSTORE PUSH2 0x18E7 JUMP JUMPDEST DUP1 PUSH1 0x14 LT DUP1 ISZERO PUSH2 0x18DA JUMPI POP PUSH1 0x1D DUP2 GT ISZERO JUMPDEST ISZERO PUSH2 0x18E7 JUMPI PUSH1 0x50 PUSH1 0xC DUP5 ADD SSTORE JUMPDEST POP JUMPDEST PUSH1 0x4 DUP1 DUP4 ADD DUP1 SLOAD PUSH1 0x0 SWAP1 SWAP2 SSTORE PUSH1 0x1 SLOAD PUSH1 0x40 MLOAD PUSH4 0x23B872DD PUSH1 0xE0 SHL DUP2 MSTORE SWAP2 SWAP3 PUSH1 0x1 PUSH1 0x1 PUSH1 0xA0 SHL SUB SWAP1 SWAP2 AND SWAP2 PUSH4 0x23B872DD SWAP2 PUSH2 0x1929 SWAP2 ADDRESS SWAP2 CALLER SWAP2 DUP8 SWAP2 ADD PUSH2 0x2176 JUMP JUMPDEST PUSH1 0x20 PUSH1 0x40 MLOAD DUP1 DUP4 SUB DUP2 PUSH1 0x0 DUP8 DUP1 EXTCODESIZE ISZERO DUP1 ISZERO PUSH2 0x1943 JUMPI PUSH1 0x0 DUP1 REVERT JUMPDEST POP GAS CALL ISZERO DUP1 ISZERO PUSH2 0x1957 JUMPI RETURNDATASIZE PUSH1 0x0 DUP1 RETURNDATACOPY RETURNDATASIZE PUSH1 0x0 REVERT JUMPDEST POP POP POP POP PUSH1 0x40 MLOAD RETURNDATASIZE PUSH1 0x1F NOT PUSH1 0x1F DUP3 ADD AND DUP3 ADD DUP1 PUSH1 0x40 MSTORE POP DUP2 ADD SWAP1 PUSH2 0x197B SWAP2 SWAP1 PUSH2 0x220D JUMP JUMPDEST POP PUSH1 0x40 DUP1 MLOAD PUSH1 0x0 DUP2 MSTORE PUSH1 0x20 DUP2 ADD SWAP2 DUP3 SWAP1 MSTORE MLOAD PUSH2 0x199B SWAP2 PUSH1 0x5 DUP7 ADD SWAP2 PUSH2 0x1C53 JUMP JUMPDEST POP POP PUSH1 0x0 PUSH1 0x1 DUP4 ADD DUP2 SWAP1 SSTORE PUSH1 0x2 DUP4 ADD SSTORE POP PUSH1 0xB ADD DUP1 SLOAD PUSH2 0xFFFF NOT AND PUSH2 0x100 OR SWAP1 SSTORE POP JUMP JUMPDEST PUSH1 0x0 PUSH1 0xD SLOAD PUSH1 0x0 EQ ISZERO PUSH2 0x19D5 JUMPI POP PUSH2 0x2710 SWAP2 SWAP1 POP JUMP JUMPDEST DUP2 PUSH2 0x19E6 JUMPI PUSH8 0xDE0B6B3A7640000 SWAP2 POP JUMPDEST PUSH2 0x3E8 PUSH1 0xD SLOAD PUSH1 0x3 SLOAD DUP5 PUSH2 0x19FA SWAP2 SWAP1 PUSH2 0x21B5 JUMP JUMPDEST PUSH2 0x1A07 SWAP1 PUSH3 0x76A700 PUSH2 0x21B5 JUMP JUMPDEST PUSH2 0x1A11 SWAP2 SWAP1 PUSH2 0x21D4 JUMP JUMPDEST PUSH2 0x1A1B SWAP2 SWAP1 PUSH2 0x21D4 JUMP JUMPDEST SWAP3 SWAP2 POP POP JUMP JUMPDEST PUSH1 0xC SLOAD PUSH1 0x4 SWAP1 PUSH1 0x0 SWAP1 NUMBER LT PUSH2 0x1A38 JUMPI PUSH1 0xC SLOAD PUSH2 0x1A3A JUMP JUMPDEST NUMBER JUMPDEST DUP3 SLOAD SWAP1 SWAP2 POP DUP2 GT PUSH2 0x1A49 JUMPI POP POP JUMP JUMPDEST PUSH1 0xD SLOAD PUSH2 0x1A54 JUMPI SWAP1 SSTORE JUMP JUMPDEST PUSH1 0x0 PUSH2 0x1A64 DUP4 PUSH1 0x0 ADD SLOAD DUP4 PUSH2 0x1B42 JUMP JUMPDEST PUSH1 0xD SLOAD SWAP1 SWAP2 POP PUSH2 0x1A82 DUP3 PUSH11 0xC097CE7BC90715B34B9F1 PUSH1 0x24 SHL PUSH2 0x21B5 JUMP JUMPDEST PUSH2 0x1A8C SWAP2 SWAP1 PUSH2 0x21D4 JUMP JUMPDEST DUP4 PUSH1 0x1 ADD SLOAD PUSH2 0x1A9B SWAP2 SWAP1 PUSH2 0x1FD3 JUMP JUMPDEST PUSH1 0x1 DUP5 ADD SSTORE POP POP NUMBER SWAP1 SSTORE JUMP JUMPDEST PUSH1 0x0 SLOAD PUSH1 0x1 PUSH1 0x1 PUSH1 0xA0 SHL SUB AND CALLER EQ PUSH2 0x1AD1 JUMPI PUSH1 0x40 MLOAD PUSH3 0x461BCD PUSH1 0xE5 SHL DUP2 MSTORE PUSH1 0x4 ADD PUSH2 0x5B8 SWAP1 PUSH2 0x222A JUMP JUMPDEST PUSH1 0x1 PUSH1 0x1 PUSH1 0xA0 SHL SUB DUP2 AND PUSH2 0x1B36 JUMPI PUSH1 0x40 MLOAD PUSH3 0x461BCD PUSH1 0xE5 SHL DUP2 MSTORE PUSH1 0x20 PUSH1 0x4 DUP3 ADD MSTORE PUSH1 0x26 PUSH1 0x24 DUP3 ADD MSTORE PUSH32 0x4F776E61626C653A206E6577206F776E657220697320746865207A65726F2061 PUSH1 0x44 DUP3 ADD MSTORE PUSH6 0x646472657373 PUSH1 0xD0 SHL PUSH1 0x64 DUP3 ADD MSTORE PUSH1 0x84 ADD PUSH2 0x5B8 JUMP JUMPDEST PUSH2 0x1B3F DUP2 PUSH2 0x1B61 JUMP JUMPDEST POP JUMP JUMPDEST PUSH1 0x0 DUP1 PUSH2 0x1B4F DUP5 DUP5 PUSH2 0x21F6 JUMP JUMPDEST SWAP1 POP PUSH1 0x0 PUSH1 0x3 SLOAD DUP3 PUSH2 0xCF8 SWAP2 SWAP1 PUSH2 0x21B5 JUMP JUMPDEST PUSH1 0x0 DUP1 SLOAD PUSH1 0x1 PUSH1 0x1 PUSH1 0xA0 SHL SUB DUP4 DUP2 AND PUSH1 0x1 PUSH1 0x1 PUSH1 0xA0 SHL SUB NOT DUP4 AND DUP2 OR DUP5 SSTORE PUSH1 0x40 MLOAD SWAP2 SWAP1 SWAP3 AND SWAP3 DUP4 SWAP2 PUSH32 0x8BE0079C531659141344CD1FD0A4F28419497F9722A3DAAFE3B4186F6B6457E0 SWAP2 SWAP1 LOG3 POP POP JUMP JUMPDEST PUSH1 0x1 SLOAD PUSH1 0x40 MLOAD PUSH4 0xA9059CBB PUSH1 0xE0 SHL DUP2 MSTORE PUSH1 0x1 PUSH1 0x1 PUSH1 0xA0 SHL SUB DUP5 DUP2 AND PUSH1 0x4 DUP4 ADD MSTORE PUSH1 0x24 DUP3 ADD DUP5 SWAP1 MSTORE SWAP1 SWAP2 AND SWAP1 PUSH4 0xA9059CBB SWAP1 PUSH1 0x44 ADD PUSH1 0x20 PUSH1 0x40 MLOAD DUP1 DUP4 SUB DUP2 PUSH1 0x0 DUP8 DUP1 EXTCODESIZE ISZERO DUP1 ISZERO PUSH2 0x1BFF JUMPI PUSH1 0x0 DUP1 REVERT JUMPDEST POP GAS CALL ISZERO DUP1 ISZERO PUSH2 0x1C13 JUMPI RETURNDATASIZE PUSH1 0x0 DUP1 RETURNDATACOPY RETURNDATASIZE PUSH1 0x0 REVERT JUMPDEST POP POP POP POP PUSH1 0x40 MLOAD RETURNDATASIZE PUSH1 0x1F NOT PUSH1 0x1F DUP3 ADD AND DUP3 ADD DUP1 PUSH1 0x40 MSTORE POP DUP2 ADD SWAP1 PUSH2 0x1C37 SWAP2 SWAP1 PUSH2 0x220D JUMP JUMPDEST POP DUP1 PUSH1 0x2 PUSH1 0x0 DUP3 DUP3 SLOAD PUSH2 0x1C4A SWAP2 SWAP1 PUSH2 0x1FD3 JUMP JUMPDEST SWAP1 SWAP2 SSTORE POP POP POP POP JUMP JUMPDEST DUP3 DUP1 SLOAD DUP3 DUP3 SSTORE SWAP1 PUSH1 0x0 MSTORE PUSH1 0x20 PUSH1 0x0 KECCAK256 SWAP1 DUP2 ADD SWAP3 DUP3 ISZERO PUSH2 0x1C8E JUMPI SWAP2 PUSH1 0x20 MUL DUP3 ADD JUMPDEST DUP3 DUP2 GT ISZERO PUSH2 0x1C8E JUMPI DUP3 MLOAD DUP3 SSTORE SWAP2 PUSH1 0x20 ADD SWAP2 SWAP1 PUSH1 0x1 ADD SWAP1 PUSH2 0x1C73 JUMP JUMPDEST POP PUSH2 0x1C9A SWAP3 SWAP2 POP PUSH2 0x1C9E JUMP JUMPDEST POP SWAP1 JUMP JUMPDEST JUMPDEST DUP1 DUP3 GT ISZERO PUSH2 0x1C9A JUMPI PUSH1 0x0 DUP2 SSTORE PUSH1 0x1 ADD PUSH2 0x1C9F JUMP JUMPDEST PUSH4 0x4E487B71 PUSH1 0xE0 SHL PUSH1 0x0 MSTORE PUSH1 0x41 PUSH1 0x4 MSTORE PUSH1 0x24 PUSH1 0x0 REVERT JUMPDEST PUSH1 0x40 MLOAD PUSH2 0x1A0 DUP2 ADD PUSH8 0xFFFFFFFFFFFFFFFF DUP2 GT DUP3 DUP3 LT OR ISZERO PUSH2 0x1CED JUMPI PUSH2 0x1CED PUSH2 0x1CB3 JUMP JUMPDEST PUSH1 0x40 MSTORE SWAP1 JUMP JUMPDEST PUSH1 0x40 MLOAD PUSH1 0x1F DUP3 ADD PUSH1 0x1F NOT AND DUP2 ADD PUSH8 0xFFFFFFFFFFFFFFFF DUP2 GT DUP3 DUP3 LT OR ISZERO PUSH2 0x1D1C JUMPI PUSH2 0x1D1C PUSH2 0x1CB3 JUMP JUMPDEST PUSH1 0x40 MSTORE SWAP2 SWAP1 POP JUMP JUMPDEST PUSH1 0xFF DUP2 AND DUP2 EQ PUSH2 0x1B3F JUMPI PUSH1 0x0 DUP1 REVERT JUMPDEST DUP1 CALLDATALOAD PUSH2 0x1D3E DUP2 PUSH2 0x1D24 JUMP JUMPDEST SWAP2 SWAP1 POP JUMP JUMPDEST PUSH1 0x0 DUP1 PUSH1 0x40 DUP4 DUP6 SUB SLT ISZERO PUSH2 0x1D56 JUMPI PUSH1 0x0 DUP1 REVERT JUMPDEST DUP3 CALLDATALOAD PUSH8 0xFFFFFFFFFFFFFFFF DUP1 DUP3 GT ISZERO PUSH2 0x1D6E JUMPI PUSH1 0x0 DUP1 REVERT JUMPDEST DUP2 DUP6 ADD SWAP2 POP DUP6 PUSH1 0x1F DUP4 ADD SLT PUSH2 0x1D82 JUMPI PUSH1 0x0 DUP1 REVERT JUMPDEST DUP2 CALLDATALOAD PUSH1 0x20 DUP3 DUP3 GT ISZERO PUSH2 0x1D96 JUMPI PUSH2 0x1D96 PUSH2 0x1CB3 JUMP JUMPDEST DUP2 PUSH1 0x5 SHL SWAP3 POP PUSH2 0x1DA7 DUP2 DUP5 ADD PUSH2 0x1CF3 JUMP JUMPDEST DUP3 DUP2 MSTORE SWAP3 DUP5 ADD DUP2 ADD SWAP3 DUP2 DUP2 ADD SWAP1 DUP10 DUP6 GT ISZERO PUSH2 0x1DC1 JUMPI PUSH1 0x0 DUP1 REVERT JUMPDEST SWAP5 DUP3 ADD SWAP5 JUMPDEST DUP5 DUP7 LT ISZERO PUSH2 0x1DDF JUMPI DUP6 CALLDATALOAD DUP3 MSTORE SWAP5 DUP3 ADD SWAP5 SWAP1 DUP3 ADD SWAP1 PUSH2 0x1DC6 JUMP JUMPDEST SWAP7 POP PUSH2 0x1DEE SWAP1 POP DUP8 DUP3 ADD PUSH2 0x1D33 JUMP JUMPDEST SWAP5 POP POP POP POP POP SWAP3 POP SWAP3 SWAP1 POP JUMP JUMPDEST PUSH1 0x0 PUSH1 0x20 DUP3 DUP5 SUB SLT ISZERO PUSH2 0x1E0D JUMPI PUSH1 0x0 DUP1 REVERT JUMPDEST POP CALLDATALOAD SWAP2 SWAP1 POP JUMP JUMPDEST PUSH1 0x1 PUSH1 0x1 PUSH1 0xA0 SHL SUB DUP2 AND DUP2 EQ PUSH2 0x1B3F JUMPI PUSH1 0x0 DUP1 REVERT JUMPDEST PUSH1 0x0 PUSH1 0x20 DUP3 DUP5 SUB SLT ISZERO PUSH2 0x1E3B JUMPI PUSH1 0x0 DUP1 REVERT JUMPDEST DUP2 CALLDATALOAD PUSH2 0x992 DUP2 PUSH2 0x1E14 JUMP JUMPDEST PUSH1 0x0 DUP2 MLOAD DUP1 DUP5 MSTORE PUSH1 0x20 DUP1 DUP6 ADD SWAP5 POP DUP1 DUP5 ADD PUSH1 0x0 JUMPDEST DUP4 DUP2 LT ISZERO PUSH2 0x1E76 JUMPI DUP2 MLOAD DUP8 MSTORE SWAP6 DUP3 ADD SWAP6 SWAP1 DUP3 ADD SWAP1 PUSH1 0x1 ADD PUSH2 0x1E5A JUMP JUMPDEST POP SWAP5 SWAP6 SWAP5 POP POP POP POP POP JUMP JUMPDEST PUSH1 0x20 DUP2 MSTORE DUP2 MLOAD PUSH1 0x20 DUP3 ADD MSTORE PUSH1 0x20 DUP3 ADD MLOAD PUSH1 0x40 DUP3 ADD MSTORE PUSH1 0x40 DUP3 ADD MLOAD PUSH1 0x60 DUP3 ADD MSTORE PUSH1 0x60 DUP3 ADD MLOAD PUSH1 0x80 DUP3 ADD MSTORE PUSH1 0x80 DUP3 ADD MLOAD PUSH1 0xA0 DUP3 ADD MSTORE PUSH1 0x0 PUSH1 0xA0 DUP4 ADD MLOAD PUSH2 0x1C0 DUP1 PUSH1 0xC0 DUP6 ADD MSTORE PUSH2 0x1ED2 PUSH2 0x1E0 DUP6 ADD DUP4 PUSH2 0x1E46 JUMP JUMPDEST PUSH1 0xC0 DUP7 ADD MLOAD PUSH1 0xE0 DUP7 DUP2 ADD SWAP2 SWAP1 SWAP2 MSTORE DUP7 ADD MLOAD PUSH2 0x100 DUP1 DUP8 ADD SWAP2 SWAP1 SWAP2 MSTORE DUP7 ADD MLOAD PUSH2 0x120 DUP1 DUP8 ADD SWAP2 SWAP1 SWAP2 MSTORE DUP7 ADD MLOAD PUSH2 0x140 DUP1 DUP8 ADD SWAP2 SWAP1 SWAP2 MSTORE DUP7 ADD MLOAD PUSH2 0x160 DUP1 DUP8 ADD SWAP2 SWAP1 SWAP2 MSTORE DUP7 ADD MLOAD SWAP1 SWAP3 POP PUSH2 0x180 PUSH2 0x1F2A DUP2 DUP8 ADD DUP4 ISZERO ISZERO SWAP1 MSTORE JUMP JUMPDEST DUP7 ADD MLOAD SWAP1 POP PUSH2 0x1A0 PUSH2 0x1F3F DUP7 DUP3 ADD DUP4 ISZERO ISZERO SWAP1 MSTORE JUMP JUMPDEST SWAP6 SWAP1 SWAP6 ADD MLOAD SWAP4 ADD SWAP3 SWAP1 SWAP3 MSTORE POP SWAP2 SWAP1 POP JUMP JUMPDEST DUP1 ISZERO ISZERO DUP2 EQ PUSH2 0x1B3F JUMPI PUSH1 0x0 DUP1 REVERT JUMPDEST PUSH1 0x0 PUSH1 0x20 DUP3 DUP5 SUB SLT ISZERO PUSH2 0x1F70 JUMPI PUSH1 0x0 DUP1 REVERT JUMPDEST DUP2 CALLDATALOAD PUSH2 0x992 DUP2 PUSH2 0x1F50 JUMP JUMPDEST PUSH1 0x0 DUP1 PUSH1 0x40 DUP4 DUP6 SUB SLT ISZERO PUSH2 0x1F8E JUMPI PUSH1 0x0 DUP1 REVERT JUMPDEST DUP3 CALLDATALOAD PUSH2 0x1F99 DUP2 PUSH2 0x1E14 JUMP JUMPDEST SWAP5 PUSH1 0x20 SWAP4 SWAP1 SWAP4 ADD CALLDATALOAD SWAP4 POP POP POP JUMP JUMPDEST PUSH4 0x4E487B71 PUSH1 0xE0 SHL PUSH1 0x0 MSTORE PUSH1 0x32 PUSH1 0x4 MSTORE PUSH1 0x24 PUSH1 0x0 REVERT JUMPDEST PUSH4 0x4E487B71 PUSH1 0xE0 SHL PUSH1 0x0 MSTORE PUSH1 0x11 PUSH1 0x4 MSTORE PUSH1 0x24 PUSH1 0x0 REVERT JUMPDEST PUSH1 0x0 DUP3 NOT DUP3 GT ISZERO PUSH2 0x1FE6 JUMPI PUSH2 0x1FE6 PUSH2 0x1FBD JUMP JUMPDEST POP ADD SWAP1 JUMP JUMPDEST DUP1 MLOAD PUSH2 0x1D3E DUP2 PUSH2 0x1D24 JUMP JUMPDEST DUP1 MLOAD PUSH8 0xFFFFFFFFFFFFFFFF DUP2 AND DUP2 EQ PUSH2 0x1D3E JUMPI PUSH1 0x0 DUP1 REVERT JUMPDEST PUSH1 0x0 DUP3 PUSH1 0x1F DUP4 ADD SLT PUSH2 0x201F JUMPI PUSH1 0x0 DUP1 REVERT JUMPDEST PUSH1 0x40 MLOAD PUSH1 0xA0 DUP2 ADD DUP2 DUP2 LT PUSH8 0xFFFFFFFFFFFFFFFF DUP3 GT OR ISZERO PUSH2 0x2042 JUMPI PUSH2 0x2042 PUSH2 0x1CB3 JUMP JUMPDEST PUSH1 0x40 MSTORE DUP1 PUSH1 0xA0 DUP5 ADD DUP6 DUP2 GT ISZERO PUSH2 0x2057 JUMPI PUSH1 0x0 DUP1 REVERT JUMPDEST DUP5 JUMPDEST DUP2 DUP2 LT ISZERO PUSH2 0x2078 JUMPI PUSH2 0x206A DUP2 PUSH2 0x1FF6 JUMP JUMPDEST DUP4 MSTORE PUSH1 0x20 SWAP3 DUP4 ADD SWAP3 ADD PUSH2 0x2059 JUMP JUMPDEST POP SWAP2 SWAP6 SWAP5 POP POP POP POP POP JUMP JUMPDEST PUSH1 0x0 PUSH2 0x220 DUP3 DUP5 SUB SLT ISZERO PUSH2 0x2096 JUMPI PUSH1 0x0 DUP1 REVERT JUMPDEST PUSH2 0x209E PUSH2 0x1CC9 JUMP JUMPDEST DUP3 MLOAD DUP2 MSTORE PUSH2 0x20AE PUSH1 0x20 DUP5 ADD PUSH2 0x1FEB JUMP JUMPDEST PUSH1 0x20 DUP3 ADD MSTORE PUSH2 0x20BF PUSH1 0x40 DUP5 ADD PUSH2 0x1FEB JUMP JUMPDEST PUSH1 0x40 DUP3 ADD MSTORE PUSH2 0x20D0 PUSH1 0x60 DUP5 ADD PUSH2 0x1FEB JUMP JUMPDEST PUSH1 0x60 DUP3 ADD MSTORE PUSH2 0x20E1 PUSH1 0x80 DUP5 ADD PUSH2 0x1FEB JUMP JUMPDEST PUSH1 0x80 DUP3 ADD MSTORE PUSH2 0x20F2 PUSH1 0xA0 DUP5 ADD PUSH2 0x1FEB JUMP JUMPDEST PUSH1 0xA0 DUP3 ADD MSTORE PUSH2 0x2103 PUSH1 0xC0 DUP5 ADD PUSH2 0x1FEB JUMP JUMPDEST PUSH1 0xC0 DUP3 ADD MSTORE PUSH2 0x2114 PUSH1 0xE0 DUP5 ADD PUSH2 0x1FEB JUMP JUMPDEST PUSH1 0xE0 DUP3 ADD MSTORE PUSH2 0x100 PUSH2 0x2127 DUP2 DUP6 ADD PUSH2 0x1FF6 JUMP JUMPDEST SWAP1 DUP3 ADD MSTORE PUSH2 0x120 PUSH2 0x2139 DUP5 DUP3 ADD PUSH2 0x1FF6 JUMP JUMPDEST SWAP1 DUP3 ADD MSTORE PUSH2 0x140 PUSH2 0x214C DUP6 DUP6 DUP4 ADD PUSH2 0x200E JUMP JUMPDEST SWAP1 DUP3 ADD MSTORE PUSH2 0x1E0 DUP4 ADD MLOAD PUSH2 0x160 DUP3 ADD MSTORE PUSH2 0x2169 PUSH2 0x200 DUP5 ADD PUSH2 0x1FEB JUMP JUMPDEST PUSH2 0x180 DUP3 ADD MSTORE SWAP4 SWAP3 POP POP POP JUMP JUMPDEST PUSH1 0x1 PUSH1 0x1 PUSH1 0xA0 SHL SUB SWAP4 DUP5 AND DUP2 MSTORE SWAP2 SWAP1 SWAP3 AND PUSH1 0x20 DUP3 ADD MSTORE PUSH1 0x40 DUP2 ADD SWAP2 SWAP1 SWAP2 MSTORE PUSH1 0x60 ADD SWAP1 JUMP JUMPDEST PUSH1 0x0 PUSH1 0x0 NOT DUP3 EQ ISZERO PUSH2 0x21AE JUMPI PUSH2 0x21AE PUSH2 0x1FBD JUMP JUMPDEST POP PUSH1 0x1 ADD SWAP1 JUMP JUMPDEST PUSH1 0x0 DUP2 PUSH1 0x0 NOT DIV DUP4 GT DUP3 ISZERO ISZERO AND ISZERO PUSH2 0x21CF JUMPI PUSH2 0x21CF PUSH2 0x1FBD JUMP JUMPDEST POP MUL SWAP1 JUMP JUMPDEST PUSH1 0x0 DUP3 PUSH2 0x21F1 JUMPI PUSH4 0x4E487B71 PUSH1 0xE0 SHL PUSH1 0x0 MSTORE PUSH1 0x12 PUSH1 0x4 MSTORE PUSH1 0x24 PUSH1 0x0 REVERT JUMPDEST POP DIV SWAP1 JUMP JUMPDEST PUSH1 0x0 DUP3 DUP3 LT ISZERO PUSH2 0x2208 JUMPI PUSH2 0x2208 PUSH2 0x1FBD JUMP JUMPDEST POP SUB SWAP1 JUMP JUMPDEST PUSH1 0x0 PUSH1 0x20 DUP3 DUP5 SUB SLT ISZERO PUSH2 0x221F JUMPI PUSH1 0x0 DUP1 REVERT JUMPDEST DUP2 MLOAD PUSH2 0x992 DUP2 PUSH2 0x1F50 JUMP JUMPDEST PUSH1 0x20 DUP1 DUP3 MSTORE DUP2 DUP2 ADD MSTORE PUSH32 0x4F776E61626C653A2063616C6C6572206973206E6F7420746865206F776E6572 PUSH1 0x40 DUP3 ADD MSTORE PUSH1 0x60 ADD SWAP1 JUMP JUMPDEST PUSH1 0x0 PUSH1 0x20 DUP3 DUP5 SUB SLT ISZERO PUSH2 0x2271 JUMPI PUSH1 0x0 DUP1 REVERT JUMPDEST POP MLOAD SWAP2 SWAP1 POP JUMP JUMPDEST PUSH1 0x0 PUSH1 0x20 DUP3 DUP5 SUB SLT ISZERO PUSH2 0x228A JUMPI PUSH1 0x0 DUP1 REVERT JUMPDEST DUP2 MLOAD PUSH2 0x992 DUP2 PUSH2 0x1E14 JUMP INVALID LOG2 PUSH5 0x6970667358 0x22 SLT KECCAK256 0x4C 0xD0 0xC0 PUSH10 0x7F79F408A3E9F8402666 SELFDESTRUCT PUSH6 0x134E18631B2F 0xDD CALLDATALOAD 0xCC 0x2B DUP5 PUSH28 0xD9CB733364736F6C6343000808003300000000000000000000000000 "
		},
		"gasEstimates": {
			"creation": {
				"codeDepositCost": "1781400",
				"executionCost": "infinite",
				"totalCost": "infinite"
			},
			"external": {
				"APYPercent(uint256)": "infinite",
				"canDepositMdao(address)": "infinite",
				"claimHero()": "infinite",
				"decideClaimForm(bool)": "infinite",
				"deposit(uint256[],uint8)": "infinite",
				"depositMdao()": "infinite",
				"emergencyWithdraw(address)": "infinite",
				"endBlock()": "2331",
				"erc20()": "2404",
				"form1InviteAward(uint256)": "4675",
				"form2InviteAward(uint256)": "4655",
				"getUserInfo(address)": "infinite",
				"hero()": "2426",
				"inviterContract()": "2405",
				"lockInfo(address,uint256)": "6992",
				"lockRewardWithdraw(uint256)": "infinite",
				"owner()": "2376",
				"paidOut()": "2351",
				"pending(address)": "infinite",
				"poolInfo()": "4473",
				"renounceOwnership()": "28159",
				"rewardPerBlock()": "2395",
				"startBlock()": "2374",
				"totalAllocPoint()": "2330",
				"totalPending()": "infinite",
				"totalPowers()": "2352",
				"transferOwnership(address)": "infinite",
				"updatePool()": "infinite",
				"userInfo(address)": "26133"
			},
			"internal": {
				"computerReward(uint256,uint256)": "2311",
				"erc20Transfer(address,uint256)": "infinite"
			}
		},
		"methodIdentifiers": {
			"APYPercent(uint256)": "d4796ef2",
			"canDepositMdao(address)": "39307b54",
			"claimHero()": "c91b46c6",
			"decideClaimForm(bool)": "9f608da3",
			"deposit(uint256[],uint8)": "0af72c69",
			"depositMdao()": "3bddf74e",
			"emergencyWithdraw(address)": "6ff1c9bc",
			"endBlock()": "083c6323",
			"erc20()": "785e9e86",
			"form1InviteAward(uint256)": "60343cae",
			"form2InviteAward(uint256)": "10b43acf",
			"getUserInfo(address)": "6386c1c7",
			"hero()": "7f513d5d",
			"inviterContract()": "47646b9e",
			"lockInfo(address,uint256)": "b2520a7c",
			"lockRewardWithdraw(uint256)": "acff05b0",
			"owner()": "8da5cb5b",
			"paidOut()": "5c76ca2d",
			"pending(address)": "5eebea20",
			"poolInfo()": "5a2f3d09",
			"renounceOwnership()": "715018a6",
			"rewardPerBlock()": "8ae39cac",
			"startBlock()": "48cd4cb1",
			"totalAllocPoint()": "17caf6f1",
			"totalPending()": "3f90916a",
			"totalPowers()": "6917c501",
			"transferOwnership(address)": "f2fde38b",
			"updatePool()": "e3161ddd",
			"userInfo(address)": "1959a002"
		}
	},
	"abi": [
		{
			"inputs": [
				{
					"internalType": "contract IRichHero",
					"name": "_hero",
					"type": "address"
				},
				{
					"internalType": "address",
					"name": "_invite",
					"type": "address"
				},
				{
					"internalType": "contract IERC20",
					"name": "_erc20",
					"type": "address"
				},
				{
					"internalType": "uint256",
					"name": "_rewardPerBlock",
					"type": "uint256"
				},
				{
					"internalType": "uint256",
					"name": "_startBlock",
					"type": "uint256"
				}
			],
			"stateMutability": "nonpayable",
			"type": "constructor"
		},
		{
			"anonymous": false,
			"inputs": [
				{
					"indexed": true,
					"internalType": "address",
					"name": "user",
					"type": "address"
				},
				{
					"indexed": false,
					"internalType": "uint256",
					"name": "amount",
					"type": "uint256"
				}
			],
			"name": "Deposit",
			"type": "event"
		},
		{
			"anonymous": false,
			"inputs": [
				{
					"indexed": true,
					"internalType": "address",
					"name": "user",
					"type": "address"
				},
				{
					"indexed": false,
					"internalType": "uint256",
					"name": "amount",
					"type": "uint256"
				}
			],
			"name": "EmergencyWithdraw",
			"type": "event"
		},
		{
			"anonymous": false,
			"inputs": [
				{
					"indexed": false,
					"internalType": "address",
					"name": "buyer",
					"type": "address"
				},
				{
					"indexed": false,
					"internalType": "address",
					"name": "inviter",
					"type": "address"
				},
				{
					"indexed": false,
					"internalType": "uint256",
					"name": "generation",
					"type": "uint256"
				},
				{
					"indexed": false,
					"internalType": "uint256",
					"name": "amount",
					"type": "uint256"
				}
			],
			"name": "InviterClaim",
			"type": "event"
		},
		{
			"anonymous": false,
			"inputs": [
				{
					"indexed": true,
					"internalType": "address",
					"name": "previousOwner",
					"type": "address"
				},
				{
					"indexed": true,
					"internalType": "address",
					"name": "newOwner",
					"type": "address"
				}
			],
			"name": "OwnershipTransferred",
			"type": "event"
		},
		{
			"anonymous": false,
			"inputs": [
				{
					"indexed": true,
					"internalType": "address",
					"name": "user",
					"type": "address"
				},
				{
					"indexed": false,
					"internalType": "uint256",
					"name": "amount",
					"type": "uint256"
				}
			],
			"name": "Withdraw",
			"type": "event"
		},
		{
			"inputs": [
				{
					"internalType": "uint256",
					"name": "power",
					"type": "uint256"
				}
			],
			"name": "APYPercent",
			"outputs": [
				{
					"internalType": "uint256",
					"name": "apy",
					"type": "uint256"
				}
			],
			"stateMutability": "view",
			"type": "function"
		},
		{
			"inputs": [
				{
					"internalType": "address",
					"name": "_user",
					"type": "address"
				}
			],
			"name": "canDepositMdao",
			"outputs": [
				{
					"internalType": "uint256",
					"name": "",
					"type": "uint256"
				}
			],
			"stateMutability": "view",
			"type": "function"
		},
		{
			"inputs": [],
			"name": "claimHero",
			"outputs": [],
			"stateMutability": "nonpayable",
			"type": "function"
		},
		{
			"inputs": [
				{
					"internalType": "bool",
					"name": "isLockClaim",
					"type": "bool"
				}
			],
			"name": "decideClaimForm",
			"outputs": [],
			"stateMutability": "nonpayable",
			"type": "function"
		},
		{
			"inputs": [
				{
					"internalType": "uint256[]",
					"name": "_tokenIds",
					"type": "uint256[]"
				},
				{
					"internalType": "uint8",
					"name": "difficulty",
					"type": "uint8"
				}
			],
			"name": "deposit",
			"outputs": [],
			"stateMutability": "nonpayable",
			"type": "function"
		},
		{
			"inputs": [],
			"name": "depositMdao",
			"outputs": [],
			"stateMutability": "nonpayable",
			"type": "function"
		},
		{
			"inputs": [
				{
					"internalType": "address",
					"name": "token",
					"type": "address"
				}
			],
			"name": "emergencyWithdraw",
			"outputs": [],
			"stateMutability": "nonpayable",
			"type": "function"
		},
		{
			"inputs": [],
			"name": "endBlock",
			"outputs": [
				{
					"internalType": "uint256",
					"name": "",
					"type": "uint256"
				}
			],
			"stateMutability": "view",
			"type": "function"
		},
		{
			"inputs": [],
			"name": "erc20",
			"outputs": [
				{
					"internalType": "contract IERC20",
					"name": "",
					"type": "address"
				}
			],
			"stateMutability": "view",
			"type": "function"
		},
		{
			"inputs": [
				{
					"internalType": "uint256",
					"name": "",
					"type": "uint256"
				}
			],
			"name": "form1InviteAward",
			"outputs": [
				{
					"internalType": "uint256",
					"name": "",
					"type": "uint256"
				}
			],
			"stateMutability": "view",
			"type": "function"
		},
		{
			"inputs": [
				{
					"internalType": "uint256",
					"name": "",
					"type": "uint256"
				}
			],
			"name": "form2InviteAward",
			"outputs": [
				{
					"internalType": "uint256",
					"name": "",
					"type": "uint256"
				}
			],
			"stateMutability": "view",
			"type": "function"
		},
		{
			"inputs": [
				{
					"internalType": "address",
					"name": "user",
					"type": "address"
				}
			],
			"name": "getUserInfo",
			"outputs": [
				{
					"components": [
						{
							"internalType": "uint256",
							"name": "goldens",
							"type": "uint256"
						},
						{
							"internalType": "uint256",
							"name": "realPower",
							"type": "uint256"
						},
						{
							"internalType": "uint256",
							"name": "buffedPower",
							"type": "uint256"
						},
						{
							"internalType": "uint256",
							"name": "rewardDebt",
							"type": "uint256"
						},
						{
							"internalType": "uint256",
							"name": "mdao",
							"type": "uint256"
						},
						{
							"internalType": "uint256[]",
							"name": "tokenIds",
							"type": "uint256[]"
						},
						{
							"internalType": "uint256",
							"name": "startTime",
							"type": "uint256"
						},
						{
							"internalType": "uint256",
							"name": "endTime",
							"type": "uint256"
						},
						{
							"internalType": "uint256",
							"name": "difficulty",
							"type": "uint256"
						},
						{
							"internalType": "uint256",
							"name": "pendingAmount",
							"type": "uint256"
						},
						{
							"internalType": "uint256",
							"name": "lastLockId",
							"type": "uint256"
						},
						{
							"internalType": "bool",
							"name": "inFarm",
							"type": "bool"
						},
						{
							"internalType": "bool",
							"name": "isUnClaim",
							"type": "bool"
						},
						{
							"internalType": "uint256",
							"name": "exitPercent",
							"type": "uint256"
						}
					],
					"internalType": "struct HeroFarm.UserInfo",
					"name": "",
					"type": "tuple"
				}
			],
			"stateMutability": "view",
			"type": "function"
		},
		{
			"inputs": [],
			"name": "hero",
			"outputs": [
				{
					"internalType": "contract IRichHero",
					"name": "",
					"type": "address"
				}
			],
			"stateMutability": "view",
			"type": "function"
		},
		{
			"inputs": [],
			"name": "inviterContract",
			"outputs": [
				{
					"internalType": "contract Invite",
					"name": "",
					"type": "address"
				}
			],
			"stateMutability": "view",
			"type": "function"
		},
		{
			"inputs": [
				{
					"internalType": "address",
					"name": "",
					"type": "address"
				},
				{
					"internalType": "uint256",
					"name": "",
					"type": "uint256"
				}
			],
			"name": "lockInfo",
			"outputs": [
				{
					"internalType": "uint256",
					"name": "claimStartTime",
					"type": "uint256"
				},
				{
					"internalType": "uint256",
					"name": "rewardAmount",
					"type": "uint256"
				},
				{
					"internalType": "uint256",
					"name": "claimedAmount",
					"type": "uint256"
				}
			],
			"stateMutability": "view",
			"type": "function"
		},
		{
			"inputs": [
				{
					"internalType": "uint256",
					"name": "lockId",
					"type": "uint256"
				}
			],
			"name": "lockRewardWithdraw",
			"outputs": [],
			"stateMutability": "nonpayable",
			"type": "function"
		},
		{
			"inputs": [],
			"name": "owner",
			"outputs": [
				{
					"internalType": "address",
					"name": "",
					"type": "address"
				}
			],
			"stateMutability": "view",
			"type": "function"
		},
		{
			"inputs": [],
			"name": "paidOut",
			"outputs": [
				{
					"internalType": "uint256",
					"name": "",
					"type": "uint256"
				}
			],
			"stateMutability": "view",
			"type": "function"
		},
		{
			"inputs": [
				{
					"internalType": "address",
					"name": "_user",
					"type": "address"
				}
			],
			"name": "pending",
			"outputs": [
				{
					"internalType": "uint256",
					"name": "",
					"type": "uint256"
				}
			],
			"stateMutability": "view",
			"type": "function"
		},
		{
			"inputs": [],
			"name": "poolInfo",
			"outputs": [
				{
					"internalType": "uint256",
					"name": "lastRewardBlock",
					"type": "uint256"
				},
				{
					"internalType": "uint256",
					"name": "accPowerPerShare",
					"type": "uint256"
				}
			],
			"stateMutability": "view",
			"type": "function"
		},
		{
			"inputs": [],
			"name": "renounceOwnership",
			"outputs": [],
			"stateMutability": "nonpayable",
			"type": "function"
		},
		{
			"inputs": [],
			"name": "rewardPerBlock",
			"outputs": [
				{
					"internalType": "uint256",
					"name": "",
					"type": "uint256"
				}
			],
			"stateMutability": "view",
			"type": "function"
		},
		{
			"inputs": [],
			"name": "startBlock",
			"outputs": [
				{
					"internalType": "uint256",
					"name": "",
					"type": "uint256"
				}
			],
			"stateMutability": "view",
			"type": "function"
		},
		{
			"inputs": [],
			"name": "totalAllocPoint",
			"outputs": [
				{
					"internalType": "uint256",
					"name": "",
					"type": "uint256"
				}
			],
			"stateMutability": "view",
			"type": "function"
		},
		{
			"inputs": [],
			"name": "totalPending",
			"outputs": [
				{
					"internalType": "uint256",
					"name": "",
					"type": "uint256"
				}
			],
			"stateMutability": "view",
			"type": "function"
		},
		{
			"inputs": [],
			"name": "totalPowers",
			"outputs": [
				{
					"internalType": "uint256",
					"name": "",
					"type": "uint256"
				}
			],
			"stateMutability": "view",
			"type": "function"
		},
		{
			"inputs": [
				{
					"internalType": "address",
					"name": "newOwner",
					"type": "address"
				}
			],
			"name": "transferOwnership",
			"outputs": [],
			"stateMutability": "nonpayable",
			"type": "function"
		},
		{
			"inputs": [],
			"name": "updatePool",
			"outputs": [],
			"stateMutability": "nonpayable",
			"type": "function"
		},
		{
			"inputs": [
				{
					"internalType": "address",
					"name": "",
					"type": "address"
				}
			],
			"name": "userInfo",
			"outputs": [
				{
					"internalType": "uint256",
					"name": "goldens",
					"type": "uint256"
				},
				{
					"internalType": "uint256",
					"name": "realPower",
					"type": "uint256"
				},
				{
					"internalType": "uint256",
					"name": "buffedPower",
					"type": "uint256"
				},
				{
					"internalType": "uint256",
					"name": "rewardDebt",
					"type": "uint256"
				},
				{
					"internalType": "uint256",
					"name": "mdao",
					"type": "uint256"
				},
				{
					"internalType": "uint256",
					"name": "startTime",
					"type": "uint256"
				},
				{
					"internalType": "uint256",
					"name": "endTime",
					"type": "uint256"
				},
				{
					"internalType": "uint256",
					"name": "difficulty",
					"type": "uint256"
				},
				{
					"internalType": "uint256",
					"name": "pendingAmount",
					"type": "uint256"
				},
				{
					"internalType": "uint256",
					"name": "lastLockId",
					"type": "uint256"
				},
				{
					"internalType": "bool",
					"name": "inFarm",
					"type": "bool"
				},
				{
					"internalType": "bool",
					"name": "isUnClaim",
					"type": "bool"
				},
				{
					"internalType": "uint256",
					"name": "exitPercent",
					"type": "uint256"
				}
			],
			"stateMutability": "view",
			"type": "function"
		}
	]
}