{
  "contractName": "HeroFarm",
  "abi": [
    {
      "inputs": [
        {
          "internalType": "contract IRichHero",
          "name": "_hero",
          "type": "address"
        },
        {
          "internalType": "address",
          "name": "_invite",
          "type": "address"
        },
        {
          "internalType": "contract IERC20",
          "name": "_erc20",
          "type": "address"
        },
        {
          "internalType": "uint256",
          "name": "_rewardPerBlock",
          "type": "uint256"
        },
        {
          "internalType": "uint256",
          "name": "_startBlock",
          "type": "uint256"
        }
      ],
      "stateMutability": "nonpayable",
      "type": "constructor"
    },
    {
      "anonymous": false,
      "inputs": [
        {
          "indexed": true,
          "internalType": "address",
          "name": "user",
          "type": "address"
        },
        {
          "indexed": false,
          "internalType": "uint256",
          "name": "amount",
          "type": "uint256"
        }
      ],
      "name": "Deposit",
      "type": "event"
    },
    {
      "anonymous": false,
      "inputs": [
        {
          "indexed": true,
          "internalType": "address",
          "name": "user",
          "type": "address"
        },
        {
          "indexed": false,
          "internalType": "uint256",
          "name": "amount",
          "type": "uint256"
        }
      ],
      "name": "EmergencyWithdraw",
      "type": "event"
    },
    {
      "anonymous": false,
      "inputs": [
        {
          "indexed": false,
          "internalType": "address",
          "name": "buyer",
          "type": "address"
        },
        {
          "indexed": false,
          "internalType": "address",
          "name": "inviter",
          "type": "address"
        },
        {
          "indexed": false,
          "internalType": "uint256",
          "name": "generation",
          "type": "uint256"
        },
        {
          "indexed": false,
          "internalType": "uint256",
          "name": "amount",
          "type": "uint256"
        }
      ],
      "name": "InviterClaim",
      "type": "event"
    },
    {
      "anonymous": false,
      "inputs": [
        {
          "indexed": true,
          "internalType": "address",
          "name": "previousOwner",
          "type": "address"
        },
        {
          "indexed": true,
          "internalType": "address",
          "name": "newOwner",
          "type": "address"
        }
      ],
      "name": "OwnershipTransferred",
      "type": "event"
    },
    {
      "anonymous": false,
      "inputs": [
        {
          "indexed": true,
          "internalType": "address",
          "name": "user",
          "type": "address"
        },
        {
          "indexed": false,
          "internalType": "uint256",
          "name": "amount",
          "type": "uint256"
        }
      ],
      "name": "Withdraw",
      "type": "event"
    },
    {
      "inputs": [],
      "name": "endBlock",
      "outputs": [
        {
          "internalType": "uint256",
          "name": "",
          "type": "uint256"
        }
      ],
      "stateMutability": "view",
      "type": "function"
    },
    {
      "inputs": [],
      "name": "erc20",
      "outputs": [
        {
          "internalType": "contract IERC20",
          "name": "",
          "type": "address"
        }
      ],
      "stateMutability": "view",
      "type": "function"
    },
    {
      "inputs": [
        {
          "internalType": "uint256",
          "name": "",
          "type": "uint256"
        }
      ],
      "name": "form1InviteAward",
      "outputs": [
        {
          "internalType": "uint256",
          "name": "",
          "type": "uint256"
        }
      ],
      "stateMutability": "view",
      "type": "function"
    },
    {
      "inputs": [
        {
          "internalType": "uint256",
          "name": "",
          "type": "uint256"
        }
      ],
      "name": "form2InviteAward",
      "outputs": [
        {
          "internalType": "uint256",
          "name": "",
          "type": "uint256"
        }
      ],
      "stateMutability": "view",
      "type": "function"
    },
    {
      "inputs": [],
      "name": "hero",
      "outputs": [
        {
          "internalType": "contract IRichHero",
          "name": "",
          "type": "address"
        }
      ],
      "stateMutability": "view",
      "type": "function"
    },
    {
      "inputs": [],
      "name": "inviterContract",
      "outputs": [
        {
          "internalType": "contract Invite",
          "name": "",
          "type": "address"
        }
      ],
      "stateMutability": "view",
      "type": "function"
    },
    {
      "inputs": [
        {
          "internalType": "address",
          "name": "",
          "type": "address"
        },
        {
          "internalType": "uint256",
          "name": "",
          "type": "uint256"
        }
      ],
      "name": "lockInfo",
      "outputs": [
        {
          "internalType": "uint256",
          "name": "claimStartTime",
          "type": "uint256"
        },
        {
          "internalType": "uint256",
          "name": "rewardAmount",
          "type": "uint256"
        },
        {
          "internalType": "uint256",
          "name": "claimedAmount",
          "type": "uint256"
        }
      ],
      "stateMutability": "view",
      "type": "function"
    },
    {
      "inputs": [],
      "name": "owner",
      "outputs": [
        {
          "internalType": "address",
          "name": "",
          "type": "address"
        }
      ],
      "stateMutability": "view",
      "type": "function"
    },
    {
      "inputs": [],
      "name": "paidOut",
      "outputs": [
        {
          "internalType": "uint256",
          "name": "",
          "type": "uint256"
        }
      ],
      "stateMutability": "view",
      "type": "function"
    },
    {
      "inputs": [],
      "name": "poolInfo",
      "outputs": [
        {
          "internalType": "uint256",
          "name": "lastRewardBlock",
          "type": "uint256"
        },
        {
          "internalType": "uint256",
          "name": "accPowerPerShare",
          "type": "uint256"
        }
      ],
      "stateMutability": "view",
      "type": "function"
    },
    {
      "inputs": [],
      "name": "renounceOwnership",
      "outputs": [],
      "stateMutability": "nonpayable",
      "type": "function"
    },
    {
      "inputs": [],
      "name": "rewardPerBlock",
      "outputs": [
        {
          "internalType": "uint256",
          "name": "",
          "type": "uint256"
        }
      ],
      "stateMutability": "view",
      "type": "function"
    },
    {
      "inputs": [],
      "name": "startBlock",
      "outputs": [
        {
          "internalType": "uint256",
          "name": "",
          "type": "uint256"
        }
      ],
      "stateMutability": "view",
      "type": "function"
    },
    {
      "inputs": [],
      "name": "totalAllocPoint",
      "outputs": [
        {
          "internalType": "uint256",
          "name": "",
          "type": "uint256"
        }
      ],
      "stateMutability": "view",
      "type": "function"
    },
    {
      "inputs": [],
      "name": "totalPowers",
      "outputs": [
        {
          "internalType": "uint256",
          "name": "",
          "type": "uint256"
        }
      ],
      "stateMutability": "view",
      "type": "function"
    },
    {
      "inputs": [
        {
          "internalType": "address",
          "name": "newOwner",
          "type": "address"
        }
      ],
      "name": "transferOwnership",
      "outputs": [],
      "stateMutability": "nonpayable",
      "type": "function"
    },
    {
      "inputs": [
        {
          "internalType": "address",
          "name": "",
          "type": "address"
        }
      ],
      "name": "userInfo",
      "outputs": [
        {
          "internalType": "uint256",
          "name": "goldens",
          "type": "uint256"
        },
        {
          "internalType": "uint256",
          "name": "realPower",
          "type": "uint256"
        },
        {
          "internalType": "uint256",
          "name": "buffedPower",
          "type": "uint256"
        },
        {
          "internalType": "uint256",
          "name": "rewardDebt",
          "type": "uint256"
        },
        {
          "internalType": "uint256",
          "name": "mdao",
          "type": "uint256"
        },
        {
          "internalType": "uint256",
          "name": "startTime",
          "type": "uint256"
        },
        {
          "internalType": "uint256",
          "name": "endTime",
          "type": "uint256"
        },
        {
          "internalType": "uint256",
          "name": "difficulty",
          "type": "uint256"
        },
        {
          "internalType": "uint256",
          "name": "pendingAmount",
          "type": "uint256"
        },
        {
          "internalType": "uint256",
          "name": "lastLockId",
          "type": "uint256"
        },
        {
          "internalType": "bool",
          "name": "inFarm",
          "type": "bool"
        },
        {
          "internalType": "bool",
          "name": "isUnClaim",
          "type": "bool"
        },
        {
          "internalType": "uint256",
          "name": "exitPercent",
          "type": "uint256"
        },
        {
          "internalType": "uint256",
          "name": "inviteReward",
          "type": "uint256"
        }
      ],
      "stateMutability": "view",
      "type": "function"
    },
    {
      "inputs": [
        {
          "internalType": "address",
          "name": "_user",
          "type": "address"
        }
      ],
      "name": "pending",
      "outputs": [
        {
          "internalType": "uint256",
          "name": "",
          "type": "uint256"
        }
      ],
      "stateMutability": "view",
      "type": "function"
    },
    {
      "inputs": [
        {
          "internalType": "address",
          "name": "token",
          "type": "address"
        }
      ],
      "name": "emergencyWithdraw",
      "outputs": [],
      "stateMutability": "nonpayable",
      "type": "function"
    },
    {
      "inputs": [],
      "name": "totalPending",
      "outputs": [
        {
          "internalType": "uint256",
          "name": "",
          "type": "uint256"
        }
      ],
      "stateMutability": "view",
      "type": "function"
    },
    {
      "inputs": [],
      "name": "updatePool",
      "outputs": [],
      "stateMutability": "nonpayable",
      "type": "function"
    },
    {
      "inputs": [
        {
          "internalType": "uint256[]",
          "name": "_tokenIds",
          "type": "uint256[]"
        },
        {
          "internalType": "uint8",
          "name": "difficulty",
          "type": "uint8"
        }
      ],
      "name": "deposit",
      "outputs": [],
      "stateMutability": "nonpayable",
      "type": "function"
    },
    {
      "inputs": [],
      "name": "depositMdao",
      "outputs": [],
      "stateMutability": "nonpayable",
      "type": "function"
    },
    {
      "inputs": [
        {
          "internalType": "address",
          "name": "_user",
          "type": "address"
        }
      ],
      "name": "canDepositMdao",
      "outputs": [
        {
          "internalType": "uint256",
          "name": "",
          "type": "uint256"
        }
      ],
      "stateMutability": "view",
      "type": "function"
    },
    {
      "inputs": [],
      "name": "claimHero",
      "outputs": [],
      "stateMutability": "nonpayable",
      "type": "function"
    },
    {
      "inputs": [
        {
          "internalType": "bool",
          "name": "isLockClaim",
          "type": "bool"
        }
      ],
      "name": "decideClaimForm",
      "outputs": [],
      "stateMutability": "nonpayable",
      "type": "function"
    },
    {
      "inputs": [
        {
          "internalType": "address",
          "name": "user",
          "type": "address"
        }
      ],
      "name": "getUserInfo",
      "outputs": [
        {
          "components": [
            {
              "internalType": "uint256",
              "name": "goldens",
              "type": "uint256"
            },
            {
              "internalType": "uint256",
              "name": "realPower",
              "type": "uint256"
            },
            {
              "internalType": "uint256",
              "name": "buffedPower",
              "type": "uint256"
            },
            {
              "internalType": "uint256",
              "name": "rewardDebt",
              "type": "uint256"
            },
            {
              "internalType": "uint256",
              "name": "mdao",
              "type": "uint256"
            },
            {
              "internalType": "uint256[]",
              "name": "tokenIds",
              "type": "uint256[]"
            },
            {
              "internalType": "uint256",
              "name": "startTime",
              "type": "uint256"
            },
            {
              "internalType": "uint256",
              "name": "endTime",
              "type": "uint256"
            },
            {
              "internalType": "uint256",
              "name": "difficulty",
              "type": "uint256"
            },
            {
              "internalType": "uint256",
              "name": "pendingAmount",
              "type": "uint256"
            },
            {
              "internalType": "uint256",
              "name": "lastLockId",
              "type": "uint256"
            },
            {
              "internalType": "bool",
              "name": "inFarm",
              "type": "bool"
            },
            {
              "internalType": "bool",
              "name": "isUnClaim",
              "type": "bool"
            },
            {
              "internalType": "uint256",
              "name": "exitPercent",
              "type": "uint256"
            },
            {
              "internalType": "uint256",
              "name": "inviteReward",
              "type": "uint256"
            }
          ],
          "internalType": "struct HeroFarm.UserInfo",
          "name": "",
          "type": "tuple"
        }
      ],
      "stateMutability": "view",
      "type": "function"
    },
    {
      "inputs": [
        {
          "internalType": "address",
          "name": "user",
          "type": "address"
        }
      ],
      "name": "canRelease",
      "outputs": [
        {
          "internalType": "bool",
          "name": "release",
          "type": "bool"
        }
      ],
      "stateMutability": "view",
      "type": "function"
    },
    {
      "inputs": [
        {
          "internalType": "uint256",
          "name": "lockId",
          "type": "uint256"
        }
      ],
      "name": "lockRewardWithdraw",
      "outputs": [],
      "stateMutability": "nonpayable",
      "type": "function"
    },
    {
      "inputs": [
        {
          "internalType": "address",
          "name": "user",
          "type": "address"
        }
      ],
      "name": "lockInfos",
      "outputs": [
        {
          "components": [
            {
              "internalType": "uint256",
              "name": "claimStartTime",
              "type": "uint256"
            },
            {
              "internalType": "uint256",
              "name": "rewardAmount",
              "type": "uint256"
            },
            {
              "internalType": "uint256",
              "name": "claimedAmount",
              "type": "uint256"
            }
          ],
          "internalType": "struct HeroFarm.LockInfo[]",
          "name": "locks",
          "type": "tuple[]"
        }
      ],
      "stateMutability": "view",
      "type": "function"
    },
    {
      "inputs": [
        {
          "internalType": "uint256",
          "name": "power",
          "type": "uint256"
        }
      ],
      "name": "APYPercent",
      "outputs": [
        {
          "internalType": "uint256",
          "name": "apy",
          "type": "uint256"
        }
      ],
      "stateMutability": "view",
      "type": "function"
    }
  ],
  "bytecode": "0x600060025560e060405260076080908152600e60a052601e60c0526200002a906008906003620001cd565b5060408051606081018252600181526003602082018190526005928201929092526200005a9160099190620001cd565b506000600a5560408051606081018252600681526003602082018190526001928201929092526200008f916010919062000286565b5060408051606081018252601e8152600f6020820152600591810191909152620000be90601190600362000286565b50348015620000cc57600080fd5b50604051620029bf380380620029bf833981016040819052620000ef91620002f9565b620000fa336200017d565b600e80546001600160a01b038088166001600160a01b03199283161790925560018054868416908316179055600f8054928716929091169190911790556003829055600b81905562000150816276a7006200035e565b600c5550506040805180820190915243808252600060209092018290526004556005555062000385915050565b600080546001600160a01b038381166001600160a01b0319831681178455604051919092169283917f8be0079c531659141344cd1fd0a4f28419497f9722a3daafe3b4186f6b6457e09190a35050565b82805482825590600052602060002090600301600490048101928215620002745791602002820160005b838211156200023d57835183826101000a8154816001600160401b03021916908360ff1602179055509260200192600801602081600701049283019260010302620001f7565b8015620002725782816101000a8154906001600160401b0302191690556008016020816007010492830192600103026200023d565b505b5062000282929150620002c9565b5090565b82805482825590600052602060002090810192821562000274579160200282015b8281111562000274578251829060ff16905591602001919060010190620002a7565b5b80821115620002825760008155600101620002ca565b6001600160a01b0381168114620002f657600080fd5b50565b600080600080600060a086880312156200031257600080fd5b85516200031f81620002e0565b60208701519095506200033281620002e0565b60408701519094506200034581620002e0565b6060870151608090970151959894975095949392505050565b600082198211156200038057634e487b7160e01b600052601160045260246000fd5b500190565b61262a80620003956000396000f3fe608060405234801561001057600080fd5b50600436106101a55760003560e01c80636386c1c7116100ef5780638da5cb5b116100925780638da5cb5b146104395780639f608da314610441578063acff05b014610454578063b2520a7c14610467578063c91b46c6146104bc578063d4796ef2146104c4578063e3161ddd146104d7578063f2fde38b146104df57600080fd5b80636386c1c7146103a35780636917c501146103c35780636dfe789a146103cc5780636ff1c9bc146103ef578063715018a614610402578063785e9e861461040a5780637f513d5d1461041d5780638ae39cac1461043057600080fd5b80633f90916a116101575780633f90916a1461030057806341d189f21461030857806347646b9e1461032857806348cd4cb1146103485780635a2f3d09146103515780635c76ca2d146103745780635eebea201461037d57806360343cae1461039057600080fd5b8063083c6323146101aa5780630af72c69146101c657806310b43acf146101db57806317caf6f1146101ee5780631959a002146101f757806339307b54146102e55780633bddf74e146102f8575b600080fd5b6101b3600c5481565b6040519081526020015b60405180910390f35b6101d96101d4366004611fbb565b6104f2565b005b6101b36101e9366004612072565b61097b565b6101b3600a5481565b6102796102053660046120a0565b60066020819052600091825260409091208054600182015460028301546003840154600485015495850154600786015460088701546009880154600a890154600b8a0154600c8b0154600d909b0154999b989a97999698979596949593949293919260ff808316936101009093041691908e565b604080519e8f5260208f019d909d529b8d019a909a5260608c019890985260808b019690965260a08a019490945260c089019290925260e0880152610100870152610120860152151561014085015215156101608401526101808301526101a08201526101c0016101bd565b6101b36102f33660046120a0565b61099c565b6101d96109e0565b6101b3610c12565b61031b6103163660046120a0565b610c68565b6040516101bd91906120bd565b600f5461033b906001600160a01b031681565b6040516101bd9190612116565b6101b3600b5481565b60045460055461035f919082565b604080519283526020830191909152016101bd565b6101b360025481565b6101b361038b3660046120a0565b610d0f565b6101b361039e366004612072565b610ddb565b6103b66103b13660046120a0565b610deb565b6040516101bd9190612165565b6101b3600d5481565b6103df6103da3660046120a0565b610f7c565b60405190151581526020016101bd565b6101d96103fd3660046120a0565b6110cd565b6101d9611202565b60015461033b906001600160a01b031681565b600e5461033b906001600160a01b031681565b6101b360035481565b61033b61123d565b6101d961044f36600461224e565b61124c565b6101d9610462366004612072565b611591565b6104a161047536600461226b565b600760209081526000928352604080842090915290825290208054600182015460029092015490919083565b604080519384526020840192909252908201526060016101bd565b6101d9611844565b6101b36104d2366004612072565b611c3b565b6101d9611c9d565b6101d96104ed3660046120a0565b611d1e565b336000908152600660205260409020600b81015460049190610100900460ff161561051c57600080fd5b600b81015460ff16156105d65780600801548360ff161461053c57600080fd5b42600882600801548154811061055457610554612297565b90600052602060002090600491828204019190066008029054906101000a90046001600160401b03166001600160401b0316826006015461059591906122c3565b106105d15760405162461bcd60e51b8152602060048201526007602482015266115e1c1a5c995960ca1b60448201526064015b60405180910390fd5b61066f565b60038360ff16106105e657600080fd5b600b8101805460ff1916600117905560ff831660088083018290554260068401558054909190811061061a5761061a612297565b90600052602060002090600491828204019190066008029054906101000a90046001600160401b03166201518061065191906122db565b6001600160401b0316816006015461066991906122c3565b60078201555b60008060005b865181101561081e57600e5487516000916001600160a01b0316906321d80111908a90859081106106a8576106a8612297565b60200260200101516040518263ffffffff1660e01b81526004016106ce91815260200190565b6102206040518083038186803b1580156106e757600080fd5b505afa1580156106fb573d6000803e3d6000fd5b505050506040513d601f19601f8201168201806040525081019061071f91906123a0565b90508061016001518461073291906122c3565b600e5489519195506001600160a01b0316906323b872dd90339030908c908790811061076057610760612297565b60200260200101516040518463ffffffff1660e01b815260040161078693929190612493565b600060405180830381600087803b1580156107a057600080fd5b505af11580156107b4573d6000803e3d6000fd5b50505050806060015160ff16600414156107d657826107d2816124b7565b9350505b846005018883815181106107ec576107ec612297565b602090810291909101810151825460018101845560009384529190922001555080610816816124b7565b915050610675565b508183600101600082825461083391906122c3565b909155505082548190849060009061084c9084906122c3565b9091555050825460009060649061086490600a6124d2565b61086f9060646122c3565b856001015461087e91906124d2565b61088891906124f1565b600285018190559050610899611c9d565b80600d60008282546108ab91906122c3565b9091555050600284015415610910576000846003015468056bc75e2d63100000876001015487600201546108df91906124d2565b6108e991906124f1565b6108f39190612513565b90508085600901600082825461090991906122c3565b9091555050505b68056bc75e2d631000008560010154856002015461092e91906124d2565b61093891906124f1565b600385015560405183815233907fe1fffcc4923d04b559f4d29a8bfc6cda04eb5b0d3c460751c2402c5c5cc9109c9060200160405180910390a250505050505050565b6011818154811061098b57600080fd5b600091825260209091200154905081565b6001600160a01b0381166000908152600660205260408120600481015460018201546109cf9066038d7ea4c680006124d2565b6109d99190612513565b9392505050565b336000908152600660205260409020600b8101546004919060ff16610a0457600080fd5b6001810154610a1a9066038d7ea4c680006124d2565b816004015410610a2957600080fd5b600180546004830154918301546001600160a01b03909116916323b872dd9133913091610a5d9066038d7ea4c680006124d2565b610a679190612513565b6040518463ffffffff1660e01b8152600401610a8593929190612493565b602060405180830381600087803b158015610a9f57600080fd5b505af1158015610ab3573d6000803e3d6000fd5b505050506040513d601f19601f82011682018060405250810190610ad7919061252a565b50610ae0611c9d565b8054600090606490610af390600a6124d2565b610afe9060646122c3565b610b0990600a6122c3565b8360010154610b1891906124d2565b610b2291906124f1565b600283015490915015610b85576000826003015468056bc75e2d6310000085600101548560020154610b5491906124d2565b610b5e91906124f1565b610b689190612513565b905080836009016000828254610b7e91906122c3565b9091555050505b68056bc75e2d6310000083600101548360020154610ba391906124d2565b610bad91906124f1565b60038301556002820154600d8054600090610bc9908490612513565b909155505060028201819055600d8054829190600090610bea9084906122c3565b90915550506001820154610c059066038d7ea4c680006124d2565b8260040181905550505050565b6000600b544311610c235750600090565b6000600c544310610c3657600c54610c38565b435b9050600254600b5482610c4b9190612513565b600354610c5891906124d2565b610c629190612513565b91505090565b606060005b6001600160a01b0383166000908152600660205260409020600a0154811015610d09576001600160a01b038316600090815260076020908152604080832084845282529182902082516060810184528154815260018201549281019290925260020154918101919091528251839083908110610ceb57610ceb612297565b60200260200101819052508080610d01906124b7565b915050610c6d565b50919050565b6001600160a01b0381166000908152600660205260408120600554600480549092919043118015610d415750600d5415155b15610d9f576000600c544310610d5957600c54610d5b565b435b90506000610d6d856000015483611dbe565b600d54909150610d868268056bc75e2d631000006124d2565b610d9091906124f1565b610d9a90846122c3565b925050505b816003015468056bc75e2d63100000828460020154610dbe91906124d2565b610dc891906124f1565b610dd29190612513565b95945050505050565b6010818154811061098b57600080fd5b610e68604051806101e00160405280600081526020016000815260200160008152602001600081526020016000815260200160608152602001600081526020016000815260200160008152602001600081526020016000815260200160001515815260200160001515815260200160008152602001600081525090565b6001600160a01b03821660009081526006602090815260409182902082516101e0810184528154815260018201548184015260028201548185015260038201546060820152600482015460808201526005820180548551818602810186019096528086529194929360a08601939290830182828015610f0657602002820191906000526020600020905b815481526020019060010190808311610ef2575b505050918352505060068201546020820152600782015460408201526008820154606082015260098201546080820152600a82015460a0820152600b82015460ff808216151560c08401526101009182900416151560e0830152600c83015490820152600d909101546101209091015292915050565b6001600160a01b038116600090815260066020908152604080832081516101e0810183528154815260018201548185015260028201548184015260038201546060820152600482015460808201526005820180548451818702810187019095528085528695929460a08601939092919083018282801561101b57602002820191906000526020600020905b815481526020019060010190808311611007575b505050918352505060068201546020820152600782015460408201526008820154606082015260098201546080820152600a82015460a0820152600b82015460ff808216151560c08401526101009182900416151560e0830152600c83015490820152600d90910154610120909101526101608101519091506110a15750600092915050565b6000620151808260c00151426110b79190612513565b6110c191906124f1565b60011115949350505050565b336110d661123d565b6001600160a01b0316146110fc5760405162461bcd60e51b81526004016105c890612547565b806001600160a01b031663a9059cbb61111361123d565b6040516370a0823160e01b81526001600160a01b038516906370a082319061113f903090600401612116565b60206040518083038186803b15801561115757600080fd5b505afa15801561116b573d6000803e3d6000fd5b505050506040513d601f19601f8201168201806040525081019061118f919061257c565b6040518363ffffffff1660e01b81526004016111ac929190612595565b602060405180830381600087803b1580156111c657600080fd5b505af11580156111da573d6000803e3d6000fd5b505050506040513d601f19601f820116820180604052508101906111fe919061252a565b5050565b3361120b61123d565b6001600160a01b0316146112315760405162461bcd60e51b81526004016105c890612547565b61123b6000611ddd565b565b6000546001600160a01b031690565b336000908152600660205260409020600b810154610100900460ff1661127157600080fd5b600b8101805461ff0019169055816114ee576112c23360648084600c0154856009015461129e91906124d2565b6112a891906124f1565b6112b39060506124d2565b6112bd91906124f1565b611e2d565b3360005b600f60009054906101000a90046001600160a01b03166001600160a01b031663f842d40b6040518163ffffffff1660e01b815260040160206040518083038186803b15801561131457600080fd5b505afa158015611328573d6000803e3d6000fd5b505050506040513d601f19601f8201168201806040525081019061134c919061257c565b8110156114e757600f54604051631b43f31160e31b81526001600160a01b039091169063da1f988890611383908590600401612116565b60206040518083038186803b15801561139b57600080fd5b505afa1580156113af573d6000803e3d6000fd5b505050506040513d601f19601f820116820180604052508101906113d391906125ae565b91506001600160a01b038216156114d0576000601082815481106113f9576113f9612297565b9060005260206000200154905060006103e882606487600c0154886009015461142291906124d2565b61142c91906124f1565b61143691906124d2565b61144091906124f1565b6001600160a01b0385166000908152600660205260408120600d8101805493945090928492906114719084906122c3565b9091555061148190508583611e2d565b7f061f9efc09a7e2bff53abe4fcf2714bb516b14ce6b8893742cc587de5cd8807933866114af8760016122c3565b856040516114c094939291906125cb565b60405180910390a15050506114d5565b6114e7565b806114df816124b7565b9150506112c6565b505061157f565b336000908152600760209081526040808320600a85015484529091529020429055600c8101546009820154606491829161152891906124d2565b61153291906124f1565b61153d9060736124d2565b61154791906124f1565b336000908152600760209081526040808320600a860180548552925282206001019290925581549190611579836124b7565b91905055505b60006009820181905560039091015550565b336000908152600760209081526040808320848452909152902060018101546115b957600080fd5b6001810154815460009162278d00916115d29042612513565b6115dc91906124d2565b6115e691906124f1565b905081600101548111156115fb575060018101545b600082600201548261160d9190612513565b90506116203360646112b384605f6124d2565b8083600201600082825461163491906122c3565b9091555033905060005b600f60009054906101000a90046001600160a01b03166001600160a01b031663f842d40b6040518163ffffffff1660e01b815260040160206040518083038186803b15801561168c57600080fd5b505afa1580156116a0573d6000803e3d6000fd5b505050506040513d601f19601f820116820180604052508101906116c4919061257c565b81101561183c57600f54604051631b43f31160e31b81526001600160a01b039091169063da1f9888906116fb908590600401612116565b60206040518083038186803b15801561171357600080fd5b505afa158015611727573d6000803e3d6000fd5b505050506040513d601f19601f8201168201806040525081019061174b91906125ae565b91506001600160a01b038216156118255760006011828154811061177157611771612297565b600091825260208220015491506103e861178b83876124d2565b61179591906124f1565b6001600160a01b0385166000908152600660205260408120600d8101805493945090928492906117c69084906122c3565b909155506117d690508583611e2d565b7f061f9efc09a7e2bff53abe4fcf2714bb516b14ce6b8893742cc587de5cd8807933866118048760016122c3565b8560405161181594939291906125cb565b60405180910390a150505061182a565b61183c565b80611834816124b7565b91505061163e565b505050505050565b336000908152600660205260409020600b8101546004919060ff166118be5760405162461bcd60e51b815260206004820152602a60248201527f77697468647261773a2063616e2774207769746864726177206d6f7265207468604482015269185b8819195c1bdcda5d60b21b60648201526084016105c8565b6118c6611c9d565b8060020154600d60008282546118dc9190612513565b925050819055506000816003015468056bc75e2d631000008460010154846002015461190891906124d2565b61191291906124f1565b61191c9190612513565b90508082600901600082825461193291906122c3565b90915550506001830154600283015468056bc75e2d6310000091611955916124d2565b61195f91906124f1565b600383015560005b6005830154811015611a1157600e546005840180546001600160a01b03909216916323b872dd913091339190869081106119a3576119a3612297565b90600052602060002001546040518463ffffffff1660e01b81526004016119cc93929190612493565b600060405180830381600087803b1580156119e657600080fd5b505af11580156119fa573d6000803e3d6000fd5b505050508080611a09906124b7565b915050611967565b5081600701544210611a29576064600c830155611b67565b600062015180836006015442611a3f9190612513565b611a4991906124f1565b90506001811015611a5957600080fd5b6008830154611a8257611a6d81600a6124d2565b611a7890601e6122c3565b600c840155611b65565b826008015460011415611af657806001108015611aa0575060048111155b15611ab157601e600c840155611b65565b806004108015611ac2575060088111155b15611ad357603c600c840155611b65565b806008108015611ae45750600d8111155b15611af1576050600c8401555b611b65565b826008015460021415611b6557806001108015611b145750600a8111155b15611b2557601e600c840155611b65565b80600a108015611b36575060148111155b15611b4757603c600c840155611b65565b806014108015611b585750601d8111155b15611b65576050600c8401555b505b60048083018054600090915560015460405163a9059cbb60e01b815291926001600160a01b039091169163a9059cbb91611ba5913391869101612595565b602060405180830381600087803b158015611bbf57600080fd5b505af1158015611bd3573d6000803e3d6000fd5b505050506040513d601f19601f82011682018060405250810190611bf7919061252a565b506040805160008152602081019182905251611c17916005860191611ecd565b5050600060018301819055600283015550600b01805461ffff191661010017905550565b6000600d5460001415611c515750612710919050565b81611c6257670de0b6b3a764000091505b6103e8600d5460035484611c7691906124d2565b611c83906276a7006124d2565b611c8d91906124f1565b611c9791906124f1565b92915050565b600c546004906000904310611cb457600c54611cb6565b435b82549091508111611cc5575050565b600d54611cd0579055565b6000611ce0836000015483611dbe565b600d54909150611cf98268056bc75e2d631000006124d2565b611d0391906124f1565b8360010154611d1291906122c3565b60018401555050439055565b33611d2761123d565b6001600160a01b031614611d4d5760405162461bcd60e51b81526004016105c890612547565b6001600160a01b038116611db25760405162461bcd60e51b815260206004820152602660248201527f4f776e61626c653a206e6577206f776e657220697320746865207a65726f206160448201526564647265737360d01b60648201526084016105c8565b611dbb81611ddd565b50565b600080611dcb8484612513565b9050600060035482610dd291906124d2565b600080546001600160a01b038381166001600160a01b0319831681178455604051919092169283917f8be0079c531659141344cd1fd0a4f28419497f9722a3daafe3b4186f6b6457e09190a35050565b60015460405163a9059cbb60e01b81526001600160a01b039091169063a9059cbb90611e5f9085908590600401612595565b602060405180830381600087803b158015611e7957600080fd5b505af1158015611e8d573d6000803e3d6000fd5b505050506040513d601f19601f82011682018060405250810190611eb1919061252a565b508060026000828254611ec491906122c3565b90915550505050565b828054828255906000526020600020908101928215611f08579160200282015b82811115611f08578251825591602001919060010190611eed565b50611f14929150611f18565b5090565b5b80821115611f145760008155600101611f19565b634e487b7160e01b600052604160045260246000fd5b6040516101a081016001600160401b0381118282101715611f6657611f66611f2d565b60405290565b604051601f8201601f191681016001600160401b0381118282101715611f9457611f94611f2d565b604052919050565b60ff81168114611dbb57600080fd5b8035611fb681611f9c565b919050565b60008060408385031215611fce57600080fd5b82356001600160401b0380821115611fe557600080fd5b818501915085601f830112611ff957600080fd5b813560208282111561200d5761200d611f2d565b8160051b925061201e818401611f6c565b828152928401810192818101908985111561203857600080fd5b948201945b848610156120565785358252948201949082019061203d565b96506120659050878201611fab565b9450505050509250929050565b60006020828403121561208457600080fd5b5035919050565b6001600160a01b0381168114611dbb57600080fd5b6000602082840312156120b257600080fd5b81356109d98161208b565b602080825282518282018190526000919060409081850190868401855b8281101561210957815180518552868101518786015285015185850152606090930192908501906001016120da565b5091979650505050505050565b6001600160a01b0391909116815260200190565b600081518084526020808501945080840160005b8381101561215a5781518752958201959082019060010161213e565b509495945050505050565b6020815281516020820152602082015160408201526040820151606082015260608201516080820152608082015160a0820152600060a08301516101e08060c08501526121b661020085018361212a565b60c086015160e0868101919091528601516101008087019190915286015161012080870191909152860151610140808701919091528601516101608087019190915286015190925061018061220e8187018315159052565b86015190506101a06122238682018315159052565b8601516101c0868101919091529095015193019290925250919050565b8015158114611dbb57600080fd5b60006020828403121561226057600080fd5b81356109d981612240565b6000806040838503121561227e57600080fd5b82356122898161208b565b946020939093013593505050565b634e487b7160e01b600052603260045260246000fd5b634e487b7160e01b600052601160045260246000fd5b600082198211156122d6576122d66122ad565b500190565b60006001600160401b0380831681851681830481118215151615612301576123016122ad565b02949350505050565b8051611fb681611f9c565b80516001600160401b0381168114611fb657600080fd5b600082601f83011261233d57600080fd5b60405160a081018181106001600160401b038211171561235f5761235f611f2d565b6040528060a084018581111561237457600080fd5b845b818110156123955761238781612315565b835260209283019201612376565b509195945050505050565b600061022082840312156123b357600080fd5b6123bb611f43565b825181526123cb6020840161230a565b60208201526123dc6040840161230a565b60408201526123ed6060840161230a565b60608201526123fe6080840161230a565b608082015261240f60a0840161230a565b60a082015261242060c0840161230a565b60c082015261243160e0840161230a565b60e0820152610100612444818501612315565b90820152610120612456848201612315565b908201526101406124698585830161232c565b908201526101e0830151610160820152612486610200840161230a565b6101808201529392505050565b6001600160a01b039384168152919092166020820152604081019190915260600190565b60006000198214156124cb576124cb6122ad565b5060010190565b60008160001904831182151516156124ec576124ec6122ad565b500290565b60008261250e57634e487b7160e01b600052601260045260246000fd5b500490565b600082821015612525576125256122ad565b500390565b60006020828403121561253c57600080fd5b81516109d981612240565b6020808252818101527f4f776e61626c653a2063616c6c6572206973206e6f7420746865206f776e6572604082015260600190565b60006020828403121561258e57600080fd5b5051919050565b6001600160a01b03929092168252602082015260400190565b6000602082840312156125c057600080fd5b81516109d98161208b565b6001600160a01b039485168152929093166020830152604082015260608101919091526080019056fea2646970667358221220fe3683dd0812eee42e8644320158191e892a6e2ade77499ab2ad4d43d55ecdf264736f6c63430008090033",
  "immutableReferences": {},
  "source": "// // SPDX-License-Identifier: MIT\npragma solidity ^0.8.0;\n\nimport \"./IRichHero.sol\";\nimport \"./Invite.sol\";\nimport \"@openzeppelin/contracts/token/ERC20/IERC20.sol\";\nimport \"@openzeppelin/contracts/access/Ownable.sol\";\n\n// Farm distributes the ERC20 rewards based on staked heroPower to each user.\n//\n// Cloned from https://github.com/SashimiProject/sashimiswap/blob/master/contracts/MasterChef.sol\n// Modified by ERC20 to work for non-mintable ERC20.\ncontract HeroFarm is Ownable {\n    // Info of each user.\n    struct UserInfo {\n        uint256 goldens;\n        uint256 realPower;\n        uint256 buffedPower; // How many power the user has provided.\n        uint256 rewardDebt; // Reward debt. See explanation below.\n        uint256 mdao; //Deposited mdao\n        uint256[] tokenIds; //Deposited hero\n        uint256 startTime; //Start time\n        uint256 endTime; //End time\n        uint256 difficulty;\n        uint256 pendingAmount;\n        uint256 lastLockId;\n        bool inFarm;\n        bool isUnClaim;\n        uint256 exitPercent;\n        uint256 inviteReward;\n    }\n\n    struct LockInfo {\n        uint256 claimStartTime;\n        uint256 rewardAmount;\n        uint256 claimedAmount;\n    }\n\n    // Info of lp pool.\n    struct PoolInfo {\n        uint256 lastRewardBlock;    // Last block number that ERC20s distribution occurs.\n        uint256 accPowerPerShare;   // Accumulated ERC20s per share, times 1e36.\n    }\n\n    // Address of the ERC20 Token contract.\n    IERC20 public erc20;\n    // The total amount of ERC20 that's paid out as reward.\n    uint256 public paidOut = 0;\n    // ERC20 tokens rewarded per block.\n    uint256 public rewardPerBlock;\n\n    // Info of pool.\n    PoolInfo public poolInfo;\n    // Info of each user.\n    mapping (address => UserInfo) public userInfo;\n    mapping (address => mapping (uint256 => LockInfo)) public lockInfo;\n    // Staking Times\n    uint64[] difficultyTime = [7, 14, 30]; //0, 1, 2\n    // Staking Addition\n    uint64[] difficultyAddition = [1, 3, 5]; //1%, 3%, 5%\n    // Total Power\n    uint256 public totalAllocPoint = 0;\n    // The block number when farming starts.\n    uint256 public startBlock;\n    // The block number when farming ends.\n    uint256 public endBlock;\n    uint256 public totalPowers;\n    IRichHero public hero;\n    Invite public inviterContract;\n    uint256[] public form1InviteAward = [6, 3, 1];\n    uint256[] public form2InviteAward = [30, 15, 5];\n    event Deposit(address indexed user, uint256 amount);\n    event Withdraw(address indexed user, uint256 amount);\n    event EmergencyWithdraw(address indexed user, uint256 amount);\n    event InviterClaim(address buyer, address inviter, uint256 generation, uint256 amount);\n\n    constructor(IRichHero _hero, address _invite, IERC20 _erc20, uint256 _rewardPerBlock, uint256 _startBlock) {\n        hero = _hero;\n        erc20 = _erc20;\n        inviterContract = Invite(_invite);\n        rewardPerBlock = _rewardPerBlock;\n        startBlock = _startBlock;\n        endBlock = _startBlock + 7776000;\n        poolInfo = PoolInfo({\n            lastRewardBlock: block.number,\n            accPowerPerShare: 0\n        });\n    }\n\n    // View function to see pending ERC20s for a user.\n    function pending(address _user) external view returns (uint256) {\n        PoolInfo storage pool = poolInfo;\n        UserInfo storage user = userInfo[_user];\n        uint256 accPowerPerShare = pool.accPowerPerShare;\n        if (block.number > pool.lastRewardBlock && totalPowers != 0) {\n            uint256 lastBlock = block.number < endBlock ? block.number : endBlock;\n\n            uint256 erc20Rewards = computerReward(pool.lastRewardBlock, lastBlock);\n            accPowerPerShare = accPowerPerShare + (erc20Rewards * 1e20) / (totalPowers);\n        }\n        return user.buffedPower * (accPowerPerShare) / (1e20) - (user.rewardDebt);\n    }\n\n    function emergencyWithdraw(address token) public onlyOwner {\n        IERC20(token).transfer(owner(), IERC20(token).balanceOf(address(this)));\n    }\n\n    // View function for total reward the farm has yet to pay out.\n    function totalPending() external view returns (uint256) {\n        if (block.number <= startBlock) {\n            return 0;\n        }\n        uint256 lastBlock = block.number < endBlock ? block.number : endBlock;\n        return rewardPerBlock * (lastBlock - startBlock) - paidOut;\n    }\n\n    // Update reward variables of the given pool to be up-to-date.\n    function updatePool() public {\n        PoolInfo storage pool = poolInfo;\n        uint256 lastBlock = block.number < endBlock ? block.number : endBlock;\n\n        if (lastBlock <= pool.lastRewardBlock) {\n            return;\n        }\n        if (totalPowers == 0) {\n            pool.lastRewardBlock = lastBlock;\n            return;\n        }\n\n        uint256 erc20Rewards = computerReward(pool.lastRewardBlock, lastBlock);\n        pool.accPowerPerShare = pool.accPowerPerShare + (erc20Rewards * (1e20) / (totalPowers));\n        pool.lastRewardBlock = block.number;\n    }\n\n    // Deposit hero power to Farm for ERC20 allocation.\n    function deposit(uint256[] memory _tokenIds, uint8 difficulty) public {\n        PoolInfo storage pool = poolInfo;\n        UserInfo storage user = userInfo[msg.sender];\n        require(!user.isUnClaim);\n        if (user.inFarm) {\n            require(difficulty == user.difficulty);\n            require(user.startTime + difficultyTime[user.difficulty] < block.timestamp, \"Expired\");\n        } else {\n            require(difficulty < 3);\n            user.inFarm = true;\n            user.difficulty = difficulty;\n            user.startTime = block.timestamp;\n            user.endTime = user.startTime + difficultyTime[user.difficulty] * 86400;\n        }\n        uint256 power;\n        uint256 totalGolden;\n        for(uint256 i = 0; i < _tokenIds.length; i++) {\n            IRichHero.HeroDetail memory detail = hero.getHero(_tokenIds[i]);\n            power += detail.power;\n            hero.transferFrom(msg.sender, address(this), _tokenIds[i]);\n            if (detail.rarity == 4) {\n                totalGolden++;\n            }\n            user.tokenIds.push(_tokenIds[i]);\n        }\n        user.realPower += power;\n        user.goldens += totalGolden;\n        uint256 buffedPower = user.realPower * (100 + user.goldens * 10) / 100;\n        user.buffedPower = buffedPower;\n        updatePool();\n        totalPowers += buffedPower;\n        if (user.buffedPower > 0) {\n            uint256 pendingAmount = user.buffedPower * (pool.accPowerPerShare) / (1e20) - (user.rewardDebt);\n            // erc20Transfer(msg.sender, pendingAmount);\n            user.pendingAmount += pendingAmount;\n        }\n        user.rewardDebt = user.buffedPower * (pool.accPowerPerShare) / (1e20);\n        emit Deposit(msg.sender, power);\n    }\n\n    function depositMdao() public {\n        PoolInfo storage pool = poolInfo;\n        UserInfo storage user = userInfo[msg.sender];\n        require(user.inFarm);\n        require(user.mdao < user.realPower * 1e15);\n        erc20.transferFrom(msg.sender, address(this), user.realPower * 1e15 - user.mdao);\n        updatePool();\n        uint256 buffedPower = user.realPower * (100 + user.goldens * 10 + 10) / 100;\n        if (user.buffedPower > 0) {\n            uint256 pendingAmount = user.buffedPower * (pool.accPowerPerShare) / (1e20) - (user.rewardDebt);\n            // erc20Transfer(msg.sender, pendingAmount);\n            user.pendingAmount += pendingAmount;\n        }\n        user.rewardDebt = user.buffedPower * (pool.accPowerPerShare) / (1e20);\n        totalPowers -= user.buffedPower;\n        user.buffedPower = buffedPower;\n        totalPowers += buffedPower;\n        user.mdao = user.realPower * 1e15;\n    }\n\n    function canDepositMdao(address _user) public view returns (uint256) {\n        UserInfo storage user = userInfo[_user];\n        return (user.realPower * 1e15 - user.mdao);\n    }\n            \n    // Claim Heros tokens from Farm.\n    function claimHero() public {\n        PoolInfo storage pool = poolInfo;\n        UserInfo storage user = userInfo[msg.sender];\n        require(user.inFarm, \"withdraw: can't withdraw more than deposit\");\n        updatePool();\n        totalPowers -= user.buffedPower;\n        uint256 pendingAmount = user.buffedPower * pool.accPowerPerShare / (1e20) - (user.rewardDebt);\n        // erc20Transfer(msg.sender, pendingAmount);\n        user.pendingAmount += pendingAmount;\n        user.rewardDebt = user.buffedPower * (pool.accPowerPerShare) / (1e20);\n\n        for (uint256 i = 0; i < user.tokenIds.length; i++) {\n            hero.transferFrom(address(this), address(msg.sender), user.tokenIds[i]);\n        }\n        if (block.timestamp >= user.endTime) {\n            user.exitPercent = 100;\n        } else {\n            uint256 day = (block.timestamp - user.startTime) / 1 days;\n            require(day >= 1);\n            if (user.difficulty == 0) {\n                //70%60%\n                user.exitPercent = 30 + 10 * day;\n            } else if (user.difficulty == 1) {\n                //1470%5--840%9-1320%\n                if (1 < day && day <= 4){\n                    user.exitPercent = 30;\n                } else if (4 < day && day <= 8) {\n                    user.exitPercent = 60;\n                } else if (8 < day && day <= 13) {\n                    user.exitPercent = 80;\n                }\n            } else if (user.difficulty == 2) {\n                //11070%11--2040%21-2920%\n                if (1 < day && day <= 10){\n                    user.exitPercent = 30;\n                } else if (10 < day && day <= 20) {\n                    user.exitPercent = 60;\n                } else if (20 < day && day <= 29) {\n                    user.exitPercent = 80;\n                }\n            }\n        }\n        uint256 amount = user.mdao;\n        user.mdao = 0;\n        erc20.transfer(msg.sender, amount);\n        user.tokenIds = new uint256[](0);\n        user.realPower = 0;\n        user.buffedPower = 0;\n        user.inFarm = false;\n        user.isUnClaim = true;\n    }\n\n    //todo:\n    // Withdraw Heros tokens from Farm.\n    function decideClaimForm(bool isLockClaim) public {\n        UserInfo storage user = userInfo[msg.sender];\n        require(user.isUnClaim);\n        user.isUnClaim = false;\n        if (!isLockClaim) {\n            // 20\n            erc20Transfer(msg.sender, user.pendingAmount * user.exitPercent / 100 * 80 / 100);\n            //\n            address previous = msg.sender;\n            for (uint256 i = 0; i < inviterContract.awardLength(); i++) {\n                previous = inviterContract.superior(previous);\n                if (previous != address(0)) {\n                    uint256 award = form1InviteAward[i];\n                    uint256 amount = user.pendingAmount * user.exitPercent / 100 * award / 1000;\n                    UserInfo storage preUser = userInfo[previous];\n                    preUser.inviteReward += amount;\n                    erc20Transfer(previous, amount);\n                    emit InviterClaim(msg.sender, previous, i+1, amount);\n                } else {\n                    break;\n                }\n            }\n        } else {\n            lockInfo[msg.sender][user.lastLockId].claimStartTime = block.timestamp;\n            lockInfo[msg.sender][user.lastLockId].rewardAmount = user.pendingAmount * user.exitPercent / 100 * 115 / 100;    \n            user.lastLockId++;\n        }\n        user.pendingAmount = 0;\n        user.rewardDebt = 0;\n    }\n\n    function getUserInfo(address user) public view returns(UserInfo memory) {\n        return userInfo[user];\n    }\n\n    function canRelease(address user) public view returns(bool release) {\n        UserInfo memory info = userInfo[user];\n        if (!info.inFarm) {\n            return false;\n        }\n        uint256 day = (block.timestamp - info.startTime) / 1 days;\n        return day >= 1;\n    }\n\n    // Withdraw Heros tokens from Farm.\n    function lockRewardWithdraw(uint256 lockId) public {\n        LockInfo storage lock = lockInfo[msg.sender][lockId];\n        require(lock.rewardAmount > 0);\n        uint256 timeClaimReward = (block.timestamp - lock.claimStartTime) * lock.rewardAmount / 30 days;\n        if (timeClaimReward > lock.rewardAmount) {\n            timeClaimReward = lock.rewardAmount;\n        }\n        uint256 canClaimReward = timeClaimReward - lock.claimedAmount;\n        erc20Transfer(msg.sender, canClaimReward * 95 / 100);\n        lock.claimedAmount += canClaimReward;\n        //invite\n        address previous = msg.sender;\n        for (uint256 i = 0; i < inviterContract.awardLength(); i++) {\n            previous = inviterContract.superior(previous);\n            if (previous != address(0)) {\n                uint256 award = form2InviteAward[i];\n                uint256 amount = canClaimReward * award / 1000;\n                UserInfo storage preUser = userInfo[previous];\n                preUser.inviteReward += amount;\n                erc20Transfer(previous, amount);\n                emit InviterClaim(msg.sender, previous, i+1, amount);\n            } else {\n                break;\n            }\n        }\n    }\n\n    // Transfer ERC20 and update the required ERC20 to payout all rewards\n    function erc20Transfer(address _to, uint256 _amount) internal {\n        erc20.transfer(_to, _amount);\n        paidOut += _amount;\n    }\n\n    // Compute Reward from block to block \n    function computerReward(uint256 _fromBlock, uint256 _toBlock) private view returns (uint256) {\n        uint256 nrOfBlocks = _toBlock - _fromBlock;\n        uint256 erc20Reward = nrOfBlocks * rewardPerBlock;\n        return erc20Reward;\n    }\n\n    function lockInfos(address user) public view returns(LockInfo[] memory locks) {\n        for (uint256 i = 0; i < userInfo[user].lastLockId; i++) {\n            locks[i] = lockInfo[user][i];\n        }\n    }\n\n    // Compute apy of pool\n    function APYPercent(uint256 power) external view returns (uint256 apy) {\n        if (totalPowers == 0) {\n            return 10000;\n        }\n        if (power == 0) {\n            power = 1000000000000000000;\n        }\n        apy = power * (rewardPerBlock) * (7776000) / (totalPowers) / 1000;\n        return apy;\n    }\n}\n",
  "sourcePath": "/Users/hy/new-rich-contract/contracts/HeroFarm.sol",
  "compiler": {
    "name": "solc",
    "version": "0.8.9+commit.e5eed63a.Emscripten.clang"
  },
  "schemaVersion": "3.4.3",
  "updatedAt": "2022-08-30T15:23:08.994Z",
  "devdoc": {
    "kind": "dev",
    "methods": {
      "owner()": {
        "details": "Returns the address of the current owner."
      },
      "renounceOwnership()": {
        "details": "Leaves the contract without owner. It will not be possible to call `onlyOwner` functions anymore. Can only be called by the current owner. NOTE: Renouncing ownership will leave the contract without an owner, thereby removing any functionality that is only available to the owner."
      },
      "transferOwnership(address)": {
        "details": "Transfers ownership of the contract to a new account (`newOwner`). Can only be called by the current owner."
      }
    },
    "version": 1
  },
  "userdoc": {
    "kind": "user",
    "methods": {},
    "version": 1
  }
}