{
  "contractName": "HeroFarm",
  "abi": [
    {
      "inputs": [
        {
          "internalType": "contract IRichHero",
          "name": "_hero",
          "type": "address"
        },
        {
          "internalType": "address",
          "name": "_invite",
          "type": "address"
        },
        {
          "internalType": "contract IERC20",
          "name": "_erc20",
          "type": "address"
        },
        {
          "internalType": "uint256",
          "name": "_rewardPerBlock",
          "type": "uint256"
        },
        {
          "internalType": "uint256",
          "name": "_startBlock",
          "type": "uint256"
        }
      ],
      "stateMutability": "nonpayable",
      "type": "constructor"
    },
    {
      "anonymous": false,
      "inputs": [
        {
          "indexed": true,
          "internalType": "address",
          "name": "user",
          "type": "address"
        },
        {
          "indexed": false,
          "internalType": "uint256",
          "name": "amount",
          "type": "uint256"
        }
      ],
      "name": "Deposit",
      "type": "event"
    },
    {
      "anonymous": false,
      "inputs": [
        {
          "indexed": true,
          "internalType": "address",
          "name": "user",
          "type": "address"
        },
        {
          "indexed": false,
          "internalType": "uint256",
          "name": "amount",
          "type": "uint256"
        }
      ],
      "name": "EmergencyWithdraw",
      "type": "event"
    },
    {
      "anonymous": false,
      "inputs": [
        {
          "indexed": false,
          "internalType": "address",
          "name": "buyer",
          "type": "address"
        },
        {
          "indexed": false,
          "internalType": "address",
          "name": "inviter",
          "type": "address"
        },
        {
          "indexed": false,
          "internalType": "uint256",
          "name": "generation",
          "type": "uint256"
        },
        {
          "indexed": false,
          "internalType": "uint256",
          "name": "amount",
          "type": "uint256"
        }
      ],
      "name": "InviterClaim",
      "type": "event"
    },
    {
      "anonymous": false,
      "inputs": [
        {
          "indexed": true,
          "internalType": "address",
          "name": "previousOwner",
          "type": "address"
        },
        {
          "indexed": true,
          "internalType": "address",
          "name": "newOwner",
          "type": "address"
        }
      ],
      "name": "OwnershipTransferred",
      "type": "event"
    },
    {
      "anonymous": false,
      "inputs": [
        {
          "indexed": true,
          "internalType": "address",
          "name": "user",
          "type": "address"
        },
        {
          "indexed": false,
          "internalType": "uint256",
          "name": "amount",
          "type": "uint256"
        }
      ],
      "name": "Withdraw",
      "type": "event"
    },
    {
      "inputs": [],
      "name": "endBlock",
      "outputs": [
        {
          "internalType": "uint256",
          "name": "",
          "type": "uint256"
        }
      ],
      "stateMutability": "view",
      "type": "function"
    },
    {
      "inputs": [],
      "name": "erc20",
      "outputs": [
        {
          "internalType": "contract IERC20",
          "name": "",
          "type": "address"
        }
      ],
      "stateMutability": "view",
      "type": "function"
    },
    {
      "inputs": [
        {
          "internalType": "uint256",
          "name": "",
          "type": "uint256"
        }
      ],
      "name": "form1InviteAward",
      "outputs": [
        {
          "internalType": "uint256",
          "name": "",
          "type": "uint256"
        }
      ],
      "stateMutability": "view",
      "type": "function"
    },
    {
      "inputs": [
        {
          "internalType": "uint256",
          "name": "",
          "type": "uint256"
        }
      ],
      "name": "form2InviteAward",
      "outputs": [
        {
          "internalType": "uint256",
          "name": "",
          "type": "uint256"
        }
      ],
      "stateMutability": "view",
      "type": "function"
    },
    {
      "inputs": [],
      "name": "hero",
      "outputs": [
        {
          "internalType": "contract IRichHero",
          "name": "",
          "type": "address"
        }
      ],
      "stateMutability": "view",
      "type": "function"
    },
    {
      "inputs": [],
      "name": "inviterContract",
      "outputs": [
        {
          "internalType": "contract Invite",
          "name": "",
          "type": "address"
        }
      ],
      "stateMutability": "view",
      "type": "function"
    },
    {
      "inputs": [
        {
          "internalType": "address",
          "name": "",
          "type": "address"
        },
        {
          "internalType": "uint256",
          "name": "",
          "type": "uint256"
        }
      ],
      "name": "lockInfo",
      "outputs": [
        {
          "internalType": "uint256",
          "name": "claimStartTime",
          "type": "uint256"
        },
        {
          "internalType": "uint256",
          "name": "rewardAmount",
          "type": "uint256"
        },
        {
          "internalType": "uint256",
          "name": "claimedAmount",
          "type": "uint256"
        }
      ],
      "stateMutability": "view",
      "type": "function"
    },
    {
      "inputs": [],
      "name": "owner",
      "outputs": [
        {
          "internalType": "address",
          "name": "",
          "type": "address"
        }
      ],
      "stateMutability": "view",
      "type": "function"
    },
    {
      "inputs": [],
      "name": "paidOut",
      "outputs": [
        {
          "internalType": "uint256",
          "name": "",
          "type": "uint256"
        }
      ],
      "stateMutability": "view",
      "type": "function"
    },
    {
      "inputs": [],
      "name": "poolInfo",
      "outputs": [
        {
          "internalType": "uint256",
          "name": "lastRewardBlock",
          "type": "uint256"
        },
        {
          "internalType": "uint256",
          "name": "accPowerPerShare",
          "type": "uint256"
        }
      ],
      "stateMutability": "view",
      "type": "function"
    },
    {
      "inputs": [],
      "name": "renounceOwnership",
      "outputs": [],
      "stateMutability": "nonpayable",
      "type": "function"
    },
    {
      "inputs": [],
      "name": "rewardPerBlock",
      "outputs": [
        {
          "internalType": "uint256",
          "name": "",
          "type": "uint256"
        }
      ],
      "stateMutability": "view",
      "type": "function"
    },
    {
      "inputs": [],
      "name": "startBlock",
      "outputs": [
        {
          "internalType": "uint256",
          "name": "",
          "type": "uint256"
        }
      ],
      "stateMutability": "view",
      "type": "function"
    },
    {
      "inputs": [],
      "name": "totalAllocPoint",
      "outputs": [
        {
          "internalType": "uint256",
          "name": "",
          "type": "uint256"
        }
      ],
      "stateMutability": "view",
      "type": "function"
    },
    {
      "inputs": [],
      "name": "totalPowers",
      "outputs": [
        {
          "internalType": "uint256",
          "name": "",
          "type": "uint256"
        }
      ],
      "stateMutability": "view",
      "type": "function"
    },
    {
      "inputs": [
        {
          "internalType": "address",
          "name": "newOwner",
          "type": "address"
        }
      ],
      "name": "transferOwnership",
      "outputs": [],
      "stateMutability": "nonpayable",
      "type": "function"
    },
    {
      "inputs": [
        {
          "internalType": "address",
          "name": "",
          "type": "address"
        }
      ],
      "name": "userInfo",
      "outputs": [
        {
          "internalType": "uint256",
          "name": "goldens",
          "type": "uint256"
        },
        {
          "internalType": "uint256",
          "name": "realPower",
          "type": "uint256"
        },
        {
          "internalType": "uint256",
          "name": "buffedPower",
          "type": "uint256"
        },
        {
          "internalType": "uint256",
          "name": "rewardDebt",
          "type": "uint256"
        },
        {
          "internalType": "uint256",
          "name": "mdao",
          "type": "uint256"
        },
        {
          "internalType": "uint256",
          "name": "startTime",
          "type": "uint256"
        },
        {
          "internalType": "uint256",
          "name": "endTime",
          "type": "uint256"
        },
        {
          "internalType": "uint256",
          "name": "difficulty",
          "type": "uint256"
        },
        {
          "internalType": "uint256",
          "name": "pendingAmount",
          "type": "uint256"
        },
        {
          "internalType": "uint256",
          "name": "lastLockId",
          "type": "uint256"
        },
        {
          "internalType": "bool",
          "name": "inFarm",
          "type": "bool"
        },
        {
          "internalType": "bool",
          "name": "isUnClaim",
          "type": "bool"
        },
        {
          "internalType": "uint256",
          "name": "exitPercent",
          "type": "uint256"
        },
        {
          "internalType": "uint256",
          "name": "inviteReward",
          "type": "uint256"
        }
      ],
      "stateMutability": "view",
      "type": "function"
    },
    {
      "inputs": [
        {
          "internalType": "address",
          "name": "_user",
          "type": "address"
        }
      ],
      "name": "pending",
      "outputs": [
        {
          "internalType": "uint256",
          "name": "",
          "type": "uint256"
        }
      ],
      "stateMutability": "view",
      "type": "function"
    },
    {
      "inputs": [
        {
          "internalType": "address",
          "name": "token",
          "type": "address"
        }
      ],
      "name": "emergencyWithdraw",
      "outputs": [],
      "stateMutability": "nonpayable",
      "type": "function"
    },
    {
      "inputs": [],
      "name": "totalPending",
      "outputs": [
        {
          "internalType": "uint256",
          "name": "",
          "type": "uint256"
        }
      ],
      "stateMutability": "view",
      "type": "function"
    },
    {
      "inputs": [],
      "name": "updatePool",
      "outputs": [],
      "stateMutability": "nonpayable",
      "type": "function"
    },
    {
      "inputs": [
        {
          "internalType": "uint256[]",
          "name": "_tokenIds",
          "type": "uint256[]"
        },
        {
          "internalType": "uint8",
          "name": "difficulty",
          "type": "uint8"
        }
      ],
      "name": "deposit",
      "outputs": [],
      "stateMutability": "nonpayable",
      "type": "function"
    },
    {
      "inputs": [],
      "name": "depositMdao",
      "outputs": [],
      "stateMutability": "nonpayable",
      "type": "function"
    },
    {
      "inputs": [
        {
          "internalType": "address",
          "name": "_user",
          "type": "address"
        }
      ],
      "name": "canDepositMdao",
      "outputs": [
        {
          "internalType": "uint256",
          "name": "",
          "type": "uint256"
        }
      ],
      "stateMutability": "view",
      "type": "function"
    },
    {
      "inputs": [],
      "name": "claimHero",
      "outputs": [],
      "stateMutability": "nonpayable",
      "type": "function"
    },
    {
      "inputs": [
        {
          "internalType": "bool",
          "name": "isLockClaim",
          "type": "bool"
        }
      ],
      "name": "decideClaimForm",
      "outputs": [],
      "stateMutability": "nonpayable",
      "type": "function"
    },
    {
      "inputs": [
        {
          "internalType": "address",
          "name": "user",
          "type": "address"
        }
      ],
      "name": "getUserInfo",
      "outputs": [
        {
          "components": [
            {
              "internalType": "uint256",
              "name": "goldens",
              "type": "uint256"
            },
            {
              "internalType": "uint256",
              "name": "realPower",
              "type": "uint256"
            },
            {
              "internalType": "uint256",
              "name": "buffedPower",
              "type": "uint256"
            },
            {
              "internalType": "uint256",
              "name": "rewardDebt",
              "type": "uint256"
            },
            {
              "internalType": "uint256",
              "name": "mdao",
              "type": "uint256"
            },
            {
              "internalType": "uint256[]",
              "name": "tokenIds",
              "type": "uint256[]"
            },
            {
              "internalType": "uint256",
              "name": "startTime",
              "type": "uint256"
            },
            {
              "internalType": "uint256",
              "name": "endTime",
              "type": "uint256"
            },
            {
              "internalType": "uint256",
              "name": "difficulty",
              "type": "uint256"
            },
            {
              "internalType": "uint256",
              "name": "pendingAmount",
              "type": "uint256"
            },
            {
              "internalType": "uint256",
              "name": "lastLockId",
              "type": "uint256"
            },
            {
              "internalType": "bool",
              "name": "inFarm",
              "type": "bool"
            },
            {
              "internalType": "bool",
              "name": "isUnClaim",
              "type": "bool"
            },
            {
              "internalType": "uint256",
              "name": "exitPercent",
              "type": "uint256"
            },
            {
              "internalType": "uint256",
              "name": "inviteReward",
              "type": "uint256"
            }
          ],
          "internalType": "struct HeroFarm.UserInfo",
          "name": "",
          "type": "tuple"
        }
      ],
      "stateMutability": "view",
      "type": "function"
    },
    {
      "inputs": [
        {
          "internalType": "uint256",
          "name": "lockId",
          "type": "uint256"
        }
      ],
      "name": "lockRewardWithdraw",
      "outputs": [],
      "stateMutability": "nonpayable",
      "type": "function"
    },
    {
      "inputs": [
        {
          "internalType": "address",
          "name": "user",
          "type": "address"
        }
      ],
      "name": "lockInfos",
      "outputs": [
        {
          "components": [
            {
              "internalType": "uint256",
              "name": "claimStartTime",
              "type": "uint256"
            },
            {
              "internalType": "uint256",
              "name": "rewardAmount",
              "type": "uint256"
            },
            {
              "internalType": "uint256",
              "name": "claimedAmount",
              "type": "uint256"
            }
          ],
          "internalType": "struct HeroFarm.LockInfo[]",
          "name": "locks",
          "type": "tuple[]"
        }
      ],
      "stateMutability": "view",
      "type": "function"
    },
    {
      "inputs": [
        {
          "internalType": "uint256",
          "name": "power",
          "type": "uint256"
        }
      ],
      "name": "APYPercent",
      "outputs": [
        {
          "internalType": "uint256",
          "name": "apy",
          "type": "uint256"
        }
      ],
      "stateMutability": "view",
      "type": "function"
    }
  ],
  "bytecode": "0x600060025560e060405260076080908152600e60a052601e60c0526200002a906008906003620001cd565b5060408051606081018252600181526003602082018190526005928201929092526200005a9160099190620001cd565b506000600a5560408051606081018252600681526003602082018190526001928201929092526200008f916010919062000286565b5060408051606081018252601e8152600f6020820152600591810191909152620000be90601190600362000286565b50348015620000cc57600080fd5b506040516200284038038062002840833981016040819052620000ef91620002f9565b620000fa336200017d565b600e80546001600160a01b038088166001600160a01b03199283161790925560018054868416908316179055600f8054928716929091169190911790556003829055600b81905562000150816276a7006200035e565b600c5550506040805180820190915243808252600060209092018290526004556005555062000385915050565b600080546001600160a01b038381166001600160a01b0319831681178455604051919092169283917f8be0079c531659141344cd1fd0a4f28419497f9722a3daafe3b4186f6b6457e09190a35050565b82805482825590600052602060002090600301600490048101928215620002745791602002820160005b838211156200023d57835183826101000a8154816001600160401b03021916908360ff1602179055509260200192600801602081600701049283019260010302620001f7565b8015620002725782816101000a8154906001600160401b0302191690556008016020816007010492830192600103026200023d565b505b5062000282929150620002c9565b5090565b82805482825590600052602060002090810192821562000274579160200282015b8281111562000274578251829060ff16905591602001919060010190620002a7565b5b80821115620002825760008155600101620002ca565b6001600160a01b0381168114620002f657600080fd5b50565b600080600080600060a086880312156200031257600080fd5b85516200031f81620002e0565b60208701519095506200033281620002e0565b60408701519094506200034581620002e0565b6060870151608090970151959894975095949392505050565b600082198211156200038057634e487b7160e01b600052601160045260246000fd5b500190565b6124ab80620003956000396000f3fe608060405234801561001057600080fd5b506004361061019a5760003560e01c80636386c1c7116100e45780638da5cb5b116100925780638da5cb5b1461040b5780639f608da314610413578063acff05b014610426578063b2520a7c14610439578063c91b46c61461048e578063d4796ef214610496578063e3161ddd146104a9578063f2fde38b146104b157600080fd5b80636386c1c7146103985780636917c501146103b85780636ff1c9bc146103c1578063715018a6146103d4578063785e9e86146103dc5780637f513d5d146103ef5780638ae39cac1461040257600080fd5b80633f90916a1161014c5780633f90916a146102f557806341d189f2146102fd57806347646b9e1461031d57806348cd4cb11461033d5780635a2f3d09146103465780635c76ca2d146103695780635eebea201461037257806360343cae1461038557600080fd5b8063083c63231461019f5780630af72c69146101bb57806310b43acf146101d057806317caf6f1146101e35780631959a002146101ec57806339307b54146102da5780633bddf74e146102ed575b600080fd5b6101a8600c5481565b6040519081526020015b60405180910390f35b6101ce6101c9366004611e3c565b6104c4565b005b6101a86101de366004611ef3565b61094d565b6101a8600a5481565b61026e6101fa366004611f21565b60066020819052600091825260409091208054600182015460028301546003840154600485015495850154600786015460088701546009880154600a890154600b8a0154600c8b0154600d909b0154999b989a97999698979596949593949293919260ff808316936101009093041691908e565b604080519e8f5260208f019d909d529b8d019a909a5260608c019890985260808b019690965260a08a019490945260c089019290925260e0880152610100870152610120860152151561014085015215156101608401526101808301526101a08201526101c0016101b2565b6101a86102e8366004611f21565b61096e565b6101ce6109b2565b6101a8610be4565b61031061030b366004611f21565b610c3a565b6040516101b29190611f3e565b600f54610330906001600160a01b031681565b6040516101b29190611f97565b6101a8600b5481565b600454600554610354919082565b604080519283526020830191909152016101b2565b6101a860025481565b6101a8610380366004611f21565b610ce1565b6101a8610393366004611ef3565b610dad565b6103ab6103a6366004611f21565b610dbd565b6040516101b29190611fe6565b6101a8600d5481565b6101ce6103cf366004611f21565b610f4e565b6101ce611083565b600154610330906001600160a01b031681565b600e54610330906001600160a01b031681565b6101a860035481565b6103306110be565b6101ce6104213660046120cf565b6110cd565b6101ce610434366004611ef3565b611412565b6104736104473660046120ec565b600760209081526000928352604080842090915290825290208054600182015460029092015490919083565b604080519384526020840192909252908201526060016101b2565b6101ce6116c5565b6101a86104a4366004611ef3565b611abc565b6101ce611b1e565b6101ce6104bf366004611f21565b611b9f565b336000908152600660205260409020600b81015460049190610100900460ff16156104ee57600080fd5b600b81015460ff16156105a85780600801548360ff161461050e57600080fd5b42600882600801548154811061052657610526612118565b90600052602060002090600491828204019190066008029054906101000a90046001600160401b03166001600160401b031682600601546105679190612144565b106105a35760405162461bcd60e51b8152602060048201526007602482015266115e1c1a5c995960ca1b60448201526064015b60405180910390fd5b610641565b60038360ff16106105b857600080fd5b600b8101805460ff1916600117905560ff83166008808301829055426006840155805490919081106105ec576105ec612118565b90600052602060002090600491828204019190066008029054906101000a90046001600160401b031662015180610623919061215c565b6001600160401b0316816006015461063b9190612144565b60078201555b60008060005b86518110156107f057600e5487516000916001600160a01b0316906321d80111908a908590811061067a5761067a612118565b60200260200101516040518263ffffffff1660e01b81526004016106a091815260200190565b6102206040518083038186803b1580156106b957600080fd5b505afa1580156106cd573d6000803e3d6000fd5b505050506040513d601f19601f820116820180604052508101906106f19190612221565b9050806101600151846107049190612144565b600e5489519195506001600160a01b0316906323b872dd90339030908c908790811061073257610732612118565b60200260200101516040518463ffffffff1660e01b815260040161075893929190612314565b600060405180830381600087803b15801561077257600080fd5b505af1158015610786573d6000803e3d6000fd5b50505050806060015160ff16600414156107a857826107a481612338565b9350505b846005018883815181106107be576107be612118565b6020908102919091018101518254600181018455600093845291909220015550806107e881612338565b915050610647565b50818360010160008282546108059190612144565b909155505082548190849060009061081e908490612144565b9091555050825460009060649061083690600a612353565b610841906064612144565b85600101546108509190612353565b61085a9190612372565b60028501819055905061086b611b1e565b80600d600082825461087d9190612144565b90915550506002840154156108e2576000846003015468056bc75e2d63100000876001015487600201546108b19190612353565b6108bb9190612372565b6108c59190612394565b9050808560090160008282546108db9190612144565b9091555050505b68056bc75e2d63100000856001015485600201546109009190612353565b61090a9190612372565b600385015560405183815233907fe1fffcc4923d04b559f4d29a8bfc6cda04eb5b0d3c460751c2402c5c5cc9109c9060200160405180910390a250505050505050565b6011818154811061095d57600080fd5b600091825260209091200154905081565b6001600160a01b0381166000908152600660205260408120600481015460018201546109a19066038d7ea4c68000612353565b6109ab9190612394565b9392505050565b336000908152600660205260409020600b8101546004919060ff166109d657600080fd5b60018101546109ec9066038d7ea4c68000612353565b8160040154106109fb57600080fd5b600180546004830154918301546001600160a01b03909116916323b872dd9133913091610a2f9066038d7ea4c68000612353565b610a399190612394565b6040518463ffffffff1660e01b8152600401610a5793929190612314565b602060405180830381600087803b158015610a7157600080fd5b505af1158015610a85573d6000803e3d6000fd5b505050506040513d601f19601f82011682018060405250810190610aa991906123ab565b50610ab2611b1e565b8054600090606490610ac590600a612353565b610ad0906064612144565b610adb90600a612144565b8360010154610aea9190612353565b610af49190612372565b600283015490915015610b57576000826003015468056bc75e2d6310000085600101548560020154610b269190612353565b610b309190612372565b610b3a9190612394565b905080836009016000828254610b509190612144565b9091555050505b68056bc75e2d6310000083600101548360020154610b759190612353565b610b7f9190612372565b60038301556002820154600d8054600090610b9b908490612394565b909155505060028201819055600d8054829190600090610bbc908490612144565b90915550506001820154610bd79066038d7ea4c68000612353565b8260040181905550505050565b6000600b544311610bf55750600090565b6000600c544310610c0857600c54610c0a565b435b9050600254600b5482610c1d9190612394565b600354610c2a9190612353565b610c349190612394565b91505090565b606060005b6001600160a01b0383166000908152600660205260409020600a0154811015610cdb576001600160a01b038316600090815260076020908152604080832084845282529182902082516060810184528154815260018201549281019290925260020154918101919091528251839083908110610cbd57610cbd612118565b60200260200101819052508080610cd390612338565b915050610c3f565b50919050565b6001600160a01b0381166000908152600660205260408120600554600480549092919043118015610d135750600d5415155b15610d71576000600c544310610d2b57600c54610d2d565b435b90506000610d3f856000015483611c3f565b600d54909150610d588268056bc75e2d63100000612353565b610d629190612372565b610d6c9084612144565b925050505b816003015468056bc75e2d63100000828460020154610d909190612353565b610d9a9190612372565b610da49190612394565b95945050505050565b6010818154811061095d57600080fd5b610e3a604051806101e00160405280600081526020016000815260200160008152602001600081526020016000815260200160608152602001600081526020016000815260200160008152602001600081526020016000815260200160001515815260200160001515815260200160008152602001600081525090565b6001600160a01b03821660009081526006602090815260409182902082516101e0810184528154815260018201548184015260028201548185015260038201546060820152600482015460808201526005820180548551818602810186019096528086529194929360a08601939290830182828015610ed857602002820191906000526020600020905b815481526020019060010190808311610ec4575b505050918352505060068201546020820152600782015460408201526008820154606082015260098201546080820152600a82015460a0820152600b82015460ff808216151560c08401526101009182900416151560e0830152600c83015490820152600d909101546101209091015292915050565b33610f576110be565b6001600160a01b031614610f7d5760405162461bcd60e51b815260040161059a906123c8565b806001600160a01b031663a9059cbb610f946110be565b6040516370a0823160e01b81526001600160a01b038516906370a0823190610fc0903090600401611f97565b60206040518083038186803b158015610fd857600080fd5b505afa158015610fec573d6000803e3d6000fd5b505050506040513d601f19601f8201168201806040525081019061101091906123fd565b6040518363ffffffff1660e01b815260040161102d929190612416565b602060405180830381600087803b15801561104757600080fd5b505af115801561105b573d6000803e3d6000fd5b505050506040513d601f19601f8201168201806040525081019061107f91906123ab565b5050565b3361108c6110be565b6001600160a01b0316146110b25760405162461bcd60e51b815260040161059a906123c8565b6110bc6000611c5e565b565b6000546001600160a01b031690565b336000908152600660205260409020600b810154610100900460ff166110f257600080fd5b600b8101805461ff00191690558161136f576111433360648084600c0154856009015461111f9190612353565b6111299190612372565b611134906050612353565b61113e9190612372565b611cae565b3360005b600f60009054906101000a90046001600160a01b03166001600160a01b031663f842d40b6040518163ffffffff1660e01b815260040160206040518083038186803b15801561119557600080fd5b505afa1580156111a9573d6000803e3d6000fd5b505050506040513d601f19601f820116820180604052508101906111cd91906123fd565b81101561136857600f54604051631b43f31160e31b81526001600160a01b039091169063da1f988890611204908590600401611f97565b60206040518083038186803b15801561121c57600080fd5b505afa158015611230573d6000803e3d6000fd5b505050506040513d601f19601f82011682018060405250810190611254919061242f565b91506001600160a01b038216156113515760006010828154811061127a5761127a612118565b9060005260206000200154905060006103e882606487600c015488600901546112a39190612353565b6112ad9190612372565b6112b79190612353565b6112c19190612372565b6001600160a01b0385166000908152600660205260408120600d8101805493945090928492906112f2908490612144565b9091555061130290508583611cae565b7f061f9efc09a7e2bff53abe4fcf2714bb516b14ce6b8893742cc587de5cd880793386611330876001612144565b85604051611341949392919061244c565b60405180910390a1505050611356565b611368565b8061136081612338565b915050611147565b5050611400565b336000908152600760209081526040808320600a85015484529091529020429055600c810154600982015460649182916113a99190612353565b6113b39190612372565b6113be906073612353565b6113c89190612372565b336000908152600760209081526040808320600a8601805485529252822060010192909255815491906113fa83612338565b91905055505b60006009820181905560039091015550565b3360009081526007602090815260408083208484529091529020600181015461143a57600080fd5b6001810154815460009162278d00916114539042612394565b61145d9190612353565b6114679190612372565b9050816001015481111561147c575060018101545b600082600201548261148e9190612394565b90506114a133606461113484605f612353565b808360020160008282546114b59190612144565b9091555033905060005b600f60009054906101000a90046001600160a01b03166001600160a01b031663f842d40b6040518163ffffffff1660e01b815260040160206040518083038186803b15801561150d57600080fd5b505afa158015611521573d6000803e3d6000fd5b505050506040513d601f19601f8201168201806040525081019061154591906123fd565b8110156116bd57600f54604051631b43f31160e31b81526001600160a01b039091169063da1f98889061157c908590600401611f97565b60206040518083038186803b15801561159457600080fd5b505afa1580156115a8573d6000803e3d6000fd5b505050506040513d601f19601f820116820180604052508101906115cc919061242f565b91506001600160a01b038216156116a6576000601182815481106115f2576115f2612118565b600091825260208220015491506103e861160c8387612353565b6116169190612372565b6001600160a01b0385166000908152600660205260408120600d810180549394509092849290611647908490612144565b9091555061165790508583611cae565b7f061f9efc09a7e2bff53abe4fcf2714bb516b14ce6b8893742cc587de5cd880793386611685876001612144565b85604051611696949392919061244c565b60405180910390a15050506116ab565b6116bd565b806116b581612338565b9150506114bf565b505050505050565b336000908152600660205260409020600b8101546004919060ff1661173f5760405162461bcd60e51b815260206004820152602a60248201527f77697468647261773a2063616e2774207769746864726177206d6f7265207468604482015269185b8819195c1bdcda5d60b21b606482015260840161059a565b611747611b1e565b8060020154600d600082825461175d9190612394565b925050819055506000816003015468056bc75e2d63100000846001015484600201546117899190612353565b6117939190612372565b61179d9190612394565b9050808260090160008282546117b39190612144565b90915550506001830154600283015468056bc75e2d63100000916117d691612353565b6117e09190612372565b600383015560005b600583015481101561189257600e546005840180546001600160a01b03909216916323b872dd9130913391908690811061182457611824612118565b90600052602060002001546040518463ffffffff1660e01b815260040161184d93929190612314565b600060405180830381600087803b15801561186757600080fd5b505af115801561187b573d6000803e3d6000fd5b50505050808061188a90612338565b9150506117e8565b50816007015442106118aa576064600c8301556119e8565b6000620151808360060154426118c09190612394565b6118ca9190612372565b905060018110156118da57600080fd5b6008830154611903576118ee81600a612353565b6118f990601e612144565b600c8401556119e6565b82600801546001141561197757806001108015611921575060048111155b1561193257601e600c8401556119e6565b806004108015611943575060088111155b1561195457603c600c8401556119e6565b8060081080156119655750600d8111155b15611972576050600c8401555b6119e6565b8260080154600214156119e6578060011080156119955750600a8111155b156119a657601e600c8401556119e6565b80600a1080156119b7575060148111155b156119c857603c600c8401556119e6565b8060141080156119d95750601d8111155b156119e6576050600c8401555b505b60048083018054600090915560015460405163a9059cbb60e01b815291926001600160a01b039091169163a9059cbb91611a26913391869101612416565b602060405180830381600087803b158015611a4057600080fd5b505af1158015611a54573d6000803e3d6000fd5b505050506040513d601f19601f82011682018060405250810190611a7891906123ab565b506040805160008152602081019182905251611a98916005860191611d4e565b5050600060018301819055600283015550600b01805461ffff191661010017905550565b6000600d5460001415611ad25750612710919050565b81611ae357670de0b6b3a764000091505b6103e8600d5460035484611af79190612353565b611b04906276a700612353565b611b0e9190612372565b611b189190612372565b92915050565b600c546004906000904310611b3557600c54611b37565b435b82549091508111611b46575050565b600d54611b51579055565b6000611b61836000015483611c3f565b600d54909150611b7a8268056bc75e2d63100000612353565b611b849190612372565b8360010154611b939190612144565b60018401555050439055565b33611ba86110be565b6001600160a01b031614611bce5760405162461bcd60e51b815260040161059a906123c8565b6001600160a01b038116611c335760405162461bcd60e51b815260206004820152602660248201527f4f776e61626c653a206e6577206f776e657220697320746865207a65726f206160448201526564647265737360d01b606482015260840161059a565b611c3c81611c5e565b50565b600080611c4c8484612394565b9050600060035482610da49190612353565b600080546001600160a01b038381166001600160a01b0319831681178455604051919092169283917f8be0079c531659141344cd1fd0a4f28419497f9722a3daafe3b4186f6b6457e09190a35050565b60015460405163a9059cbb60e01b81526001600160a01b039091169063a9059cbb90611ce09085908590600401612416565b602060405180830381600087803b158015611cfa57600080fd5b505af1158015611d0e573d6000803e3d6000fd5b505050506040513d601f19601f82011682018060405250810190611d3291906123ab565b508060026000828254611d459190612144565b90915550505050565b828054828255906000526020600020908101928215611d89579160200282015b82811115611d89578251825591602001919060010190611d6e565b50611d95929150611d99565b5090565b5b80821115611d955760008155600101611d9a565b634e487b7160e01b600052604160045260246000fd5b6040516101a081016001600160401b0381118282101715611de757611de7611dae565b60405290565b604051601f8201601f191681016001600160401b0381118282101715611e1557611e15611dae565b604052919050565b60ff81168114611c3c57600080fd5b8035611e3781611e1d565b919050565b60008060408385031215611e4f57600080fd5b82356001600160401b0380821115611e6657600080fd5b818501915085601f830112611e7a57600080fd5b8135602082821115611e8e57611e8e611dae565b8160051b9250611e9f818401611ded565b8281529284018101928181019089851115611eb957600080fd5b948201945b84861015611ed757853582529482019490820190611ebe565b9650611ee69050878201611e2c565b9450505050509250929050565b600060208284031215611f0557600080fd5b5035919050565b6001600160a01b0381168114611c3c57600080fd5b600060208284031215611f3357600080fd5b81356109ab81611f0c565b602080825282518282018190526000919060409081850190868401855b82811015611f8a5781518051855286810151878601528501518585015260609093019290850190600101611f5b565b5091979650505050505050565b6001600160a01b0391909116815260200190565b600081518084526020808501945080840160005b83811015611fdb57815187529582019590820190600101611fbf565b509495945050505050565b6020815281516020820152602082015160408201526040820151606082015260608201516080820152608082015160a0820152600060a08301516101e08060c0850152612037610200850183611fab565b60c086015160e0868101919091528601516101008087019190915286015161012080870191909152860151610140808701919091528601516101608087019190915286015190925061018061208f8187018315159052565b86015190506101a06120a48682018315159052565b8601516101c0868101919091529095015193019290925250919050565b8015158114611c3c57600080fd5b6000602082840312156120e157600080fd5b81356109ab816120c1565b600080604083850312156120ff57600080fd5b823561210a81611f0c565b946020939093013593505050565b634e487b7160e01b600052603260045260246000fd5b634e487b7160e01b600052601160045260246000fd5b600082198211156121575761215761212e565b500190565b60006001600160401b03808316818516818304811182151516156121825761218261212e565b02949350505050565b8051611e3781611e1d565b80516001600160401b0381168114611e3757600080fd5b600082601f8301126121be57600080fd5b60405160a081018181106001600160401b03821117156121e0576121e0611dae565b6040528060a08401858111156121f557600080fd5b845b818110156122165761220881612196565b8352602092830192016121f7565b509195945050505050565b6000610220828403121561223457600080fd5b61223c611dc4565b8251815261224c6020840161218b565b602082015261225d6040840161218b565b604082015261226e6060840161218b565b606082015261227f6080840161218b565b608082015261229060a0840161218b565b60a08201526122a160c0840161218b565b60c08201526122b260e0840161218b565b60e08201526101006122c5818501612196565b908201526101206122d7848201612196565b908201526101406122ea858583016121ad565b908201526101e0830151610160820152612307610200840161218b565b6101808201529392505050565b6001600160a01b039384168152919092166020820152604081019190915260600190565b600060001982141561234c5761234c61212e565b5060010190565b600081600019048311821515161561236d5761236d61212e565b500290565b60008261238f57634e487b7160e01b600052601260045260246000fd5b500490565b6000828210156123a6576123a661212e565b500390565b6000602082840312156123bd57600080fd5b81516109ab816120c1565b6020808252818101527f4f776e61626c653a2063616c6c6572206973206e6f7420746865206f776e6572604082015260600190565b60006020828403121561240f57600080fd5b5051919050565b6001600160a01b03929092168252602082015260400190565b60006020828403121561244157600080fd5b81516109ab81611f0c565b6001600160a01b039485168152929093166020830152604082015260608101919091526080019056fea2646970667358221220dc29c60128d6dca6255800140e735e6b1aea5b8c21ae219add88dac75c52ad1464736f6c63430008090033",
  "immutableReferences": {},
  "source": "// // SPDX-License-Identifier: MIT\npragma solidity ^0.8.0;\n\nimport \"./IRichHero.sol\";\nimport \"./Invite.sol\";\nimport \"@openzeppelin/contracts/token/ERC20/IERC20.sol\";\nimport \"@openzeppelin/contracts/access/Ownable.sol\";\n\n// Farm distributes the ERC20 rewards based on staked heroPower to each user.\n//\n// Cloned from https://github.com/SashimiProject/sashimiswap/blob/master/contracts/MasterChef.sol\n// Modified by ERC20 to work for non-mintable ERC20.\ncontract HeroFarm is Ownable {\n    // Info of each user.\n    struct UserInfo {\n        uint256 goldens;\n        uint256 realPower;\n        uint256 buffedPower; // How many power the user has provided.\n        uint256 rewardDebt; // Reward debt. See explanation below.\n        uint256 mdao; //Deposited mdao\n        uint256[] tokenIds; //Deposited hero\n        uint256 startTime; //Start time\n        uint256 endTime; //End time\n        uint256 difficulty;\n        uint256 pendingAmount;\n        uint256 lastLockId;\n        bool inFarm;\n        bool isUnClaim;\n        uint256 exitPercent;\n        uint256 inviteReward;\n    }\n\n    struct LockInfo {\n        uint256 claimStartTime;\n        uint256 rewardAmount;\n        uint256 claimedAmount;\n    }\n\n    // Info of lp pool.\n    struct PoolInfo {\n        uint256 lastRewardBlock;    // Last block number that ERC20s distribution occurs.\n        uint256 accPowerPerShare;   // Accumulated ERC20s per share, times 1e36.\n    }\n\n    // Address of the ERC20 Token contract.\n    IERC20 public erc20;\n    // The total amount of ERC20 that's paid out as reward.\n    uint256 public paidOut = 0;\n    // ERC20 tokens rewarded per block.\n    uint256 public rewardPerBlock;\n\n    // Info of pool.\n    PoolInfo public poolInfo;\n    // Info of each user.\n    mapping (address => UserInfo) public userInfo;\n    mapping (address => mapping (uint256 => LockInfo)) public lockInfo;\n    // Staking Times\n    uint64[] difficultyTime = [7, 14, 30]; //0, 1, 2\n    // Staking Addition\n    uint64[] difficultyAddition = [1, 3, 5]; //1%, 3%, 5%\n    // Total Power\n    uint256 public totalAllocPoint = 0;\n    // The block number when farming starts.\n    uint256 public startBlock;\n    // The block number when farming ends.\n    uint256 public endBlock;\n    uint256 public totalPowers;\n    IRichHero public hero;\n    Invite public inviterContract;\n    uint256[] public form1InviteAward = [6, 3, 1];\n    uint256[] public form2InviteAward = [30, 15, 5];\n    event Deposit(address indexed user, uint256 amount);\n    event Withdraw(address indexed user, uint256 amount);\n    event EmergencyWithdraw(address indexed user, uint256 amount);\n    event InviterClaim(address buyer, address inviter, uint256 generation, uint256 amount);\n\n    constructor(IRichHero _hero, address _invite, IERC20 _erc20, uint256 _rewardPerBlock, uint256 _startBlock) {\n        hero = _hero;\n        erc20 = _erc20;\n        inviterContract = Invite(_invite);\n        rewardPerBlock = _rewardPerBlock;\n        startBlock = _startBlock;\n        endBlock = _startBlock + 7776000;\n        poolInfo = PoolInfo({\n            lastRewardBlock: block.number,\n            accPowerPerShare: 0\n        });\n    }\n\n    // View function to see pending ERC20s for a user.\n    function pending(address _user) external view returns (uint256) {\n        PoolInfo storage pool = poolInfo;\n        UserInfo storage user = userInfo[_user];\n        uint256 accPowerPerShare = pool.accPowerPerShare;\n        if (block.number > pool.lastRewardBlock && totalPowers != 0) {\n            uint256 lastBlock = block.number < endBlock ? block.number : endBlock;\n\n            uint256 erc20Rewards = computerReward(pool.lastRewardBlock, lastBlock);\n            accPowerPerShare = accPowerPerShare + (erc20Rewards * 1e20) / (totalPowers);\n        }\n        return user.buffedPower * (accPowerPerShare) / (1e20) - (user.rewardDebt);\n    }\n\n    function emergencyWithdraw(address token) public onlyOwner {\n        IERC20(token).transfer(owner(), IERC20(token).balanceOf(address(this)));\n    }\n\n    // View function for total reward the farm has yet to pay out.\n    function totalPending() external view returns (uint256) {\n        if (block.number <= startBlock) {\n            return 0;\n        }\n        uint256 lastBlock = block.number < endBlock ? block.number : endBlock;\n        return rewardPerBlock * (lastBlock - startBlock) - paidOut;\n    }\n\n    // Update reward variables of the given pool to be up-to-date.\n    function updatePool() public {\n        PoolInfo storage pool = poolInfo;\n        uint256 lastBlock = block.number < endBlock ? block.number : endBlock;\n\n        if (lastBlock <= pool.lastRewardBlock) {\n            return;\n        }\n        if (totalPowers == 0) {\n            pool.lastRewardBlock = lastBlock;\n            return;\n        }\n\n        uint256 erc20Rewards = computerReward(pool.lastRewardBlock, lastBlock);\n        pool.accPowerPerShare = pool.accPowerPerShare + (erc20Rewards * (1e20) / (totalPowers));\n        pool.lastRewardBlock = block.number;\n    }\n\n    // Deposit hero power to Farm for ERC20 allocation.\n    function deposit(uint256[] memory _tokenIds, uint8 difficulty) public {\n        PoolInfo storage pool = poolInfo;\n        UserInfo storage user = userInfo[msg.sender];\n        require(!user.isUnClaim);\n        if (user.inFarm) {\n            require(difficulty == user.difficulty);\n            require(user.startTime + difficultyTime[user.difficulty] < block.timestamp, \"Expired\");\n        } else {\n            require(difficulty < 3);\n            user.inFarm = true;\n            user.difficulty = difficulty;\n            user.startTime = block.timestamp;\n            user.endTime = user.startTime + difficultyTime[user.difficulty] * 86400;\n        }\n        uint256 power;\n        uint256 totalGolden;\n        for(uint256 i = 0; i < _tokenIds.length; i++) {\n            IRichHero.HeroDetail memory detail = hero.getHero(_tokenIds[i]);\n            power += detail.power;\n            hero.transferFrom(msg.sender, address(this), _tokenIds[i]);\n            if (detail.rarity == 4) {\n                totalGolden++;\n            }\n            user.tokenIds.push(_tokenIds[i]);\n        }\n        user.realPower += power;\n        user.goldens += totalGolden;\n        uint256 buffedPower = user.realPower * (100 + user.goldens * 10) / 100;\n        user.buffedPower = buffedPower;\n        updatePool();\n        totalPowers += buffedPower;\n        if (user.buffedPower > 0) {\n            uint256 pendingAmount = user.buffedPower * (pool.accPowerPerShare) / (1e20) - (user.rewardDebt);\n            // erc20Transfer(msg.sender, pendingAmount);\n            user.pendingAmount += pendingAmount;\n        }\n        user.rewardDebt = user.buffedPower * (pool.accPowerPerShare) / (1e20);\n        emit Deposit(msg.sender, power);\n    }\n\n    function depositMdao() public {\n        PoolInfo storage pool = poolInfo;\n        UserInfo storage user = userInfo[msg.sender];\n        require(user.inFarm);\n        require(user.mdao < user.realPower * 1e15);\n        erc20.transferFrom(msg.sender, address(this), user.realPower * 1e15 - user.mdao);\n        updatePool();\n        uint256 buffedPower = user.realPower * (100 + user.goldens * 10 + 10) / 100;\n        if (user.buffedPower > 0) {\n            uint256 pendingAmount = user.buffedPower * (pool.accPowerPerShare) / (1e20) - (user.rewardDebt);\n            // erc20Transfer(msg.sender, pendingAmount);\n            user.pendingAmount += pendingAmount;\n        }\n        user.rewardDebt = user.buffedPower * (pool.accPowerPerShare) / (1e20);\n        totalPowers -= user.buffedPower;\n        user.buffedPower = buffedPower;\n        totalPowers += buffedPower;\n        user.mdao = user.realPower * 1e15;\n    }\n\n    function canDepositMdao(address _user) public view returns (uint256) {\n        UserInfo storage user = userInfo[_user];\n        return (user.realPower * 1e15 - user.mdao);\n    }\n            \n    // Claim Heros tokens from Farm.\n    function claimHero() public {\n        PoolInfo storage pool = poolInfo;\n        UserInfo storage user = userInfo[msg.sender];\n        require(user.inFarm, \"withdraw: can't withdraw more than deposit\");\n        updatePool();\n        totalPowers -= user.buffedPower;\n        uint256 pendingAmount = user.buffedPower * pool.accPowerPerShare / (1e20) - (user.rewardDebt);\n        // erc20Transfer(msg.sender, pendingAmount);\n        user.pendingAmount += pendingAmount;\n        user.rewardDebt = user.buffedPower * (pool.accPowerPerShare) / (1e20);\n\n        for (uint256 i = 0; i < user.tokenIds.length; i++) {\n            hero.transferFrom(address(this), address(msg.sender), user.tokenIds[i]);\n        }\n        if (block.timestamp >= user.endTime) {\n            user.exitPercent = 100;\n        } else {\n            uint256 day = (block.timestamp - user.startTime) / 1 days;\n            require(day >= 1);\n            if (user.difficulty == 0) {\n                //70%60%\n                user.exitPercent = 30 + 10 * day;\n            } else if (user.difficulty == 1) {\n                //1470%5--840%9-1320%\n                if (1 < day && day <= 4){\n                    user.exitPercent = 30;\n                } else if (4 < day && day <= 8) {\n                    user.exitPercent = 60;\n                } else if (8 < day && day <= 13) {\n                    user.exitPercent = 80;\n                }\n            } else if (user.difficulty == 2) {\n                //11070%11--2040%21-2920%\n                if (1 < day && day <= 10){\n                    user.exitPercent = 30;\n                } else if (10 < day && day <= 20) {\n                    user.exitPercent = 60;\n                } else if (20 < day && day <= 29) {\n                    user.exitPercent = 80;\n                }\n            }\n        }\n        uint256 amount = user.mdao;\n        user.mdao = 0;\n        erc20.transfer(msg.sender, amount);\n        user.tokenIds = new uint256[](0);\n        user.realPower = 0;\n        user.buffedPower = 0;\n        user.inFarm = false;\n        user.isUnClaim = true;\n    }\n\n    //todo:\n    // Withdraw Heros tokens from Farm.\n    function decideClaimForm(bool isLockClaim) public {\n        UserInfo storage user = userInfo[msg.sender];\n        require(user.isUnClaim);\n        user.isUnClaim = false;\n        if (!isLockClaim) {\n            // 20\n            erc20Transfer(msg.sender, user.pendingAmount * user.exitPercent / 100 * 80 / 100);\n            //\n            address previous = msg.sender;\n            for (uint256 i = 0; i < inviterContract.awardLength(); i++) {\n                previous = inviterContract.superior(previous);\n                if (previous != address(0)) {\n                    uint256 award = form1InviteAward[i];\n                    uint256 amount = user.pendingAmount * user.exitPercent / 100 * award / 1000;\n                    UserInfo storage preUser = userInfo[previous];\n                    preUser.inviteReward += amount;\n                    erc20Transfer(previous, amount);\n                    emit InviterClaim(msg.sender, previous, i+1, amount);\n                } else {\n                    break;\n                }\n            }\n        } else {\n            lockInfo[msg.sender][user.lastLockId].claimStartTime = block.timestamp;\n            lockInfo[msg.sender][user.lastLockId].rewardAmount = user.pendingAmount * user.exitPercent / 100 * 115 / 100;    \n            user.lastLockId++;\n        }\n        user.pendingAmount = 0;\n        user.rewardDebt = 0;\n    }\n\n    function getUserInfo(address user) public view returns(UserInfo memory) {\n        return userInfo[user];\n    }\n\n    // Withdraw Heros tokens from Farm.\n    function lockRewardWithdraw(uint256 lockId) public {\n        LockInfo storage lock = lockInfo[msg.sender][lockId];\n        require(lock.rewardAmount > 0);\n        uint256 timeClaimReward = (block.timestamp - lock.claimStartTime) * lock.rewardAmount / 30 days;\n        if (timeClaimReward > lock.rewardAmount) {\n            timeClaimReward = lock.rewardAmount;\n        }\n        uint256 canClaimReward = timeClaimReward - lock.claimedAmount;\n        erc20Transfer(msg.sender, canClaimReward * 95 / 100);\n        lock.claimedAmount += canClaimReward;\n        //invite\n        address previous = msg.sender;\n        for (uint256 i = 0; i < inviterContract.awardLength(); i++) {\n            previous = inviterContract.superior(previous);\n            if (previous != address(0)) {\n                uint256 award = form2InviteAward[i];\n                uint256 amount = canClaimReward * award / 1000;\n                UserInfo storage preUser = userInfo[previous];\n                preUser.inviteReward += amount;\n                erc20Transfer(previous, amount);\n                emit InviterClaim(msg.sender, previous, i+1, amount);\n            } else {\n                break;\n            }\n        }\n    }\n\n    // Transfer ERC20 and update the required ERC20 to payout all rewards\n    function erc20Transfer(address _to, uint256 _amount) internal {\n        erc20.transfer(_to, _amount);\n        paidOut += _amount;\n    }\n\n    // Compute Reward from block to block \n    function computerReward(uint256 _fromBlock, uint256 _toBlock) private view returns (uint256) {\n        uint256 nrOfBlocks = _toBlock - _fromBlock;\n        uint256 erc20Reward = nrOfBlocks * rewardPerBlock;\n        return erc20Reward;\n    }\n\n    function lockInfos(address user) public view returns(LockInfo[] memory locks) {\n        for (uint256 i = 0; i < userInfo[user].lastLockId; i++) {\n            locks[i] = lockInfo[user][i];\n        }\n    }\n\n    // Compute apy of pool\n    function APYPercent(uint256 power) external view returns (uint256 apy) {\n        if (totalPowers == 0) {\n            return 10000;\n        }\n        if (power == 0) {\n            power = 1000000000000000000;\n        }\n        apy = power * (rewardPerBlock) * (7776000) / (totalPowers) / 1000;\n        return apy;\n    }\n}\n",
  "sourcePath": "/Users/hy/new-rich-contract/contracts/HeroFarm.sol",
  "compiler": {
    "name": "solc",
    "version": "0.8.9+commit.e5eed63a.Emscripten.clang"
  },
  "schemaVersion": "3.4.3",
  "updatedAt": "2022-08-29T15:55:02.598Z",
  "devdoc": {
    "kind": "dev",
    "methods": {
      "owner()": {
        "details": "Returns the address of the current owner."
      },
      "renounceOwnership()": {
        "details": "Leaves the contract without owner. It will not be possible to call `onlyOwner` functions anymore. Can only be called by the current owner. NOTE: Renouncing ownership will leave the contract without an owner, thereby removing any functionality that is only available to the owner."
      },
      "transferOwnership(address)": {
        "details": "Transfers ownership of the contract to a new account (`newOwner`). Can only be called by the current owner."
      }
    },
    "version": 1
  },
  "userdoc": {
    "kind": "user",
    "methods": {},
    "version": 1
  }
}