{
  "data": {
    "bytecode": {
      "linkReferences": {},
      "object": "600060025560e060405260076080908152600e60a052601e60c0526200002a906008906003620001cd565b5060408051606081018252600181526003602082018190526005928201929092526200005a9160099190620001cd565b506000600a5560408051606081018252600681526003602082018190526001928201929092526200008f916010919062000286565b5060408051606081018252601e8152600f6020820152600591810191909152620000be90601190600362000286565b50348015620000cc57600080fd5b506040516200216938038062002169833981016040819052620000ef91620002f9565b620000fa336200017d565b600e80546001600160a01b038088166001600160a01b03199283161790925560018054868416908316179055600f8054928716929091169190911790556003829055600b81905562000150816276a7006200035e565b600c5550506040805180820190915243808252600060209092018290526004556005555062000385915050565b600080546001600160a01b038381166001600160a01b0319831681178455604051919092169283917f8be0079c531659141344cd1fd0a4f28419497f9722a3daafe3b4186f6b6457e09190a35050565b82805482825590600052602060002090600301600490048101928215620002745791602002820160005b838211156200023d57835183826101000a8154816001600160401b03021916908360ff1602179055509260200192600801602081600701049283019260010302620001f7565b8015620002725782816101000a8154906001600160401b0302191690556008016020816007010492830192600103026200023d565b505b5062000282929150620002c9565b5090565b82805482825590600052602060002090810192821562000274579160200282015b8281111562000274578251829060ff16905591602001919060010190620002a7565b5b80821115620002825760008155600101620002ca565b6001600160a01b0381168114620002f657600080fd5b50565b600080600080600060a086880312156200031257600080fd5b85516200031f81620002e0565b60208701519095506200033281620002e0565b60408701519094506200034581620002e0565b6060870151608090970151959894975095949392505050565b600082198211156200038057634e487b7160e01b600052601160045260246000fd5b500190565b611dd480620003956000396000f3fe608060405234801561001057600080fd5b506004361061018e5760003560e01c8063715018a6116100de578063acff05b011610097578063d4796ef211610071578063d4796ef214610406578063e3161ddd14610419578063f2fde38b14610421578063f6dd204f1461043457600080fd5b8063acff05b014610396578063b2520a7c146103a9578063c91b46c6146103fe57600080fd5b8063715018a61461033b578063785e9e86146103435780637f513d5d146103565780638ae39cac146103695780638da5cb5b146103725780639f608da31461038357600080fd5b806348cd4cb11161014b5780635eebea20116101255780635eebea20146102f757806360343cae1461030a5780636917c5011461031d5780636ff1c9bc1461032657600080fd5b806348cd4cb1146102c25780635a2f3d09146102cb5780635c76ca2d146102ee57600080fd5b8063083c63231461019357806310b43acf146101af57806317caf6f1146101c25780631959a002146101cb5780633f90916a1461028f57806347646b9e14610297575b600080fd5b61019c600c5481565b6040519081526020015b60405180910390f35b61019c6101bd36600461189c565b610447565b61019c600a5481565b6102386101d93660046118ca565b60066020819052600091825260409091208054600182015460028301546004840154600585015495850154600786015460088701546009880154600a9098015496989597949693959492939192909160ff80831692610100900416908b565b604080519b8c5260208c019a909a52988a01979097526060890195909552608088019390935260a087019190915260c086015260e085015215156101008401521515610120830152610140820152610160016101a6565b61019c610468565b600f546102aa906001600160a01b031681565b6040516001600160a01b0390911681526020016101a6565b61019c600b5481565b6004546005546102d9919082565b604080519283526020830191909152016101a6565b61019c60025481565b61019c6103053660046118ca565b6104be565b61019c61031836600461189c565b610592565b61019c600d5481565b6103396103343660046118ca565b6105a2565b005b6103396106ef565b6001546102aa906001600160a01b031681565b600e546102aa906001600160a01b031681565b61019c60035481565b6000546001600160a01b03166102aa565b61033961039136600461190c565b610725565b6103396103a436600461189c565b610a48565b6103e36103b7366004611929565b600760209081526000928352604080842090915290825290208054600182015460029092015490919083565b604080519384526020840192909252908201526060016101a6565b610339610cd9565b61019c61041436600461189c565b611050565b6103396110b2565b61033961042f3660046118ca565b611138565b6103396104423660046119e0565b6111d3565b6011818154811061045757600080fd5b600091825260209091200154905081565b6000600b5443116104795750600090565b6000600c54431061048c57600c5461048e565b435b9050600254600b54826104a19190611abe565b6003546104ae9190611ad5565b6104b89190611abe565b91505090565b6001600160a01b03811660009081526006602052604081206005546004805490929190431180156104f05750600d5415155b15610553576000600c54431061050857600c5461050a565b435b9050600061051c85600001548361172b565b600d5490915061053a826a0c097ce7bc90715b34b9f160241b611ad5565b6105449190611af4565b61054e9084611b16565b925050505b600182015482546a0c097ce7bc90715b34b9f160241b90610575908490611ad5565b61057f9190611af4565b6105899190611abe565b95945050505050565b6010818154811061045757600080fd5b6000546001600160a01b031633146105d55760405162461bcd60e51b81526004016105cc90611b2e565b60405180910390fd5b806001600160a01b031663a9059cbb6105f66000546001600160a01b031690565b6040516370a0823160e01b81523060048201526001600160a01b038516906370a082319060240160206040518083038186803b15801561063557600080fd5b505afa158015610649573d6000803e3d6000fd5b505050506040513d601f19601f8201168201806040525081019061066d9190611b63565b6040516001600160e01b031960e085901b1681526001600160a01b0390921660048301526024820152604401602060405180830381600087803b1580156106b357600080fd5b505af11580156106c7573d6000803e3d6000fd5b505050506040513d601f19601f820116820180604052508101906106eb9190611b7c565b5050565b6000546001600160a01b031633146107195760405162461bcd60e51b81526004016105cc90611b2e565b610723600061174a565b565b3360009081526006602052604090206009810154610100900460ff1661074a57600080fd5b60098101805461ff0019169055816109a55761079b3360648084600a015485600701546107779190611ad5565b6107819190611af4565b61078c906050611ad5565b6107969190611af4565b61179a565b3360005b600f60009054906101000a90046001600160a01b03166001600160a01b031663f842d40b6040518163ffffffff1660e01b815260040160206040518083038186803b1580156107ed57600080fd5b505afa158015610801573d6000803e3d6000fd5b505050506040513d601f19601f820116820180604052508101906108259190611b63565b81101561099e57600f54604051631b43f31160e31b81526001600160a01b0384811660048301529091169063da1f98889060240160206040518083038186803b15801561087157600080fd5b505afa158015610885573d6000803e3d6000fd5b505050506040513d601f19601f820116820180604052508101906108a99190611b99565b91506001600160a01b03821615610987576000601082815481106108cf576108cf611bb6565b9060005260206000200154905060006103e882606487600a015488600701546108f89190611ad5565b6109029190611af4565b61090c9190611ad5565b6109169190611af4565b9050610922848261179a565b7f061f9efc09a7e2bff53abe4fcf2714bb516b14ce6b8893742cc587de5cd880793385610950866001611b16565b604080516001600160a01b039485168152939092166020840152908201526060810183905260800160405180910390a1505061098c565b61099e565b8061099681611bcc565b91505061079f565b5050610a36565b33600090815260076020818152604080842060088601548552909152909120429055600a8201549082015460649182916109df9190611ad5565b6109e99190611af4565b6109f4906073611ad5565b6109fe9190611af4565b3360009081526007602090815260408083206008860180548552925282206001019290925581549190610a3083611bcc565b91905055505b60006007820181905560019091015550565b33600090815260076020908152604080832084845290915290206001810154610a7057600080fd5b6001810154815460009162278d0091610a899042611abe565b610a939190611ad5565b610a9d9190611af4565b90508160010154811115610ab2575060018101545b6000826002015482610ac49190611abe565b9050610ad733606461078c84605f611ad5565b80836002016000828254610aeb9190611b16565b9091555033905060005b600f60009054906101000a90046001600160a01b03166001600160a01b031663f842d40b6040518163ffffffff1660e01b815260040160206040518083038186803b158015610b4357600080fd5b505afa158015610b57573d6000803e3d6000fd5b505050506040513d601f19601f82011682018060405250810190610b7b9190611b63565b811015610cd157600f54604051631b43f31160e31b81526001600160a01b0384811660048301529091169063da1f98889060240160206040518083038186803b158015610bc757600080fd5b505afa158015610bdb573d6000803e3d6000fd5b505050506040513d601f19601f82011682018060405250810190610bff9190611b99565b91506001600160a01b03821615610cba57600060118281548110610c2557610c25611bb6565b600091825260208220015491506103e8610c3f8387611ad5565b610c499190611af4565b9050610c55848261179a565b7f061f9efc09a7e2bff53abe4fcf2714bb516b14ce6b8893742cc587de5cd880793385610c83866001611b16565b604080516001600160a01b039485168152939092166020840152908201526060810183905260800160405180910390a15050610cbf565b610cd1565b80610cc981611bcc565b915050610af5565b505050505050565b33600090815260066020526040902060098101546004919060ff16610d535760405162461bcd60e51b815260206004820152602a60248201527f77697468647261773a2063616e2774207769746864726177206d6f7265207468604482015269185b8819195c1bdcda5d60b21b60648201526084016105cc565b8054600d8054600090610d67908490611abe565b90915550610d7590506110b2565b600081600101546a0c097ce7bc90715b34b9f160241b84600101548460000154610d9f9190611ad5565b610da99190611af4565b610db39190611abe565b905080826007016000828254610dc99190611b16565b9091555050600183015482546a0c097ce7bc90715b34b9f160241b91610dee91611ad5565b610df89190611af4565b600183015560005b6003830154811015610ec257600e546003840180546001600160a01b03909216916323b872dd91309133919086908110610e3c57610e3c611bb6565b6000918252602090912001546040516001600160e01b031960e086901b1681526001600160a01b0393841660048201529290911660248301526044820152606401600060405180830381600087803b158015610e9757600080fd5b505af1158015610eab573d6000803e3d6000fd5b505050508080610eba90611bcc565b915050610e00565b5081600501544210610eda576064600a830155611018565b600062015180836004015442610ef09190611abe565b610efa9190611af4565b90506001811015610f0a57600080fd5b6006830154610f3357610f1e81600a611ad5565b610f2990601e611b16565b600a840155611016565b826006015460011415610fa757806001108015610f51575060048111155b15610f6257601e600a840155611016565b806004108015610f73575060088111155b15610f8457603c600a840155611016565b806008108015610f955750600d8111155b15610fa2576050600a8401555b611016565b82600601546002141561101657806001108015610fc55750600a8111155b15610fd657601e600a840155611016565b80600a108015610fe7575060148111155b15610ff857603c600a840155611016565b8060141080156110095750601d8111155b15611016576050600a8401555b505b604080516000815260208101918290525161103791600385019161183c565b505060008155600901805461ffff191661010017905550565b6000600d54600014156110665750612710919050565b8161107757670de0b6b3a764000091505b6103e8600d546003548461108b9190611ad5565b611098906276a700611ad5565b6110a29190611af4565b6110ac9190611af4565b92915050565b600c5460049060009043106110c957600c546110cb565b435b825490915081116110da575050565b600d546110e5579055565b60006110f583600001548361172b565b600d54909150611113826a0c097ce7bc90715b34b9f160241b611ad5565b61111d9190611af4565b836001015461112c9190611b16565b60018401555050439055565b6000546001600160a01b031633146111625760405162461bcd60e51b81526004016105cc90611b2e565b6001600160a01b0381166111c75760405162461bcd60e51b815260206004820152602660248201527f4f776e61626c653a206e6577206f776e657220697320746865207a65726f206160448201526564647265737360d01b60648201526084016105cc565b6111d08161174a565b50565b336000908152600660205260409020600981015460049190610100900460ff16156111fd57600080fd5b600981015460ff16156112b45780600601548460ff161461121d57600080fd5b42600882600601548154811061123557611235611bb6565b90600052602060002090600491828204019190066008029054906101000a900467ffffffffffffffff1667ffffffffffffffff1682600401546112789190611b16565b106112af5760405162461bcd60e51b8152602060048201526007602482015266115e1c1a5c995960ca1b60448201526064016105cc565b611342565b60038460ff16106112c457600080fd5b60098101805460ff1916600117905560ff8416600682018190554260048301556008805490919081106112f9576112f9611bb6565b90600052602060002090600491828204019190066008029054906101000a900467ffffffffffffffff1667ffffffffffffffff16816004015461133c9190611b16565b60058201555b60008060005b87518110156114d657600e5488516000916001600160a01b0316906321d80111908b908590811061137b5761137b611bb6565b60200260200101516040518263ffffffff1660e01b81526004016113a191815260200190565b6102206040518083038186803b1580156113ba57600080fd5b505afa1580156113ce573d6000803e3d6000fd5b505050506040513d601f19601f820116820180604052508101906113f29190611c7f565b9050806101600151846114059190611b16565b600e548a519195506001600160a01b0316906323b872dd90339030908d908790811061143357611433611bb6565b60209081029190910101516040516001600160e01b031960e086901b1681526001600160a01b0393841660048201529290911660248301526044820152606401600060405180830381600087803b15801561148d57600080fd5b505af11580156114a1573d6000803e3d6000fd5b50505050806060015160ff16600414156114c357826114bf81611bcc565b9350505b50806114ce81611bcc565b915050611348565b50801561150c5760646114ea82600a611ad5565b6114f5906064611b16565b6114ff9084611ad5565b6115099190611af4565b91505b841561162e576001546001600160a01b03166323b872dd33306115368666038d7ea4c68000611ad5565b6040516001600160e01b031960e086901b1681526001600160a01b0393841660048201529290911660248301526044820152606401602060405180830381600087803b15801561158557600080fd5b505af1158015611599573d6000803e3d6000fd5b505050506040513d601f19601f820116820180604052508101906115bd9190611b7c565b50606460098460060154815481106115d7576115d7611bb6565b90600052602060002090600491828204019190066008029054906101000a900467ffffffffffffffff16606461160d9190611d72565b6116219067ffffffffffffffff1684611ad5565b61162b9190611af4565b91505b6116366110b2565b81600d60008282546116489190611b16565b90915550508254156116af57600083600101546a0c097ce7bc90715b34b9f160241b8660010154866000015461167e9190611ad5565b6116889190611af4565b6116929190611abe565b9050808460070160008282546116a89190611b16565b9091555050505b82546116bc908390611b16565b80845560018501546a0c097ce7bc90715b34b9f160241b916116de9190611ad5565b6116e89190611af4565b600184015560405182815233907fe1fffcc4923d04b559f4d29a8bfc6cda04eb5b0d3c460751c2402c5c5cc9109c9060200160405180910390a250505050505050565b6000806117388484611abe565b90506000600354826105899190611abe565b600080546001600160a01b038381166001600160a01b0319831681178455604051919092169283917f8be0079c531659141344cd1fd0a4f28419497f9722a3daafe3b4186f6b6457e09190a35050565b60015460405163a9059cbb60e01b81526001600160a01b038481166004830152602482018490529091169063a9059cbb90604401602060405180830381600087803b1580156117e857600080fd5b505af11580156117fc573d6000803e3d6000fd5b505050506040513d601f19601f820116820180604052508101906118209190611b7c565b5080600260008282546118339190611b16565b90915550505050565b828054828255906000526020600020908101928215611877579160200282015b8281111561187757825182559160200191906001019061185c565b50611883929150611887565b5090565b5b808211156118835760008155600101611888565b6000602082840312156118ae57600080fd5b5035919050565b6001600160a01b03811681146111d057600080fd5b6000602082840312156118dc57600080fd5b81356118e7816118b5565b9392505050565b80151581146111d057600080fd5b8035611907816118ee565b919050565b60006020828403121561191e57600080fd5b81356118e7816118ee565b6000806040838503121561193c57600080fd5b8235611947816118b5565b946020939093013593505050565b634e487b7160e01b600052604160045260246000fd5b6040516101a0810167ffffffffffffffff8111828210171561198f5761198f611955565b60405290565b604051601f8201601f1916810167ffffffffffffffff811182821017156119be576119be611955565b604052919050565b60ff811681146111d057600080fd5b8035611907816119c6565b6000806000606084860312156119f557600080fd5b833567ffffffffffffffff80821115611a0d57600080fd5b818601915086601f830112611a2157600080fd5b8135602082821115611a3557611a35611955565b8160051b9250611a46818401611995565b828152928401810192818101908a851115611a6057600080fd5b948201945b84861015611a7e57853582529482019490820190611a65565b9750611a8d90508882016119d5565b955050505050611a9f604085016118fc565b90509250925092565b634e487b7160e01b600052601160045260246000fd5b600082821015611ad057611ad0611aa8565b500390565b6000816000190483118215151615611aef57611aef611aa8565b500290565b600082611b1157634e487b7160e01b600052601260045260246000fd5b500490565b60008219821115611b2957611b29611aa8565b500190565b6020808252818101527f4f776e61626c653a2063616c6c6572206973206e6f7420746865206f776e6572604082015260600190565b600060208284031215611b7557600080fd5b5051919050565b600060208284031215611b8e57600080fd5b81516118e7816118ee565b600060208284031215611bab57600080fd5b81516118e7816118b5565b634e487b7160e01b600052603260045260246000fd5b6000600019821415611be057611be0611aa8565b5060010190565b8051611907816119c6565b805167ffffffffffffffff8116811461190757600080fd5b600082601f830112611c1b57600080fd5b60405160a0810181811067ffffffffffffffff82111715611c3e57611c3e611955565b6040528060a0840185811115611c5357600080fd5b845b81811015611c7457611c6681611bf2565b835260209283019201611c55565b509195945050505050565b60006102208284031215611c9257600080fd5b611c9a61196b565b82518152611caa60208401611be7565b6020820152611cbb60408401611be7565b6040820152611ccc60608401611be7565b6060820152611cdd60808401611be7565b6080820152611cee60a08401611be7565b60a0820152611cff60c08401611be7565b60c0820152611d1060e08401611be7565b60e0820152610100611d23818501611bf2565b90820152610120611d35848201611bf2565b90820152610140611d4885858301611c0a565b908201526101e0830151610160820152611d656102008401611be7565b6101808201529392505050565b600067ffffffffffffffff808316818516808303821115611d9557611d95611aa8565b0194935050505056fea264697066735822122026bc92f45c76e1c6a2120aeda3f4c6869a8e96632f311c9383e5b85e41d3356264736f6c63430008080033",
      "opcodes": "PUSH1 0x0 PUSH1 0x2 SSTORE PUSH1 0xE0 PUSH1 0x40 MSTORE PUSH1 0x7 PUSH1 0x80 SWAP1 DUP2 MSTORE PUSH1 0xE PUSH1 0xA0 MSTORE PUSH1 0x1E PUSH1 0xC0 MSTORE PUSH3 0x2A SWAP1 PUSH1 0x8 SWAP1 PUSH1 0x3 PUSH3 0x1CD JUMP JUMPDEST POP PUSH1 0x40 DUP1 MLOAD PUSH1 0x60 DUP2 ADD DUP3 MSTORE PUSH1 0x1 DUP2 MSTORE PUSH1 0x3 PUSH1 0x20 DUP3 ADD DUP2 SWAP1 MSTORE PUSH1 0x5 SWAP3 DUP3 ADD SWAP3 SWAP1 SWAP3 MSTORE PUSH3 0x5A SWAP2 PUSH1 0x9 SWAP2 SWAP1 PUSH3 0x1CD JUMP JUMPDEST POP PUSH1 0x0 PUSH1 0xA SSTORE PUSH1 0x40 DUP1 MLOAD PUSH1 0x60 DUP2 ADD DUP3 MSTORE PUSH1 0x6 DUP2 MSTORE PUSH1 0x3 PUSH1 0x20 DUP3 ADD DUP2 SWAP1 MSTORE PUSH1 0x1 SWAP3 DUP3 ADD SWAP3 SWAP1 SWAP3 MSTORE PUSH3 0x8F SWAP2 PUSH1 0x10 SWAP2 SWAP1 PUSH3 0x286 JUMP JUMPDEST POP PUSH1 0x40 DUP1 MLOAD PUSH1 0x60 DUP2 ADD DUP3 MSTORE PUSH1 0x1E DUP2 MSTORE PUSH1 0xF PUSH1 0x20 DUP3 ADD MSTORE PUSH1 0x5 SWAP2 DUP2 ADD SWAP2 SWAP1 SWAP2 MSTORE PUSH3 0xBE SWAP1 PUSH1 0x11 SWAP1 PUSH1 0x3 PUSH3 0x286 JUMP JUMPDEST POP CALLVALUE DUP1 ISZERO PUSH3 0xCC JUMPI PUSH1 0x0 DUP1 REVERT JUMPDEST POP PUSH1 0x40 MLOAD PUSH3 0x2169 CODESIZE SUB DUP1 PUSH3 0x2169 DUP4 CODECOPY DUP2 ADD PUSH1 0x40 DUP2 SWAP1 MSTORE PUSH3 0xEF SWAP2 PUSH3 0x2F9 JUMP JUMPDEST PUSH3 0xFA CALLER PUSH3 0x17D JUMP JUMPDEST PUSH1 0xE DUP1 SLOAD PUSH1 0x1 PUSH1 0x1 PUSH1 0xA0 SHL SUB DUP1 DUP9 AND PUSH1 0x1 PUSH1 0x1 PUSH1 0xA0 SHL SUB NOT SWAP3 DUP4 AND OR SWAP1 SWAP3 SSTORE PUSH1 0x1 DUP1 SLOAD DUP7 DUP5 AND SWAP1 DUP4 AND OR SWAP1 SSTORE PUSH1 0xF DUP1 SLOAD SWAP3 DUP8 AND SWAP3 SWAP1 SWAP2 AND SWAP2 SWAP1 SWAP2 OR SWAP1 SSTORE PUSH1 0x3 DUP3 SWAP1 SSTORE PUSH1 0xB DUP2 SWAP1 SSTORE PUSH3 0x150 DUP2 PUSH3 0x76A700 PUSH3 0x35E JUMP JUMPDEST PUSH1 0xC SSTORE POP POP PUSH1 0x40 DUP1 MLOAD DUP1 DUP3 ADD SWAP1 SWAP2 MSTORE NUMBER DUP1 DUP3 MSTORE PUSH1 0x0 PUSH1 0x20 SWAP1 SWAP3 ADD DUP3 SWAP1 MSTORE PUSH1 0x4 SSTORE PUSH1 0x5 SSTORE POP PUSH3 0x385 SWAP2 POP POP JUMP JUMPDEST PUSH1 0x0 DUP1 SLOAD PUSH1 0x1 PUSH1 0x1 PUSH1 0xA0 SHL SUB DUP4 DUP2 AND PUSH1 0x1 PUSH1 0x1 PUSH1 0xA0 SHL SUB NOT DUP4 AND DUP2 OR DUP5 SSTORE PUSH1 0x40 MLOAD SWAP2 SWAP1 SWAP3 AND SWAP3 DUP4 SWAP2 PUSH32 0x8BE0079C531659141344CD1FD0A4F28419497F9722A3DAAFE3B4186F6B6457E0 SWAP2 SWAP1 LOG3 POP POP JUMP JUMPDEST DUP3 DUP1 SLOAD DUP3 DUP3 SSTORE SWAP1 PUSH1 0x0 MSTORE PUSH1 0x20 PUSH1 0x0 KECCAK256 SWAP1 PUSH1 0x3 ADD PUSH1 0x4 SWAP1 DIV DUP2 ADD SWAP3 DUP3 ISZERO PUSH3 0x274 JUMPI SWAP2 PUSH1 0x20 MUL DUP3 ADD PUSH1 0x0 JUMPDEST DUP4 DUP3 GT ISZERO PUSH3 0x23D JUMPI DUP4 MLOAD DUP4 DUP3 PUSH2 0x100 EXP DUP2 SLOAD DUP2 PUSH1 0x1 PUSH1 0x1 PUSH1 0x40 SHL SUB MUL NOT AND SWAP1 DUP4 PUSH1 0xFF AND MUL OR SWAP1 SSTORE POP SWAP3 PUSH1 0x20 ADD SWAP3 PUSH1 0x8 ADD PUSH1 0x20 DUP2 PUSH1 0x7 ADD DIV SWAP3 DUP4 ADD SWAP3 PUSH1 0x1 SUB MUL PUSH3 0x1F7 JUMP JUMPDEST DUP1 ISZERO PUSH3 0x272 JUMPI DUP3 DUP2 PUSH2 0x100 EXP DUP2 SLOAD SWAP1 PUSH1 0x1 PUSH1 0x1 PUSH1 0x40 SHL SUB MUL NOT AND SWAP1 SSTORE PUSH1 0x8 ADD PUSH1 0x20 DUP2 PUSH1 0x7 ADD DIV SWAP3 DUP4 ADD SWAP3 PUSH1 0x1 SUB MUL PUSH3 0x23D JUMP JUMPDEST POP JUMPDEST POP PUSH3 0x282 SWAP3 SWAP2 POP PUSH3 0x2C9 JUMP JUMPDEST POP SWAP1 JUMP JUMPDEST DUP3 DUP1 SLOAD DUP3 DUP3 SSTORE SWAP1 PUSH1 0x0 MSTORE PUSH1 0x20 PUSH1 0x0 KECCAK256 SWAP1 DUP2 ADD SWAP3 DUP3 ISZERO PUSH3 0x274 JUMPI SWAP2 PUSH1 0x20 MUL DUP3 ADD JUMPDEST DUP3 DUP2 GT ISZERO PUSH3 0x274 JUMPI DUP3 MLOAD DUP3 SWAP1 PUSH1 0xFF AND SWAP1 SSTORE SWAP2 PUSH1 0x20 ADD SWAP2 SWAP1 PUSH1 0x1 ADD SWAP1 PUSH3 0x2A7 JUMP JUMPDEST JUMPDEST DUP1 DUP3 GT ISZERO PUSH3 0x282 JUMPI PUSH1 0x0 DUP2 SSTORE PUSH1 0x1 ADD PUSH3 0x2CA JUMP JUMPDEST PUSH1 0x1 PUSH1 0x1 PUSH1 0xA0 SHL SUB DUP2 AND DUP2 EQ PUSH3 0x2F6 JUMPI PUSH1 0x0 DUP1 REVERT JUMPDEST POP JUMP JUMPDEST PUSH1 0x0 DUP1 PUSH1 0x0 DUP1 PUSH1 0x0 PUSH1 0xA0 DUP7 DUP9 SUB SLT ISZERO PUSH3 0x312 JUMPI PUSH1 0x0 DUP1 REVERT JUMPDEST DUP6 MLOAD PUSH3 0x31F DUP2 PUSH3 0x2E0 JUMP JUMPDEST PUSH1 0x20 DUP8 ADD MLOAD SWAP1 SWAP6 POP PUSH3 0x332 DUP2 PUSH3 0x2E0 JUMP JUMPDEST PUSH1 0x40 DUP8 ADD MLOAD SWAP1 SWAP5 POP PUSH3 0x345 DUP2 PUSH3 0x2E0 JUMP JUMPDEST PUSH1 0x60 DUP8 ADD MLOAD PUSH1 0x80 SWAP1 SWAP8 ADD MLOAD SWAP6 SWAP9 SWAP5 SWAP8 POP SWAP6 SWAP5 SWAP4 SWAP3 POP POP POP JUMP JUMPDEST PUSH1 0x0 DUP3 NOT DUP3 GT ISZERO PUSH3 0x380 JUMPI PUSH4 0x4E487B71 PUSH1 0xE0 SHL PUSH1 0x0 MSTORE PUSH1 0x11 PUSH1 0x4 MSTORE PUSH1 0x24 PUSH1 0x0 REVERT JUMPDEST POP ADD SWAP1 JUMP JUMPDEST PUSH2 0x1DD4 DUP1 PUSH3 0x395 PUSH1 0x0 CODECOPY PUSH1 0x0 RETURN INVALID PUSH1 0x80 PUSH1 0x40 MSTORE CALLVALUE DUP1 ISZERO PUSH2 0x10 JUMPI PUSH1 0x0 DUP1 REVERT JUMPDEST POP PUSH1 0x4 CALLDATASIZE LT PUSH2 0x18E JUMPI PUSH1 0x0 CALLDATALOAD PUSH1 0xE0 SHR DUP1 PUSH4 0x715018A6 GT PUSH2 0xDE JUMPI DUP1 PUSH4 0xACFF05B0 GT PUSH2 0x97 JUMPI DUP1 PUSH4 0xD4796EF2 GT PUSH2 0x71 JUMPI DUP1 PUSH4 0xD4796EF2 EQ PUSH2 0x406 JUMPI DUP1 PUSH4 0xE3161DDD EQ PUSH2 0x419 JUMPI DUP1 PUSH4 0xF2FDE38B EQ PUSH2 0x421 JUMPI DUP1 PUSH4 0xF6DD204F EQ PUSH2 0x434 JUMPI PUSH1 0x0 DUP1 REVERT JUMPDEST DUP1 PUSH4 0xACFF05B0 EQ PUSH2 0x396 JUMPI DUP1 PUSH4 0xB2520A7C EQ PUSH2 0x3A9 JUMPI DUP1 PUSH4 0xC91B46C6 EQ PUSH2 0x3FE JUMPI PUSH1 0x0 DUP1 REVERT JUMPDEST DUP1 PUSH4 0x715018A6 EQ PUSH2 0x33B JUMPI DUP1 PUSH4 0x785E9E86 EQ PUSH2 0x343 JUMPI DUP1 PUSH4 0x7F513D5D EQ PUSH2 0x356 JUMPI DUP1 PUSH4 0x8AE39CAC EQ PUSH2 0x369 JUMPI DUP1 PUSH4 0x8DA5CB5B EQ PUSH2 0x372 JUMPI DUP1 PUSH4 0x9F608DA3 EQ PUSH2 0x383 JUMPI PUSH1 0x0 DUP1 REVERT JUMPDEST DUP1 PUSH4 0x48CD4CB1 GT PUSH2 0x14B JUMPI DUP1 PUSH4 0x5EEBEA20 GT PUSH2 0x125 JUMPI DUP1 PUSH4 0x5EEBEA20 EQ PUSH2 0x2F7 JUMPI DUP1 PUSH4 0x60343CAE EQ PUSH2 0x30A JUMPI DUP1 PUSH4 0x6917C501 EQ PUSH2 0x31D JUMPI DUP1 PUSH4 0x6FF1C9BC EQ PUSH2 0x326 JUMPI PUSH1 0x0 DUP1 REVERT JUMPDEST DUP1 PUSH4 0x48CD4CB1 EQ PUSH2 0x2C2 JUMPI DUP1 PUSH4 0x5A2F3D09 EQ PUSH2 0x2CB JUMPI DUP1 PUSH4 0x5C76CA2D EQ PUSH2 0x2EE JUMPI PUSH1 0x0 DUP1 REVERT JUMPDEST DUP1 PUSH4 0x83C6323 EQ PUSH2 0x193 JUMPI DUP1 PUSH4 0x10B43ACF EQ PUSH2 0x1AF JUMPI DUP1 PUSH4 0x17CAF6F1 EQ PUSH2 0x1C2 JUMPI DUP1 PUSH4 0x1959A002 EQ PUSH2 0x1CB JUMPI DUP1 PUSH4 0x3F90916A EQ PUSH2 0x28F JUMPI DUP1 PUSH4 0x47646B9E EQ PUSH2 0x297 JUMPI JUMPDEST PUSH1 0x0 DUP1 REVERT JUMPDEST PUSH2 0x19C PUSH1 0xC SLOAD DUP2 JUMP JUMPDEST PUSH1 0x40 MLOAD SWAP1 DUP2 MSTORE PUSH1 0x20 ADD JUMPDEST PUSH1 0x40 MLOAD DUP1 SWAP2 SUB SWAP1 RETURN JUMPDEST PUSH2 0x19C PUSH2 0x1BD CALLDATASIZE PUSH1 0x4 PUSH2 0x189C JUMP JUMPDEST PUSH2 0x447 JUMP JUMPDEST PUSH2 0x19C PUSH1 0xA SLOAD DUP2 JUMP JUMPDEST PUSH2 0x238 PUSH2 0x1D9 CALLDATASIZE PUSH1 0x4 PUSH2 0x18CA JUMP JUMPDEST PUSH1 0x6 PUSH1 0x20 DUP2 SWAP1 MSTORE PUSH1 0x0 SWAP2 DUP3 MSTORE PUSH1 0x40 SWAP1 SWAP2 KECCAK256 DUP1 SLOAD PUSH1 0x1 DUP3 ADD SLOAD PUSH1 0x2 DUP4 ADD SLOAD PUSH1 0x4 DUP5 ADD SLOAD PUSH1 0x5 DUP6 ADD SLOAD SWAP6 DUP6 ADD SLOAD PUSH1 0x7 DUP7 ADD SLOAD PUSH1 0x8 DUP8 ADD SLOAD PUSH1 0x9 DUP9 ADD SLOAD PUSH1 0xA SWAP1 SWAP9 ADD SLOAD SWAP7 SWAP9 SWAP6 SWAP8 SWAP5 SWAP7 SWAP4 SWAP6 SWAP5 SWAP3 SWAP4 SWAP2 SWAP3 SWAP1 SWAP2 PUSH1 0xFF DUP1 DUP4 AND SWAP3 PUSH2 0x100 SWAP1 DIV AND SWAP1 DUP12 JUMP JUMPDEST PUSH1 0x40 DUP1 MLOAD SWAP12 DUP13 MSTORE PUSH1 0x20 DUP13 ADD SWAP11 SWAP1 SWAP11 MSTORE SWAP9 DUP11 ADD SWAP8 SWAP1 SWAP8 MSTORE PUSH1 0x60 DUP10 ADD SWAP6 SWAP1 SWAP6 MSTORE PUSH1 0x80 DUP9 ADD SWAP4 SWAP1 SWAP4 MSTORE PUSH1 0xA0 DUP8 ADD SWAP2 SWAP1 SWAP2 MSTORE PUSH1 0xC0 DUP7 ADD MSTORE PUSH1 0xE0 DUP6 ADD MSTORE ISZERO ISZERO PUSH2 0x100 DUP5 ADD MSTORE ISZERO ISZERO PUSH2 0x120 DUP4 ADD MSTORE PUSH2 0x140 DUP3 ADD MSTORE PUSH2 0x160 ADD PUSH2 0x1A6 JUMP JUMPDEST PUSH2 0x19C PUSH2 0x468 JUMP JUMPDEST PUSH1 0xF SLOAD PUSH2 0x2AA SWAP1 PUSH1 0x1 PUSH1 0x1 PUSH1 0xA0 SHL SUB AND DUP2 JUMP JUMPDEST PUSH1 0x40 MLOAD PUSH1 0x1 PUSH1 0x1 PUSH1 0xA0 SHL SUB SWAP1 SWAP2 AND DUP2 MSTORE PUSH1 0x20 ADD PUSH2 0x1A6 JUMP JUMPDEST PUSH2 0x19C PUSH1 0xB SLOAD DUP2 JUMP JUMPDEST PUSH1 0x4 SLOAD PUSH1 0x5 SLOAD PUSH2 0x2D9 SWAP2 SWAP1 DUP3 JUMP JUMPDEST PUSH1 0x40 DUP1 MLOAD SWAP3 DUP4 MSTORE PUSH1 0x20 DUP4 ADD SWAP2 SWAP1 SWAP2 MSTORE ADD PUSH2 0x1A6 JUMP JUMPDEST PUSH2 0x19C PUSH1 0x2 SLOAD DUP2 JUMP JUMPDEST PUSH2 0x19C PUSH2 0x305 CALLDATASIZE PUSH1 0x4 PUSH2 0x18CA JUMP JUMPDEST PUSH2 0x4BE JUMP JUMPDEST PUSH2 0x19C PUSH2 0x318 CALLDATASIZE PUSH1 0x4 PUSH2 0x189C JUMP JUMPDEST PUSH2 0x592 JUMP JUMPDEST PUSH2 0x19C PUSH1 0xD SLOAD DUP2 JUMP JUMPDEST PUSH2 0x339 PUSH2 0x334 CALLDATASIZE PUSH1 0x4 PUSH2 0x18CA JUMP JUMPDEST PUSH2 0x5A2 JUMP JUMPDEST STOP JUMPDEST PUSH2 0x339 PUSH2 0x6EF JUMP JUMPDEST PUSH1 0x1 SLOAD PUSH2 0x2AA SWAP1 PUSH1 0x1 PUSH1 0x1 PUSH1 0xA0 SHL SUB AND DUP2 JUMP JUMPDEST PUSH1 0xE SLOAD PUSH2 0x2AA SWAP1 PUSH1 0x1 PUSH1 0x1 PUSH1 0xA0 SHL SUB AND DUP2 JUMP JUMPDEST PUSH2 0x19C PUSH1 0x3 SLOAD DUP2 JUMP JUMPDEST PUSH1 0x0 SLOAD PUSH1 0x1 PUSH1 0x1 PUSH1 0xA0 SHL SUB AND PUSH2 0x2AA JUMP JUMPDEST PUSH2 0x339 PUSH2 0x391 CALLDATASIZE PUSH1 0x4 PUSH2 0x190C JUMP JUMPDEST PUSH2 0x725 JUMP JUMPDEST PUSH2 0x339 PUSH2 0x3A4 CALLDATASIZE PUSH1 0x4 PUSH2 0x189C JUMP JUMPDEST PUSH2 0xA48 JUMP JUMPDEST PUSH2 0x3E3 PUSH2 0x3B7 CALLDATASIZE PUSH1 0x4 PUSH2 0x1929 JUMP JUMPDEST PUSH1 0x7 PUSH1 0x20 SWAP1 DUP2 MSTORE PUSH1 0x0 SWAP3 DUP4 MSTORE PUSH1 0x40 DUP1 DUP5 KECCAK256 SWAP1 SWAP2 MSTORE SWAP1 DUP3 MSTORE SWAP1 KECCAK256 DUP1 SLOAD PUSH1 0x1 DUP3 ADD SLOAD PUSH1 0x2 SWAP1 SWAP3 ADD SLOAD SWAP1 SWAP2 SWAP1 DUP4 JUMP JUMPDEST PUSH1 0x40 DUP1 MLOAD SWAP4 DUP5 MSTORE PUSH1 0x20 DUP5 ADD SWAP3 SWAP1 SWAP3 MSTORE SWAP1 DUP3 ADD MSTORE PUSH1 0x60 ADD PUSH2 0x1A6 JUMP JUMPDEST PUSH2 0x339 PUSH2 0xCD9 JUMP JUMPDEST PUSH2 0x19C PUSH2 0x414 CALLDATASIZE PUSH1 0x4 PUSH2 0x189C JUMP JUMPDEST PUSH2 0x1050 JUMP JUMPDEST PUSH2 0x339 PUSH2 0x10B2 JUMP JUMPDEST PUSH2 0x339 PUSH2 0x42F CALLDATASIZE PUSH1 0x4 PUSH2 0x18CA JUMP JUMPDEST PUSH2 0x1138 JUMP JUMPDEST PUSH2 0x339 PUSH2 0x442 CALLDATASIZE PUSH1 0x4 PUSH2 0x19E0 JUMP JUMPDEST PUSH2 0x11D3 JUMP JUMPDEST PUSH1 0x11 DUP2 DUP2 SLOAD DUP2 LT PUSH2 0x457 JUMPI PUSH1 0x0 DUP1 REVERT JUMPDEST PUSH1 0x0 SWAP2 DUP3 MSTORE PUSH1 0x20 SWAP1 SWAP2 KECCAK256 ADD SLOAD SWAP1 POP DUP2 JUMP JUMPDEST PUSH1 0x0 PUSH1 0xB SLOAD NUMBER GT PUSH2 0x479 JUMPI POP PUSH1 0x0 SWAP1 JUMP JUMPDEST PUSH1 0x0 PUSH1 0xC SLOAD NUMBER LT PUSH2 0x48C JUMPI PUSH1 0xC SLOAD PUSH2 0x48E JUMP JUMPDEST NUMBER JUMPDEST SWAP1 POP PUSH1 0x2 SLOAD PUSH1 0xB SLOAD DUP3 PUSH2 0x4A1 SWAP2 SWAP1 PUSH2 0x1ABE JUMP JUMPDEST PUSH1 0x3 SLOAD PUSH2 0x4AE SWAP2 SWAP1 PUSH2 0x1AD5 JUMP JUMPDEST PUSH2 0x4B8 SWAP2 SWAP1 PUSH2 0x1ABE JUMP JUMPDEST SWAP2 POP POP SWAP1 JUMP JUMPDEST PUSH1 0x1 PUSH1 0x1 PUSH1 0xA0 SHL SUB DUP2 AND PUSH1 0x0 SWAP1 DUP2 MSTORE PUSH1 0x6 PUSH1 0x20 MSTORE PUSH1 0x40 DUP2 KECCAK256 PUSH1 0x5 SLOAD PUSH1 0x4 DUP1 SLOAD SWAP1 SWAP3 SWAP2 SWAP1 NUMBER GT DUP1 ISZERO PUSH2 0x4F0 JUMPI POP PUSH1 0xD SLOAD ISZERO ISZERO JUMPDEST ISZERO PUSH2 0x553 JUMPI PUSH1 0x0 PUSH1 0xC SLOAD NUMBER LT PUSH2 0x508 JUMPI PUSH1 0xC SLOAD PUSH2 0x50A JUMP JUMPDEST NUMBER JUMPDEST SWAP1 POP PUSH1 0x0 PUSH2 0x51C DUP6 PUSH1 0x0 ADD SLOAD DUP4 PUSH2 0x172B JUMP JUMPDEST PUSH1 0xD SLOAD SWAP1 SWAP2 POP PUSH2 0x53A DUP3 PUSH11 0xC097CE7BC90715B34B9F1 PUSH1 0x24 SHL PUSH2 0x1AD5 JUMP JUMPDEST PUSH2 0x544 SWAP2 SWAP1 PUSH2 0x1AF4 JUMP JUMPDEST PUSH2 0x54E SWAP1 DUP5 PUSH2 0x1B16 JUMP JUMPDEST SWAP3 POP POP POP JUMPDEST PUSH1 0x1 DUP3 ADD SLOAD DUP3 SLOAD PUSH11 0xC097CE7BC90715B34B9F1 PUSH1 0x24 SHL SWAP1 PUSH2 0x575 SWAP1 DUP5 SWAP1 PUSH2 0x1AD5 JUMP JUMPDEST PUSH2 0x57F SWAP2 SWAP1 PUSH2 0x1AF4 JUMP JUMPDEST PUSH2 0x589 SWAP2 SWAP1 PUSH2 0x1ABE JUMP JUMPDEST SWAP6 SWAP5 POP POP POP POP POP JUMP JUMPDEST PUSH1 0x10 DUP2 DUP2 SLOAD DUP2 LT PUSH2 0x457 JUMPI PUSH1 0x0 DUP1 REVERT JUMPDEST PUSH1 0x0 SLOAD PUSH1 0x1 PUSH1 0x1 PUSH1 0xA0 SHL SUB AND CALLER EQ PUSH2 0x5D5 JUMPI PUSH1 0x40 MLOAD PUSH3 0x461BCD PUSH1 0xE5 SHL DUP2 MSTORE PUSH1 0x4 ADD PUSH2 0x5CC SWAP1 PUSH2 0x1B2E JUMP JUMPDEST PUSH1 0x40 MLOAD DUP1 SWAP2 SUB SWAP1 REVERT JUMPDEST DUP1 PUSH1 0x1 PUSH1 0x1 PUSH1 0xA0 SHL SUB AND PUSH4 0xA9059CBB PUSH2 0x5F6 PUSH1 0x0 SLOAD PUSH1 0x1 PUSH1 0x1 PUSH1 0xA0 SHL SUB AND SWAP1 JUMP JUMPDEST PUSH1 0x40 MLOAD PUSH4 0x70A08231 PUSH1 0xE0 SHL DUP2 MSTORE ADDRESS PUSH1 0x4 DUP3 ADD MSTORE PUSH1 0x1 PUSH1 0x1 PUSH1 0xA0 SHL SUB DUP6 AND SWAP1 PUSH4 0x70A08231 SWAP1 PUSH1 0x24 ADD PUSH1 0x20 PUSH1 0x40 MLOAD DUP1 DUP4 SUB DUP2 DUP7 DUP1 EXTCODESIZE ISZERO DUP1 ISZERO PUSH2 0x635 JUMPI PUSH1 0x0 DUP1 REVERT JUMPDEST POP GAS STATICCALL ISZERO DUP1 ISZERO PUSH2 0x649 JUMPI RETURNDATASIZE PUSH1 0x0 DUP1 RETURNDATACOPY RETURNDATASIZE PUSH1 0x0 REVERT JUMPDEST POP POP POP POP PUSH1 0x40 MLOAD RETURNDATASIZE PUSH1 0x1F NOT PUSH1 0x1F DUP3 ADD AND DUP3 ADD DUP1 PUSH1 0x40 MSTORE POP DUP2 ADD SWAP1 PUSH2 0x66D SWAP2 SWAP1 PUSH2 0x1B63 JUMP JUMPDEST PUSH1 0x40 MLOAD PUSH1 0x1 PUSH1 0x1 PUSH1 0xE0 SHL SUB NOT PUSH1 0xE0 DUP6 SWAP1 SHL AND DUP2 MSTORE PUSH1 0x1 PUSH1 0x1 PUSH1 0xA0 SHL SUB SWAP1 SWAP3 AND PUSH1 0x4 DUP4 ADD MSTORE PUSH1 0x24 DUP3 ADD MSTORE PUSH1 0x44 ADD PUSH1 0x20 PUSH1 0x40 MLOAD DUP1 DUP4 SUB DUP2 PUSH1 0x0 DUP8 DUP1 EXTCODESIZE ISZERO DUP1 ISZERO PUSH2 0x6B3 JUMPI PUSH1 0x0 DUP1 REVERT JUMPDEST POP GAS CALL ISZERO DUP1 ISZERO PUSH2 0x6C7 JUMPI RETURNDATASIZE PUSH1 0x0 DUP1 RETURNDATACOPY RETURNDATASIZE PUSH1 0x0 REVERT JUMPDEST POP POP POP POP PUSH1 0x40 MLOAD RETURNDATASIZE PUSH1 0x1F NOT PUSH1 0x1F DUP3 ADD AND DUP3 ADD DUP1 PUSH1 0x40 MSTORE POP DUP2 ADD SWAP1 PUSH2 0x6EB SWAP2 SWAP1 PUSH2 0x1B7C JUMP JUMPDEST POP POP JUMP JUMPDEST PUSH1 0x0 SLOAD PUSH1 0x1 PUSH1 0x1 PUSH1 0xA0 SHL SUB AND CALLER EQ PUSH2 0x719 JUMPI PUSH1 0x40 MLOAD PUSH3 0x461BCD PUSH1 0xE5 SHL DUP2 MSTORE PUSH1 0x4 ADD PUSH2 0x5CC SWAP1 PUSH2 0x1B2E JUMP JUMPDEST PUSH2 0x723 PUSH1 0x0 PUSH2 0x174A JUMP JUMPDEST JUMP JUMPDEST CALLER PUSH1 0x0 SWAP1 DUP2 MSTORE PUSH1 0x6 PUSH1 0x20 MSTORE PUSH1 0x40 SWAP1 KECCAK256 PUSH1 0x9 DUP2 ADD SLOAD PUSH2 0x100 SWAP1 DIV PUSH1 0xFF AND PUSH2 0x74A JUMPI PUSH1 0x0 DUP1 REVERT JUMPDEST PUSH1 0x9 DUP2 ADD DUP1 SLOAD PUSH2 0xFF00 NOT AND SWAP1 SSTORE DUP2 PUSH2 0x9A5 JUMPI PUSH2 0x79B CALLER PUSH1 0x64 DUP1 DUP5 PUSH1 0xA ADD SLOAD DUP6 PUSH1 0x7 ADD SLOAD PUSH2 0x777 SWAP2 SWAP1 PUSH2 0x1AD5 JUMP JUMPDEST PUSH2 0x781 SWAP2 SWAP1 PUSH2 0x1AF4 JUMP JUMPDEST PUSH2 0x78C SWAP1 PUSH1 0x50 PUSH2 0x1AD5 JUMP JUMPDEST PUSH2 0x796 SWAP2 SWAP1 PUSH2 0x1AF4 JUMP JUMPDEST PUSH2 0x179A JUMP JUMPDEST CALLER PUSH1 0x0 JUMPDEST PUSH1 0xF PUSH1 0x0 SWAP1 SLOAD SWAP1 PUSH2 0x100 EXP SWAP1 DIV PUSH1 0x1 PUSH1 0x1 PUSH1 0xA0 SHL SUB AND PUSH1 0x1 PUSH1 0x1 PUSH1 0xA0 SHL SUB AND PUSH4 0xF842D40B PUSH1 0x40 MLOAD DUP2 PUSH4 0xFFFFFFFF AND PUSH1 0xE0 SHL DUP2 MSTORE PUSH1 0x4 ADD PUSH1 0x20 PUSH1 0x40 MLOAD DUP1 DUP4 SUB DUP2 DUP7 DUP1 EXTCODESIZE ISZERO DUP1 ISZERO PUSH2 0x7ED JUMPI PUSH1 0x0 DUP1 REVERT JUMPDEST POP GAS STATICCALL ISZERO DUP1 ISZERO PUSH2 0x801 JUMPI RETURNDATASIZE PUSH1 0x0 DUP1 RETURNDATACOPY RETURNDATASIZE PUSH1 0x0 REVERT JUMPDEST POP POP POP POP PUSH1 0x40 MLOAD RETURNDATASIZE PUSH1 0x1F NOT PUSH1 0x1F DUP3 ADD AND DUP3 ADD DUP1 PUSH1 0x40 MSTORE POP DUP2 ADD SWAP1 PUSH2 0x825 SWAP2 SWAP1 PUSH2 0x1B63 JUMP JUMPDEST DUP2 LT ISZERO PUSH2 0x99E JUMPI PUSH1 0xF SLOAD PUSH1 0x40 MLOAD PUSH4 0x1B43F311 PUSH1 0xE3 SHL DUP2 MSTORE PUSH1 0x1 PUSH1 0x1 PUSH1 0xA0 SHL SUB DUP5 DUP2 AND PUSH1 0x4 DUP4 ADD MSTORE SWAP1 SWAP2 AND SWAP1 PUSH4 0xDA1F9888 SWAP1 PUSH1 0x24 ADD PUSH1 0x20 PUSH1 0x40 MLOAD DUP1 DUP4 SUB DUP2 DUP7 DUP1 EXTCODESIZE ISZERO DUP1 ISZERO PUSH2 0x871 JUMPI PUSH1 0x0 DUP1 REVERT JUMPDEST POP GAS STATICCALL ISZERO DUP1 ISZERO PUSH2 0x885 JUMPI RETURNDATASIZE PUSH1 0x0 DUP1 RETURNDATACOPY RETURNDATASIZE PUSH1 0x0 REVERT JUMPDEST POP POP POP POP PUSH1 0x40 MLOAD RETURNDATASIZE PUSH1 0x1F NOT PUSH1 0x1F DUP3 ADD AND DUP3 ADD DUP1 PUSH1 0x40 MSTORE POP DUP2 ADD SWAP1 PUSH2 0x8A9 SWAP2 SWAP1 PUSH2 0x1B99 JUMP JUMPDEST SWAP2 POP PUSH1 0x1 PUSH1 0x1 PUSH1 0xA0 SHL SUB DUP3 AND ISZERO PUSH2 0x987 JUMPI PUSH1 0x0 PUSH1 0x10 DUP3 DUP2 SLOAD DUP2 LT PUSH2 0x8CF JUMPI PUSH2 0x8CF PUSH2 0x1BB6 JUMP JUMPDEST SWAP1 PUSH1 0x0 MSTORE PUSH1 0x20 PUSH1 0x0 KECCAK256 ADD SLOAD SWAP1 POP PUSH1 0x0 PUSH2 0x3E8 DUP3 PUSH1 0x64 DUP8 PUSH1 0xA ADD SLOAD DUP9 PUSH1 0x7 ADD SLOAD PUSH2 0x8F8 SWAP2 SWAP1 PUSH2 0x1AD5 JUMP JUMPDEST PUSH2 0x902 SWAP2 SWAP1 PUSH2 0x1AF4 JUMP JUMPDEST PUSH2 0x90C SWAP2 SWAP1 PUSH2 0x1AD5 JUMP JUMPDEST PUSH2 0x916 SWAP2 SWAP1 PUSH2 0x1AF4 JUMP JUMPDEST SWAP1 POP PUSH2 0x922 DUP5 DUP3 PUSH2 0x179A JUMP JUMPDEST PUSH32 0x61F9EFC09A7E2BFF53ABE4FCF2714BB516B14CE6B8893742CC587DE5CD88079 CALLER DUP6 PUSH2 0x950 DUP7 PUSH1 0x1 PUSH2 0x1B16 JUMP JUMPDEST PUSH1 0x40 DUP1 MLOAD PUSH1 0x1 PUSH1 0x1 PUSH1 0xA0 SHL SUB SWAP5 DUP6 AND DUP2 MSTORE SWAP4 SWAP1 SWAP3 AND PUSH1 0x20 DUP5 ADD MSTORE SWAP1 DUP3 ADD MSTORE PUSH1 0x60 DUP2 ADD DUP4 SWAP1 MSTORE PUSH1 0x80 ADD PUSH1 0x40 MLOAD DUP1 SWAP2 SUB SWAP1 LOG1 POP POP PUSH2 0x98C JUMP JUMPDEST PUSH2 0x99E JUMP JUMPDEST DUP1 PUSH2 0x996 DUP2 PUSH2 0x1BCC JUMP JUMPDEST SWAP2 POP POP PUSH2 0x79F JUMP JUMPDEST POP POP PUSH2 0xA36 JUMP JUMPDEST CALLER PUSH1 0x0 SWAP1 DUP2 MSTORE PUSH1 0x7 PUSH1 0x20 DUP2 DUP2 MSTORE PUSH1 0x40 DUP1 DUP5 KECCAK256 PUSH1 0x8 DUP7 ADD SLOAD DUP6 MSTORE SWAP1 SWAP2 MSTORE SWAP1 SWAP2 KECCAK256 TIMESTAMP SWAP1 SSTORE PUSH1 0xA DUP3 ADD SLOAD SWAP1 DUP3 ADD SLOAD PUSH1 0x64 SWAP2 DUP3 SWAP2 PUSH2 0x9DF SWAP2 SWAP1 PUSH2 0x1AD5 JUMP JUMPDEST PUSH2 0x9E9 SWAP2 SWAP1 PUSH2 0x1AF4 JUMP JUMPDEST PUSH2 0x9F4 SWAP1 PUSH1 0x73 PUSH2 0x1AD5 JUMP JUMPDEST PUSH2 0x9FE SWAP2 SWAP1 PUSH2 0x1AF4 JUMP JUMPDEST CALLER PUSH1 0x0 SWAP1 DUP2 MSTORE PUSH1 0x7 PUSH1 0x20 SWAP1 DUP2 MSTORE PUSH1 0x40 DUP1 DUP4 KECCAK256 PUSH1 0x8 DUP7 ADD DUP1 SLOAD DUP6 MSTORE SWAP3 MSTORE DUP3 KECCAK256 PUSH1 0x1 ADD SWAP3 SWAP1 SWAP3 SSTORE DUP2 SLOAD SWAP2 SWAP1 PUSH2 0xA30 DUP4 PUSH2 0x1BCC JUMP JUMPDEST SWAP2 SWAP1 POP SSTORE POP JUMPDEST PUSH1 0x0 PUSH1 0x7 DUP3 ADD DUP2 SWAP1 SSTORE PUSH1 0x1 SWAP1 SWAP2 ADD SSTORE POP JUMP JUMPDEST CALLER PUSH1 0x0 SWAP1 DUP2 MSTORE PUSH1 0x7 PUSH1 0x20 SWAP1 DUP2 MSTORE PUSH1 0x40 DUP1 DUP4 KECCAK256 DUP5 DUP5 MSTORE SWAP1 SWAP2 MSTORE SWAP1 KECCAK256 PUSH1 0x1 DUP2 ADD SLOAD PUSH2 0xA70 JUMPI PUSH1 0x0 DUP1 REVERT JUMPDEST PUSH1 0x1 DUP2 ADD SLOAD DUP2 SLOAD PUSH1 0x0 SWAP2 PUSH3 0x278D00 SWAP2 PUSH2 0xA89 SWAP1 TIMESTAMP PUSH2 0x1ABE JUMP JUMPDEST PUSH2 0xA93 SWAP2 SWAP1 PUSH2 0x1AD5 JUMP JUMPDEST PUSH2 0xA9D SWAP2 SWAP1 PUSH2 0x1AF4 JUMP JUMPDEST SWAP1 POP DUP2 PUSH1 0x1 ADD SLOAD DUP2 GT ISZERO PUSH2 0xAB2 JUMPI POP PUSH1 0x1 DUP2 ADD SLOAD JUMPDEST PUSH1 0x0 DUP3 PUSH1 0x2 ADD SLOAD DUP3 PUSH2 0xAC4 SWAP2 SWAP1 PUSH2 0x1ABE JUMP JUMPDEST SWAP1 POP PUSH2 0xAD7 CALLER PUSH1 0x64 PUSH2 0x78C DUP5 PUSH1 0x5F PUSH2 0x1AD5 JUMP JUMPDEST DUP1 DUP4 PUSH1 0x2 ADD PUSH1 0x0 DUP3 DUP3 SLOAD PUSH2 0xAEB SWAP2 SWAP1 PUSH2 0x1B16 JUMP JUMPDEST SWAP1 SWAP2 SSTORE POP CALLER SWAP1 POP PUSH1 0x0 JUMPDEST PUSH1 0xF PUSH1 0x0 SWAP1 SLOAD SWAP1 PUSH2 0x100 EXP SWAP1 DIV PUSH1 0x1 PUSH1 0x1 PUSH1 0xA0 SHL SUB AND PUSH1 0x1 PUSH1 0x1 PUSH1 0xA0 SHL SUB AND PUSH4 0xF842D40B PUSH1 0x40 MLOAD DUP2 PUSH4 0xFFFFFFFF AND PUSH1 0xE0 SHL DUP2 MSTORE PUSH1 0x4 ADD PUSH1 0x20 PUSH1 0x40 MLOAD DUP1 DUP4 SUB DUP2 DUP7 DUP1 EXTCODESIZE ISZERO DUP1 ISZERO PUSH2 0xB43 JUMPI PUSH1 0x0 DUP1 REVERT JUMPDEST POP GAS STATICCALL ISZERO DUP1 ISZERO PUSH2 0xB57 JUMPI RETURNDATASIZE PUSH1 0x0 DUP1 RETURNDATACOPY RETURNDATASIZE PUSH1 0x0 REVERT JUMPDEST POP POP POP POP PUSH1 0x40 MLOAD RETURNDATASIZE PUSH1 0x1F NOT PUSH1 0x1F DUP3 ADD AND DUP3 ADD DUP1 PUSH1 0x40 MSTORE POP DUP2 ADD SWAP1 PUSH2 0xB7B SWAP2 SWAP1 PUSH2 0x1B63 JUMP JUMPDEST DUP2 LT ISZERO PUSH2 0xCD1 JUMPI PUSH1 0xF SLOAD PUSH1 0x40 MLOAD PUSH4 0x1B43F311 PUSH1 0xE3 SHL DUP2 MSTORE PUSH1 0x1 PUSH1 0x1 PUSH1 0xA0 SHL SUB DUP5 DUP2 AND PUSH1 0x4 DUP4 ADD MSTORE SWAP1 SWAP2 AND SWAP1 PUSH4 0xDA1F9888 SWAP1 PUSH1 0x24 ADD PUSH1 0x20 PUSH1 0x40 MLOAD DUP1 DUP4 SUB DUP2 DUP7 DUP1 EXTCODESIZE ISZERO DUP1 ISZERO PUSH2 0xBC7 JUMPI PUSH1 0x0 DUP1 REVERT JUMPDEST POP GAS STATICCALL ISZERO DUP1 ISZERO PUSH2 0xBDB JUMPI RETURNDATASIZE PUSH1 0x0 DUP1 RETURNDATACOPY RETURNDATASIZE PUSH1 0x0 REVERT JUMPDEST POP POP POP POP PUSH1 0x40 MLOAD RETURNDATASIZE PUSH1 0x1F NOT PUSH1 0x1F DUP3 ADD AND DUP3 ADD DUP1 PUSH1 0x40 MSTORE POP DUP2 ADD SWAP1 PUSH2 0xBFF SWAP2 SWAP1 PUSH2 0x1B99 JUMP JUMPDEST SWAP2 POP PUSH1 0x1 PUSH1 0x1 PUSH1 0xA0 SHL SUB DUP3 AND ISZERO PUSH2 0xCBA JUMPI PUSH1 0x0 PUSH1 0x11 DUP3 DUP2 SLOAD DUP2 LT PUSH2 0xC25 JUMPI PUSH2 0xC25 PUSH2 0x1BB6 JUMP JUMPDEST PUSH1 0x0 SWAP2 DUP3 MSTORE PUSH1 0x20 DUP3 KECCAK256 ADD SLOAD SWAP2 POP PUSH2 0x3E8 PUSH2 0xC3F DUP4 DUP8 PUSH2 0x1AD5 JUMP JUMPDEST PUSH2 0xC49 SWAP2 SWAP1 PUSH2 0x1AF4 JUMP JUMPDEST SWAP1 POP PUSH2 0xC55 DUP5 DUP3 PUSH2 0x179A JUMP JUMPDEST PUSH32 0x61F9EFC09A7E2BFF53ABE4FCF2714BB516B14CE6B8893742CC587DE5CD88079 CALLER DUP6 PUSH2 0xC83 DUP7 PUSH1 0x1 PUSH2 0x1B16 JUMP JUMPDEST PUSH1 0x40 DUP1 MLOAD PUSH1 0x1 PUSH1 0x1 PUSH1 0xA0 SHL SUB SWAP5 DUP6 AND DUP2 MSTORE SWAP4 SWAP1 SWAP3 AND PUSH1 0x20 DUP5 ADD MSTORE SWAP1 DUP3 ADD MSTORE PUSH1 0x60 DUP2 ADD DUP4 SWAP1 MSTORE PUSH1 0x80 ADD PUSH1 0x40 MLOAD DUP1 SWAP2 SUB SWAP1 LOG1 POP POP PUSH2 0xCBF JUMP JUMPDEST PUSH2 0xCD1 JUMP JUMPDEST DUP1 PUSH2 0xCC9 DUP2 PUSH2 0x1BCC JUMP JUMPDEST SWAP2 POP POP PUSH2 0xAF5 JUMP JUMPDEST POP POP POP POP POP POP JUMP JUMPDEST CALLER PUSH1 0x0 SWAP1 DUP2 MSTORE PUSH1 0x6 PUSH1 0x20 MSTORE PUSH1 0x40 SWAP1 KECCAK256 PUSH1 0x9 DUP2 ADD SLOAD PUSH1 0x4 SWAP2 SWAP1 PUSH1 0xFF AND PUSH2 0xD53 JUMPI PUSH1 0x40 MLOAD PUSH3 0x461BCD PUSH1 0xE5 SHL DUP2 MSTORE PUSH1 0x20 PUSH1 0x4 DUP3 ADD MSTORE PUSH1 0x2A PUSH1 0x24 DUP3 ADD MSTORE PUSH32 0x77697468647261773A2063616E2774207769746864726177206D6F7265207468 PUSH1 0x44 DUP3 ADD MSTORE PUSH10 0x185B8819195C1BDCDA5D PUSH1 0xB2 SHL PUSH1 0x64 DUP3 ADD MSTORE PUSH1 0x84 ADD PUSH2 0x5CC JUMP JUMPDEST DUP1 SLOAD PUSH1 0xD DUP1 SLOAD PUSH1 0x0 SWAP1 PUSH2 0xD67 SWAP1 DUP5 SWAP1 PUSH2 0x1ABE JUMP JUMPDEST SWAP1 SWAP2 SSTORE POP PUSH2 0xD75 SWAP1 POP PUSH2 0x10B2 JUMP JUMPDEST PUSH1 0x0 DUP2 PUSH1 0x1 ADD SLOAD PUSH11 0xC097CE7BC90715B34B9F1 PUSH1 0x24 SHL DUP5 PUSH1 0x1 ADD SLOAD DUP5 PUSH1 0x0 ADD SLOAD PUSH2 0xD9F SWAP2 SWAP1 PUSH2 0x1AD5 JUMP JUMPDEST PUSH2 0xDA9 SWAP2 SWAP1 PUSH2 0x1AF4 JUMP JUMPDEST PUSH2 0xDB3 SWAP2 SWAP1 PUSH2 0x1ABE JUMP JUMPDEST SWAP1 POP DUP1 DUP3 PUSH1 0x7 ADD PUSH1 0x0 DUP3 DUP3 SLOAD PUSH2 0xDC9 SWAP2 SWAP1 PUSH2 0x1B16 JUMP JUMPDEST SWAP1 SWAP2 SSTORE POP POP PUSH1 0x1 DUP4 ADD SLOAD DUP3 SLOAD PUSH11 0xC097CE7BC90715B34B9F1 PUSH1 0x24 SHL SWAP2 PUSH2 0xDEE SWAP2 PUSH2 0x1AD5 JUMP JUMPDEST PUSH2 0xDF8 SWAP2 SWAP1 PUSH2 0x1AF4 JUMP JUMPDEST PUSH1 0x1 DUP4 ADD SSTORE PUSH1 0x0 JUMPDEST PUSH1 0x3 DUP4 ADD SLOAD DUP2 LT ISZERO PUSH2 0xEC2 JUMPI PUSH1 0xE SLOAD PUSH1 0x3 DUP5 ADD DUP1 SLOAD PUSH1 0x1 PUSH1 0x1 PUSH1 0xA0 SHL SUB SWAP1 SWAP3 AND SWAP2 PUSH4 0x23B872DD SWAP2 ADDRESS SWAP2 CALLER SWAP2 SWAP1 DUP7 SWAP1 DUP2 LT PUSH2 0xE3C JUMPI PUSH2 0xE3C PUSH2 0x1BB6 JUMP JUMPDEST PUSH1 0x0 SWAP2 DUP3 MSTORE PUSH1 0x20 SWAP1 SWAP2 KECCAK256 ADD SLOAD PUSH1 0x40 MLOAD PUSH1 0x1 PUSH1 0x1 PUSH1 0xE0 SHL SUB NOT PUSH1 0xE0 DUP7 SWAP1 SHL AND DUP2 MSTORE PUSH1 0x1 PUSH1 0x1 PUSH1 0xA0 SHL SUB SWAP4 DUP5 AND PUSH1 0x4 DUP3 ADD MSTORE SWAP3 SWAP1 SWAP2 AND PUSH1 0x24 DUP4 ADD MSTORE PUSH1 0x44 DUP3 ADD MSTORE PUSH1 0x64 ADD PUSH1 0x0 PUSH1 0x40 MLOAD DUP1 DUP4 SUB DUP2 PUSH1 0x0 DUP8 DUP1 EXTCODESIZE ISZERO DUP1 ISZERO PUSH2 0xE97 JUMPI PUSH1 0x0 DUP1 REVERT JUMPDEST POP GAS CALL ISZERO DUP1 ISZERO PUSH2 0xEAB JUMPI RETURNDATASIZE PUSH1 0x0 DUP1 RETURNDATACOPY RETURNDATASIZE PUSH1 0x0 REVERT JUMPDEST POP POP POP POP DUP1 DUP1 PUSH2 0xEBA SWAP1 PUSH2 0x1BCC JUMP JUMPDEST SWAP2 POP POP PUSH2 0xE00 JUMP JUMPDEST POP DUP2 PUSH1 0x5 ADD SLOAD TIMESTAMP LT PUSH2 0xEDA JUMPI PUSH1 0x64 PUSH1 0xA DUP4 ADD SSTORE PUSH2 0x1018 JUMP JUMPDEST PUSH1 0x0 PUSH3 0x15180 DUP4 PUSH1 0x4 ADD SLOAD TIMESTAMP PUSH2 0xEF0 SWAP2 SWAP1 PUSH2 0x1ABE JUMP JUMPDEST PUSH2 0xEFA SWAP2 SWAP1 PUSH2 0x1AF4 JUMP JUMPDEST SWAP1 POP PUSH1 0x1 DUP2 LT ISZERO PUSH2 0xF0A JUMPI PUSH1 0x0 DUP1 REVERT JUMPDEST PUSH1 0x6 DUP4 ADD SLOAD PUSH2 0xF33 JUMPI PUSH2 0xF1E DUP2 PUSH1 0xA PUSH2 0x1AD5 JUMP JUMPDEST PUSH2 0xF29 SWAP1 PUSH1 0x1E PUSH2 0x1B16 JUMP JUMPDEST PUSH1 0xA DUP5 ADD SSTORE PUSH2 0x1016 JUMP JUMPDEST DUP3 PUSH1 0x6 ADD SLOAD PUSH1 0x1 EQ ISZERO PUSH2 0xFA7 JUMPI DUP1 PUSH1 0x1 LT DUP1 ISZERO PUSH2 0xF51 JUMPI POP PUSH1 0x4 DUP2 GT ISZERO JUMPDEST ISZERO PUSH2 0xF62 JUMPI PUSH1 0x1E PUSH1 0xA DUP5 ADD SSTORE PUSH2 0x1016 JUMP JUMPDEST DUP1 PUSH1 0x4 LT DUP1 ISZERO PUSH2 0xF73 JUMPI POP PUSH1 0x8 DUP2 GT ISZERO JUMPDEST ISZERO PUSH2 0xF84 JUMPI PUSH1 0x3C PUSH1 0xA DUP5 ADD SSTORE PUSH2 0x1016 JUMP JUMPDEST DUP1 PUSH1 0x8 LT DUP1 ISZERO PUSH2 0xF95 JUMPI POP PUSH1 0xD DUP2 GT ISZERO JUMPDEST ISZERO PUSH2 0xFA2 JUMPI PUSH1 0x50 PUSH1 0xA DUP5 ADD SSTORE JUMPDEST PUSH2 0x1016 JUMP JUMPDEST DUP3 PUSH1 0x6 ADD SLOAD PUSH1 0x2 EQ ISZERO PUSH2 0x1016 JUMPI DUP1 PUSH1 0x1 LT DUP1 ISZERO PUSH2 0xFC5 JUMPI POP PUSH1 0xA DUP2 GT ISZERO JUMPDEST ISZERO PUSH2 0xFD6 JUMPI PUSH1 0x1E PUSH1 0xA DUP5 ADD SSTORE PUSH2 0x1016 JUMP JUMPDEST DUP1 PUSH1 0xA LT DUP1 ISZERO PUSH2 0xFE7 JUMPI POP PUSH1 0x14 DUP2 GT ISZERO JUMPDEST ISZERO PUSH2 0xFF8 JUMPI PUSH1 0x3C PUSH1 0xA DUP5 ADD SSTORE PUSH2 0x1016 JUMP JUMPDEST DUP1 PUSH1 0x14 LT DUP1 ISZERO PUSH2 0x1009 JUMPI POP PUSH1 0x1D DUP2 GT ISZERO JUMPDEST ISZERO PUSH2 0x1016 JUMPI PUSH1 0x50 PUSH1 0xA DUP5 ADD SSTORE JUMPDEST POP JUMPDEST PUSH1 0x40 DUP1 MLOAD PUSH1 0x0 DUP2 MSTORE PUSH1 0x20 DUP2 ADD SWAP2 DUP3 SWAP1 MSTORE MLOAD PUSH2 0x1037 SWAP2 PUSH1 0x3 DUP6 ADD SWAP2 PUSH2 0x183C JUMP JUMPDEST POP POP PUSH1 0x0 DUP2 SSTORE PUSH1 0x9 ADD DUP1 SLOAD PUSH2 0xFFFF NOT AND PUSH2 0x100 OR SWAP1 SSTORE POP JUMP JUMPDEST PUSH1 0x0 PUSH1 0xD SLOAD PUSH1 0x0 EQ ISZERO PUSH2 0x1066 JUMPI POP PUSH2 0x2710 SWAP2 SWAP1 POP JUMP JUMPDEST DUP2 PUSH2 0x1077 JUMPI PUSH8 0xDE0B6B3A7640000 SWAP2 POP JUMPDEST PUSH2 0x3E8 PUSH1 0xD SLOAD PUSH1 0x3 SLOAD DUP5 PUSH2 0x108B SWAP2 SWAP1 PUSH2 0x1AD5 JUMP JUMPDEST PUSH2 0x1098 SWAP1 PUSH3 0x76A700 PUSH2 0x1AD5 JUMP JUMPDEST PUSH2 0x10A2 SWAP2 SWAP1 PUSH2 0x1AF4 JUMP JUMPDEST PUSH2 0x10AC SWAP2 SWAP1 PUSH2 0x1AF4 JUMP JUMPDEST SWAP3 SWAP2 POP POP JUMP JUMPDEST PUSH1 0xC SLOAD PUSH1 0x4 SWAP1 PUSH1 0x0 SWAP1 NUMBER LT PUSH2 0x10C9 JUMPI PUSH1 0xC SLOAD PUSH2 0x10CB JUMP JUMPDEST NUMBER JUMPDEST DUP3 SLOAD SWAP1 SWAP2 POP DUP2 GT PUSH2 0x10DA JUMPI POP POP JUMP JUMPDEST PUSH1 0xD SLOAD PUSH2 0x10E5 JUMPI SWAP1 SSTORE JUMP JUMPDEST PUSH1 0x0 PUSH2 0x10F5 DUP4 PUSH1 0x0 ADD SLOAD DUP4 PUSH2 0x172B JUMP JUMPDEST PUSH1 0xD SLOAD SWAP1 SWAP2 POP PUSH2 0x1113 DUP3 PUSH11 0xC097CE7BC90715B34B9F1 PUSH1 0x24 SHL PUSH2 0x1AD5 JUMP JUMPDEST PUSH2 0x111D SWAP2 SWAP1 PUSH2 0x1AF4 JUMP JUMPDEST DUP4 PUSH1 0x1 ADD SLOAD PUSH2 0x112C SWAP2 SWAP1 PUSH2 0x1B16 JUMP JUMPDEST PUSH1 0x1 DUP5 ADD SSTORE POP POP NUMBER SWAP1 SSTORE JUMP JUMPDEST PUSH1 0x0 SLOAD PUSH1 0x1 PUSH1 0x1 PUSH1 0xA0 SHL SUB AND CALLER EQ PUSH2 0x1162 JUMPI PUSH1 0x40 MLOAD PUSH3 0x461BCD PUSH1 0xE5 SHL DUP2 MSTORE PUSH1 0x4 ADD PUSH2 0x5CC SWAP1 PUSH2 0x1B2E JUMP JUMPDEST PUSH1 0x1 PUSH1 0x1 PUSH1 0xA0 SHL SUB DUP2 AND PUSH2 0x11C7 JUMPI PUSH1 0x40 MLOAD PUSH3 0x461BCD PUSH1 0xE5 SHL DUP2 MSTORE PUSH1 0x20 PUSH1 0x4 DUP3 ADD MSTORE PUSH1 0x26 PUSH1 0x24 DUP3 ADD MSTORE PUSH32 0x4F776E61626C653A206E6577206F776E657220697320746865207A65726F2061 PUSH1 0x44 DUP3 ADD MSTORE PUSH6 0x646472657373 PUSH1 0xD0 SHL PUSH1 0x64 DUP3 ADD MSTORE PUSH1 0x84 ADD PUSH2 0x5CC JUMP JUMPDEST PUSH2 0x11D0 DUP2 PUSH2 0x174A JUMP JUMPDEST POP JUMP JUMPDEST CALLER PUSH1 0x0 SWAP1 DUP2 MSTORE PUSH1 0x6 PUSH1 0x20 MSTORE PUSH1 0x40 SWAP1 KECCAK256 PUSH1 0x9 DUP2 ADD SLOAD PUSH1 0x4 SWAP2 SWAP1 PUSH2 0x100 SWAP1 DIV PUSH1 0xFF AND ISZERO PUSH2 0x11FD JUMPI PUSH1 0x0 DUP1 REVERT JUMPDEST PUSH1 0x9 DUP2 ADD SLOAD PUSH1 0xFF AND ISZERO PUSH2 0x12B4 JUMPI DUP1 PUSH1 0x6 ADD SLOAD DUP5 PUSH1 0xFF AND EQ PUSH2 0x121D JUMPI PUSH1 0x0 DUP1 REVERT JUMPDEST TIMESTAMP PUSH1 0x8 DUP3 PUSH1 0x6 ADD SLOAD DUP2 SLOAD DUP2 LT PUSH2 0x1235 JUMPI PUSH2 0x1235 PUSH2 0x1BB6 JUMP JUMPDEST SWAP1 PUSH1 0x0 MSTORE PUSH1 0x20 PUSH1 0x0 KECCAK256 SWAP1 PUSH1 0x4 SWAP2 DUP3 DUP3 DIV ADD SWAP2 SWAP1 MOD PUSH1 0x8 MUL SWAP1 SLOAD SWAP1 PUSH2 0x100 EXP SWAP1 DIV PUSH8 0xFFFFFFFFFFFFFFFF AND PUSH8 0xFFFFFFFFFFFFFFFF AND DUP3 PUSH1 0x4 ADD SLOAD PUSH2 0x1278 SWAP2 SWAP1 PUSH2 0x1B16 JUMP JUMPDEST LT PUSH2 0x12AF JUMPI PUSH1 0x40 MLOAD PUSH3 0x461BCD PUSH1 0xE5 SHL DUP2 MSTORE PUSH1 0x20 PUSH1 0x4 DUP3 ADD MSTORE PUSH1 0x7 PUSH1 0x24 DUP3 ADD MSTORE PUSH7 0x115E1C1A5C9959 PUSH1 0xCA SHL PUSH1 0x44 DUP3 ADD MSTORE PUSH1 0x64 ADD PUSH2 0x5CC JUMP JUMPDEST PUSH2 0x1342 JUMP JUMPDEST PUSH1 0x3 DUP5 PUSH1 0xFF AND LT PUSH2 0x12C4 JUMPI PUSH1 0x0 DUP1 REVERT JUMPDEST PUSH1 0x9 DUP2 ADD DUP1 SLOAD PUSH1 0xFF NOT AND PUSH1 0x1 OR SWAP1 SSTORE PUSH1 0xFF DUP5 AND PUSH1 0x6 DUP3 ADD DUP2 SWAP1 SSTORE TIMESTAMP PUSH1 0x4 DUP4 ADD SSTORE PUSH1 0x8 DUP1 SLOAD SWAP1 SWAP2 SWAP1 DUP2 LT PUSH2 0x12F9 JUMPI PUSH2 0x12F9 PUSH2 0x1BB6 JUMP JUMPDEST SWAP1 PUSH1 0x0 MSTORE PUSH1 0x20 PUSH1 0x0 KECCAK256 SWAP1 PUSH1 0x4 SWAP2 DUP3 DUP3 DIV ADD SWAP2 SWAP1 MOD PUSH1 0x8 MUL SWAP1 SLOAD SWAP1 PUSH2 0x100 EXP SWAP1 DIV PUSH8 0xFFFFFFFFFFFFFFFF AND PUSH8 0xFFFFFFFFFFFFFFFF AND DUP2 PUSH1 0x4 ADD SLOAD PUSH2 0x133C SWAP2 SWAP1 PUSH2 0x1B16 JUMP JUMPDEST PUSH1 0x5 DUP3 ADD SSTORE JUMPDEST PUSH1 0x0 DUP1 PUSH1 0x0 JUMPDEST DUP8 MLOAD DUP2 LT ISZERO PUSH2 0x14D6 JUMPI PUSH1 0xE SLOAD DUP9 MLOAD PUSH1 0x0 SWAP2 PUSH1 0x1 PUSH1 0x1 PUSH1 0xA0 SHL SUB AND SWAP1 PUSH4 0x21D80111 SWAP1 DUP12 SWAP1 DUP6 SWAP1 DUP2 LT PUSH2 0x137B JUMPI PUSH2 0x137B PUSH2 0x1BB6 JUMP JUMPDEST PUSH1 0x20 MUL PUSH1 0x20 ADD ADD MLOAD PUSH1 0x40 MLOAD DUP3 PUSH4 0xFFFFFFFF AND PUSH1 0xE0 SHL DUP2 MSTORE PUSH1 0x4 ADD PUSH2 0x13A1 SWAP2 DUP2 MSTORE PUSH1 0x20 ADD SWAP1 JUMP JUMPDEST PUSH2 0x220 PUSH1 0x40 MLOAD DUP1 DUP4 SUB DUP2 DUP7 DUP1 EXTCODESIZE ISZERO DUP1 ISZERO PUSH2 0x13BA JUMPI PUSH1 0x0 DUP1 REVERT JUMPDEST POP GAS STATICCALL ISZERO DUP1 ISZERO PUSH2 0x13CE JUMPI RETURNDATASIZE PUSH1 0x0 DUP1 RETURNDATACOPY RETURNDATASIZE PUSH1 0x0 REVERT JUMPDEST POP POP POP POP PUSH1 0x40 MLOAD RETURNDATASIZE PUSH1 0x1F NOT PUSH1 0x1F DUP3 ADD AND DUP3 ADD DUP1 PUSH1 0x40 MSTORE POP DUP2 ADD SWAP1 PUSH2 0x13F2 SWAP2 SWAP1 PUSH2 0x1C7F JUMP JUMPDEST SWAP1 POP DUP1 PUSH2 0x160 ADD MLOAD DUP5 PUSH2 0x1405 SWAP2 SWAP1 PUSH2 0x1B16 JUMP JUMPDEST PUSH1 0xE SLOAD DUP11 MLOAD SWAP2 SWAP6 POP PUSH1 0x1 PUSH1 0x1 PUSH1 0xA0 SHL SUB AND SWAP1 PUSH4 0x23B872DD SWAP1 CALLER SWAP1 ADDRESS SWAP1 DUP14 SWAP1 DUP8 SWAP1 DUP2 LT PUSH2 0x1433 JUMPI PUSH2 0x1433 PUSH2 0x1BB6 JUMP JUMPDEST PUSH1 0x20 SWAP1 DUP2 MUL SWAP2 SWAP1 SWAP2 ADD ADD MLOAD PUSH1 0x40 MLOAD PUSH1 0x1 PUSH1 0x1 PUSH1 0xE0 SHL SUB NOT PUSH1 0xE0 DUP7 SWAP1 SHL AND DUP2 MSTORE PUSH1 0x1 PUSH1 0x1 PUSH1 0xA0 SHL SUB SWAP4 DUP5 AND PUSH1 0x4 DUP3 ADD MSTORE SWAP3 SWAP1 SWAP2 AND PUSH1 0x24 DUP4 ADD MSTORE PUSH1 0x44 DUP3 ADD MSTORE PUSH1 0x64 ADD PUSH1 0x0 PUSH1 0x40 MLOAD DUP1 DUP4 SUB DUP2 PUSH1 0x0 DUP8 DUP1 EXTCODESIZE ISZERO DUP1 ISZERO PUSH2 0x148D JUMPI PUSH1 0x0 DUP1 REVERT JUMPDEST POP GAS CALL ISZERO DUP1 ISZERO PUSH2 0x14A1 JUMPI RETURNDATASIZE PUSH1 0x0 DUP1 RETURNDATACOPY RETURNDATASIZE PUSH1 0x0 REVERT JUMPDEST POP POP POP POP DUP1 PUSH1 0x60 ADD MLOAD PUSH1 0xFF AND PUSH1 0x4 EQ ISZERO PUSH2 0x14C3 JUMPI DUP3 PUSH2 0x14BF DUP2 PUSH2 0x1BCC JUMP JUMPDEST SWAP4 POP POP JUMPDEST POP DUP1 PUSH2 0x14CE DUP2 PUSH2 0x1BCC JUMP JUMPDEST SWAP2 POP POP PUSH2 0x1348 JUMP JUMPDEST POP DUP1 ISZERO PUSH2 0x150C JUMPI PUSH1 0x64 PUSH2 0x14EA DUP3 PUSH1 0xA PUSH2 0x1AD5 JUMP JUMPDEST PUSH2 0x14F5 SWAP1 PUSH1 0x64 PUSH2 0x1B16 JUMP JUMPDEST PUSH2 0x14FF SWAP1 DUP5 PUSH2 0x1AD5 JUMP JUMPDEST PUSH2 0x1509 SWAP2 SWAP1 PUSH2 0x1AF4 JUMP JUMPDEST SWAP2 POP JUMPDEST DUP5 ISZERO PUSH2 0x162E JUMPI PUSH1 0x1 SLOAD PUSH1 0x1 PUSH1 0x1 PUSH1 0xA0 SHL SUB AND PUSH4 0x23B872DD CALLER ADDRESS PUSH2 0x1536 DUP7 PUSH7 0x38D7EA4C68000 PUSH2 0x1AD5 JUMP JUMPDEST PUSH1 0x40 MLOAD PUSH1 0x1 PUSH1 0x1 PUSH1 0xE0 SHL SUB NOT PUSH1 0xE0 DUP7 SWAP1 SHL AND DUP2 MSTORE PUSH1 0x1 PUSH1 0x1 PUSH1 0xA0 SHL SUB SWAP4 DUP5 AND PUSH1 0x4 DUP3 ADD MSTORE SWAP3 SWAP1 SWAP2 AND PUSH1 0x24 DUP4 ADD MSTORE PUSH1 0x44 DUP3 ADD MSTORE PUSH1 0x64 ADD PUSH1 0x20 PUSH1 0x40 MLOAD DUP1 DUP4 SUB DUP2 PUSH1 0x0 DUP8 DUP1 EXTCODESIZE ISZERO DUP1 ISZERO PUSH2 0x1585 JUMPI PUSH1 0x0 DUP1 REVERT JUMPDEST POP GAS CALL ISZERO DUP1 ISZERO PUSH2 0x1599 JUMPI RETURNDATASIZE PUSH1 0x0 DUP1 RETURNDATACOPY RETURNDATASIZE PUSH1 0x0 REVERT JUMPDEST POP POP POP POP PUSH1 0x40 MLOAD RETURNDATASIZE PUSH1 0x1F NOT PUSH1 0x1F DUP3 ADD AND DUP3 ADD DUP1 PUSH1 0x40 MSTORE POP DUP2 ADD SWAP1 PUSH2 0x15BD SWAP2 SWAP1 PUSH2 0x1B7C JUMP JUMPDEST POP PUSH1 0x64 PUSH1 0x9 DUP5 PUSH1 0x6 ADD SLOAD DUP2 SLOAD DUP2 LT PUSH2 0x15D7 JUMPI PUSH2 0x15D7 PUSH2 0x1BB6 JUMP JUMPDEST SWAP1 PUSH1 0x0 MSTORE PUSH1 0x20 PUSH1 0x0 KECCAK256 SWAP1 PUSH1 0x4 SWAP2 DUP3 DUP3 DIV ADD SWAP2 SWAP1 MOD PUSH1 0x8 MUL SWAP1 SLOAD SWAP1 PUSH2 0x100 EXP SWAP1 DIV PUSH8 0xFFFFFFFFFFFFFFFF AND PUSH1 0x64 PUSH2 0x160D SWAP2 SWAP1 PUSH2 0x1D72 JUMP JUMPDEST PUSH2 0x1621 SWAP1 PUSH8 0xFFFFFFFFFFFFFFFF AND DUP5 PUSH2 0x1AD5 JUMP JUMPDEST PUSH2 0x162B SWAP2 SWAP1 PUSH2 0x1AF4 JUMP JUMPDEST SWAP2 POP JUMPDEST PUSH2 0x1636 PUSH2 0x10B2 JUMP JUMPDEST DUP2 PUSH1 0xD PUSH1 0x0 DUP3 DUP3 SLOAD PUSH2 0x1648 SWAP2 SWAP1 PUSH2 0x1B16 JUMP JUMPDEST SWAP1 SWAP2 SSTORE POP POP DUP3 SLOAD ISZERO PUSH2 0x16AF JUMPI PUSH1 0x0 DUP4 PUSH1 0x1 ADD SLOAD PUSH11 0xC097CE7BC90715B34B9F1 PUSH1 0x24 SHL DUP7 PUSH1 0x1 ADD SLOAD DUP7 PUSH1 0x0 ADD SLOAD PUSH2 0x167E SWAP2 SWAP1 PUSH2 0x1AD5 JUMP JUMPDEST PUSH2 0x1688 SWAP2 SWAP1 PUSH2 0x1AF4 JUMP JUMPDEST PUSH2 0x1692 SWAP2 SWAP1 PUSH2 0x1ABE JUMP JUMPDEST SWAP1 POP DUP1 DUP5 PUSH1 0x7 ADD PUSH1 0x0 DUP3 DUP3 SLOAD PUSH2 0x16A8 SWAP2 SWAP1 PUSH2 0x1B16 JUMP JUMPDEST SWAP1 SWAP2 SSTORE POP POP POP JUMPDEST DUP3 SLOAD PUSH2 0x16BC SWAP1 DUP4 SWAP1 PUSH2 0x1B16 JUMP JUMPDEST DUP1 DUP5 SSTORE PUSH1 0x1 DUP6 ADD SLOAD PUSH11 0xC097CE7BC90715B34B9F1 PUSH1 0x24 SHL SWAP2 PUSH2 0x16DE SWAP2 SWAP1 PUSH2 0x1AD5 JUMP JUMPDEST PUSH2 0x16E8 SWAP2 SWAP1 PUSH2 0x1AF4 JUMP JUMPDEST PUSH1 0x1 DUP5 ADD SSTORE PUSH1 0x40 MLOAD DUP3 DUP2 MSTORE CALLER SWAP1 PUSH32 0xE1FFFCC4923D04B559F4D29A8BFC6CDA04EB5B0D3C460751C2402C5C5CC9109C SWAP1 PUSH1 0x20 ADD PUSH1 0x40 MLOAD DUP1 SWAP2 SUB SWAP1 LOG2 POP POP POP POP POP POP POP JUMP JUMPDEST PUSH1 0x0 DUP1 PUSH2 0x1738 DUP5 DUP5 PUSH2 0x1ABE JUMP JUMPDEST SWAP1 POP PUSH1 0x0 PUSH1 0x3 SLOAD DUP3 PUSH2 0x589 SWAP2 SWAP1 PUSH2 0x1ABE JUMP JUMPDEST PUSH1 0x0 DUP1 SLOAD PUSH1 0x1 PUSH1 0x1 PUSH1 0xA0 SHL SUB DUP4 DUP2 AND PUSH1 0x1 PUSH1 0x1 PUSH1 0xA0 SHL SUB NOT DUP4 AND DUP2 OR DUP5 SSTORE PUSH1 0x40 MLOAD SWAP2 SWAP1 SWAP3 AND SWAP3 DUP4 SWAP2 PUSH32 0x8BE0079C531659141344CD1FD0A4F28419497F9722A3DAAFE3B4186F6B6457E0 SWAP2 SWAP1 LOG3 POP POP JUMP JUMPDEST PUSH1 0x1 SLOAD PUSH1 0x40 MLOAD PUSH4 0xA9059CBB PUSH1 0xE0 SHL DUP2 MSTORE PUSH1 0x1 PUSH1 0x1 PUSH1 0xA0 SHL SUB DUP5 DUP2 AND PUSH1 0x4 DUP4 ADD MSTORE PUSH1 0x24 DUP3 ADD DUP5 SWAP1 MSTORE SWAP1 SWAP2 AND SWAP1 PUSH4 0xA9059CBB SWAP1 PUSH1 0x44 ADD PUSH1 0x20 PUSH1 0x40 MLOAD DUP1 DUP4 SUB DUP2 PUSH1 0x0 DUP8 DUP1 EXTCODESIZE ISZERO DUP1 ISZERO PUSH2 0x17E8 JUMPI PUSH1 0x0 DUP1 REVERT JUMPDEST POP GAS CALL ISZERO DUP1 ISZERO PUSH2 0x17FC JUMPI RETURNDATASIZE PUSH1 0x0 DUP1 RETURNDATACOPY RETURNDATASIZE PUSH1 0x0 REVERT JUMPDEST POP POP POP POP PUSH1 0x40 MLOAD RETURNDATASIZE PUSH1 0x1F NOT PUSH1 0x1F DUP3 ADD AND DUP3 ADD DUP1 PUSH1 0x40 MSTORE POP DUP2 ADD SWAP1 PUSH2 0x1820 SWAP2 SWAP1 PUSH2 0x1B7C JUMP JUMPDEST POP DUP1 PUSH1 0x2 PUSH1 0x0 DUP3 DUP3 SLOAD PUSH2 0x1833 SWAP2 SWAP1 PUSH2 0x1B16 JUMP JUMPDEST SWAP1 SWAP2 SSTORE POP POP POP POP JUMP JUMPDEST DUP3 DUP1 SLOAD DUP3 DUP3 SSTORE SWAP1 PUSH1 0x0 MSTORE PUSH1 0x20 PUSH1 0x0 KECCAK256 SWAP1 DUP2 ADD SWAP3 DUP3 ISZERO PUSH2 0x1877 JUMPI SWAP2 PUSH1 0x20 MUL DUP3 ADD JUMPDEST DUP3 DUP2 GT ISZERO PUSH2 0x1877 JUMPI DUP3 MLOAD DUP3 SSTORE SWAP2 PUSH1 0x20 ADD SWAP2 SWAP1 PUSH1 0x1 ADD SWAP1 PUSH2 0x185C JUMP JUMPDEST POP PUSH2 0x1883 SWAP3 SWAP2 POP PUSH2 0x1887 JUMP JUMPDEST POP SWAP1 JUMP JUMPDEST JUMPDEST DUP1 DUP3 GT ISZERO PUSH2 0x1883 JUMPI PUSH1 0x0 DUP2 SSTORE PUSH1 0x1 ADD PUSH2 0x1888 JUMP JUMPDEST PUSH1 0x0 PUSH1 0x20 DUP3 DUP5 SUB SLT ISZERO PUSH2 0x18AE JUMPI PUSH1 0x0 DUP1 REVERT JUMPDEST POP CALLDATALOAD SWAP2 SWAP1 POP JUMP JUMPDEST PUSH1 0x1 PUSH1 0x1 PUSH1 0xA0 SHL SUB DUP2 AND DUP2 EQ PUSH2 0x11D0 JUMPI PUSH1 0x0 DUP1 REVERT JUMPDEST PUSH1 0x0 PUSH1 0x20 DUP3 DUP5 SUB SLT ISZERO PUSH2 0x18DC JUMPI PUSH1 0x0 DUP1 REVERT JUMPDEST DUP2 CALLDATALOAD PUSH2 0x18E7 DUP2 PUSH2 0x18B5 JUMP JUMPDEST SWAP4 SWAP3 POP POP POP JUMP JUMPDEST DUP1 ISZERO ISZERO DUP2 EQ PUSH2 0x11D0 JUMPI PUSH1 0x0 DUP1 REVERT JUMPDEST DUP1 CALLDATALOAD PUSH2 0x1907 DUP2 PUSH2 0x18EE JUMP JUMPDEST SWAP2 SWAP1 POP JUMP JUMPDEST PUSH1 0x0 PUSH1 0x20 DUP3 DUP5 SUB SLT ISZERO PUSH2 0x191E JUMPI PUSH1 0x0 DUP1 REVERT JUMPDEST DUP2 CALLDATALOAD PUSH2 0x18E7 DUP2 PUSH2 0x18EE JUMP JUMPDEST PUSH1 0x0 DUP1 PUSH1 0x40 DUP4 DUP6 SUB SLT ISZERO PUSH2 0x193C JUMPI PUSH1 0x0 DUP1 REVERT JUMPDEST DUP3 CALLDATALOAD PUSH2 0x1947 DUP2 PUSH2 0x18B5 JUMP JUMPDEST SWAP5 PUSH1 0x20 SWAP4 SWAP1 SWAP4 ADD CALLDATALOAD SWAP4 POP POP POP JUMP JUMPDEST PUSH4 0x4E487B71 PUSH1 0xE0 SHL PUSH1 0x0 MSTORE PUSH1 0x41 PUSH1 0x4 MSTORE PUSH1 0x24 PUSH1 0x0 REVERT JUMPDEST PUSH1 0x40 MLOAD PUSH2 0x1A0 DUP2 ADD PUSH8 0xFFFFFFFFFFFFFFFF DUP2 GT DUP3 DUP3 LT OR ISZERO PUSH2 0x198F JUMPI PUSH2 0x198F PUSH2 0x1955 JUMP JUMPDEST PUSH1 0x40 MSTORE SWAP1 JUMP JUMPDEST PUSH1 0x40 MLOAD PUSH1 0x1F DUP3 ADD PUSH1 0x1F NOT AND DUP2 ADD PUSH8 0xFFFFFFFFFFFFFFFF DUP2 GT DUP3 DUP3 LT OR ISZERO PUSH2 0x19BE JUMPI PUSH2 0x19BE PUSH2 0x1955 JUMP JUMPDEST PUSH1 0x40 MSTORE SWAP2 SWAP1 POP JUMP JUMPDEST PUSH1 0xFF DUP2 AND DUP2 EQ PUSH2 0x11D0 JUMPI PUSH1 0x0 DUP1 REVERT JUMPDEST DUP1 CALLDATALOAD PUSH2 0x1907 DUP2 PUSH2 0x19C6 JUMP JUMPDEST PUSH1 0x0 DUP1 PUSH1 0x0 PUSH1 0x60 DUP5 DUP7 SUB SLT ISZERO PUSH2 0x19F5 JUMPI PUSH1 0x0 DUP1 REVERT JUMPDEST DUP4 CALLDATALOAD PUSH8 0xFFFFFFFFFFFFFFFF DUP1 DUP3 GT ISZERO PUSH2 0x1A0D JUMPI PUSH1 0x0 DUP1 REVERT JUMPDEST DUP2 DUP7 ADD SWAP2 POP DUP7 PUSH1 0x1F DUP4 ADD SLT PUSH2 0x1A21 JUMPI PUSH1 0x0 DUP1 REVERT JUMPDEST DUP2 CALLDATALOAD PUSH1 0x20 DUP3 DUP3 GT ISZERO PUSH2 0x1A35 JUMPI PUSH2 0x1A35 PUSH2 0x1955 JUMP JUMPDEST DUP2 PUSH1 0x5 SHL SWAP3 POP PUSH2 0x1A46 DUP2 DUP5 ADD PUSH2 0x1995 JUMP JUMPDEST DUP3 DUP2 MSTORE SWAP3 DUP5 ADD DUP2 ADD SWAP3 DUP2 DUP2 ADD SWAP1 DUP11 DUP6 GT ISZERO PUSH2 0x1A60 JUMPI PUSH1 0x0 DUP1 REVERT JUMPDEST SWAP5 DUP3 ADD SWAP5 JUMPDEST DUP5 DUP7 LT ISZERO PUSH2 0x1A7E JUMPI DUP6 CALLDATALOAD DUP3 MSTORE SWAP5 DUP3 ADD SWAP5 SWAP1 DUP3 ADD SWAP1 PUSH2 0x1A65 JUMP JUMPDEST SWAP8 POP PUSH2 0x1A8D SWAP1 POP DUP9 DUP3 ADD PUSH2 0x19D5 JUMP JUMPDEST SWAP6 POP POP POP POP POP PUSH2 0x1A9F PUSH1 0x40 DUP6 ADD PUSH2 0x18FC JUMP JUMPDEST SWAP1 POP SWAP3 POP SWAP3 POP SWAP3 JUMP JUMPDEST PUSH4 0x4E487B71 PUSH1 0xE0 SHL PUSH1 0x0 MSTORE PUSH1 0x11 PUSH1 0x4 MSTORE PUSH1 0x24 PUSH1 0x0 REVERT JUMPDEST PUSH1 0x0 DUP3 DUP3 LT ISZERO PUSH2 0x1AD0 JUMPI PUSH2 0x1AD0 PUSH2 0x1AA8 JUMP JUMPDEST POP SUB SWAP1 JUMP JUMPDEST PUSH1 0x0 DUP2 PUSH1 0x0 NOT DIV DUP4 GT DUP3 ISZERO ISZERO AND ISZERO PUSH2 0x1AEF JUMPI PUSH2 0x1AEF PUSH2 0x1AA8 JUMP JUMPDEST POP MUL SWAP1 JUMP JUMPDEST PUSH1 0x0 DUP3 PUSH2 0x1B11 JUMPI PUSH4 0x4E487B71 PUSH1 0xE0 SHL PUSH1 0x0 MSTORE PUSH1 0x12 PUSH1 0x4 MSTORE PUSH1 0x24 PUSH1 0x0 REVERT JUMPDEST POP DIV SWAP1 JUMP JUMPDEST PUSH1 0x0 DUP3 NOT DUP3 GT ISZERO PUSH2 0x1B29 JUMPI PUSH2 0x1B29 PUSH2 0x1AA8 JUMP JUMPDEST POP ADD SWAP1 JUMP JUMPDEST PUSH1 0x20 DUP1 DUP3 MSTORE DUP2 DUP2 ADD MSTORE PUSH32 0x4F776E61626C653A2063616C6C6572206973206E6F7420746865206F776E6572 PUSH1 0x40 DUP3 ADD MSTORE PUSH1 0x60 ADD SWAP1 JUMP JUMPDEST PUSH1 0x0 PUSH1 0x20 DUP3 DUP5 SUB SLT ISZERO PUSH2 0x1B75 JUMPI PUSH1 0x0 DUP1 REVERT JUMPDEST POP MLOAD SWAP2 SWAP1 POP JUMP JUMPDEST PUSH1 0x0 PUSH1 0x20 DUP3 DUP5 SUB SLT ISZERO PUSH2 0x1B8E JUMPI PUSH1 0x0 DUP1 REVERT JUMPDEST DUP2 MLOAD PUSH2 0x18E7 DUP2 PUSH2 0x18EE JUMP JUMPDEST PUSH1 0x0 PUSH1 0x20 DUP3 DUP5 SUB SLT ISZERO PUSH2 0x1BAB JUMPI PUSH1 0x0 DUP1 REVERT JUMPDEST DUP2 MLOAD PUSH2 0x18E7 DUP2 PUSH2 0x18B5 JUMP JUMPDEST PUSH4 0x4E487B71 PUSH1 0xE0 SHL PUSH1 0x0 MSTORE PUSH1 0x32 PUSH1 0x4 MSTORE PUSH1 0x24 PUSH1 0x0 REVERT JUMPDEST PUSH1 0x0 PUSH1 0x0 NOT DUP3 EQ ISZERO PUSH2 0x1BE0 JUMPI PUSH2 0x1BE0 PUSH2 0x1AA8 JUMP JUMPDEST POP PUSH1 0x1 ADD SWAP1 JUMP JUMPDEST DUP1 MLOAD PUSH2 0x1907 DUP2 PUSH2 0x19C6 JUMP JUMPDEST DUP1 MLOAD PUSH8 0xFFFFFFFFFFFFFFFF DUP2 AND DUP2 EQ PUSH2 0x1907 JUMPI PUSH1 0x0 DUP1 REVERT JUMPDEST PUSH1 0x0 DUP3 PUSH1 0x1F DUP4 ADD SLT PUSH2 0x1C1B JUMPI PUSH1 0x0 DUP1 REVERT JUMPDEST PUSH1 0x40 MLOAD PUSH1 0xA0 DUP2 ADD DUP2 DUP2 LT PUSH8 0xFFFFFFFFFFFFFFFF DUP3 GT OR ISZERO PUSH2 0x1C3E JUMPI PUSH2 0x1C3E PUSH2 0x1955 JUMP JUMPDEST PUSH1 0x40 MSTORE DUP1 PUSH1 0xA0 DUP5 ADD DUP6 DUP2 GT ISZERO PUSH2 0x1C53 JUMPI PUSH1 0x0 DUP1 REVERT JUMPDEST DUP5 JUMPDEST DUP2 DUP2 LT ISZERO PUSH2 0x1C74 JUMPI PUSH2 0x1C66 DUP2 PUSH2 0x1BF2 JUMP JUMPDEST DUP4 MSTORE PUSH1 0x20 SWAP3 DUP4 ADD SWAP3 ADD PUSH2 0x1C55 JUMP JUMPDEST POP SWAP2 SWAP6 SWAP5 POP POP POP POP POP JUMP JUMPDEST PUSH1 0x0 PUSH2 0x220 DUP3 DUP5 SUB SLT ISZERO PUSH2 0x1C92 JUMPI PUSH1 0x0 DUP1 REVERT JUMPDEST PUSH2 0x1C9A PUSH2 0x196B JUMP JUMPDEST DUP3 MLOAD DUP2 MSTORE PUSH2 0x1CAA PUSH1 0x20 DUP5 ADD PUSH2 0x1BE7 JUMP JUMPDEST PUSH1 0x20 DUP3 ADD MSTORE PUSH2 0x1CBB PUSH1 0x40 DUP5 ADD PUSH2 0x1BE7 JUMP JUMPDEST PUSH1 0x40 DUP3 ADD MSTORE PUSH2 0x1CCC PUSH1 0x60 DUP5 ADD PUSH2 0x1BE7 JUMP JUMPDEST PUSH1 0x60 DUP3 ADD MSTORE PUSH2 0x1CDD PUSH1 0x80 DUP5 ADD PUSH2 0x1BE7 JUMP JUMPDEST PUSH1 0x80 DUP3 ADD MSTORE PUSH2 0x1CEE PUSH1 0xA0 DUP5 ADD PUSH2 0x1BE7 JUMP JUMPDEST PUSH1 0xA0 DUP3 ADD MSTORE PUSH2 0x1CFF PUSH1 0xC0 DUP5 ADD PUSH2 0x1BE7 JUMP JUMPDEST PUSH1 0xC0 DUP3 ADD MSTORE PUSH2 0x1D10 PUSH1 0xE0 DUP5 ADD PUSH2 0x1BE7 JUMP JUMPDEST PUSH1 0xE0 DUP3 ADD MSTORE PUSH2 0x100 PUSH2 0x1D23 DUP2 DUP6 ADD PUSH2 0x1BF2 JUMP JUMPDEST SWAP1 DUP3 ADD MSTORE PUSH2 0x120 PUSH2 0x1D35 DUP5 DUP3 ADD PUSH2 0x1BF2 JUMP JUMPDEST SWAP1 DUP3 ADD MSTORE PUSH2 0x140 PUSH2 0x1D48 DUP6 DUP6 DUP4 ADD PUSH2 0x1C0A JUMP JUMPDEST SWAP1 DUP3 ADD MSTORE PUSH2 0x1E0 DUP4 ADD MLOAD PUSH2 0x160 DUP3 ADD MSTORE PUSH2 0x1D65 PUSH2 0x200 DUP5 ADD PUSH2 0x1BE7 JUMP JUMPDEST PUSH2 0x180 DUP3 ADD MSTORE SWAP4 SWAP3 POP POP POP JUMP JUMPDEST PUSH1 0x0 PUSH8 0xFFFFFFFFFFFFFFFF DUP1 DUP4 AND DUP2 DUP6 AND DUP1 DUP4 SUB DUP3 GT ISZERO PUSH2 0x1D95 JUMPI PUSH2 0x1D95 PUSH2 0x1AA8 JUMP JUMPDEST ADD SWAP5 SWAP4 POP POP POP POP JUMP INVALID LOG2 PUSH5 0x6970667358 0x22 SLT KECCAK256 0x26 0xBC SWAP3 DELEGATECALL 0x5C PUSH23 0xE1C6A2120AEDA3F4C6869A8E96632F311C9383E5B85E41 0xD3 CALLDATALOAD PUSH3 0x64736F PUSH13 0x63430008080033000000000000 "
    },
    "gasEstimates": {
      "creation": {
        "codeDepositCost": "1527200",
        "executionCost": "infinite",
        "totalCost": "infinite"
      },
      "external": {
        "APYPercent(uint256)": "infinite",
        "claimHero()": "infinite",
        "decideClaimForm(bool)": "infinite",
        "deposit(uint256[],uint8,bool)": "infinite",
        "emergencyWithdraw(address)": "infinite",
        "endBlock()": "2308",
        "erc20()": "2382",
        "form1InviteAward(uint256)": "4631",
        "form2InviteAward(uint256)": "4610",
        "hero()": "2404",
        "inviterContract()": "2471",
        "lockInfo(address,uint256)": "6948",
        "lockRewardWithdraw(uint256)": "infinite",
        "owner()": "2442",
        "paidOut()": "2374",
        "pending(address)": "infinite",
        "poolInfo()": "4496",
        "renounceOwnership()": "28137",
        "rewardPerBlock()": "2373",
        "startBlock()": "2330",
        "totalAllocPoint()": "2352",
        "totalPending()": "infinite",
        "totalPowers()": "2373",
        "transferOwnership(address)": "infinite",
        "updatePool()": "infinite",
        "userInfo(address)": "21886"
      },
      "internal": {
        "computerReward(uint256,uint256)": "infinite",
        "erc20Transfer(address,uint256)": "infinite"
      }
    },
    "methodIdentifiers": {
      "APYPercent(uint256)": "d4796ef2",
      "claimHero()": "c91b46c6",
      "decideClaimForm(bool)": "9f608da3",
      "deposit(uint256[],uint8,bool)": "f6dd204f",
      "emergencyWithdraw(address)": "6ff1c9bc",
      "endBlock()": "083c6323",
      "erc20()": "785e9e86",
      "form1InviteAward(uint256)": "60343cae",
      "form2InviteAward(uint256)": "10b43acf",
      "hero()": "7f513d5d",
      "inviterContract()": "47646b9e",
      "lockInfo(address,uint256)": "b2520a7c",
      "lockRewardWithdraw(uint256)": "acff05b0",
      "owner()": "8da5cb5b",
      "paidOut()": "5c76ca2d",
      "pending(address)": "5eebea20",
      "poolInfo()": "5a2f3d09",
      "renounceOwnership()": "715018a6",
      "rewardPerBlock()": "8ae39cac",
      "startBlock()": "48cd4cb1",
      "totalAllocPoint()": "17caf6f1",
      "totalPending()": "3f90916a",
      "totalPowers()": "6917c501",
      "transferOwnership(address)": "f2fde38b",
      "updatePool()": "e3161ddd",
      "userInfo(address)": "1959a002"
    }
  },
  "abi": [
    {
      "inputs": [
        {
          "internalType": "contract IRichHero",
          "name": "_hero",
          "type": "address"
        },
        {
          "internalType": "address",
          "name": "_invite",
          "type": "address"
        },
        {
          "internalType": "contract IERC20",
          "name": "_erc20",
          "type": "address"
        },
        {
          "internalType": "uint256",
          "name": "_rewardPerBlock",
          "type": "uint256"
        },
        {
          "internalType": "uint256",
          "name": "_startBlock",
          "type": "uint256"
        }
      ],
      "stateMutability": "nonpayable",
      "type": "constructor"
    },
    {
      "anonymous": false,
      "inputs": [
        {
          "indexed": true,
          "internalType": "address",
          "name": "user",
          "type": "address"
        },
        {
          "indexed": false,
          "internalType": "uint256",
          "name": "amount",
          "type": "uint256"
        }
      ],
      "name": "Deposit",
      "type": "event"
    },
    {
      "anonymous": false,
      "inputs": [
        {
          "indexed": true,
          "internalType": "address",
          "name": "user",
          "type": "address"
        },
        {
          "indexed": false,
          "internalType": "uint256",
          "name": "amount",
          "type": "uint256"
        }
      ],
      "name": "EmergencyWithdraw",
      "type": "event"
    },
    {
      "anonymous": false,
      "inputs": [
        {
          "indexed": false,
          "internalType": "address",
          "name": "buyer",
          "type": "address"
        },
        {
          "indexed": false,
          "internalType": "address",
          "name": "inviter",
          "type": "address"
        },
        {
          "indexed": false,
          "internalType": "uint256",
          "name": "generation",
          "type": "uint256"
        },
        {
          "indexed": false,
          "internalType": "uint256",
          "name": "amount",
          "type": "uint256"
        }
      ],
      "name": "InviterClaim",
      "type": "event"
    },
    {
      "anonymous": false,
      "inputs": [
        {
          "indexed": true,
          "internalType": "address",
          "name": "previousOwner",
          "type": "address"
        },
        {
          "indexed": true,
          "internalType": "address",
          "name": "newOwner",
          "type": "address"
        }
      ],
      "name": "OwnershipTransferred",
      "type": "event"
    },
    {
      "anonymous": false,
      "inputs": [
        {
          "indexed": true,
          "internalType": "address",
          "name": "user",
          "type": "address"
        },
        {
          "indexed": false,
          "internalType": "uint256",
          "name": "amount",
          "type": "uint256"
        }
      ],
      "name": "Withdraw",
      "type": "event"
    },
    {
      "inputs": [
        {
          "internalType": "uint256",
          "name": "power",
          "type": "uint256"
        }
      ],
      "name": "APYPercent",
      "outputs": [
        {
          "internalType": "uint256",
          "name": "apy",
          "type": "uint256"
        }
      ],
      "stateMutability": "view",
      "type": "function"
    },
    {
      "inputs": [],
      "name": "claimHero",
      "outputs": [],
      "stateMutability": "nonpayable",
      "type": "function"
    },
    {
      "inputs": [
        {
          "internalType": "bool",
          "name": "isLockClaim",
          "type": "bool"
        }
      ],
      "name": "decideClaimForm",
      "outputs": [],
      "stateMutability": "nonpayable",
      "type": "function"
    },
    {
      "inputs": [
        {
          "internalType": "uint256[]",
          "name": "_tokenIds",
          "type": "uint256[]"
        },
        {
          "internalType": "uint8",
          "name": "difficulty",
          "type": "uint8"
        },
        {
          "internalType": "bool",
          "name": "stakingMdao",
          "type": "bool"
        }
      ],
      "name": "deposit",
      "outputs": [],
      "stateMutability": "nonpayable",
      "type": "function"
    },
    {
      "inputs": [
        {
          "internalType": "address",
          "name": "token",
          "type": "address"
        }
      ],
      "name": "emergencyWithdraw",
      "outputs": [],
      "stateMutability": "nonpayable",
      "type": "function"
    },
    {
      "inputs": [],
      "name": "endBlock",
      "outputs": [
        {
          "internalType": "uint256",
          "name": "",
          "type": "uint256"
        }
      ],
      "stateMutability": "view",
      "type": "function"
    },
    {
      "inputs": [],
      "name": "erc20",
      "outputs": [
        {
          "internalType": "contract IERC20",
          "name": "",
          "type": "address"
        }
      ],
      "stateMutability": "view",
      "type": "function"
    },
    {
      "inputs": [
        {
          "internalType": "uint256",
          "name": "",
          "type": "uint256"
        }
      ],
      "name": "form1InviteAward",
      "outputs": [
        {
          "internalType": "uint256",
          "name": "",
          "type": "uint256"
        }
      ],
      "stateMutability": "view",
      "type": "function"
    },
    {
      "inputs": [
        {
          "internalType": "uint256",
          "name": "",
          "type": "uint256"
        }
      ],
      "name": "form2InviteAward",
      "outputs": [
        {
          "internalType": "uint256",
          "name": "",
          "type": "uint256"
        }
      ],
      "stateMutability": "view",
      "type": "function"
    },
    {
      "inputs": [],
      "name": "hero",
      "outputs": [
        {
          "internalType": "contract IRichHero",
          "name": "",
          "type": "address"
        }
      ],
      "stateMutability": "view",
      "type": "function"
    },
    {
      "inputs": [],
      "name": "inviterContract",
      "outputs": [
        {
          "internalType": "contract Invite",
          "name": "",
          "type": "address"
        }
      ],
      "stateMutability": "view",
      "type": "function"
    },
    {
      "inputs": [
        {
          "internalType": "address",
          "name": "",
          "type": "address"
        },
        {
          "internalType": "uint256",
          "name": "",
          "type": "uint256"
        }
      ],
      "name": "lockInfo",
      "outputs": [
        {
          "internalType": "uint256",
          "name": "claimStartTime",
          "type": "uint256"
        },
        {
          "internalType": "uint256",
          "name": "rewardAmount",
          "type": "uint256"
        },
        {
          "internalType": "uint256",
          "name": "claimedAmount",
          "type": "uint256"
        }
      ],
      "stateMutability": "view",
      "type": "function"
    },
    {
      "inputs": [
        {
          "internalType": "uint256",
          "name": "lockId",
          "type": "uint256"
        }
      ],
      "name": "lockRewardWithdraw",
      "outputs": [],
      "stateMutability": "nonpayable",
      "type": "function"
    },
    {
      "inputs": [],
      "name": "owner",
      "outputs": [
        {
          "internalType": "address",
          "name": "",
          "type": "address"
        }
      ],
      "stateMutability": "view",
      "type": "function"
    },
    {
      "inputs": [],
      "name": "paidOut",
      "outputs": [
        {
          "internalType": "uint256",
          "name": "",
          "type": "uint256"
        }
      ],
      "stateMutability": "view",
      "type": "function"
    },
    {
      "inputs": [
        {
          "internalType": "address",
          "name": "_user",
          "type": "address"
        }
      ],
      "name": "pending",
      "outputs": [
        {
          "internalType": "uint256",
          "name": "",
          "type": "uint256"
        }
      ],
      "stateMutability": "view",
      "type": "function"
    },
    {
      "inputs": [],
      "name": "poolInfo",
      "outputs": [
        {
          "internalType": "uint256",
          "name": "lastRewardBlock",
          "type": "uint256"
        },
        {
          "internalType": "uint256",
          "name": "accPowerPerShare",
          "type": "uint256"
        }
      ],
      "stateMutability": "view",
      "type": "function"
    },
    {
      "inputs": [],
      "name": "renounceOwnership",
      "outputs": [],
      "stateMutability": "nonpayable",
      "type": "function"
    },
    {
      "inputs": [],
      "name": "rewardPerBlock",
      "outputs": [
        {
          "internalType": "uint256",
          "name": "",
          "type": "uint256"
        }
      ],
      "stateMutability": "view",
      "type": "function"
    },
    {
      "inputs": [],
      "name": "startBlock",
      "outputs": [
        {
          "internalType": "uint256",
          "name": "",
          "type": "uint256"
        }
      ],
      "stateMutability": "view",
      "type": "function"
    },
    {
      "inputs": [],
      "name": "totalAllocPoint",
      "outputs": [
        {
          "internalType": "uint256",
          "name": "",
          "type": "uint256"
        }
      ],
      "stateMutability": "view",
      "type": "function"
    },
    {
      "inputs": [],
      "name": "totalPending",
      "outputs": [
        {
          "internalType": "uint256",
          "name": "",
          "type": "uint256"
        }
      ],
      "stateMutability": "view",
      "type": "function"
    },
    {
      "inputs": [],
      "name": "totalPowers",
      "outputs": [
        {
          "internalType": "uint256",
          "name": "",
          "type": "uint256"
        }
      ],
      "stateMutability": "view",
      "type": "function"
    },
    {
      "inputs": [
        {
          "internalType": "address",
          "name": "newOwner",
          "type": "address"
        }
      ],
      "name": "transferOwnership",
      "outputs": [],
      "stateMutability": "nonpayable",
      "type": "function"
    },
    {
      "inputs": [],
      "name": "updatePool",
      "outputs": [],
      "stateMutability": "nonpayable",
      "type": "function"
    },
    {
      "inputs": [
        {
          "internalType": "address",
          "name": "",
          "type": "address"
        }
      ],
      "name": "userInfo",
      "outputs": [
        {
          "internalType": "uint256",
          "name": "power",
          "type": "uint256"
        },
        {
          "internalType": "uint256",
          "name": "rewardDebt",
          "type": "uint256"
        },
        {
          "internalType": "uint256",
          "name": "mdao",
          "type": "uint256"
        },
        {
          "internalType": "uint256",
          "name": "startTime",
          "type": "uint256"
        },
        {
          "internalType": "uint256",
          "name": "endTime",
          "type": "uint256"
        },
        {
          "internalType": "uint256",
          "name": "difficulty",
          "type": "uint256"
        },
        {
          "internalType": "uint256",
          "name": "pendingAmount",
          "type": "uint256"
        },
        {
          "internalType": "uint256",
          "name": "lastLockId",
          "type": "uint256"
        },
        {
          "internalType": "bool",
          "name": "inFarm",
          "type": "bool"
        },
        {
          "internalType": "bool",
          "name": "isUnClaim",
          "type": "bool"
        },
        {
          "internalType": "uint256",
          "name": "exitPercent",
          "type": "uint256"
        }
      ],
      "stateMutability": "view",
      "type": "function"
    }
  ]
}