{
  "contractName": "HeroFarm",
  "abi": [
    {
      "inputs": [
        {
          "internalType": "contract IRichHero",
          "name": "_hero",
          "type": "address"
        },
        {
          "internalType": "address",
          "name": "_invite",
          "type": "address"
        },
        {
          "internalType": "contract IERC20",
          "name": "_erc20",
          "type": "address"
        },
        {
          "internalType": "uint256",
          "name": "_rewardPerBlock",
          "type": "uint256"
        },
        {
          "internalType": "uint256",
          "name": "_startBlock",
          "type": "uint256"
        }
      ],
      "stateMutability": "nonpayable",
      "type": "constructor"
    },
    {
      "anonymous": false,
      "inputs": [
        {
          "indexed": true,
          "internalType": "address",
          "name": "user",
          "type": "address"
        },
        {
          "indexed": false,
          "internalType": "uint256",
          "name": "amount",
          "type": "uint256"
        }
      ],
      "name": "Deposit",
      "type": "event"
    },
    {
      "anonymous": false,
      "inputs": [
        {
          "indexed": true,
          "internalType": "address",
          "name": "user",
          "type": "address"
        },
        {
          "indexed": false,
          "internalType": "uint256",
          "name": "amount",
          "type": "uint256"
        }
      ],
      "name": "EmergencyWithdraw",
      "type": "event"
    },
    {
      "anonymous": false,
      "inputs": [
        {
          "indexed": false,
          "internalType": "address",
          "name": "buyer",
          "type": "address"
        },
        {
          "indexed": false,
          "internalType": "address",
          "name": "inviter",
          "type": "address"
        },
        {
          "indexed": false,
          "internalType": "uint256",
          "name": "generation",
          "type": "uint256"
        },
        {
          "indexed": false,
          "internalType": "uint256",
          "name": "amount",
          "type": "uint256"
        }
      ],
      "name": "InviterClaim",
      "type": "event"
    },
    {
      "anonymous": false,
      "inputs": [
        {
          "indexed": true,
          "internalType": "address",
          "name": "previousOwner",
          "type": "address"
        },
        {
          "indexed": true,
          "internalType": "address",
          "name": "newOwner",
          "type": "address"
        }
      ],
      "name": "OwnershipTransferred",
      "type": "event"
    },
    {
      "anonymous": false,
      "inputs": [
        {
          "indexed": true,
          "internalType": "address",
          "name": "user",
          "type": "address"
        },
        {
          "indexed": false,
          "internalType": "uint256",
          "name": "amount",
          "type": "uint256"
        }
      ],
      "name": "Withdraw",
      "type": "event"
    },
    {
      "inputs": [],
      "name": "endBlock",
      "outputs": [
        {
          "internalType": "uint256",
          "name": "",
          "type": "uint256"
        }
      ],
      "stateMutability": "view",
      "type": "function"
    },
    {
      "inputs": [],
      "name": "erc20",
      "outputs": [
        {
          "internalType": "contract IERC20",
          "name": "",
          "type": "address"
        }
      ],
      "stateMutability": "view",
      "type": "function"
    },
    {
      "inputs": [
        {
          "internalType": "uint256",
          "name": "",
          "type": "uint256"
        }
      ],
      "name": "form1InviteAward",
      "outputs": [
        {
          "internalType": "uint256",
          "name": "",
          "type": "uint256"
        }
      ],
      "stateMutability": "view",
      "type": "function"
    },
    {
      "inputs": [
        {
          "internalType": "uint256",
          "name": "",
          "type": "uint256"
        }
      ],
      "name": "form2InviteAward",
      "outputs": [
        {
          "internalType": "uint256",
          "name": "",
          "type": "uint256"
        }
      ],
      "stateMutability": "view",
      "type": "function"
    },
    {
      "inputs": [],
      "name": "hero",
      "outputs": [
        {
          "internalType": "contract IRichHero",
          "name": "",
          "type": "address"
        }
      ],
      "stateMutability": "view",
      "type": "function"
    },
    {
      "inputs": [],
      "name": "inviterContract",
      "outputs": [
        {
          "internalType": "contract Invite",
          "name": "",
          "type": "address"
        }
      ],
      "stateMutability": "view",
      "type": "function"
    },
    {
      "inputs": [
        {
          "internalType": "address",
          "name": "",
          "type": "address"
        },
        {
          "internalType": "uint256",
          "name": "",
          "type": "uint256"
        }
      ],
      "name": "lockInfo",
      "outputs": [
        {
          "internalType": "uint256",
          "name": "claimStartTime",
          "type": "uint256"
        },
        {
          "internalType": "uint256",
          "name": "rewardAmount",
          "type": "uint256"
        },
        {
          "internalType": "uint256",
          "name": "claimedAmount",
          "type": "uint256"
        }
      ],
      "stateMutability": "view",
      "type": "function"
    },
    {
      "inputs": [],
      "name": "owner",
      "outputs": [
        {
          "internalType": "address",
          "name": "",
          "type": "address"
        }
      ],
      "stateMutability": "view",
      "type": "function"
    },
    {
      "inputs": [],
      "name": "paidOut",
      "outputs": [
        {
          "internalType": "uint256",
          "name": "",
          "type": "uint256"
        }
      ],
      "stateMutability": "view",
      "type": "function"
    },
    {
      "inputs": [],
      "name": "poolInfo",
      "outputs": [
        {
          "internalType": "uint256",
          "name": "lastRewardBlock",
          "type": "uint256"
        },
        {
          "internalType": "uint256",
          "name": "accPowerPerShare",
          "type": "uint256"
        }
      ],
      "stateMutability": "view",
      "type": "function"
    },
    {
      "inputs": [],
      "name": "renounceOwnership",
      "outputs": [],
      "stateMutability": "nonpayable",
      "type": "function"
    },
    {
      "inputs": [],
      "name": "rewardPerBlock",
      "outputs": [
        {
          "internalType": "uint256",
          "name": "",
          "type": "uint256"
        }
      ],
      "stateMutability": "view",
      "type": "function"
    },
    {
      "inputs": [],
      "name": "startBlock",
      "outputs": [
        {
          "internalType": "uint256",
          "name": "",
          "type": "uint256"
        }
      ],
      "stateMutability": "view",
      "type": "function"
    },
    {
      "inputs": [],
      "name": "totalAllocPoint",
      "outputs": [
        {
          "internalType": "uint256",
          "name": "",
          "type": "uint256"
        }
      ],
      "stateMutability": "view",
      "type": "function"
    },
    {
      "inputs": [],
      "name": "totalPowers",
      "outputs": [
        {
          "internalType": "uint256",
          "name": "",
          "type": "uint256"
        }
      ],
      "stateMutability": "view",
      "type": "function"
    },
    {
      "inputs": [
        {
          "internalType": "address",
          "name": "newOwner",
          "type": "address"
        }
      ],
      "name": "transferOwnership",
      "outputs": [],
      "stateMutability": "nonpayable",
      "type": "function"
    },
    {
      "inputs": [
        {
          "internalType": "address",
          "name": "",
          "type": "address"
        }
      ],
      "name": "userInfo",
      "outputs": [
        {
          "internalType": "uint256",
          "name": "goldens",
          "type": "uint256"
        },
        {
          "internalType": "uint256",
          "name": "realPower",
          "type": "uint256"
        },
        {
          "internalType": "uint256",
          "name": "buffedPower",
          "type": "uint256"
        },
        {
          "internalType": "uint256",
          "name": "rewardDebt",
          "type": "uint256"
        },
        {
          "internalType": "uint256",
          "name": "mdao",
          "type": "uint256"
        },
        {
          "internalType": "uint256",
          "name": "startTime",
          "type": "uint256"
        },
        {
          "internalType": "uint256",
          "name": "endTime",
          "type": "uint256"
        },
        {
          "internalType": "uint256",
          "name": "difficulty",
          "type": "uint256"
        },
        {
          "internalType": "uint256",
          "name": "pendingAmount",
          "type": "uint256"
        },
        {
          "internalType": "uint256",
          "name": "lastLockId",
          "type": "uint256"
        },
        {
          "internalType": "bool",
          "name": "inFarm",
          "type": "bool"
        },
        {
          "internalType": "bool",
          "name": "isUnClaim",
          "type": "bool"
        },
        {
          "internalType": "uint256",
          "name": "exitPercent",
          "type": "uint256"
        },
        {
          "internalType": "uint256",
          "name": "inviteReward",
          "type": "uint256"
        }
      ],
      "stateMutability": "view",
      "type": "function"
    },
    {
      "inputs": [
        {
          "internalType": "address",
          "name": "_user",
          "type": "address"
        }
      ],
      "name": "pending",
      "outputs": [
        {
          "internalType": "uint256",
          "name": "",
          "type": "uint256"
        }
      ],
      "stateMutability": "view",
      "type": "function"
    },
    {
      "inputs": [
        {
          "internalType": "address",
          "name": "token",
          "type": "address"
        }
      ],
      "name": "emergencyWithdraw",
      "outputs": [],
      "stateMutability": "nonpayable",
      "type": "function"
    },
    {
      "inputs": [],
      "name": "totalPending",
      "outputs": [
        {
          "internalType": "uint256",
          "name": "",
          "type": "uint256"
        }
      ],
      "stateMutability": "view",
      "type": "function"
    },
    {
      "inputs": [],
      "name": "updatePool",
      "outputs": [],
      "stateMutability": "nonpayable",
      "type": "function"
    },
    {
      "inputs": [
        {
          "internalType": "uint256[]",
          "name": "_tokenIds",
          "type": "uint256[]"
        },
        {
          "internalType": "uint8",
          "name": "difficulty",
          "type": "uint8"
        }
      ],
      "name": "deposit",
      "outputs": [],
      "stateMutability": "nonpayable",
      "type": "function"
    },
    {
      "inputs": [],
      "name": "depositMdao",
      "outputs": [],
      "stateMutability": "nonpayable",
      "type": "function"
    },
    {
      "inputs": [
        {
          "internalType": "address",
          "name": "_user",
          "type": "address"
        }
      ],
      "name": "canDepositMdao",
      "outputs": [
        {
          "internalType": "uint256",
          "name": "",
          "type": "uint256"
        }
      ],
      "stateMutability": "view",
      "type": "function"
    },
    {
      "inputs": [],
      "name": "claimHero",
      "outputs": [],
      "stateMutability": "nonpayable",
      "type": "function"
    },
    {
      "inputs": [
        {
          "internalType": "bool",
          "name": "isLockClaim",
          "type": "bool"
        }
      ],
      "name": "decideClaimForm",
      "outputs": [],
      "stateMutability": "nonpayable",
      "type": "function"
    },
    {
      "inputs": [
        {
          "internalType": "address",
          "name": "user",
          "type": "address"
        }
      ],
      "name": "getUserInfo",
      "outputs": [
        {
          "components": [
            {
              "internalType": "uint256",
              "name": "goldens",
              "type": "uint256"
            },
            {
              "internalType": "uint256",
              "name": "realPower",
              "type": "uint256"
            },
            {
              "internalType": "uint256",
              "name": "buffedPower",
              "type": "uint256"
            },
            {
              "internalType": "uint256",
              "name": "rewardDebt",
              "type": "uint256"
            },
            {
              "internalType": "uint256",
              "name": "mdao",
              "type": "uint256"
            },
            {
              "internalType": "uint256[]",
              "name": "tokenIds",
              "type": "uint256[]"
            },
            {
              "internalType": "uint256",
              "name": "startTime",
              "type": "uint256"
            },
            {
              "internalType": "uint256",
              "name": "endTime",
              "type": "uint256"
            },
            {
              "internalType": "uint256",
              "name": "difficulty",
              "type": "uint256"
            },
            {
              "internalType": "uint256",
              "name": "pendingAmount",
              "type": "uint256"
            },
            {
              "internalType": "uint256",
              "name": "lastLockId",
              "type": "uint256"
            },
            {
              "internalType": "bool",
              "name": "inFarm",
              "type": "bool"
            },
            {
              "internalType": "bool",
              "name": "isUnClaim",
              "type": "bool"
            },
            {
              "internalType": "uint256",
              "name": "exitPercent",
              "type": "uint256"
            },
            {
              "internalType": "uint256",
              "name": "inviteReward",
              "type": "uint256"
            }
          ],
          "internalType": "struct HeroFarm.UserInfo",
          "name": "",
          "type": "tuple"
        }
      ],
      "stateMutability": "view",
      "type": "function"
    },
    {
      "inputs": [
        {
          "internalType": "uint256",
          "name": "lockId",
          "type": "uint256"
        }
      ],
      "name": "lockRewardWithdraw",
      "outputs": [],
      "stateMutability": "nonpayable",
      "type": "function"
    },
    {
      "inputs": [
        {
          "internalType": "address",
          "name": "user",
          "type": "address"
        }
      ],
      "name": "lockInfos",
      "outputs": [
        {
          "components": [
            {
              "internalType": "uint256",
              "name": "claimStartTime",
              "type": "uint256"
            },
            {
              "internalType": "uint256",
              "name": "rewardAmount",
              "type": "uint256"
            },
            {
              "internalType": "uint256",
              "name": "claimedAmount",
              "type": "uint256"
            }
          ],
          "internalType": "struct HeroFarm.LockInfo[]",
          "name": "locks",
          "type": "tuple[]"
        }
      ],
      "stateMutability": "view",
      "type": "function"
    },
    {
      "inputs": [
        {
          "internalType": "uint256",
          "name": "power",
          "type": "uint256"
        }
      ],
      "name": "APYPercent",
      "outputs": [
        {
          "internalType": "uint256",
          "name": "apy",
          "type": "uint256"
        }
      ],
      "stateMutability": "view",
      "type": "function"
    }
  ],
  "bytecode": "0x600060025560e060405260076080908152600e60a052601e60c0526200002a906008906003620001cd565b5060408051606081018252600181526003602082018190526005928201929092526200005a9160099190620001cd565b506000600a5560408051606081018252600681526003602082018190526001928201929092526200008f916010919062000286565b5060408051606081018252601e8152600f6020820152600591810191909152620000be90601190600362000286565b50348015620000cc57600080fd5b506040516200283838038062002838833981016040819052620000ef91620002f9565b620000fa336200017d565b600e80546001600160a01b038088166001600160a01b03199283161790925560018054868416908316179055600f8054928716929091169190911790556003829055600b81905562000150816276a7006200035e565b600c5550506040805180820190915243808252600060209092018290526004556005555062000385915050565b600080546001600160a01b038381166001600160a01b0319831681178455604051919092169283917f8be0079c531659141344cd1fd0a4f28419497f9722a3daafe3b4186f6b6457e09190a35050565b82805482825590600052602060002090600301600490048101928215620002745791602002820160005b838211156200023d57835183826101000a8154816001600160401b03021916908360ff1602179055509260200192600801602081600701049283019260010302620001f7565b8015620002725782816101000a8154906001600160401b0302191690556008016020816007010492830192600103026200023d565b505b5062000282929150620002c9565b5090565b82805482825590600052602060002090810192821562000274579160200282015b8281111562000274578251829060ff16905591602001919060010190620002a7565b5b80821115620002825760008155600101620002ca565b6001600160a01b0381168114620002f657600080fd5b50565b600080600080600060a086880312156200031257600080fd5b85516200031f81620002e0565b60208701519095506200033281620002e0565b60408701519094506200034581620002e0565b6060870151608090970151959894975095949392505050565b600082198211156200038057634e487b7160e01b600052601160045260246000fd5b500190565b6124a380620003956000396000f3fe608060405234801561001057600080fd5b506004361061019a5760003560e01c80636386c1c7116100e45780638da5cb5b116100925780638da5cb5b1461040b5780639f608da314610413578063acff05b014610426578063b2520a7c14610439578063c91b46c61461048e578063d4796ef214610496578063e3161ddd146104a9578063f2fde38b146104b157600080fd5b80636386c1c7146103985780636917c501146103b85780636ff1c9bc146103c1578063715018a6146103d4578063785e9e86146103dc5780637f513d5d146103ef5780638ae39cac1461040257600080fd5b80633f90916a1161014c5780633f90916a146102f557806341d189f2146102fd57806347646b9e1461031d57806348cd4cb11461033d5780635a2f3d09146103465780635c76ca2d146103695780635eebea201461037257806360343cae1461038557600080fd5b8063083c63231461019f5780630af72c69146101bb57806310b43acf146101d057806317caf6f1146101e35780631959a002146101ec57806339307b54146102da5780633bddf74e146102ed575b600080fd5b6101a8600c5481565b6040519081526020015b60405180910390f35b6101ce6101c9366004611e34565b6104c4565b005b6101a86101de366004611eeb565b610922565b6101a8600a5481565b61026e6101fa366004611f19565b60066020819052600091825260409091208054600182015460028301546003840154600485015495850154600786015460088701546009880154600a890154600b8a0154600c8b0154600d909b0154999b989a97999698979596949593949293919260ff808316936101009093041691908e565b604080519e8f5260208f019d909d529b8d019a909a5260608c019890985260808b019690965260a08a019490945260c089019290925260e0880152610100870152610120860152151561014085015215156101608401526101808301526101a08201526101c0016101b2565b6101a86102e8366004611f19565b610943565b6101ce610987565b6101a8610bc3565b61031061030b366004611f19565b610c19565b6040516101b29190611f36565b600f54610330906001600160a01b031681565b6040516101b29190611f8f565b6101a8600b5481565b600454600554610354919082565b604080519283526020830191909152016101b2565b6101a860025481565b6101a8610380366004611f19565b610cc0565b6101a8610393366004611eeb565b610d96565b6103ab6103a6366004611f19565b610da6565b6040516101b29190611fde565b6101a8600d5481565b6101ce6103cf366004611f19565b610f37565b6101ce61106c565b600154610330906001600160a01b031681565b600e54610330906001600160a01b031681565b6101a860035481565b6103306110a7565b6101ce6104213660046120c7565b6110b6565b6101ce610434366004611eeb565b6113fb565b6104736104473660046120e4565b600760209081526000928352604080842090915290825290208054600182015460029092015490919083565b604080519384526020840192909252908201526060016101b2565b6101ce6116ae565b6101a86104a4366004611eeb565b611aaf565b6101ce611b11565b6101ce6104bf366004611f19565b611b97565b336000908152600660205260409020600b81015460049190610100900460ff16156104ee57600080fd5b600b81015460ff16156105a85780600801548360ff161461050e57600080fd5b42600882600801548154811061052657610526612110565b90600052602060002090600491828204019190066008029054906101000a90046001600160401b03166001600160401b03168260060154610567919061213c565b106105a35760405162461bcd60e51b8152602060048201526007602482015266115e1c1a5c995960ca1b60448201526064015b60405180910390fd5b610641565b60038360ff16106105b857600080fd5b600b8101805460ff1916600117905560ff83166008808301829055426006840155805490919081106105ec576105ec612110565b90600052602060002090600491828204019190066008029054906101000a90046001600160401b0316620151806106239190612154565b6001600160401b0316816006015461063b919061213c565b60078201555b60008060005b86518110156107bb57600e5487516000916001600160a01b0316906321d80111908a908590811061067a5761067a612110565b60200260200101516040518263ffffffff1660e01b81526004016106a091815260200190565b6102206040518083038186803b1580156106b957600080fd5b505afa1580156106cd573d6000803e3d6000fd5b505050506040513d601f19601f820116820180604052508101906106f19190612219565b905080610160015184610704919061213c565b600e5489519195506001600160a01b0316906323b872dd90339030908c908790811061073257610732612110565b60200260200101516040518463ffffffff1660e01b81526004016107589392919061230c565b600060405180830381600087803b15801561077257600080fd5b505af1158015610786573d6000803e3d6000fd5b50505050806060015160ff16600414156107a857826107a481612330565b9350505b50806107b381612330565b915050610647565b50818360010160008282546107d0919061213c565b90915550508254819084906000906107e990849061213c565b9091555050825460009060649061080190600a61234b565b61080c90606461213c565b856001015461081b919061234b565b610825919061236a565b600285018190559050610836611b11565b80600d6000828254610848919061213c565b90915550506002840154156108b257600084600301546a0c097ce7bc90715b34b9f160241b87600101548760020154610881919061234b565b61088b919061236a565b610895919061238c565b9050808560090160008282546108ab919061213c565b9091555050505b6a0c097ce7bc90715b34b9f160241b856001015485600201546108d5919061234b565b6108df919061236a565b600385015560405183815233907fe1fffcc4923d04b559f4d29a8bfc6cda04eb5b0d3c460751c2402c5c5cc9109c9060200160405180910390a250505050505050565b6011818154811061093257600080fd5b600091825260209091200154905081565b6001600160a01b0381166000908152600660205260408120600481015460018201546109769066038d7ea4c6800061234b565b610980919061238c565b9392505050565b336000908152600660205260409020600b8101546004919060ff166109ab57600080fd5b60018101546109c19066038d7ea4c6800061234b565b8160040154106109d057600080fd5b600180546004830154918301546001600160a01b03909116916323b872dd9133913091610a049066038d7ea4c6800061234b565b610a0e919061238c565b6040518463ffffffff1660e01b8152600401610a2c9392919061230c565b602060405180830381600087803b158015610a4657600080fd5b505af1158015610a5a573d6000803e3d6000fd5b505050506040513d601f19601f82011682018060405250810190610a7e91906123a3565b50610a87611b11565b8054600090606490610a9a90600a61234b565b610aa590606461213c565b610ab090600a61213c565b8360010154610abf919061234b565b610ac9919061236a565b600283015490915015610b3157600082600301546a0c097ce7bc90715b34b9f160241b85600101548560020154610b00919061234b565b610b0a919061236a565b610b14919061238c565b905080836009016000828254610b2a919061213c565b9091555050505b6a0c097ce7bc90715b34b9f160241b83600101548360020154610b54919061234b565b610b5e919061236a565b60038301556002820154600d8054600090610b7a90849061238c565b909155505060028201819055600d8054829190600090610b9b90849061213c565b90915550506001820154610bb69066038d7ea4c6800061234b565b8260040181905550505050565b6000600b544311610bd45750600090565b6000600c544310610be757600c54610be9565b435b9050600254600b5482610bfc919061238c565b600354610c09919061234b565b610c13919061238c565b91505090565b606060005b6001600160a01b0383166000908152600660205260409020600a0154811015610cba576001600160a01b038316600090815260076020908152604080832084845282529182902082516060810184528154815260018201549281019290925260020154918101919091528251839083908110610c9c57610c9c612110565b60200260200101819052508080610cb290612330565b915050610c1e565b50919050565b6001600160a01b0381166000908152600660205260408120600554600480549092919043118015610cf25750600d5415155b15610d55576000600c544310610d0a57600c54610d0c565b435b90506000610d1e856000015483611c37565b600d54909150610d3c826a0c097ce7bc90715b34b9f160241b61234b565b610d46919061236a565b610d50908461213c565b925050505b81600301546a0c097ce7bc90715b34b9f160241b828460020154610d79919061234b565b610d83919061236a565b610d8d919061238c565b95945050505050565b6010818154811061093257600080fd5b610e23604051806101e00160405280600081526020016000815260200160008152602001600081526020016000815260200160608152602001600081526020016000815260200160008152602001600081526020016000815260200160001515815260200160001515815260200160008152602001600081525090565b6001600160a01b03821660009081526006602090815260409182902082516101e0810184528154815260018201548184015260028201548185015260038201546060820152600482015460808201526005820180548551818602810186019096528086529194929360a08601939290830182828015610ec157602002820191906000526020600020905b815481526020019060010190808311610ead575b505050918352505060068201546020820152600782015460408201526008820154606082015260098201546080820152600a82015460a0820152600b82015460ff808216151560c08401526101009182900416151560e0830152600c83015490820152600d909101546101209091015292915050565b33610f406110a7565b6001600160a01b031614610f665760405162461bcd60e51b815260040161059a906123c0565b806001600160a01b031663a9059cbb610f7d6110a7565b6040516370a0823160e01b81526001600160a01b038516906370a0823190610fa9903090600401611f8f565b60206040518083038186803b158015610fc157600080fd5b505afa158015610fd5573d6000803e3d6000fd5b505050506040513d601f19601f82011682018060405250810190610ff991906123f5565b6040518363ffffffff1660e01b815260040161101692919061240e565b602060405180830381600087803b15801561103057600080fd5b505af1158015611044573d6000803e3d6000fd5b505050506040513d601f19601f8201168201806040525081019061106891906123a3565b5050565b336110756110a7565b6001600160a01b03161461109b5760405162461bcd60e51b815260040161059a906123c0565b6110a56000611c56565b565b6000546001600160a01b031690565b336000908152600660205260409020600b810154610100900460ff166110db57600080fd5b600b8101805461ff0019169055816113585761112c3360648084600c01548560090154611108919061234b565b611112919061236a565b61111d90605061234b565b611127919061236a565b611ca6565b3360005b600f60009054906101000a90046001600160a01b03166001600160a01b031663f842d40b6040518163ffffffff1660e01b815260040160206040518083038186803b15801561117e57600080fd5b505afa158015611192573d6000803e3d6000fd5b505050506040513d601f19601f820116820180604052508101906111b691906123f5565b81101561135157600f54604051631b43f31160e31b81526001600160a01b039091169063da1f9888906111ed908590600401611f8f565b60206040518083038186803b15801561120557600080fd5b505afa158015611219573d6000803e3d6000fd5b505050506040513d601f19601f8201168201806040525081019061123d9190612427565b91506001600160a01b0382161561133a5760006010828154811061126357611263612110565b9060005260206000200154905060006103e882606487600c0154886009015461128c919061234b565b611296919061236a565b6112a0919061234b565b6112aa919061236a565b6001600160a01b0385166000908152600660205260408120600d8101805493945090928492906112db90849061213c565b909155506112eb90508583611ca6565b7f061f9efc09a7e2bff53abe4fcf2714bb516b14ce6b8893742cc587de5cd88079338661131987600161213c565b8560405161132a9493929190612444565b60405180910390a150505061133f565b611351565b8061134981612330565b915050611130565b50506113e9565b336000908152600760209081526040808320600a85015484529091529020429055600c81015460098201546064918291611392919061234b565b61139c919061236a565b6113a790607361234b565b6113b1919061236a565b336000908152600760209081526040808320600a8601805485529252822060010192909255815491906113e383612330565b91905055505b60006009820181905560039091015550565b3360009081526007602090815260408083208484529091529020600181015461142357600080fd5b6001810154815460009162278d009161143c904261238c565b611446919061234b565b611450919061236a565b90508160010154811115611465575060018101545b6000826002015482611477919061238c565b905061148a33606461111d84605f61234b565b8083600201600082825461149e919061213c565b9091555033905060005b600f60009054906101000a90046001600160a01b03166001600160a01b031663f842d40b6040518163ffffffff1660e01b815260040160206040518083038186803b1580156114f657600080fd5b505afa15801561150a573d6000803e3d6000fd5b505050506040513d601f19601f8201168201806040525081019061152e91906123f5565b8110156116a657600f54604051631b43f31160e31b81526001600160a01b039091169063da1f988890611565908590600401611f8f565b60206040518083038186803b15801561157d57600080fd5b505afa158015611591573d6000803e3d6000fd5b505050506040513d601f19601f820116820180604052508101906115b59190612427565b91506001600160a01b0382161561168f576000601182815481106115db576115db612110565b600091825260208220015491506103e86115f5838761234b565b6115ff919061236a565b6001600160a01b0385166000908152600660205260408120600d81018054939450909284929061163090849061213c565b9091555061164090508583611ca6565b7f061f9efc09a7e2bff53abe4fcf2714bb516b14ce6b8893742cc587de5cd88079338661166e87600161213c565b8560405161167f9493929190612444565b60405180910390a1505050611694565b6116a6565b8061169e81612330565b9150506114a8565b505050505050565b336000908152600660205260409020600b8101546004919060ff166117285760405162461bcd60e51b815260206004820152602a60248201527f77697468647261773a2063616e2774207769746864726177206d6f7265207468604482015269185b8819195c1bdcda5d60b21b606482015260840161059a565b611730611b11565b8060020154600d6000828254611746919061238c565b92505081905550600081600301546a0c097ce7bc90715b34b9f160241b84600101548460020154611777919061234b565b611781919061236a565b61178b919061238c565b9050808260090160008282546117a1919061213c565b9091555050600183015460028301546a0c097ce7bc90715b34b9f160241b916117c99161234b565b6117d3919061236a565b600383015560005b600583015481101561188557600e546005840180546001600160a01b03909216916323b872dd9130913391908690811061181757611817612110565b90600052602060002001546040518463ffffffff1660e01b81526004016118409392919061230c565b600060405180830381600087803b15801561185a57600080fd5b505af115801561186e573d6000803e3d6000fd5b50505050808061187d90612330565b9150506117db565b508160070154421061189d576064600c8301556119db565b6000620151808360060154426118b3919061238c565b6118bd919061236a565b905060018110156118cd57600080fd5b60088301546118f6576118e181600a61234b565b6118ec90601e61213c565b600c8401556119d9565b82600801546001141561196a57806001108015611914575060048111155b1561192557601e600c8401556119d9565b806004108015611936575060088111155b1561194757603c600c8401556119d9565b8060081080156119585750600d8111155b15611965576050600c8401555b6119d9565b8260080154600214156119d9578060011080156119885750600a8111155b1561199957601e600c8401556119d9565b80600a1080156119aa575060148111155b156119bb57603c600c8401556119d9565b8060141080156119cc5750601d8111155b156119d9576050600c8401555b505b60048083018054600090915560015460405163a9059cbb60e01b815291926001600160a01b039091169163a9059cbb91611a1991339186910161240e565b602060405180830381600087803b158015611a3357600080fd5b505af1158015611a47573d6000803e3d6000fd5b505050506040513d601f19601f82011682018060405250810190611a6b91906123a3565b506040805160008152602081019182905251611a8b916005860191611d46565b5050600060018301819055600283015550600b01805461ffff191661010017905550565b6000600d5460001415611ac55750612710919050565b81611ad657670de0b6b3a764000091505b6103e8600d5460035484611aea919061234b565b611af7906276a70061234b565b611b01919061236a565b611b0b919061236a565b92915050565b600c546004906000904310611b2857600c54611b2a565b435b82549091508111611b39575050565b600d54611b44579055565b6000611b54836000015483611c37565b600d54909150611b72826a0c097ce7bc90715b34b9f160241b61234b565b611b7c919061236a565b8360010154611b8b919061213c565b60018401555050439055565b33611ba06110a7565b6001600160a01b031614611bc65760405162461bcd60e51b815260040161059a906123c0565b6001600160a01b038116611c2b5760405162461bcd60e51b815260206004820152602660248201527f4f776e61626c653a206e6577206f776e657220697320746865207a65726f206160448201526564647265737360d01b606482015260840161059a565b611c3481611c56565b50565b600080611c44848461238c565b9050600060035482610d8d919061234b565b600080546001600160a01b038381166001600160a01b0319831681178455604051919092169283917f8be0079c531659141344cd1fd0a4f28419497f9722a3daafe3b4186f6b6457e09190a35050565b60015460405163a9059cbb60e01b81526001600160a01b039091169063a9059cbb90611cd8908590859060040161240e565b602060405180830381600087803b158015611cf257600080fd5b505af1158015611d06573d6000803e3d6000fd5b505050506040513d601f19601f82011682018060405250810190611d2a91906123a3565b508060026000828254611d3d919061213c565b90915550505050565b828054828255906000526020600020908101928215611d81579160200282015b82811115611d81578251825591602001919060010190611d66565b50611d8d929150611d91565b5090565b5b80821115611d8d5760008155600101611d92565b634e487b7160e01b600052604160045260246000fd5b6040516101a081016001600160401b0381118282101715611ddf57611ddf611da6565b60405290565b604051601f8201601f191681016001600160401b0381118282101715611e0d57611e0d611da6565b604052919050565b60ff81168114611c3457600080fd5b8035611e2f81611e15565b919050565b60008060408385031215611e4757600080fd5b82356001600160401b0380821115611e5e57600080fd5b818501915085601f830112611e7257600080fd5b8135602082821115611e8657611e86611da6565b8160051b9250611e97818401611de5565b8281529284018101928181019089851115611eb157600080fd5b948201945b84861015611ecf57853582529482019490820190611eb6565b9650611ede9050878201611e24565b9450505050509250929050565b600060208284031215611efd57600080fd5b5035919050565b6001600160a01b0381168114611c3457600080fd5b600060208284031215611f2b57600080fd5b813561098081611f04565b602080825282518282018190526000919060409081850190868401855b82811015611f825781518051855286810151878601528501518585015260609093019290850190600101611f53565b5091979650505050505050565b6001600160a01b0391909116815260200190565b600081518084526020808501945080840160005b83811015611fd357815187529582019590820190600101611fb7565b509495945050505050565b6020815281516020820152602082015160408201526040820151606082015260608201516080820152608082015160a0820152600060a08301516101e08060c085015261202f610200850183611fa3565b60c086015160e086810191909152860151610100808701919091528601516101208087019190915286015161014080870191909152860151610160808701919091528601519092506101806120878187018315159052565b86015190506101a061209c8682018315159052565b8601516101c0868101919091529095015193019290925250919050565b8015158114611c3457600080fd5b6000602082840312156120d957600080fd5b8135610980816120b9565b600080604083850312156120f757600080fd5b823561210281611f04565b946020939093013593505050565b634e487b7160e01b600052603260045260246000fd5b634e487b7160e01b600052601160045260246000fd5b6000821982111561214f5761214f612126565b500190565b60006001600160401b038083168185168183048111821515161561217a5761217a612126565b02949350505050565b8051611e2f81611e15565b80516001600160401b0381168114611e2f57600080fd5b600082601f8301126121b657600080fd5b60405160a081018181106001600160401b03821117156121d8576121d8611da6565b6040528060a08401858111156121ed57600080fd5b845b8181101561220e576122008161218e565b8352602092830192016121ef565b509195945050505050565b6000610220828403121561222c57600080fd5b612234611dbc565b8251815261224460208401612183565b602082015261225560408401612183565b604082015261226660608401612183565b606082015261227760808401612183565b608082015261228860a08401612183565b60a082015261229960c08401612183565b60c08201526122aa60e08401612183565b60e08201526101006122bd81850161218e565b908201526101206122cf84820161218e565b908201526101406122e2858583016121a5565b908201526101e08301516101608201526122ff6102008401612183565b6101808201529392505050565b6001600160a01b039384168152919092166020820152604081019190915260600190565b600060001982141561234457612344612126565b5060010190565b600081600019048311821515161561236557612365612126565b500290565b60008261238757634e487b7160e01b600052601260045260246000fd5b500490565b60008282101561239e5761239e612126565b500390565b6000602082840312156123b557600080fd5b8151610980816120b9565b6020808252818101527f4f776e61626c653a2063616c6c6572206973206e6f7420746865206f776e6572604082015260600190565b60006020828403121561240757600080fd5b5051919050565b6001600160a01b03929092168252602082015260400190565b60006020828403121561243957600080fd5b815161098081611f04565b6001600160a01b039485168152929093166020830152604082015260608101919091526080019056fea2646970667358221220df807ff06e34baa99a2731000d36f7116aeaec24bfa00bcb7af1c6afc530886f64736f6c63430008090033",
  "immutableReferences": {},
  "source": "// // SPDX-License-Identifier: MIT\npragma solidity ^0.8.0;\n\nimport \"./IRichHero.sol\";\nimport \"./Invite.sol\";\nimport \"@openzeppelin/contracts/token/ERC20/IERC20.sol\";\nimport \"@openzeppelin/contracts/access/Ownable.sol\";\n\n// Farm distributes the ERC20 rewards based on staked heroPower to each user.\n//\n// Cloned from https://github.com/SashimiProject/sashimiswap/blob/master/contracts/MasterChef.sol\n// Modified by ERC20 to work for non-mintable ERC20.\ncontract HeroFarm is Ownable {\n    // Info of each user.\n    struct UserInfo {\n        uint256 goldens;\n        uint256 realPower;\n        uint256 buffedPower; // How many power the user has provided.\n        uint256 rewardDebt; // Reward debt. See explanation below.\n        uint256 mdao; //Deposited mdao\n        uint256[] tokenIds; //Deposited hero\n        uint256 startTime; //Start time\n        uint256 endTime; //End time\n        uint256 difficulty;\n        uint256 pendingAmount;\n        uint256 lastLockId;\n        bool inFarm;\n        bool isUnClaim;\n        uint256 exitPercent;\n        uint256 inviteReward;\n    }\n\n    struct LockInfo {\n        uint256 claimStartTime;\n        uint256 rewardAmount;\n        uint256 claimedAmount;\n    }\n\n    // Info of lp pool.\n    struct PoolInfo {\n        uint256 lastRewardBlock;    // Last block number that ERC20s distribution occurs.\n        uint256 accPowerPerShare;   // Accumulated ERC20s per share, times 1e36.\n    }\n\n    // Address of the ERC20 Token contract.\n    IERC20 public erc20;\n    // The total amount of ERC20 that's paid out as reward.\n    uint256 public paidOut = 0;\n    // ERC20 tokens rewarded per block.\n    uint256 public rewardPerBlock;\n\n    // Info of pool.\n    PoolInfo public poolInfo;\n    // Info of each user.\n    mapping (address => UserInfo) public userInfo;\n    mapping (address => mapping (uint256 => LockInfo)) public lockInfo;\n    // Staking Times\n    uint64[] difficultyTime = [7, 14, 30]; //0, 1, 2\n    // Staking Addition\n    uint64[] difficultyAddition = [1, 3, 5]; //1%, 3%, 5%\n    // Total Power\n    uint256 public totalAllocPoint = 0;\n    // The block number when farming starts.\n    uint256 public startBlock;\n    // The block number when farming ends.\n    uint256 public endBlock;\n    uint256 public totalPowers;\n    IRichHero public hero;\n    Invite public inviterContract;\n    uint256[] public form1InviteAward = [6, 3, 1];\n    uint256[] public form2InviteAward = [30, 15, 5];\n    event Deposit(address indexed user, uint256 amount);\n    event Withdraw(address indexed user, uint256 amount);\n    event EmergencyWithdraw(address indexed user, uint256 amount);\n    event InviterClaim(address buyer, address inviter, uint256 generation, uint256 amount);\n\n    constructor(IRichHero _hero, address _invite, IERC20 _erc20, uint256 _rewardPerBlock, uint256 _startBlock) {\n        hero = _hero;\n        erc20 = _erc20;\n        inviterContract = Invite(_invite);\n        rewardPerBlock = _rewardPerBlock;\n        startBlock = _startBlock;\n        endBlock = _startBlock + 7776000;\n        poolInfo = PoolInfo({\n            lastRewardBlock: block.number,\n            accPowerPerShare: 0\n        });\n    }\n\n    // View function to see pending ERC20s for a user.\n    function pending(address _user) external view returns (uint256) {\n        PoolInfo storage pool = poolInfo;\n        UserInfo storage user = userInfo[_user];\n        uint256 accPowerPerShare = pool.accPowerPerShare;\n        if (block.number > pool.lastRewardBlock && totalPowers != 0) {\n            uint256 lastBlock = block.number < endBlock ? block.number : endBlock;\n\n            uint256 erc20Rewards = computerReward(pool.lastRewardBlock, lastBlock);\n            accPowerPerShare = accPowerPerShare + (erc20Rewards * 1e36) / (totalPowers);\n        }\n        return user.buffedPower * (accPowerPerShare) / (1e36) - (user.rewardDebt);\n    }\n\n    function emergencyWithdraw(address token) public onlyOwner {\n        IERC20(token).transfer(owner(), IERC20(token).balanceOf(address(this)));\n    }\n\n    // View function for total reward the farm has yet to pay out.\n    function totalPending() external view returns (uint256) {\n        if (block.number <= startBlock) {\n            return 0;\n        }\n        uint256 lastBlock = block.number < endBlock ? block.number : endBlock;\n        return rewardPerBlock * (lastBlock - startBlock) - paidOut;\n    }\n\n    // Update reward variables of the given pool to be up-to-date.\n    function updatePool() public {\n        PoolInfo storage pool = poolInfo;\n        uint256 lastBlock = block.number < endBlock ? block.number : endBlock;\n\n        if (lastBlock <= pool.lastRewardBlock) {\n            return;\n        }\n        if (totalPowers == 0) {\n            pool.lastRewardBlock = lastBlock;\n            return;\n        }\n\n        uint256 erc20Rewards = computerReward(pool.lastRewardBlock, lastBlock);\n        pool.accPowerPerShare = pool.accPowerPerShare + (erc20Rewards * (1e36) / (totalPowers));\n        pool.lastRewardBlock = block.number;\n    }\n\n    // Deposit hero power to Farm for ERC20 allocation.\n    function deposit(uint256[] memory _tokenIds, uint8 difficulty) public {\n        PoolInfo storage pool = poolInfo;\n        UserInfo storage user = userInfo[msg.sender];\n        require(!user.isUnClaim);\n        if (user.inFarm) {\n            require(difficulty == user.difficulty);\n            require(user.startTime + difficultyTime[user.difficulty] < block.timestamp, \"Expired\");\n        } else {\n            require(difficulty < 3);\n            user.inFarm = true;\n            user.difficulty = difficulty;\n            user.startTime = block.timestamp;\n            user.endTime = user.startTime + difficultyTime[user.difficulty] * 86400;\n        }\n        uint256 power;\n        uint256 totalGolden;\n        for(uint256 i = 0; i < _tokenIds.length; i++) {\n            IRichHero.HeroDetail memory detail = hero.getHero(_tokenIds[i]);\n            power += detail.power;\n            hero.transferFrom(msg.sender, address(this), _tokenIds[i]);\n            if (detail.rarity == 4) {\n                totalGolden++;\n            }\n        }\n        user.realPower += power;\n        user.goldens += totalGolden;\n        uint256 buffedPower = user.realPower * (100 + user.goldens * 10) / 100;\n        user.buffedPower = buffedPower;\n        updatePool();\n        totalPowers += buffedPower;\n        if (user.buffedPower > 0) {\n            uint256 pendingAmount = user.buffedPower * (pool.accPowerPerShare) / (1e36) - (user.rewardDebt);\n            // erc20Transfer(msg.sender, pendingAmount);\n            user.pendingAmount += pendingAmount;\n        }\n        user.rewardDebt = user.buffedPower * (pool.accPowerPerShare) / (1e36);\n        emit Deposit(msg.sender, power);\n    }\n\n    function depositMdao() public {\n        PoolInfo storage pool = poolInfo;\n        UserInfo storage user = userInfo[msg.sender];\n        require(user.inFarm);\n        require(user.mdao < user.realPower * 1e15);\n        erc20.transferFrom(msg.sender, address(this), user.realPower * 1e15 - user.mdao);\n        updatePool();\n        uint256 buffedPower = user.realPower * (100 + user.goldens * 10 + 10) / 100;\n        if (user.buffedPower > 0) {\n            uint256 pendingAmount = user.buffedPower * (pool.accPowerPerShare) / (1e36) - (user.rewardDebt);\n            // erc20Transfer(msg.sender, pendingAmount);\n            user.pendingAmount += pendingAmount;\n        }\n        user.rewardDebt = user.buffedPower * (pool.accPowerPerShare) / (1e36);\n        totalPowers -= user.buffedPower;\n        user.buffedPower = buffedPower;\n        totalPowers += buffedPower;\n        user.mdao = user.realPower * 1e15;\n    }\n\n    function canDepositMdao(address _user) public view returns (uint256) {\n        UserInfo storage user = userInfo[_user];\n        return (user.realPower * 1e15 - user.mdao);\n    }\n            \n    // Claim Heros tokens from Farm.\n    function claimHero() public {\n        PoolInfo storage pool = poolInfo;\n        UserInfo storage user = userInfo[msg.sender];\n        require(user.inFarm, \"withdraw: can't withdraw more than deposit\");\n        updatePool();\n        totalPowers -= user.buffedPower;\n        uint256 pendingAmount = user.buffedPower * pool.accPowerPerShare / (1e36) - (user.rewardDebt);\n        // erc20Transfer(msg.sender, pendingAmount);\n        user.pendingAmount += pendingAmount;\n        user.rewardDebt = user.buffedPower * (pool.accPowerPerShare) / (1e36);\n\n        for (uint256 i = 0; i < user.tokenIds.length; i++) {\n            hero.transferFrom(address(this), address(msg.sender), user.tokenIds[i]);\n        }\n        if (block.timestamp >= user.endTime) {\n            user.exitPercent = 100;\n        } else {\n            uint256 day = (block.timestamp - user.startTime) / 1 days;\n            require(day >= 1);\n            if (user.difficulty == 0) {\n                //70%60%\n                user.exitPercent = 30 + 10 * day;\n            } else if (user.difficulty == 1) {\n                //1470%5--840%9-1320%\n                if (1 < day && day <= 4){\n                    user.exitPercent = 30;\n                } else if (4 < day && day <= 8) {\n                    user.exitPercent = 60;\n                } else if (8 < day && day <= 13) {\n                    user.exitPercent = 80;\n                }\n            } else if (user.difficulty == 2) {\n                //11070%11--2040%21-2920%\n                if (1 < day && day <= 10){\n                    user.exitPercent = 30;\n                } else if (10 < day && day <= 20) {\n                    user.exitPercent = 60;\n                } else if (20 < day && day <= 29) {\n                    user.exitPercent = 80;\n                }\n            }\n        }\n        uint256 amount = user.mdao;\n        user.mdao = 0;\n        erc20.transfer(msg.sender, amount);\n        user.tokenIds = new uint256[](0);\n        user.realPower = 0;\n        user.buffedPower = 0;\n        user.inFarm = false;\n        user.isUnClaim = true;\n    }\n\n    //todo:\n    // Withdraw Heros tokens from Farm.\n    function decideClaimForm(bool isLockClaim) public {\n        UserInfo storage user = userInfo[msg.sender];\n        require(user.isUnClaim);\n        user.isUnClaim = false;\n        if (!isLockClaim) {\n            // 20\n            erc20Transfer(msg.sender, user.pendingAmount * user.exitPercent / 100 * 80 / 100);\n            //\n            address previous = msg.sender;\n            for (uint256 i = 0; i < inviterContract.awardLength(); i++) {\n                previous = inviterContract.superior(previous);\n                if (previous != address(0)) {\n                    uint256 award = form1InviteAward[i];\n                    uint256 amount = user.pendingAmount * user.exitPercent / 100 * award / 1000;\n                    UserInfo storage preUser = userInfo[previous];\n                    preUser.inviteReward += amount;\n                    erc20Transfer(previous, amount);\n                    emit InviterClaim(msg.sender, previous, i+1, amount);\n                } else {\n                    break;\n                }\n            }\n        } else {\n            lockInfo[msg.sender][user.lastLockId].claimStartTime = block.timestamp;\n            lockInfo[msg.sender][user.lastLockId].rewardAmount = user.pendingAmount * user.exitPercent / 100 * 115 / 100;    \n            user.lastLockId++;\n        }\n        user.pendingAmount = 0;\n        user.rewardDebt = 0;\n    }\n\n    function getUserInfo(address user) public view returns(UserInfo memory) {\n        return userInfo[user];\n    }\n\n    // Withdraw Heros tokens from Farm.\n    function lockRewardWithdraw(uint256 lockId) public {\n        LockInfo storage lock = lockInfo[msg.sender][lockId];\n        require(lock.rewardAmount > 0);\n        uint256 timeClaimReward = (block.timestamp - lock.claimStartTime) * lock.rewardAmount / 30 days;\n        if (timeClaimReward > lock.rewardAmount) {\n            timeClaimReward = lock.rewardAmount;\n        }\n        uint256 canClaimReward = timeClaimReward - lock.claimedAmount;\n        erc20Transfer(msg.sender, canClaimReward * 95 / 100);\n        lock.claimedAmount += canClaimReward;\n        //invite\n        address previous = msg.sender;\n        for (uint256 i = 0; i < inviterContract.awardLength(); i++) {\n            previous = inviterContract.superior(previous);\n            if (previous != address(0)) {\n                uint256 award = form2InviteAward[i];\n                uint256 amount = canClaimReward * award / 1000;\n                UserInfo storage preUser = userInfo[previous];\n                preUser.inviteReward += amount;\n                erc20Transfer(previous, amount);\n                emit InviterClaim(msg.sender, previous, i+1, amount);\n            } else {\n                break;\n            }\n        }\n    }\n\n    // Transfer ERC20 and update the required ERC20 to payout all rewards\n    function erc20Transfer(address _to, uint256 _amount) internal {\n        erc20.transfer(_to, _amount);\n        paidOut += _amount;\n    }\n\n    // Compute Reward from block to block \n    function computerReward(uint256 _fromBlock, uint256 _toBlock) private view returns (uint256) {\n        uint256 nrOfBlocks = _toBlock - _fromBlock;\n        uint256 erc20Reward = nrOfBlocks * rewardPerBlock;\n        return erc20Reward;\n    }\n\n    function lockInfos(address user) public view returns(LockInfo[] memory locks) {\n        for (uint256 i = 0; i < userInfo[user].lastLockId; i++) {\n            locks[i] = lockInfo[user][i];\n        }\n    }\n\n    // Compute apy of pool\n    function APYPercent(uint256 power) external view returns (uint256 apy) {\n        if (totalPowers == 0) {\n            return 10000;\n        }\n        if (power == 0) {\n            power = 1000000000000000000;\n        }\n        apy = power * (rewardPerBlock) * (7776000) / (totalPowers) / 1000;\n        return apy;\n    }\n}\n",
  "sourcePath": "/Users/hy/new-rich-contract/contracts/HeroFarm.sol",
  "compiler": {
    "name": "solc",
    "version": "0.8.9+commit.e5eed63a.Emscripten.clang"
  },
  "schemaVersion": "3.4.3",
  "updatedAt": "2022-08-29T15:12:39.867Z",
  "devdoc": {
    "kind": "dev",
    "methods": {
      "owner()": {
        "details": "Returns the address of the current owner."
      },
      "renounceOwnership()": {
        "details": "Leaves the contract without owner. It will not be possible to call `onlyOwner` functions anymore. Can only be called by the current owner. NOTE: Renouncing ownership will leave the contract without an owner, thereby removing any functionality that is only available to the owner."
      },
      "transferOwnership(address)": {
        "details": "Transfers ownership of the contract to a new account (`newOwner`). Can only be called by the current owner."
      }
    },
    "version": 1
  },
  "userdoc": {
    "kind": "user",
    "methods": {},
    "version": 1
  }
}