{
  "contractName": "Training",
  "abi": [
    {
      "inputs": [
        {
          "internalType": "address",
          "name": "nft",
          "type": "address"
        },
        {
          "internalType": "address",
          "name": "shop",
          "type": "address"
        }
      ],
      "stateMutability": "nonpayable",
      "type": "constructor"
    },
    {
      "anonymous": false,
      "inputs": [
        {
          "indexed": true,
          "internalType": "address",
          "name": "previousOwner",
          "type": "address"
        },
        {
          "indexed": true,
          "internalType": "address",
          "name": "newOwner",
          "type": "address"
        }
      ],
      "name": "OwnershipTransferred",
      "type": "event"
    },
    {
      "inputs": [],
      "name": "HERO",
      "outputs": [
        {
          "internalType": "contract RichHero",
          "name": "",
          "type": "address"
        }
      ],
      "stateMutability": "view",
      "type": "function",
      "constant": true
    },
    {
      "inputs": [],
      "name": "PCT_BASE",
      "outputs": [
        {
          "internalType": "uint256",
          "name": "",
          "type": "uint256"
        }
      ],
      "stateMutability": "view",
      "type": "function",
      "constant": true
    },
    {
      "inputs": [],
      "name": "RAND_BASE",
      "outputs": [
        {
          "internalType": "uint256",
          "name": "",
          "type": "uint256"
        }
      ],
      "stateMutability": "view",
      "type": "function",
      "constant": true
    },
    {
      "inputs": [],
      "name": "SHOP",
      "outputs": [
        {
          "internalType": "contract RichShop",
          "name": "",
          "type": "address"
        }
      ],
      "stateMutability": "view",
      "type": "function",
      "constant": true
    },
    {
      "inputs": [
        {
          "internalType": "uint64",
          "name": "",
          "type": "uint64"
        },
        {
          "internalType": "uint64",
          "name": "",
          "type": "uint64"
        },
        {
          "internalType": "uint256",
          "name": "",
          "type": "uint256"
        }
      ],
      "name": "_baseAddition",
      "outputs": [
        {
          "internalType": "uint64",
          "name": "",
          "type": "uint64"
        }
      ],
      "stateMutability": "view",
      "type": "function",
      "constant": true
    },
    {
      "inputs": [
        {
          "internalType": "uint64",
          "name": "",
          "type": "uint64"
        },
        {
          "internalType": "uint64",
          "name": "",
          "type": "uint64"
        },
        {
          "internalType": "uint256",
          "name": "",
          "type": "uint256"
        }
      ],
      "name": "_baseQualities",
      "outputs": [
        {
          "internalType": "uint64",
          "name": "",
          "type": "uint64"
        }
      ],
      "stateMutability": "view",
      "type": "function",
      "constant": true
    },
    {
      "inputs": [
        {
          "internalType": "uint256",
          "name": "",
          "type": "uint256"
        }
      ],
      "name": "advanceAdditionLevels",
      "outputs": [
        {
          "internalType": "uint64",
          "name": "",
          "type": "uint64"
        }
      ],
      "stateMutability": "view",
      "type": "function",
      "constant": true
    },
    {
      "inputs": [
        {
          "internalType": "uint256",
          "name": "",
          "type": "uint256"
        }
      ],
      "name": "advanceAdditions",
      "outputs": [
        {
          "internalType": "uint64",
          "name": "",
          "type": "uint64"
        }
      ],
      "stateMutability": "view",
      "type": "function",
      "constant": true
    },
    {
      "inputs": [],
      "name": "advanceGem",
      "outputs": [
        {
          "internalType": "uint256",
          "name": "",
          "type": "uint256"
        }
      ],
      "stateMutability": "view",
      "type": "function",
      "constant": true
    },
    {
      "inputs": [],
      "name": "advanceGemAddition",
      "outputs": [
        {
          "internalType": "uint64",
          "name": "",
          "type": "uint64"
        }
      ],
      "stateMutability": "view",
      "type": "function",
      "constant": true
    },
    {
      "inputs": [
        {
          "internalType": "uint256",
          "name": "",
          "type": "uint256"
        }
      ],
      "name": "books",
      "outputs": [
        {
          "internalType": "uint256",
          "name": "",
          "type": "uint256"
        }
      ],
      "stateMutability": "view",
      "type": "function",
      "constant": true
    },
    {
      "inputs": [],
      "name": "breakGem",
      "outputs": [
        {
          "internalType": "uint256",
          "name": "",
          "type": "uint256"
        }
      ],
      "stateMutability": "view",
      "type": "function",
      "constant": true
    },
    {
      "inputs": [
        {
          "internalType": "uint256",
          "name": "",
          "type": "uint256"
        }
      ],
      "name": "gems",
      "outputs": [
        {
          "internalType": "uint256",
          "name": "",
          "type": "uint256"
        }
      ],
      "stateMutability": "view",
      "type": "function",
      "constant": true
    },
    {
      "inputs": [
        {
          "internalType": "uint256",
          "name": "",
          "type": "uint256"
        }
      ],
      "name": "gemsAddition",
      "outputs": [
        {
          "internalType": "uint64",
          "name": "",
          "type": "uint64"
        }
      ],
      "stateMutability": "view",
      "type": "function",
      "constant": true
    },
    {
      "inputs": [
        {
          "internalType": "uint256",
          "name": "",
          "type": "uint256"
        }
      ],
      "name": "gemsCost",
      "outputs": [
        {
          "internalType": "uint256",
          "name": "",
          "type": "uint256"
        }
      ],
      "stateMutability": "view",
      "type": "function",
      "constant": true
    },
    {
      "inputs": [],
      "name": "ly_stone",
      "outputs": [
        {
          "internalType": "uint256",
          "name": "",
          "type": "uint256"
        }
      ],
      "stateMutability": "view",
      "type": "function",
      "constant": true
    },
    {
      "inputs": [],
      "name": "owner",
      "outputs": [
        {
          "internalType": "address",
          "name": "",
          "type": "address"
        }
      ],
      "stateMutability": "view",
      "type": "function",
      "constant": true
    },
    {
      "inputs": [],
      "name": "renounceOwnership",
      "outputs": [],
      "stateMutability": "nonpayable",
      "type": "function"
    },
    {
      "inputs": [
        {
          "internalType": "address",
          "name": "newOwner",
          "type": "address"
        }
      ],
      "name": "transferOwnership",
      "outputs": [],
      "stateMutability": "nonpayable",
      "type": "function"
    },
    {
      "inputs": [
        {
          "internalType": "uint256",
          "name": "tokenId",
          "type": "uint256"
        }
      ],
      "name": "upgradeLevel",
      "outputs": [],
      "stateMutability": "nonpayable",
      "type": "function"
    },
    {
      "inputs": [
        {
          "internalType": "uint256",
          "name": "tokenId",
          "type": "uint256"
        }
      ],
      "name": "onekeyUpgradeLevel",
      "outputs": [],
      "stateMutability": "nonpayable",
      "type": "function"
    },
    {
      "inputs": [
        {
          "internalType": "uint256",
          "name": "tokenId",
          "type": "uint256"
        }
      ],
      "name": "upgradeStar",
      "outputs": [],
      "stateMutability": "nonpayable",
      "type": "function"
    },
    {
      "inputs": [
        {
          "internalType": "uint256[]",
          "name": "tokenIds",
          "type": "uint256[]"
        },
        {
          "internalType": "bool",
          "name": "useUpgradeGem",
          "type": "bool"
        },
        {
          "internalType": "uint256",
          "name": "gemId",
          "type": "uint256"
        },
        {
          "internalType": "bool",
          "name": "useAdvanceGem",
          "type": "bool"
        }
      ],
      "name": "upgradeRarity",
      "outputs": [],
      "stateMutability": "nonpayable",
      "type": "function"
    },
    {
      "inputs": [
        {
          "internalType": "uint256",
          "name": "tokenId",
          "type": "uint256"
        }
      ],
      "name": "rebirth",
      "outputs": [],
      "stateMutability": "nonpayable",
      "type": "function"
    },
    {
      "inputs": [
        {
          "internalType": "bytes4",
          "name": "interfaceId",
          "type": "bytes4"
        }
      ],
      "name": "supportsInterface",
      "outputs": [
        {
          "internalType": "bool",
          "name": "",
          "type": "bool"
        }
      ],
      "stateMutability": "view",
      "type": "function",
      "constant": true
    },
    {
      "inputs": [
        {
          "internalType": "address",
          "name": "operator",
          "type": "address"
        },
        {
          "internalType": "address",
          "name": "from",
          "type": "address"
        },
        {
          "internalType": "uint256",
          "name": "id",
          "type": "uint256"
        },
        {
          "internalType": "uint256",
          "name": "value",
          "type": "uint256"
        },
        {
          "internalType": "bytes",
          "name": "data",
          "type": "bytes"
        }
      ],
      "name": "onERC1155Received",
      "outputs": [
        {
          "internalType": "bytes4",
          "name": "",
          "type": "bytes4"
        }
      ],
      "stateMutability": "pure",
      "type": "function",
      "constant": true
    },
    {
      "inputs": [
        {
          "internalType": "address",
          "name": "operator",
          "type": "address"
        },
        {
          "internalType": "address",
          "name": "from",
          "type": "address"
        },
        {
          "internalType": "uint256[]",
          "name": "ids",
          "type": "uint256[]"
        },
        {
          "internalType": "uint256[]",
          "name": "values",
          "type": "uint256[]"
        },
        {
          "internalType": "bytes",
          "name": "data",
          "type": "bytes"
        }
      ],
      "name": "onERC1155BatchReceived",
      "outputs": [
        {
          "internalType": "bytes4",
          "name": "",
          "type": "bytes4"
        }
      ],
      "stateMutability": "pure",
      "type": "function",
      "constant": true
    },
    {
      "inputs": [
        {
          "internalType": "address",
          "name": "shop",
          "type": "address"
        }
      ],
      "name": "setShop",
      "outputs": [],
      "stateMutability": "nonpayable",
      "type": "function"
    },
    {
      "inputs": [
        {
          "internalType": "address",
          "name": "hero",
          "type": "address"
        }
      ],
      "name": "setHero",
      "outputs": [],
      "stateMutability": "nonpayable",
      "type": "function"
    }
  ],
  "bytecode": "0x60e06040526107d060809081526101f460a05260c860c052620000279060019060036200153c565b50604080516080810182526069815260196020820152608291810191909152601560608201526200005d906002906004620015f6565b50604080518082019091526117708152610fa06020820152620000859060039060026200153c565b50600480546001600160401b0319166103e817815560408051608081018252600081526001602082015260029181019190915260036060820152620000ce916005919062001666565b506040805160608101825260048152600560208201526006918101829052620000fa9190600362001666565b5060078055600880805560098055604080516080810182526001815260026020820152600491810182905260608101929092526200013b91600a9162001666565b503480156200014957600080fd5b5060405162005983380380620059838339810160408190526200016c9162001796565b6200017733620014e6565b6200018d826200153660201b62002f281760201c565b620001cd5760405162461bcd60e51b815260206004820152600b60248201526a13999d08125b9d985b1a5960aa1b60448201526064015b60405180910390fd5b620001e3816200153660201b62002f281760201c565b6200021f5760405162461bcd60e51b815260206004820152600b60248201526a13999d08125b9d985b1a5960aa1b6044820152606401620001c4565b600b80546001600160a01b038085166001600160a01b031992831617909255600c80549284169290911691909117905560408051606081018252600281526001602080830182905292820152600080527f81955a0a11e65eac625c29e8882660bae4e165a75d72780094acae8ece9a29ee909152620002c2907fab4c5e6d94bd05a4bc56bf86e345985172e352a45f60387bc2e75a915e3a19c2906003620016a9565b506040805160608101825260028152600160208083018290529282018190526000527f81955a0a11e65eac625c29e8882660bae4e165a75d72780094acae8ece9a29ee90915262000337907fc60e777e3969e7af65eb621b710e8488643506f977562c73dba103cb35b15a84906003620016a9565b5060408051606081018252600280825260016020808401919091529282015260008052600080516020620059238339815191529091526200039c907fb160a7406e28258be08ad805a9afb846e1966a5cc82707dbcb44ed395fc389ee906003620016a9565b50604080516060810182526003808252600260208084018290529383015260016000526000805160206200592383398151915290925262000400917f9786f677b3dff6c36ad0d47ef13860fd51b928c112d9702e0dea2fe690bf6ec19190620016a9565b5060408051606081018252600481526003602080830182905260029383018490526000939093526000805160206200592383398151915290925262000468917f54bf5bc4b2226bde4cc3e74a9ec72288325c7fa9a62e34b6f2e529209d79e0fb9190620016a9565b50604080516060810182526005815260046020808301919091526002928201929092526003600081905260008051602062005923833981519152909252620004d3917fca689a1f7db89b8710c79c63830a1317054bd8ec2ee851f1b33a21b2a41ae4f99190620016a9565b506040805160608101825260028152600160208083019190915260039282018390526000805260008051602062005943833981519152905262000539917fb9d46844e5f44943022fede37b711babdd9de39af3cab9490ab8d63ad17d13029190620016a9565b506040805160608101825260038082526002602080840191909152928201819052600160005260008051602062005943833981519152909252620005a0917f332275a058505107a86f8909487584ee26365a1ad866fdfd7d0ca217736986ed9190620016a9565b50604080516060810182526004808252600360208084018290529383019190915260026000526000805160206200594383398151915290925262000607917f43a1014b6961384d1120382c968e1e5a446fd730c5b0be82a93447b93d8c57809190620016a9565b506040805160608101825260058152600460208083018290529282015260036000819052600080516020620059438339815191529092526200066c917fb963a2cc96831b7d1bee11154ddec13c7b5e8ac05c70661c4538de70ac16a32a9190620016a9565b5060408051606081018252600681526005602080830191909152600492820183905260009290925260008051602062005943833981519152909152620006d6907f13e573e12d0a272934280a8dcf7705a08d708490f67ab59f70b9b76ea0941189906003620016a9565b506040805160608101825260028152600160208083019190915260059282019290925260008052600080516020620059038339815191529091526200073f907f8766d65f062c0ef4ef6d0904498fe293d275999dda7c3b2e86c36355a8ea1b43906003620016a9565b506040805160608101825260038082526002602080840191909152600593830193909352600160005260008051602062005903833981519152909252620007a9917fa4b2ae645069b0fe342e4873e7f3a2b47b2e1410299f64d1a1b2c9313380bac89190620016a9565b5060408051606081018252600481526003602080830182905260059383019390935260026000526000805160206200590383398151915290925262000811917fdf907ee502102e7c62cec3210e3216baba694172f98d9878eb35ef1bec0d16b09190620016a9565b506040805160608101825260058152600460208083019190915260069282019290925260036000819052600080516020620059038339815191529092526200087c917f453e2823e0c78b590eaeddf7807d57c263c48a0a3d13054dd8d170a8a0b546909190620016a9565b50604080516060810182526006808252600560208084019190915292820152600460005260008051602062005903833981519152909152620008e2907fd4d17f3dfcaad0457158eed76fbc8d57cc8b3c80aae169dc6cfafeb074aeeb53906003620016a9565b506040805160608101825260078152600660208083018290529282015260056000526000805160206200590383398151915290915262000946907f2d59f287f6c2da692536447a5aa2fff8a3e34e7a8a7aff4409374cd27d8a153e906003620016a9565b5060408051606081018252600281526001602080830191909152600a9282019290925260008052600080516020620058c3833981519152909152620009af907f6bd412ebfcfbe461c4e41627a59fac53c3ee2838a97c6c8dc311b4befcba70b0906003620016a9565b506040805160608101825260038082526002602080840191909152600a938301939093526001600052600080516020620058c383398151915290925262000a19917f6868be3980be7fd972596ca506cada9b78aca12a9006443b1916ce784f8ef8a89190620016a9565b50604080516060810182526004815260036020808301829052600a938301939093526002600052600080516020620058c383398151915290925262000a81917f84e722789c62b0dc97803f3d1dab51fd1ef82b0c463751f13b5ecc891f27158a9190620016a9565b5060408051606081018252600581526004602080830191909152600a9282019290925260036000819052600080516020620058c383398151915290925262000aec917f11a6df99eada7208f7aa93e8b6930faa7431d65501c040d3866253a695b946f09190620016a9565b5060408051606081018252600681526005602080830191909152600a928201929092526004600052600080516020620058c383398151915290915262000b56907f20746fe009d34953a307298e449648771531a7fbef58ee8357ded5b961ec03f8906003620016a9565b5060408051606081018252600781526006602080830191909152600a928201929092526005600052600080516020620058c383398151915290915262000bc0907f4d46e58dcd0f103958dc5dd2b7896b386b456ef637c81e91f8c0f4f75acfe338906003620016a9565b5060408051606081018252600881526007602080830191909152600a928201929092526006600052600080516020620058c383398151915290915262000c2a907fbb705d6d24e0c5000dc44388cf5d00c9e5d66473b382fbe9d3821c3fc11a3746906003620016a9565b5060408051606081018252600981526008602080830191909152600a928201929092526007600052600080516020620058c383398151915290915262000c94907f4d23f0489e226fa8480fdc93e18a2dd2dfa68bbbbd067b7dc3ba9dc299a7c17f906003620016a9565b5060408051606081018252600a8082526009602080840191909152928201526008600052600080516020620058c383398151915290915262000cfa907f717cbdb877515f16495ddf83601faa9f5b691db55451180bbef73d438d8f933d906003620016a9565b5060408051606081018252600b8152600a6020808301829052928201526009600052600080516020620058c383398151915290915262000d5e907fd4f796960fe260878f8fe97ef216b9a7b04402fab307da2b8a824943eac18c7c906003620016a9565b5060408051606081018252600c8152600b602080830191909152600a928201839052600092909252600080516020620058c383398151915290915262000dc8907f15abfde73004373c175e3ab0457b929ced3366fb19837029499cb3f71e2d2796906003620016a9565b5060408051608081018252611f4081526107cf60208083019190915260019282019290925260006060820181905280526000805160206200596383398151915290915262000e3a907f2f9281680502dfead900c00c0bcc8d9a2b85abd936564faa45d975decb4e8a6f90600462001705565b506040805160808101825261132480825260208083019190915260c7928201929092526001606082018190526000526000805160206200596383398151915290915262000eab907fe668067d73ac375a2f547501890030fb4b5ef164760095835b20ad7760d26fe890600462001705565b506040805160808101825261132480825260208083019190915260c7928201929092526001606082015260008052600080516020620058a383398151915290915262000f1b907f14c59eed989372b13b9ffdad3c397c178450139af216ccc91acde49544dcd98090600462001705565b50604080516080810182526109c48152611388602080830191909152610960928201929092526064606082015260026000526000805160206200596383398151915290915262000f8f907fd0c013b265a56b9d233634f23c49648db608f3f81a094135bf4ddc639f54719290600462001705565b50604080516080810182526109c48152611388602080830191909152610960928201929092526064606082015260008052600080516020620058e383398151915290915262001002907fd7af69c09ebd9aa8e04eef1bc56ae5a74ecab8dfd534bc4f3dc6926ec089f70090600462001705565b50604080516080810182526107d08152610bb8602080830191909152610fa0928201929092526103e8606082015260036000526000805160206200596383398151915290915262001077907f1bb5b8fcd10747407918c9c7ae580c74583a938233a553cac6bb425b83498bd990600462001705565b50604080516080810182526107d08152610bb8602080830191909152610fa0928201929092526103e860608201526000805260008051602062005883833981519152909152620010eb907fea7e800b1d2554856c28c3a0d4035febbfff76e5dbf67c44d64048700a78ed4c90600462001705565b50604080516080810182526000808252611f406020808401919091526107c693830193909352600a606083015260019052600080516020620058a38339815191529091526200115e907f6d8c2b81d5bf02d93ce81bb6153d65f720969373f686d58fda488cb5bee16cf290600462001705565b5060408051608081018252600080825261132460208084018290529383015260c8606083015260029052600080516020620058a3833981519152909152620011ca907fe6162961f75d99acde149e0a34f0888397f992aabac3b4694faa893ac55d2fb890600462001705565b5060408051608081018252600080825261132460208084018290529383015260c8606083015260019052600080516020620058e383398151915290915262001236907f3fd298cf0ea26e613904be1c86a062480f4d0fc55905a0a79ff72f512801c08190600462001705565b506040805160808101825260008082526105dc602080840191909152611d4c938301939093526103e8606083015260039052600080516020620058a3833981519152909152620012aa907f6d6d901f3c8365ca63fe03cd1132400ce18ab69b7cef923add284dea78f9c20490600462001705565b506040805160808101825260008082526105dc602080840191909152611d4c938301939093526103e8606083015260019052600080516020620058838339815191529091526200131e907fbdf6314b96672277c46193ae908918e642e1724a98d1751df342b58472ca2c6090600462001705565b506040805160808101825260008082526020808301829052612134938301939093526105dc606083015260029052600080516020620058e38339815191529091526200138e907f73e77ef2586f1171a33032b7c84d5563499036eb4e75db711fa37085a1913c0090600462001705565b506040805160808101825260008082526020808301829052611b5893830193909352610bb8606083015260039052600080516020620058e3833981519152909152620013fe907fd04705f5ab0c9e1ab21725dcaf4c7994498d99fed4e605aa84b14cb4b08d47c590600462001705565b506040805160808101825260008082526020808301829052611b5893830193909352610bb8606083015260029052600080516020620058838339815191529091526200146e907f6d1374438f3755c3003ca1d0d4baabd707f2f16276add44382f967538accb70c90600462001705565b50604080516080810182526000808252602080830182905260c89383019390935261264860608301526003905260008051602062005883833981519152909152620014dd907f660f6439d278d54c69f8a91eec618718cb05d9d91c69eb9629af358776fa38fb90600462001705565b505050620017ce565b600080546001600160a01b038381166001600160a01b0319831681178455604051919092169283917f8be0079c531659141344cd1fd0a4f28419497f9722a3daafe3b4186f6b6457e09190a35050565b3b151590565b82805482825590600052602060002090600301600490048101928215620015e45791602002820160005b83821115620015ad57835183826101000a8154816001600160401b03021916908361ffff160217905550926020019260080160208160070104928301926001030262001566565b8015620015e25782816101000a8154906001600160401b030219169055600801602081600701049283019260010302620015ad565b505b50620015f292915062001762565b5090565b82805482825590600052602060002090600301600490048101928215620015e45791602002820160005b83821115620015ad57835183826101000a8154816001600160401b03021916908360ff160217905550926020019260080160208160070104928301926001030262001620565b828054828255906000526020600020908101928215620015e4579160200282015b82811115620015e4578251829060ff1690559160200191906001019062001687565b600183019183908215620015e457916020028201600083821115620015ad57835183826101000a8154816001600160401b03021916908360ff160217905550926020019260080160208160070104928301926001030262001620565b600183019183908215620015e457916020028201600083821115620015ad57835183826101000a8154816001600160401b03021916908361ffff160217905550926020019260080160208160070104928301926001030262001566565b5b80821115620015f2576000815560010162001763565b80516001600160a01b03811681146200179157600080fd5b919050565b60008060408385031215620017aa57600080fd5b620017b58362001779565b9150620017c56020840162001779565b90509250929050565b6140a580620017de6000396000f3fe608060405234801561001057600080fd5b50600436106101cf5760003560e01c80638ff3b68c11610104578063e245e064116100a2578063ec1f215011610071578063ec1f2150146103f1578063f23a6e6114610404578063f2fde38b1461041e578063fc157cb41461043157600080fd5b8063e245e064146103a5578063e39f82eb146103b8578063e4a0d9ca146103cb578063e8a77d17146103de57600080fd5b8063c324965b116100de578063c324965b14610359578063cb1e2f391461036c578063ce965f6a1461037f578063d2d5020d1461039257600080fd5b80638ff3b68c14610308578063a1f0406d14610311578063bc197c811461032457600080fd5b806349abc33211610171578063687440461161014b57806368744046146102c9578063715018a6146102dc57806379ea58fc146102e45780638da5cb5b146102f757600080fd5b806349abc3321461029a5780635104e60c146102ad5780635800ba11146102c057600080fd5b8063248e3191116101ad578063248e31911461023e5780632a6a68b5146102535780633bba6a361461025c57806345e3b8c01461028757600080fd5b806301ffc9a7146101d45780630be2839f146101fc5780631826117b14610227575b600080fd5b6101e76101e23660046136f0565b610440565b60405190151581526020015b60405180910390f35b61020f61020a36600461371a565b610451565b6040516001600160401b0390911681526020016101f3565b61023060095481565b6040519081526020016101f3565b61025161024c36600461371a565b61048e565b005b61023060085481565b600b5461026f906001600160a01b031681565b6040516001600160a01b0390911681526020016101f3565b600c5461026f906001600160a01b031681565b61020f6102a8366004613748565b610da3565b6102306102bb36600461371a565b610df2565b61023061271081565b6102306102d736600461371a565b610e13565b610251610e23565b60045461020f906001600160401b031681565b6000546001600160a01b031661026f565b61023060075481565b61023061031f36600461371a565b610e62565b61034061033236600461382a565b600098975050505050505050565b6040516001600160e01b031990911681526020016101f3565b6102516103673660046138e8565b610e72565b61025161037a366004613989565b610ebe565b61025161038d3660046138e8565b612035565b6102516103a036600461371a565b612081565b61020f6103b336600461371a565b61256f565b6102516103c636600461371a565b61257f565b61020f6103d936600461371a565b6129b2565b6102516103ec36600461371a565b6129c2565b61020f6103ff366004613748565b612e65565b610340610412366004613a5a565b60009695505050505050565b61025161042c3660046138e8565b612e8d565b610230670de0b6b3a764000081565b600061044b82612f2e565b92915050565b6003818154811061046157600080fd5b9060005260206000209060049182820401919006600802915054906101000a90046001600160401b031681565b600b546040516331a9108f60e11b81526004810183905233916001600160a01b031690636352211e9060240160206040518083038186803b1580156104d257600080fd5b505afa1580156104e6573d6000803e3d6000fd5b505050506040513d601f19601f8201168201806040525081019061050a9190613ad5565b6001600160a01b03161461051d57600080fd5b600b546040516321d8011160e01b8152600481018390526000916001600160a01b0316906321d80111906024016102206040518083038186803b15801561056357600080fd5b505afa158015610577573d6000803e3d6000fd5b505050506040513d601f19601f8201168201806040525081019061059b9190613b84565b905060058160a0015160ff16106105b157600080fd5b600c5460e0820151600580546000936001600160a01b03169262fdd58e923392909160ff169081106105e5576105e5613c77565b6000918252602090912001546040516001600160e01b031960e085901b1681526001600160a01b039092166004830152602482015260440160206040518083038186803b15801561063557600080fd5b505afa158015610649573d6000803e3d6000fd5b505050506040513d601f19601f8201168201806040525081019061066d9190613c8d565b606083015160ff9081166000908152600d6020908152604080832060c088015190941683529290522054909150600160801b90046001600160401b03168110156106b657600080fd5b60008260a0015160056106c99190613cbc565b606084015160ff9081166000908152600d6020908152604080832060c0890151851684529091528120549290911692509061071490600160801b90046001600160401b031684613cf5565b60408051600580825260c08201909252919250600091906020820160a080368337019050509050816001600160401b0316836001600160401b03161115610a8357600c60009054906101000a90046001600160a01b03166001600160a01b031663f242432a333060058960e0015160ff168154811061079557610795613c77565b60009182526020808320919091015460608c015160ff9081168452600d8352604080852060c08f0151909216855292529120546107e3908890600160801b90046001600160401b0316613d1b565b6040518563ffffffff1660e01b81526004016108029493929190613d4a565b600060405180830381600087803b15801561081c57600080fd5b505af1158015610830573d6000803e3d6000fd5b5050505060005b60058110156109ff578561012001516001600160401b03166005141561090a57856101400151816005811061086e5761086e613c77565b60209081029190910151610100880151606089015160ff9081166000908152600d8552604080822060c08d015190931682529190945290922054909185916108bf91906001600160401b0316613d1b565b6108c99190613d1b565b6108d39190613d8a565b8282815181106108e5576108e5613c77565b60200260200101906001600160401b031690816001600160401b0316815250506109ed565b808661012001516001600160401b0316141561093757856101400151816005811061086e5761086e613c77565b856101400151816005811061094e5761094e613c77565b60209081029190910151610100880151606089015160ff9081166000908152600d8552604080822060c08d015190931682529190945290922054909185916109a69190600160401b90046001600160401b0316613d1b565b6109b09190613d1b565b6109ba9190613d8a565b8282815181106109cc576109cc613c77565b60200260200101906001600160401b031690816001600160401b0316815250505b806109f781613db5565b915050610837565b50600b5460a08601516001600160a01b03909116906375fdff91908890610a27908690613dd0565b8860c00151856040518563ffffffff1660e01b8152600401610a4c9493929190613e39565b600060405180830381600087803b158015610a6657600080fd5b505af1158015610a7a573d6000803e3d6000fd5b50505050610d9b565b600c60009054906101000a90046001600160a01b03166001600160a01b031663f242432a333060058960e0015160ff1681548110610ac357610ac3613c77565b60009182526020808320919091015460608c015160ff9081168452600d8352604080852060c08f015190921685529252912054610b11908990600160801b90046001600160401b0316613d1b565b6040518563ffffffff1660e01b8152600401610b309493929190613d4a565b600060405180830381600087803b158015610b4a57600080fd5b505af1158015610b5e573d6000803e3d6000fd5b5050505060005b6005811015610d2d578561012001516001600160401b031660051415610c38578561014001518160058110610b9c57610b9c613c77565b60209081029190910151610100880151606089015160ff9081166000908152600d8552604080822060c08d01519093168252919094529092205490918691610bed91906001600160401b0316613d1b565b610bf79190613d1b565b610c019190613d8a565b828281518110610c1357610c13613c77565b60200260200101906001600160401b031690816001600160401b031681525050610d1b565b808661012001516001600160401b03161415610c65578561014001518160058110610b9c57610b9c613c77565b8561014001518160058110610c7c57610c7c613c77565b60209081029190910151610100880151606089015160ff9081166000908152600d8552604080822060c08d01519093168252919094529092205490918691610cd49190600160401b90046001600160401b0316613d1b565b610cde9190613d1b565b610ce89190613d8a565b828281518110610cfa57610cfa613c77565b60200260200101906001600160401b031690816001600160401b0316815250505b80610d2581613db5565b915050610b65565b50600b5460c08601516040516375fdff9160e01b81526001600160a01b03909216916375fdff9191610d68918a916005918790600401613e39565b600060405180830381600087803b158015610d8257600080fd5b505af1158015610d96573d6000803e3d6000fd5b505050505b505050505050565b600d6020528260005260406000206020528160005260406000208160038110610dcb57600080fd5b6004918282040191900660080292509250509054906101000a90046001600160401b031681565b600a8181548110610e0257600080fd5b600091825260209091200154905081565b60058181548110610e0257600080fd5b6000546001600160a01b03163314610e565760405162461bcd60e51b8152600401610e4d90613e6e565b60405180910390fd5b610e606000612f63565b565b60068181548110610e0257600080fd5b6000546001600160a01b03163314610e9c5760405162461bcd60e51b8152600401610e4d90613e6e565b600b80546001600160a01b0319166001600160a01b0392909216919091179055565b8351600214610ecc57600080fd5b600b54845133916001600160a01b031690636352211e908790600090610ef457610ef4613c77565b60200260200101516040518263ffffffff1660e01b8152600401610f1a91815260200190565b60206040518083038186803b158015610f3257600080fd5b505afa158015610f46573d6000803e3d6000fd5b505050506040513d601f19601f82011682018060405250810190610f6a9190613ad5565b6001600160a01b03161480156110265750600b54845133916001600160a01b031690636352211e9087906001908110610fa557610fa5613c77565b60200260200101516040518263ffffffff1660e01b8152600401610fcb91815260200190565b60206040518083038186803b158015610fe357600080fd5b505afa158015610ff7573d6000803e3d6000fd5b505050506040513d601f19601f8201168201806040525081019061101b9190613ad5565b6001600160a01b0316145b61102f57600080fd5b600b5484516000916001600160a01b0316906321d80111908790849061105757611057613c77565b60200260200101516040518263ffffffff1660e01b815260040161107d91815260200190565b6102206040518083038186803b15801561109657600080fd5b505afa1580156110aa573d6000803e3d6000fd5b505050506040513d601f19601f820116820180604052508101906110ce9190613b84565b600b5486519192506000916001600160a01b03909116906321d8011190889060019081106110fe576110fe613c77565b60200260200101516040518263ffffffff1660e01b815260040161112491815260200190565b6102206040518083038186803b15801561113d57600080fd5b505afa158015611151573d6000803e3d6000fd5b505050506040513d601f19601f820116820180604052508101906111759190613b84565b9050806060015160ff16826060015160ff1614801561119b57506004826060015160ff16105b6111a457600080fd5b806040015160ff16826040015160ff16146111be57600080fd5b6000805b600281101561127d57600b5488516001600160a01b03909116906323b872dd90339030908c90869081106111f8576111f8613c77565b60209081029190910101516040516001600160e01b031960e086901b1681526001600160a01b0393841660048201529290911660248301526044820152606401600060405180830381600087803b15801561125257600080fd5b505af1158015611266573d6000803e3d6000fd5b50505050808061127590613db5565b9150506111c2565b5060408051600580825260c082019092526000916020820160a080368337505060408051600580825260c0820190925292935060009291506020820160a08036833701905050905060005b6005816001600160401b0316101561139357856101400151816001600160401b0316600581106112fa576112fa613c77565b602002015183826001600160401b03168151811061131a5761131a613c77565b6001600160401b0392831660209182029290920101526101408601519082166005811061134957611349613c77565b602002015182826001600160401b03168151811061136957611369613c77565b6001600160401b03909216602092830291909101909101528061138b81613ea3565b9150506112c8565b508361012001516001600160401b03168561012001516001600160401b0316141580156113c75750846060015160ff166003145b1561147e57808461012001516001600160401b0316815181106113ec576113ec613c77565b6020026020010151818661012001516001600160401b03168151811061141457611414613c77565b6020026020010151828761012001516001600160401b03168151811061143c5761143c613c77565b60200260200101848761012001516001600160401b03168151811061146357611463613c77565b6001600160401b039384166020918202929092010152911690525b60005b6005816001600160401b031610156115285781816001600160401b0316815181106114ae576114ae613c77565b602002602001015183826001600160401b0316815181106114d1576114d1613c77565b60200260200101516114e39190613d8a565b83826001600160401b0316815181106114fe576114fe613c77565b6001600160401b03909216602092830291909101909101528061152081613ea3565b915050611481565b5060408051600680825260e082019092526000916020820160c08036833701905050905060018160008151811061156157611561613c77565b6001600160401b03909216602092830291909101909101526060860151611589906001613dd0565b60ff168160018151811061159f5761159f613c77565b60200260200101906001600160401b031690816001600160401b0316815250506000816002815181106115d4576115d4613c77565b60200260200101906001600160401b031690816001600160401b03168152505060008160038151811061160957611609613c77565b6001600160401b039290921660209283029190910182015260408051600480825260a0820190925260009290919082016080803683375050604080516002808252606082018352939450600093909250906020830190803683370190505090506000805b6004816001600160401b031610156117645760e0808b015160ff9081166000908152600e60209081526040808320948e015190931682529290925290206001600160401b038216600481106116c4576116c4613c77565b600491828204019190066008029054906101000a90046001600160401b031684826001600160401b0316815181106116fe576116fe613c77565b6001600160401b03928316602091820292909201015284518591831690811061172957611729613c77565b60200260200101516001600160401b031660001415801561175157506001600160401b038216155b508061175c81613ea3565b91505061166d565b5060005b60028110156117c75782818151811061178357611783613c77565b602002602001015183828151811061179d5761179d613c77565b6001600160401b0390921660209283029190910190910152806117bf81613db5565b915050611768565b508b1561199957806001600160401b03168b1180156117e757506006548b105b6117f057600080fd5b600c60009054906101000a90046001600160a01b03166001600160a01b031663f242432a333060068f8154811061182957611829613c77565b9060005260206000200154600a8e6060015160ff168154811061184e5761184e613c77565b90600052602060002001546040518563ffffffff1660e01b81526004016118789493929190613eca565b600060405180830381600087803b15801561189257600080fd5b505af11580156118a6573d6000803e3d6000fd5b5050505060018b815481106118bd576118bd613c77565b90600052602060002090600491828204019190066008029054906101000a90046001600160401b031683826001600160401b03168151811061190157611901613c77565b602002602001018181516119159190613f02565b6001600160401b0316905250600180548c90811061193557611935613c77565b6000918252602090912060048204015460039091166008026101000a90046001600160401b0316836119688d6001613f2a565b8151811061197857611978613c77565b6020026020010181815161198c9190613d8a565b6001600160401b03169052505b8915611abf57600c60009054906101000a90046001600160a01b03166001600160a01b031663f242432a3330600854600a8e6060015160ff16815481106119e2576119e2613c77565b90600052602060002001546040518563ffffffff1660e01b8152600401611a0c9493929190613eca565b600060405180830381600087803b158015611a2657600080fd5b505af1158015611a3a573d6000803e3d6000fd5b505060045484516001600160401b039091169250849150600090611a6057611a60613c77565b60200260200101818151611a749190613f02565b6001600160401b0390811690915260045484519116915083906001908110611a9e57611a9e613c77565b60200260200101818151611ab29190613d8a565b6001600160401b03169052505b600080611ad96127108a611ad281613db5565b9b50612fb3565b6001600160401b0316905060005b6004816001600160401b03161015611b9057611b3786826001600160401b031681518110611b1757611b17613c77565b60200260200101516001600160401b03168461301b90919063ffffffff16565b9250828210611b4557611b7e565b8087600481518110611b5957611b59613c77565b60200260200101906001600160401b031690816001600160401b031681525050611b90565b80611b8881613ea3565b915050611ae7565b5060008080611bac6127108d611ba581613db5565b9e50612fb3565b6001600160401b0316905060005b6002816001600160401b03161015611c1b57611bea88826001600160401b031681518110611b1757611b17613c77565b9250828210611bf857611c09565b806001600160401b03169350611c1b565b80611c1381613ea3565b915050611bba565b50600083611cc057611c726002600181548110611c3a57611c3a613c77565b6000918252602090912060048204015460039091166008026101000a90046001600160401b03168e611c6b81613db5565b9f50612fb3565b6002600081548110611c8657611c86613c77565b90600052602060002090600491828204019190066008029054906101000a90046001600160401b0316611cb99190613d8a565b9050611d20565b611cd76002600381548110611c3a57611c3a613c77565b60028081548110611cea57611cea613c77565b90600052602060002090600491828204019190066008029054906101000a90046001600160401b0316611d1d9190613d8a565b90505b60005b6005816001600160401b03161015611db4576064828e836001600160401b031681518110611d5357611d53613c77565b6020026020010151611d659190613d1b565b611d6f9190613cf5565b8d826001600160401b031681518110611d8a57611d8a613c77565b6001600160401b039092166020928302919091019091015280611dac81613ea3565b915050611d23565b50505050505050505050600080600b60009054906101000a90046001600160a01b03166001600160a01b031663793eece184600481518110611df857611df8613c77565b60200260200101516040518263ffffffff1660e01b8152600401611e2b91906001600160401b0391909116815260200190565b604080518083038186803b158015611e4257600080fd5b505afa158015611e56573d6000803e3d6000fd5b505050506040513d601f19601f82011682018060405250810190611e7a9190613f42565b91509150611e9d816001600160401b03168780611e9690613db5565b9850612fb3565b611ea79083613d8a565b83600581518110611eba57611eba613c77565b6001600160401b039290921660209283029190910182015260408051600d8082526101c0820190925260009290919082016101a080368337019050509050611f12848a61012001518860018d6040015160ff1661302e565b905060005b6002811015611fc157600b60009054906101000a90046001600160a01b03166001600160a01b03166381398fed8f8381518110611f5657611f56613c77565b60200260200101516040518263ffffffff1660e01b8152600401611f7c91815260200190565b600060405180830381600087803b158015611f9657600080fd5b505af1158015611faa573d6000803e3d6000fd5b505050508080611fb990613db5565b915050611f17565b50600b54604051632d716a8b60e11b81526001600160a01b0390911690635ae2d51690611ff49033908590600401613f7c565b600060405180830381600087803b15801561200e57600080fd5b505af1158015612022573d6000803e3d6000fd5b5050505050505050505050505050505050565b6000546001600160a01b0316331461205f5760405162461bcd60e51b8152600401610e4d90613e6e565b600c80546001600160a01b0319166001600160a01b0392909216919091179055565b600b546040516331a9108f60e11b81526004810183905233916001600160a01b031690636352211e9060240160206040518083038186803b1580156120c557600080fd5b505afa1580156120d9573d6000803e3d6000fd5b505050506040513d601f19601f820116820180604052508101906120fd9190613ad5565b6001600160a01b03161461211057600080fd5b600b546040516321d8011160e01b8152600481018390526000916001600160a01b0316906321d80111906024016102206040518083038186803b15801561215657600080fd5b505afa15801561216a573d6000803e3d6000fd5b505050506040513d601f19601f8201168201806040525081019061218e9190613b84565b600b54606082015160405163590ad11160e01b815260ff90911660048201529192506001600160a01b03169063590ad1119060240160206040518083038186803b1580156121db57600080fd5b505afa1580156121ef573d6000803e3d6000fd5b505050506040513d601f19601f820116820180604052508101906122139190613fa0565b60ff168160c0015160ff1610801561223257508060a0015160ff166005145b61223b57600080fd5b600c54600754606083015160ff9081166000908152600d6020908152604080832060c0880151909416835292905220546001600160a01b039092169163f242432a91339130919061229d90600160801b90046001600160401b03166002613d1b565b6040518563ffffffff1660e01b81526004016122bc9493929190613d4a565b600060405180830381600087803b1580156122d657600080fd5b505af11580156122ea573d6000803e3d6000fd5b5060009250600591506122fa9050565b604051908082528060200260200182016040528015612323578160200160208202803683370190505b50905060005b60058110156124ed578261012001516001600160401b0316600514156123fa57826101400151816005811061236057612360613c77565b60209081029190910151610100850151606086015160ff9081166000908152600d8552604080822060c08a01519093168252919094529092205490916123ae916001600160401b0316613d1b565b6123b9906002613d1b565b6123c39190613d8a565b8282815181106123d5576123d5613c77565b60200260200101906001600160401b031690816001600160401b0316815250506124db565b808361012001516001600160401b0316141561242757826101400151816005811061236057612360613c77565b826101400151816005811061243e5761243e613c77565b60209081029190910151610100850151606086015160ff9081166000908152600d8552604080822060c08a015190931682529190945290922054909161249391600160401b90046001600160401b0316613d1b565b61249e906002613d1b565b6124a89190613d8a565b8282815181106124ba576124ba613c77565b60200260200101906001600160401b031690816001600160401b0316815250505b806124e581613db5565b915050612329565b50600b5460c08301516001600160a01b03909116906375fdff91908590600090612518906001613dd0565b856040518563ffffffff1660e01b81526004016125389493929190613e39565b600060405180830381600087803b15801561255257600080fd5b505af1158015612566573d6000803e3d6000fd5b50505050505050565b6001818154811061046157600080fd5b600b546040516331a9108f60e11b81526004810183905233916001600160a01b031690636352211e9060240160206040518083038186803b1580156125c357600080fd5b505afa1580156125d7573d6000803e3d6000fd5b505050506040513d601f19601f820116820180604052508101906125fb9190613ad5565b6001600160a01b03161461260e57600080fd5b600b546040516321d8011160e01b8152600481018390526000916001600160a01b0316906321d80111906024016102206040518083038186803b15801561265457600080fd5b505afa158015612668573d6000803e3d6000fd5b505050506040513d601f19601f8201168201806040525081019061268c9190613b84565b905060058160a0015160ff16106126a257600080fd5b600c60009054906101000a90046001600160a01b03166001600160a01b031663f242432a333060058560e0015160ff16815481106126e2576126e2613c77565b600091825260208083209190910154606088015160ff9081168452600d8352604080852060c08b0151909216855292529181902054905160e086901b6001600160e01b031916815261274a94939291600160801b90046001600160401b031690600401613d4a565b600060405180830381600087803b15801561276457600080fd5b505af1158015612778573d6000803e3d6000fd5b5060009250600591506127889050565b6040519080825280602002602001820160405280156127b1578160200160208202803683370190505b50905060005b6005811015612965578261012001516001600160401b03166005141561287d5782610140015181600581106127ee576127ee613c77565b60209081029190910151610100850151606086015160ff9081166000908152600d8552604080822060c08a015190931682529190945290922054909161283c916001600160401b0316613d1b565b6128469190613d8a565b82828151811061285857612858613c77565b60200260200101906001600160401b031690816001600160401b031681525050612953565b808361012001516001600160401b031614156128aa5782610140015181600581106127ee576127ee613c77565b82610140015181600581106128c1576128c1613c77565b60209081029190910151610100850151606086015160ff9081166000908152600d8552604080822060c08a015190931682529190945290922054909161291691600160401b90046001600160401b0316613d1b565b6129209190613d8a565b82828151811061293257612932613c77565b60200260200101906001600160401b031690816001600160401b0316815250505b8061295d81613db5565b9150506127b7565b50600b5460a08301516001600160a01b03909116906375fdff9190859061298d906001613dd0565b8560c00151856040518563ffffffff1660e01b81526004016125389493929190613e39565b6002818154811061046157600080fd5b600b546040516331a9108f60e11b81526004810183905233916001600160a01b031690636352211e9060240160206040518083038186803b158015612a0657600080fd5b505afa158015612a1a573d6000803e3d6000fd5b505050506040513d601f19601f82011682018060405250810190612a3e9190613ad5565b6001600160a01b031614612a5157600080fd5b600b546040516321d8011160e01b8152600481018390526000916001600160a01b0316906321d80111906024016102206040518083038186803b158015612a9757600080fd5b505afa158015612aab573d6000803e3d6000fd5b505050506040513d601f19601f82011682018060405250810190612acf9190613b84565b90506004816060015160ff1610612ae557600080fd5b600c60009054906101000a90046001600160a01b03166001600160a01b031663f242432a3330600954600a866060015160ff1681548110612b2857612b28613c77565b90600052602060002001546040518563ffffffff1660e01b8152600401612b529493929190613eca565b600060405180830381600087803b158015612b6c57600080fd5b505af1158015612b80573d6000803e3d6000fd5b506000925060069150612b909050565b604051908082528060200260200182016040528015612bb9578160200160208202803683370190505b5060408051600580825260c08201909252919250600091906020820160a08036833701905050905060005b6005816001600160401b03161015612c6057836101400151816001600160401b031660058110612c1657612c16613c77565b602002015182826001600160401b031681518110612c3657612c36613c77565b6001600160401b039092166020928302919091019091015280612c5881613ea3565b915050612be4565b50826020015160ff1682600081518110612c7c57612c7c613c77565b60200260200101906001600160401b031690816001600160401b031681525050826060015160ff1682600181518110612cb757612cb7613c77565b60200260200101906001600160401b031690816001600160401b0316815250508260a0015160ff1682600281518110612cf257612cf2613c77565b60200260200101906001600160401b031690816001600160401b0316815250508260c0015160ff1682600381518110612d2d57612d2d613c77565b60200260200101906001600160401b031690816001600160401b0316815250508260e0015160ff1682600481518110612d6857612d68613c77565b60200260200101906001600160401b031690816001600160401b03168152505082610100015182600581518110612da157612da1613c77565b6001600160401b039290921660209283029190910182015260408051600d8082526101c0820190925260009290919082016101a080368337019050509050612df983856101200151846001886040015160ff1661302e565b600b5460405163086a861f60e01b81529192506001600160a01b03169063086a861f90612e2c9088908590600401613fbb565b600060405180830381600087803b158015612e4657600080fd5b505af1158015612e5a573d6000803e3d6000fd5b505050505050505050565b600e6020528260005260406000206020528160005260406000208160048110610dcb57600080fd5b6000546001600160a01b03163314612eb75760405162461bcd60e51b8152600401610e4d90613e6e565b6001600160a01b038116612f1c5760405162461bcd60e51b815260206004820152602660248201527f4f776e61626c653a206e6577206f776e657220697320746865207a65726f206160448201526564647265737360d01b6064820152608401610e4d565b612f2581612f63565b50565b3b151590565b60006001600160e01b03198216630271189760e51b148061044b57506301ffc9a760e01b6001600160e01b031983161461044b565b600080546001600160a01b038381166001600160a01b0319831681178455604051919092169283917f8be0079c531659141344cd1fd0a4f28419497f9722a3daafe3b4186f6b6457e09190a35050565b600080428333604051602001612fee93929190928352602083019190915260601b6bffffffffffffffffffffffff1916604082015260540190565b60408051601f1981840301815291905280516020820120909150613013908590613fd4565b949350505050565b60006130278284613f2a565b9392505050565b60408051600d8082526101c0820190925260609160009190602082016101a08036833701905050905060008760008151811061306c5761306c613c77565b60200260200101518260008151811061308757613087613c77565b60200260200101906001600160401b031690816001600160401b0316815250508461317657600b5460408051633bd5e17760e01b8152905161313e926001600160a01b031691633bd5e177916004808301926020929190829003018186803b1580156130f257600080fd5b505afa158015613106573d6000803e3d6000fd5b505050506040513d601f19601f8201168201806040525081019061312a9190613fa0565b60ff168261313781613db5565b9350612fb3565b8260018151811061315157613151613c77565b60200260200101906001600160401b031690816001600160401b0316815250506131ab565b838260018151811061318a5761318a613c77565b60200260200101906001600160401b031690816001600160401b0316815250505b876001815181106131be576131be613c77565b6020026020010151826002815181106131d9576131d9613c77565b6001600160401b0390921660209283029190910190910152600b548251613268916001600160a01b03169063614a4e44908590600290811061321d5761321d613c77565b60200260200101516040518263ffffffff1660e01b815260040161325091906001600160401b0391909116815260200190565b60206040518083038186803b1580156130f257600080fd5b8260038151811061327b5761327b613c77565b60200260200101906001600160401b031690816001600160401b031681525050876002815181106132ae576132ae613c77565b6020026020010151826004815181106132c9576132c9613c77565b60200260200101906001600160401b031690816001600160401b031681525050876003815181106132fc576132fc613c77565b60200260200101518260058151811061331757613317613c77565b60200260200101906001600160401b031690816001600160401b0316815250508760048151811061334a5761334a613c77565b60200260200101518260068151811061336557613365613c77565b60200260200101906001600160401b031690816001600160401b0316815250508760058151811061339857613398613c77565b6020026020010151826007815181106133b3576133b3613c77565b6001600160401b0390921660209283029190910190910152600b5482516000916001600160a01b03169063a2edc2d690859060019081106133f6576133f6613c77565b60200260200101518560028151811061341157613411613c77565b60200260200101518660038151811061342c5761342c613c77565b60200260200101516040518463ffffffff1660e01b8152600401613470939291906001600160401b0393841681529183166020830152909116604082015260600190565b60c06040518083038186803b15801561348857600080fd5b505afa15801561349c573d6000803e3d6000fd5b505050506040513d601f19601f820116820180604052508101906134c09190613fe8565b5050505050905086816001600160401b0316815181106134e2576134e2613c77565b602002602001015187896001600160401b03168151811061350557613505613c77565b6020026020010151888a6001600160401b03168151811061352857613528613c77565b6020026020010189846001600160401b03168151811061354a5761354a613c77565b6001600160401b039384166020918202929092010152911690528651879060009061357757613577613c77565b60200260200101518360088151811061359257613592613c77565b60200260200101906001600160401b031690816001600160401b031681525050866001815181106135c5576135c5613c77565b6020026020010151836009815181106135e0576135e0613c77565b60200260200101906001600160401b031690816001600160401b0316815250508660028151811061361357613613613c77565b602002602001015183600a8151811061362e5761362e613c77565b60200260200101906001600160401b031690816001600160401b0316815250508660038151811061366157613661613c77565b602002602001015183600b8151811061367c5761367c613c77565b60200260200101906001600160401b031690816001600160401b031681525050866004815181106136af576136af613c77565b602002602001015183600c815181106136ca576136ca613c77565b6001600160401b0390921660209283029190910190910152509091505095945050505050565b60006020828403121561370257600080fd5b81356001600160e01b03198116811461302757600080fd5b60006020828403121561372c57600080fd5b5035919050565b6001600160401b0381168114612f2557600080fd5b60008060006060848603121561375d57600080fd5b833561376881613733565b9250602084013561377881613733565b929592945050506040919091013590565b6001600160a01b0381168114612f2557600080fd5b60008083601f8401126137b057600080fd5b5081356001600160401b038111156137c757600080fd5b6020830191508360208260051b85010111156137e257600080fd5b9250929050565b60008083601f8401126137fb57600080fd5b5081356001600160401b0381111561381257600080fd5b6020830191508360208285010111156137e257600080fd5b60008060008060008060008060a0898b03121561384657600080fd5b883561385181613789565b9750602089013561386181613789565b965060408901356001600160401b038082111561387d57600080fd5b6138898c838d0161379e565b909850965060608b01359150808211156138a257600080fd5b6138ae8c838d0161379e565b909650945060808b01359150808211156138c757600080fd5b506138d48b828c016137e9565b999c989b5096995094979396929594505050565b6000602082840312156138fa57600080fd5b813561302781613789565b634e487b7160e01b600052604160045260246000fd5b6040516101a081016001600160401b038111828210171561393e5761393e613905565b60405290565b604051601f8201601f191681016001600160401b038111828210171561396c5761396c613905565b604052919050565b8035801515811461398457600080fd5b919050565b6000806000806080858703121561399f57600080fd5b84356001600160401b03808211156139b657600080fd5b818701915087601f8301126139ca57600080fd5b81356020828211156139de576139de613905565b8160051b92506139ef818401613944565b828152928401810192818101908b851115613a0957600080fd5b948201945b84861015613a2757853582529482019490820190613a0e565b9850613a369050898201613974565b96505050505060408501359150613a4f60608601613974565b905092959194509250565b60008060008060008060a08789031215613a7357600080fd5b8635613a7e81613789565b95506020870135613a8e81613789565b9450604087013593506060870135925060808701356001600160401b03811115613ab757600080fd5b613ac389828a016137e9565b979a9699509497509295939492505050565b600060208284031215613ae757600080fd5b815161302781613789565b805160ff8116811461398457600080fd5b805161398481613733565b600082601f830112613b1f57600080fd5b60405160a081018181106001600160401b0382111715613b4157613b41613905565b6040528060a0840185811115613b5657600080fd5b845b81811015613b79578051613b6b81613733565b835260209283019201613b58565b509195945050505050565b60006102208284031215613b9757600080fd5b613b9f61391b565b82518152613baf60208401613af2565b6020820152613bc060408401613af2565b6040820152613bd160608401613af2565b6060820152613be260808401613af2565b6080820152613bf360a08401613af2565b60a0820152613c0460c08401613af2565b60c0820152613c1560e08401613af2565b60e0820152610100613c28818501613b03565b90820152610120613c3a848201613b03565b90820152610140613c4d85858301613b0e565b908201526101e0830151610160820152613c6a6102008401613af2565b6101808201529392505050565b634e487b7160e01b600052603260045260246000fd5b600060208284031215613c9f57600080fd5b5051919050565b634e487b7160e01b600052601160045260246000fd5b600060ff821660ff841680821015613cd657613cd6613ca6565b90039392505050565b634e487b7160e01b600052601260045260246000fd5b60006001600160401b0380841680613d0f57613d0f613cdf565b92169190910492915050565b60006001600160401b0380831681851681830481118215151615613d4157613d41613ca6565b02949350505050565b6001600160a01b03948516815292909316602083015260408201526001600160401b03909116606082015260a06080820181905260009082015260c00190565b60006001600160401b03808316818516808303821115613dac57613dac613ca6565b01949350505050565b6000600019821415613dc957613dc9613ca6565b5060010190565b600060ff821660ff84168060ff03821115613ded57613ded613ca6565b019392505050565b600081518084526020808501945080840160005b83811015613e2e5781516001600160401b031687529582019590820190600101613e09565b509495945050505050565b84815260ff8416602082015260ff83166040820152608060608201526000613e646080830184613df5565b9695505050505050565b6020808252818101527f4f776e61626c653a2063616c6c6572206973206e6f7420746865206f776e6572604082015260600190565b60006001600160401b0380831681811415613ec057613ec0613ca6565b6001019392505050565b6001600160a01b0394851681529290931660208301526040820152606081019190915260a06080820181905260009082015260c00190565b60006001600160401b0383811690831681811015613f2257613f22613ca6565b039392505050565b60008219821115613f3d57613f3d613ca6565b500190565b60008060408385031215613f5557600080fd5b8251613f6081613733565b6020840151909250613f7181613733565b809150509250929050565b6001600160a01b038316815260406020820181905260009061301390830184613df5565b600060208284031215613fb257600080fd5b61302782613af2565b8281526040602082015260006130136040830184613df5565b600082613fe357613fe3613cdf565b500690565b60008060008060008060c0878903121561400157600080fd5b865161400c81613733565b602088015190965061401d81613733565b604088015190955061402e81613733565b606088015190945061403f81613733565b608088015190935061405081613733565b60a088015190925061406181613733565b80915050929550929550929556fea26469706673582212207430c3a55ee0db8250e46e504e30f438ac4c2ebb13218884b939f8e34f58828764736f6c63430008090033e0283e559c29e31ee7f56467acc9dd307779c843a883aeeb3bf5c6128c908144a7c5ba7114a813b50159add3a36832908dc83db71d0b9a24c2ad0f83be958207afafe8948a4ed9d478b1e9a5780b119b5edd00ea7d07bc35bef7c814824eb94b9adb202b1492743bc00c81d33cdc6423fa8c79109027eb6a845391e8fc1f048126b4a10d0f0b04925c23bd4480ee147c916e5e87a7d68206a533dad160ac81e2fd54ff1ed53f34a900b24c5ba64f85761163b5d82d98a47b9bd80e45466993c510a81eed9d63d16face5e76357905348e6253d3394086026bb2bf2145d7cc249e710864318d4a32f37d6ce54cb3fadbef648dd12d8dbdf53973564d56b7f881c",
  "immutableReferences": {},
  "source": "// SPDX-License-Identifier: SimPL-2.0\n\npragma solidity ^0.8.0;\npragma experimental ABIEncoderV2;\n\nimport \"./RichShop.sol\";\nimport \"./RichHero.sol\";\n\nimport \"@openzeppelin/contracts/access/Ownable.sol\";\nimport \"@openzeppelin/contracts/access/AccessControl.sol\";\nimport \"@openzeppelin/contracts/token/ERC20/IERC20.sol\";\nimport \"@openzeppelin/contracts/token/ERC1155/IERC1155.sol\";\nimport \"@openzeppelin/contracts/token/ERC1155/utils/ERC1155Receiver.sol\";\n\nimport \"@openzeppelin/contracts/utils/Address.sol\";\nimport \"@openzeppelin/contracts/utils/math/SafeMath.sol\";\n\n/**\n* @title Rich Hero - Romance of the Three Kingdoms NFT\n*\n*\n* Docs: \n*\n* Version v1.1.0\n*\n*/\n\ncontract Training is Ownable, ERC1155Receiver {\n    using SafeMath for uint256;\n\n    uint256 public constant PCT_BASE = 1e18;\n    uint256 public constant RAND_BASE = 10000;\n        // _addItem(\"ZHJ\", 1, 100); // tokenId: 0\n        // _addItem(\"TGL\", 1, 100); // tokenId: 1\n        // _addItem(\"SHJ\", 1, 100); // tokenId: 2\n        // _addItem(\"SGZ\", 1, 100); // tokenId: 3\n        // _addItem(\"Excellent_Gem\", 1, 100); // tokenId: 4\n        // _addItem(\"Epic_Gem\", 1, 100); // tokenId: 5\n        // _addItem(\"Legend_Gem\", 1, 100); // tokenId: 6\n        // _addItem(\"Break_Gem\", 1, 100); // tokenId: 7\n        // _addItem(\"Advanced_Gem\", 1, 100); // tokenId: 8\n        // _addItem(\"LY_Stone\", 1, 100); // tokenId: 9\n        // _addItem(\"Drum\", 0, 100); // tokenId: 10\n        // _addItem(\"Forage\", 0, 100); // tokenId: 11\n    uint64[] public gemsAddition = [2000, 500, 200];\n    uint64[] public advanceAdditions = [105, 25, 130, 21];\n    uint64[] public advanceAdditionLevels = [6000, 4000];\n    uint64 public advanceGemAddition = 1000;\n\n    uint256[] public books = [0, 1, 2, 3];\n    uint256[] public gems = [4, 5, 6];\n    uint256 public breakGem = 7;\n    uint256 public advanceGem = 8;\n    uint256 public ly_stone = 9;\n\n    uint256[] public gemsCost = [1, 2, 4, 8];\n    RichHero public HERO;\n    RichShop public SHOP;\n    mapping (uint64 => mapping(uint64 => uint64[3])) public _baseAddition; //rarity => star => [main, other, book]\n    mapping (uint64 => mapping(uint64 => uint64[4])) public _baseQualities; //card1 => card2 => [normal, excellent, epic, legend]\n    \n    constructor(address nft, address shop) {\n        require(Address.isContract(nft), \"Nft Invalid\");\n        require(Address.isContract(shop), \"Nft Invalid\");\n        HERO = RichHero(nft);\n        SHOP = RichShop(shop);\n        //\n        //\n        _baseAddition[0][0] = [2, 1, 1];\n        _baseAddition[0][1] = [2, 1, 1];\n        //\n        _baseAddition[1][0] = [2, 1, 2];\n        _baseAddition[1][1] = [3, 2, 2];\n        _baseAddition[1][2] = [4, 3, 2];\n        _baseAddition[1][3] = [5, 4, 2];\n        //\n        _baseAddition[2][0] = [2, 1, 3];\n        _baseAddition[2][1] = [3, 2, 3];\n        _baseAddition[2][2] = [4, 3, 4];\n        _baseAddition[2][3] = [5, 4, 4];\n        _baseAddition[2][4] = [6, 5, 4];\n        //\n        _baseAddition[3][0] = [2, 1, 5];\n        _baseAddition[3][1] = [3, 2, 5];\n        _baseAddition[3][2] = [4, 3, 5];\n        _baseAddition[3][3] = [5, 4, 6];\n        _baseAddition[3][4] = [6, 5, 6];\n        _baseAddition[3][5] = [7, 6, 6];\n        //\n        _baseAddition[4][0] = [2, 1, 10];    \n        _baseAddition[4][1] = [3, 2, 10];\n        _baseAddition[4][2] = [4, 3, 10];\n        _baseAddition[4][3] = [5, 4, 10];\n        _baseAddition[4][4] = [6, 5, 10];\n        _baseAddition[4][5] = [7, 6, 10];    \n        _baseAddition[4][6] = [8, 7, 10];\n        _baseAddition[4][7] = [9, 8, 10];\n        _baseAddition[4][8] = [10, 9, 10];\n        _baseAddition[4][9] = [11, 10, 10];\n        _baseAddition[4][10] = [12, 11, 10];\n\n        //\n        _baseQualities[0][0] = [8000, 1999, 1, 0]; //+\n        _baseQualities[0][1] = [4900, 4900, 199, 1];//+\n        _baseQualities[1][0] = [4900, 4900, 199, 1];//+\n        _baseQualities[0][2] = [2500, 5000, 2400, 100];//+\n        _baseQualities[2][0] = [2500, 5000, 2400, 100];//+\n        _baseQualities[0][3] = [2000, 3000, 4000, 1000];//+\n        _baseQualities[3][0] = [2000, 3000, 4000, 1000];//+\n        _baseQualities[1][1] = [0, 8000, 1990, 10];//+\n        _baseQualities[1][2] = [0, 4900, 4900, 200];//+\n        _baseQualities[2][1] = [0, 4900, 4900, 200];//+\n        _baseQualities[1][3] = [0, 1500, 7500, 1000];//+\n        _baseQualities[3][1] = [0, 1500, 7500, 1000];//+\n        _baseQualities[2][2] = [0, 0, 8500, 1500];//+\n        _baseQualities[2][3] = [0, 0, 7000, 3000];//+\n        _baseQualities[3][2] = [0, 0, 7000, 3000];//+\n        _baseQualities[3][3] = [0, 0, 200, 9800];//+\n\n        //0xAAd1f995F6994BEf38Cadc711f533F9629e4839c;\n        // uint256 tokenId = tokenListLength++;\n        // _heros[tokenId] = HeroDetail(\n        //     tokenId, 5, 0, 0, 1, block.timestamp\n        // );\n        // _mint(address(0xAAd1f995F6994BEf38Cadc711f533F9629e4839c), tokenId);\n    }\n\n    function upgradeLevel(uint256 tokenId) public {\n        require(HERO.ownerOf(tokenId) == msg.sender);\n        RichHero.HeroDetail memory detail = HERO.getHero(tokenId);\n        require(detail.level < 5);\n        IERC1155(SHOP).safeTransferFrom(msg.sender, address(this), books[detail.quality], _baseAddition[detail.rarity][detail.star][2], \"\");\n        uint64[] memory properties = new uint64[](5);\n        for (uint256 i = 0; i < 5; i++) {\n            if (detail.preference == 5) {\n                properties[i] = _baseAddition[detail.rarity][detail.star][0]*detail.addition + detail.properties[i];\n            } else {\n                if (detail.preference == i) {\n                    properties[i] = _baseAddition[detail.rarity][detail.star][0]*detail.addition + detail.properties[i];\n                } else {\n                    properties[i] = _baseAddition[detail.rarity][detail.star][1]*detail.addition + detail.properties[i];\n                }\n            }\n        }\n        HERO.setHero(tokenId, detail.level+1, detail.star, properties);\n    }\n\n    function onekeyUpgradeLevel(uint256 tokenId) public {\n        require(HERO.ownerOf(tokenId) == msg.sender);\n        RichHero.HeroDetail memory detail = HERO.getHero(tokenId);\n        require(detail.level < 5);\n        uint256 balance = IERC1155(SHOP).balanceOf(msg.sender, books[detail.quality]);\n        require(balance >= _baseAddition[detail.rarity][detail.star][2]);\n        uint64 maxUpgradeLevel = 5 - detail.level;\n        uint64 enoughUpgradeLevel = uint64(balance) / _baseAddition[detail.rarity][detail.star][2];\n        uint64[] memory properties = new uint64[](5);\n        if (maxUpgradeLevel > enoughUpgradeLevel) {\n            IERC1155(SHOP).safeTransferFrom(msg.sender, address(this), books[detail.quality], _baseAddition[detail.rarity][detail.star][2]*enoughUpgradeLevel, \"\");\n            for (uint256 i = 0; i < 5; i++) {\n                if (detail.preference == 5) {\n                    properties[i] = _baseAddition[detail.rarity][detail.star][0]*detail.addition*enoughUpgradeLevel + detail.properties[i];\n                } else {\n                    if (detail.preference == i) {\n                        properties[i] = _baseAddition[detail.rarity][detail.star][0]*detail.addition*enoughUpgradeLevel + detail.properties[i];\n                    } else {\n                        properties[i] = _baseAddition[detail.rarity][detail.star][1]*detail.addition*enoughUpgradeLevel + detail.properties[i];\n                    }\n                }\n            }\n            HERO.setHero(tokenId, detail.level+uint8(enoughUpgradeLevel), detail.star, properties);\n        } else {\n            IERC1155(SHOP).safeTransferFrom(msg.sender, address(this), books[detail.quality], _baseAddition[detail.rarity][detail.star][2]*maxUpgradeLevel, \"\");\n            for (uint256 i = 0; i < 5; i++) {\n                if (detail.preference == 5) {\n                    properties[i] = _baseAddition[detail.rarity][detail.star][0]*detail.addition*maxUpgradeLevel + detail.properties[i];\n                } else {\n                    if (detail.preference == i) {\n                        properties[i] = _baseAddition[detail.rarity][detail.star][0]*detail.addition*maxUpgradeLevel + detail.properties[i];\n                    } else {\n                        properties[i] = _baseAddition[detail.rarity][detail.star][1]*detail.addition*maxUpgradeLevel + detail.properties[i];\n                    }\n                }\n            }\n            HERO.setHero(tokenId, 5, detail.star, properties);\n        }\n    }\n\n    function upgradeStar(uint256 tokenId) public {\n        require(HERO.ownerOf(tokenId) == msg.sender);\n        RichHero.HeroDetail memory detail = HERO.getHero(tokenId);\n        require((detail.star < HERO.topStar(detail.rarity)) && (detail.level == 5));\n        IERC1155(SHOP).safeTransferFrom(msg.sender, address(this), breakGem, _baseAddition[detail.rarity][detail.star][2]*2, \"\");\n        // upgrade 2 level\n        uint64[] memory properties = new uint64[](5);\n        for (uint256 i = 0; i < 5; i++) {\n            if (detail.preference == 5) {\n                properties[i] = _baseAddition[detail.rarity][detail.star][0]*detail.addition*2 + detail.properties[i];\n            } else {\n                if (detail.preference == i) {\n                    properties[i] = _baseAddition[detail.rarity][detail.star][0]*detail.addition*2 + detail.properties[i];\n                } else {\n                    properties[i] = _baseAddition[detail.rarity][detail.star][1]*detail.addition*2 + detail.properties[i];\n                }\n            }\n        }\n        HERO.setHero(tokenId, 0, detail.star+1, properties);\n    }\n\n    function upgradeRarity(uint256[] memory tokenIds, bool useUpgradeGem, uint256 gemId, bool useAdvanceGem) public {\n        require(tokenIds.length == 2);\n        require(HERO.ownerOf(tokenIds[0]) == msg.sender && HERO.ownerOf(tokenIds[1]) == msg.sender);\n        RichHero.HeroDetail memory detail1 = HERO.getHero(tokenIds[0]);\n        RichHero.HeroDetail memory detail2 = HERO.getHero(tokenIds[1]);\n        require(detail1.rarity == detail2.rarity && detail1.rarity < 4);\n        require(detail1.camp == detail2.camp);\n        uint256 randIndex;\n        for (uint256 i = 0; i < 2; i++) {\n            HERO.transferFrom(msg.sender, address(this), tokenIds[i]);\n        }\n        //todo limit upgrade golden\n        uint64[] memory properties1 = new uint64[](5);\n        uint64[] memory properties2 = new uint64[](5);\n        for (uint64 i = 0; i < 5; i++) {\n            properties1[i] = detail1.properties[i];\n            properties2[i] = detail2.properties[i];\n        }\n        if ((detail1.preference != detail2.preference) && (detail1.rarity == 3)) {\n            (properties2[detail1.preference], properties1[detail2.preference]) = (properties2[detail2.preference], properties2[detail1.preference]);\n        }\n        for (uint64 i = 0; i < 5; i++) {\n            properties1[i] = properties1[i] + properties2[i];\n        }\n        uint64[] memory oldDetail = new uint64[](6);\n        oldDetail[0] = 1;\n        oldDetail[1] = detail1.rarity+1;\n        oldDetail[2] = 0;\n        oldDetail[3] = 0;\n        {\n            uint64[] memory qualities = new uint64[](4);\n            uint64[] memory advanceAdditionLevel = new uint64[](2);\n            uint64 leastQuality;\n            for (uint64 i = 0; i < 4; i++) {\n                qualities[i] = _baseQualities[detail1.quality][detail2.quality][i];\n                if ((qualities[i] != 0) && (leastQuality == 0)) {\n                    leastQuality == i;\n                }\n            }\n            for(uint256 i = 0; i < 2; i++) {\n                advanceAdditionLevel[i] = advanceAdditionLevel[i];\n            }\n            if (useUpgradeGem) {\n                require((gemId > leastQuality) && (gemId < gems.length));\n                IERC1155(SHOP).safeTransferFrom(msg.sender, address(this), gems[gemId], gemsCost[detail1.rarity], \"\");\n                qualities[leastQuality] -= gemsAddition[gemId];\n                qualities[gemId+1] += gemsAddition[gemId];\n            }\n            if (useAdvanceGem) {\n                IERC1155(SHOP).safeTransferFrom(msg.sender, address(this), advanceGem, gemsCost[detail1.rarity], \"\");\n                advanceAdditionLevel[0] -= advanceGemAddition;\n                advanceAdditionLevel[1] += advanceGemAddition;\n            }\n            uint256 qualityTotal;\n            uint256 ranQuality = _random(RAND_BASE, randIndex++);\n            for (uint64 i = 0; i < 4; i++) {\n                qualityTotal = qualityTotal.add(qualities[i]);\n                if (ranQuality >= qualityTotal) {\n                    continue;\n                } else {\n                    oldDetail[4] = i; //quality\n                    break;\n                }\n            }\n            uint256 level;\n            uint256 advanceAdditionLevelTotal;\n            uint256 ranAddition = _random(RAND_BASE, randIndex++);\n            for (uint64 i = 0; i < 2; i++) {\n                advanceAdditionLevelTotal = advanceAdditionLevelTotal.add(advanceAdditionLevel[i]);\n                if (ranAddition >= advanceAdditionLevelTotal) {\n                    continue;\n                } else {\n                    level = i; //quality\n                    break;\n                }\n            }\n            uint64 advanceAddtion;\n            if (level == 0) {\n                advanceAddtion = advanceAdditions[0] + _random(advanceAdditions[1], randIndex++);\n            } else {\n                advanceAddtion = advanceAdditions[2] + _random(advanceAdditions[3], randIndex++);\n            }\n            for (uint64 i = 0; i < 5; i++) {\n                properties1[i] = properties1[i]*advanceAddtion/100;\n            }\n        }\n        {\n            (uint64 baseAddition, uint64 additionMod) = HERO.additions(oldDetail[4]);\n            oldDetail[5] = baseAddition + uint64(_random(additionMod, randIndex++)); //addition\n            uint64[] memory newDetail = new uint64[](13);\n            newDetail = _choose(oldDetail, detail1.preference, properties1, true, detail1.camp);\n            //burn and mint\n            for (uint256 i = 0; i < 2; i++) {\n                HERO.removeHero(tokenIds[i]);\n            }\n            HERO.mint(msg.sender, newDetail);\n        }\n    }\n\n    function rebirth(uint256 tokenId) public {\n        require(HERO.ownerOf(tokenId) == msg.sender);\n        RichHero.HeroDetail memory detail = HERO.getHero(tokenId);  \n        require(detail.rarity < 4);\n        IERC1155(SHOP).safeTransferFrom(msg.sender, address(this), ly_stone, gemsCost[detail.rarity], \"\");\n        uint64[] memory oldDetail = new uint64[](6);\n        uint64[] memory properties = new uint64[](5);\n        for (uint64 i = 0; i < 5; i++) {\n            properties[i] = detail.properties[i];\n        }\n        oldDetail[0] = detail.native;\n        oldDetail[1] = detail.rarity;\n        oldDetail[2] = detail.level;\n        oldDetail[3] = detail.star;\n        oldDetail[4] = detail.quality;\n        oldDetail[5] = detail.addition;\n        uint64[] memory newDetail = new uint64[](13);\n        newDetail = _choose(oldDetail, detail.preference, properties, true, detail.camp);\n        HERO.rebirth(tokenId, newDetail);\n    }\n\n    function supportsInterface(bytes4 interfaceId) public view virtual\n        override(ERC1155Receiver) returns (bool) {\n        return super.supportsInterface(interfaceId);\n    }\n\n    function onERC1155Received(\n        address operator,\n        address from,\n        uint256 id,\n        uint256 value,\n        bytes calldata data\n    )\n    external\n    override\n    pure\n    returns(bytes4)\n    {\n        this.onERC1155BatchReceived.selector;\n    }\n\n    function onERC1155BatchReceived(\n        address operator,\n        address from,\n        uint256[] calldata ids,\n        uint256[] calldata values,\n        bytes calldata data\n    )\n    external\n    override\n    pure\n    returns(bytes4)\n    {\n        this.onERC1155BatchReceived.selector;\n    }\n\n    function _random(uint256 _value, uint256 index) private view returns (uint64) {\n        bytes memory seed = abi.encodePacked(block.timestamp, index, msg.sender);\n        return uint64(uint256(keccak256(seed)) % _value);\n    }\n\n    function _choose(uint64[] memory detail, uint64 preference, uint64[] memory properties, bool saveCamp, uint64 camp) private view\n        returns (uint64[] memory) {\n        uint64[] memory heroDetail = new uint64[](13);\n        uint256 randIndex = 0;\n        heroDetail[0] = detail[0]; //native\n        if (!saveCamp) {\n            heroDetail[1] = uint64(_random(uint256(HERO.camps()), randIndex++)); //camp\n        } else {\n            heroDetail[1] = camp;\n        }\n        heroDetail[2] = detail[1];//rarity\n        heroDetail[3] = uint64(_random(uint256(HERO.heroIds(heroDetail[2])), randIndex++)); //heroId\n        heroDetail[4] = detail[2]; //level\n        heroDetail[5] = detail[3]; //star  \n        heroDetail[6] = detail[4]; //quality\n        heroDetail[7] = detail[5]; //addition\n        (uint64 newPreference,,,,,) = HERO._heroInitials(heroDetail[1], heroDetail[2], heroDetail[3]); //preference\n        (properties[preference], properties[newPreference]) = (properties[newPreference], properties[preference]);\n        heroDetail[8] = properties[0];\n        heroDetail[9] = properties[1];\n        heroDetail[10] = properties[2];\n        heroDetail[11] = properties[3];\n        heroDetail[12] = properties[4];\n        return heroDetail;\n    }\n\n    function setShop(address shop) public onlyOwner {\n        SHOP = RichShop(shop);\n    }\n\n    function setHero(address hero) public onlyOwner {\n        HERO = RichHero(hero);\n    }\n}",
  "sourcePath": "/Users/hy/new-rich-contract/contracts/Training.sol",
  "compiler": {
    "name": "solc",
    "version": "0.8.9+commit.e5eed63a.Emscripten.clang"
  },
  "schemaVersion": "3.4.3",
  "updatedAt": "2022-02-22T14:19:16.585Z",
  "networkType": "ethereum",
  "devdoc": {
    "kind": "dev",
    "methods": {
      "onERC1155BatchReceived(address,address,uint256[],uint256[],bytes)": {
        "details": "Handles the receipt of a multiple ERC1155 token types. This function is called at the end of a `safeBatchTransferFrom` after the balances have been updated. To accept the transfer(s), this must return `bytes4(keccak256(\"onERC1155BatchReceived(address,address,uint256[],uint256[],bytes)\"))` (i.e. 0xbc197c81, or its own function selector).",
        "params": {
          "data": "Additional data with no specified format",
          "from": "The address which previously owned the token",
          "ids": "An array containing ids of each token being transferred (order and length must match values array)",
          "operator": "The address which initiated the batch transfer (i.e. msg.sender)",
          "values": "An array containing amounts of each token being transferred (order and length must match ids array)"
        },
        "returns": {
          "_0": "`bytes4(keccak256(\"onERC1155BatchReceived(address,address,uint256[],uint256[],bytes)\"))` if transfer is allowed"
        }
      },
      "onERC1155Received(address,address,uint256,uint256,bytes)": {
        "details": "Handles the receipt of a single ERC1155 token type. This function is called at the end of a `safeTransferFrom` after the balance has been updated. To accept the transfer, this must return `bytes4(keccak256(\"onERC1155Received(address,address,uint256,uint256,bytes)\"))` (i.e. 0xf23a6e61, or its own function selector).",
        "params": {
          "data": "Additional data with no specified format",
          "from": "The address which previously owned the token",
          "id": "The ID of the token being transferred",
          "operator": "The address which initiated the transfer (i.e. msg.sender)",
          "value": "The amount of tokens being transferred"
        },
        "returns": {
          "_0": "`bytes4(keccak256(\"onERC1155Received(address,address,uint256,uint256,bytes)\"))` if transfer is allowed"
        }
      },
      "owner()": {
        "details": "Returns the address of the current owner."
      },
      "renounceOwnership()": {
        "details": "Leaves the contract without owner. It will not be possible to call `onlyOwner` functions anymore. Can only be called by the current owner. NOTE: Renouncing ownership will leave the contract without an owner, thereby removing any functionality that is only available to the owner."
      },
      "supportsInterface(bytes4)": {
        "details": "See {IERC165-supportsInterface}."
      },
      "transferOwnership(address)": {
        "details": "Transfers ownership of the contract to a new account (`newOwner`). Can only be called by the current owner."
      }
    },
    "title": "Rich Hero - Romance of the Three Kingdoms NFT Docs:  Version v1.1.0",
    "version": 1
  },
  "userdoc": {
    "kind": "user",
    "methods": {},
    "notice": "",
    "version": 1
  }
}